:020000040800F2
:10000000E8050020ED01000851520008F9430008FE
:100010004D520008910A0008096300080000000022
:100020000000000000000000000000009D570008D4
:10003000C50B000800000000C1520008F557000879
:10004000070200080702000807020008070200086C
:10005000070200080702000807020008070200085C
:10006000070200080702000807020008950A0008B6
:10007000070200080702000807020008070200083C
:10008000070200080000000007020008070200083D
:10009000070200080702000807020008070200081C
:1000A000070200080702000807020008070200080C
:1000B00007020008070200080702000807020008FC
:1000C00007020008070200080702000807020008EC
:1000D00007020008070200080702000807020008DC
:1000E00007020008070200080702000807020008CC
:1000F00007020008070200080702000800000000CD
:1001000000000000070200080000000007020008CD
:1001100007020008000000000702000807020008AC
:10012000070200080702000807020008070200088B
:10013000070200080000000000000000070200089D
:10014000070200080702000800000000000000008D
:10015000000000000000000000000000000000009F
:10016000000000000000000000000000070200087E
:10017000070200080000000000000000000000006E
:10018000000000000702000800000000000000005E
:10019000000000000000000000000000000000005F
:1001A000000000000000000007020008070200082D
:1001B000070200080702000807020008000000000C
:1001C000000000000702000800000000000000001E
:1001D0000702000807020008DFF80CD000F03CFA24
:1001E00000480047D5670008E8050020064880471A
:1001F00006480047FEE7FEE7FEE7FEE7FEE7FEE70C
:10020000FEE7FEE7FEE7FEE799580008D90100087F
:10021000D2B201E000F8012B491EFBD27047002248
:10022000F6E710B513460A4604461946FFF7F0FFF5
:10023000204610BD00F0004230F000400AD0C10D51
:1002400001F56071C0F3160042EA0151C20840078F
:100250001143704700200146704730B50B460146F8
:1002600000202022012409E021FA02F59D4205D355
:1002700003FA02F5491B04FA02F52844151EA2F1FF
:100280000102F1DC30BD2DE9F05F05460020924609
:100290009B4688460646814640241BE02846414648
:1002A0004746224600F0FFF953465A46C01A91418C
:1002B00010D311461846224600F0E6F92D1A67EBD6
:1002C00001084F4622460120002100F0DDF917EB1E
:1002D00000094E41201EA4F10104DFDC48463146EE
:1002E0002A464346BDE8F09F2DE9FE4F804681EA4D
:1002F0000300C00F0C46009021F0004123F00045A0
:10030000B8EB0200A94105D24046214690461C4662
:100310000B46024623F00040104347D0270DC7F399
:100320000A00C3F30A510290401A019040286BDA88
:10033000C3F3130040F4801B0098924620B10023C1
:10034000D2EB030A63EB0B0B01985946C0F1400254
:10035000504600F099F906460D4650465946019A16
:1003600000F0B1F910EB08006141002487EA115256
:1003700084EAE7731A4340D0009A62B3019A012AD3
:100380004FEA075215DC001B61EB02014FF00042FF
:1003900002EA0752CDE90042001C41F580113246C5
:1003A0002B4600F0B1F903B0BDE8F08F404621467E
:1003B000F9E7001B61EB0201001C41F580130018F6
:1003C0005B412018A2F5001747EB030140EAD57006
:1003D000B6196D4111E06D084FEA360645EAC07561
:1003E0004FEA0752001B61EB0201001C41F580112E
:1003F00049084FEA30000019514132462B4603B0FC
:10040000BDE8F04F00F071B90098012240000023D0
:10041000D0EB020263EBE073009821464FEAE074F0
:10042000B8EB000061EB0401E9E783F000435BE710
:1004300081F0004158E72DE9FE4F81EA030404F002
:10044000004421F0004100944FF0000B23F00043E2
:1004500050EA01045ED052EA03045BD0C3F30A54AD
:10046000C1F30A552C44A4F2F3340194A0FB0254C6
:10047000C1F3130141F48011C3F3130343F4801358
:1004800001FB024400FB034E840A970A44EA8154AC
:1004900047EA8357A4FB076802958D0A05FB078589
:1004A0004FEA932C04FB0C542705029D4FEA065893
:1004B00047EA1637B5EB08056EEB070C870E920E70
:1004C00047EA811742EA8312A7FB0201B6EB0B0150
:1004D00064EB00042B0D43EA0C335E1844EB1C5014
:1004E000DA465146E7FB0201C5F313044FEA0B332A
:1004F00043EA14534FEA0432019C43EA0603A4F191
:100500000C040294009CCDE900B400F0FDF803B0A7
:10051000BDE8F08F00200146F9E72DE9F04D81EAB2
:10052000030404F0004B21F0004514464FF0000A8C
:1005300023F0004150EA050220D054EA01021DD008
:10054000C5F30A570246C5F31303C1F31300C1F301
:100550000A5640F4801543F48013A7EB0608101BDD
:10056000D64608F2FD3873EB050002D308F1010806
:1005700001E092185B41B8F1000F03DA0020014658
:10058000BDE8F08D00204FF48011064684460EE051
:10059000171B73EB050705D3121B63EB050306431B
:1005A0004CEA010C49084FEA300092185B4150EACE
:1005B0000107EDD152EA030012D082EA040083EA77
:1005C0000501084305D0101BAB4106D201220023D0
:1005D00006E000224FF0004302E06FF001025310EA
:1005E0001AEB06004CEB085110EB0A0041EB0B0133
:1005F000BDE8F04D00F079B8C1F30A52C1F3130120
:1006000040F2FF3341F480119A4202DA00200146A1
:10061000704740F233439A42A2F2334202DC524224
:1006200000F041B800F030B830B5041E71F100049C
:1006300004DB4FF00044404264EB0101141E73F1EF
:10064000000405DB1C464FF00043524263EB0403F9
:10065000994208BF904230BD1CB509480090094836
:1006600001900546009C06E0E06840F0010394E834
:10067000070098471034AC42F6D3FFF7B1FD0000F5
:100680003C8500085C850008202A04DB203A00FA3B
:1006900002F1002070479140C2F1200320FA03F3D9
:1006A000194390407047202A04DB203A21FA02F0D7
:1006B0000021704721FA02F3D040C2F1200291409C
:1006C000084319467047202A06DBCB17203A41FA27
:1006D00002F043EAE07306E041FA02F3D040C2F1CF
:1006E0002002914008431946704710B5141E73F15B
:1006F000000408DA401C41F1000192185B411A43E2
:1007000001D120F0010010BD2DE9F04D92469B462D
:1007100011B1B1FA81F202E0B0FA80F220329046D3
:10072000FFF7B2FF04460F4640EA0A0041EA0B0118
:1007300053465A46084313D0114653EA010019D0D4
:10074000C8F140025046FFF7AEFF05460E46504640
:1007500059464246FFF798FF084305D0012004E0C0
:1007600020463946BDE8F08D0020054346EAE07694
:100770002C4337430A986305E40AA0EB08000022E3
:10078000FD0A44EA47540A3002D500200146E9E751
:10079000010510196941DDE9084500196941BDE805
:1007A000F04DA2E780B582B001900198806A009078
:1007B0000098C06D10F0500F4BD1FFE70099C86D45
:1007C00040F40070C86500980068006800070028C1
:1007D00021D5FFE70098006804F078FAD0B1FFE770
:1007E00000980068C0688004002812D4FFE70099D0
:1007F000C86D20F48070C8650098C06DC0040028E2
:1008000006D4FFE70099C86D40F00100C865FFE716
:10081000FFE7FFE719E000980068C068800700283C
:1008200012D4FFE70099C86D20F48070C865009865
:10083000C06DC004002806D4FFE70099C86D40F0E1
:100840000100C865FFE7FFE7FFE7009800F052FEF0
:1008500010E00098C06DC006002804D5FFE700989E
:1008600000F050FE05E00098406D416B019888470C
:10087000FFE7FFE702B080BD80B582B0019001982C
:10088000806A00900099C86D40F04000C8650099EA
:10089000086E40F004000866009800F033FE02B0D5
:1008A00080BD000080B582B001900198806A009000
:1008B000009800F023FE02B080BD000080B584B037
:1008C00002900298006804F0E1F900900298006834
:1008D00004F0E4F900284BD0FFE70098002847D146
:1008E000FFE702980068806800F00D00012809D138
:1008F000FFE70298006804F059F9029801680320A4
:1009000008600DE00299C86D40F01000C8650299BA
:10091000086E40F00100086601208DF80F002BE002
:1009200001F094FC0190FFE7029800688068C0071E
:10093000E8B1FFE701F08AFC0199401A032815D3BA
:10094000FFE7029800688068C00770B1FFE702996E
:10095000C86D40F01000C8650299086E40F00100B3
:10096000086601208DF80F0006E0FFE7DCE7FFE7EF
:1009700000208DF80F00FFE79DF80F0004B080BD48
:1009800080B584B00290002000900298006804F0C6
:1009900085F9002874D1FFE70298006880683F213C
:1009A000C8F2000108420ED0FFE70299C86D40F07E
:1009B0001000C8650299086E40F001000866012029
:1009C0008DF80F0060E00298006804F009F940F229
:1009D0000030C5F2000004F021F9000200281CD507
:1009E000FFE740F20400C2F200000068800942F60E
:1009F0006351C0F23E51A0FB0110800900EB4001A1
:100A00000C2000EB81000090FFE7009820B1FFE789
:100A1000009801380090F8E7FFE701F017FC01901B
:100A2000FFE7029800680068C00740BBFFE7029834
:100A3000006804F033F928B9FFE70298006804F071
:100A4000CFF8FFE701F002FC0199401A032815D303
:100A5000FFE7029800680068C00770B9FFE70299D5
:100A6000C86D40F01000C8650299086E40F00100A2
:100A7000086601208DF80F0006E0FFE7D1E7FFE7E9
:100A800000208DF80F00FFE79DF80F0004B080BD37
:100A9000FFE7FEE780B540F23010C2F2000000F040
:100AA000FBFF80BD84B003900398006840F20741CB
:100AB000C4F20201884206D8FFE740F60000C4F203
:100AC0000200009005E040F62000C4F20200009011
:100AD000FFE7009802900398007808384CF6CD4163
:100AE000CCF6CC41A0FB01100009019002980399BB
:100AF0004A6C22F0030210448864039940F6800097
:100B0000C4F20200C864019800F01F01012088406F
:100B10000399086504B0704782B00190019800798C
:100B20000090009940F6FC00C4F2020000EB810046
:100B300001994865019940F64010C4F202008865A9
:100B40000098013800F01F01012088400199C86514
:100B500002B0704784B00390029101920093039811
:100B6000C16C006D48600398406D28B1FFE70398A1
:100B7000816DC06D4860FFE70398016C406C00F028
:100B80001F0201209040486000980399096848605E
:100B900003988068102809D1FFE701980399096834
:100BA0008860029803990968C86008E00298039970
:100BB00009688860019803990968C860FFE704B074
:100BC000704700007047000082B0ADF806000020BA
:100BD000ADF80400FFE7BDF80400BDF80610884238
:100BE00019DAFFE70020ADF80200FFE7BDF80200C8
:100BF00040F6B731884207DCFFE7FFE7BDF80200A7
:100C00000130ADF80200F1E7FFE7BDF80400013064
:100C1000ADF80400DFE702B07047000081B0EFF3E9
:100C2000108072B60090FFE7FEE7000080B586B046
:100C30000490039100200190FFE7049890F8580079
:100C4000012804D1FFE702208DF817005AE004992B
:100C5000012081F85800FFE7FFE70498FFF72EFE18
:100C60008DF80B009DF80B00D8BBFFE70498C06D12
:100C700040F0020020F488500499C8650498006888
:100C8000039904F015F9FFE70498006803F0EEFFFC
:100C9000F0B1FFE701980130019001984DF6026133
:100CA000C0F20401884212D3FFE70498C06D40F0FF
:100CB000100020F002000499C865FFE704990020A5
:100CC00081F85800FFE701208DF817001AE0DBE7F4
:100CD0000498C06D40F0010020F002000499C8653E
:100CE00005E00499C86D40F01000C865FFE7FFE714
:100CF0000499002081F85800FFE79DF80B008DF85B
:100D00001700FFE79DF8170006B080BD80B5C0B0A2
:100D100020901F9100208DF87B001B901F98C068C9
:100D20000021C4F27F01884201D0FFE700E0FFE725
:100D3000FFE7209890F85800012804D1FFE702202F
:100D40008DF88700D2E32099012081F85800FFE751
:100D5000FFE72098006803F0B1FF002840F0B2835D
:100D6000FFE7209800681F990A68496803F0BAFFF6
:100D70002098006803F0A2FF1A902098006803F002
:100D80006DFF19901A98002840F0B881FFE7199874
:100D9000002840F0B381FFE71F988068B0F1004F52
:100DA0000ED1FFE7209800681F990968002203F020
:100DB000C5FF209800684FF0004104F06BF80CE08C
:100DC000209800681F9A1168926803F0B7FF209876
:100DD0000068002104F05EF8FFE71F984069209941
:100DE0000968C96801F01801890888401D901F989A
:100DF000006904281CD0FFE7209800681F990A6842
:100E000009691D9B03F0ECFF209800681F9A116987
:100E1000926904F017F8209800681F9A1169127FF0
:100E2000013AB2FA82F25209520603F0F7FF64E186
:100E300020980068002103F001FF400348B9FFE754
:100E400020980068002103F0F9FEC0F38460189038
:100E500018E020980068002103F0F0FE90FAA0F05E
:100E60003E903E9820B9FFE720208DF8FF0005E076
:100E70003E98B0FA80F08DF8FF00FFE79DF8FF0084
:100E80001890FFE7189817901F980068400330B932
:100E9000FFE71F980068C0F38460169015E01F9864
:100EA000006890FAA0F03C903C9820B9FFE7202021
:100EB0008DF8F70005E03C98B0FA80F08DF8F70067
:100EC000FFE79DF8F7001690FFE7179816998842FC
:100ED00007D1FFE7209800680022114603F0C6FF03
:100EE000FFE720980068012103F0A8FE400348B9FD
:100EF000FFE720980068012103F0A0FEC0F38460A2
:100F0000159018E020980068012103F097FE90FAF0
:100F1000A0F03A903A9820B9FFE720208DF8EF0032
:100F200005E03A98B0FA80F08DF8EF00FFE79DF801
:100F3000EF001590FFE7159814901F980068400384
:100F400030B9FFE71F980068C0F38460139015E084
:100F50001F98006890FAA0F03890389820B9FFE701
:100F600020208DF8E70005E03898B0FA80F08DF881
:100F7000E700FFE79DF8E7001390FFE71498139947
:100F8000884207D1FFE7209800680121002203F082
:100F90006DFFFFE720980068022103F04FFE400339
:100FA00048B9FFE720980068022103F047FEC0F32C
:100FB0008460129018E020980068022103F03EFE41
:100FC00090FAA0F03690369820B9FFE720208DF8EF
:100FD000DF0005E03698B0FA80F08DF8DF00FFE71B
:100FE0009DF8DF001290FFE7129811901F9800689B
:100FF000400330B9FFE71F980068C0F38460109089
:1010000015E01F98006890FAA0F03490349820B949
:10101000FFE720208DF8D70005E03498B0FA80F083
:101020008DF8D700FFE79DF8D7001090FFE71198E3
:101030001099884207D1FFE720980068022100221A
:1010400003F014FFFFE720980068032103F0F6FD8A
:10105000400348B9FFE720980068032103F0EEFD44
:10106000C0F384600F9018E020980068032103F01B
:10107000E5FD90FAA0F03290329820B9FFE72020E9
:101080008DF8CF0005E03298B0FA80F08DF8CF00EF
:10109000FFE79DF8CF000F90FFE70F980E901F9885
:1010A0000068400330B9FFE71F980068C0F3846010
:1010B0000D9015E01F98006890FAA0F030903098DD
:1010C00020B9FFE720208DF8C70005E03098B0FA7E
:1010D00080F08DF8C700FFE79DF8C7000D90FFE78F
:1010E0000E980D99884207D1FFE7209800680321E8
:1010F000002203F0BBFEFFE7FFE7FFE72098006850
:1011000003F0CCFD002840F04481FFE72098006800
:101110001F9A1168D26803F02DFE1F98C068002145
:10112000C4F27F01884240F03381FFE720980068D5
:101130000C901F980068400330B9FFE71F980068C3
:10114000C0F384600B9015E01F98006890FAA0F03F
:101150002E902E9820B9FFE720208DF8BF0005E0E3
:101160002E98B0FA80F08DF8BF00FFE79DF8BF0021
:101170000B90FFE70B98013000F01F0009287DD885
:10118000FFE71F980068400330B9FFE71F98006829
:10119000C0F384600A9015E01F98006890FAA0F0F0
:1011A0002C902C9820B9FFE720208DF8B70005E09F
:1011B0002C98B0FA80F08DF8B700FFE79DF8B700E3
:1011C0000A90FFE70A98013000F01F00800609909E
:1011D0001F980068400330B9FFE71F980068C0F30C
:1011E0008460089015E01F98006890FAA0F02A909B
:1011F0002A9820B9FFE720208DF8AF0005E02A9853
:10120000B0FA80F08DF8AF00FFE79DF8AF000890CE
:10121000FFE709980899013101F01F02012191406F
:10122000084307901F980068400330B9FFE71F98F4
:101230000068C0F38460069015E01F98006890FA7B
:10124000A0F02890289820B9FFE720208DF8A7006B
:1012500005E02898B0FA80F08DF8A700FFE79DF828
:10126000A7000690FFE707980699013101F01F01DA
:1012700001EB410140EA0150059082E01F980068AF
:10128000400330B9FFE71F980068C0F38460049002
:1012900015E01F98006890FAA0F02690269820B9D3
:1012A000FFE720208DF89F0005E02698B0FA80F037
:1012B0008DF89F00FFE79DF89F000490FFE70498DA
:1012C000013000F01F00800603901F980068400363
:1012D00030B9FFE71F980068C0F38460029015E002
:1012E0001F98006890FAA0F02490249820B9FFE796
:1012F00020208DF8970005E02498B0FA80F08DF852
:101300009700FFE79DF897000290FFE70398029986
:10131000013101F01F0201219140084301901F9803
:101320000068400330B9FFE71F980068C0F384608D
:10133000009015E01F98006890FAA0F02290229883
:1013400020B9FFE720208DF88F0005E02298B0FA41
:1013500080F08DF88F00FFE79DF88F000090FFE789
:1013600001990098013000F01F0000EB40020020BE
:10137000CFF6206000EB0250084340F0007005906B
:10138000FFE70C9805991F9A926803F0D7FCFFE7D6
:10139000FFE71F98408848F20801084200F091805A
:1013A000FFE740F20030C5F2000003F037FC1C906C
:1013B0001F9800680021CCF22131884208D0FFE755
:1013C0001F9800681021C9F2C001884232D1FFE79E
:1013D0009DF87200000600282CD4FFE720980068D2
:1013E000B0F1A04F25D1FFE71C9840F4000140F276
:1013F0000030C5F2000003F0E5FC40F20400C2F248
:1014000000000068800942F66351C0F23E51A0FB23
:101410000110800900EB40010C2000EB81001B90C3
:10142000FFE71B9820B1FFE71B9801381B90F8E7F6
:10143000FFE745E01F9800680021CCF25271884216
:1014400019D1FFE79DF87300C007A0B9FFE7209806
:10145000006840F20011C5F2000188420AD0FFE79F
:101460001C9840F0807140F20030C5F2000003F09B
:10147000A9FCFFE723E01F9800680021CCF6843127
:1014800088421AD1FFE79DF872004006002814D464
:10149000FFE72098006840F20011C5F20001884281
:1014A0000AD0FFE71C9840F4800140F20030C5F2FA
:1014B000000003F087FCFFE700E0FFE7FFE7FFE73E
:1014C000FFE708E02099C86D40F02000C8650120C2
:1014D0008DF87B00FFE7FFE72099002081F8580096
:1014E000FFE79DF87B008DF88700FFE79DF88700F8
:1014F00040B080BD81B0009001B0704781B00090D5
:1015000001B0704781B0009001B0704780B588B0DD
:10151000069000208DF817000190069820B9FFE78B
:1015200001208DF81F0079E10698406940B1FFE77E
:10153000069890F82400012801D1FFE7FFE7FFE7B4
:101540000698C06D50B9FFE7069800F06BF9069950
:1015500000200866069981F85800FFE706980068A1
:1015600003F08CFB28B1FFE70698006803F02CFB22
:10157000FFE70698006803F099FBF0B9FFE70698CB
:10158000006803F03BFB40F20400C2F20000006878
:10159000800942F66351C0F23E51A0FB011081095F
:1015A000022000EB41000190FFE7019820B1FFE726
:1015B000019801380190F8E7FFE70698006803F00A
:1015C00075FB70B9FFE70699C86D40F01000C8655B
:1015D0000699086E40F00100086601208DF817009A
:1015E000FFE70698006803F069FB03900698C06D5A
:1015F000C006002800F10481FFE70398002840F0AE
:10160000FF80FFE70698C06D40F0020020F4807074
:101610000699C8650698006803F040FBD0B9FFE75B
:101620004FF0A04003F03AFB009040F20010C5F2EA
:10163000000003F033FB01460098084348B9FFE778
:101640000698416840F20030C5F2000003F0ACFBA0
:10165000FFE7FFE706994A7FC86B40EA42308A6895
:10166000CB681843104391F8241040EA01400490DD
:10167000069890F8240001280BD1FFE70698816AAC
:101680000020CFF6FE7000EB41410498084304901F
:10169000FFE70698C06A50B1FFE70699C86A096B70
:1016A00000F478700143049808430490FFE706981B
:1016B0000068C06844F20701CFF6F0710840049951
:1016C000084306990968C86006980068006920F018
:1016D0004060069A1168526B1043086106980068D2
:1016E00003F0BCFA02900398002868D1FFE7029843
:1016F000002864D1FFE70699087F91F8381080032D
:1017000040EA4100049006980068C06844F2020173
:1017100088430499084306990968C86006980069D7
:10172000A0B1FFE706980168086940F480300861BD
:1017300006980068D0F8C00043F6FF718843069A07
:10174000116812691043C1F8C00011E006980168E1
:10175000086920F48030086106980068D0F8C0005D
:1017600043F6FF71884306990968C1F8C000FFE796
:10177000069890F84000012819D1FFE70698006804
:10178000006940F2FD7120EA0102069B1968586C5D
:10179000D3F848E0D3F84CC040EA0E0040EA0C0011
:1017A0001B6D1843104340F00100086106E00698E5
:1017B0000168086920F001000861FFE7FFE706986B
:1017C000406901280CD1FFE706980068006B20F003
:1017D0000F00069A1168126A013A1043086306E086
:1017E00006980168086B20F00F000863FFE7069871
:1017F000C06D40F0010020F002000699C86508E0C5
:101800000699C86D40F01000C86501208DF81700DA
:10181000FFE79DF817008DF81F00FFE79DF81F00F8
:1018200008B080BD80B58AB009900020089007906C
:101830000690059004900998006840F20011C5F2E6
:101840000001884258D1FFE7FFE741F24C00C4F2A3
:101850000200016841F400510160006800F400508A
:1018600003900398FFE7FFE741F24C00C4F2020047
:10187000016841F002010160006800F0020002907E
:101880000298FFE74FF400400490032005900020E9
:101890000090069040F20040C4F6000004A900F059
:1018A000F3FA009940F23010C2F2000001900822D1
:1018B000C4F202020260242242608160C160802280
:1018C00002614FF4007242614FF400628261202293
:1018D000C261016200F08CF918B1FFE7FFF79EF9D1
:1018E000FFE7FFE7099840F23011C2F200014165BD
:1018F00009988862FFE7FFE70AB080BD80B588B02D
:1019000006900591049240F20030C5F2000003F009
:101910008DF902900698006803F0D0F9002840F095
:10192000AE80FFE7FFE7069890F85800012804D141
:10193000FFE702208DF81F00AAE00699012081F838
:101940005800FFE7FFE7029848B1FFE70298052833
:1019500005D0FFE70298092840F08680FFE7069847
:10196000FFF70EF88DF80F009DF80F00002873D1D7
:10197000FFE70698C06D40F4807040F6016188432F
:101980000699C8650698006840F20011C5F200018A
:10199000884204D1FFE74FF0A040019003E0069891
:1019A00000680190FFE7019806990968884203D012
:1019B000FFE7029830B9FFE70699C86D20F4801060
:1019C000C865FFE70698C06DC004002806D5FFE78C
:1019D0000699086E20F00600086603E006990020CC
:1019E0000866FFE70698416D40F2A570C0F600005A
:1019F000C8620698416D40F6A500C0F60000086375
:101A00000698416D40F67900C0F6000048630698DC
:101A100001681C200860FFE70699002081F8580043
:101A2000FFE706980168486840F010004860069893
:101A30000168C86840F00100C86006980168406D00
:101A40004031059A049B00F07FF98DF80F0006984D
:101A5000006803F065F906E0FFE70699002081F8C9
:101A60005800FFE7FFE709E001208DF80F00FFE7CE
:101A70000699002081F85800FFE7FFE703E0022005
:101A80008DF80F00FFE79DF80F008DF81F00FFE7AE
:101A90009DF81F0008B080BD80B584B00390039806
:101AA000006C00680290039800680068019002983A
:101AB0000399496C01F01F01C8404007002825D553
:101AC000FFE79DF80400400700281FD5FFE70398B3
:101AD000006800688006002807D4FFE703980168C3
:101AE000086820F004000860FFE70398016C406C70
:101AF00000F01F020420904048600398006B20B162
:101B0000FFE70398016B8847FFE76EE002980399AF
:101B1000496C01F01F01C840800700282FD5FFE75E
:101B20009DF804008007002829D5FFE70398006886
:101B30000068800600280BD4FFE703980168086856
:101B400020F00A0008600399012081F82500FFE7D2
:101B50000398016C406C00F01F0202209040486026
:101B6000FFE70399002081F82400FFE70398C06A8B
:101B700020B1FFE70398C16A8847FFE734E0029885
:101B80000399496C01F01F01C8400007002829D5BE
:101B9000FFE79DF804000007002823D5FFE703981E
:101BA0000168086820F00E0008600398026C406C21
:101BB00000F01F01012000FA01F151600399C86390
:101BC000039981F82500FFE70399002081F824009C
:101BD000FFE70398406B20B1FFE70398416B88470C
:101BE000FFE700E0FFE7FFE7FFE704B080BD00008C
:101BF00080B584B00290029820B9FFE701208DF8EB
:101C00000F009CE00298006840F20741C4F2020114
:101C1000884218D8FFE7029908684FF6F872CBF6A9
:101C2000FD7210444CF6CD42CCF6CC42A0FB020231
:101C30006FF0030000EA9200486402990020C4F2A9
:101C40000200086418E0029908684FF6F832CBF6F3
:101C5000FD7210444CF6CD42CCF6CC42A0FB020201
:101C60006FF0030000EA92004864029940F20040DD
:101C7000C4F202000864FFE70299022081F82500FF
:101C80000298006800680190019847F6F071884357
:101C9000019002998868D1F80CC00B694A6940EA42
:101CA0000C00184310438A691043CA691043096A3B
:101CB000014301980843019001980299096808605E
:101CC0000298FEF7EFFE02988068B0F5804F04D1CD
:101CD000FFE7029900204860FFE702990879896CC4
:101CE00008600298C16C006D48600298406888B135
:101CF000FFE70298406804280CD8FFE70298FEF737
:101D00000BFF0298416D002008600298816DC06D44
:101D1000486007E0029900204865029988650299A9
:101D2000C865FFE702990020C863029A012182F882
:101D30002510029981F824008DF80F00FFE79DF827
:101D40000F0004B080BD000080B586B00490039100
:101D50000292019300208DF80300FFE7049890F8A9
:101D60002400012804D1FFE702208DF8170065E068
:101D70000499012081F82400FFE7FFE7049890F818
:101D8000250001284BD1FFE70499022081F82500A6
:101D900004990020C86304980168086820F00100D5
:101DA000086004980399029A019BFEF7D3FE0498F9
:101DB000006B38B1FFE704980168086840F00E0036
:101DC00008600CE004980168086820F004000860CE
:101DD00004980168086840F00A000860FFE704986A
:101DE000806C0068C003002807D5FFE70498816C69
:101DF000086840F480700860FFE70498406D38B1CF
:101E0000FFE70498416D086840F480700860FFE7C0
:101E100004980168086840F00100086009E0FFE7E5
:101E20000499002081F82400FFE702208DF80300C8
:101E3000FFE79DF803008DF81700FFE79DF81700F6
:101E400006B080BD80B584B0039000F0FFF9029029
:101E5000039801900198013048B1FFE740F2340047
:101E6000C2F200000168019808440190FFE7FFE713
:101E700000F0ECF90299401A0199884201D2FFE77B
:101E8000F6E704B080BD00008BB00A9009910020F5
:101E90000890FFE7099800680899C840002800F0FA
:101EA000A581FFE709980068089A01219140084040
:101EB00007900798002800F09581FFE7099840688F
:101EC00000F00300012807D0FFE70998406800F000
:101ED000030002282FD1FFE70A988068069008982F
:101EE0004100032000FA01F1069888430690099802
:101EF000C0680899490000FA01F106980843069065
:101F000006980A9988600A98406806900899012006
:101F100000FA01F106988843069009984068C0F3DA
:101F20000010089900FA01F10698084306900698F7
:101F30000A994860FFE70998406800F00300032809
:101F400018D0FFE70A98C06806900898410003205F
:101F500000FA01F10698884306900998806808996C
:101F6000490000FA01F106980843069006980A997C
:101F7000C860FFE70998406800F00300022826D1F6
:101F8000FFE70A9808996FF0030202EA510108443A
:101F9000006A0690089800F0070081000F2000FA00
:101FA00001F106988843069009980069089901F0A4
:101FB0000701890000FA01F1069808430690069887
:101FC0000A99089B02EA530211440862FFE70A9843
:101FD0000068069008984100032000FA01F1069875
:101FE000884306900998406800F00300089949006A
:101FF00000FA01F106980843069006980A990860CD
:10200000099880798007002800F0EB80FFE7FFE760
:1020100041F26000C4F20200016841F00101016078
:10202000006800F0010005900598FFE7089820F08F
:1020300003000821C4F2010140580690089800F0FE
:10204000030081000F2000FA01F1069888430690F2
:102050000A98B0F1904F03D1FFE70020049042E0CE
:102060000A9840F20041C4F60001884203D1FFE71C
:102070000120039034E00A9840F60001C4F6000104
:10208000884203D1FFE70220029026E00A9840F63A
:102090000041C4F60001884203D1FFE7032001900C
:1020A00018E00A9841F20001C4F60001884203D109
:1020B000FFE7042000900AE00A9941F20042C4F6CA
:1020C00000020620914208BF05200090FFE700981B
:1020D0000190FFE701980290FFE702980390FFE765
:1020E00003980490FFE70498089901F00301890020
:1020F00000FA01F10698084306900698089921F025
:1021000003010822C4F20102885040F20840C4F2E0
:102110000100006806900799069888430690099880
:102120008079C006002805D5FFE70799069808437F
:102130000690FFE7069840F20841C4F201010860EA
:1021400040F20C40C4F2010000680690079906981E
:1021500088430690099880798006002805D5FFE716
:102160000799069808430690FFE7069840F20C414D
:10217000C4F20101086040F20440C4F201000068AA
:1021800006900799069888430690099880798007F9
:10219000002805D5FFE70799069808430690FFE752
:1021A000069840F20441C4F20101086040F2004088
:1021B000C4F20100006806900799069888430690CB
:1021C00009988079C00728B1FFE707990698084366
:1021D0000690FFE7069840F20041C4F20101086052
:1021E000FFE7FFE708980130089053E60BB070470F
:1021F00082B00190ADF8021001980069BDF802109C
:10220000084204D0FFE701208DF8010003E0002020
:102210008DF80100FFE79DF8010002B07047000053
:1022200082B00190ADF802108DF801209DF80100F8
:1022300028B1FFE7BDF802000199886104E0BDF80C
:10224000020001998862FFE702B0704740F2E41093
:10225000C2F200000068704740F23400C2F2000091
:10226000026840F2E411C2F20001086810440860FC
:102270007047000080B582B0002000908DF8070004
:10228000032000F09BF8009800F00EF820B1FFE763
:1022900001208DF8070002E000F04AF8FFE79DF802
:1022A000070002B080BD000080B582B00190002020
:1022B0008DF8030040F23400C2F20000006878B3E9
:1022C000FFE740F20400C2F20000006840F234016F
:1022D000C2F200010A684FF47A71B1FBF2F1B0FB6F
:1022E000F1F001F073F9B0B9FFE701980F280DD8AC
:1022F000FFE701994FF0FF30002200F047F8019806
:1023000040F23801C2F20001086003E001208DF8BC
:102310000300FFE703E001208DF80300FFE703E07F
:1023200001208DF80300FFE79DF8030002B080BD97
:1023300080B582B0FFE741F26000C4F2020001689C
:1023400041F001010160006800F001000190019876
:10235000FFE7FFE741F25800C4F20200016841F0D4
:1023600080510160006800F0805000900098FFE705
:1023700000F006F902B080BD80B582B08DF807008C
:102380009DF9070003F0C2FF02B080BD80B586B0A2
:102390008DF817000491039203F0D0FF02909DF98D
:1023A0001700019002980499039A02F053FF014626
:1023B000019803F0CBFF06B080BD000080B582B06D
:1023C0000190019803F0E4FF02B080BD85B0039056
:1023D000039800285ED1FFE747F20000C4F2000036
:1023E000006800F4C060B0F5806F49D1FFE747F2A4
:1023F0008001C4F20001086820F48070086047F290
:102400000002C4F200021168012060F34A21116049
:1024100040F20401C2F200010968322251434DF634
:102420008362C4F21B32A1FB022100EB91400290B7
:10243000FFE747F21400C4F20000016800204905DC
:102440000029019006D5FFE70298002818BF012057
:102450000190FFE70198C00720B1FFE7029801381B
:102460000290E6E747F21400C4F20000006840055D
:10247000002804D5FFE703208DF813007CE008E076
:1024800047F28001C4F20001086820F480700860FF
:10249000FFE76DE00398B0F5007F5ED1FFE747F2FC
:1024A0000000C4F20000006800F4C060B0F5806F66
:1024B00049D1FFE747F28001C4F20001086840F407
:1024C0008070086047F20002C4F200021168012027
:1024D00060F34A21116040F20401C2F20001096870
:1024E000322251434DF68362C4F21B32A1FB02211A
:1024F00000EB91400290FFE747F21400C4F20000A5
:102500000168002049050029009006D5FFE70298E0
:10251000002818BF01200090FFE70098C00720B1F5
:10252000FFE7029801380290E6E747F21400C4F290
:10253000000000684005002804D5FFE703208DF85F
:10254000130019E008E047F28001C4F200010868B6
:1025500040F480700860FFE709E047F20001C4F230
:1025600000010868022262F34A200860FFE7FFE7E3
:1025700000208DF81300FFE79DF8130005B07047A9
:1025800047F20801C4F20001086840F48040086086
:102590007047000080B586B0059000208DF80B00D4
:1025A0008DF80A00059880780007002840F1B58072
:1025B000FFE700208DF8090041F25800C4F2020044
:1025C0000068C000002813D4FFE7FFE741F258007D
:1025D000C4F20200016841F080510160006800F01F
:1025E000805001900198FFE701208DF80900FFE776
:1025F00047F20001C4F20001086840F480700860EE
:10260000FFF724FE0390FFE747F20000C4F200004A
:102610000068C00500280CD4FFE7FFF717FE0399F8
:10262000401A032804D3FFE703208DF80B0000E0D5
:10263000EAE79DF80B0000285BD1FFE741F290002C
:10264000C4F20200006800F4407004900498C8B11D
:10265000FFE704980599096C884213D0FFE741F21F
:102660009001C4F20201086820F4407004900868E8
:1026700040F480300860086820F4803008600498D6
:102680000860FFE79DF81000C007E0B1FFE7FFF723
:10269000DDFD0390FFE741F29000C4F20200006804
:1026A000800700280ED4FFE7FFF7D0FD0399401AFA
:1026B00041F28931884204D3FFE703208DF80B00F3
:1026C00000E0E8E7FFE79DF80B0060B9FFE741F2A3
:1026D0009001C4F20201086820F44070059A126C5F
:1026E0001043086004E09DF80B008DF80A00FFE736
:1026F00004E09DF80B008DF80A00FFE79DF8090043
:10270000012809D1FFE741F25801C4F2020108682B
:1027100020F080500860FFE7FFE705980078C007C9
:1027200060B1FFE741F28801C4F20201086820F0BD
:102730000300059A526810430860FFE70598007887
:10274000800700280CD5FFE741F28801C4F202019E
:10275000086820F00C00059A926810430860FFE7B3
:1027600005980078400700280CD5FFE741F2880162
:10277000C4F20201086820F03000059AD2681043C4
:102780000860FFE705980078000700280CD5FFE7F0
:1027900041F28801C4F20201086820F0C000059AE5
:1027A000126910430860FFE705980078800600284A
:1027B0000CD5FFE741F28801C4F20201086820F459
:1027C0004060059A526910430860FFE70598007859
:1027D000400600280CD5FFE741F28801C4F202014F
:1027E000086820F44050059A926910430860FFE79A
:1027F00005980078000600280CD5FFE741F2880113
:10280000C4F20201086820F44040059AD2691043DE
:102810000860FFE705984078C00760B1FFE741F224
:102820008801C4F20201086820F44030059A126A57
:1028300010430860FFE705984078800700280CD512
:10284000FFE741F28801C4F20201086820F4402049
:10285000059A526A10430860FFE7059840784007E0
:1028600000281BD5FFE741F28801C4F20201086885
:1028700020F44010059A926A104308600598806A17
:10288000B0F5801F09D1FFE741F20C01C4F202014B
:10289000086840F480100860FFE7FFE7059840787B
:1028A000000700281BD5FFE741F28801C4F20201AE
:1028B000086820F44000059AD26A10430860059821
:1028C000C06AB0F5800F09D1FFE741F20C01C4F2F4
:1028D0000201086840F480100860FFE7FFE70598F0
:1028E0004078C00600281BD5FFE741F28801C4F2FA
:1028F0000201086820F04070059A126B10430860CE
:102900000598006BB0F1807F09D1FFE741F20C011F
:10291000C4F20201086840F480100860FFE7FFE796
:1029200005984078800600281BD5FFE741F2880112
:10293000C4F20201086820F04060059A526B10430F
:1029400008600598406BB0F1006F09D1FFE741F2D4
:102950000C01C4F20201086840F480100860FFE72F
:10296000FFE705984078400600281BD5FFE741F2B5
:102970008801C4F20201086820F04060059A926B59
:10298000104308600598806BB0F1006F09D1FFE734
:1029900041F20C01C4F20201086840F480100860A2
:1029A000FFE7FFE705984078000600281BD5FFE702
:1029B00041F28801C4F20201086820F04050059AF3
:1029C000D26B104308600598C06BB0F1805F09D1ED
:1029D000FFE741F20C01C4F20201086840F48030C4
:1029E0000860FFE7FFE79DF80A0006B080BD000021
:1029F00080B586B00490039100200090049820B91F
:102A0000FFE701208DF8170081E1039842F20001F1
:102A1000C4F20201096801F00F01884216D9FFE7EC
:102A200042F20000C4F20200016821F00F01039A93
:102A300011430160006800F00F000399884204D040
:102A4000FFE701208DF8170061E1FFE704980078A7
:102A5000C007002800F0A380FFE70498406803281F
:102A600039D1FFE741F20000C4F2020000688001A2
:102A7000002804D4FFE701208DF8170047E102F099
:102A800021FC019001984BF20141C0F2C4418842FF
:102A900020D3FFE741F20800C4F20200006810F002
:102AA000F00F0AD0FFE7049800788007002810D5BF
:102AB000FFE70498806860B9FFE741F20801C4F2BB
:102AC00002010868082262F3071008608020009065
:102AD000FFE7FFE738E00498406802280ED1FFE7DF
:102AE00041F20000C4F2020000688003002804D410
:102AF000FFE701208DF8170009E10DE041F2000029
:102B0000C4F2020000684005002804D4FFE7012059
:102B10008DF81700FBE0FFE700F0FEF80190019848
:102B20004BF20141C0F2C44188420CD3FFE741F2AD
:102B30000801C4F202010868082262F30710086065
:102B400080200090FFE7FFE741F20801C4F2020194
:102B5000086820F00300049A526810430860FFF7E9
:102B600075FB0290FFE741F20800C4F20200006822
:102B700000F00C0004994968B0EB810F0ED0FFE71C
:102B8000FFF764FB0299401A41F28931884204D36D
:102B9000FFE703208DF81700B9E0E4E7FFE70498AA
:102BA0000078800700282CD5FFE7049800784007BC
:102BB000002809D5FFE741F20801C4F202010868C4
:102BC00040F4E0600860FFE7049800780007002800
:102BD0000BD5FFE741F20801C4F20201086840F496
:102BE000E06020F460500860FFE741F20801C4F2A1
:102BF0000201086820F0F000049A9268104308600F
:102C00000DE00098802809D1FFE741F20801C4F2E5
:102C10000201086820F0F0000860FFE7FFE7039872
:102C200042F20001C4F20201096801F00F0188427A
:102C300028D2FFE742F20001C4F20201086820F046
:102C40000F00039A10430860FFF700FB0290FFE7B4
:102C500042F20000C4F20200006800F00F00039985
:102C600088420ED0FFE7FFF7F1FA0299401A41F2CD
:102C70008931884204D3FFE703208DF8170046E02E
:102C8000E6E7FFE704980078400700280CD5FFE747
:102C900041F20801C4F20201086820F4E060049ADD
:102CA000D26810430860FFE7049800780007002806
:102CB0000DD5FFE741F20801C4F20201086820F4D3
:102CC0006050049A126940EAC2000860FFE700F011
:102CD00023F841F20801C4F202010968C9B20A09E5
:102CE00047F2F021C0F60001895C01F01F01C840E5
:102CF00040F20401C2F20001086040F23800C2F262
:102D000000000068FFF7D0FA8DF81700FFE79DF884
:102D1000170006B080BD000086B041F20800C4F282
:102D20000200006800F00C00042806D1FFE742F220
:102D30000040C0F2F400019069E041F20800C4F2E2
:102D40000200006800F00C00082806D1FFE743F2FB
:102D50000060C0F26E10019058E041F20800C4F229
:102D60000200006800F00C000C284BD1FFE741F294
:102D70000C00C4F20200016801F003010491006834
:102D8000C1B2012000EB11100290049800900228BB
:102D900015D0FFE70098032812D1FFE7029943F20C
:102DA0000060C0F26E10B0FBF1F041F20C01C4F211
:102DB00002010968C1F306214843059011E0FFE7CD
:102DC000029942F20040C0F2F400B0FBF1F041F28F
:102DD0000C01C4F202010968C1F3062148430590C1
:102DE000FFE741F20C00C4F20200006800F0C0618D
:102DF000022000EB1160039005980399B0FBF1F0FD
:102E0000019002E000200190FFE7FFE7FFE7019853
:102E100006B07047B0B588B00690069820B9FFE7B5
:102E200001208DF81F00CCE306980078C007002829
:102E300000F09B80FFE741F20800C4F20200006846
:102E400000F00C00049041F20C00C4F20200006893
:102E500000F00300039004980C2804D1FFE70398C6
:102E6000032804D0FFE70498082812D1FFE741F2B5
:102E70000000C4F2020000688003002808D5FFE7C4
:102E80000698406820B9FFE701208DF81F0098E3FD
:102E90006AE0FFE706984068B0F5803F09D1FFE798
:102EA00041F20001C4F20201086840F48030086079
:102EB00020E006984068B0F5A02F0DD1FFE741F261
:102EC0000001C4F20201086840F48020086008682C
:102ED00040F4803008600CE041F20001C4F20201CD
:102EE000086820F480300860086820F480200860BA
:102EF000FFE7FFE7FFE706984068D0B1FFE7FFF77D
:102F0000A5F90590FFE741F20000C4F20200006855
:102F1000800300280CD4FFE7FFF798F90599401AC1
:102F2000652804D3FFE703208DF81F0049E3EAE793
:102F300019E0FFF78BF90590FFE741F20000C4F2BA
:102F400002000068800300280CD5FFE7FFF77EF938
:102F50000599401A652804D3FFE703208DF81F0068
:102F60002FE3EAE7FFE7FFE7FFE70698007880072F
:102F7000002840F19F80FFE741F20800C4F2020000
:102F8000006800F00C00049041F20C00C4F2020052
:102F9000006800F00300039004980C2804D1FFE7B8
:102FA0000398022804D0FFE7049804282CD1FFE7F7
:102FB00041F20000C4F2020000684005002808D574
:102FC000FFE70698C06820B9FFE701208DF81F00D1
:102FD000F7E241F20401C4F20201086820F0FE4069
:102FE000069A126940EA0260086040F23800C2F2B4
:102FF00000000068FFF758F920B1FFE701208DF8C5
:103000001F00DEE2FFE754E00698C06870B3FFE7F8
:1030100041F20001C4F20201086840F480700860C7
:10302000FFF714F90590FFE741F20000C4F2020037
:103030000068400500280CD4FFE7FFF707F9059961
:10304000401A032804D3FFE703208DF81F00B8E2DD
:10305000EAE741F20401C4F20201086820F0FE40F0
:10306000069A126940EA0260086021E041F200011C
:10307000C4F20201086820F480700860FFF7E6F8E7
:103080000590FFE741F20000C4F20200006840052D
:1030900000280CD5FFE7FFF7D9F80599401A032857
:1030A00004D3FFE703208DF81F008AE2EAE7FFE779
:1030B000FFE7FFE7069800780007002849D5FFE7FB
:1030C0000698406910B3FFE741F29401C4F202018F
:1030D000086840F001000860FFF7B8F80590FFE7C6
:1030E00041F29400C4F202000068800700280CD46A
:1030F000FFE7FFF7ABF80599401A032804D3FFE771
:1031000003208DF81F005CE2EAE721E041F2940120
:10311000C4F20201086820F001000860FFF796F889
:103120000590FFE741F29400C4F2020000688007B6
:1031300000280CD5FFE7FFF789F80599401A032806
:1031400004D3FFE703208DF81F003AE2EAE7FFE728
:10315000FFE7069800784007002840F1C680FFE7A7
:1031600000208DF80B0041F25800C4F20200006804
:10317000C000002813D4FFE7FFE741F25800C4F273
:103180000200016841F080510160006800F0805049
:1031900001900198FFE701208DF80B00FFE747F24F
:1031A0000000C4F200000068C005002822D4FFE738
:1031B00047F20001C4F20001086840F48070086022
:1031C000FFF744F80590FFE747F20000C4F2000063
:1031D0000068C00500280CD4FFE7FFF737F8059911
:1031E000401A032804D3FFE703208DF81F00E8E10D
:1031F000EAE7FFE7FFE706988068012809D1FFE7C3
:1032000041F29001C4F20201086840F00100086038
:103210001FE00698806805280DD1FFE741F2900174
:10322000C4F20201086840F004000860086840F039
:10323000010008600CE041F29001C4F2020108684C
:1032400020F001000860086820F004000860FFE733
:10325000FFE7FFE706988068E0B1FFE7FEF7F6FFBB
:103260000590FFE741F29000C4F202000068800779
:1032700000280ED4FFE7FEF7E9FF0599401A41F256
:103280008931884204D3FFE703208DF81F0098E1BD
:10329000E8E71BE0FEF7DAFF0590FFE741F2900058
:1032A000C4F202000068800700280ED5FFE7FEF791
:1032B000CDFF0599401A41F28931884204D3FFE7D6
:1032C00003208DF81F007CE1E8E7FFE79DF80B0085
:1032D000012809D1FFE741F25801C4F20201086850
:1032E00020F080500860FFE7FFE70698007880062E
:1032F000002849D5FFE70698806910B3FFE741F23F
:103300009801C4F20201086840F001000860FEF76D
:103310009DFF0590FFE741F29800C4F202000068AB
:10332000800700280CD4FFE7FEF790FF0599401AAC
:10333000032804D3FFE703208DF81F0041E1EAE7EB
:1033400021E041F29801C4F20201086820F0010076
:103350000860FEF77BFF0590FFE741F29800C4F29A
:1033600002000068800700280CD5FFE7FEF76EFF1B
:103370000599401A032804D3FFE703208DF81F00A6
:103380001FE1EAE7FFE7FFE70698C069002800F0C1
:103390001481FFE741F20800C4F20200006800F067
:1033A0000C000C2800F0B080FFE70698C0690228E6
:1033B0007CD1FFE741F20001C4F20201086820F06D
:1033C00080700860FEF742FF0590FFE741F20000C1
:1033D000C4F202000068800100280CD5FFE7FEF768
:1033E00035FF0599401A032804D3FFE703208DF821
:1033F0001F00E6E0EAE741F20C01C4F202010868AE
:1034000048F20C02C0F29F121040DDF818C0DCF840
:103410002020DCF82450DCF828E0DCF82C306FF0B9
:103420000F0404EB0514224342EA0E22DCF830407C
:1034300040F2000ECFF6E07E0EEA045EAEF5001E0E
:1034400042EA0E02DCF834E04FF07E4C0CEA0E6CDF
:103450000CF17E4C42EA0C0242EAC362104308605F
:1034600041F20002C4F20202106840F08070106065
:10347000086840F080700860FEF7E8FE0590FFE7FE
:1034800041F20000C4F202000068800100280CD460
:10349000FFE7FEF7DBFE0599401A032804D3FFE798
:1034A00003208DF81F008CE0EAE72CE041F20001D8
:1034B000C4F20201086820F080700860FEF7C6FEC2
:1034C0000590FFE741F20000C4F2020000688001AD
:1034D00000280CD5FFE7FEF7B9FE0599401A03282E
:1034E00004D3FFE703208DF81F006AE0EAE741F20A
:1034F0000C01C4F2020108684FF6FC72CFF6EE62CE
:1035000010400860FFE757E00698C069012804D121
:10351000FFE701208DF81F0053E041F20C00C4F2D8
:10352000020000680390039800F003000699096AFE
:1035300088423BD1FFE7039800F0F00006994A6A01
:103540006FF00F0101EB021188422FD1FFE70398C2
:1035500000F4FE400699896AB0EB012F26D1FFE7FF
:10356000039800F078400699C96AB0EBC16F1DD18D
:10357000FFE7039800F4C00006990A6B0021CFF61C
:10358000E07101EA0251A1F5001188420ED1FFE776
:10359000039800F0C06006994A6B4FF07E4101EA43
:1035A000026101F17E41884204D0FFE701208DF8DD
:1035B0001F0006E0FFE7FFE7FFE700208DF81F0090
:1035C000FFE79DF81F0008B0B0BD000080B582B0D5
:1035D0000190019802F0E4F802B080BD84B002903E
:1035E000019100200090FFE7029890F83C0001282C
:1035F00004D1FFE702208DF80F0083E0029901203B
:1036000081F83C00FFE7FFE7009820F0FF000199F8
:10361000C96808430090009820F4407001998968B7
:1036200008430090009820F480600199496808439D
:103630000090009820F40060019909680843009008
:10364000009820F48050019909690843009000987F
:1036500020F400500199496908430090009820F433
:1036600080400199096B08430090009820F4702075
:103670000199896940EA01400090009820F080504B
:103680000199C969084300900298006842F6004118
:10369000C4F20101884209D0FFE70298006843F2B2
:1036A0000041C4F2010188421ED1FFE7009820F4D6
:1036B00070000199896A40EA01500090009820F05A
:1036C00080700199096A08430090009820F000700A
:1036D0000199496A08430090009820F00050019930
:1036E000C96A08430090FFE7009802990968486496
:1036F000FFE70299002081F83C00FFE700208DF8E9
:103700000F00FFE79DF80F0004B0704785B00390ED
:103710000291FFE7039890F83C00012804D1FFE7ED
:1037200002208DF813008CE00399012081F83C0001
:10373000FFE7FFE70399022081F83D000398006846
:1037400040680190039800688068009003980068C2
:1037500042F60041C4F20101884209D0FFE7039814
:10376000006843F20041C4F2010188420AD1FFE738
:10377000019820F470000190029841680198084374
:103780000190FFE701984FF68F71CFF6FF51084087
:1037900001900298016801980843019001980399EB
:1037A000096848600398006842F60041C4F20101CC
:1037B00088422AD0FFE703980068B0F1804F24D0F8
:1037C000FFE70398006840F20041C4F2000188421C
:1037D0001BD0FFE70398006840F60001C4F2000127
:1037E000884212D0FFE70398006843F20041C4F218
:1037F0000101884209D0FFE70398006844F2000104
:10380000C4F2010188420ED1FFE7009820F0800049
:1038100000900298816800980843009000980399EE
:1038200009688860FFE70399012081F83D00FFE700
:103830000399002081F83C00FFE700208DF8130079
:10384000FFE79DF8130005B07047000080B58AB00F
:1038500008900791079828B9FFE7089890F8440066
:1038600005901CE00798042805D1FFE7089890F818
:103870004500049010E00798082805D1FFE7089854
:1038800090F84600039004E0089890F847000390F1
:10389000FFE703980490FFE704980590FFE7059879
:1038A000012804D0FFE701208DF8270089E0079860
:1038B00028B9FFE70899022081F844001EE0079824
:1038C000042806D1FFE70899022081F845000290FC
:1038D00012E00798082806D1FFE70899022081F82E
:1038E0004600019005E00899022081F84700019008
:1038F000FFE701980290FFE70298FFE70898006849
:103900000799042202F0BAF808980168486C40F45C
:10391000004048640898006842F60041C4F2010182
:1039200088422AD0FFE708980068B0F1804F24D081
:10393000FFE70898006840F20041C4F200018842A5
:103940001BD0FFE70898006840F60001C4F20001B0
:10395000884212D0FFE70898006843F20041C4F2A1
:103960000101884209D0FFE70898006844F200018D
:10397000C4F20101884219D1FFE708980068806805
:103980000721C0F2010108400690069806280CD0D5
:10399000FFE70698B0F5803F07D0FFE70898016879
:1039A000086840F001000860FFE706E00898016839
:1039B000086840F001000860FFE700208DF827004C
:1039C000FFE79DF827000AB080BD000080B584B0F5
:1039D00003900291039800680299002202F04EF8C9
:1039E000FFE703980068006A41F21111084210D104
:1039F000FFE703980068006A44F24441084207D197
:103A0000FFE703980168486C20F400404864FFE732
:103A1000FFE7FFE7FFE703980068006A41F2111132
:103A2000084210D1FFE703980068006A44F244415D
:103A3000084207D1FFE703980168086820F00100F9
:103A40000860FFE7FFE7FFE7029828B9FFE703995F
:103A5000012081F844001EE00298042806D1FFE707
:103A60000399012081F84500019012E0029808288E
:103A700006D1FFE70399012081F84600009005E098
:103A80000399012081F847000090FFE7009801901A
:103A9000FFE70198FFE7002004B080BD80B582B049
:103AA0000090009820B9FFE701208DF8070045E05D
:103AB000009890F83D0040B9FFE70099002081F898
:103AC0003C00009800F03EF8FFE70099022081F8E2
:103AD0003D00009951F8040B01F0E8FE0099012027
:103AE00081F84800FFE70099012081F83E00009925
:103AF00081F83F00009981F84000009981F8410069
:103B0000009981F84200009981F84300FFE7FFE740
:103B10000099012081F84400009981F8450000993E
:103B200081F84600009981F84700FFE700990120DD
:103B300081F83D0000208DF80700FFE79DF80700A1
:103B400002B080BD82B001900198006844F200018B
:103B5000C4F20101884210D1FFE7FFE741F26000A3
:103B6000C4F20200016841F480310160006800F491
:103B7000803000900098FFE7FFE702B07047000038
:103B800080B586B00490039100208DF80B00FFE70C
:103B9000049890F83C00012804D1FFE702208DF83A
:103BA0001700D3E00499012081F83C00FFE7FFE70C
:103BB0000499022081F83D00049800688068019013
:103BC00001984FF68871CFF6CE71084001900198A8
:103BD00020F47F4001900198049909688860039857
:103BE00000680090002800F09780FFE700981028F8
:103BF00000F09280FFE70098202800F08D80FFE71A
:103C00000098302800F08880FFE70098402876D0A0
:103C1000FFE70098502858D0FFE70098602861D04F
:103C2000FFE7009870282CD0FFE70098B0F5805F80
:103C300026D0FFE70098B0F5005F37D0FFE7009887
:103C4000B0F1101F68D0FFE700982021C0F21001EA
:103C5000884261D0FFE700983021C0F2100188420D
:103C60005AD0FFE700984021C0F21001884253D09B
:103C7000FFE700987021C0F2100188424CD052E05A
:103C800055E004980068039B5A689968DB6801F066
:103C900011FF0498006880680190019840F0770057
:103CA0000190019804990968886040E004980068D0
:103CB000039B5A689968DB6801F0FCFE0498016870
:103CC000886840F48040886031E004980068039A76
:103CD0005168D26802F0C6FA04980068502101F0D9
:103CE00003FF24E004980068039A5168D26802F048
:103CF000E1FA04980068602101F0F6FE17E00498EC
:103D00000068039A5168D26802F0ACFA049800681F
:103D1000402101F0E9FE0AE004980068039909686F
:103D200001F0E2FE03E001208DF80B00FFE70499AB
:103D3000012081F83D00FFE70499002081F83C0054
:103D4000FFE79DF80B008DF81700FFE79DF81700BF
:103D500006B080BD80B588B0079000200690059021
:103D60000490039002900798006844F20001C4F2A6
:103D7000010188421ED1FFE7FFE741F24C00C4F287
:103D80000200016841F001010160006800F00100DB
:103D900001900198FFE70620029002200390002086
:103DA00004900590092006904FF0904002A9FEF77C
:103DB0006BF8FFE708B080BD80B586B00490039132
:103DC000029200208DF80700FFE7049890F83C006D
:103DD000012804D1FFE702208DF81700C0E0049904
:103DE000012081F83C00FFE7FFE7029800901428CB
:103DF00000F2A7800099DFE801F00BA4A4A424A49A
:103E0000A4A43EA4A4A457A4A4A471A4A4A48A0016
:103E100004980068039901F07FFE0498016888699E
:103E200040F00800886104980168886920F0040067
:103E30008861039802690498016888691043886161
:103E400083E004980068039901F010FF049801686A
:103E5000886940F40060886104980168886920F4EA
:103E6000806088610398026904980168886940EA63
:103E70000220886169E004980068039901F0AEFFB0
:103E800004980168C86940F00800C8610498016896
:103E9000C86920F00400C8610398026904980168A9
:103EA000C8691043C86150E004980068039902F0A3
:103EB0004DF804980168C86940F40060C86104982E
:103EC0000168C86920F48060C86103980269049899
:103ED0000168C86940EA0220C86136E004980068B9
:103EE000039902F0EBF804980168086D40F00800AF
:103EF000086504980168086D20F0040008650398BF
:103F0000026904980168086D104308651DE0049873
:103F10000068039902F03CF904980168086D40F4C8
:103F20000060086504980168086D20F480600865E9
:103F30000398026904980168086D40EA0220086548
:103F400003E001208DF80700FFE7FFE70499002058
:103F500081F83C00FFE79DF807008DF81700FFE7A8
:103F60009DF8170006B080BD80B582B00090009823
:103F700020B9FFE701208DF8070045E0009890F890
:103F80003D0040B9FFE70099002081F83C0000980F
:103F900000F03EF8FFE70099022081F83D0000990B
:103FA00051F8040B01F082FC0099012081F84800CF
:103FB000FFE70099012081F83E00009981F83F0059
:103FC000009981F84000009981F84100009981F83A
:103FD0004200009981F84300FFE7FFE700990120C4
:103FE00081F84400009981F84500009981F8460065
:103FF000009981F84700FFE70099012081F83D0012
:1040000000208DF80700FFE79DF8070002B080BD93
:1040100081B0009001B0704780B590B00E900D91C6
:104020000D9828B9FFE70E9890F83E000B9034E009
:104030000D98042805D1FFE70E9890F83F000A90EC
:1040400028E00D98082805D1FFE70E9890F8400069
:1040500009901CE00D980C2805D1FFE70E9890F808
:104060004100089010E00D98102805D1FFE70E9848
:1040700090F84200079004E00E9890F843000790F3
:10408000FFE707980890FFE708980990FFE709986D
:104090000A90FFE70A980B90FFE70B98012804D0DD
:1040A000FFE701208DF83F00E1E00D9828B9FFE718
:1040B0000E99022081F83E0038E00D98042806D1C0
:1040C000FFE70E99022081F83F0006902CE00D9842
:1040D000082806D1FFE70E99022081F840000590DC
:1040E0001FE00D980C2806D1FFE70E99022081F8F9
:1040F0004100049012E00D98102806D1FFE70E99B8
:10410000022081F84200039005E00E99022081F818
:1041100043000390FFE703980490FFE7049805909D
:10412000FFE705980690FFE70698FFE70E980068FE
:104130000D990122019201F085FC01980E99096800
:1041400042F60042C4F20102914202902DD0FFE7F4
:104150000E980168012043F20042C4F2010291422C
:10416000029022D0FFE70E980168012044F200027D
:10417000C4F201029142029017D0FFE70E98016845
:10418000012044F20042C4F20102914202900CD09C
:10419000FFE70E9800684BF60001CBF6FE7108446D
:1041A000B0FA80F040090290FFE70298C00738B1EA
:1041B000FFE70E980168486C40F400404864FFE750
:1041C0000E98006842F60041C4F2010188422AD0EC
:1041D000FFE70E980068B0F1804F24D0FFE70E98FB
:1041E000006840F20041C4F2000188421BD0FFE7A2
:1041F0000E98006840F60001C4F20001884212D017
:10420000FFE70E98006843F20041C4F201018842C2
:1042100009D0FFE70E98006844F20001C4F20101E2
:10422000884219D1FFE70E98006880680721C0F224
:10423000010108400C900C9806280CD0FFE70C9860
:10424000B0F5803F07D0FFE70E980168086840F09E
:1042500001000860FFE706E00E980168086840F07A
:1042600001000860FFE700208DF83F00FFE79DF8A0
:104270003F0010B080BD000080B588B00790069167
:10428000079800680699002201F0DCFB0798016896
:10429000012042F60042C4F20102914205902DD065
:1042A000FFE707980168012043F20042C4F20102CF
:1042B0009142059022D0FFE707980168012044F25F
:1042C0000002C4F201029142059017D0FFE707985F
:1042D0000168012044F20042C4F2010291420590BB
:1042E0000CD0FFE7079800684BF60001CBF6FE7193
:1042F0000844B0FA80F040090590FFE70598C00730
:10430000D8B1FFE7FFE707980068006A41F2111192
:10431000084210D1FFE707980068006A44F2444160
:10432000084207D1FFE707980168486C20F4004075
:104330004864FFE7FFE7FFE7FFE7FFE7079800684C
:10434000006A41F21111084210D1FFE70798006896
:10435000006A44F24441084207D1FFE70798016828
:10436000086820F001000860FFE7FFE7FFE7069814
:1043700028B9FFE70799012081F83E0038E0069848
:10438000042806D1FFE70799012081F83F00049037
:104390002CE00698082806D1FFE70799012081F84C
:1043A000400003901FE006980C2806D1FFE707990C
:1043B000012081F84100029012E00698102806D1F1
:1043C000FFE70799012081F84200019005E0079975
:1043D000012081F843000190FFE701980290FFE778
:1043E00002980390FFE703980490FFE70498FFE723
:1043F000002008B080BD0000FFE7FEE780B586B072
:10440000002005900490039002900190C02001903C
:104410000120029003900220049040F20040C4F674
:10442000000001A9FDF730FD06B080BD80B582B067
:1044300008208DF8070000208DF8060001F062F9D1
:10444000FFE79DF80700411E8DF80710F0B1FFE768
:104450009DF8060000448DF80600002001F01EF9CA
:104460001420009002F01AF8009802F017F80120CA
:1044700001F014F9009802F011F801F02BF901464F
:104480009DF8060008438DF80600DAE7002001F0E9
:1044900005F9142002F002F801F068F99DF8060011
:1044A00002B080BD80B582B08DF8070008208DF87D
:1044B0000600FFE79DF80600411E8DF80610F8B1D2
:1044C000FFE7002001F0EAF81420009001F0E6FF79
:1044D0009DF8070000F0800001F02CF9009801F031
:1044E000DDFF00989DF8071009448DF8071001F0D2
:1044F000D5FF012001F0D2F8009801F0CFFFD9E7F5
:10450000002001F0CBF8142001F0C8FF02B080BDFC
:1045100080B582B00120009001F00CF914200190C8
:1045200001F0BCFF019801F0B9FF009801F0B6F866
:10453000019801F0B3FF002001F0B0F8019801F0FC
:10454000ADFF02B080BD000080B584B001200190B5
:1045500001F0F0F81420039001F0A0FF019801F0A1
:104560009DF8039801F09AFF0020029001F0E2F814
:10457000039801F093FF029801F090F8039801F07E
:104580008DFF04B080BD000080B584B00020019094
:1045900001F084F81420039001F080FF019801F0ED
:1045A000C9F8039801F07AFF0120029001F076F833
:1045B000039801F073FF029801F0BCF8039801F032
:1045C0006DFF04B080BD000080B584B00520ADF85B
:1045D0000C0001F097F81420029001F05FFF012019
:1045E00001F05CF8029801F059FFFFE701F072F862
:1045F000A8B1FFE7BDF80C000138ADF80C0014209D
:1046000001F04CFFBDF80C0040B9FFE701F0AEF837
:10461000FFF7BAFF01208DF80F000DE0E6E700205C
:10462000019001F03BF801F0A1F8142001F036FFF1
:1046300001988DF80F00FFE79DF80F0004B080BDD2
:1046400080B586B000200590049003900290019000
:104650004FF6FF710191029003210491039040F6FF
:104660000000C4F6000001A9FDF70EFC06B080BDF5
:1046700080B586B0002005900490039002900190D0
:104680004FF6FF71019101210291032104910390E2
:1046900040F60000C4F6000001A9FDF7F5FB06B0E6
:1046A00080BD000080B584B0ADF80E0000210191FE
:1046B0000291084600F0B0F900F002FA0198029069
:1046C000FFE70298800A4A2809D8FFE7BDF80E00E4
:1046D00000F0C0F9FFE7029801300290F1E704B062
:1046E00080BD000080B58CB000200B900A9009902E
:1046F00008900790FFE741F24C00C4F20200016805
:1047000041F004010160006800F004000690069882
:10471000FFE7FFE741F24C00C4F20200016841F0FC
:1047200001010160006800F0010005900598FFE7B5
:10473000FFE741F24C00C4F20200016841F00201BF
:104740000160006800F0020004900498FFE74FF455
:1047500048700790012000900890032001900A9073
:1047600000200290099040F20040C4F6000007A922
:104770000391FDF789FB009B019A029803994FF47E
:10478000807CCDF81CC008930A9209904FF09040AD
:10479000FDF77AFBFFF76CFF1821C4F600010868EB
:1047A00040F48070086040F21841C4F600010868C7
:1047B00040F4087008600CB080BD000080B582B085
:1047C0008DF80700ADF804108DF803209DF8030064
:1047D00020388DF803009DF80700BDF804109DF8FF
:1047E000032002EB420347F20032C0F6000202EB64
:1047F000031200F037F802B080BD000080B586B02B
:104800008DF8170004910020039040F23F10ADF89E
:104810000A00FFE7049801780020019039B1FFE712
:1048200003990020142938BF01200190FFE7019867
:10483000C007A0B1FFE79DF81700BDF80A10049A61
:104840001278FFF7BBFFBDF80A001038ADF80A0078
:10485000049801300490039801300390DAE706B021
:1048600080BD000080B586B08DF81700ADF814103B
:10487000049200200090039002908DF807009DF8AC
:1048800017008DF807009DF80700BDF8141000F020
:10489000C3F800980390FFE70398172837D8FFE77D
:1048A00000F00EF900200290FFE702980F281ED8B2
:1048B000FFE70498039930F811000299C840C00737
:1048C00040B9FFE740F20000C2F20000008800F0AB
:1048D000C1F807E040F24000C2F20000008800F09A
:1048E000B9F8FFE7FFE7029801300290DDE79DF895
:1048F000070001308DF807009DF80700BDF814107F
:1049000000F08AF8FFE7039801300390C4E706B08F
:1049100080BD000080B5FFF7E5FE002000F01CF828
:10492000014640F2C000C2F200000180008848F257
:104930003021884203D1FFE700F012FD02E000F0D1
:104940009FFDFFE7002000F007F840F2C001C2F22F
:104950000001088080BD000080B582B08DF807009E
:1049600040F22842C4F60002106840F40070106063
:10497000106840F48070106040F21841C4F60001E5
:104980000091086840F0200008609DF8070040F69C
:104990001403C4F600031860106840F02000106093
:1049A00000BF00BF00BF086840F020000860086832
:1049B00040F480700860FFF743FE2821C4F6000130
:1049C000086840F48070086000BF00BF00BF40F678
:1049D0001000C4F600000068ADF804001821C4F609
:1049E0000001086840F480700860FFF741FE0099FC
:1049F000086840F400700860BDF8040002B080BD93
:104A000081B0ADF80200BDF8020040F20001C2F230
:104A10000001088001B0704780B582B08DF80700B2
:104A2000ADF804109DF80710202000F07BF8BDF8C9
:104A30000410212000F076F802B080BD81B0ADF8FE
:104A40000200BDF8020040F24001C2F200010880FD
:104A500001B0704781B0ADF8020040F22842C4F6C0
:104A60000002106840F40070106040F21841C4F673
:104A70000001086840F480700860086840F0200079
:104A80000860BDF8020040F61403C4F60003186085
:104A9000106840F02000106000BF00BF00BF086831
:104AA00040F020000860086840F48070086000BF93
:104AB00000BF00BF086840F40070086001B0704794
:104AC00040F22842C4F60002106840F40070106002
:104AD000106840F48070106040F21841C4F6000184
:104AE000086840F02000086040F61403C4F6000394
:104AF00022201860106840F02000106000BF00BF46
:104B000000BF086840F020000860086840F480702A
:104B1000086000BF00BF00BF086840F40070086074
:104B20007047000081B08DF80300ADF8001040F22E
:104B30002842C4F60002106840F40070106010684B
:104B400040F48070106040F21841C4F6000108681B
:104B500040F0200008609DF8030040F61403C4F6FE
:104B600000031860106840F02000106000BF00BF14
:104B700000BF086840F020000860086840F48070BA
:104B80000860BDF800001860106840F02000106058
:104B900000BF00BF00BF086840F020000860086840
:104BA00040F48070086001B07047000081B0009050
:104BB000009880684FF6C071C7F6FF710840023058
:104BC0000099886001B0704781B0009000998868B2
:104BD0004FF6C072C5F6FF721040886001B0704792
:104BE00081B00090009880684FF6C071C7F6FF71E1
:104BF000084001300099886001B0704781B0009092
:104C00000098806840F080504FF6C071C7F6FF7181
:104C100008400099886001B07047000081B00090A2
:104C20000098806800F0E07001B0704781B000909B
:104C30000098806800F01F0001B0704783B00290B8
:104C400001910298019900EB81006030009000987A
:104C5000006800F0F84003B07047000081B0009099
:104C600000988068C0F3C00001B0704781B0009028
:104C700000988068C00F01B07047000081B00090BC
:104C800000988068C0F3407001B0704781B0009018
:104C900000988068C0F3400001B0704781B0009078
:104CA0000098806800F0010001B0704781B000906A
:104CB00000988068C0F3007001B0704781B0009028
:104CC00000988068C0F3800001B0704781B0009008
:104CD0000098C06800F44060B0FA80F0400901B06C
:104CE0007047000084B003900291019203980299EA
:104CF00001F4407100EB9110303000900098006892
:104D0000029901F01F021F21914088430199C1F3CC
:104D10008461914008430099086004B07047000026
:104D200081B00090009880684FF6C071C7F6FF719F
:104D3000084004300099886001B0704784B0039047
:104D4000029101920398029901F0007100EBD15099
:104D500014300090009800680299C1F304520721B2
:104D6000914088430199914008430099086004B03C
:104D70007047000083B00290019100920298D0F831
:104D8000B00001996FF3DF418843009A02F01803E5
:104D90004FF6FF72C0F20702DA4011400844029950
:104DA000C1F8B00003B0704782B001900091019843
:104DB000806820F47C10009908430199886002B053
:104DC0007047000082B0019000910198806820F047
:104DD000E070009908430199886002B070470000B4
:104DE00085B004900391029201930498039900EB1B
:104DF000810060300090009800684FF20001C0F21E
:104E0000FF310140029800F0F840019A1043084336
:104E100040F000400099086005B0704784B00390EE
:104E2000029101920398029900EB8100603000909A
:104E30000098006820F0007001990843009908600C
:104E400004B0704784B003900291019203980299D4
:104E500000EB8100603000900098006820F08070C6
:104E6000019908430099086004B0704784B003902A
:104E7000029101920398029900EB8100603000904A
:104E80000098006820F000400199084300990860EC
:104E900004B0704782B0019000910198406920F001
:104EA0000040009908430199486102B07047000032
:104EB00082B001900091019880684FF6C071C3F6EE
:104EC000FF710140009800F08040084400F100406C
:104ED0000199886002B0704780B58AB000210091C6
:104EE000099108910791069105910491039102910E
:104EF00040F2C400C2F20000019040F20012C5F27C
:104F0000000202604FF4403242608160C160016182
:104F1000416104228261017701224277026280F8B6
:104F20002410C162016380F83820C16380F840100A
:104F3000FCF7ECFA18B1FFE7FBF770FEFFE748F269
:104F40000000C3F6F0600290062003900020049059
:104F50007F21059104210691079040F2C400C2F21E
:104F6000000002A9FBF7D2FE18B1FFE7FBF756FEDF
:104F7000FFE70AB080BD000080B584B0FFE741F2D2
:104F80004800C4F20200016841F0040101600068B9
:104F900000F0040003900398FFE7FFE741F24800A8
:104FA000C4F20200016841F001010160006800F0F4
:104FB000010002900298FFE70B20019000221146A9
:104FC000FDF7E4F90198FDF7D7F904B080BD0000C2
:104FD00080B594B0002013901290119010900F9013
:104FE000FFE741F24C00C4F20200016841F0040105
:104FF0000160006800F004000E900E98FFE7FFE7E4
:1050000041F24C00C4F20200016841F0200101604D
:10501000006800F020000D900D98FFE7FFE741F2D7
:105020004C00C4F20200016841F001010160006817
:1050300000F001000C900C98FFE7FFE741F24C00F4
:10504000C4F20200016841F002010160006800F052
:1050500002000B900B98FFE7FFE741F24C00C4F20F
:105060000200016841F008010160006800F00800DA
:105070000A900A98FFE740F60000C4F6000002908C
:105080004FF6FF71019100220792FDF7C9F8079AC8
:1050900040F60040C4F60000049004210391FDF79F
:1050A000BFF8079A40F20040C4F600000890C02103
:1050B0000591FDF7B5F8019A029807990F92012220
:1050C00006921092119112910FA90991FCF7DCFE42
:1050D000069A079809990F92109011904FF09040FE
:1050E000FCF7D2FE079A0898099907230F931092AC
:1050F0001192FCF7C9FEDDF80CC00498069B079AD4
:105100000999CDF83CC0109311921292FCF7BCFEA5
:10511000DDF814C0069B079A08980999CDF83CC0A1
:10512000109311921292FCF7AFFE14B080BD0000F4
:1051300080B59EB0002001901D901C901B901A908D
:105140001990189017901690159014901390129033
:105150001190109003A83421FBF761F8019940F2F7
:105160009010C2F20000029044F20002C4F2010268
:10517000026040F21F32426081606322C2600161BE
:1051800041618161FEF78AFC18B1FFE7FBF746FD3C
:10519000FFE74FF480501A9040F29010C2F20000E6
:1051A0001AA9FEF7EDFC18B1FFE7FBF737FDFFE7A3
:1051B00040F29010C2F20000FEF7D6FE18B1FFE7F1
:1051C000FBF72CFDFFE700201790199040F290109C
:1051D000C2F2000017A9FEF799FA18B1FFE7FBF732
:1051E0001DFDFFE760201090002211921292139291
:1051F00014921592169240F29010C2F2000010A97B
:10520000FEF7DAFD18B1FFE7FBF708FDFFE7002026
:10521000039004900590069007904FF40051089178
:1052200009900F9040F29010C2F2000003A9FEF71F
:10523000D5F918B1FFE7FBF7F1FCFFE740F290105A
:10524000C2F20000FEF786FD1EB080BDFFE7FEE75C
:10525000FFE7FEE788B0079006910592079800F0F7
:10526000070004900498C0F10700052803D3FFE766
:105270000420019004E00498C0F107000190FFE7CA
:105280000198039004980430062803D8FFE7002013
:10529000009003E0049803380090FFE70098029024
:1052A00006980399012202FA01F101390840029B94
:1052B000984005999A40013A1140084308B0704758
:1052C0007047000086B041F20C00C4F20200016891
:1052D00001F0030104910068C1B2012000EB11103C
:1052E000029004980090022815D0FFE70098032848
:1052F00012D1FFE7029943F20060C0F26E10B0FBDA
:10530000F1F041F20C01C4F202010968C1F3062177
:105310004843059011E0FFE7029942F20040C0F2D5
:10532000F400B0FBF1F041F20C01C4F20201096893
:10533000C1F3062148430590FFE741F20C00C4F297
:105340000200006800F0C061022000EB11600390D1
:1053500005980399B0FBF1F00190019806B07047F1
:1053600080B586B00020009001210191FFF7DAFBA3
:105370004FF47A70FBF728FC00990198FFF7D2FBF5
:10538000102041F29071FFF7CDFB60204FF41C51CB
:10539000FFF7C8FB01996120FFF7C4FB46200221FB
:1053A0000291FFF7BFFB132048F21001FFF7BAFB91
:1053B000122048F2FE01FFF7B5FB02984FF4A061FE
:1053C000FFF7B0FB0320059041F23001FFF7AAFB85
:1053D000302040F203310491FFF7A4FB04993120FF
:1053E000FFF7A0FB04993220FFF79CFB33204FF41A
:1053F00040710391FFF796FB05993420FFF792FB6C
:1054000004993520FFF78EFB36201421FFF78AFB25
:1054100004993720FFF786FB04993820FFF782FBB9
:1054200004993920FFF77EFB03993A20FFF77AFBB6
:1054300005993B20FFF776FB04993C20FFF772FBB0
:105440003D204FF4A051FFF76DFB92204FF4007107
:10545000FFF768FB04999320FFF764FB902040F668
:105460000D01FFF75FFB059841F21801FFF75AFBAA
:10547000072040F27311FFF755FB06B080BD000016
:1054800080B58CB0E32043F20801FFF74BFBE72027
:1054900012210191FFF746FBEF20069041F23121E6
:1054A000FFF740FB0120079000210991FFF73AFB2D
:1054B00002204FF4E061FFF735FB03200A9041F230
:1054C0003001FFF72FFB099904200490FFF72AFB16
:1054D000082040F20721FFF725FB09990920FFF773
:1054E00021FB09990A20FFF71DFB09990C20FFF702
:1054F00019FB09990D20FFF715FB09990F2005905D
:10550000FFF710FB099910200890FFF70BFB112003
:10551000009007210B91FFF705FB01980999FFF710
:1055200001FB099913200290FFF7FCFAC820FCF751
:1055300089FC089841F29061FFF7F4FA009840F274
:105540002721FFF7EFFA32200390FCF77BFC01984C
:105550001D21FFF7E7FA0398FCF774FC02984FF45B
:105560000061FFF7DFFA29201421FFF7DBFA2B2077
:105570000B21FFF7D7FA0398FCF764FC0999202068
:10558000FFF7D0FA09992120FFF7CCFA0B993020C8
:10559000FFF7C8FA312040F20771FFF7C3FA03980A
:1055A0000621FFF7BFFA352040F20471FFF7BAFA7F
:1055B000362041F60471FFF7B5FA04993720FFF75A
:1055C000B1FA09993820FFF7ADFA392040F2067197
:1055D000FFF7A8FA3C2040F20171FFF7A3FA059902
:1055E0003D20FFF79FFA09995020FFF79BFA069993
:1055F0005120FFF797FA09995220FFF793FA5320A9
:1056000040F23F11FFF78EFA60204FF41C51FFF774
:1056100089FA07996120FFF785FA09996A20FFF74F
:1056200081FA09998020FFF77DFA09998120FFF717
:1056300079FA09998220FFF775FA09998320FFF713
:1056400071FA09998420FFF76DFA09998520FFF70F
:1056500069FA08999020FFF765FA09999220FFF7F7
:1056600061FA0A999320FFF75DFA95204FF488714B
:10567000FFF758FA09999720FFF754FA09999820EB
:10568000FFF750FA0A9841F21801FFF74BFA0B980E
:1056900040F27311FFF746FA0CB080BD81B0ADF84F
:1056A0000200BDF8020048B1FFE740F21841C4F61D
:1056B0000001086840F04000086008E040F228411E
:1056C000C4F60001086840F040000860FFE701B040
:1056D0007047000080B582B040F20040C4F6000080
:1056E0008021FCF785FD012804D1FFE701208DF81A
:1056F000070003E000208DF80700FFE79DF8070092
:1057000002B080BD80B586B0002005900490039063
:1057100002900190802101910290012003900220CB
:10572000049040F20040C4F6000001A9FCF7ACFB75
:1057300006B080BD81B0ADF80200BDF8020048B1EE
:10574000FFE740F21841C4F60001086840F080000D
:10575000086008E040F22841C4F60001086840F003
:1057600080000860FFE701B07047000080B586B098
:1057700000200590049003900290019080210191F7
:105780001121029103900220049040F20040C4F6DF
:10579000000001A9FCF778FB06B080BD704700004F
:1057A00080B582B0009000980138B0F1807F03D3BB
:1057B000FFE70120019019E0009801384EF2140132
:1057C000CEF2000108604FF0FF300F2100F0BEFD67
:1057D0004EF21801CEF20001002008604EF21002D5
:1057E000CEF20002072111600190FFE7019802B09C
:1057F00080BD000080B5FCF72FFD80BD80B5A6B050
:1058000018A801903821FAF70AFD00201790169089
:1058100015901490139002A84421FAF700FD4FF45C
:105820000070FCF7D3FD0198012118914FF48031ED
:10583000199102211F910322209221921422229277
:10584000239124912591FDF7E5FA18B1FFE7FBF7C5
:10585000E5F9FFE70F201390032014900020159026
:105860001690179013A80221FDF7C2F818B1FFE7B0
:10587000FBF7D4F9FFE74FF4004002904FF00050DF
:10588000119002A8FCF786FE18B1FFE7FBF7C6F9F6
:10589000FFE726B080BD00004EF68851CEF2000131
:1058A000086840F4700008607047000083B0029000
:1058B0000191029800680090029842F60041C4F2FB
:1058C000010188421DD0FFE70298B0F1804F18D047
:1058D000FFE7029840F20041C4F20001884210D074
:1058E000FFE7029840F60001C4F20001884208D0A8
:1058F000FFE7029843F20041C4F2010188420AD155
:10590000FFE7009820F0700000900198416800982F
:1059100008430090FFE7029842F60041C4F20101FB
:10592000884235D0FFE70298B0F1804F30D0FFE7D2
:10593000029840F20041C4F20001884228D0FFE7FB
:10594000029840F60001C4F20001884220D0FFE72F
:10595000029843F20041C4F20101884218D0FFE7E7
:10596000029844F20001C4F20101884210D0FFE71E
:10597000029844F20041C4F20101884208D0FFE7D6
:10598000029844F60001C4F2010188420AD1FFE7FF
:10599000009820F4407000900198C1680098084376
:1059A0000090FFE7009820F08000019949690843C2
:1059B0000090009802990860019880680299C86276
:1059C0000198006802998862029842F60041C4F288
:1059D0000101884220D0FFE7029843F20041C4F25F
:1059E0000101884218D0FFE7029844F20001C4F296
:1059F0000101884210D0FFE7029844F20041C4F24E
:105A00000101884208D0FFE7029844F60001C4F281
:105A10000101884205D1FFE70198006902990863F6
:105A2000FFE702990120486102980069C00730B180
:105A3000FFE70299086920F001000861FFE703B061
:105A40007047000084B0039002910192029800F028
:105A50001F01012088400090009A0399086A904332
:105A600008620198029901F01F0100FA01F20399FE
:105A7000086A1043086204B07047000084B00390C5
:105A800002910192029800F00F01042088400090DA
:105A9000009A0399086A904308620198029901F0FC
:105AA0000F0100FA01F20399086A1043086204B07A
:105AB0007047000085B0049003910292019304980E
:105AC00080680090009820F47F400090039802992D
:105AD000019A41EA0221014300980843009000988E
