:020000040800F2
:10000000100B0020ED010008B96F0008855E0008A4
:10001000B56F0008950A000845950008000000002B
:100020000000000000000000000000006D760008E5
:10003000E90B00080000000029700008C5760008E0
:10004000070200080702000807020008070200086C
:10005000070200080702000807020008070200085C
:10006000070200080702000807020008990A0008B2
:10007000A90A0008B90A00080702000807020008D8
:10008000070200080000000007020008070200083D
:10009000070200080702000807020008070200081C
:1000A000070200080702000807020008070200080C
:1000B00007020008070200080702000807020008FC
:1000C00007020008070200080702000807020008EC
:1000D000070200083595000807020008070200081B
:1000E00007020008070200080702000807020008CC
:1000F00007020008070200080702000800000000CD
:1001000000000000070200080000000007020008CD
:1001100007020008000000008977000807020008B5
:10012000070200080702000807020008070200088B
:10013000070200080000000000000000070200089D
:10014000070200080702000800000000000000008D
:10015000000000000000000000000000000000009F
:10016000000000000000000000000000070200087E
:10017000070200080000000000000000000000006E
:10018000000000000702000800000000000000005E
:10019000000000000000000000000000000000005F
:1001A000000000000000000007020008070200082D
:1001B000070200080702000807020008000000000C
:1001C000000000000702000800000000000000001E
:1001D0000702000807020008DFF80CD000F05CFA04
:1001E00000480047FD9D0008100B0020064880478E
:1001F00006480047FEE7FEE7FEE7FEE7FEE7FEE70C
:10020000FEE7FEE7FEE7FEE775770008D901000884
:100210002DE9F05F0546002092469B46884606463B
:10022000814640241BE0284641464746224600F0CE
:100230006AF853465A46C01A914110D311461846DF
:10024000224600F051F82D1A67EB01084F4622466E
:100250000120002100F048F817EB00094E41201E54
:10026000A4F10104DFDC484631462A464346BDE896
:10027000F09FD2B201E000F8012B491EFBD270477B
:100280000022F6E710B513460A4604461946FFF762
:10029000F0FF204610BD00F0004230F000400AD0D0
:1002A000C10D01F56071C0F3160042EA0151C208A8
:1002B00040071143704700200146704730B50B4698
:1002C000014600202022012409E021FA02F59D4286
:1002D00005D303FA02F5491B04FA02F52844151E5A
:1002E000A2F10102F1DC30BD202A04DB203A00FA41
:1002F00002F1002070479140C2F1200320FA03F37D
:10030000194390407047202A04DB203A21FA02F07A
:100310000021704721FA02F3D040C2F1200291403F
:100320000843194670472DE9FE4F804681EA0300D5
:10033000C00F0C46009021F0004123F00045B8EBBF
:100340000200A94105D24046214690461C460B4674
:10035000024623F00040104347D0270DC7F30A00A0
:10036000C3F30A510290401A019040286BDAC3F39C
:10037000130040F4801B0098924620B10023D2EB7A
:10038000030A63EB0B0B01985946C0F1400250463B
:10039000FFF7AAFF06460D4650465946019A00F05F
:1003A00093F910EB08006141002487EA115284EAB6
:1003B000E7731A4340D0009A62B3019A012A4FEAC8
:1003C000075215DC001B61EB02014FF0004202EA0C
:1003D0000752CDE90042001C41F5801132462B4600
:1003E00000F093F903B0BDE8F08F40462146F9E7ED
:1003F000001B61EB0201001C41F5801300185B41FA
:100400002018A2F5001747EB030140EAD570B61992
:100410006D4111E06D084FEA360645EAC0754FEAB6
:100420000752001B61EB0201001C41F580114908D5
:100430004FEA30000019514132462B4603B0BDE867
:10044000F04F00F053B90098012240000023D0EB98
:10045000020263EBE073009821464FEAE074B8EBC8
:10046000000061EB0401E9E783F000435BE781F002
:10047000004158E72DE9FE4F81EA030404F00044EF
:1004800021F0004100944FF0000B23F0004350EAAC
:1004900001045ED052EA03045BD0C3F30A54C1F3F3
:1004A0000A552C44A4F2F3340194A0FB0254C1F386
:1004B000130141F48011C3F3130343F4801301FBD0
:1004C000024400FB034E840A970A44EA815447EA37
:1004D0008357A4FB076802958D0A05FB07854FEA41
:1004E000932C04FB0C542705029D4FEA065847EA5B
:1004F0001637B5EB08056EEB070C870E920E47EA30
:10050000811742EA8312A7FB0201B6EB0B0164EBF1
:1005100000042B0D43EA0C335E1844EB1C50DA4602
:100520005146E7FB0201C5F313044FEA0B3343EADC
:1005300014534FEA0432019C43EA0603A4F10C046D
:100540000294009CCDE900B400F0DFF803B0BDE8F0
:10055000F08F00200146F9E72DE9F04D81EA030410
:1005600004F0004B21F0004514464FF0000A23F040
:10057000004150EA050220D054EA01021DD0C5F323
:100580000A570246C5F31303C1F31300C1F30A5619
:1005900040F4801543F48013A7EB0608101BD646E1
:1005A00008F2FD3873EB050002D308F1010801E001
:1005B00092185B41B8F1000F03DA00200146BDE854
:1005C000F08D00204FF48011064684460EE0171B84
:1005D00073EB050705D3121B63EB050306434CEAD7
:1005E000010C49084FEA300092185B4150EA0107BC
:1005F000EDD152EA030012D082EA040083EA050139
:10060000084305D0101BAB4106D20122002306E0AF
:1006100000224FF0004302E06FF0010253101AEB8A
:1006200006004CEB085110EB0A0041EB0B01BDE852
:10063000F04D00F05BB8C1F30A52C1F3130140F270
:10064000FF3341F480119A4202DA002001467047DC
:1006500040F233439A42A2F2334202DC5242FFF7A5
:1006600052BEFFF741BE000030B5041E71F1000418
:1006700004DB4FF00044404264EB0101141E73F1AF
:10068000000405DB1C464FF00043524263EB0403B9
:10069000994208BF904230BD1CB5094800900948F6
:1006A00001900546009C06E0E06840F0010394E8F4
:1006B000070098471034AC42F6D3FFF791FD0000D5
:1006C000C0BF0008E0BF0008202A06DBCB17203A95
:1006D00041FA02F043EAE07306E041FA02F3D04047
:1006E000C2F12002914008431946704710B5141E0C
:1006F00073F1000408DA401C41F1000192185B41DB
:100700001A4301D120F0010010BD2DE9F04D9246B1
:100710009B4611B1B1FA81F202E0B0FA80F22032C8
:100720009046FFF7E1FD04460F4640EA0A0041EA21
:100730000B0153465A46084313D0114653EA0100B1
:1007400019D0C8F140025046FFF7DDFD05460E46C0
:10075000504659464246FFF7C7FD084305D00120E1
:1007600004E020463946BDE8F08D0020054346EA06
:10077000E0762C4337430A986305E40AA0EB0800AF
:100780000022FD0A44EA47540A3002D500200146FF
:10079000E9E7010510196941DDE9084500196941DA
:1007A000BDE8F04DA2E7000080B582B0019001984D
:1007B000806A00900098C06D10F0500F4BD1FFE799
:1007C0000099C86D40F40070C86500980068006822
:1007D0000007002821D5FFE70098006805F0D8FF42
:1007E000D0B1FFE700980068C0688004002812D4E8
:1007F000FFE70099C86D20F48070C8650098C06D4F
:10080000C004002806D4FFE70099C86D40F001003D
:10081000C865FFE7FFE7FFE719E000980068C068D8
:100820008007002812D4FFE70099C86D20F480707B
:10083000C8650098C06DC004002806D4FFE7009981
:10084000C86D40F00100C865FFE7FFE7FFE70098CB
:1008500000F062FE10E00098C06DC006002804D5CC
:10086000FFE7009800F060FE05E00098406D416BE6
:1008700001988847FFE7FFE702B080BD80B582B0EE
:1008800001900198806A00900099C86D40F0400086
:10089000C8650099086E40F004000866009800F0F2
:1008A00043FE02B080BD000080B582B00190019887
:1008B000806A0090009800F033FE02B080BD000016
:1008C00080B584B002900298006805F041FF009066
:1008D0000298006805F044FF00284BD0FFE700981D
:1008E000002847D1FFE702980068806800F00D00FB
:1008F000012809D1FFE70298006805F0B9FE0298C7
:100900000168032008600DE00299C86D40F01000F6
:10091000C8650299086E40F00100086601208DF854
:100920000F002BE001F054FD0190FFE702980068F2
:100930008068C007E8B1FFE701F04AFD0199401A5D
:10094000032815D3FFE7029800688068C00770B1DC
:10095000FFE70299C86D40F01000C8650299086E63
:1009600040F00100086601208DF80F0006E0FFE767
:10097000DCE7FFE700208DF80F00FFE79DF80F0090
:1009800004B080BD80B584B0029000200090029831
:10099000006805F0E5FE002874D1FFE702980068C2
:1009A00080683F21C8F2000108420ED0FFE702999B
:1009B000C86D40F01000C8650299086E40F0010053
:1009C000086601208DF80F0060E00298006805F0CD
:1009D00069FE40F20030C5F2000005F081FE000221
:1009E00000281CD5FFE740F20800C2F200000068B2
:1009F000800942F66351C0F23E51A0FB011080090C
:100A000000EB40010C2000EB81000090FFE7009814
:100A100020B1FFE7009801380090F8E7FFE701F008
:100A2000D7FC0190FFE7029800680068C00740BB50
:100A3000FFE70298006805F093FE28B9FFE70298E7
:100A4000006805F02FFEFFE701F0C2FC0199401A93
:100A5000032815D3FFE7029800680068C00770B943
:100A6000FFE70299C86D40F01000C8650299086E52
:100A700040F00100086601208DF80F0006E0FFE756
:100A8000D1E7FFE700208DF80F00FFE79DF80F008A
:100A900004B080BDFFE7FEE780B540F25810C2F217
:100AA000000001F0BBF880BD80B540F2B810C2F282
:100AB000000001F0B3F880BD80B540F21820C2F20A
:100AC000000001F0ABF880BD84B00390039800688B
:100AD00040F20741C4F20201884206D8FFE740F61F
:100AE0000000C4F20200009005E040F62000C4F2CD
:100AF00002000090FFE70098029003980078083801
:100B00004CF6CD41CCF6CC41A0FB01100009019080
:100B1000029803994A6C22F00302104488640399F6
:100B200040F68000C4F20200C864019800F01F0182
:100B3000012088400399086504B0704782B0019095
:100B4000019800790090009940F6FC00C4F2020080
:100B500000EB810001994865019940F64010C4F20C
:100B6000020088650098013800F01F0101208840CC
:100B70000199C86502B0704784B003900291019258
:100B800000930398C16C006D48600398406D28B1D4
:100B9000FFE70398816DC06D4860FFE70398016C23
:100BA000406C00F01F0201209040486000980399BB
:100BB0000968486003988068102809D1FFE7019808
:100BC000039909688860029803990968C86008E079
:100BD0000298039909688860019803990968C860B8
:100BE000FFE704B0704700007047000082B0ADF826
:100BF00006000020ADF80400FFE7BDF80400BDF8D2
:100C00000610884219DAFFE70020ADF80200FFE77E
:100C1000BDF8020040F6B731884207DCFFE7FFE786
:100C2000BDF802000130ADF80200F1E7FFE7BDF8C2
:100C300004000130ADF80400DFE702B070470000A7
:100C400081B0EFF3108072B60090FFE7FEE700007E
:100C500080B586B00490039100200190FFE70498CE
:100C600090F85800012804D1FFE702208DF8170002
:100C70005AE00499012081F85800FFE7FFE7049843
:100C8000FFF71EFE8DF80B009DF80B00D8BBFFE7A9
:100C90000498C06D40F0020020F488500499C865A3
:100CA00004980068039905F065FEFFE70498006862
:100CB00005F03EFDF0B1FFE7019801300190019889
:100CC0004DF60261C0F20401884212D3FFE7049896
:100CD000C06D40F0100020F002000499C865FFE7E5
:100CE0000499002081F85800FFE701208DF81700D3
:100CF0001AE0DBE70498C06D40F0010020F002002C
:100D00000499C86505E00499C86D40F01000C865F5
:100D1000FFE7FFE70499002081F85800FFE79DF8FE
:100D20000B008DF81700FFE79DF8170006B080BD97
:100D300080B5C0B020901F9100208DF87B001B90E3
:100D40001F98C0680021C4F27F01884201D0FFE7EC
:100D500000E0FFE7FFE7209890F85800012804D151
:100D6000FFE702208DF88700D2E32099012081F867
:100D70005800FFE7FFE72098006805F001FD002814
:100D800040F0B283FFE7209800681F990A6849681D
:100D900005F00AFD2098006805F0F2FC1A902098F2
:100DA000006805F0BDFC19901A98002840F0B88141
:100DB000FFE71998002840F0B381FFE71F9880688B
:100DC000B0F1004F0ED1FFE7209800681F99096825
:100DD000002205F015FD209800684FF0004105F055
:100DE000BBFD0CE0209800681F9A1168926805F01E
:100DF00007FD20980068002105F0AEFDFFE71F9871
:100E0000406920990968C96801F01801890888407B
:100E10001D901F98006904281CD0FFE720980068E7
:100E20001F990A6809691D9B05F03CFD2098006820
:100E30001F9A1169926905F067FD209800681F9A52
:100E40001169127F013AB2FA82F25209520605F094
:100E500047FD64E120980068002105F051FC400343
:100E600048B9FFE720980068002105F049FCC0F36D
:100E70008460189018E020980068002105F040FC7C
:100E800090FAA0F03E903E9820B9FFE720208DF820
:100E9000FF0005E03E98B0FA80F08DF8FF00FFE714
:100EA0009DF8FF001890FFE7189817901F980068AA
:100EB000400330B9FFE71F980068C0F384601690C4
:100EC00015E01F98006890FAA0F03C903C9820B97B
:100ED000FFE720208DF8F70005E03C98B0FA80F09D
:100EE0008DF8F700FFE79DF8F7001690FFE71798D9
:100EF0001699884207D1FFE7209800680022114622
:100F000005F016FDFFE720980068012105F0F8FBC9
:100F1000400348B9FFE720980068012105F0F0FB85
:100F2000C0F38460159018E020980068012105F056
:100F3000E7FB90FAA0F03A903A9820B9FFE720201A
:100F40008DF8EF0005E03A98B0FA80F08DF8EF00E8
:100F5000FFE79DF8EF001590FFE7159814901F9894
:100F60000068400330B9FFE71F980068C0F3846051
:100F7000139015E01F98006890FAA0F03890389808
:100F800020B9FFE720208DF8E70005E03898B0FA97
:100F900080F08DF8E700FFE79DF8E7001390FFE78A
:100FA00014981399884207D1FFE72098006801211F
:100FB000002205F0BDFCFFE720980068022105F043
:100FC0009FFB400348B9FFE720980068022105F025
:100FD00097FBC0F38460129018E02098006802210B
:100FE00005F08EFB90FAA0F03690369820B9FFE716
:100FF00020208DF8DF0005E03698B0FA80F08DF8FB
:10100000DF00FFE79DF8DF001290FFE712981190D4
:101010001F980068400330B9FFE71F980068C0F3CD
:101020008460109015E01F98006890FAA0F034904A
:10103000349820B9FFE720208DF8D70005E03498D8
:10104000B0FA80F08DF8D700FFE79DF8D700109038
:10105000FFE711981099884207D1FFE720980068B0
:101060000221002205F064FCFFE7209800680321BC
:1010700005F046FB400348B9FFE7209800680321CC
:1010800005F03EFBC0F384600F9018E020980068E4
:10109000032105F035FB90FAA0F03290329820B988
:1010A000FFE720208DF8CF0005E03298B0FA80F0FD
:1010B0008DF8CF00FFE79DF8CF000F90FFE70F9866
:1010C0000E901F980068400330B9FFE71F98006832
:1010D000C0F384600D9015E01F98006890FAA0F0AE
:1010E0003090309820B9FFE720208DF8C70005E048
:1010F0003098B0FA80F08DF8C700FFE79DF8C70080
:101100000D90FFE70E980D99884207D1FFE72098D0
:1011100000680321002205F00BFCFFE7FFE7FFE773
:101120002098006805F01CFB002840F04481FFE790
:10113000209800681F9A1168D26805F07DFB1F98FF
:10114000C0680021C4F27F01884240F03381FFE78C
:10115000209800680C901F980068400330B9FFE7A2
:101160001F980068C0F384600B9015E01F9800681A
:1011700090FAA0F02E902E9820B9FFE720208DF84D
:10118000BF0005E02E98B0FA80F08DF8BF00FFE7B1
:101190009DF8BF000B90FFE70B98013000F01F0097
:1011A00009287DD8FFE71F980068400330B9FFE7A2
:1011B0001F980068C0F384600A9015E01F980068CB
:1011C00090FAA0F02C902C9820B9FFE720208DF801
:1011D000B70005E02C98B0FA80F08DF8B700FFE773
:1011E0009DF8B7000A90FFE70A98013000F01F0051
:1011F000800609901F980068400330B9FFE71F98E8
:101200000068C0F38460089015E01F98006890FAA9
:10121000A0F02A902A9820B9FFE720208DF8AF008F
:1012200005E02A98B0FA80F08DF8AF00FFE79DF84E
:10123000AF000890FFE709980899013101F01F02FB
:1012400001219140084307901F980068400330B97E
:10125000FFE71F980068C0F38460069015E01F98B0
:10126000006890FAA0F02890289820B9FFE7202085
:101270008DF8A70005E02898B0FA80F08DF8A70057
:10128000FFE79DF8A7000690FFE707980699013150
:1012900001F01F0101EB410140EA0150059082E09D
:1012A0001F980068400330B9FFE71F980068C0F33B
:1012B0008460049015E01F98006890FAA0F02690D2
:1012C000269820B9FFE720208DF89F0005E026989A
:1012D000B0FA80F08DF89F00FFE79DF89F00049022
:1012E000FFE70498013000F01F00800603901F986C
:1012F0000068400330B9FFE71F980068C0F38460BE
:10130000029015E01F98006890FAA0F024902498AD
:1013100020B9FFE720208DF8970005E02498B0FA67
:1013200080F08DF89700FFE79DF897000290FFE7A7
:1013300003980299013101F01F02012191400843F5
:1013400001901F980068400330B9FFE71F980068BC
:10135000C0F38460009015E01F98006890FAA0F038
:101360002290229820B9FFE720208DF88F0005E019
:101370002298B0FA80F08DF88F00FFE79DF88F007B
:101380000090FFE701990098013000F01F0000EB8A
:1013900040020020CFF6206000EB0250084340F0EE
:1013A00000700590FFE70C9805991F9A926805F068
:1013B00027FAFFE7FFE71F98408848F20801084234
:1013C00000F09180FFE740F20030C5F2000005F028
:1013D00087F91C901F9800680021CCF221318842C7
:1013E00008D0FFE71F9800681021C9F2C0018842A9
:1013F00032D1FFE79DF87200000600282CD4FFE7E9
:1014000020980068B0F1A04F25D1FFE71C9840F468
:10141000000140F20030C5F2000005F035FA40F25C
:101420000800C2F200000068800942F66351C0F271
:101430003E51A0FB0110800900EB40010C2000EBA5
:1014400081001B90FFE71B9820B1FFE71B98013834
:101450001B90F8E7FFE745E01F9800680021CCF2F9
:101460005271884219D1FFE79DF87300C007A0B9F7
:10147000FFE72098006840F20011C5F200018842A1
:101480000AD0FFE71C9840F0807140F20030C5F2AE
:10149000000005F0F9F9FFE723E01F98006800213C
:1014A000CCF6843188421AD1FFE79DF872004006DD
:1014B000002814D4FFE72098006840F20011C5F21C
:1014C000000188420AD0FFE71C9840F4800140F2F6
:1014D0000030C5F2000005F0D7F9FFE700E0FFE7B4
:1014E000FFE7FFE7FFE708E02099C86D40F0200024
:1014F000C86501208DF87B00FFE7FFE720990020F9
:1015000081F85800FFE79DF87B008DF88700FFE722
:101510009DF8870040B080BD81B0009001B0704759
:1015200081B0009001B0704781B0009001B0704769
:1015300080B588B0069000208DF8170001900698BD
:1015400020B9FFE701208DF81F0079E10698406976
:1015500040B1FFE7069890F82400012801D1FFE789
:10156000FFE7FFE70698C06D50B9FFE7069800F067
:101570006BF9069900200866069981F85800FFE784
:101580000698006805F0DCF828B1FFE706980068C7
:1015900005F07CF8FFE70698006805F0E9F8F0B977
:1015A000FFE70698006805F08BF840F20800C2F2E9
:1015B00000000068800942F66351C0F23E51A0FB72
:1015C00001108109022000EB41000190FFE7019822
:1015D00020B1FFE7019801380190F8E7FFE706988E
:1015E000006805F0C5F870B9FFE70699C86D40F0CE
:1015F0001000C8650699086E40F0010008660120D9
:101600008DF81700FFE70698006805F0B9F8039019
:101610000698C06DC006002800F10481FFE703981A
:10162000002840F0FF80FFE70698C06D40F0020000
:1016300020F480700699C8650698006805F090F857
:10164000D0B9FFE74FF0A04005F08AF8009040F2D3
:101650000010C5F2000005F083F801460098084329
:1016600048B9FFE70698416840F20030C5F2000033
:1016700005F0FCF8FFE7FFE706994A7FC86B40EAF0
:1016800042308A68CB681843104391F8241040EA2E
:1016900001400490069890F8240001280BD1FFE740
:1016A0000698816A0020CFF6FE7000EB4141049855
:1016B00008430490FFE70698C06A50B1FFE7069917
:1016C000C86A096B00F478700143049808430490D9
:1016D000FFE706980068C06844F20701CFF6F07192
:1016E00008400499084306990968C860069800688C
:1016F000006920F04060069A1168526B104308613F
:101700000698006805F00CF802900398002868D14C
:10171000FFE70298002864D1FFE70699087F91F857
:101720003810800340EA4100049006980068C068C1
:1017300044F2020188430499084306990968C86085
:1017400006980069A0B1FFE706980168086940F4AF
:101750008030086106980068D0F8C00043F6FF7139
:101760008843069A116812691043C1F8C00011E05D
:1017700006980168086920F48030086106980068BE
:10178000D0F8C00043F6FF71884306990968C1F894
:10179000C000FFE7069890F84000012819D1FFE744
:1017A00006980068006940F2FD7120EA0102069B7C
:1017B0001968586CD3F848E0D3F84CC040EA0E00E2
:1017C00040EA0C001B6D1843104340F00100086113
:1017D00006E006980168086920F001000861FFE74B
:1017E000FFE70698406901280CD1FFE706980068DA
:1017F000006B20F00F00069A1168126A013A10433C
:10180000086306E006980168086B20F00F00086383
:10181000FFE70698C06D40F0010020F00200069935
:10182000C86508E00699C86D40F01000C865012041
:101830008DF81700FFE79DF817008DF81F00FFE7F0
:101840009DF81F0008B080BD80B58AB009900020C7
:10185000089007900690059004900998006840F25F
:101860000011C5F20001884258D1FFE7FFE741F2BD
:101870004C00C4F20200016841F4005101600068AC
:1018800000F4005003900398FFE7FFE741F24C009B
:10189000C4F20200016841F002010160006800F03A
:1018A000020002900298FFE74FF4004004900320EA
:1018B000059000200090069040F20040C4F6000021
:1018C00004A900F0A3FB009940F25810C2F20000F6
:1018D00001900822C4F20202026024224260816068
:1018E000C160802202614FF4007242614FF40062D5
:1018F00082612022C261016200F03CFA18B1FFE768
:10190000FFF79EF9FFE7FFE7099840F25811C2F28E
:101910000001416509988862FFE7FFE70AB080BDD2
:1019200080B588B006900591049240F20030C5F26F
:10193000000004F0DDFE02900698006804F020FF2D
:10194000002840F0AE80FFE7FFE7069890F85800C7
:10195000012804D1FFE702208DF81F00AAE00699B4
:10196000012081F85800FFE7FFE7029848B1FFE740
:101970000298052805D0FFE70298092840F08680E4
:10198000FFE70698FEF7FEFF8DF80F009DF80F00A9
:10199000002873D1FFE70698C06D40F4807040F6D0
:1019A000016188430699C8650698006840F20011F5
:1019B000C5F20001884204D1FFE74FF0A04001903A
:1019C00003E0069800680190FFE70198069909680E
:1019D000884203D0FFE7029830B9FFE70699C86D47
:1019E00020F48010C865FFE70698C06DC004002889
:1019F00006D5FFE70699086E20F00600086603E0AA
:101A0000069900200866FFE70698416D40F2A9702C
:101A1000C0F60000C8620698416D40F6A900C0F605
:101A2000000008630698416D40F67D00C0F6000096
:101A30004863069801681C200860FFE706990020AB
:101A400081F85800FFE706980168486840F01000E8
:101A5000486006980168C86840F00100C8600698B0
:101A60000168406D4031059A049B00F02FFA8DF813
:101A70000F000698006804F0B5FE06E0FFE706993F
:101A8000002081F85800FFE7FFE709E001208DF80A
:101A90000F00FFE70699002081F85800FFE7FFE7F5
:101AA00003E002208DF80F00FFE79DF80F008DF88E
:101AB0001F00FFE79DF81F0008B080BD82B00190B5
:101AC00000208DF80300019890F82500022807D027
:101AD000FFE701990420C86301208DF803002DE081
:101AE00001980168086820F00E0008600198816C78
:101AF000086820F48070086001980168086820F088
:101B0000010008600198016C406C00F01F02012088
:101B1000904048600198C16C006D48600198406D2C
:101B200058B1FFE70198416D086820F480700860A3
:101B30000198816DC06D4860FFE7FFE701990120C2
:101B400081F82500FFE70199002081F82400FFE7D4
:101B50009DF8030002B0704780B582B0019000206C
:101B60008DF80300019890F82500022811D0FFE7B6
:101B700001990420C8630199012081F82500FFE73D
:101B80000199002081F82400FFE701208DF803006F
:101B90003FE001980168086820F00E000860019895
:101BA0000168086820F0010008600198816C0868ED
:101BB00020F4807008600198016C406C00F01F02F6
:101BC0000120904048600198C16C006D4860019808
:101BD000406D58B1FFE70198416D086820F48070AE
:101BE00008600198816DC06D4860FFE70199012090
:101BF00081F82500FFE70199002081F82400FFE724
:101C00000198806B20B1FFE70198816B8847FFE75F
:101C1000FFE79DF8030002B080BD000080B584B0EE
:101C200003900398006C00680290039800680068B5
:101C3000019002980399496C01F01F01C8404007C8
:101C4000002825D5FFE79DF80400400700281FD590
:101C5000FFE70398006800688006002807D4FFE7C4
:101C600003980168086820F004000860FFE7039803
:101C7000016C406C00F01F02042090404860039803
:101C8000006B20B1FFE70398016B8847FFE76EE028
:101C900002980399496C01F01F01C8408007002891
:101CA0002FD5FFE79DF804008007002829D5FFE71E
:101CB000039800680068800600280BD4FFE70398AB
:101CC0000168086820F00A0008600399012081F883
:101CD0002500FFE70398016C406C00F01F02022012
:101CE00090404860FFE70399002081F82400FFE757
:101CF0000398C06A20B1FFE70398C16A8847FFE7ED
:101D000034E002980399496C01F01F01C8400007B4
:101D1000002829D5FFE79DF804000007002823D5F7
:101D2000FFE703980168086820F00E000860039838
:101D3000026C406C00F01F01012000FA01F15160BB
:101D40000399C863039981F82500FFE703990020F0
:101D500081F82400FFE70398406B20B1FFE7039868
:101D6000416B8847FFE700E0FFE7FFE7FFE704B0CC
:101D700080BD000080B584B00290029820B9FFE7D2
:101D800001208DF80F009CE00298006840F20741A6
:101D9000C4F20201884218D8FFE7029908684FF69A
:101DA000F872CBF6FD7210444CF6CD42CCF6CC4224
:101DB000A0FB02026FF0030000EA9200486402995F
:101DC0000020C4F20200086418E0029908684FF687
:101DD000F832CBF6FD7210444CF6CD42CCF6CC4234
:101DE000A0FB02026FF0030000EA9200486402992F
:101DF00040F20040C4F202000864FFE702990220AA
:101E000081F825000298006800680190019847F663
:101E1000F0718843019002998868D1F80CC00B6971
:101E20004A6940EA0C00184310438A691043CA69A2
:101E30001043096A014301980843019001980299EF
:101E4000096808600298FEF73FFE02988068B0F5C6
:101E5000804F04D1FFE7029900204860FFE7029914
:101E60000879896C08600298C16C006D486002981E
:101E7000406888B1FFE70298406804280CD8FFE763
:101E80000298FEF75BFE0298416D00200860029800
:101E9000816DC06D486007E0029900204865029995
:101EA00088650299C865FFE702990020C863029A15
:101EB000012182F82510029981F824008DF80F0085
:101EC000FFE79DF80F0004B080BD000080B586B02C
:101ED000049003910292019300208DF80300FFE724
:101EE000049890F82400012804D1FFE702208DF81F
:101EF000170065E00499012081F82400FFE7FFE75F
:101F0000049890F8250001284BD1FFE7049902209E
:101F100081F8250004990020C863049801680868C6
:101F200020F00100086004980399029A019BFEF7D3
:101F300023FE0498006B38B1FFE704980168086835
:101F400040F00E0008600CE004980168086820F07A
:101F50000400086004980168086840F00A000860FE
:101F6000FFE70498806C0068C003002807D5FFE7EE
:101F70000498816C086840F480700860FFE704985A
:101F8000406D38B1FFE70498416D086840F48070F7
:101F90000860FFE704980168086840F001000860E5
:101FA00009E0FFE70499002081F82400FFE7022000
:101FB0008DF80300FFE79DF803008DF81700FFE799
:101FC0009DF8170006B080BD80B584B0039000F086
:101FD000FFF90290039801900198013048B1FFE7A2
:101FE00040F25800C2F200000168019808440190D4
:101FF000FFE7FFE700F0ECF90299401A01998842E7
:1020000001D2FFE7F6E704B080BD00008BB00A9074
:10201000099100200890FFE7099800680899C840D6
:10202000002800F0A581FFE709980068089A0121BF
:102030009140084007900798002800F09581FFE73D
:102040000998406800F00300012807D0FFE70998CD
:10205000406800F0030002282FD1FFE70A9880684B
:10206000069008984100032000FA01F10698884381
:1020700006900998C0680899490000FA01F106988D
:102080000843069006980A9988600A984068069066
:102090000899012000FA01F10698884306900998F2
:1020A0004068C0F30010089900FA01F1069808434F
:1020B000069006980A994860FFE70998406800F082
:1020C0000300032818D0FFE70A98C0680690089814
:1020D0004100032000FA01F1069888430690099810
:1020E00080680899490000FA01F1069808430690B3
:1020F00006980A99C860FFE70998406800F0030055
:10210000022826D1FFE70A9808996FF0030202EA35
:1021100051010844006A0690089800F00700810009
:102120000F2000FA01F1069888430690099800698B
:10213000089901F00701890000FA01F106980843A7
:10214000069006980A99089B02EA53021144086215
:10215000FFE70A980068069008984100032000FAFB
:1021600001F10698884306900998406800F0030042
:102170000899490000FA01F106980843069006986C
:102180000A990860099880798007002800F0EB80A0
:10219000FFE7FFE741F26000C4F20200016841F08E
:1021A00001010160006800F0010005900598FFE75B
:1021B000089820F003000821C4F20101405806905D
:1021C000089800F0030081000F2000FA01F1069842
:1021D000884306900A98B0F1904F03D1FFE70020A2
:1021E000049042E00A9840F20041C4F6000188429F
:1021F00003D1FFE70120039034E00A9840F6000184
:10220000C4F60001884203D1FFE70220029026E0D5
:102210000A9840F60041C4F60001884203D1FFE766
:102220000320019018E00A9841F20001C4F6000171
:10223000884203D1FFE7042000900AE00A9941F2A6
:102240000042C4F600020620914208BF052000901B
:10225000FFE700980190FFE701980290FFE70298DE
:102260000390FFE703980490FFE70498089901F0B2
:102270000301890000FA01F10698084306900698C8
:10228000089921F003010822C4F20102885040F2AB
:102290000840C4F201000068069007990698884338
:1022A000069009988079C006002805D5FFE70799B0
:1022B000069808430690FFE7069840F20841C4F2EA
:1022C0000101086040F20C40C4F201000068069071
:1022D0000799069888430690099880798006002817
:1022E00005D5FFE70799069808430690FFE706988B
:1022F00040F20C41C4F20101086040F20440C4F213
:10230000010000680690079906988843069009988E
:1023100080798007002805D5FFE7079906980843CC
:102320000690FFE7069840F20441C4F201010860FC
:1023300040F20040C4F20100006806900799069838
:102340008843069009988079C00728B1FFE707996C
:10235000069808430690FFE7069840F20041C4F251
:1023600001010860FFE7FFE708980130089053E695
:102370000BB0704782B00190ADF80210019800696F
:10238000BDF80210084204D0FFE701208DF80100DB
:1023900003E000208DF80100FFE79DF8010002B086
:1023A0007047000082B00190ADF802108DF8012056
:1023B0009DF8010028B1FFE7BDF80200019988618E
:1023C00004E0BDF8020001998862FFE702B070479F
:1023D00040F20870C2F200000068704740F25800F6
:1023E000C2F20000026840F20871C2F200010868FF
:1023F000104408607047000080B582B00020009053
:102400008DF80700032000F09BF8009800F00EF80C
:1024100020B1FFE701208DF8070002E000F04AF844
:10242000FFE79DF8070002B080BD000080B582B0D4
:10243000019000208DF8030040F25800C2F2000025
:10244000006878B3FFE740F20800C2F200000068BD
:1024500040F25801C2F200010A684FF47A71B1FBF0
:10246000F2F1B0FBF1F001F02FFCB0B9FFE70198F9
:102470000F280DD8FFE701994FF0FF30002200F040
:1024800047F8019840F25C01C2F20001086003E0E5
:1024900001208DF80300FFE703E001208DF8030021
:1024A000FFE703E001208DF80300FFE79DF803003C
:1024B00002B080BD80B582B0FFE741F26000C4F297
:1024C0000200016841F001010160006800F00100B4
:1024D00001900198FFE7FFE741F25800C4F20200C3
:1024E000016841F080510160006800F08050009068
:1024F0000098FFE700F006F902B080BD80B582B019
:102500008DF807009DF9070007F01EF802B080BDA6
:1025100080B586B08DF817000491039207F02CF86F
:1025200002909DF91700019002980499039A04F013
:1025300045FD0146019807F027F806B080BD000070
:1025400080B582B00190019807F040F802B080BDDC
:1025500085B00390039800285ED1FFE747F20000A2
:10256000C4F20000006800F4C060B0F5806F49D18B
:10257000FFE747F28001C4F20001086820F4807090
:10258000086047F20002C4F200021168012060F303
:102590004A21116040F20801C2F2000109683222AA
:1025A00051434DF68362C4F21B32A1FB022100EBC2
:1025B00091400290FFE747F21400C4F20000016866
:1025C000002049050029019006D5FFE70298002860
:1025D00018BF01200190FFE70198C00720B1FFE775
:1025E000029801380290E6E747F21400C4F20000B6
:1025F00000684005002804D5FFE703208DF813008C
:102600007CE008E047F28001C4F20001086820F491
:1026100080700860FFE76DE00398B0F5007F5ED141
:10262000FFE747F20000C4F20000006800F4C06059
:10263000B0F5806F49D1FFE747F28001C4F2000195
:10264000086840F48070086047F20002C4F200029B
:102650001168012060F34A21116040F20801C2F2C2
:1026600000010968322251434DF68362C4F21B32E5
:10267000A1FB022100EB91400290FFE747F214001A
:10268000C4F200000168002049050029009006D529
:10269000FFE70298002818BF01200090FFE700988C
:1026A000C00720B1FFE7029801380290E6E747F241
:1026B0001400C4F2000000684005002804D5FFE7BC
:1026C00003208DF8130019E008E047F28001C4F2FE
:1026D0000001086840F480700860FFE709E047F2F5
:1026E0000001C4F200010868022262F34A20086077
:1026F000FFE7FFE700208DF81300FFE79DF81300C8
:1027000005B0704747F20801C4F20001086840F4C0
:10271000804008607047000080B586B005900020BA
:102720008DF80B008DF80A000598807800070028C6
:1027300040F1B580FFE700208DF8090041F2580014
:10274000C4F202000068C000002813D4FFE7FFE7CE
:1027500041F25800C4F20200016841F0805101606A
:10276000006800F0805001900198FFE701208DF88B
:102770000900FFE747F20001C4F20001086840F4D5
:1027800080700860FFF724FE0390FFE747F2000027
:10279000C4F200000068C00500280CD4FFE7FFF772
:1027A00017FE0399401A032804D3FFE703208DF88E
:1027B0000B0000E0EAE79DF80B0000285BD1FFE783
:1027C00041F29000C4F20200006800F440700490EE
:1027D0000498C8B1FFE704980599096C884213D0A2
:1027E000FFE741F29001C4F20201086820F4407052
:1027F0000490086840F480300860086820F4803055
:10280000086004980860FFE79DF81000C007E0B179
:10281000FFE7FFF7DDFD0390FFE741F29000C4F210
:1028200002000068800700280ED4FFE7FFF7D0FD04
:102830000399401A41F28931884204D3FFE703200B
:102840008DF80B0000E0E8E7FFE79DF80B0060B9AA
:10285000FFE741F29001C4F20201086820F44070E1
:10286000059A126C1043086004E09DF80B008DF887
:102870000A00FFE704E09DF80B008DF80A00FFE76F
:102880009DF80900012809D1FFE741F25801C4F27F
:102890000201086820F080500860FFE7FFE7059814
:1028A0000078C00760B1FFE741F28801C4F202017D
:1028B000086820F00300059A526810430860FFE79B
:1028C00005980078800700280CD5FFE741F28801C1
:1028D000C4F20201086820F00C00059A92681043C7
:1028E0000860FFE705980078400700280CD5FFE74F
:1028F00041F28801C4F20201086820F03000059A14
:10290000D26810430860FFE70598007800070028A8
:102910000CD5FFE741F28801C4F20201086820F0FB
:10292000C000059A126910430860FFE70598007817
:10293000800600280CD5FFE741F28801C4F20201AD
:10294000086820F44060059A526910430860FFE768
:1029500005980078400600280CD5FFE741F2880171
:10296000C4F20201086820F44050059A92691043AD
:102970000860FFE705980078000600280CD5FFE7FF
:1029800041F28801C4F20201086820F44040059A2F
:10299000D26910430860FFE705984078C00760B12E
:1029A000FFE741F28801C4F20201086820F44030D8
:1029B000059A126A10430860FFE70598407880077F
:1029C00000280CD5FFE741F28801C4F20201086833
:1029D00020F44020059A526A10430860FFE70598EA
:1029E0004078400700281BD5FFE741F28801C4F278
:1029F0000201086820F44010059A926A10430860AA
:102A00000598806AB0F5801F09D1FFE741F20C01FB
:102A1000C4F20201086840F480100860FFE7FFE795
:102A200005984078000700281BD5FFE741F2880190
:102A3000C4F20201086820F44000059AD26A1043EB
:102A400008600598C06AB0F5800F09D1FFE741F230
:102A50000C01C4F20201086840F480100860FFE72E
:102A6000FFE705984078C00600281BD5FFE741F234
:102A70008801C4F20201086820F04070059A126BC8
:102A8000104308600598006BB0F1807F09D1FFE723
:102A900041F20C01C4F20201086840F480100860A1
:102AA000FFE7FFE705984078800600281BD5FFE781
:102AB00041F28801C4F20201086820F04060059AE2
:102AC000526B104308600598406BB0F1006F09D15C
:102AD000FFE741F20C01C4F20201086840F48010E3
:102AE0000860FFE7FFE705984078400600281BD5FF
:102AF000FFE741F28801C4F20201086820F040605B
:102B0000059A926B104308600598806BB0F1006FD6
:102B100009D1FFE741F20C01C4F20201086840F458
:102B200080100860FFE7FFE705984078000600285E
:102B30001BD5FFE741F28801C4F20201086820F0CA
:102B40004050059AD26B104308600598C06BB0F1F5
:102B5000805F09D1FFE741F20C01C4F2020108686D
:102B600040F480300860FFE7FFE79DF80A0006B0F8
:102B700080BD000080B586B00490039100200090D5
:102B8000049820B9FFE701208DF8170081E1039830
:102B900042F20001C4F20201096801F00F0188420B
:102BA00016D9FFE742F20000C4F20200016821F0EA
:102BB0000F01039A11430160006800F00F000399B0
:102BC000884204D0FFE701208DF8170061E1FFE79C
:102BD00004980078C007002800F0A380FFE704985D
:102BE0004068032839D1FFE741F20000C4F2020037
:102BF00000688001002804D4FFE701208DF8170049
:102C000047E104F013FA019001984BF20141C0F240
:102C1000C441884220D3FFE741F20800C4F2020019
:102C2000006810F0F00F0AD0FFE7049800788007E2
:102C3000002810D5FFE70498806860B9FFE741F2EB
:102C40000801C4F202010868082262F30710086054
:102C500080200090FFE7FFE738E0049840680228F2
:102C60000ED1FFE741F20000C4F2020000688003C9
:102C7000002804D4FFE701208DF8170009E10DE0DA
:102C800041F20000C4F2020000684005002804D4AC
:102C9000FFE701208DF81700FBE0FFE700F02CF9BB
:102CA000019001984BF20141C0F2C44188420CD31B
:102CB000FFE741F20801C4F202010868082262F34A
:102CC0000710086080200090FFE7FFE741F208014D
:102CD000C4F20201086820F00300049A526810430D
:102CE0000860FFF775FB0290FFE741F20800C4F2AD
:102CF0000200006800F00C0004994968B0EB810FF5
:102D00000ED0FFE7FFF764FB0299401A41F28931C8
:102D1000884204D3FFE703208DF81700B9E0E4E709
:102D2000FFE704980078800700282CD5FFE7049877
:102D300000784007002809D5FFE741F20801C4F2F6
:102D40000201086840F4E0600860FFE7049800783A
:102D5000000700280BD5FFE741F20801C4F2020189
:102D6000086840F4E06020F460500860FFE741F23A
:102D70000801C4F20201086820F0F000049A926889
:102D8000104308600DE00098802809D1FFE741F268
:102D90000801C4F20201086820F0F0000860FFE7B3
:102DA000FFE7039842F20001C4F20201096801F052
:102DB0000F01884228D2FFE742F20001C4F202016B
:102DC000086820F00F00039A10430860FFF700FB2B
:102DD0000290FFE742F20000C4F20200006800F037
:102DE0000F00039988420ED0FFE7FFF7F1FA02992E
:102DF000401A41F28931884204D3FFE703208DF85D
:102E0000170046E0E6E7FFE704980078400700284F
:102E10000CD5FFE741F20801C4F20201086820F472
:102E2000E060049AD26810430860FFE704980078D5
:102E3000000700280DD5FFE741F20801C4F20201A6
:102E4000086820F46050049A126940EAC2000860E1
:102E5000FFE700F051F841F20801C4F202010968ED
:102E6000C9B20A094AF61451C0F60001895C01F0A2
:102E70001F01C84040F20801C2F20001086040F2A0
:102E80005C00C2F200000068FFF7D0FA8DF817006E
:102E9000FFE79DF8170006B080BD000040F2080073
:102EA000C2F200000068704780B5FFF7F7FF41F2FB
:102EB0000801C4F202010968C1F302224AF6245152
:102EC000C0F60001895C01F01F01C84080BD000010
:102ED00080B5FFF7E3FF41F20801C4F2020109687F
:102EE000C1F3C2224AF62451C0F60001895C01F008
:102EF0001F01C84080BD000086B041F20800C4F246
:102F00000200006800F00C00042806D1FFE742F23E
:102F10000040C0F2F400019069E041F20800C4F200
:102F20000200006800F00C00082806D1FFE743F219
:102F30000060C0F26E10019058E041F20800C4F247
:102F40000200006800F00C000C284BD1FFE741F2B2
:102F50000C00C4F20200016801F003010491006852
:102F6000C1B2012000EB11100290049800900228D9
:102F700015D0FFE70098032812D1FFE7029943F22A
:102F80000060C0F26E10B0FBF1F041F20C01C4F22F
:102F900002010968C1F306214843059011E0FFE7EB
:102FA000029942F20040C0F2F400B0FBF1F041F2AD
:102FB0000C01C4F202010968C1F3062148430590DF
:102FC000FFE741F20C00C4F20200006800F0C061AB
:102FD000022000EB1160039005980399B0FBF1F01B
:102FE000019002E000200190FFE7FFE7FFE7019872
:102FF00006B07047B0B588B00690069820B9FFE7D4
:1030000001208DF81F00CCE306980078C007002847
:1030100000F09B80FFE741F20800C4F20200006864
:1030200000F00C00049041F20C00C4F202000068B1
:1030300000F00300039004980C2804D1FFE70398E4
:10304000032804D0FFE70498082812D1FFE741F2D3
:103050000000C4F2020000688003002808D5FFE7E2
:103060000698406820B9FFE701208DF81F0098E31B
:103070006AE0FFE706984068B0F5803F09D1FFE7B6
:1030800041F20001C4F20201086840F48030086097
:1030900020E006984068B0F5A02F0DD1FFE741F27F
:1030A0000001C4F20201086840F48020086008684A
:1030B00040F4803008600CE041F20001C4F20201EB
:1030C000086820F480300860086820F480200860D8
:1030D000FFE7FFE7FFE706984068D0B1FFE7FFF79B
:1030E00077F90590FFE741F20000C4F202000068A2
:1030F000800300280CD4FFE7FFF76AF90599401A0E
:10310000652804D3FFE703208DF81F0049E3EAE7B1
:1031100019E0FFF75DF90590FFE741F20000C4F206
:1031200002000068800300280CD5FFE7FFF750F984
:103130000599401A652804D3FFE703208DF81F0086
:103140002FE3EAE7FFE7FFE7FFE70698007880074D
:10315000002840F19F80FFE741F20800C4F202001E
:10316000006800F00C00049041F20C00C4F2020070
:10317000006800F00300039004980C2804D1FFE7D6
:103180000398022804D0FFE7049804282CD1FFE715
:1031900041F20000C4F2020000684005002808D592
:1031A000FFE70698C06820B9FFE701208DF81F00EF
:1031B000F7E241F20401C4F20201086820F0FE4087
:1031C000069A126940EA0260086040F25C00C2F2AE
:1031D00000000068FFF72AF920B1FFE701208DF811
:1031E0001F00DEE2FFE754E00698C06870B3FFE717
:1031F00041F20001C4F20201086840F480700860E6
:10320000FFF7E6F80590FFE741F20000C4F2020084
:103210000068400500280CD4FFE7FFF7D9F80599AE
:10322000401A032804D3FFE703208DF81F00B8E2FB
:10323000EAE741F20401C4F20201086820F0FE400E
:10324000069A126940EA0260086021E041F200013A
:10325000C4F20201086820F480700860FFF7B8F833
:103260000590FFE741F20000C4F20200006840054B
:1032700000280CD5FFE7FFF7ABF80599401A0328A3
:1032800004D3FFE703208DF81F008AE2EAE7FFE797
:10329000FFE7FFE7069800780007002849D5FFE719
:1032A0000698406910B3FFE741F29401C4F20201AD
:1032B000086840F001000860FFF78AF80590FFE712
:1032C00041F29400C4F202000068800700280CD488
:1032D000FFE7FFF77DF80599401A032804D3FFE7BD
:1032E00003208DF81F005CE2EAE721E041F294013F
:1032F000C4F20201086820F001000860FFF768F8D6
:103300000590FFE741F29400C4F2020000688007D4
:1033100000280CD5FFE7FFF75BF80599401A032852
:1033200004D3FFE703208DF81F003AE2EAE7FFE746
:10333000FFE7069800784007002840F1C680FFE7C5
:1033400000208DF80B0041F25800C4F20200006822
:10335000C000002813D4FFE7FFE741F25800C4F291
:103360000200016841F080510160006800F0805067
:1033700001900198FFE701208DF80B00FFE747F26D
:103380000000C4F200000068C005002822D4FFE756
:1033900047F20001C4F20001086840F48070086040
:1033A000FFF716F80590FFE747F20000C4F20000AF
:1033B0000068C00500280CD4FFE7FFF709F805995D
:1033C000401A032804D3FFE703208DF81F00E8E12B
:1033D000EAE7FFE7FFE706988068012809D1FFE7E1
:1033E00041F29001C4F20201086840F00100086057
:1033F0001FE00698806805280DD1FFE741F2900193
:10340000C4F20201086840F004000860086840F057
:10341000010008600CE041F29001C4F2020108686A
:1034200020F001000860086820F004000860FFE751
:10343000FFE7FFE706988068E0B1FFE7FEF7C8FF07
:103440000590FFE741F29000C4F202000068800797
:1034500000280ED4FFE7FEF7BBFF0599401A41F2A2
:103460008931884204D3FFE703208DF81F0098E1DB
:10347000E8E71BE0FEF7ACFF0590FFE741F29000A4
:10348000C4F202000068800700280ED5FFE7FEF7AF
:103490009FFF0599401A41F28931884204D3FFE722
:1034A00003208DF81F007CE1E8E7FFE79DF80B00A3
:1034B000012809D1FFE741F25801C4F2020108686E
:1034C00020F080500860FFE7FFE70698007880064C
:1034D000002849D5FFE70698806910B3FFE741F25D
:1034E0009801C4F20201086840F001000860FEF78C
:1034F0006FFF0590FFE741F29800C4F202000068F8
:10350000800700280CD4FFE7FEF762FF0599401AF8
:10351000032804D3FFE703208DF81F0041E1EAE709
:1035200021E041F29801C4F20201086820F0010094
:103530000860FEF74DFF0590FFE741F29800C4F2E6
:1035400002000068800700280CD5FFE7FEF740FF67
:103550000599401A032804D3FFE703208DF81F00C4
:103560001FE1EAE7FFE7FFE70698C069002800F0DF
:103570001481FFE741F20800C4F20200006800F085
:103580000C000C2800F0B080FFE70698C069022804
:103590007CD1FFE741F20001C4F20201086820F08B
:1035A00080700860FEF714FF0590FFE741F200000D
:1035B000C4F202000068800100280CD5FFE7FEF786
:1035C00007FF0599401A032804D3FFE703208DF86D
:1035D0001F00E6E0EAE741F20C01C4F202010868CC
:1035E00048F20C02C0F29F121040DDF818C0DCF85F
:1035F0002020DCF82450DCF828E0DCF82C306FF0D8
:103600000F0404EB0514224342EA0E22DCF830409A
:1036100040F2000ECFF6E07E0EEA045EAEF5001E2C
:1036200042EA0E02DCF834E04FF07E4C0CEA0E6CFD
:103630000CF17E4C42EA0C0242EAC362104308607D
:1036400041F20002C4F20202106840F08070106083
:10365000086840F080700860FEF7BAFE0590FFE74A
:1036600041F20000C4F202000068800100280CD47E
:10367000FFE7FEF7ADFE0599401A032804D3FFE7E4
:1036800003208DF81F008CE0EAE72CE041F20001F6
:10369000C4F20201086820F080700860FEF798FE0E
:1036A0000590FFE741F20000C4F2020000688001CB
:1036B00000280CD5FFE7FEF78BFE0599401A03287A
:1036C00004D3FFE703208DF81F006AE0EAE741F228
:1036D0000C01C4F2020108684FF6FC72CFF6EE62EC
:1036E00010400860FFE757E00698C069012804D140
:1036F000FFE701208DF81F0053E041F20C00C4F2F7
:10370000020000680390039800F003000699096A1C
:1037100088423BD1FFE7039800F0F00006994A6A1F
:103720006FF00F0101EB021188422FD1FFE70398E0
:1037300000F4FE400699896AB0EB012F26D1FFE71D
:10374000039800F078400699C96AB0EBC16F1DD1AB
:10375000FFE7039800F4C00006990A6B0021CFF63A
:10376000E07101EA0251A1F5001188420ED1FFE794
:10377000039800F0C06006994A6B4FF07E4101EA61
:10378000026101F17E41884204D0FFE701208DF8FB
:103790001F0006E0FFE7FFE7FFE700208DF81F00AE
:1037A000FFE79DF81F0008B0B0BD000080B584B0F1
:1037B0000390029101920398006840684FF63F71B0
:1037C000C0F2FF0108400090BDF802000299C870E5
:1037D0000098C0F3042002994870009800F03F0060
:1037E00002998870BDF80000400B0299087001989A
:1037F00098B9FFE70298C07803F004FE0299C870F8
:103800000298407803F0FEFD029948700298807893
:1038100003F0F8FD02998870FFE7002004B080BD36
:1038200080B584B00390029101920398006880688B
:10383000029948600398006800696FF3DF300299CD
:10384000886003980068006847F67F71C0F27F01C6
:10385000084000900098C0F3054002990870009855
:10386000C0F3062002994870009800F07F0002998A
:1038700088700098C0F380500299C870019898B978
:10388000FFE70298007803F0BDFD029908700298E6
:10389000407803F0B7FD029948700298807803F0F1
:1038A000B1FD02998870FFE7002004B080BD0000E0
:1038B00080B582B0019001208DF8030001980028A6
:1038C00078D0FFE7019890F8250040B9FFE701990B
:1038D000002081F82400019800F070F8FFE70199BA
:1038E000022081F8250001980068C06800F01001EE
:1038F0000020B0EB111F4FD1FFE7FFE701980168EF
:10390000CA2048620198016853204862FFE7019885
:1039100003F0AEFD8DF803009DF8030000BBFFE748
:103920000198016888694FF6BF72CFF68F32104058
:103930008861019A116850681369926918430243BB
:10394000886910438861019801688268C06840EA0C
:1039500002400861019803F0CBFD8DF80300FFE7FA
:103960009DF8030088B9FFE701980068806920F09E
:103970006040019A11685369D2F81CC0126A42EA89
:103980000C021A4310438861FFE7FFE701980168C2
:10399000FF204862FFE703E000208DF80300FFE707
:1039A0009DF8030028B9FFE70199012081F825005F
:1039B000FFE7FFE79DF8030002B080BD81B00090F3
:1039C0000098006842F60001C4F20001884209D163
:1039D000FFE741F29001C4F20201086840F40040A0
:1039E0000860FFE701B0704780B588B00690059188
:1039F0000492FFE7069890F82400012804D1FFE71D
:103A000002208DF81F0081E00699012081F8240032
:103A1000FFE7FFE70699022081F82500049868B9BE
:103A2000FFE705984078C006002807D5FFE705990D
:103A3000487800F0EF000A304870FFE70498E0B9DA
:103A4000FFE70598C07803F0F1FC000400900598AA
:103A5000407803F0EBFC0146009840EA0120019019
:103A60000598807803F0E2FC014601980844059926
:103A7000097840EA413003900CE0059801784378DA
:103A80008278C078000440EA0320104440EA4130C4
:103A90000390FFE7FFE706980168CA20486206988E
:103AA000016853204862FFE7069803F0E1FC8DF8B7
:103AB0000B009DF80B0078B9FFE703984FF63F71B4
:103AC000C0F2FF010840069909684860069803F0B3
:103AD0000FFD8DF80B00FFE7FFE706980168FF2058
:103AE0004862FFE79DF80B0028B9FFE7069901201F
:103AF00081F82500FFE7FFE70699002081F8240000
:103B0000FFE79DF80B008DF81F00FFE79DF81F00F1
:103B100008B080BD80B588B0069005910492FFE79B
:103B2000069890F82400012804D1FFE702208DF8C0
:103B30001F009AE00699012081F82400FFE7FFE7C3
:103B40000699022081F82500FFE706980168CA203F
:103B500048620698016853204862FFE7069803F020
:103B600087FC8DF80B009DF80B00002863D1FFE760
:103B7000049840BBFFE7069800688069400600286B
:103B800001D5FFE703E005990020C870FFE705981D
:103B9000007803F04BFC000400900598407803F097
:103BA00045FC0146009840EA012001900598807884
:103BB00003F03CFC0146019808440599C97840EAA5
:103BC0008150039018E0069800688069400600283C
:103BD00001D5FFE703E005990020C870FFE70599CC
:103BE00008784B788A78C978000440EA03201044AA
:103BF00040EA81500390FFE7039847F67F71C0F2D7
:103C00007F0108400699096808600698016888697C
:103C100020F4802088610599C868096940EA01029A
:103C200006980168886910438861069803F060FC73
:103C30008DF80B00FFE7FFE706980168FF20486258
:103C4000FFE79DF80B0028B9FFE70699012081F8EE
:103C50002500FFE7FFE70699002081F82400FFE731
:103C60009DF80B008DF81F00FFE79DF81F0008B0BE
:103C700080BD000080B584B00290029801685F208A
:103C8000C0F20100C860FEF7A3FB0190FFE70298B5
:103C90000068C068800600280DD4FFE7FEF798FB97
:103CA0000199401AB0F57A7F04D9FFE703208DF817
:103CB0000F0004E0EBE700208DF80F00FFE79DF810
:103CC0000F0004B080BD000080B582B00190019863
:103CD00003F0CEFC02B080BD81B0009001B070470F
:103CE00081B0009001B0704781B0009001B0704782
:103CF00081B0009001B0704781B0009001B0704772
:103D000081B0009001B0704785B003900291FFE749
:103D1000039890F83C00012804D1FFE702208DF8B9
:103D200013008CE00399012081F83C00FFE7FFE7D6
:103D30000399022081F83D000398006840680190D3
:103D400003980068806800900398006842F600417C
:103D5000C4F20101884209D0FFE70398006843F2EA
:103D60000041C4F2010188420AD1FFE7019820F422
:103D70007000019002984168019808430190FFE7A4
:103D800001984FF68F71CFF6FF51084001900298CD
:103D900001680198084301900198039909684860F7
:103DA0000398006842F60041C4F2010188422AD01B
:103DB000FFE703980068B0F1804F24D0FFE7039835
:103DC000006840F20041C4F2000188421BD0FFE7C6
:103DD0000398006840F60001C4F20001884212D046
:103DE000FFE70398006843F20041C4F201018842F2
:103DF00009D0FFE70398006844F20001C4F2010112
:103E000088420ED1FFE7009820F0800000900298D1
:103E100081680098084300900098039909688860B9
:103E2000FFE70399012081F83D00FFE70399002097
:103E300081F83C00FFE700208DF81300FFE79DF8B4
:103E4000130005B07047000081B0009001B07047CA
:103E500080B582B00090009820B9FFE701208DF86E
:103E6000070045E0009890F83D0040B9FFE7009951
:103E7000002081F83C00009800F03EF8FFE7009930
:103E8000022081F83D00009951F8040B03F084FCF6
:103E90000099012081F84800FFE70099012081F88E
:103EA0003E00009981F83F00009981F84000009998
:103EB00081F84100009981F84200009981F843009F
:103EC000FFE7FFE70099012081F84400009981F89D
:103ED0004500009981F84600009981F84700FFE706
:103EE0000099012081F83D0000208DF80700FFE7D0
:103EF0009DF8070002B080BD80B58EB00D90002007
:103F00000C900B900A90099008900D980068B0F101
:103F1000804F10D1FFE7FFE741F25800C4F20200E2
:103F2000016841F001010160006800F001000790A4
:103F30000798FFE784E00D98006840F20041C4F262
:103F40000001884258D1FFE7FFE741F25800C4F270
:103F50000200016841F002010160006800F0020007
:103F600006900698FFE7FFE741F24C00C4F202001A
:103F7000016841F001010160006800F00100059056
:103F80000598FFE780200190089002200990002109
:103F900002910A910B910C904FF0904008A9FEF706
:103FA00035F8019A029940F2B810C2F2000003906D
:103FB0001C23C4F2020303603E2343608160C1609E
:103FC00002614FF4007242614FF40062826120226C
:103FD000C2610162FDF7CEFE18B1FFE7FCF730FECB
:103FE000FFE7FFE70D9840F2B811C2F200018162CD
:103FF0000D988862FFE722E00D98006841F2000109
:10400000C4F20001884219D1FFE7FFE741F25800EE
:10401000C4F20200016841F010010160006800F084
:10402000100004900498FFE736200090002211460B
:10403000FEF76EFA0098FEF761FAFFE7FFE7FFE789
:104040000EB080BD83B00190019890F83D0001282A
:1040500004D0FFE701208DF80B0060E001990220F9
:1040600081F83D0001980168C86840F00100C8600F
:104070000198006842F60041C4F2010188422AD04A
:10408000FFE701980068B0F1804F24D0FFE7019866
:10409000006840F20041C4F2000188421BD0FFE7F3
:1040A0000198006840F60001C4F20001884212D075
:1040B000FFE70198006843F20041C4F20101884221
:1040C00009D0FFE70198006844F20001C4F2010141
:1040D000884219D1FFE70198006880680721C0F283
:1040E000010108400090009806280CD0FFE70098D6
:1040F000B0F5803F07D0FFE701980168086840F0FD
:1041000001000860FFE706E001980168086840F0D8
:1041100001000860FFE700208DF80B00FFE79DF825
:104120000B0003B07047000080B586B00490039187
:1041300000208DF80B00FFE7049890F83C00012860
:1041400004D1FFE702208DF81700D3E00499012085
:1041500081F83C00FFE7FFE70499022081F83D0069
:10416000049800688068019001984FF68871CFF636
:10417000CE7108400190019820F47F400190019891
:10418000049909688860039800680090002800F08E
:104190009780FFE70098102800F09280FFE70098D2
:1041A000202800F08D80FFE70098302800F08880FC
:1041B000FFE70098402876D0FFE70098502858D0B5
:1041C000FFE70098602861D0FFE7009870282CD0A6
:1041D000FFE70098B0F5805F26D0FFE70098B0F5C4
:1041E000005F37D0FFE70098B0F1101F68D0FFE7FD
:1041F00000982021C0F21001884261D0FFE70098AA
:104200003021C0F2100188425AD0FFE700984021C7
:10421000C0F21001884253D0FFE700987021C0F22D
:10422000100188424CD052E055E004980068039B8E
:104230005A689968DB6803F089FC04980068806814
:104240000190019840F07700019001980499096865
:10425000886040E004980068039B5A689968DB68AE
:1042600003F074FC04980168886840F4804088601A
:1042700031E004980068039A5168D26804F002F9AA
:1042800004980068502103F07BFC24E00498006847
:10429000039A5168D26804F095F904980068602187
:1042A00003F06EFC17E004980068039A5168D26826
:1042B00004F0E8F804980068402103F061FC0AE08B
:1042C000049800680399096803F05AFC03E0012090
:1042D0008DF80B00FFE70499012081F83D00FFE70E
:1042E0000499002081F83C00FFE79DF80B008DF851
:1042F0001700FFE79DF8170006B080BD81B0009061
:1043000001B0704781B0009001B0704781B000905B
:1043100001B0704780B586B00490039102920020EE
:104320008DF80700FFE7049890F83C00012804D1BD
:10433000FFE702208DF8170080E00499012081F842
:104340003C00FFE7FFE70298B0B9FFE70498006878
:10435000039B19685A68DB6804F0BCF8049801688C
:10436000886920F00C0088610398826804980168CD
:1043700088691043886156E00298042817D1FFE746
:1043800004980068039B19685A68DB6804F044F9D4
:1043900004980168886920F4406088610398826805
:1043A00004980168886940EA022088613AE002982E
:1043B000082816D1FFE704980068039B19685A681B
:1043C000DB6804F05FF904980168C86920F00C000C
:1043D000C8610398826804980168C8691043C8617D
:1043E0001FE002980C2817D1FFE704980068039B90
:1043F00019685A68DB6804F07BF904980168C86999
:1044000020F44060C8610398826804980168C86914
:1044100040EA0220C86103E001208DF80700FFE7B1
:10442000FFE7FFE7FFE7FFE70499002081F83C0082
:10443000FFE79DF807008DF81700FFE79DF81700CC
:1044400006B080BD80B582B00090009820B9FFE72B
:1044500001208DF8070045E0009890F83D0040B934
:10446000FFE70099002081F83C00009800F03EF83A
:10447000FFE70099022081F83D00009951F8040BF4
:1044800003F08AF90099012081F84800FFE70099BC
:10449000012081F83E00009981F83F00009981F8E1
:1044A0004000009981F84100009981F8420000998C
:1044B00081F84300FFE7FFE70099012081F84400FD
:1044C000009981F84500009981F84600009981F82B
:1044D0004700FFE70099012081F83D0000208DF89A
:1044E0000700FFE79DF8070002B080BD81B0009093
:1044F00001B0704780B596B0149013911292ADF848
:10450000463000208DF84500139828B9FFE714982D
:1045100090F83E000E9034E01398042805D1FFE790
:10452000149890F83F000D9028E01398082805D1C2
:10453000FFE7149890F840000C901CE013980C28AA
:1045400005D1FFE7149890F841000B9010E0139804
:10455000102805D1FFE7149890F842000A9004E073
:10456000149890F843000A90FFE70A980B90FFE731
:104570000B980C90FFE70C980D90FFE70D980E90AC
:10458000FFE70E988DF83F00139828B9FFE71498BD
:1045900090F8440009901CE01398042805D1FFE727
:1045A000149890F84500089010E01398082805D159
:1045B000FFE7149890F84600079004E0149890F8EC
:1045C00047000790FFE707980890FFE708980990D1
:1045D000FFE709988DF83E009DF83F00022805D0BE
:1045E000FFE79DF83E00022804D1FFE702208DF886
:1045F0005700A0E19DF83F0001287AD1FFE79DF820
:104600003E00012875D1FFE7129820B1FFE7BDF801
:10461000460020B9FFE701208DF857008BE1139881
:1046200028B9FFE71499022081F83E0038E013987A
:10463000042806D1FFE71499022081F83F00069074
:104640002CE01398082806D1FFE71499022081F87E
:10465000400005901FE013980C2806D1FFE714993D
:10466000022081F84100049012E01398102806D12E
:10467000FFE71499022081F84200039005E01499A5
:10468000022081F843000390FFE703980490FFE7BE
:1046900004980590FFE705980690FFE70698FFE766
:1046A000139828B9FFE71499022081F844001EE00E
:1046B0001398042806D1FFE71499022081F84500D9
:1046C000029012E01398082806D1FFE714990220FF
:1046D00081F84600019005E01499022081F8470016
:1046E0000190FFE701980290FFE70298FFE7FFE7DC
:1046F00003E001208DF857001DE1FFE714980068E2
:104700001399012203F014F9139800900C2800F279
:10471000B6800099DFE801F007B3B3B332B3B3B3A7
:104720005DB3B3B388001498416A47F66910C0F6C8
:104730000000C8621498416A47F63D20C0F60000A8
:1047400008631498416A47F6B120C0F60000486338
:1047500014980168406A3431129ABDF84630FDF76A
:10476000B5FB20B1FFE701208DF85700E3E0149876
:104770000168C86840F40070C86084E01498816AD9
:1047800047F66910C0F60000C8621498816A47F6BF
:104790003D20C0F6000008631498816A47F6B120F6
:1047A000C0F60000486314980168806A3831129A94
:1047B000BDF84630FDF78AFB20B1FFE701208DF8F8
:1047C0005700B8E014980168C86840F48060C86079
:1047D00059E01498C16A47F66910C0F60000C86233
:1047E0001498C16A47F63D20C0F60000086314988B
:1047F000C16A47F6B120C0F600004863149801680A
:10480000C06A3C31129ABDF84630FDF75FFB20B11B
:10481000FFE701208DF857008DE014980168C86803
:1048200040F40060C8602EE01498016B47F66910F0
:10483000C0F60000C8621498016B47F63D20C0F630
:10484000000008631498016B47F6B120C0F6000021
:10485000486314980168006B4031129ABDF84630E5
:10486000FDF734FB20B1FFE701208DF8570062E02F
:1048700014980168C86840F48050C86003E00120C3
:104880008DF84500FFE71498006842F60041C4F235
:10489000010188422AD0FFE714980068B0F1804FE8
:1048A00024D0FFE71498006840F20041C4F20001F0
:1048B00088421BD0FFE71498006840F60001C4F25C
:1048C0000001884212D0FFE71498006843F20041CB
:1048D000C4F20101884209D0FFE71498006844F24D
:1048E0000001C4F20101884219D1FFE71498006861
:1048F00080680721C0F20101084010901098062836
:104900000CD0FFE71098B0F5803F07D0FFE7149870
:104910000168086840F001000860FFE706E01498AD
:104920000168086840F001000860FFE79DF8450055
:104930008DF85700FFE79DF8570016B080BD0000C6
:1049400080B584B0039003980068C0680290039813
:104950000068006901909DF804008007002824D5B4
:10496000FFE79DF80800800700281DD5FFE70398A2
:1049700001686FF00200086103990120087703982D
:1049800000688069800720B1FFE70398FFF7BAFC51
:1049900006E0039800F082F9039800F0B3FAFFE70D
:1049A000039900200877FFE7FFE79DF80400400720
:1049B000002825D5FFE79DF80800400700281ED5F0
:1049C000FFE7039801686FF0040008610399022073
:1049D000087703980068806910F4407F04D0FFE7EF
:1049E0000398FFF78FFC06E0039800F057F903984F
:1049F00000F088FAFFE7039900200877FFE7FFE758
:104A00009DF804000007002824D5FFE79DF8080062
:104A1000000700281DD5FFE7039801686FF0080024
:104A2000086103990420087703980068C06980072B
:104A300020B1FFE70398FFF765FC06E0039800F05C
:104A40002DF9039800F05EFAFFE70399002008773C
:104A5000FFE7FFE79DF80400C006002825D5FFE723
:104A60009DF80800C00600281ED5FFE703980168DE
:104A70006FF0100008610399082008770398006818
:104A8000C06910F4407F04D0FFE70398FFF73AFCB9
:104A900006E0039800F002F9039800F033FAFFE70C
:104AA000039900200877FFE7FFE79DF80400C0079F
:104AB00078B1FFE79DF80800C00748B1FFE7039809
:104AC00001686FF001000861039800F04FFBFFE7F9
:104AD000FFE7019800F08000802806D0FFE79DF8EE
:104AE00005008006002810D5FFE79DF808000006A5
:104AF000002809D5FFE7039801686FF402500861A8
:104B00000398FFF7EDF8FFE7FFE79DF80500C00702
:104B100080B1FFE79DF808000006002809D5FFE7EF
:104B2000039801686FF4807008610398FFF7D4F868
:104B3000FFE7FFE79DF804004006002810D5FFE7D7
:104B40009DF808004006002809D5FFE70398016892
:104B50006FF040000861039800F012FCFFE7FFE7E8
:104B60009DF804008006002810D5FFE79DF8080096
:104B70008006002809D5FFE7039801686FF0200040
:104B800008610398FFF7B0F8FFE7FFE79DF806001C
:104B9000C006002810D5FFE79DF80A00C0060028CF
:104BA00009D5FFE7039801686FF480100861039846
:104BB000FFF7A2F8FFE7FFE79DF806008006002850
:104BC00010D5FFE79DF80A008006002809D5FFE709
:104BD000039801686FF4001008610398FFF788F8E4
:104BE000FFE7FFE79DF806004006002810D5FFE725
:104BF0009DF80A004006002809D5FFE703980168E0
:104C00006FF4800008610398FFF77AF8FFE7FFE789
:104C10009DF806000006002810D5FFE79DF80A0061
:104C20000006002809D5FFE7039801686FF400002B
:104C300008610398FFF708F9FFE7FFE704B080BDBC
:104C400080B588B0079000200690059004900390EE
:104C5000029007980068B0F1804F1DD1FFE7FFE791
:104C600041F24C00C4F20200016841F00101016010
:104C7000006800F0010001900198FFE70220029017
:104C80000390002004900590012006904FF0904082
:104C900002A9FDF7BBF9FFE708B080BD81B0009025
:104CA00001B0704780B586B0049003910292002055
:104CB0008DF80700FFE7049890F83C00012804D124
:104CC000FFE702208DF81700C0E00499012081F869
:104CD0003C00FFE7FFE702980090142800F2A7804D
:104CE0000099DFE801F00BA4A4A424A4A4A43EA48A
:104CF000A4A457A4A4A471A4A4A48A00049800683E
:104D0000039902F055FF04980168886940F0080093
:104D1000886104980168886920F00400886103981C
:104D200002690498016888691043886183E00498E7
:104D30000068039902F0E6FF04980168886940F46E
:104D40000060886104980168886920F48060886147
:104D50000398026904980168886940EA0220886122
:104D600069E004980068039903F084F804980168E6
:104D7000C86940F00800C86104980168C86920F05B
:104D80000400C8610398026904980168C869104367
:104D9000C86150E004980068039903F023F904986F
:104DA0000168C86940F40060C86104980168C86976
:104DB00020F48060C8610398026904980168C8699A
:104DC00040EA0220C86136E004980068039903F0C5
:104DD000C1F904980168086D40F00800086504985E
:104DE0000168086D20F004000865039802690498C2
:104DF0000168086D104308651DE004980068039978
:104E000003F012FA04980168086D40F40060086528
:104E100004980168086D20F48060086503980269B1
:104E200004980168086D40EA0220086503E001204B
:104E30008DF80700FFE7FFE70499002081F83C00A8
:104E4000FFE79DF807008DF81700FFE79DF81700B2
:104E500006B080BD80B582B00090009820B9FFE711
:104E600001208DF8070045E0009890F83D0040B91A
:104E7000FFE70099002081F83C00009800F03EF820
:104E8000FFE70099022081F83D00009951F8040BDA
:104E900002F082FC0099012081F84800FFE70099A8
:104EA000012081F83E00009981F83F00009981F8C7
:104EB0004000009981F84100009981F84200009972
:104EC00081F84300FFE7FFE70099012081F84400E3
:104ED000009981F84500009981F84600009981F811
:104EE0004700FFE70099012081F83D0000208DF880
:104EF0000700FFE79DF8070002B080BD81B0009079
:104F000001B0704781B0009001B0704780B590B09B
:104F10000E900D910D9828B9FFE70E9890F83E007D
:104F20000B9034E00D98042805D1FFE70E9890F817
:104F30003F000A9028E00D98082805D1FFE70E9859
:104F400090F8400009901CE00D980C2805D1FFE76F
:104F50000E9890F84100089010E00D98102805D1A7
:104F6000FFE70E9890F84200079004E00E9890F842
:104F700043000790FFE707980890FFE7089809901B
:104F8000FFE709980A90FFE70A980B90FFE70B9854
:104F9000012804D0FFE701208DF83F00E1E00D98E3
:104FA00028B9FFE70E99022081F83E0038E00D98FD
:104FB000042806D1FFE70E99022081F83F000690F1
:104FC0002CE00D98082806D1FFE70E99022081F801
:104FD000400005901FE00D980C2806D1FFE70E99C0
:104FE000022081F84100049012E00D98102806D1AB
:104FF000FFE70E99022081F84200039005E00E9928
:10500000022081F843000390FFE703980490FFE734
:1050100004980590FFE705980690FFE70698FFE7DC
:105020000E9800680D990122019202F081FC01980E
:105030000E99096842F60042C4F2010291420290C0
:105040002DD0FFE70E980168012043F20042C4F220
:1050500001029142029022D0FFE70E9801680120E0
:1050600044F20002C4F201029142029017D0FFE71D
:105070000E980168012044F20042C4F201029142FC
:1050800002900CD0FFE70E9800684BF60001CBF6BB
:10509000FE710844B0FA80F040090290FFE70298E0
:1050A000C00738B1FFE70E980168486C40F4004033
:1050B0004864FFE70E98006842F60041C4F201011F
:1050C00088422AD0FFE70E980068B0F1804F24D0C4
:1050D000FFE70E98006840F20041C4F200018842E8
:1050E0001BD0FFE70E98006840F60001C4F20001F3
:1050F000884212D0FFE70E98006843F20041C4F2E4
:105100000101884209D0FFE70E98006844F20001CF
:10511000C4F20101884219D1FFE70E980068806847
:105120000721C0F2010108400C900C9806280CD011
:10513000FFE70C98B0F5803F07D0FFE70E980168B5
:10514000086840F001000860FFE706E00E9801687B
:10515000086840F001000860FFE700208DF83F007C
:10516000FFE79DF83F0010B080BD000080B582B021
:1051700001900198006841F20001C4F200018842E8
:1051800040F0AF80FFE740F2E201C2F20001088880
:105190000130088080B240F21001C2F200010978AB
:1051A0004FF47A725143884257DBFFE704F0A6FEC2
:1051B00040F22460C2F20000006840F20061C2F2D6
:1051C00000010B7840F22042C2F2000242F83300A4
:1051D00040F20C70C2F2000000780B7802EBC303BF
:1051E000187140F20C60C2F20000037891F800C020
:1051F00002EBCC0C8CF80530437891F800C002EB40
:10520000CC0C8CF8063080780B7802EBC302D0719E
:105210000878013044F24542C0F24442A0FB023219
:10522000C2EB0212A0EB8200087040F20461C2F2ED
:10523000000108680130086040F20571C2F2000107
:10524000087880F00400087004F0AEFD40F2E2013E
:10525000C2F2000100200880FFE740F2E002C2F243
:1052600000021078411CC8B21170C82838D1FFE77D
:1052700040F2E001C2F200010020087040F21C4040
:10528000C2F20000007848B1FFE740F20571C2F2B7
:105290000001087880F001000870FFE740F21D402F
:1052A000C2F20000007848B1FFE740F20571C2F297
:1052B0000001087880F002000870FFE740F21C400F
:1052C000C2F20000007838B9FFE740F21D40C2F298
:1052D0000000007818B1FFE704F066FDFFE7FFE784
:1052E000FFE702B080BD000080B584B0029001915C
:1052F000FFE7029890F83C00012804D1FFE7022064
:105300008DF80F0037E00299012081F83C00FFE79B
:10531000FFE70299022081F83D000298019902F00E
:10532000EDFF70B1FFE70299012081F83D00FFE732
:105330000299002081F83C00FFE701208DF80F0062
:1053400019E002980168C86820F04000C86002981F
:105350000168C86820F48040C8600299012081F883
:105360003D00FFE70299002081F83C00FFE70020A4
:105370008DF80F00FFE79DF80F0004B080BD00001E
:1053800081B0009001B0704783B00190FFE70198B1
:1053900090F88400012804D1FFE702208DF80B006B
:1053A0002CE00199012081F88400FFE7FFE70199D3
:1053B0002420C1F8880001980068006800900198D6
:1053C0000168086820F001000860009820F0005093
:1053D00000900199002048660098019909680860CA
:1053E00001992020C1F88800FFE70199002081F889
:1053F0008400FFE700208DF80B00FFE79DF80B000D
:1054000003B0704780B586B004900391ADF80A20D0
:105410000498D0F88C00202844D1FFE7039820B1ED
:10542000FFE7BDF80A0020B9FFE701208DF817005B
:105430003CE004990120C86604990020086704989C
:105440000399BDF80A2003F057FF8DF809009DF875
:10545000090010BBFFE70498C06E012818D1FFE7D0
:105460000498016810200862FFE7FFE704980068CD
:1054700050E8000F40F010000190FFE701990498F8
:10548000026842E800100028F0D1FFE7FFE703E0E0
:1054900001208DF80900FFE7FFE79DF809008DF86E
:1054A000170003E002208DF81700FFE79DF81700B2
:1054B00006B080BD82B00190ADF802109DF80200E8
:1054C00040F20471C2F20001087002B0704700009F
:1054D00081B0009001B0704780B584B00290019116
:1054E000FFE7029890F88400012804D1FFE702202A
:1054F0008DF80F0032E00299012081F88400FFE767
:10550000FFE702992420C1F888000298006800682B
:10551000009002980168086820F001000860029875
:105520000068806820F0606001990843029909686A
:105530008860029803F012F90098029909680860DF
:1055400002992020C1F88800FFE70299002081F825
:105550008400FFE700208DF80F00FFE79DF80F00A3
:1055600004B080BD80B584B002900191FFE702983D
:1055700090F88400012804D1FFE702208DF80F0085
:1055800032E00299012081F88400FFE7FFE70299E9
:105590002420C1F8880002980068006800900298F2
:1055A0000168086820F001000860029800688068BF
:1055B00020F06040019908430299096888600298C8
:1055C00003F0CCF80098029909680860029920203D
:1055D000C1F88800FFE70299002081F88400FFE706
:1055E00000208DF80F00FFE79DF80F0004B080BD8C
:1055F00081B0009001B0704781B0009001B0704759
:1056000081B0009001B0704780B590B00F900F98B6
:105610000068C0690E900F98006800680D900F98A0
:10562000006880680C900E9840F60F0108400B90BF
:105630000B98E0B9FFE79DF838008006002815D5E3
:10564000FFE79DF834008006002806D4FFE79DF8A8
:105650003300C006002809D5FFE70F98406F20B13E
:10566000FFE70F98416F8847FFE796E2FFE70B9847
:10567000002800F00C81FFE70C980121C1F2000125
:10568000084209D1FFE70D9840F22011C0F2004115
:10569000084200F0FC80FFE79DF83800C00788B1A1
:1056A000FFE79DF83500C00760B1FFE70F9801687C
:1056B000012008620F99D1F8900040F00100C1F874
:1056C0009000FFE79DF838008007002811D5FFE71C
:1056D0009DF83000C00760B1FFE70F980168022015
:1056E00008620F99D1F8900040F00400C1F89000D2
:1056F000FFE79DF838004007002811D5FFE79DF827
:105700003000C00760B1FFE70F980168042008620D
:105710000F99D1F8900040F00200C1F89000FFE727
:105720009DF838000007002819D5FFE79DF83400E0
:105730008006002807D4FFE70C980121C1F2000180
:1057400008420CD0FFE70F980168082008620F9903
:10575000D1F8900040F00800C1F89000FFE79DF8F4
:1057600039000007002813D5FFE79DF837004007F0
:1057700000280DD5FFE70F9801684FF4006008621C
:105780000F99D1F8900040F02000C1F89000FFE799
:105790000F98D0F89000002878D0FFE79DF83800E7
:1057A0008006002815D5FFE79DF834008006002804
:1057B00006D4FFE79DF83300C006002809D5FFE7AF
:1057C0000F98406F20B1FFE70F98416F8847FFE7C0
:1057D000FFE70F98D0F890000A900F980068806853
:1057E00000F04000402806D0FFE79DF8280010F0A8
:1057F000280F42D0FFE70F9803F026FA0F980068B1
:1058000080684006002833D5FFE7FFE7FFE70F98E1
:10581000006850E8020F20F040000990FFE7099966
:105820000F98026842E802100028F0D1FFE7FFE776
:105830000F98D0F88000B0B1FFE70F98D0F8801033
:1058400048F67520C0F6000088630F98D0F88000F5
:10585000FCF782F930B1FFE70F98D0F88000816B38
:105860008847FFE703E00F98FFF7CAFEFFE703E072
:105870000F98FFF7C5FEFFE707E00F98FFF7C0FEA0
:105880000F990020C1F89000FFE7FFE785E10F982E
:10589000C06E012840F02281FFE79DF83800C00665
:1058A000002840F11B81FFE79DF83400C006002866
:1058B00040F11481FFE70F980168102008620F98EB
:1058C000006880684006002840F1A680FFE70F9836
:1058D000D0F8800000684068ADF82200BDF82200D2
:1058E00000287CD0FFE7BDF822000F99B1F85C10CA
:1058F000884274DAFFE7BDF822000F99A1F85E0034
:105900000F98D0F88000006800688006002859D4FD
:10591000FFE7FFE7FFE70F98006850E8000F20F46B
:1059200080700790FFE707990F98026842E800101F
:105930000028F0D1FFE7FFE7FFE7FFE70F980068D7
:1059400050E8020F20F001000690FFE706990F983B
:10595000026842E802100028F0D1FFE7FFE7FFE706
:10596000FFE70F98006850E8020F20F04000059014
:10597000FFE705990F98026842E802100028F0D16D
:10598000FFE7FFE70F992020C1F88C000F99002056
:10599000C866FFE7FFE70F98006850E8000F20F0A7
:1059A00010000490FFE704990F98026842E8001085
:1059B0000028F0D1FFE7FFE70F98D0F88000FCF750
:1059C0007DF8FFE70F99022008670F98B0F85C1088
:1059D000B0F85E20891A89B2FFF76CFD1BE0BDF8B4
:1059E00022000F99B1F85C10884213D1FFE70F989D
:1059F000D0F88000006800688006002809D5FFE71D
:105A00000F99022008670F98B0F85C10FFF752FD5D
:105A1000FFE7FFE7FFE7C0E00F99B1F85C00B1F8DE
:105A20005E10401AADF80E000F98B0F85E00002826
:105A300053D0FFE7BDF80E0000284ED0FFE7FFE788
:105A4000FFE70F98006850E8000F20F49070029074
:105A5000FFE702990F98026842E800100028F0D191
:105A6000FFE7FFE7FFE7FFE70F98006850E8020F46
:105A70004FF6FE71CEF6FF7108400190FFE70199E5
:105A80000F98026842E802100028EDD1FFE7FFE717
:105A90000F992020C1F88C000F990020C8660F993B
:105AA0004867FFE7FFE70F98006850E8000F20F015
:105AB00010000090FFE700990F98026842E800107C
:105AC0000028F0D1FFE7FFE70F99022008670F9841
:105AD000BDF80E10FFF7EEFCFFE75EE09DF83A0020
