:020000040800F2
:10000000E8050020ED0100082D480008013D00082A
:1000100029480008910A0008314F0008000000003C
:10002000000000000000000000000000794C000803
:10003000C50B0008000000009D480008D14C0008D6
:10004000070200080702000807020008070200086C
:10005000070200080702000807020008070200085C
:10006000070200080702000807020008950A0008B6
:10007000070200080702000807020008070200083C
:10008000070200080000000007020008070200083D
:10009000070200080702000807020008070200081C
:1000A000070200080702000807020008070200080C
:1000B00007020008070200080702000807020008FC
:1000C00007020008070200080702000807020008EC
:1000D00007020008070200080702000807020008DC
:1000E00007020008070200080702000807020008CC
:1000F00007020008070200080702000800000000CD
:1001000000000000070200080000000007020008CD
:100110000702000800000000894D000807020008DF
:10012000070200080702000807020008070200088B
:10013000070200080000000000000000070200089D
:10014000070200080702000800000000000000008D
:10015000000000000000000000000000000000009F
:10016000000000000000000000000000070200087E
:10017000070200080000000000000000000000006E
:10018000000000000702000800000000000000005E
:10019000000000000000000000000000000000005F
:1001A000000000000000000007020008070200082D
:1001B000070200080702000807020008000000000C
:1001C000000000000702000800000000000000001E
:1001D0000702000807020008DFF80CD000F03CFA24
:1001E00000480047C1590008E8050020064880473C
:1001F00006480047FEE7FEE7FEE7FEE7FEE7FEE70C
:10020000FEE7FEE7FEE7FEE7754D0008D9010008AE
:10021000D2B201E000F8012B491EFBD27047002248
:10022000F6E710B513460A4604461946FFF7F0FFF5
:10023000204610BD00F0004230F000400AD0C10D51
:1002400001F56071C0F3160042EA0151C20840078F
:100250001143704700200146704730B50B460146F8
:1002600000202022012409E021FA02F59D4205D355
:1002700003FA02F5491B04FA02F52844151EA2F1FF
:100280000102F1DC30BD2DE9F05F05460020924609
:100290009B4688460646814640241BE02846414648
:1002A0004746224600F0FFF953465A46C01A91418C
:1002B00010D311461846224600F0E6F92D1A67EBD6
:1002C00001084F4622460120002100F0DDF917EB1E
:1002D00000094E41201EA4F10104DFDC48463146EE
:1002E0002A464346BDE8F09F2DE9FE4F804681EA4D
:1002F0000300C00F0C46009021F0004123F00045A0
:10030000B8EB0200A94105D24046214690461C4662
:100310000B46024623F00040104347D0270DC7F399
:100320000A00C3F30A510290401A019040286BDA88
:10033000C3F3130040F4801B0098924620B10023C1
:10034000D2EB030A63EB0B0B01985946C0F1400254
:10035000504600F099F906460D4650465946019A16
:1003600000F0B1F910EB08006141002487EA115256
:1003700084EAE7731A4340D0009A62B3019A012AD3
:100380004FEA075215DC001B61EB02014FF00042FF
:1003900002EA0752CDE90042001C41F580113246C5
:1003A0002B4600F0B1F903B0BDE8F08F404621467E
:1003B000F9E7001B61EB0201001C41F580130018F6
:1003C0005B412018A2F5001747EB030140EAD57006
:1003D000B6196D4111E06D084FEA360645EAC07561
:1003E0004FEA0752001B61EB0201001C41F580112E
:1003F00049084FEA30000019514132462B4603B0FC
:10040000BDE8F04F00F071B90098012240000023D0
:10041000D0EB020263EBE073009821464FEAE074F0
:10042000B8EB000061EB0401E9E783F000435BE710
:1004300081F0004158E72DE9FE4F81EA030404F002
:10044000004421F0004100944FF0000B23F00043E2
:1004500050EA01045ED052EA03045BD0C3F30A54AD
:10046000C1F30A552C44A4F2F3340194A0FB0254C6
:10047000C1F3130141F48011C3F3130343F4801358
:1004800001FB024400FB034E840A970A44EA8154AC
:1004900047EA8357A4FB076802958D0A05FB078589
:1004A0004FEA932C04FB0C542705029D4FEA065893
:1004B00047EA1637B5EB08056EEB070C870E920E70
:1004C00047EA811742EA8312A7FB0201B6EB0B0150
:1004D00064EB00042B0D43EA0C335E1844EB1C5014
:1004E000DA465146E7FB0201C5F313044FEA0B332A
:1004F00043EA14534FEA0432019C43EA0603A4F191
:100500000C040294009CCDE900B400F0FDF803B0A7
:10051000BDE8F08F00200146F9E72DE9F04D81EAB2
:10052000030404F0004B21F0004514464FF0000A8C
:1005300023F0004150EA050220D054EA01021DD008
:10054000C5F30A570246C5F31303C1F31300C1F301
:100550000A5640F4801543F48013A7EB0608101BDD
:10056000D64608F2FD3873EB050002D308F1010806
:1005700001E092185B41B8F1000F03DA0020014658
:10058000BDE8F08D00204FF48011064684460EE051
:10059000171B73EB050705D3121B63EB050306431B
:1005A0004CEA010C49084FEA300092185B4150EACE
:1005B0000107EDD152EA030012D082EA040083EA77
:1005C0000501084305D0101BAB4106D201220023D0
:1005D00006E000224FF0004302E06FF001025310EA
:1005E0001AEB06004CEB085110EB0A0041EB0B0133
:1005F000BDE8F04D00F079B8C1F30A52C1F3130120
:1006000040F2FF3341F480119A4202DA00200146A1
:10061000704740F233439A42A2F2334202DC524224
:1006200000F041B800F030B830B5041E71F100049C
:1006300004DB4FF00044404264EB0101141E73F1EF
:10064000000405DB1C464FF00043524263EB0403F9
:10065000994208BF904230BD1CB509480090094836
:1006600001900546009C06E0E06840F0010394E834
:10067000070098471034AC42F6D3FFF7B1FD0000F5
:100680007076000890760008202A04DB203A00FAF1
:1006900002F1002070479140C2F1200320FA03F3D9
:1006A000194390407047202A04DB203A21FA02F0D7
:1006B0000021704721FA02F3D040C2F1200291409C
:1006C000084319467047202A06DBCB17203A41FA27
:1006D00002F043EAE07306E041FA02F3D040C2F1CF
:1006E0002002914008431946704710B5141E73F15B
:1006F000000408DA401C41F1000192185B411A43E2
:1007000001D120F0010010BD2DE9F04D92469B462D
:1007100011B1B1FA81F202E0B0FA80F220329046D3
:10072000FFF7B2FF04460F4640EA0A0041EA0B0118
:1007300053465A46084313D0114653EA010019D0D4
:10074000C8F140025046FFF7AEFF05460E46504640
:1007500059464246FFF798FF084305D0012004E0C0
:1007600020463946BDE8F08D0020054346EAE07694
:100770002C4337430A986305E40AA0EB08000022E3
:10078000FD0A44EA47540A3002D500200146E9E751
:10079000010510196941DDE9084500196941BDE805
:1007A000F04DA2E780B582B001900198806A009078
:1007B0000098C06D10F0500F4BD1FFE70099C86D45
:1007C00040F40070C86500980068006800070028C1
:1007D00021D5FFE70098006803F0DAFDD0B1FFE70C
:1007E00000980068C0688004002812D4FFE70099D0
:1007F000C86D20F48070C8650098C06DC0040028E2
:1008000006D4FFE70099C86D40F00100C865FFE716
:10081000FFE7FFE719E000980068C068800700283C
:1008200012D4FFE70099C86D20F48070C865009865
:10083000C06DC004002806D4FFE70099C86D40F0E1
:100840000100C865FFE7FFE7FFE7009800F052FEF0
:1008500010E00098C06DC006002804D5FFE700989E
:1008600000F050FE05E00098406D416B019888470C
:10087000FFE7FFE702B080BD80B582B0019001982C
:10088000806A00900099C86D40F04000C8650099EA
:10089000086E40F004000866009800F033FE02B0D5
:1008A00080BD000080B582B001900198806A009000
:1008B000009800F023FE02B080BD000080B584B037
:1008C00002900298006803F043FD009002980068CF
:1008D00003F046FD00284BD0FFE70098002847D1E1
:1008E000FFE702980068806800F00D00012809D138
:1008F000FFE70298006803F0BBFC02980168032040
:1009000008600DE00299C86D40F01000C8650299BA
:10091000086E40F00100086601208DF80F002BE002
:1009200001F096FC0190FFE7029800688068C0071C
:10093000E8B1FFE701F08CFC0199401A032815D3B8
:10094000FFE7029800688068C00770B1FFE702996E
:10095000C86D40F01000C8650299086E40F00100B3
:10096000086601208DF80F0006E0FFE7DCE7FFE7EF
:1009700000208DF80F00FFE79DF80F0004B080BD48
:1009800080B584B00290002000900298006803F0C7
:10099000E7FC002874D1FFE70298006880683F21D7
:1009A000C8F2000108420ED0FFE70299C86D40F07E
:1009B0001000C8650299086E40F001000866012029
:1009C0008DF80F0060E00298006803F06BFC40F2C5
:1009D0000030C5F2000003F083FC000200281CD5A3
:1009E000FFE740F20400C2F200000068800942F60E
:1009F0006351C0F23E51A0FB0110800900EB4001A1
:100A00000C2000EB81000090FFE7009820B1FFE789
:100A1000009801380090F8E7FFE701F019FC019019
:100A2000FFE7029800680068C00740BBFFE7029834
:100A3000006803F095FC28B9FFE70298006803F00E
:100A400031FCFFE701F004FC0199401A032815D39B
:100A5000FFE7029800680068C00770B9FFE70299D5
:100A6000C86D40F01000C8650299086E40F00100A2
:100A7000086601208DF80F0006E0FFE7D1E7FFE7E9
:100A800000208DF80F00FFE79DF80F0004B080BD37
:100A9000FFE7FEE780B540F23010C2F2000000F040
:100AA000FDFF80BD84B003900398006840F20741C9
:100AB000C4F20201884206D8FFE740F60000C4F203
:100AC0000200009005E040F62000C4F20200009011
:100AD000FFE7009802900398007808384CF6CD4163
:100AE000CCF6CC41A0FB01100009019002980399BB
:100AF0004A6C22F0030210448864039940F6800097
:100B0000C4F20200C864019800F01F01012088406F
:100B10000399086504B0704782B00190019800798C
:100B20000090009940F6FC00C4F2020000EB810046
:100B300001994865019940F64010C4F202008865A9
:100B40000098013800F01F01012088400199C86514
:100B500002B0704784B00390029101920093039811
:100B6000C16C006D48600398406D28B1FFE70398A1
:100B7000816DC06D4860FFE70398016C406C00F028
:100B80001F0201209040486000980399096848605E
:100B900003988068102809D1FFE701980399096834
:100BA0008860029803990968C86008E00298039970
:100BB00009688860019803990968C860FFE704B074
:100BC000704700007047000082B0ADF806000020BA
:100BD000ADF80400FFE7BDF80400BDF80610884238
:100BE00019DAFFE70020ADF80200FFE7BDF80200C8
:100BF00040F6B731884207DCFFE7FFE7BDF80200A7
:100C00000130ADF80200F1E7FFE7BDF80400013064
:100C1000ADF80400DFE702B07047000081B0EFF3E9
:100C2000108072B60090FFE7FEE7000080B586B046
:100C30000490039100200190FFE7049890F8580079
:100C4000012804D1FFE702208DF817005AE004992B
:100C5000012081F85800FFE7FFE70498FFF72EFE18
:100C60008DF80B009DF80B00D8BBFFE70498C06D12
:100C700040F0020020F488500499C8650498006888
:100C8000039903F077FCFFE70498006803F050FB3A
:100C9000F0B1FFE701980130019001984DF6026133
:100CA000C0F20401884212D3FFE70498C06D40F0FF
:100CB000100020F002000499C865FFE704990020A5
:100CC00081F85800FFE701208DF817001AE0DBE7F4
:100CD0000498C06D40F0010020F002000499C8653E
:100CE00005E00499C86D40F01000C865FFE7FFE714
:100CF0000499002081F85800FFE79DF80B008DF85B
:100D00001700FFE79DF8170006B080BD80B5C0B0A2
:100D100020901F9100208DF87B001B901F98C068C9
:100D20000021C4F27F01884201D0FFE700E0FFE725
:100D3000FFE7209890F85800012804D1FFE702202F
:100D40008DF88700D2E32099012081F85800FFE751
:100D5000FFE72098006803F013FB002840F0B283FF
:100D6000FFE7209800681F990A68496803F01CFB98
:100D70002098006803F004FB1A902098006803F0A4
:100D8000CFFA19901A98002840F0B881FFE7199817
:100D9000002840F0B381FFE71F988068B0F1004F52
:100DA0000ED1FFE7209800681F990968002203F020
:100DB00027FB209800684FF0004103F0CDFB0CE0CA
:100DC000209800681F9A1168926803F019FB209818
:100DD0000068002103F0C0FBFFE71F9840692099DD
:100DE0000968C96801F01801890888401D901F989A
:100DF000006904281CD0FFE7209800681F990A6842
:100E000009691D9B03F04EFB209800681F9A116929
:100E1000926903F079FB209800681F9A1169127F8C
:100E2000013AB2FA82F25209520603F059FB64E128
:100E300020980068002103F063FA400348B9FFE7F7
:100E400020980068002103F05BFAC0F384601890DA
:100E500018E020980068002103F052FA90FAA0F000
:100E60003E903E9820B9FFE720208DF8FF0005E076
:100E70003E98B0FA80F08DF8FF00FFE79DF8FF0084
:100E80001890FFE7189817901F980068400330B932
:100E9000FFE71F980068C0F38460169015E01F9864
:100EA000006890FAA0F03C903C9820B9FFE7202021
:100EB0008DF8F70005E03C98B0FA80F08DF8F70067
:100EC000FFE79DF8F7001690FFE7179816998842FC
:100ED00007D1FFE7209800680022114603F028FBA5
:100EE000FFE720980068012103F00AFA400348B99F
:100EF000FFE720980068012103F002FAC0F3846044
:100F0000159018E020980068012103F0F9F990FA93
:100F1000A0F03A903A9820B9FFE720208DF8EF0032
:100F200005E03A98B0FA80F08DF8EF00FFE79DF801
:100F3000EF001590FFE7159814901F980068400384
:100F400030B9FFE71F980068C0F38460139015E084
:100F50001F98006890FAA0F03890389820B9FFE701
:100F600020208DF8E70005E03898B0FA80F08DF881
:100F7000E700FFE79DF8E7001390FFE71498139947
:100F8000884207D1FFE7209800680121002203F082
:100F9000CFFAFFE720980068022103F0B1F940037F
:100FA00048B9FFE720980068022103F0A9F9C0F3CF
:100FB0008460129018E020980068022103F0A0F9E4
:100FC00090FAA0F03690369820B9FFE720208DF8EF
:100FD000DF0005E03698B0FA80F08DF8DF00FFE71B
:100FE0009DF8DF001290FFE7129811901F9800689B
:100FF000400330B9FFE71F980068C0F38460109089
:1010000015E01F98006890FAA0F03490349820B949
:10101000FFE720208DF8D70005E03498B0FA80F083
:101020008DF8D700FFE79DF8D7001090FFE71198E3
:101030001099884207D1FFE720980068022100221A
:1010400003F076FAFFE720980068032103F058F9CF
:10105000400348B9FFE720980068032103F050F9E6
:10106000C0F384600F9018E020980068032103F01B
:1010700047F990FAA0F03290329820B9FFE720208B
:101080008DF8CF0005E03298B0FA80F08DF8CF00EF
:10109000FFE79DF8CF000F90FFE70F980E901F9885
:1010A0000068400330B9FFE71F980068C0F3846010
:1010B0000D9015E01F98006890FAA0F030903098DD
:1010C00020B9FFE720208DF8C70005E03098B0FA7E
:1010D00080F08DF8C700FFE79DF8C7000D90FFE78F
:1010E0000E980D99884207D1FFE7209800680321E8
:1010F000002203F01DFAFFE7FFE7FFE720980068F2
:1011000003F02EF9002840F04481FFE720980068A2
:101110001F9A1168D26803F08FF91F98C0680021E8
:10112000C4F27F01884240F03381FFE720980068D5
:101130000C901F980068400330B9FFE71F980068C3
:10114000C0F384600B9015E01F98006890FAA0F03F
:101150002E902E9820B9FFE720208DF8BF0005E0E3
:101160002E98B0FA80F08DF8BF00FFE79DF8BF0021
:101170000B90FFE70B98013000F01F0009287DD885
:10118000FFE71F980068400330B9FFE71F98006829
:10119000C0F384600A9015E01F98006890FAA0F0F0
:1011A0002C902C9820B9FFE720208DF8B70005E09F
:1011B0002C98B0FA80F08DF8B700FFE79DF8B700E3
:1011C0000A90FFE70A98013000F01F00800609909E
:1011D0001F980068400330B9FFE71F980068C0F30C
:1011E0008460089015E01F98006890FAA0F02A909B
:1011F0002A9820B9FFE720208DF8AF0005E02A9853
:10120000B0FA80F08DF8AF00FFE79DF8AF000890CE
:10121000FFE709980899013101F01F02012191406F
:10122000084307901F980068400330B9FFE71F98F4
:101230000068C0F38460069015E01F98006890FA7B
:10124000A0F02890289820B9FFE720208DF8A7006B
:1012500005E02898B0FA80F08DF8A700FFE79DF828
:10126000A7000690FFE707980699013101F01F01DA
:1012700001EB410140EA0150059082E01F980068AF
:10128000400330B9FFE71F980068C0F38460049002
:1012900015E01F98006890FAA0F02690269820B9D3
:1012A000FFE720208DF89F0005E02698B0FA80F037
:1012B0008DF89F00FFE79DF89F000490FFE70498DA
:1012C000013000F01F00800603901F980068400363
:1012D00030B9FFE71F980068C0F38460029015E002
:1012E0001F98006890FAA0F02490249820B9FFE796
:1012F00020208DF8970005E02498B0FA80F08DF852
:101300009700FFE79DF897000290FFE70398029986
:10131000013101F01F0201219140084301901F9803
:101320000068400330B9FFE71F980068C0F384608D
:10133000009015E01F98006890FAA0F02290229883
:1013400020B9FFE720208DF88F0005E02298B0FA41
:1013500080F08DF88F00FFE79DF88F000090FFE789
:1013600001990098013000F01F0000EB40020020BE
:10137000CFF6206000EB0250084340F0007005906B
:10138000FFE70C9805991F9A926803F039F8FFE778
:10139000FFE71F98408848F20801084200F091805A
:1013A000FFE740F20030C5F2000002F099FF1C9008
:1013B0001F9800680021CCF22131884208D0FFE755
:1013C0001F9800681021C9F2C001884232D1FFE79E
:1013D0009DF87200000600282CD4FFE720980068D2
:1013E000B0F1A04F25D1FFE71C9840F4000140F276
:1013F0000030C5F2000003F047F840F20400C2F2EA
:1014000000000068800942F66351C0F23E51A0FB23
:101410000110800900EB40010C2000EB81001B90C3
:10142000FFE71B9820B1FFE71B9801381B90F8E7F6
:10143000FFE745E01F9800680021CCF25271884216
:1014400019D1FFE79DF87300C007A0B9FFE7209806
:10145000006840F20011C5F2000188420AD0FFE79F
:101460001C9840F0807140F20030C5F2000003F09B
:101470000BF8FFE723E01F9800680021CCF68431C9
:1014800088421AD1FFE79DF872004006002814D464
:10149000FFE72098006840F20011C5F20001884281
:1014A0000AD0FFE71C9840F4800140F20030C5F2FA
:1014B000000002F0E9FFFFE700E0FFE7FFE7FFE7DA
:1014C000FFE708E02099C86D40F02000C8650120C2
:1014D0008DF87B00FFE7FFE72099002081F8580096
:1014E000FFE79DF87B008DF88700FFE79DF88700F8
:1014F00040B080BD81B0009001B0704781B00090D5
:1015000001B0704781B0009001B0704780B588B0DD
:10151000069000208DF817000190069820B9FFE78B
:1015200001208DF81F0079E10698406940B1FFE77E
:10153000069890F82400012801D1FFE7FFE7FFE7B4
:101540000698C06D50B9FFE7069800F06BF9069950
:1015500000200866069981F85800FFE706980068A1
:1015600002F0EEFE28B1FFE70698006802F08EFE5A
:10157000FFE70698006802F0FBFEF0B9FFE7069867
:10158000006802F09DFE40F20400C2F20000006814
:10159000800942F66351C0F23E51A0FB011081095F
:1015A000022000EB41000190FFE7019820B1FFE726
:1015B000019801380190F8E7FFE70698006802F00B
:1015C000D7FE70B9FFE70699C86D40F01000C865F6
:1015D0000699086E40F00100086601208DF817009A
:1015E000FFE70698006802F0CBFE03900698C06DF6
:1015F000C006002800F10481FFE70398002840F0AE
:10160000FF80FFE70698C06D40F0020020F4807074
:101610000699C8650698006802F0A2FED0B9FFE7F7
:101620004FF0A04002F09CFE009040F20010C5F286
:10163000000002F095FE01460098084348B9FFE714
:101640000698416840F20030C5F2000002F00EFF3B
:10165000FFE7FFE706994A7FC86B40EA42308A6895
:10166000CB681843104391F8241040EA01400490DD
:10167000069890F8240001280BD1FFE70698816AAC
:101680000020CFF6FE7000EB41410498084304901F
:10169000FFE70698C06A50B1FFE70699C86A096B70
:1016A00000F478700143049808430490FFE706981B
:1016B0000068C06844F20701CFF6F0710840049951
:1016C000084306990968C86006980068006920F018
:1016D0004060069A1168526B1043086106980068D2
:1016E00002F01EFE02900398002868D1FFE70298DE
:1016F000002864D1FFE70699087F91F8381080032D
:1017000040EA4100049006980068C06844F2020173
:1017100088430499084306990968C86006980069D7
:10172000A0B1FFE706980168086940F480300861BD
:1017300006980068D0F8C00043F6FF718843069A07
:10174000116812691043C1F8C00011E006980168E1
:10175000086920F48030086106980068D0F8C0005D
:1017600043F6FF71884306990968C1F8C000FFE796
:10177000069890F84000012819D1FFE70698006804
:10178000006940F2FD7120EA0102069B1968586C5D
:10179000D3F848E0D3F84CC040EA0E0040EA0C0011
:1017A0001B6D1843104340F00100086106E00698E5
:1017B0000168086920F001000861FFE7FFE706986B
:1017C000406901280CD1FFE706980068006B20F003
:1017D0000F00069A1168126A013A1043086306E086
:1017E00006980168086B20F00F000863FFE7069871
:1017F000C06D40F0010020F002000699C86508E0C5
:101800000699C86D40F01000C86501208DF81700DA
:10181000FFE79DF817008DF81F00FFE79DF81F00F8
:1018200008B080BD80B58AB009900020089007906C
:101830000690059004900998006840F20011C5F2E6
:10184000000188425AD1FFE7FFE741F24C00C4F2A1
:101850000200016841F400510160006800F400508A
:1018600003900398FFE7FFE741F24C00C4F2020047
:10187000016841F002010160006800F0020002907E
:101880000298FFE74FF400400490032005900020E9
:101890000090069040F20040C4F6000004A900F059
:1018A000F5FA009940F23010C2F2000001900822CF
:1018B000C4F202020260242242608160C160802181
:1018C00001614FF4007141614FF400618161202199
:1018D000C1614FF48051016200F08CF918B1FFE74B
:1018E000FFF79CF9FFE7FFE7099840F23011C2F2D9
:1018F0000001416509988862FFE7FFE70AB080BDF3
:1019000080B588B006900591049240F20030C5F28F
:10191000000002F0EDFC02900698006802F030FD35
:10192000002840F0AE80FFE7FFE7069890F85800E7
:10193000012804D1FFE702208DF81F00AAE00699D4
:10194000012081F85800FFE7FFE7029848B1FFE760
:101950000298052805D0FFE70298092840F0868004
:10196000FFE70698FFF70CF88DF80F009DF80F00C1
:10197000002873D1FFE70698C06D40F4807040F6F0
:10198000016188430699C8650698006840F2001115
:10199000C5F20001884204D1FFE74FF0A04001905A
:1019A00003E0069800680190FFE70198069909682E
:1019B000884203D0FFE7029830B9FFE70699C86D67
:1019C00020F48010C865FFE70698C06DC0040028A9
:1019D00006D5FFE70699086E20F00600086603E0CA
:1019E000069900200866FFE70698416D40F2A57051
:1019F000C0F60000C8620698416D40F6A500C0F62A
:101A0000000008630698416D40F67900C0F60000BA
:101A10004863069801681C200860FFE706990020CB
:101A200081F85800FFE706980168486840F0100008
:101A3000486006980168C86840F00100C8600698D0
:101A40000168406D4031059A049B00F07FF98DF8E4
:101A50000F000698006802F0C5FC06E0FFE7069953
:101A6000002081F85800FFE7FFE709E001208DF82A
:101A70000F00FFE70699002081F85800FFE7FFE715
:101A800003E002208DF80F00FFE79DF80F008DF8AE
:101A90001F00FFE79DF81F0008B080BD80B584B02F
:101AA00003900398006C0068029003980068006837
:101AB000019002980399496C01F01F01C84040074A
:101AC000002825D5FFE79DF80400400700281FD512
:101AD000FFE70398006800688006002807D4FFE746
:101AE00003980168086820F004000860FFE7039885
:101AF000016C406C00F01F02042090404860039885
:101B0000006B20B1FFE70398016B8847FFE76EE0A9
:101B100002980399496C01F01F01C8408007002812
:101B20002FD5FFE79DF804008007002829D5FFE79F
:101B3000039800680068800600280BD4FFE703982C
:101B40000168086820F00A0008600399012081F804
:101B50002500FFE70398016C406C00F01F02022093
:101B600090404860FFE70399002081F82400FFE7D8
:101B70000398C06A20B1FFE70398C16A8847FFE76E
:101B800034E002980399496C01F01F01C840000736
:101B9000002829D5FFE79DF804000007002823D579
:101BA000FFE703980168086820F00E0008600398BA
:101BB000026C406C00F01F01012000FA01F151603D
:101BC0000399C863039981F82500FFE70399002072
:101BD00081F82400FFE70398406B20B1FFE70398EA
:101BE000416B8847FFE700E0FFE7FFE7FFE704B04E
:101BF00080BD000080B584B00290029820B9FFE754
:101C000001208DF80F009CE00298006840F2074127
:101C1000C4F20201884218D8FFE7029908684FF61B
:101C2000F872CBF6FD7210444CF6CD42CCF6CC42A5
:101C3000A0FB02026FF0030000EA920048640299E0
:101C40000020C4F20200086418E0029908684FF608
:101C5000F832CBF6FD7210444CF6CD42CCF6CC42B5
:101C6000A0FB02026FF0030000EA920048640299B0
:101C700040F20040C4F202000864FFE7029902202B
:101C800081F825000298006800680190019847F6E5
:101C9000F0718843019002998868D1F80CC00B69F3
:101CA0004A6940EA0C00184310438A691043CA6924
:101CB0001043096A01430198084301900198029971
:101CC000096808600298FEF7EDFE02988068B0F59A
:101CD000804F04D1FFE7029900204860FFE7029996
:101CE0000879896C08600298C16C006D48600298A0
:101CF000406888B1FFE70298406804280CD8FFE7E5
:101D00000298FEF709FF0298416D002008600298D2
:101D1000816DC06D486007E0029900204865029916
:101D200088650299C865FFE702990020C863029A96
:101D3000012182F82510029981F824008DF80F0006
:101D4000FFE79DF80F0004B080BD000080B586B0AD
:101D5000049003910292019300208DF80300FFE7A5
:101D6000049890F82400012804D1FFE702208DF8A0
:101D7000170065E00499012081F82400FFE7FFE7E0
:101D8000049890F8250001284BD1FFE70499022020
:101D900081F8250004990020C86304980168086848
:101DA00020F00100086004980399029A019BFEF755
:101DB000D1FE0498006B38B1FFE704980168086809
:101DC00040F00E0008600CE004980168086820F0FC
:101DD0000400086004980168086840F00A00086080
:101DE000FFE70498806C0068C003002807D5FFE770
:101DF0000498816C086840F480700860FFE70498DC
:101E0000406D38B1FFE70498416D086840F4807078
:101E10000860FFE704980168086840F00100086066
:101E200009E0FFE70499002081F82400FFE7022081
:101E30008DF80300FFE79DF803008DF81700FFE71A
:101E40009DF8170006B080BD80B584B0039000F007
:101E5000FFF90290039801900198013048B1FFE723
:101E600040F23800C2F20000016801980844019075
:101E7000FFE7FFE700F0ECF90299401A0199884268
:101E800001D2FFE7F6E704B080BD00008BB00A90F6
:101E9000099100200890FFE7099800680899C84058
:101EA000002800F0A581FFE709980068089A012141
:101EB0009140084007900798002800F09581FFE7BF
:101EC0000998406800F00300012807D0FFE709984F
:101ED000406800F0030002282FD1FFE70A988068CD
:101EE000069008984100032000FA01F10698884303
:101EF00006900998C0680899490000FA01F106980F
:101F00000843069006980A9988600A9840680690E7
:101F10000899012000FA01F1069888430690099873
:101F20004068C0F30010089900FA01F106980843D0
:101F3000069006980A994860FFE70998406800F003
:101F40000300032818D0FFE70A98C0680690089895
:101F50004100032000FA01F1069888430690099891
:101F600080680899490000FA01F106980843069034
:101F700006980A99C860FFE70998406800F00300D6
:101F8000022826D1FFE70A9808996FF0030202EAB7
:101F900051010844006A0690089800F0070081008B
:101FA0000F2000FA01F1069888430690099800690D
:101FB000089901F00701890000FA01F10698084329
:101FC000069006980A99089B02EA53021144086297
:101FD000FFE70A980068069008984100032000FA7D
:101FE00001F10698884306900998406800F00300C4
:101FF0000899490000FA01F10698084306900698EE
:102000000A990860099880798007002800F0EB8021
:10201000FFE7FFE741F26000C4F20200016841F00F
:1020200001010160006800F0010005900598FFE7DC
:10203000089820F003000821C4F2010140580690DE
:10204000089800F0030081000F2000FA01F10698C3
:10205000884306900A98B0F1904F03D1FFE7002023
:10206000049042E00A9840F20041C4F60001884220
:1020700003D1FFE70120039034E00A9840F6000105
:10208000C4F60001884203D1FFE70220029026E057
:102090000A9840F60041C4F60001884203D1FFE7E8
:1020A0000320019018E00A9841F20001C4F60001F3
:1020B000884203D1FFE7042000900AE00A9941F228
:1020C0000042C4F600020620914208BF052000909D
:1020D000FFE700980190FFE701980290FFE7029860
:1020E0000390FFE703980490FFE70498089901F034
:1020F0000301890000FA01F106980843069006984A
:10210000089921F003010822C4F20102885040F22C
:102110000840C4F2010000680690079906988843B9
:10212000069009988079C006002805D5FFE7079931
:10213000069808430690FFE7069840F20841C4F26B
:102140000101086040F20C40C4F2010000680690F2
:102150000799069888430690099880798006002898
:1021600005D5FFE70799069808430690FFE706980C
:1021700040F20C41C4F20101086040F20440C4F294
:102180000100006806900799069888430690099810
:1021900080798007002805D5FFE70799069808434E
:1021A0000690FFE7069840F20441C4F2010108607E
:1021B00040F20040C4F201000068069007990698BA
:1021C0008843069009988079C00728B1FFE70799EE
:1021D000069808430690FFE7069840F20041C4F2D3
:1021E00001010860FFE7FFE708980130089053E617
:1021F0000BB0704782B00190ADF8021001980069F1
:10220000BDF80210084204D0FFE701208DF801005C
:1022100003E000208DF80100FFE79DF8010002B007
:102220007047000082B00190ADF802108DF80120D7
:102230009DF8010028B1FFE7BDF80200019988610F
:1022400004E0BDF8020001998862FFE702B0704720
:1022500040F2E410C2F200000068704740F238001B
:10226000C2F20000026840F2E411C2F20001086804
:10227000104408607047000080B582B000200090D4
:102280008DF80700032000F09BF8009800F00EF88E
:1022900020B1FFE701208DF8070002E000F04AF8C6
:1022A000FFE79DF8070002B080BD000080B582B056
:1022B000019000208DF8030040F23800C2F20000C7
:1022C000006878B3FFE740F20400C2F20000006843
:1022D00040F23801C2F200010A684FF47A71B1FB92
:1022E000F2F1B0FBF1F001F073F9B0B9FFE701983A
:1022F0000F280DD8FFE701994FF0FF30002200F0C2
:1023000047F8019840F23C01C2F20001086003E086
:1023100001208DF80300FFE703E001208DF80300A2
:10232000FFE703E001208DF80300FFE79DF80300BD
:1023300002B080BD80B582B0FFE741F26000C4F218
:102340000200016841F001010160006800F0010035
:1023500001900198FFE7FFE741F25800C4F2020044
:10236000016841F080510160006800F080500090E9
:102370000098FFE700F006F902B080BD80B582B09A
:102380008DF807009DF9070002F0D4FD02B080BD72
:1023900080B586B08DF817000491039202F0E2FD3B
:1023A00002909DF91700019002980499039A02F097
:1023B0003FFA0146019802F0DDFD06B080BD000045
:1023C00080B582B00190019802F0F6FD02B080BDA8
:1023D00085B00390039800285ED1FFE747F2000024
:1023E000C4F20000006800F4C060B0F5806F49D10D
:1023F000FFE747F28001C4F20001086820F4807012
:10240000086047F20002C4F200021168012060F384
:102410004A21116040F20401C2F20001096832222F
:1024200051434DF68362C4F21B32A1FB022100EB43
:1024300091400290FFE747F21400C4F200000168E7
:10244000002049050029019006D5FFE702980028E1
:1024500018BF01200190FFE70198C00720B1FFE7F6
:10246000029801380290E6E747F21400C4F2000037
:1024700000684005002804D5FFE703208DF813000D
:102480007CE008E047F28001C4F20001086820F413
:1024900080700860FFE76DE00398B0F5007F5ED1C3
:1024A000FFE747F20000C4F20000006800F4C060DB
:1024B000B0F5806F49D1FFE747F28001C4F2000117
:1024C000086840F48070086047F20002C4F200021D
:1024D0001168012060F34A21116040F20401C2F248
:1024E00000010968322251434DF68362C4F21B3267
:1024F000A1FB022100EB91400290FFE747F214009C
:10250000C4F200000168002049050029009006D5AA
:10251000FFE70298002818BF01200090FFE700980D
:10252000C00720B1FFE7029801380290E6E747F2C2
:102530001400C4F2000000684005002804D5FFE73D
:1025400003208DF8130019E008E047F28001C4F27F
:102550000001086840F480700860FFE709E047F276
:102560000001C4F200010868022262F34A200860F8
:10257000FFE7FFE700208DF81300FFE79DF8130049
:1025800005B0704747F20801C4F20001086840F442
:10259000804008607047000080B586B0059000203C
:1025A0008DF80B008DF80A00059880780007002848
:1025B00040F1B580FFE700208DF8090041F2580096
:1025C000C4F202000068C000002813D4FFE7FFE750
:1025D00041F25800C4F20200016841F080510160EC
:1025E000006800F0805001900198FFE701208DF80D
:1025F0000900FFE747F20001C4F20001086840F457
:1026000080700860FFF724FE0390FFE747F20000A8
:10261000C4F200000068C00500280CD4FFE7FFF7F3
:1026200017FE0399401A032804D3FFE703208DF80F
:102630000B0000E0EAE79DF80B0000285BD1FFE704
:1026400041F29000C4F20200006800F4407004906F
:102650000498C8B1FFE704980599096C884213D023
:10266000FFE741F29001C4F20201086820F44070D3
:102670000490086840F480300860086820F48030D6
:10268000086004980860FFE79DF81000C007E0B1FB
:10269000FFE7FFF7DDFD0390FFE741F29000C4F292
:1026A00002000068800700280ED4FFE7FFF7D0FD86
:1026B0000399401A41F28931884204D3FFE703208D
:1026C0008DF80B0000E0E8E7FFE79DF80B0060B92C
:1026D000FFE741F29001C4F20201086820F4407063
:1026E000059A126C1043086004E09DF80B008DF809
:1026F0000A00FFE704E09DF80B008DF80A00FFE7F1
:102700009DF80900012809D1FFE741F25801C4F200
:102710000201086820F080500860FFE7FFE7059895
:102720000078C00760B1FFE741F28801C4F20201FE
:10273000086820F00300059A526810430860FFE71C
:1027400005980078800700280CD5FFE741F2880142
:10275000C4F20201086820F00C00059A9268104348
:102760000860FFE705980078400700280CD5FFE7D0
:1027700041F28801C4F20201086820F03000059A95
:10278000D26810430860FFE705980078000700282A
:102790000CD5FFE741F28801C4F20201086820F07D
:1027A000C000059A126910430860FFE70598007899
:1027B000800600280CD5FFE741F28801C4F202012F
:1027C000086820F44060059A526910430860FFE7EA
:1027D00005980078400600280CD5FFE741F28801F3
:1027E000C4F20201086820F44050059A926910432F
:1027F0000860FFE705980078000600280CD5FFE781
:1028000041F28801C4F20201086820F44040059AB0
:10281000D26910430860FFE705984078C00760B1AF
:10282000FFE741F28801C4F20201086820F4403059
:10283000059A126A10430860FFE705984078800700
:1028400000280CD5FFE741F28801C4F202010868B4
:1028500020F44020059A526A10430860FFE705986B
:102860004078400700281BD5FFE741F28801C4F2F9
:102870000201086820F44010059A926A104308602B
:102880000598806AB0F5801F09D1FFE741F20C017D
:10289000C4F20201086840F480100860FFE7FFE717
:1028A00005984078000700281BD5FFE741F2880112
:1028B000C4F20201086820F44000059AD26A10436D
:1028C00008600598C06AB0F5800F09D1FFE741F2B2
:1028D0000C01C4F20201086840F480100860FFE7B0
:1028E000FFE705984078C00600281BD5FFE741F2B6
:1028F0008801C4F20201086820F04070059A126B4A
:10290000104308600598006BB0F1807F09D1FFE7A4
:1029100041F20C01C4F20201086840F48010086022
:10292000FFE7FFE705984078800600281BD5FFE702
:1029300041F28801C4F20201086820F04060059A63
:10294000526B104308600598406BB0F1006F09D1DD
:10295000FFE741F20C01C4F20201086840F4801064
:102960000860FFE7FFE705984078400600281BD580
:10297000FFE741F28801C4F20201086820F04060DC
:10298000059A926B104308600598806BB0F1006F58
:1029900009D1FFE741F20C01C4F20201086840F4DA
:1029A00080100860FFE7FFE70598407800060028E0
:1029B0001BD5FFE741F28801C4F20201086820F04C
:1029C0004050059AD26B104308600598C06BB0F177
:1029D000805F09D1FFE741F20C01C4F202010868EF
:1029E00040F480300860FFE7FFE79DF80A0006B07A
:1029F00080BD000080B586B0049003910020009057
:102A0000049820B9FFE701208DF8170081E10398B1
:102A100042F20001C4F20201096801F00F0188428C
:102A200016D9FFE742F20000C4F20200016821F06B
:102A30000F01039A11430160006800F00F00039931
:102A4000884204D0FFE701208DF8170061E1FFE71D
:102A500004980078C007002800F0A380FFE70498DE
:102A60004068032839D1FFE741F20000C4F20200B8
:102A700000688001002804D4FFE701208DF81700CA
:102A800047E101F00DFF019001984BF20141C0F2C6
:102A9000C441884220D3FFE741F20800C4F202009B
:102AA000006810F0F00F0AD0FFE704980078800764
:102AB000002810D5FFE70498806860B9FFE741F26D
:102AC0000801C4F202010868082262F307100860D6
:102AD00080200090FFE7FFE738E004984068022874
:102AE0000ED1FFE741F20000C4F20200006880034B
:102AF000002804D4FFE701208DF8170009E10DE05C
:102B000041F20000C4F2020000684005002804D42D
:102B1000FFE701208DF81700FBE0FFE700F0FEF86B
:102B2000019001984BF20141C0F2C44188420CD39C
:102B3000FFE741F20801C4F202010868082262F3CB
:102B40000710086080200090FFE7FFE741F20801CE
:102B5000C4F20201086820F00300049A526810438E
:102B60000860FFF775FB0290FFE741F20800C4F22E
:102B70000200006800F00C0004994968B0EB810F76
:102B80000ED0FFE7FFF764FB0299401A41F289314A
:102B9000884204D3FFE703208DF81700B9E0E4E78B
:102BA000FFE704980078800700282CD5FFE70498F9
:102BB00000784007002809D5FFE741F20801C4F278
:102BC0000201086840F4E0600860FFE704980078BC
:102BD000000700280BD5FFE741F20801C4F202010B
:102BE000086840F4E06020F460500860FFE741F2BC
:102BF0000801C4F20201086820F0F000049A92680B
:102C0000104308600DE00098802809D1FFE741F2E9
:102C10000801C4F20201086820F0F0000860FFE734
:102C2000FFE7039842F20001C4F20201096801F0D3
:102C30000F01884228D2FFE742F20001C4F20201EC
:102C4000086820F00F00039A10430860FFF700FBAC
:102C50000290FFE742F20000C4F20200006800F0B8
:102C60000F00039988420ED0FFE7FFF7F1FA0299AF
:102C7000401A41F28931884204D3FFE703208DF8DE
:102C8000170046E0E6E7FFE70498007840070028D1
:102C90000CD5FFE741F20801C4F20201086820F4F4
:102CA000E060049AD26810430860FFE70498007857
:102CB000000700280DD5FFE741F20801C4F2020128
:102CC000086820F46050049A126940EAC200086063
:102CD000FFE700F023F841F20801C4F2020109689D
:102CE000C9B20A0946F2A031C0F60001895C01F0C0
:102CF0001F01C84040F20401C2F20001086040F226
:102D00003C00C2F200000068FFF7D0FA8DF817000F
:102D1000FFE79DF8170006B080BD000086B041F2C5
:102D20000800C4F20200006800F00C00042806D17C
:102D3000FFE742F20040C0F2F400019069E041F286
:102D40000800C4F20200006800F00C00082806D158
:102D5000FFE743F20060C0F26E10019058E041F2CC
:102D60000800C4F20200006800F00C000C284BD1EF
:102D7000FFE741F20C00C4F20200016801F0030118
:102D800004910068C1B2012000EB11100290049878
:102D90000090022815D0FFE70098032812D1FFE722
:102DA000029943F20060C0F26E10B0FBF1F041F204
:102DB0000C01C4F202010968C1F3062148430590E1
:102DC00011E0FFE7029942F20040C0F2F400B0FBCC
:102DD000F1F041F20C01C4F202010968C1F30621CD
:102DE00048430590FFE741F20C00C4F2020000687E
:102DF00000F0C061022000EB116003900598039978
:102E0000B0FBF1F0019002E000200190FFE7FFE746
:102E1000FFE7019806B07047B0B588B006900698F5
:102E200020B9FFE701208DF81F00CCE30698007859
:102E3000C007002800F09B80FFE741F20800C4F2C1
:102E40000200006800F00C00049041F20C00C4F293
:102E50000200006800F00300039004980C2804D1DD
:102E6000FFE70398032804D0FFE70498082812D14D
:102E7000FFE741F20000C4F202000068800300286E
:102E800008D5FFE70698406820B9FFE701208DF8D4
:102E90001F0098E36AE0FFE706984068B0F5803FBE
:102EA00009D1FFE741F20001C4F20201086840F4D1
:102EB0008030086020E006984068B0F5A02F0DD162
:102EC000FFE741F20001C4F20201086840F48020EB
:102ED0000860086840F4803008600CE041F20001AE
:102EE000C4F20201086820F480300860086820F409
:102EF00080200860FFE7FFE7FFE706984068D0B151
:102F0000FFE7FFF7A5F90590FFE741F20000C4F2E3
:102F100002000068800300280CD4FFE7FFF798F94F
:102F20000599401A652804D3FFE703208DF81F0098
:102F300049E3EAE719E0FFF78BF90590FFE741F273
:102F40000000C4F202000068800300280CD5FFE7EF
:102F5000FFF77EF90599401A652804D3FFE703209F
:102F60008DF81F002FE3EAE7FFE7FFE7FFE706988A
:102F700000788007002840F19F80FFE741F20800B9
:102F8000C4F20200006800F00C00049041F20C0052
:102F9000C4F20200006800F00300039004980C28BB
:102FA00004D1FFE70398022804D0FFE7049804281F
:102FB0002CD1FFE741F20000C4F202000068400596
:102FC000002808D5FFE70698C06820B9FFE7012070
:102FD0008DF81F00F7E241F20401C4F20201086813
:102FE00020F0FE40069A126940EA0260086040F252
:102FF0003C00C2F200000068FFF758F920B1FFE77B
:1030000001208DF81F00DEE2FFE754E00698C0685B
:1030100070B3FFE741F20001C4F20201086840F416
:1030200080700860FFF714F90590FFE741F2000097
:10303000C4F202000068400500280CD4FFE7FFF747
:1030400007F90599401A032804D3FFE703208DF8F8
:103050001F00B8E2EAE741F20401C4F20201086885
:1030600020F0FE40069A126940EA0260086021E002
:1030700041F20001C4F20201086820F48070086087
:10308000FFF7E6F80590FFE741F20000C4F2020006
:103090000068400500280CD5FFE7FFF7D9F805992F
:1030A000401A032804D3FFE703208DF81F008AE2AB
:1030B000EAE7FFE7FFE7FFE7069800780007002848
:1030C00049D5FFE70698406910B3FFE741F2940144
:1030D000C4F20201086840F001000860FFF7B8F888
:1030E0000590FFE741F29400C4F2020000688007F7
:1030F00000280CD4FFE7FFF7ABF80599401A032826
:1031000004D3FFE703208DF81F005CE2EAE721E02B
:1031100041F29401C4F20201086820F00100086045
:10312000FFF796F80590FFE741F29400C4F2020021
:103130000068800700280CD5FFE7FFF789F805999C
:10314000401A032804D3FFE703208DF81F003AE25A
:10315000EAE7FFE7FFE7069800784007002840F11C
:10316000C680FFE700208DF80B0041F25800C4F242
:1031700002000068C000002813D4FFE7FFE741F217
:103180005800C4F20200016841F0805101600068FB
:1031900000F0805001900198FFE701208DF80B00AE
:1031A000FFE747F20000C4F200000068C0050028F5
:1031B00022D4FFE747F20001C4F20001086840F49E
:1031C00080700860FFF744F80590FFE747F20000C1
:1031D000C4F200000068C00500280CD4FFE7FFF728
:1031E00037F80599401A032804D3FFE703208DF828
:1031F0001F00E8E1EAE7FFE7FFE70698806801289B
:1032000009D1FFE741F29001C4F20201086840F0E1
:10321000010008601FE00698806805280DD1FFE7CF
:1032200041F29001C4F20201086840F00400086015
:10323000086840F0010008600CE041F29001C4F21F
:103240000201086820F001000860086820F004000E
:103250000860FFE7FFE7FFE706988068E0B1FFE757
:10326000FEF7F6FF0590FFE741F29000C4F202007E
:103270000068800700280ED4FFE7FEF7E9FF0599F4
:10328000401A41F28931884204D3FFE703208DF8C8
:103290001F0098E1E8E71BE0FEF7DAFF0590FFE783
:1032A00041F29000C4F202000068800700280ED5A9
:1032B000FFE7FEF7CDFF0599401A41F289318842B8
:1032C00004D3FFE703208DF81F007CE1E8E7FFE768
:1032D0009DF80B00012809D1FFE741F25801C4F223
:1032E0000201086820F080500860FFE7FFE70698B9
:1032F00000788006002849D5FFE70698806910B35A
:10330000FFE741F29801C4F20201086840F00100B1
:103310000860FEF79DFF0590FFE741F29800C4F2B8
:1033200002000068800700280CD4FFE7FEF790FF3A
:103330000599401A032804D3FFE703208DF81F00E6
:1033400041E1EAE721E041F29801C4F20201086894
:1033500020F001000860FEF77BFF0590FFE741F2D7
:103360009800C4F202000068800700280CD5FFE72F
:10337000FEF76EFF0599401A032804D3FFE70320E8
:103380008DF81F001FE1EAE7FFE7FFE70698C06935
:10339000002800F01481FFE741F20800C4F20200A7
:1033A000006800F00C000C2800F0B080FFE70698E1
:1033B000C06902287CD1FFE741F20001C4F202019A
:1033C000086820F080700860FEF742FF0590FFE774
:1033D00041F20000C4F202000068800100280CD510
:1033E000FFE7FEF735FF0599401A032804D3FFE7EE
:1033F00003208DF81F00E6E0EAE741F20C01C4F279
:103400000201086848F20C02C0F29F121040DDF879
:1034100018C0DCF82020DCF82450DCF828E0DCF8C8
:103420002C306FF00F0404EB0514224342EA0E2205
:10343000DCF8304040F2000ECFF6E07E0EEA045E8B
:10344000AEF5001E42EA0E02DCF834E04FF07E4C8E
:103450000CEA0E6C0CF17E4C42EA0C0242EAC362AA
:103460001043086041F20002C4F20202106840F00A
:1034700080701060086840F080700860FEF7E8FE19
:103480000590FFE741F20000C4F2020000688001ED
:1034900000280CD4FFE7FEF7DBFE0599401A03284D
:1034A00004D3FFE703208DF81F008CE0EAE72CE04F
:1034B00041F20001C4F20201086820F08070086047
:1034C000FEF7C6FE0590FFE741F20000C4F20200DD
:1034D0000068800100280CD5FFE7FEF7B9FE0599CA
:1034E000401A032804D3FFE703208DF81F006AE089
:1034F000EAE741F20C01C4F2020108684FF6FC72DF
:10350000CFF6EE6210400860FFE757E00698C0690A
:10351000012804D1FFE701208DF81F0053E041F29C
:103520000C00C4F2020000680390039800F003004E
:103530000699096A88423BD1FFE7039800F0F00042
:1035400006994A6A6FF00F0101EB021188422FD1F0
:10355000FFE7039800F4FE400699896AB0EB012F5B
:1035600026D1FFE7039800F078400699C96AB0EBCE
:10357000C16F1DD1FFE7039800F4C00006990A6BE4
:103580000021CFF6E07101EA0251A1F50011884255
:103590000ED1FFE7039800F0C06006994A6B4FF028
:1035A0007E4101EA026101F17E41884204D0FFE7D9
:1035B00001208DF81F0006E0FFE7FFE7FFE700208E
:1035C0008DF81F00FFE79DF81F0008B0B0BD000098
:1035D00080B582B00190019801F050FB02B080BD2F
:1035E00081B0009001B0704781B0009001B0704789
:1035F00081B0009001B0704781B0009001B0704779
:1036000081B0009001B0704781B0009001B0704768
:1036100085B003900291FFE7039890F83C000128E1
:1036200004D1FFE702208DF813008CE003990120FC
:1036300081F83C00FFE7FFE70399022081F83D0095
:1036400003980068406801900398006880680090C3
:103650000398006842F60041C4F20101884209D093
:10366000FFE70398006843F20041C4F20101884279
:103670000AD1FFE7019820F4700001900298416898
:10368000019808430190FFE701984FF68F71CFF63C
:10369000FF51084001900298016801980843019089
:1036A00001980399096848600398006842F6004150
:1036B000C4F2010188422AD0FFE703980068B0F104
:1036C000804F24D0FFE70398006840F20041C4F225
:1036D000000188421BD0FFE70398006840F6000114
:1036E000C4F20001884212D0FFE70398006843F259
:1036F0000041C4F20101884209D0FFE70398006845
:1037000044F20001C4F2010188420ED1FFE70098A3
:1037100020F0800000900298816800980843009093
:103720000098039909688860FFE70399012081F8F0
:103730003D00FFE70399002081F83C00FFE70020EF
:103740008DF81300FFE79DF8130005B070470000E7
:1037500081B0009001B0704780B582B000900098B1
:1037600020B9FFE701208DF8070045E0009890F8A8
:103770003D0040B9FFE70099002081F83C00009827
:1037800000F03EF8FFE70099022081F83D00009923
:1037900051F8040B01F000FB0099012081F848006A
:1037A000FFE70099012081F83E00009981F83F0071
:1037B000009981F84000009981F84100009981F852
:1037C0004200009981F84300FFE7FFE700990120DC
:1037D00081F84400009981F84500009981F846007D
:1037E000009981F84700FFE70099012081F83D002A
:1037F00000208DF80700FFE79DF8070002B080BDAC
:1038000080B584B003900398006841F20001C4F2CF
:103810000001884219D1FFE7FFE741F25800C4F2E6
:103820000200016841F010010160006800F0100022
:1038300002900298FFE73620019000221146FEF721
:10384000A7FD0198FEF79AFDFFE704B080BD0000D8
:1038500083B00190019890F83D00012804D0FFE763
:1038600001208DF80B0060E00199022081F83D00F5
:1038700001980168C86840F00100C86001980068BC
:1038800042F60041C4F2010188422AD0FFE70198C4
:103890000068B0F1804F24D0FFE70198006840F243
:1038A0000041C4F2000188421BD0FFE70198006884
:1038B00040F60001C4F20001884212D0FFE70198EF
:1038C000006843F20041C4F20101884209D0FFE7D9
:1038D0000198006844F20001C4F20101884219D144
:1038E000FFE70198006880680721C0F201010840E5
:1038F0000090009806280CD0FFE70098B0F5803FB4
:1039000007D0FFE701980168086840F001000860EF
:10391000FFE706E001980168086840F001000860D0
:10392000FFE700208DF80B00FFE79DF80B0003B0C8
:103930007047000081B0009001B0704780B584B03E
:10394000039003980068C0680290039800680069BB
:1039500001909DF804008007002824D5FFE79DF81A
:103960000800800700281DD5FFE7039801686FF065
:1039700002000861039901200877039800688069B4
:10398000800720B1FFE70398FFF7D4FF06E0039814
:1039900000F054F9039800F055F9FFE7039900206F
:1039A0000877FFE7FFE79DF804004007002825D5CA
:1039B000FFE79DF80800400700281ED5FFE70398A1
:1039C00001686FF0040008610399022008770398EA
:1039D0000068806910F4407F04D0FFE70398FFF788
:1039E000A9FF06E0039800F029F9039800F02AF9EE
:1039F000FFE7039900200877FFE7FFE79DF8040041
:103A00000007002824D5FFE79DF8080000070028DC
:103A10001DD5FFE7039801686FF00800086103995E
:103A20000420087703980068C069800720B1FFE789
:103A30000398FFF77FFF06E0039800F0FFF8039874
:103A400000F000F9FFE7039900200877FFE7FFE7A0
:103A50009DF80400C006002825D5FFE79DF8080062
:103A6000C00600281ED5FFE7039801686FF010001C
:103A7000086103990820087703980068C06910F46A
:103A8000407F04D0FFE70398FFF754FF06E0039858
:103A900000F0D4F8039800F0D5F8FFE70399002070
:103AA0000877FFE7FFE79DF80400C00778B1FFE75C
:103AB0009DF80800C00748B1FFE7039801686FF060
:103AC00001000861039800F0C1F8FFE7FFE70198E3
:103AD00000F08000802806D0FFE79DF805008006F2
:103AE000002810D5FFE79DF808000006002809D53A
:103AF000FFE7039801686FF4025008610398FFF72D
:103B000073FDFFE7FFE79DF80500C00780B1FFE701
:103B10009DF808000006002809D5FFE70398016812
:103B20006FF4807008610398FFF75AFDFFE7FFE725
:103B30009DF804004006002810D5FFE79DF8080016
:103B40004006002809D5FFE7039801686FF04000A0
:103B50000861039800F0D0F8FFE7FFE79DF8040044
:103B60008006002810D5FFE79DF808008006002891
:103B700009D5FFE7039801686FF0200008610398FA
:103B8000FFF736FDFFE7FFE79DF80600C0060028B7
:103B900010D5FFE79DF80A00C006002809D5FFE709
:103BA000039801686FF4801008610398FFF728FDFF
:103BB000FFE7FFE79DF806008006002810D5FFE725
:103BC0009DF80A008006002809D5FFE703980168E0
:103BD0006FF4001008610398FFF70EFDFFE7FFE7A1
:103BE0009DF806004006002810D5FFE79DF80A0062
:103BF0004006002809D5FFE7039801686FF48000AC
:103C000008610398FFF700FDFFE7FFE79DF8060056
:103C10000006002810D5FFE79DF80A0000060028DE
:103C200009D5FFE7039801686FF400000861039865
:103C3000FFF78EFDFFE7FFE704B080BD81B0009085
:103C400001B0704781B0009001B0704780B582B07C
:103C500001900198006841F20001C4F2000188421D
:103C600047D1FFE740F2E012C2F200021078411C97
:103C7000C8B21170C8283BD1FFE740F2E011C2F290
:103C800000010020087040F2E210C2F2000000784B
:103C900090B9FFE740F20800C2F20000017801206D
:103CA00000FA01F240F2E311C2F20001087850403C
:103CB000087001F05BFE1AE040F2E210C2F2000070
:103CC0000078022812D1FFE740F20800C2F200009B
:103CD0004178012000FA01F240F2E311C2F2000142
:103CE00008785040087001F041FEFFE7FFE7FFE76A
:103CF000FFE702B080BD000081B0009001B07047C6
:103D0000FFE7FEE780B586B00020059004900390A1
:103D1000029001904FF6FF710191029003210491EE
:103D2000039040F60000C4F6000001A9FEF7AEF8CB
:103D300006B080BD80B586B0002005900490039049
:103D4000029001904FF6FF71019101210291032130
:103D50000491039040F60000C4F6000001A9FEF7AC
:103D600095F806B080BD000080B584B0ADF80E00B7
:103D7000002101910291084600F0B0F900F002FA2A
:103D800001980290FFE70298800A4A2809D8FFE7C5
:103D9000BDF80E0000F0C0F9FFE702980130029074
:103DA000F1E704B080BD000080B58CB000200B901E
:103DB0000A90099008900790FFE741F24C00C4F286
:103DC0000200016841F004010160006800F0040095
:103DD00006900698FFE7FFE741F24C00C4F20200AC
:103DE000016841F001010160006800F001000590E8
:103DF0000598FFE7FFE741F24C00C4F202000168BA
:103E000041F002010160006800F002000490049893
:103E1000FFE74FF4487007900120009008900320BE
:103E200001900A9000200290099040F20040C4F6F0
:103E3000000007A90391FEF729F8009B019A029858
:103E400003994FF4807CCDF81CC008930A92099026
:103E50004FF09040FEF71AF8FFF76CFF1821C4F6F8
:103E60000001086840F48070086040F21841C4F610
:103E70000001086840F4087008600CB080BD0000C4
:103E800080B582B08DF80700ADF804108DF80320DE
:103E90009DF8030020388DF803009DF80700BDF859
:103EA00004109DF8032002EB420346F2B032C0F644
:103EB000000202EB031200F037F802B080BD0000F0
:103EC00080B586B08DF8170004910020039040F271
:103ED0003F10ADF80A00FFE7049801780020019038
:103EE00039B1FFE703990020142938BF0120019060
:103EF000FFE70198C007A0B1FFE79DF81700BDF8E4
:103F00000A10049A1278FFF7BBFFBDF80A001038B8
:103F1000ADF80A0004980130049003980130039032
:103F2000DAE706B080BD000080B586B08DF81700D6
:103F3000ADF81410049200200090039002908DF8C8
:103F400007009DF817008DF807009DF80700BDF8E1
:103F5000141000F0C3F800980390FFE703981728A7
:103F600037D8FFE700F00EF900200290FFE7029833
:103F70000F281ED8FFE70498039930F81100029922
:103F8000C840C00740B9FFE740F20000C2F200009D
:103F9000008800F0C1F807E040F24000C2F20000E3
:103FA000008800F0B9F8FFE7FFE7029801300290BF
:103FB000DDE79DF8070001308DF807009DF8070048
:103FC000BDF8141000F08AF8FFE703980130039061
:103FD000C4E706B080BD000080B5FFF7E5FE002015
:103FE00000F01CF8014640F2C000C2F2000001805F
:103FF000008848F23021884203D1FFE700F09EFCA0
:1040000002E000F02BFDFFE7002000F007F840F28F
:10401000C001C2F20001088080BD000080B582B0FE
:104020008DF8070040F22842C4F60002106840F400
:1040300000701060106840F48070106040F2184109
:10404000C4F600010091086840F0200008609DF867
:10405000070040F61403C4F600031860106840F02F
:104060002000106000BF00BF00BF086840F02000C3
:104070000860086840F480700860FFF743FE28215C
:10408000C4F60001086840F48070086000BF00BFFB
:1040900000BF40F61000C4F600000068ADF8040050
:1040A0001821C4F60001086840F480700860FFF72A
:1040B00041FE0099086840F400700860BDF80400F3
:1040C00002B080BD81B0ADF80200BDF8020040F240
:1040D0000001C2F20001088001B0704780B582B0D3
:1040E0008DF80700ADF804109DF80710202000F0AF
:1040F0007BF8BDF80410212000F076F802B080BDF6
:1041000081B0ADF80200BDF8020040F24001C2F2F9
:104110000001088001B0704781B0ADF8020040F2A4
:104120002842C4F60002106840F40070106040F2AB
:104130001841C4F60001086840F4807008600868FF
:1041400040F020000860BDF8020040F61403C4F6F9
:1041500000031860106840F02000106000BF00BF2E
:1041600000BF086840F020000860086840F48070D4
:10417000086000BF00BF00BF086840F4007008601E
:1041800001B0704740F22842C4F60002106840F4C3
:1041900000701060106840F48070106040F21841A8
:1041A000C4F60001086840F02000086040F61403DF
:1041B000C4F6000322201860106840F02000106050
:1041C00000BF00BF00BF086840F02000086008681A
:1041D00040F48070086000BF00BF00BF086840F472
:1041E000007008607047000081B08DF80300ADF8E2
:1041F000001040F22842C4F60002106840F400703B
:104200001060106840F48070106040F21841C4F6ED
:104210000001086840F0200008609DF8030040F6A7
:104220001403C4F600031860106840F0200010600A
:1042300000BF00BF00BF086840F0200008600868A9
:1042400040F480700860BDF800001860106840F00D
:104250002000106000BF00BF00BF086840F02000D1
:104260000860086840F48070086001B07047000082
:1042700081B00090009880684FF6C071C7F6FF715A
:10428000084002300099886001B0704781B000900A
:10429000009988684FF6C072C5F6FF7210408860BA
:1042A00001B0704781B00090009880684FF6C071EF
:1042B000C7F6FF71084001300099886001B070476F
:1042C00081B000900098806840F080504FF6C07137
:1042D000C7F6FF7108400099886001B07047000080
:1042E00081B000900098806800F0E07001B07047E5
:1042F00081B000900098806800F01F0001B0704706
:1043000083B0029001910298019900EB8100603026
:1043100000900098006800F0F84003B0704700007B
:1043200081B0009000988068C0F3C00001B0704771
:1043300081B0009000988068C00F01B07047000005
:1043400081B0009000988068C0F3407001B0704761
:1043500081B0009000988068C0F3400001B07047C1
:1043600081B000900098806800F0010001B07047B3
:1043700081B0009000988068C0F3007001B0704771
:1043800081B0009000988068C0F3800001B0704751
:1043900081B000900098C06800F44060B0FA80F0EE
:1043A000400901B07047000084B00390029101926F
:1043B0000398029901F4407100EB911030300090A5
:1043C00000980068029901F01F021F219140884364
:1043D0000199C1F38461914008430099086004B0D9
:1043E0007047000081B00090009880684FF6C0715F
:1043F000C7F6FF71084004300099886001B070472B
:1044000084B00390029101920398029901F0007127
:1044100000EBD15014300090009800680299C1F36D
:104420000452072191408843019991400843009923
:10443000086004B07047000083B0029001910092C0
:104440000298D0F8B00001996FF3DF418843009AD9
:1044500002F018034FF6FF72C0F20702DA40114073
:1044600008440299C1F8B00003B0704782B00190CF
:1044700000910198806820F47C100099084301990C
:10448000886002B07047000082B0019000910198EE
:10449000806820F0E070009908430199886002B0BC
:1044A0007047000085B00490039102920193049834
:1044B000039900EB810060300090009800684FF293
:1044C0000001C0F2FF310140029800F0F840019A6B
:1044D0001043084340F000400099086005B0704761
:1044E00084B00390029101920398029900EB81003D
:1044F000603000900098006820F000700199084337
:104500000099086004B0704784B003900291019252
:104510000398029900EB81006030009000980068D9
:1045200020F08070019908430099086004B070473A
:1045300084B00390029101920398029900EB8100EC
:10454000603000900098006820F000400199084316
:104550000099086004B0704782B001900091019802
:10456000406920F00040009908430199486102B079
:104570007047000082B001900091019880684FF66A
:10458000C071C3F6FF710140009800F080400844FC
:1045900000F100400199886002B0704780B58AB090
:1045A00000210091099108910791069105910491CC
:1045B0000391029140F2C400C2F20000019040F267
:1045C0000012C5F2000202604FF440324260816086
:1045D000C160016141610422826101770122427759
:1045E000026280F82410C162016380F83820C16340
:1045F00080F84010FCF78AFF18B1FFE7FCF70EFBCC
:10460000FFE748F20000C3F6F06002900620039036
:10461000002004907F21059104210691079040F22B
:10462000C400C2F2000002A9FCF770FB18B1FFE75A
:10463000FCF7F4FAFFE70AB080BD000080B584B053
:10464000FFE741F24800C4F20200016841F00401B2
:104650000160006800F0040003900398FFE7FFE7A3
:1046600041F24800C4F20200016841F0010101601A
:10467000006800F0010002900298FFE70B20019013
:1046800000221146FDF784FE0198FDF777FE04B085
:1046900080BD000080B592B00020119010900F9066
:1046A0000E900D90FFE741F24C00C4F20200016849
:1046B00041F004010160006800F004000C900C98C7
:1046C000FFE7FFE741F24C00C4F20200016841F04D
:1046D00020010160006800F020000B900B98FFE7BC
:1046E000FFE741F24C00C4F20200016841F0010111
:1046F0000160006800F001000A900A98FFE7FFE7F8
:1047000041F24C00C4F20200016841F00201016074
:10471000006800F0020009900998FFE7FFE741F206
:104720004C00C4F20200016841F008010160006819
:1047300000F0080008900898FFE740F60000C4F673
:10474000000002904FF6FF71019100220592FDF7E3
:1047500069FD059A40F60040C4F600000690042169
:104760000391FDF75FFD019A029805990D920122D0
:1047700004920E920F9110910DA90791FDF786FBFF
:10478000049A059807990D920E900F904FF0904063
:10479000FDF77CFB0598079907220D920E900F906C
:1047A00040F20040C4F60000FDF770FBDDF80CC0DD
:1047B000049B059A06980799CDF834C00E930F9282
:1047C0001092FDF763FB12B080BD000080B584B08D
:1047D000002103910291019140F29010C2F2000079
:1047E00041F20002C4F20002026040F28F12426005
:1047F0008160C722C2608161FEF7AEFF18B1FFE79A
:10480000FCF70CFAFFE700200190039040F29010B3
:10481000C2F2000001A9FEF7FBFE18B1FFE7FCF7AA
:10482000FDF9FFE704B080BDFFE7FEE7FFE7FEE725
:1048300088B0079006910592079800F00700049051
:104840000498C0F10700052803D3FFE70420019076
:1048500004E00498C0F107000190FFE7019803907D
:1048600004980430062803D8FFE70020009003E0F6
:10487000049803380090FFE7009802900698039987
:10488000012202FA01F101390840029B9840059982
:104890009A40013A1140084308B070477047000041
:1048A00086B041F20C00C4F20200016801F003017D
:1048B00004910068C1B2012000EB1110029004982D
:1048C0000090022815D0FFE70098032812D1FFE7D7
:1048D000029943F20060C0F26E10B0FBF1F041F2B9
:1048E0000C01C4F202010968C1F306214843059096
:1048F00011E0FFE7029942F20040C0F2F400B0FB81
:10490000F1F041F20C01C4F202010968C1F3062181
:1049100048430590FFE741F20C00C4F20200006832
:1049200000F0C061022000EB11600390059803992C
:10493000B0FBF1F00190019806B0704780B586B0E9
:104940000020009001210191FFF74EFC4FF47A7096
:10495000FCF73AF900990198FFF746FC102041F264
:104960009071FFF741FC60204FF41C51FFF73CFCB5
:1049700001996120FFF738FC462002210291FFF7E0
:1049800033FC132048F21001FFF72EFC122048F2EE
:10499000FE01FFF729FC02984FF4A061FFF724FC09
:1049A0000320059041F23001FFF71EFC302040F259
:1049B00003310491FFF718FC04993120FFF714FC30
:1049C00004993220FFF710FC33204FF4407103911B
:1049D000FFF70AFC05993420FFF706FC04993520FF
:1049E000FFF702FC36201421FFF7FEFB0499372065
:1049F000FFF7FAFB04993820FFF7F6FB04993920FA
:104A0000FFF7F2FB03993A20FFF7EEFB05993B20F5
:104A1000FFF7EAFB04993C20FFF7E6FB3D204FF44B
:104A2000A051FFF7E1FB92204FF40071FFF7DCFB90
:104A300004999320FFF7D8FB902040F60D01FFF773
:104A4000D3FB059841F21801FFF7CEFB072040F297
:104A50007311FFF7C9FB06B080BD000080B58CB0B4
:104A6000E32043F20801FFF7BFFBE7201221019189
:104A7000FFF7BAFBEF20069041F23121FFF7B4FBBC
:104A80000120079000210991FFF7AEFB02204FF4AF
:104A9000E061FFF7A9FB03200A9041F23001FFF724
:104AA000A3FB099904200490FFF79EFB082040F225
:104AB0000721FFF799FB09990920FFF795FB099951
:104AC0000A20FFF791FB09990C20FFF78DFB09994C
:104AD0000D20FFF789FB09990F200590FFF784FB54
:104AE000099910200890FFF77FFB11200090072103
:104AF0000B91FFF779FB01980999FFF775FB09996D
:104B000013200290FFF770FBC820FDF79DF908986D
:104B100041F29061FFF768FB009840F22721FFF710
:104B200063FB32200390FDF78FF901981D21FFF7F9
:104B30005BFB0398FDF788F902984FF40061FFF7DB
:104B400053FB29201421FFF74FFB2B200B21FFF7EC
:104B50004BFB0398FDF778F909992020FFF744FBF8
:104B600009992120FFF740FB0B993020FFF73CFB10
:104B7000312040F20771FFF737FB03980621FFF75A
:104B800033FB352040F20471FFF72EFB362041F64F
:104B90000471FFF729FB04993720FFF725FB0999DA
:104BA0003820FFF721FB392040F20671FFF71CFB8C
:104BB0003C2040F20171FFF717FB05993D20FFF7FC
:104BC00013FB09995020FFF70FFB06995120FFF7BF
:104BD0000BFB09995220FFF707FB532040F23F11CE
:104BE000FFF702FB60204FF41C51FFF7FDFA079915
:104BF0006120FFF7F9FA09996A20FFF7F5FA099998
:104C00008020FFF7F1FA09998120FFF7EDFA099961
:104C10008220FFF7E9FA09998320FFF7E5FA09995D
:104C20008420FFF7E1FA09998520FFF7DDFA08995A
:104C30009020FFF7D9FA09999220FFF7D5FA0A993F
:104C40009320FFF7D1FA95204FF48871FFF7CCFA43
:104C500009999720FFF7C8FA09999820FFF7C4FA35
:104C60000A9841F21801FFF7BFFA0B9840F273114E
:104C7000FFF7BAFA0CB080BD7047000080B582B073
:104C8000009000980138B0F1807F03D3FFE7012046
:104C9000019019E0009801384EF21401CEF20001A3
:104CA00008604FF0FF300F2100F064F94EF2180158
:104CB000CEF20001002008604EF21002CEF2000297
:104CC000072111600190FFE7019802B080BD00004C
:104CD00080B5FDF7C3FA80BD80B5A6B018A80190D5
:104CE0003821FBF79CFA002017901690159014902D
:104CF000139002A84421FBF792FA4FF40070FDF7DD
:104D000067FB0198012118914FF48031199102211C
:104D10001F91032220922192142222922391249106
:104D20002591FEF779F818B1FFE7FBF777FFFFE76A
:104D30000F201390032014900020159016901790C8
:104D400013A80221FDF756FE18B1FFE7FBF766FF37
:104D5000FFE74FF4004002904FF00050119002A87E
:104D6000FDF71AFC18B1FFE7FBF758FFFFE726B085
:104D700080BD00004EF68851CEF20001086840F474
:104D8000700008607047000080B540F29010C2F2D9
:104D90000000FEF7D3FD80BD83B002900191029820
:104DA00000680090029842F60041C4F20101884276
:104DB0001DD0FFE70298B0F1804F18D0FFE70298AE
:104DC00040F20041C4F20001884210D0FFE702988F
:104DD00040F60001C4F20001884208D0FFE70298C3
:104DE00043F20041C4F2010188420AD1FFE7009872
:104DF00020F07000009001984168009808430090EE
:104E0000FFE7029842F60041C4F20101884235D022
:104E1000FFE70298B0F1804F30D0FFE7029840F2F0
:104E20000041C4F20001884228D0FFE7029840F612
:104E30000001C4F20001884220D0FFE7029843F24B
:104E40000041C4F20101884218D0FFE7029844F201
:104E50000001C4F20101884210D0FFE7029844F239
:104E60000041C4F20101884208D0FFE7029844F6ED
:104E70000001C4F2010188420AD1FFE7009820F442
:104E8000407000900198C168009808430090FFE7C7
:104E9000009820F08000019949690843009000982B
:104EA00002990860019880680299C86201980068B8
:104EB00002998862029842F60041C4F201018842D8
:104EC00020D0FFE7029843F20041C4F2010188427A
:104ED00018D0FFE7029844F20001C4F201018842B1
:104EE00010D0FFE7029844F20041C4F20101884269
:104EF00008D0FFE7029844F60001C4F2010188429D
:104F000005D1FFE70198006902990863FFE702995C
:104F10000120486102980069C00730B1FFE702999B
:104F2000086920F001000861FFE703B07047000046
:104F3000FFE7FEE781B08DF803009DF9030000282C
:104F40000ED4FFE79DF9031001F01F0201209040ED
:104F50004A094EF20011CEF2000141F82200FFE7AB
:104F600001B070474EF60C50CEF200000068C0F35E
:104F70000220704782B08DF8070000919DF907006C
:104F800000280AD4FFE7009800019DF907104EF2AF
:104F90000042CEF2000288540BE0009800019DF818
:104FA000071001F00F014EF61452CEF200028854A1
:104FB000FFE702B07047000083B00290029800F053
:104FC000070000904EF60C51CEF2000108680190E7
:104FD00001984FF6FF02104001900198009A40EAB4
:104FE00002200022C0F2FA5210430190019808609A
:104FF00003B0704780B582B040F2C400C2F2000036
:1050000001907F21FBF712FE019840F24401C2F2A9
:1050100000011E22FCF774FC02B080BD80B582B096
:10502000002001900090FFE700981D2816DCFFE7A4
:10503000009940F24400C2F2000000EB810090EDC4
:10504000000AB8EE401A9DED010A30EE010A8DED1E
:10505000010AFFE7009803300090E5E79DED010AA3
:105060009FED581A20EE010A9FED571A80EE010AB3
:1050700040F2BC00C2F2000080ED000A90ED000A90
:1050800040F23000C2F2000090ED001AB4EE410A86
:10509000F1EE10FA21DDFFE740F2E210C2F200006B
:1050A0000078D0B1FFE740F2E211C2F20001002027
:1050B000087040F2E011C2F20001087040F20800EE
:1050C000C2F2000001780120884040F2E311C2F2F0
:1050D0000001087000F04AFC71E040F2BC00C2F22E
:1050E000000090ED000A40F23000C2F2000090EDA6
:1050F000011AB4EE410AF1EE10FA23DAFFE740F2AA
:10510000E210C2F20000007802281BD0FFE740F254
:10511000E211C2F200010220087040F2E011C2F276
:1051200000010020087040F20800C2F2000041783F
:105130000120884040F2E311C2F20001087000F043
:1051400015FC3BE040F2BC00C2F2000090ED000A0A
:1051500040F23000C2F2000090ED001AB4EE410AB5
:10516000F1EE10FA29DCFFE740F2BC00C2F20000C9
:1051700090ED000A40F23000C2F2000090ED011AFA
:10518000B4EE410AF1EE10FA17DBFFE740F2E2104D
:10519000C2F20000007801280FD0FFE740F2E211D0
:1051A000C2F200010120087040F2E311C2F20001D6
:1051B0000020087000F0DAFBFFE7FFE7FFE702B02E
:1051C00080BD00BF333353400000204780B584B01A
:1051D00040F2DE11C2F200010020087040F20040EF
:1051E000C4F600000121FDF705F838B9FFE740F2E9
:1051F000DE11C2F2000101200870FFE740F200401A
:10520000C4F600000221FCF7F5FF38B9FFE740F2D1
:10521000DE11C2F2000102200870FFE740F20040F8
:10522000C4F600000421FCF7E5FF38B9FFE740F2BF
:10523000DE11C2F2000103200870FFE74FF090403A
:105240000121FCF7D7FF38B9FFE740F2DE11C2F2C7
:10525000000104200870FFE740F2DE11C2F20001F5
:10526000087840F2DD12C2F2000213784340034096
:1052700040F2DC10C2F2000003700978117000786F
:10528000012809D1FFE740F2DF11C2F200010878DE
:1052900080F001000870FFE740F2DF10C2F200006A
:1052A0000078012840F0AB81FFE740F2DC10C2F249
:1052B0000000007801460391022809D0FFE7039817
:1052C000032818D0FFE70398042800F0AB8094E18E
:1052D00040F2E112C2F200021078411CC8B2117013
:1052E000042807D1FFE740F2E111C2F200010020DB
:1052F0000870FFE782E140F2E110C2F2000000789E
:1053000001460291032800F28B800299DFE801F048
:105310000222466740F23000C2F2000090ED000A1F
:105320009FEDBB1A30EE010A9FEDBA1AB4EE410AA6
:10533000F1EE10FA0DDAFFE740F23000C2F20000A1
:1053400090ED000A9FEDB21A30EE010A80ED000ADE
:10535000FFE766E040F23000C2F2000090ED001A74
:1053600090ED010A9FEDAA2A30EE020A9FEDA62ACF
:1053700031EE021AB4EE410AF1EE10FA0DDAFFE74F
:1053800040F23000C2F2000090ED010A9FEDA01A39
:1053900030EE010A80ED010AFFE742E040F2080129
:1053A000C2F200010878013000F0070008700878A8
:1053B000497888420AD1FFE740F20801C2F20001B1
:1053C0000878013000F007000870FFE740F2E311B1
:1053D000C2F200010020087000F0C8FA21E040F29B
:1053E0000801C2F200014878013000F0070048705F
:1053F0000878497888420AD1FFE740F20801C2F2F2
:1054000000014878013000F007004870FFE740F2E3
:10541000E311C2F200010020087000F0A7FA00E0DA
:10542000FFE7EBE040F2E110C2F200000078014635
:105430000191032800F2DF800199DFE801F00226E4
:10544000469140F23000C2F2000090ED000A90ED6B
:10545000011A9FED6C2A30EE020A9FED6C2A31EEA4
:10546000021AB4EE410AF1EE10FA0DDDFFE740F248
:105470003000C2F2000090ED000A9FED621A30EE9B
:10548000010A80ED000AFFE7B6E040F23000C2F208
:10549000000090ED010A9FED5B1A30EE010A9FEDCE
:1054A0005A1AB4EE410AF1EE10FA0DDDFFE740F2B0
:1054B0003000C2F2000090ED010A9FED521A30EE6A
:1054C000010A80ED010AFFE796E040F20800C2F20F
:1054D00000000078B8B9FFE740F20800C2F200000F
:1054E0004078072807D1FFE740F20801C2F2000127
:1054F0000620087006E040F20801C2F20001072011
:105500000870FFE723E040F20801C2F200010878CA
:105510000138087008784978884217D1FFE740F2CF
:105520000800C2F20000007838B9FFE740F2080135
:10553000C2F200010720087007E040F20801C2F241
:105540000001087801380870FFE7FFE7FFE740F245
:10555000E311C2F200010020087000F007FA4BE0EE
:1055600040F20800C2F200004078B8B9FFE740F20C
:105570000800C2F200000078072807D1FFE740F2D8
:105580000801C2F200010620487006E040F208015E
:10559000C2F2000107204870FFE723E040F2080153
:1055A000C2F200014878013848700878497888428A
:1055B00017D1FFE740F20800C2F20000407838B986
:1055C000FFE740F20801C2F200010720487007E03F
:1055D00040F20801C2F20001487801384870FFE744
:1055E000FFE7FFE740F2E311C2F20001002008707C
:1055F00000F0BCF900E0FFE700E0FFE7FFE704B0E0
:1056000080BD00BF9A9999BE0AD723BC0AD7233C14
:105610009A99993E0AD7534082B080B58CB00F93C7
:105620000E928DF82F000A910EA801900A99019A06
:105630000DF10A00009000F033FA00999DF82F0058
:10564000FEF73EFC0CB0BDE8804002B070470000A1
:1056500080B582B0FEF7C0FC00200190FEF784FB0D
:105660000198FEF72FFD4FF6FF70FEF749FD02B0DF
:1056700080BD000080B58CB040F2DF10C2F20000A7
:105680000078002850D1FFE747F2DD51C0F6000155
:105690001820FFF7C1FF40F2BC00C2F20000006812
:1056A000FAF7C8FD41EC100B53EC102B47F2C85130
:1056B000C0F600014820FFF7AFFF40F2E210C2F24F
:1056C0000000007801460B9140B1FFE70B980128DC
:1056D0000CD0FFE70B98022810D017E047F2EE51EC
:1056E000C0F600016020FFF797FF10E047F2486125
:1056F000C0F600016020FFF78FFF08E047F2046169
:10570000C0F600016020FFF787FF00E0FFE747F2E7
:105710008051C0F600010A917820FFF77DFF0A99B9
:105720009020FFF779FF1FE147F25E61C0F60001AC
:105730001820FFF771FF40F2E110C2F2000000787C
:1057400001460991032800F20D810999DFE801F073
:10575000024486C84FF4FC60FEF7B4FC40F230000F
:10576000C2F2000007900068FAF764FD41EC100BEC
:1057700053EC102B47F23161C0F600014820FFF7CF
:105780004BFF0020FEF79EFC07984068FAF752FD99
:1057900041EC100B53EC102B47F21A61C0F60001DC
:1057A0006020FFF739FF40F20800C2F200000890C5
:1057B0000078421C47F29A51C0F600017820FFF7AA
:1057C0002BFF08984078421C47F2B151C0F6000107
:1057D0009020FFF721FFC6E040F23000C2F2000047
:1057E00005900068FAF726FD41EC100B53EC102BE6
:1057F00047F23161C0F600014820FFF70DFF4FF47A
:10580000FC60FEF75FFC05984068FAF713FD41EC79
:10581000100B53EC102B47F21A61C0F60001602008
:10582000FFF7FAFE0020FEF74DFC40F20800C2F23E
:10583000000006900078421C47F29A51C0F6000121
:105840007820FFF7E9FE06984078421C47F2B151F4
:10585000C0F600019020FFF7DFFE84E040F2300048
:10586000C2F2000003900068FAF7E4FC41EC100B70
:1058700053EC102B47F23161C0F600014820FFF7CE
:10588000CBFE03984068FAF7D5FC41EC100B53ECC3
:10589000102B47F21A61C0F600016020FFF7BCFE32
:1058A0004FF4FC60FEF70EFC40F20800C2F200006C
:1058B00004900078421C47F29A51C0F6000178200B
:1058C000FFF7AAFE0020FEF7FDFB04984078421C7B
:1058D00047F2B151C0F600019020FFF79DFE42E073
:1058E00040F23000C2F2000001900068FAF7A2FC1A
:1058F00041EC100B53EC102B47F23161C0F6000164
:105900004820FFF789FE01984068FAF793FC41ECC4
:10591000100B53EC102B47F21A61C0F60001602007
:10592000FFF77AFE40F20800C2F200000290007811
:10593000421C47F29A51C0F600017820FFF76CFE36
:105940004FF4FC60FEF7BEFB02984078421C47F221
:10595000B151C0F600019020FFF75EFE0020FEF777
:10596000B1FB00E0FFE7FFE70CB080BD80B586B07B
:1059700040F60000C4F6000001904FF47F41012280
:105980000292FCF74FFC019840F2E311C2F20001D1
:105990000978090200220592FCF744FC029A40F6BD
:1059A0000040C4F60000039004210491FCF73AFC87
:1059B00003980499059AFCF735FC06B080BD0000F9
:1059C00080B582B000200190FCF756FCFFF784F907
:1059D000FEF760FEFEF732FEFEF7E0FDFEF7F6FE94
:1059E000FFF708FBFFF734FEFFF7C0FF00F04CF8AD
:1059F000FFE700F001F8FCE780B582B000208DF8E9
:105A00000700FFE79DF8070040F20A01C2F200011B
:105A10000978884236DAFFE740F2E410C2F200006B
:105A200000689DF8071001EB410240F20C01C2F240
:105A3000000101EB82014A688968114488421AD347
:105A4000FFE79DF8070000EB400140F20C00C2F2B6
:105A50000000009050F821008047009940F2E410C7
:105A6000C2F2000000689DF8072002EB420201EB41
:105A700082018860FFE7FFE79DF8070001308DF89D
:105A80000700BFE702B080BD80B540F29010C2F2BF
:105A9000000002686FF001011161FDF7D9FE80BDC1
:105AA00037B514460846064B6A46214600F0DCF836
:105AB00004466946002000F06EFC20463EBD000012
:105AC0009763000802E008C8121F08C1002AFAD133
:105AD00070477047002001E001C1121F002AFBD16E
