:020000040800F2
:1000000040050020ED01000819350008DD2E00082C
:1000100015350008810700081D4500080000000094
:10002000000000000000000000000000653900082A
:10003000450800080000000089350008BD390008A7
:10004000070200080702000807020008070200086C
:10005000070200080702000807020008070200085C
:1000600007020008070200080702000885070008C9
:10007000070200080702000807020008070200083C
:10008000070200080000000007020008070200083D
:10009000070200080702000807020008070200081C
:1000A000070200080702000807020008070200080C
:1000B00007020008070200080702000807020008FC
:1000C00007020008070200080702000807020008EC
:1000D000070200080D450008070200080702000893
:1000E00007020008070200080702000807020008CC
:1000F00007020008070200080702000800000000CD
:1001000000000000070200080000000007020008CD
:1001100007020008000000000702000807020008AC
:10012000070200080702000807020008070200088B
:10013000070200080000000000000000070200089D
:10014000070200080702000800000000000000008D
:10015000000000000000000000000000000000009F
:10016000000000000000000000000000070200087E
:10017000070200080000000000000000000000006E
:10018000000000000702000800000000000000005E
:10019000000000000000000000000000000000005F
:1001A000000000000000000007020008070200082D
:1001B000070200080702000807020008000000000C
:1001C000000000000702000800000000000000001E
:1001D0000702000807020008DFF80CD000F048FA18
:1001E000004800479D480008400500200648804719
:1001F00006480047FEE7FEE7FEE7FEE7FEE7FEE70C
:10020000FEE7FEE7FEE7FEE75D3A0008D9010008D9
:100210002DE9F05F0546002092469B46884606463B
:10022000814640241BE0284641464746224600F0CE
:1002300057F853465A46C01A914110D311461846F2
:10024000224600F03EF82D1A67EB01084F46224681
:100250000120002100F035F817EB00094E41201E67
:10026000A4F10104DFDC484631462A464346BDE896
:10027000F09FD2B201E000F8012B491EFBD270477B
:100280000022F6E710B513460A4604461946FFF762
:10029000F0FF204610BD30B50B460146002020225D
:1002A000012409E021FA02F59D4205D303FA02F583
:1002B000491B04FA02F52844151EA2F10102F1DCE3
:1002C00030BD202A04DB203A00FA02F100207047FA
:1002D0009140C2F1200320FA03F319439040704784
:1002E000202A04DB203A21FA02F00021704721FA8B
:1002F00002F3D040C2F120029140084319467047F2
:100300002DE9FE4F804681EA0300C00F0C460090A5
:1003100021F0004123F00045B8EB0200A94105D2CD
:100320004046214690461C460B46024623F00040BC
:10033000104347D0270DC7F30A00C3F30A510290B8
:10034000401A019040286BDAC3F3130040F4801B7D
:100350000098924620B10023D2EB030A63EB0B0B0B
:1003600001985946C0F140025046FFF7AAFF0646E1
:100370000D4650465946019A00F092F910EB0800DC
:100380006141002487EA115284EAE7731A4340D09E
:10039000009A62B3019A012A4FEA075215DC001B4A
:1003A00061EB02014FF0004202EA0752CDE9004240
:1003B000001C41F5801132462B4600F092F903B043
:1003C000BDE8F08F40462146F9E7001B61EB0201D2
:1003D000001C41F5801300185B412018A2F500179E
:1003E00047EB030140EAD570B6196D4111E06D0885
:1003F0004FEA360645EAC0754FEA0752001B61EB2B
:100400000201001C41F5801149084FEA3000001933
:10041000514132462B4603B0BDE8F04F00F052B9CF
:100420000098012240000023D0EB020263EBE0734E
:10043000009821464FEAE074B8EB000061EB04013C
:10044000E9E783F000435BE781F0004158E72DE9DD
:10045000FE4F81EA030404F0004421F000410094BF
:100460004FF0000B23F0004350EA01045ED052EA43
:1004700003045BD0C3F30A54C1F30A552C44A4F21D
:10048000F3340194A0FB0254C1F3130141F4801131
:10049000C3F3130343F4801301FB024400FB034E38
:1004A000840A970A44EA815447EA8357A4FB076801
:1004B00002958D0A05FB07854FEA932C04FB0C542B
:1004C0002705029D4FEA065847EA1637B5EB08059F
:1004D0006EEB070C870E920E47EA811742EA8312F1
:1004E000A7FB0201B6EB0B0164EB00042B0D43EA02
:1004F0000C335E1844EB1C50DA465146E7FB020110
:10050000C5F313044FEA0B3343EA14534FEA0432A2
:10051000019C43EA0603A4F10C040294009CCDE97B
:1005200000B400F0DEF803B0BDE8F08F0020014613
:10053000F9E72DE9F04D81EA030404F0004B21F0C6
:10054000004514464FF0000A23F0004150EA05022E
:1005500020D054EA01021DD0C5F30A570246C5F364
:100560001303C1F31300C1F30A5640F4801543F49A
:100570008013A7EB0608101BD64608F2FD3873EB74
:10058000050002D308F1010801E092185B41B8F1BF
:10059000000F03DA00200146BDE8F08D00204FF483
:1005A0008011064684460EE0171B73EB050705D342
:1005B000121B63EB050306434CEA010C49084FEAA2
:1005C000300092185B4150EA0107EDD152EA030076
:1005D00012D082EA040083EA0501084305D0101B0B
:1005E000AB4106D20122002306E000224FF0004377
:1005F00002E06FF0010253101AEB06004CEB0851B9
:1006000010EB0A0041EB0B01BDE8F04D00F05AB8C9
:10061000C1F30A52C1F3130140F2FF3341F48011D8
:100620009A4202DA00200146704740F233439A4270
:10063000A2F2334202DC5242FFF752BEFFF741BE44
:1006400030B5041E71F1000404DB4FF00044404259
:1006500064EB0101141E73F1000405DB1C464FF02E
:100660000043524263EB0403994208BF904230BDFD
:100670001CB509480090094801900546009C06E019
:10068000E06840F0010394E8070098471034AC425A
:10069000F6D3FFF7A5FD0000B8520008D8520008B5
:1006A000202A06DBCB17203A41FA02F043EAE07336
:1006B00006E041FA02F3D040C2F120029140084323
:1006C0001946704710B5141E73F1000408DA401C77
:1006D00041F1000192185B411A4301D120F0010061
:1006E00010BD2DE9F04D92469B4611B1B1FA81F251
:1006F00002E0B0FA80F220329046FFF7E2FD0446B5
:100700000F4640EA0A0041EA0B0153465A460843A5
:1007100013D0114653EA010019D0C8F140025046E7
:10072000FFF7DEFD05460E46504659464246FFF7A6
:10073000C8FD084305D0012004E020463946BDE845
:10074000F08D0020054346EAE0762C4337430A98B3
:100750006305E40AA0EB08000022FD0A44EA4754BE
:100760000A3002D500200146E9E701051019694168
:10077000DDE9084500196941BDE8F04DA2E7000038
:10078000FFE7FEE780B540F23400C2F2000000F05F
:100790003DF980BD84B003900398006840F20741A2
:1007A000C4F20201884206D8FFE740F60000C4F216
:1007B0000200009005E040F62000C4F20200009024
:1007C000FFE7009802900398007808384CF6CD4176
:1007D000CCF6CC41A0FB01100009019002980399CE
:1007E0004A6C22F0030210448864039940F68000AA
:1007F000C4F20200C864019800F01F010120884083
:100800000399086504B0704782B00190019800799F
:100810000090009940F6FC00C4F2020000EB810059
:1008200001994865019940F64010C4F202008865BC
:100830000098013800F01F01012088400199C86527
:1008400002B070477047000082B0ADF8060000208B
:10085000ADF80400FFE7BDF80400BDF806108842BB
:1008600019DAFFE70020ADF80200FFE7BDF802004B
:1008700040F6B731884207DCFFE7FFE7BDF802002A
:100880000130ADF80200F1E7FFE7BDF804000130E8
:10089000ADF80400DFE702B07047000081B0EFF36D
:1008A000108072B60090FFE7FEE7000082B0019072
:1008B00000208DF80300019890F82500022807D049
:1008C000FFE701990420C86301208DF803002DE0A3
:1008D00001980168086820F00E0008600198816C9A
:1008E000086820F48070086001980168086820F0AA
:1008F000010008600198016C406C00F01F020120AB
:10090000904048600198C16C006D48600198406D4E
:1009100058B1FFE70198416D086820F480700860C5
:100920000198816DC06D4860FFE7FFE701990120E4
:1009300081F82500FFE70199002081F82400FFE7F6
:100940009DF8030002B0704780B582B0019000208E
:100950008DF80300019890F82500022811D0FFE7D8
:1009600001990420C8630199012081F82500FFE75F
:100970000199002081F82400FFE701208DF8030091
:100980003FE001980168086820F00E0008600198B7
:100990000168086820F0010008600198816C08680F
:1009A00020F4807008600198016C406C00F01F0218
:1009B0000120904048600198C16C006D486001982A
:1009C000406D58B1FFE70198416D086820F48070D0
:1009D00008600198816DC06D4860FFE701990120B2
:1009E00081F82500FFE70199002081F82400FFE746
:1009F0000198806B20B1FFE70198816B8847FFE782
:100A0000FFE79DF8030002B080BD000080B584B010
:100A100003900398006C00680290039800680068D7
:100A2000019002980399496C01F01F01C8404007EA
:100A3000002825D5FFE79DF80400400700281FD5B2
:100A4000FFE70398006800688006002807D4FFE7E6
:100A500003980168086820F004000860FFE7039825
:100A6000016C406C00F01F02042090404860039825
:100A7000006B20B1FFE70398016B8847FFE76EE04A
:100A800002980399496C01F01F01C84080070028B3
:100A90002FD5FFE79DF804008007002829D5FFE740
:100AA000039800680068800600280BD4FFE70398CD
:100AB0000168086820F00A0008600399012081F8A5
:100AC0002500FFE70398016C406C00F01F02022034
:100AD00090404860FFE70399002081F82400FFE779
:100AE0000398C06A20B1FFE70398C16A8847FFE70F
:100AF00034E002980399496C01F01F01C8400007D7
:100B0000002829D5FFE79DF804000007002823D519
:100B1000FFE703980168086820F00E00086003985A
:100B2000026C406C00F01F01012000FA01F15160DD
:100B30000399C863039981F82500FFE70399002012
:100B400081F82400FFE70398406B20B1FFE703988A
:100B5000416B8847FFE700E0FFE7FFE7FFE704B0EE
:100B600080BD000080B584B00290029820B9FFE7F4
:100B700001208DF80F009CE00298006840F20741C8
:100B8000C4F20201884218D8FFE7029908684FF6BC
:100B9000F872CBF6FD7210444CF6CD42CCF6CC4246
:100BA000A0FB02026FF0030000EA92004864029981
:100BB0000020C4F20200086418E0029908684FF6A9
:100BC000F832CBF6FD7210444CF6CD42CCF6CC4256
:100BD000A0FB02026FF0030000EA92004864029951
:100BE00040F20040C4F202000864FFE702990220CC
:100BF00081F825000298006800680190019847F686
:100C0000F0718843019002998868D1F80CC00B6993
:100C10004A6940EA0C00184310438A691043CA69C4
:100C20001043096A01430198084301900198029911
:100C3000096808600298FFF7ADFD02988068B0F57A
:100C4000804F04D1FFE7029900204860FFE7029936
:100C50000879896C08600298C16C006D4860029840
:100C6000406888B1FFE70298406804280CD8FFE785
:100C70000298FFF7C9FD0298416D002008600298B4
:100C8000816DC06D486007E00299002048650299B7
:100C900088650299C865FFE702990020C863029A37
:100CA000012182F82510029981F824008DF80F00A7
:100CB000FFE79DF80F0004B080BD000080B584B050
:100CC000039000F0FFF90290039801900198013021
:100CD00048B1FFE740F22400C2F200000168019829
:100CE00008440190FFE7FFE700F0ECF90299401A91
:100CF0000199884201D2FFE7F6E704B080BD000009
:100D00008BB00A90099100200890FFE709980068CD
:100D10000899C840002800F0A581FFE709980068FD
:100D2000089A01219140084007900798002800F098
:100D30009581FFE70998406800F00300012807D07B
:100D4000FFE70998406800F0030002282FD1FFE771
:100D50000A988068069008984100032000FA01F183
:100D60000698884306900998C0680899490000FAD7
:100D700001F106980843069006980A9988600A9837
:100D8000406806900899012000FA01F1069888430E
:100D9000069009984068C0F30010089900FA01F124
:100DA00006980843069006980A994860FFE7099854
:100DB000406800F00300032818D0FFE70A98C068D5
:100DC000069008984100032000FA01F10698884334
:100DD0000690099880680899490000FA01F1069880
:100DE0000843069006980A99C860FFE7099840688A
:100DF00000F00300022826D1FFE70A9808996FF057
:100E0000030202EA51010844006A0690089800F0C3
:100E1000070081000F2000FA01F106988843069030
:100E200009980069089901F00701890000FA01F1A9
:100E300006980843069006980A99089B02EA53020E
:100E400011440862FFE70A9800680690089841007C
:100E5000032000FA01F1069888430690099840683B
:100E600000F003000899490000FA01F106980843D0
:100E7000069006980A9908600998807980070028EA
:100E800000F0EB80FFE7FFE741F26000C4F20200F0
:100E9000016841F001010160006800F00100059067
:100EA0000598FFE7089820F003000821C4F201012B
:100EB00040580690089800F0030081000F2000FAC7
:100EC00001F10698884306900A98B0F1904F03D13B
:100ED000FFE70020049042E00A9840F20041C4F687
:100EE0000001884203D1FFE70120039034E00A9813
:100EF00040F60001C4F60001884203D1FFE702205A
:100F0000029026E00A9840F60041C4F600018842AB
:100F100003D1FFE70320019018E00A9841F2000195
:100F2000C4F60001884203D1FFE7042000900AE0E4
:100F30000A9941F20042C4F600020620914208BF1D
:100F400005200090FFE700980190FFE701980290CC
:100F5000FFE702980390FFE703980490FFE70498E7
:100F6000089901F00301890000FA01F1069808438D
:100F700006900698089921F003010822C4F20102A4
:100F8000885040F20840C4F20100006806900799BA
:100F900006988843069009988079C006002805D5F0
:100FA000FFE70799069808430690FFE7069840F286
:100FB0000841C4F20101086040F20C40C4F2010093
:100FC00000680690079906988843069009988079EA
:100FD0008006002805D5FFE7079906980843069084
:100FE000FFE7069840F20C41C4F20101086040F2AC
:100FF0000440C4F2010000680690079906988843EF
:101000000690099880798007002805D5FFE70799A1
:10101000069808430690FFE7069840F20441C4F2A0
:101020000101086040F20040C4F20100006806902F
:10103000079906988843069009988079C00728B1D7
:10104000FFE70799069808430690FFE7069840F2E5
:101050000041C4F201010860FFE7FFE70898013092
:10106000089053E60BB0704782B00190ADF80210C3
:1010700001980069BDF80210084204D0FFE7012082
:101080008DF8010003E000208DF80100FFE79DF8D6
:10109000010002B07047000082B00190ADF802106C
:1010A0008DF801209DF8010028B1FFE7BDF802008E
:1010B0000199886104E0BDF8020001998862FFE7A8
:1010C00002B0704740F23C10C2F200000068704766
:1010D00040F22400C2F20000026840F23C11C2F269
:1010E00000010868104408607047000080B582B0B5
:1010F000002000908DF80700032000F09BF8009876
:1011000000F00EF820B1FFE701208DF8070002E0A3
:1011100000F04AF8FFE79DF8070002B080BD00002C
:1011200080B582B0019000208DF8030040F22400C9
:10113000C2F20000006878B3FFE740F20800C2F294
:101140000000006840F22401C2F200010A684FF476
:101150007A71B1FBF2F1B0FBF1F001F0A1F9B0B995
:10116000FFE701980F280DD8FFE701994FF0FF30F6
:10117000002200F047F8019840F22801C2F2000175
:10118000086003E001208DF80300FFE703E0012081
:101190008DF80300FFE703E001208DF80300FFE76F
:1011A0009DF8030002B080BD80B582B0FFE741F238
:1011B0006000C4F20200016841F0010101600068B2
:1011C00000F0010001900198FFE7FFE741F25800AD
:1011D000C4F20200016841F080510160006800F033
:1011E000805000900098FFE700F006F902B080BD43
:1011F00080B582B08DF807009DF9070003F090F9E3
:1012000002B080BD80B586B08DF8170004910392BE
:1012100003F09EF902909DF917000190029804993D
:10122000039A02F07BF90146019803F099F906B0A0
:1012300080BD000080B582B00190019803F0B2F942
:1012400002B080BD85B00390039800285ED1FFE70F
:1012500047F20000C4F20000006800F4C060B0F57E
:10126000806F49D1FFE747F28001C4F200010868AE
:1012700020F48070086047F20002C4F20002116896
:10128000012060F34A21116040F20801C2F200011E
:101290000968322251434DF68362C4F21B32A1FB2E
:1012A000022100EB91400290FFE747F21400C4F2E4
:1012B00000000168002049050029019006D5FFE7DC
:1012C0000298002818BF01200190FFE70198C0078D
:1012D00020B1FFE7029801380290E6E747F21400D8
:1012E000C4F2000000684005002804D5FFE7032091
:1012F0008DF813007CE008E047F28001C4F20001A1
:10130000086820F480700860FFE76DE00398B0F58E
:10131000007F5ED1FFE747F20000C4F200000068E2
:1013200000F4C060B0F5806F49D1FFE747F280015B
:10133000C4F20001086840F48070086047F20002BF
:10134000C4F200021168012060F34A21116040F2EA
:101350000801C2F200010968322251434DF683624E
:10136000C4F21B32A1FB022100EB91400290FFE787
:1013700047F21400C4F2000001680020490500296A
:10138000009006D5FFE70298002818BF01200090C2
:10139000FFE70098C00720B1FFE7029801380290EC
:1013A000E6E747F21400C4F2000000684005002898
:1013B00004D5FFE703208DF8130019E008E047F299
:1013C0008001C4F20001086840F480700860FFE703
:1013D00009E047F20001C4F200010868022262F34A
:1013E0004A200860FFE7FFE700208DF81300FFE7C1
:1013F0009DF8130005B0704747F20801C4F20001E0
:10140000086840F4804008607047000080B586B0EE
:10141000059000208DF80B008DF80A000598807863
:101420000007002840F1B580FFE700208DF8090093
:1014300041F25800C4F202000068C000002813D432
:10144000FFE7FFE741F25800C4F20200016841F0F3
:1014500080510160006800F0805001900198FFE722
:1014600001208DF80900FFE747F20001C4F20001F6
:10147000086840F480700860FFF724FE0390FFE7DF
:1014800047F20000C4F200000068C00500280CD438
:10149000FFE7FFF717FE0399401A032804D3FFE77D
:1014A00003208DF80B0000E0EAE79DF80B00002810
:1014B0005BD1FFE741F29000C4F20200006800F443
:1014C000407004900498C8B1FFE704980599096C2E
:1014D000884213D0FFE741F29001C4F2020108688C
:1014E00020F440700490086840F480300860086878
:1014F00020F48030086004980860FFE79DF8100031
:10150000C007E0B1FFE7FFF7DDFD0390FFE741F221
:101510009000C4F202000068800700280ED4FFE7A4
:10152000FFF7D0FD0399401A41F28931884204D374
:10153000FFE703208DF80B0000E0E8E7FFE79DF8E8
:101540000B0060B9FFE741F29001C4F202010868A4
:1015500020F44070059A126C1043086004E09DF876
:101560000B008DF80A00FFE704E09DF80B008DF8F2
:101570000A00FFE79DF80900012809D1FFE741F2C1
:101580005801C4F20201086820F080500860FFE7AB
:10159000FFE705980078C00760B1FFE741F28801D6
:1015A000C4F20201086820F00300059A5268104353
:1015B0000860FFE705980078800700280CD5FFE752
:1015C00041F28801C4F20201086820F00C00059A7B
:1015D000926810430860FFE70598007840070028EC
:1015E0000CD5FFE741F28801C4F20201086820F03F
:1015F0003000059AD26810430860FFE7059800782C
:10160000000700280CD5FFE741F28801C4F202016F
:10161000086820F0C000059A126910430860FFE7CF
:1016200005980078800600280CD5FFE741F2880174
:10163000C4F20201086820F44060059A5269104320
:101640000860FFE705980078400600280CD5FFE702
:1016500041F28801C4F20201086820F44050059A62
:10166000926910430860FFE705980078000600289B
:101670000CD5FFE741F28801C4F20201086820F4AA
:101680004040059AD26910430860FFE7059840780A
:10169000C00760B1FFE741F28801C4F202010868A7
:1016A00020F44030059A126A10430860FFE705985D
:1016B0004078800700280CD5FFE741F28801C4F28A
:1016C0000201086820F44020059A526A104308601D
:1016D000FFE705984078400700281BD5FFE741F257
:1016E0008801C4F20201086820F44010059A926A49
:1016F000104308600598806AB0F5801F09D1FFE7A4
:1017000041F20C01C4F20201086840F48010086044
:10171000FFE7FFE705984078000700281BD5FFE7A3
:1017200041F28801C4F20201086820F44000059AE1
:10173000D26A104308600598C06AB0F5800F09D1DD
:10174000FFE741F20C01C4F20201086840F4801086
:101750000860FFE7FFE705984078C00600281BD522
:10176000FFE741F28801C4F20201086820F04070EE
:10177000059A126B104308600598006BB0F1807FEA
:1017800009D1FFE741F20C01C4F20201086840F4FC
:1017900080100860FFE7FFE7059840788006002882
:1017A0001BD5FFE741F28801C4F20201086820F06E
:1017B0004060059A526B104308600598406BB0F189
:1017C000006F09D1FFE741F20C01C4F20201086881
:1017D00040F480100860FFE7FFE705984078400676
:1017E00000281BD5FFE741F28801C4F20201086816
:1017F00020F04060059A926B104308600598806B5A
:10180000B0F1006F09D1FFE741F20C01C4F202010F
:10181000086840F480100860FFE7FFE7059840780B
:10182000000600281BD5FFE741F28801C4F202013F
:10183000086820F04050059AD26B10430860059864
:10184000C06BB0F1805F09D1FFE741F20C01C4F237
:101850000201086840F480300860FFE7FFE79DF868
:101860000A0006B080BD000080B586B004900391E8
:1018700000200090049820B9FFE701208DF81700A0
:1018800081E1039842F20001C4F20201096801F00B
:101890000F01884216D9FFE742F20000C4F20200AD
:1018A000016821F00F01039A11430160006800F004
:1018B0000F000399884204D0FFE701208DF817003C
:1018C00061E1FFE704980078C007002800F0A380DA
:1018D000FFE704984068032839D1FFE741F2000090
:1018E000C4F2020000688001002804D4FFE7012050
:1018F0008DF8170047E101F049FE019001984BF285
:101900000141C0F2C441884220D3FFE741F2080000
:10191000C4F20200006810F0F00F0AD0FFE704984C
:1019200000788007002810D5FFE70498806860B928
:10193000FFE741F20801C4F202010868082262F3DD
:101940000710086080200090FFE7FFE738E0049868
:10195000406802280ED1FFE741F20000C4F2020005
:1019600000688003002804D4FFE701208DF81700E9
:1019700009E10DE041F20000C4F2020000684005F8
:10198000002804D4FFE701208DF81700FBE0FFE7F3
:1019900000F02CF9019001984BF20141C0F2C441D2
:1019A00088420CD3FFE741F20801C4F20201086843
:1019B000082262F30710086080200090FFE7FFE72D
:1019C00041F20801C4F20201086820F00300049A01
:1019D000526810430860FFF775FB0290FFE741F281
:1019E0000800C4F20200006800F00C000499496885
:1019F000B0EB810F0ED0FFE7FFF764FB0299401AAE
:101A000041F28931884204D3FFE703208DF81700A3
:101A1000B9E0E4E7FFE704980078800700282CD5B8
:101A2000FFE7049800784007002809D5FFE741F256
:101A30000801C4F20201086840F4E0600860FFE7B2
:101A400004980078000700280BD5FFE741F2080151
:101A5000C4F20201086840F4E06020F460500860BD
:101A6000FFE741F20801C4F20201086820F0F0002B
:101A7000049A9268104308600DE00098802809D10C
:101A8000FFE741F20801C4F20201086820F0F0000B
:101A90000860FFE7FFE7039842F20001C4F2020189
:101AA000096801F00F01884228D2FFE742F20001E5
:101AB000C4F20201086820F00F00039A1043086086
:101AC000FFF700FB0290FFE742F20000C4F20200C1
:101AD000006800F00F00039988420ED0FFE7FFF77F
:101AE000F1FA0299401A41F28931884204D3FFE7A2
:101AF00003208DF8170046E0E6E7FFE7049800783A
:101B0000400700280CD5FFE741F20801C4F20201AA
:101B1000086820F4E060049AD26810430860FFE788
:101B200004980078000700280DD5FFE741F208016E
:101B3000C4F20201086820F46050049A126940EA75
:101B4000C2000860FFE700F051F841F20801C4F25A
:101B500002010968C9B20A0945F25621C0F600011E
:101B6000895C01F01F01C84040F20801C2F2000187
:101B7000086040F22800C2F200000068FFF7D0FAC7
:101B80008DF81700FFE79DF8170006B080BD000034
:101B900040F20800C2F200000068704780B5FFF70D
:101BA000F7FF41F20801C4F202010968C1F3022201
:101BB00045F26621C0F60001895C01F01F01C840B2
:101BC00080BD000080B5FFF7E3FF41F20801C4F2D9
:101BD00002010968C1F3C22245F26621C0F6000184
:101BE000895C01F01F01C84080BD000086B041F251
:101BF0000800C4F20200006800F00C00042806D1BE
:101C0000FFE742F20040C0F2F400019069E041F2C7
:101C10000800C4F20200006800F00C00082806D199
:101C2000FFE743F20060C0F26E10019058E041F20D
:101C30000800C4F20200006800F00C000C284BD130
:101C4000FFE741F20C00C4F20200016801F0030159
:101C500004910068C1B2012000EB111002900498B9
:101C60000090022815D0FFE70098032812D1FFE763
:101C7000029943F20060C0F26E10B0FBF1F041F245
:101C80000C01C4F202010968C1F306214843059022
:101C900011E0FFE7029942F20040C0F2F400B0FB0D
:101CA000F1F041F20C01C4F202010968C1F306210E
:101CB00048430590FFE741F20C00C4F202000068BF
:101CC00000F0C061022000EB1160039005980399B9
:101CD000B0FBF1F0019002E000200190FFE7FFE788
:101CE000FFE7019806B07047B0B588B00690069837
:101CF00020B9FFE701208DF81F00CCE3069800789B
:101D0000C007002800F09B80FFE741F20800C4F202
:101D10000200006800F00C00049041F20C00C4F2D4
:101D20000200006800F00300039004980C2804D11E
:101D3000FFE70398032804D0FFE70498082812D18E
:101D4000FFE741F20000C4F20200006880030028AF
:101D500008D5FFE70698406820B9FFE701208DF815
:101D60001F0098E36AE0FFE706984068B0F5803FFF
:101D700009D1FFE741F20001C4F20201086840F412
:101D80008030086020E006984068B0F5A02F0DD1A3
:101D9000FFE741F20001C4F20201086840F480202C
:101DA0000860086840F4803008600CE041F20001EF
:101DB000C4F20201086820F480300860086820F44A
:101DC00080200860FFE7FFE7FFE706984068D0B192
:101DD000FFE7FFF777F90590FFE741F20000C4F253
:101DE00002000068800300280CD4FFE7FFF76AF9BF
:101DF0000599401A652804D3FFE703208DF81F00DA
:101E000049E3EAE719E0FFF75DF90590FFE741F2E2
:101E10000000C4F202000068800300280CD5FFE730
:101E2000FFF750F90599401A652804D3FFE703200E
:101E30008DF81F002FE3EAE7FFE7FFE7FFE70698CB
:101E400000788007002840F19F80FFE741F20800FA
:101E5000C4F20200006800F00C00049041F20C0093
:101E6000C4F20200006800F00300039004980C28FC
:101E700004D1FFE70398022804D0FFE70498042860
:101E80002CD1FFE741F20000C4F2020000684005D7
:101E9000002808D5FFE70698C06820B9FFE70120B1
:101EA0008DF81F00F7E241F20401C4F20201086854
:101EB00020F0FE40069A126940EA0260086040F293
:101EC0002800C2F200000068FFF72AF920B1FFE7FE
:101ED00001208DF81F00DEE2FFE754E00698C0689D
:101EE00070B3FFE741F20001C4F20201086840F458
:101EF00080700860FFF7E6F80590FFE741F2000008
:101F0000C4F202000068400500280CD4FFE7FFF788
:101F1000D9F80599401A032804D3FFE703208DF868
:101F20001F00B8E2EAE741F20401C4F202010868C6
:101F300020F0FE40069A126940EA0260086021E043
:101F400041F20001C4F20201086820F480700860C8
:101F5000FFF7B8F80590FFE741F20000C4F2020075
:101F60000068400500280CD5FFE7FFF7ABF805999E
:101F7000401A032804D3FFE703208DF81F008AE2EC
:101F8000EAE7FFE7FFE7FFE7069800780007002889
:101F900049D5FFE70698406910B3FFE741F2940185
:101FA000C4F20201086840F001000860FFF78AF8F7
:101FB0000590FFE741F29400C4F202000068800738
:101FC00000280CD4FFE7FFF77DF80599401A032895
:101FD00004D3FFE703208DF81F005CE2EAE721E06D
:101FE00041F29401C4F20201086820F00100086087
:101FF000FFF768F80590FFE741F29400C4F2020091
:102000000068800700280CD5FFE7FFF75BF805990B
:10201000401A032804D3FFE703208DF81F003AE29B
:10202000EAE7FFE7FFE7069800784007002840F15D
:10203000C680FFE700208DF80B0041F25800C4F283
:1020400002000068C000002813D4FFE7FFE741F258
:102050005800C4F20200016841F08051016000683C
:1020600000F0805001900198FFE701208DF80B00EF
:10207000FFE747F20000C4F200000068C005002836
:1020800022D4FFE747F20001C4F20001086840F4DF
:1020900080700860FFF716F80590FFE747F2000030
:1020A000C4F200000068C00500280CD4FFE7FFF769
:1020B00009F80599401A032804D3FFE703208DF897
:1020C0001F00E8E1EAE7FFE7FFE7069880680128DC
:1020D00009D1FFE741F29001C4F20201086840F023
:1020E000010008601FE00698806805280DD1FFE711
:1020F00041F29001C4F20201086840F00400086057
:10210000086840F0010008600CE041F29001C4F260
:102110000201086820F001000860086820F004004F
:102120000860FFE7FFE7FFE706988068E0B1FFE798
:10213000FEF7C8FF0590FFE741F29000C4F20200ED
:102140000068800700280ED4FFE7FEF7BBFF059963
:10215000401A41F28931884204D3FFE703208DF809
:102160001F0098E1E8E71BE0FEF7ACFF0590FFE7F2
:1021700041F29000C4F202000068800700280ED5EA
:10218000FFE7FEF79FFF0599401A41F28931884227
:1021900004D3FFE703208DF81F007CE1E8E7FFE7A9
:1021A0009DF80B00012809D1FFE741F25801C4F264
:1021B0000201086820F080500860FFE7FFE70698FA
:1021C00000788006002849D5FFE70698806910B39B
:1021D000FFE741F29801C4F20201086840F00100F3
:1021E0000860FEF76FFF0590FFE741F29800C4F228
:1021F00002000068800700280CD4FFE7FEF762FFAA
:102200000599401A032804D3FFE703208DF81F0027
:1022100041E1EAE721E041F29801C4F202010868D5
:1022200020F001000860FEF74DFF0590FFE741F246
:102230009800C4F202000068800700280CD5FFE770
:10224000FEF740FF0599401A032804D3FFE7032057
:102250008DF81F001FE1EAE7FFE7FFE70698C06976
:10226000002800F01481FFE741F20800C4F20200E8
:10227000006800F00C000C2800F0B080FFE7069822
:10228000C06902287CD1FFE741F20001C4F20201DB
:10229000086820F080700860FEF714FF0590FFE7E3
:1022A00041F20000C4F202000068800100280CD551
:1022B000FFE7FEF707FF0599401A032804D3FFE75D
:1022C00003208DF81F00E6E0EAE741F20C01C4F2BA
:1022D0000201086848F20C02C0F29F121040DDF8BB
:1022E00018C0DCF82020DCF82450DCF828E0DCF80A
:1022F0002C306FF00F0404EB0514224342EA0E2247
:10230000DCF8304040F2000ECFF6E07E0EEA045ECC
:10231000AEF5001E42EA0E02DCF834E04FF07E4CCF
:102320000CEA0E6C0CF17E4C42EA0C0242EAC362EB
:102330001043086041F20002C4F20202106840F04B
:1023400080701060086840F080700860FEF7BAFE88
:102350000590FFE741F20000C4F20200006880012E
:1023600000280CD4FFE7FEF7ADFE0599401A0328BC
:1023700004D3FFE703208DF81F008CE0EAE72CE090
:1023800041F20001C4F20201086820F08070086088
:10239000FEF798FE0590FFE741F20000C4F202004C
:1023A0000068800100280CD5FFE7FEF78BFE059939
:1023B000401A032804D3FFE703208DF81F006AE0CA
:1023C000EAE741F20C01C4F2020108684FF6FC7220
:1023D000CFF6EE6210400860FFE757E00698C0694C
:1023E000012804D1FFE701208DF81F0053E041F2DE
:1023F0000C00C4F2020000680390039800F0030090
:102400000699096A88423BD1FFE7039800F0F00083
:1024100006994A6A6FF00F0101EB021188422FD131
:10242000FFE7039800F4FE400699896AB0EB012F9C
:1024300026D1FFE7039800F078400699C96AB0EB0F
:10244000C16F1DD1FFE7039800F4C00006990A6B25
:102450000021CFF6E07101EA0251A1F50011884296
:102460000ED1FFE7039800F0C06006994A6B4FF069
:102470007E4101EA026101F17E41884204D0FFE71A
:1024800001208DF81F0006E0FFE7FFE7FFE70020CF
:102490008DF81F00FFE79DF81F0008B0B0BD0000D9
:1024A00080B582B00190019801F05EFA02B080BD63
:1024B00083B00190FFE7019890F88400012804D1CF
:1024C000FFE702208DF80B002CE00199012081F834
:1024D0008400FFE7FFE701992420C1F888000198F4
:1024E00000680068009001980168086820F0010009
:1024F0000860009820F00050009001990020486684
:10250000009801990968086001992020C1F88800A5
:10251000FFE70199002081F88400FFE700208DF893
:102520000B00FFE79DF80B0003B0704782B00190ED
:10253000ADF8021002B0704781B0009001B0704752
:1025400080B584B002900191FFE7029890F8840072
:10255000012804D1FFE702208DF80F0032E0029934
:10256000012081F88400FFE7FFE702992420C1F8E9
:102570008800029800680068009002980168086866
:1025800020F00100086002980068806820F0606018
:1025900001990843029909688860029801F068FA75
:1025A000009802990968086002992020C1F8880003
:1025B000FFE70299002081F88400FFE700208DF8F2
:1025C0000F00FFE79DF80F0004B080BD80B584B018
:1025D00002900191FFE7029890F88400012804D14D
:1025E000FFE702208DF80F0032E00299012081F808
:1025F0008400FFE7FFE702992420C1F888000298D1
:1026000000680068009002980168086820F00100E6
:10261000086002980068806820F0604001990843D3
:10262000029909688860029801F022FA00980299DC
:102630000968086002992020C1F88800FFE7029924
:10264000002081F88400FFE700208DF80F00FFE7ED
:102650009DF80F0004B080BD81B0009001B07047BC
:1026600081B0009001B0704781B0009001B0704718
:1026700080B590B00F900F980068C0690E900F98C9
:10268000006800680D900F98006880680C900E98A4
:1026900040F60F0108400B900B98E0B9FFE79DF85A
:1026A00038008006002815D5FFE79DF83400800625
:1026B000002806D4FFE79DF83300C006002809D59E
:1026C000FFE70F98406F20B1FFE70F98416F8847F1
:1026D000FFE796E2FFE70B98002800F00C81FFE788
:1026E0000C980121C1F20001084209D1FFE70D98C1
:1026F00040F22011C0F20041084200F0FC80FFE7E8
:102700009DF83800C00788B1FFE79DF83500C00785
:1027100060B1FFE70F980168012008620F99D1F8B6
:10272000900040F00100C1F89000FFE79DF83800EC
:102730008007002811D5FFE79DF83000C00760B181
:10274000FFE70F980168022008620F99D1F8900006
:1027500040F00400C1F89000FFE79DF83800400702
:10276000002811D5FFE79DF83000C00760B1FFE7F2
:102770000F980168042008620F99D1F8900040F08A
:102780000200C1F89000FFE79DF83800000700281C
:1027900019D5FFE79DF834008006002807D4FFE72D
:1027A0000C980121C1F2000108420CD0FFE70F98FC
:1027B0000168082008620F99D1F8900040F00800E5
:1027C000C1F89000FFE79DF839000007002813D5F5
:1027D000FFE79DF83700400700280DD5FFE70F9869
:1027E00001684FF4006008620F99D1F8900040F042
:1027F0002000C1F89000FFE70F98D0F89000002863
:1028000078D0FFE79DF838008006002815D5FFE74F
:102810009DF834008006002806D4FFE79DF83300B9
:10282000C006002809D5FFE70F98406F20B1FFE7E9
:102830000F98416F8847FFE7FFE70F98D0F89000A7
:102840000A900F980068806800F04000402806D089
:10285000FFE79DF8280010F0280F42D0FFE70F98FF
:1028600001F0A4FA0F98006880684006002833D56C
:10287000FFE7FFE7FFE70F98006850E8020F20F03E
:1028800040000990FFE709990F98026842E802109A
:102890000028F0D1FFE7FFE70F98D0F88000B0B133
:1028A000FFE70F98D0F8801043F68950C0F600007B
:1028B00088630F98D0F88000FEF746F830B1FFE744
:1028C0000F98D0F88000816B8847FFE703E00F98EE
:1028D000FFF7CAFEFFE703E00F98FFF7C5FEFFE72B
:1028E00007E00F98FFF7C0FE0F990020C1F8900095
:1028F000FFE7FFE785E10F98C06E012840F02281D5
:10290000FFE79DF83800C006002840F11B81FFE773
:102910009DF83400C006002840F11481FFE70F98AD
:102920000168102008620F9800688068400600283F
:1029300040F1A680FFE70F98D0F88000006840685B
:10294000ADF82200BDF8220000287CD0FFE7BDF8DA
:1029500022000F99B1F85C10884274DAFFE7BDF8E5
:1029600022000F99A1F85E000F98D0F8800000684F
:1029700000688006002859D4FFE7FFE7FFE70F98BB
:10298000006850E8000F20F480700790FFE7079977
:102990000F98026842E800100028F0D1FFE7FFE737
:1029A000FFE7FFE70F98006850E8020F20F00100F2
:1029B0000690FFE706990F98026842E80210002887
:1029C000F0D1FFE7FFE7FFE7FFE70F98006850E867
:1029D000020F20F040000590FFE705990F9802686C
:1029E00042E802100028F0D1FFE7FFE70F9920200E
:1029F000C1F88C000F990020C866FFE7FFE70F9829
:102A0000006850E8000F20F010000490FFE70499E0
:102A10000F98026842E800100028F0D1FFE7FFE7B6
:102A20000F98D0F88000FDF741FFFFE70F990220D3
:102A300008670F98B0F85C10B0F85E20891A89B268
:102A4000FFF774FD1BE0BDF822000F99B1F85C1090
:102A5000884213D1FFE70F98D0F880000068006823
:102A60008006002809D5FFE70F99022008670F9814
:102A7000B0F85C10FFF75AFDFFE7FFE7FFE7C0E0A3
:102A80000F99B1F85C00B1F85E10401AADF80E0075
:102A90000F98B0F85E00002853D0FFE7BDF80E0095
:102AA00000284ED0FFE7FFE7FFE70F98006850E8E7
:102AB000000F20F490700290FFE702990F980268CF
:102AC00042E800100028F0D1FFE7FFE7FFE7FFE74B
:102AD0000F98006850E8020F4FF6FE71CEF6FF71B6
:102AE00008400190FFE701990F98026842E8021040
:102AF0000028EDD1FFE7FFE70F992020C1F88C00F7
:102B00000F990020C8660F994867FFE7FFE70F9805
:102B1000006850E8000F20F010000090FFE70099D7
:102B20000F98026842E800100028F0D1FFE7FFE7A5
:102B30000F99022008670F98BDF80E10FFF7F6FCFA
:102B4000FFE75EE09DF83A00C00600280FD5FFE7DA
:102B50009DF832004006002809D5FFE70F9801686C
:102B60004FF4801008620F98FFF77AFD49E09DF856
:102B700038000006002815D5FFE79DF83400000650
:102B8000002806D4FFE79DF832000006002809D58A
:102B9000FFE70F98806F20B1FFE70F98816F88479C
:102BA000FFE72EE09DF83800400600280AD5FFE731
:102BB0009DF834004006002804D5FFE70F9801F087
:102BC00045F91EE09DF83A00000600280AD5FFE707
:102BD0009DF837004006002804D5FFE70F98FFF75F
:102BE0003BFD0EE09DF83B00C00750B1FFE79DF8AC
:102BF00037000006002804D5FFE70F98FFF79CFC7C
:102C0000FFE710B080BD000080B582B00090009852
:102C100020B9FFE701208DF8070046E000988069A1
:102C200008B1FFE700E0FFE70098D0F8880040B95E
:102C3000FFE70099002081F88400009800F03AF83E
:102C4000FFE700992420C1F888000098016808680F
:102C500020F0010008600098806A20B1FFE700982A
:102C600000F04AFFFFE7009801F012F9012804D1B3
:102C7000FFE701208DF8070017E000980168486819
:102C800020F49040486000980168886820F02A008D
:102C9000886000980168086840F0010008600098AA
:102CA00000F0CEFF8DF80700FFE79DF8070002B0A7
:102CB00080BD000080B58CB00B9000200A90099078
:102CC0000890079006900B98006843F60001C4F244
:102CD0000101884260D1FFE7FFE741F26000C4F2E2
:102CE0000200016841F480410160006800F4804006
:102CF00005900598FFE7FFE741F24C00C4F202009F
:102D0000016841F001010160006800F001000490D9
:102D10000498FFE74FF4C06006900220079000205F
:102D200002900890099007200A904FF0904006A961
:102D3000FDF7E6FF029940F23400C2F20000039072
:102D40000822C4F202020260182242608160C1605F
:102D50008022026141618161C1614FF400510162D1
:102D6000FDF700FF18B1FFE7FDF798FDFFE7FFE76C
:102D70000B9840F23401C2F20001C0F880100B98A9
:102D80008862FFE72520019000221146FEF73AFAFB
:102D90000198FEF72DFAFFE70CB080BD80B58AB030
:102DA00008900791ADF81A2005930898D0F888008C
:102DB000202840F08780FFE7079820B1FFE7BDF8A3
:102DC0001A0020B9FFE701208DF827007EE008995E
:102DD0000020C1F8900008992120C1F88800FEF772
:102DE00071F90290BDF81A000899A1F85400BDF8D5
:102DF0001A000899A1F8560008988068B0F5805F1D
:102E000009D1FFE70898006928B9FFE7002004907E
:102E10000798039004E00798049000200390FFE7D0
:102E2000FFE70898B0F8560088B3FFE70898029BC0
:102E300005996A4611608021002201F0E1FA40B153
:102E4000FFE708992020C1F8880003208DF82700AB
:102E50003CE0049858B9FFE7039800886FF35F20BF
:102E600008990968886203980230039008E0049882
:102E70000078089909688862049801300490FFE797
:102E80000899B1F856000138A1F85600C9E708982A
:102E9000029B05996A4611604021002201F0B0FAB8
:102EA00040B1FFE708992020C1F8880003208DF881
:102EB00027000BE008992020C1F8880000208DF839
:102EC000270003E002208DF82700FFE79DF8270088
:102ED0000AB080BD81B0009001B07047FFE7FEE707
:102EE00080B586B000200590049003900290019078
:102EF0004FF6FF710191029003210491039040F677
:102F00000000C4F6000001A9FDF7FAFE06B080BD7E
:102F100080B586B000200590049003900290019047
:102F20004FF6FF7101910121029103210491039059
:102F300040F60000C4F6000001A9FDF7E1FE06B06E
:102F400080BD000080B584B0ADF80E000021019175
:102F50000291084600F004F900F056F90198029039
:102F6000FFE70298800A4A2809D8FFE7BDF80E005B
:102F700000F014F9FFE7029801300290F1E704B085
:102F800080BD000080B58CB000200B900A900990A5
:102F900008900790FFE741F24C00C4F2020001687C
:102FA00041F004010160006800F0040006900698FA
:102FB000FFE7FFE741F24C00C4F20200016841F074
:102FC00001010160006800F0010005900598FFE72D
:102FD000FFE741F24C00C4F20200016841F0020137
:102FE0000160006800F0020004900498FFE74FF4CD
:102FF00048700790012000900890032001900A90EB
:1030000000200290099040F20040C4F6000007A999
:103010000391FDF775FE009B019A029803994FF406
:10302000807CCDF81CC008930A9209904FF0904024
:10303000FDF766FEFFF76CFF1821C4F60001086873
:1030400040F48070086040F21841C4F6000108683E
:1030500040F4087008600CB080BD000080B5FFF738
:1030600091FF002000F01CF8014640F23200C2F24D
:1030700000000180008848F23021884203D1FFE738
:1030800000F0D2FA02E000F05FFBFFE7002000F062
:1030900007F840F23201C2F20001088080BD000052
:1030A00080B582B08DF8070040F22842C4F60002D5
:1030B000106840F400701060106840F48070106078
:1030C00040F21841C4F600010091086840F0200069
:1030D00008609DF8070040F61403C4F6000318606A
:1030E000106840F02000106000BF00BF00BF0868FB
:1030F00040F020000860086840F480700860FFF726
:10310000EFFE2821C4F60001086840F480700860D2
:1031100000BF00BF00BF40F61000C4F6000000680A
:10312000ADF804001821C4F60001086840F480706E
:103130000860FFF7EDFE0099086840F40070086031
:10314000BDF8040002B080BD81B0ADF80200BDF84A
:10315000020040F20401C2F20001088001B0704791
:1031600080B582B08DF80700ADF804109DF8071007
:10317000202000F07BF8BDF80410212000F076F844
:1031800002B080BD81B0ADF80200BDF8020040F28F
:103190003001C2F20001088001B0704781B0ADF883
:1031A000020040F22842C4F60002106840F40070A9
:1031B000106040F21841C4F60001086840F48070C5
:1031C0000860086840F020000860BDF8020040F682
:1031D0001403C4F600031860106840F0200010606B
:1031E00000BF00BF00BF086840F02000086008680A
:1031F00040F48070086000BF00BF00BF086840F462
:103200000070086001B0704740F22842C4F6000226
:10321000106840F400701060106840F48070106016
:1032200040F21841C4F60001086840F02000086030
:1032300040F61403C4F6000322201860106840F022
:103240002000106000BF00BF00BF086840F02000F1
:103250000860086840F48070086000BF00BF00BFCD
:10326000086840F4007008607047000081B08DF875
:103270000300ADF8001040F22842C4F600021068C6
:1032800040F400701060106840F48070106040F2EC
:103290001841C4F60001086840F0200008609DF85D
:1032A000030040F61403C4F600031860106840F0F1
:1032B0002000106000BF00BF00BF086840F0200081
:1032C0000860086840F480700860BDF8000018606D
:1032D000106840F02000106000BF00BF00BF086809
:1032E00040F020000860086840F48070086001B079
:1032F0007047000080B584B0FFE741F24800C4F297
:103300000200016841F004010160006800F004005F
:1033100003900398FFE7FFE741F24800C4F2020080
:10332000016841F001010160006800F001000290B5
:103330000298FFE70B20019000221146FDF762FF83
:103340000198FDF755FF04B080BD000080B592B034
:103350000020119010900F900E900D90FFE741F219
:103360004C00C4F20200016841F0040101600068F1
:1033700000F004000C900C98FFE7FFE741F24C00CE
:10338000C4F20200016841F020010160006800F011
:1033900020000B900B98FFE7FFE741F24C00C4F2CE
:1033A0000200016841F001010160006800F00100C5
:1033B0000A900A98FFE7FFE741F24C00C4F20200CE
:1033C000016841F002010160006800F0020009900C
:1033D0000998FFE7FFE741F24C00C4F202000168E0
:1033E00041F008010160006800F0080008900898AA
:1033F000FFE740F60000C4F6000002904FF6FF71B0
:10340000019100220592FDF747FE059A40F6004023
:10341000C4F60000069004210391FDF73DFE019AD9
:10342000029805990D92012204920E920F9110912B
:103430000DA90791FDF764FC049A059807990D9270
:103440000E900F904FF09040FDF75AFC05980799A9
:1034500007220D920E900F9040F20040C4F600003B
:10346000FDF74EFCDDF80CC0049B059A0698079901
:10347000CDF834C00E930F921092FDF741FC12B0BC
:1034800080BD000080B582B040F29400C2F200001E
:10349000009043F60001C4F2010101604FF416519F
:1034A0004160002101918160C16001610C22426193
:1034B0008161C161016241628162FFF7A5FB18B1C0
:1034C000FFE7FDF7EBF9FFE740F29400C2F20000DE
:1034D0000021FFF77BF818B1FFE7FDF7DFF9FFE701
:1034E00040F29400C2F200000021FFF729F818B161
:1034F000FFE7FDF7D3F9FFE740F29400C2F20000C6
:10350000FEF7D6FF18B1FFE7FDF7C8F9FFE702B0F5
:1035100080BD0000FFE7FEE7FFE7FEE788B0079009
:1035200006910592079800F0070004900498C0F1F6
:103530000700052803D3FFE70420019004E0049866
:10354000C0F107000190FFE7019803900498043050
:10355000062803D8FFE70020009003E00498033812
:103560000090FFE70098029006980399012202FA62
:1035700001F101390840029B984005999A40013AAF
:103580001140084308B070477047000086B041F210
:103590000C00C4F20200016801F00301049100680C
:1035A000C1B2012000EB1110029004980090022893
:1035B00015D0FFE70098032812D1FFE7029943F2E4
:1035C0000060C0F26E10B0FBF1F041F20C01C4F2E9
:1035D00002010968C1F306214843059011E0FFE7A5
:1035E000029942F20040C0F2F400B0FBF1F041F267
:1035F0000C01C4F202010968C1F306214843059099
:10360000FFE741F20C00C4F20200006800F0C06164
:10361000022000EB1160039005980399B0FBF1F0D4
:103620000190019806B0704780B588B000200190E5
:1036300001210291FFF71AFE4FF47A70FDF704F9A9
:1036400001990298FFF712FE102041F29071FFF7E6
:103650000DFE60204FF41C51FFF708FE0299612017
:10366000FFF704FE462002210391FFF7FFFD132020
:1036700048F21001FFF7FAFD122048F2FE01FFF7B1
:10368000F5FD03984FF4A061FFF7F0FD03200690CD
:1036900041F218010791FFF7E9FD302040F20331B4
:1036A0000591FFF7E3FD05993120FFF7DFFD05994F
:1036B0003220FFF7DBFD33204FF440710491FFF718
:1036C000D5FD06993420FFF7D1FD05993520FFF788
:1036D000CDFD36201421FFF7C9FD05993720FFF7EE
:1036E000C5FD05993820FFF7C1FD05993920FFF781
:1036F000BDFD04993A20FFF7B9FD06993B20FFF77D
:10370000B5FD05993C20FFF7B1FD3D204FF4A051D8
:10371000FFF7ACFD92204FF40071FFF7A7FD05996C
:103720009320FFF7A3FD902040F60D01FFF79EFDCB
:1037300006980799FFF79AFD072040F27311FFF7EB
:1037400095FD08B080BD000080B58EB0E32043F247
:103750000801FFF78BFDE72012210291FFF786FD9C
:10376000EF20079041F23121FFF780FD0120089002
:1037700000210A91FFF77AFD02204FF4E061FFF784
:1037800075FD03200B9041F218010C91FFF76EFDBF
:103790000A9904200590FFF769FD082040F20721EF
:1037A000FFF764FD0A990920FFF760FD0A990A20D6
:1037B000FFF75CFD0A990C20FFF758FD0A990D20D0
:1037C000FFF754FD0A990F200690FFF74FFD0A9965
:1037D00010200990FFF74AFD1120019007210D915B
:1037E000FFF744FD02980A99FFF740FD0A9913205C
:1037F0000390FFF73BFDC820FDF760FA099841F2FE
:103800009061FFF733FD019840F22721FFF72EFD6D
:1038100032200490FDF752FA02981D21FFF726FD91
:103820000498FDF74BFA03984FF40061FFF71EFD73
:1038300029201421FFF71AFD2B200B21FFF716FD7D
:103840000498FDF73BFA0A992020FFF70FFD0A992B
:103850002120FFF70BFD0D993020FFF707FD3120E8
:1038600040F20771FFF702FD04980621FFF7FEFC06
:10387000352040F20471FFF7F9FC362041F604715F
:10388000FFF7F4FC05993720FFF7F0FC0A99382080
:10389000FFF7ECFC392040F20671FFF7E7FC3C2013
:1038A00040F20171FFF7E2FC06993D20FFF7DEFCD4
:1038B0000A995020FFF7DAFC07995120FFF7D6FC50
:1038C0000A995220FFF7D2FC532040F23F11FFF734
:1038D000CDFC60204FF41C51FFF7C8FC0899612013
:1038E000FFF7C4FC0A996A20FFF7C0FC0A99802000
:1038F000FFF7BCFC0A998120FFF7B8FC0A998220E7
:10390000FFF7B4FC0A998320FFF7B0FC0A998420E2
:10391000FFF7ACFC0A998520FFF7A8FC09999020D5
:10392000FFF7A4FC0A999220FFF7A0FC0B999320C3
:10393000FFF79CFC95204FF48871FFF797FC0A99DC
:103940009720FFF793FC0A999820FFF78FFC0B98BC
:103950000C99FFF78BFC0D9840F27311FFF786FC72
:103960000EB080BD7047000080B582B00090009816
:103970000138B0F1807F03D3FFE70120019019E007
:10398000009801384EF21401CEF2000108604FF0A9
:10399000FF300F2100F0E4FD4EF21801CEF20001DD
:1039A000002008604EF21002CEF2000207211160E2
:1039B0000190FFE7019802B080BD000080B5FDF7DF
:1039C00087FB80BD80B5A6B018A801903821FCF710
:1039D00057FC00201790169015901490139002A891
:1039E0004421FCF74DFC4FF40070FDF72BFC0198CF
:1039F000012118914FF48031199102211F91032266
:103A00002092219214222292239124912591FEF753
:103A10006BF918B1FFE7FCF741FFFFE70F201390A8
:103A200003201490002015901690179013A80221DF
:103A3000FDF71AFF18B1FFE7FCF730FFFFE70120A1
:103A400002900020039002A8FDF7E0FC18B1FFE708
:103A5000FCF724FFFFE726B080BD00004EF688513A
:103A6000CEF20001086840F4700008607047000062
:103A700082B001900198406E40B9FFE701990120A2
:103A8000A1F86A000199A1F8680032E008208DF8D9
:103A900003008DF80200019800688068C0F342605E
:103AA0008DF80100019800688068400F8DF80000D3
:103AB0009DF802009DF8002045F27623C0F6000331
:103AC000995C484345F26E21C0F600018A5CB0FB68
:103AD000F2F0019AA2F86A009DF803009DF8012017
:103AE0009B5C5843895CB0FBF1F00199A1F8680038
:103AF000FFE702B07047000081B00090009890F896
:103B00002800000700280BD5FFE7009800684068F0
:103B100020F40040009A1168926B10434860FFE760
:103B2000009890F82800C00758B1FFE70098006897
:103B3000406820F40030009A1168D26A104348604F
:103B4000FFE7009890F82800800700280BD5FFE7D2
:103B500000980068406820F48030009A1168126B69
:103B600010434860FFE7009890F8280040070028BD
:103B70000BD5FFE700980068406820F48020009A89
:103B80001168526B10434860FFE7009890F82800D6
:103B9000C00600280BD5FFE700980068806820F475
:103BA0008050009A1168D26B10438860FFE700983C
:103BB00090F82800800600280BD5FFE700980068E1
:103BC000806820F40050009A1168126C10438860DD
:103BD000FFE7009890F82800400600281CD5FFE772
:103BE00000980068406820F48010009A1168526CB8
:103BF000104348600098406CB0F5801F0BD1FFE780
:103C000000980068406820F4C000009A1168926C27
:103C100010434860FFE7FFE7009890F8280000068F
:103C200000280BD5FFE700980068406820F40020CA
:103C3000009A1168D26C10434860FFE701B07047EA
:103C400080B588B0069006990020C1F89000FDF775
:103C500039FA0590069800680068000700282FD5FB
:103C6000FFE70698059B6A466FF07E4111604FF4AE
:103C70000011002200F0C4FB08B3FFE7FFE7FFE7F5
:103C80000698006850E8000F20F080000490FFE7DD
:103C900004990698026842E800100028F0D1FFE776
:103CA000FFE706992020C1F88800FFE70699002069
:103CB00081F88400FFE703208DF81F005FE0FFE735
:103CC0000698006800684007002842D5FFE706987C
:103CD000059B6A466FF07E4111604FF4800100221F
:103CE00000F08EFBA0B3FFE7FFE7FFE70698006850
:103CF00050E8000F20F490700390FFE703990698B6
:103D0000026842E800100028F0D1FFE7FFE7FFE774
:103D1000FFE70698006850E8020F20F001000290CB
:103D2000FFE702990698026842E802100028F0D1E5
:103D3000FFE7FFE706992020C1F88C00FFE706990E
:103D4000002081F88400FFE703208DF81F0016E0B3
:103D5000FFE706992020C1F888000699C1F88C0079
:103D600006990020C86606990867FFE706990020B3
:103D700081F88400FFE700208DF81F00FFE79DF821
:103D80001F0008B080BD000080B582B0019001988E
:103D9000806A009000990020A1F85E000099A1F8C7
:103DA00056000098FEF760FC02B080BD84B003901E
:103DB000FFE7FFE70398006850E8000F20F49070D9
:103DC0000290FFE702990398026842E80010002879
:103DD000F0D1FFE7FFE7FFE7FFE70398006850E84F
:103DE000020F4FF6FE71CEF6FF7108400190FFE71B
:103DF00001990398026842E802100028EDD1FFE71C
:103E0000FFE70398C06E012814D1FFE7FFE7FFE743
:103E10000398006850E8000F20F010000090FFE7C2
:103E200000990398026842E800100028F0D1FFE7EB
:103E3000FFE7FFE703992020C1F88C0003990020D9
:103E4000C8660399486704B07047000080B582B027
:103E50000190FFE7FFE70198006850E8000F20F0AD
:103E600040000090FFE700990198026842E80010C6
:103E70000028F0D1FFE7FFE701992020C1F8880072
:103E80000199002088670198FFF724F802B080BDEF
:103E900080B592B0119000208DF83700119800681D
:103EA00048F20001C4F20001884201D1FFE700E0BE
:103EB000FFE7119988680B694A69C969184310437B
:103EC0000843109011980068006846F6F311CCF68C
:103ED000FF7108401099084311990968086011980A
:103EE0000068406820F44050119A1168D26810436D
:103EF00048601198806910901198006848F200019C
:103F0000C4F20001884206D0FFE71198016A1098B8
:103F100008431090FFE71198006880684FF2FF4156
:103F2000C1F2FF110840109908431199096888608F
:103F300011980068C06A20F00F00119A1168526A47
:103F40001043C862FFE71198006843F60001C4F20D
:103F50000101884225D1FFE741F28800C4F2020046
:103F6000006800F0030001460A91032814D80A995A
:103F7000DFE801F0020A060E01208DF83D000FE097
:103F800002208DF83D000BE004208DF83D0007E095
:103F900008208DF83D0003E010208DF83D00FFE77C
:103FA000DCE01198006844F20041C4F2000188424C
:103FB0002AD1FFE741F28800C4F20200006800F055
:103FC0000C00014609910C2819D80999DFE801F085
:103FD000071717170F1717170B17171713000020BE
:103FE0008DF83D000FE002208DF83D000BE004202D
:103FF0008DF83D0007E008208DF83D0003E010201B
:104000008DF83D00FFE7A8E01198006844F6000134
:10401000C4F2000188422CD1FFE741F28800C4F2CB
:104020000200006800F030000146089160B1FFE72F
:104030000898102810D0FFE70898202808D0FFE73C
:10404000089830280CD00FE000208DF83D000FE0DC
:1040500002208DF83D000BE004208DF83D0007E0C4
:1040600008208DF83D0003E010208DF83D00FFE7AB
:1040700072E01198006844F60041C4F200018842E1
:104080002CD1FFE741F28800C4F20200006800F082
:10409000C0000146079160B1FFE70798402810D0A3
:1040A000FFE70798802808D0FFE70798C0280CD0C2
:1040B0000FE000208DF83D000FE002208DF83D005C
:1040C0000BE004208DF83D0007E008208DF83D004E
:1040D00003E010208DF83D00FFE73CE011980068F8
:1040E00048F20001C4F2000188422FD1FFE741F2FB
:1040F0008800C4F20200006800F4406001460691A6
:1041000078B1FFE70698B0F5806F12D0FFE7069808
:10411000B0F5006F09D0FFE70698B0F5406F0CD0FE
:104120000FE000208DF83D000FE002208DF83D00EB
:104130000BE004208DF83D0007E008208DF83D00DD
:1041400003E010208DF83D00FFE703E010208DF81C
:104150003D00FFE7FFE7FFE7FFE7FFE7FFE7119815
:10416000006848F20001C4F20001884240F07E80FD
:10417000FFE79DF83D0001460591082819D80599EB
:10418000DFE801F0051709170F1717171300FDF7E0
:1041900005FD0B9013E042F20040C0F2F4000B90DA
:1041A0000DE0FDF723FD0B9009E04FF400400B906C
:1041B00005E000200B9001208DF83700FFE70B98F9
:1041C000002852D0FFE70B9811994A6A45F27E21E8
:1041D000C0F6000131F81210B0FBF1F00C900C9811
:1041E0001199496801EB4101884207D3FFE70C9818
:1041F00011994968B0EB013F04D9FFE701208DF820
:10420000370031E00B9811994A6803924A6A45F2E7
:104210007E21C0F6000131F81220002304931946D4
:10422000FBF7F6FF039A049B090241EA10610002C2
:1042300010EB520041F10001FBF7EAFF0E900E98DF
:10424000B0F5407F0BD3FFE70E990020B0EB115F74
:1042500005D1FFE70E9811990968C86003E00120B5
:104260008DF83700FFE7FFE7FFE7B9E01198C06975
:10427000B0F5004F61D1FFE79DF83D000146029186
:1042800008281DD80299DFE801F005090D1B131B52
:104290001B1B1700FDF782FC0B9017E0FDF792FC4B
:1042A0000B9013E042F20040C0F2F4000B900DE0DE
:1042B000FDF79CFC0B9009E04FF400400B9005E0EB
:1042C00000200B9001208DF83700FFE70B9898B382
:1042D000FFE70B98119A5168536A45F27E22C0F6A7
:1042E000000232F81320B0FBF2F0400000EB510066
:1042F000B0FBF1F00E900E98102818D3FFE7BDF830
:104300003A00A0B9FFE70E9820F00F00ADF83E008C
:104310000E9800F00E01BDF83E0040EA5100ADF8E5
:104320003E00BDF83E0011990968C86003E0012015
:104330008DF83700FFE7FFE751E09DF83D000146AB
:10434000019108281DD80199DFE801F005090D1B2E
:10435000131B1B1B1700FDF721FC0B9017E0FDF74B
:1043600031FC0B9013E042F20040C0F2F4000B90DD
:104370000DE0FDF73BFC0B9009E04FF400400B9083
:1043800005E000200B9001208DF83700FFE70B9827
:1043900020B3FFE70B98119A5168536A45F27E22C9
:1043A000C0F6000232F81320B0FBF2F000EB51002F
:1043B000B0FBF1F00E900E9810280AD3FFE7BDF87D
:1043C0003A0030B9FFE7BDF8380011990968C860B4
:1043D00003E001208DF83700FFE7FFE7FFE7FFE785
:1043E00011990120A1F86A001199A1F868001199AA
:1043F00000204867119988679DF8370012B080BD8A
:1044000080B586B0DDF820C0049003918DF80B20B4
:104410000193FFE704980068C06903990840401AB7
:10442000B0FA80F040099DF80B10884266D1FFE792
:1044300008980130002860D0FFE7FCF743FE01999F
:10444000401A0899884203D8FFE7089820B9FFE787
:1044500003208DF8170055E00498006800684007B5
:10446000002849D5FFE70398802845D0FFE7039847
:10447000402841D0FFE704980068C06900F00801B7
:104480000120B0EBD10F16D1FFE704980168082096
:10449000009008620498FFF789FC00980499C1F81D
:1044A0009000FFE70499002081F88400FFE70120D5
:1044B0008DF8170026E004980068C06900F40061D8
:1044C0000120B0EBD12F16D1FFE7049801684FF41B
:1044D000006008620498FFF769FC04992020C1F885
:1044E0009000FFE70499002081F88400FFE7032093
:1044F0008DF8170006E0FFE7FFE78BE700208DF857
:104500001700FFE79DF8170006B080BD80B540F2A8
:104510009400C2F20000FEF7ABF880BDFFE7FEE7B3
:1045200081B08DF803009DF9030000280ED4FFE749
:104530009DF9031001F01F02012090404A094EF23C
:104540000011CEF2000141F82200FFE701B07047F0
:104550004EF60C50CEF200000068C0F30220704707
:1045600082B08DF8070000919DF9070000280AD459
:10457000FFE7009800019DF907104EF20042CEF2CD
:10458000000288540BE0009800019DF8071001F02C
:104590000F014EF61452CEF200028854FFE702B02B
:1045A0007047000083B00290029800F0070000906E
:1045B0004EF60C51CEF200010868019001984FF6BA
:1045C000FF02104001900198009A40EA0220002268
:1045D000C0F2FA52104301900198086003B070478E
:1045E00080B582B00190009140F29400C2F20000C8
:1045F00001A901220A23FEF7D1FB019802B080BD78
:1046000080B582B040F23711C2F20001002008707C
:1046100040F20040C4F600000121FCF725FD48B936
:10462000FFE740F23711C2F20001087840F00100C4
:104630000870FFE740F20040C4F600000221FCF7DA
:1046400013FD48B9FFE740F23711C2F200010878C4
:1046500040F002000870FFE740F20040C4F600009E
:104660000421FCF701FD48B9FFE740F23711C2F21F
:104670000001087840F004000870FFE74FF0904018
:104680000121FCF7F1FC48B9FFE740F23711C2F213
:104690000001087840F008000870FFE740F2371189
:1046A000C2F20001087840F23512C2F2000213781B
:1046B0004340034040F23410C2F20000037091F80E
:1046C00000C0137883EA0C0323EA0C0340F2361C83
:1046D000C2F2000C8CF800300978117000780138B3
:1046E00001460191072848D80199DFE801F0044309
:1046F00046444646464540F22810C2F20000007883
:1047000088B9FFE740F22811C2F2000101200870C9
:1047100040F23C10C2F20000006840F23011C2F2D8
:104720000001086025E040F22810C2F20000007885
:10473000F0B1FFE740F22910C2F200000078B8B9EA
:10474000FFE740F22811C2F200010020087040F299
:104750002911C2F200010120087040F23C10C2F29F
:104760000000006840F22C11C2F200010860FFE76F
:10477000FFE703E002E001E000E0FFE740F228107D
:10478000C2F200000078E0B1FFE740F23C10C2F254
:104790000000006840F23011C2F200010968401ABE
:1047A000B0F5967F0DD3FFE740F22811C2F2000169
:1047B0000020087045F2B020C0F6000000F0D2F8EA
:1047C000FFE740F22910C2F20000007828B3FFE7AB
:1047D00040F23610C2F20000007801281DD1FFE738
:1047E00040F22911C2F200010020087040F23C1092
:1047F000C2F20000006840F22C11C2F20001096808
:10480000401AB0F57A7F07D3FFE745F2A120C0F642
:10481000000000F0A7F8FFE7FFE702B080BD00004E
:1048200080B582B0FEF71AFC00200190FEF78AFBEB
:104830000198FEF789FC4FF6FF70FEF7A3FC02B06B
:1048400080BD00007047000080B586B040F60000D3
:10485000C4F6000001904FF47F4101220292FCF760
:104860001BFC019840F23811C2F2000109780902DC
:1048700000220592FCF710FC029A40F60040C4F6B4
:104880000000039004210491FCF706FC03980499AE
:10489000059AFCF701FC06B080BD000080B582B02F
:1048A00000200190FCF722FCFFF78CF8FEF74EFD8C
:1048B000FEF720FDFEF7E6FDFFF7B2FFFFF7C4FFAE
:1048C00045F29620C0F6000000F04CF8FFE700F03B
:1048D00001F8FCE780B582B002208DF807000020C7
:1048E0008DF80600FFE79DF806009DF80710884246
:1048F00036DAFFE740F23C10C2F2000000689DF893
:10490000061001EB410240F20C01C2F2000101EB82
:1049100082014A688968114488421AD3FFE79DF8EA
:10492000060000EB400140F20C00C2F200000090D3
:1049300050F821008047009940F23C10C2F200007C
:1049400000689DF8062002EB420201EB82018860BC
:10495000FFE7FFE79DF8060001308DF80600C2E78B
:1049600002B080BD0FB4054B10B503A9044A0298EC
:1049700000F0DAF810BC5DF814FB0000E145000817
:104980000000002002E008C8121F08C1002AFAD166
:1049900070477047002001E001C1121F002AFBD1BF
:1049A000704700002DE9FF5F82B00021DDE904308F
:1049B000020DDDF840B0034318D044F61050A2F2C7
:1049C000FF3242431514119801281FD0A5EB0B00AC
:1049D000401C5FEA000A4FF000064E4FDFF83891A6
:1049E000B046504615D5CAF1000413E011980124D1
:1049F0004AA3012801D16FEA0B010298119AC0E97C
:104A00000031C0E9024206B0BDE8F09FCBF10000E2
:104A1000DFE704460021404A491842EB0450CDE943
:104A2000001012E0E00707D032463B4640464946B8
:104A3000FBF70DFD8046894632463B461046194637
:104A4000FBF705FD06460F466410002CEAD1DDE9B0
:104A50000401DDE90023BAF1000F06DAFBF7F7FCE9
:104A600042464B46FBF7F3FC05E0FBF762FD42468E
:104A70004B46FBF75EFD04460E460022284BFBF733
:104A8000DFFD03D84FF0FF30014607E00022254B41
:104A900020463146FBF734FCFBF7BAFD102409E051
:104AA000002C0ADB0A220023FBF7B2FB039B303207
:104AB0001A55641E50EA0102F2D1641C039AC4F133
:104AC00011031444119A012A03D0012208430DD185
:104AD0000AE0084304D000204FF0110B119072E758
:104AE000A3EB0B056D1E0DE05B4504DD4FF00002EE
:104AF00005F1010504E003DA4FF00002A5F101051C
:104B0000002AECD002981199C0E90231C0E90045B1
:104B100079E70000000014400000F03F3000000082
:104B20000000F0430000E03F2DE9FF4F95B09B46A9
:104B30008946064600250FE2252877D1002427461E
:104B4000F84A0121059400E0044316F8013F203B98
:104B500001FA03F01042F7D130782A2811D06FF013
:104B60002F033078A0F13002092A16D8059A44F0B4
:104B7000020402EB820203EB42021044761C059011
:104B8000EFE759F8042B0592002A03DA504244F467
:104B90000054059044F00204761C30782E2816D17B
:104BA00016F8010F44F004042A280DD06FF02F02EC
:104BB0003078A0F13003092B09D807EB870302EB0B
:104BC0004303C718761CF3E759F8047B761C30784A
:104BD0006C280FD006DC4C2817D068280DD06A2826
:104BE00014D104E0742810D07A280FD10DE044F4D9
:104BF00000140AE044F4801401E044F44014727894
:104C0000824202D104F58014761C761C3078662826
:104C10000BD013DC582877D009DC002875D0452844
:104C2000F6D04628F4D047281AD19DE118E0632831
:104C300035D0642879D0652812D195E1702873D0D9
:104C400008DC6728F1D069286FD06E280DD06F2856
:104C500006D1B5E073282CD0752875D0782874D08B
:104C60005A46179990476D1C75E1C4F3025002280B
:104C700009D003280DD0D9F8001004280DD00D60FC
:104C800009F1040967E1D9F80010EA17C1E90052F7
:104C9000F6E7D9F800100D80F2E70D70F0E719F88B
:104CA000041B8DF8001000208DF80100EA46012059
:104CB00003E059F804AB4FF0FF3061074FF00001FB
:104CC00002D40DE008F101018846B9420FDA8045AF
:104CD000F8DB1AF808100029F4D108E008F1010106
:104CE00088468142FADB1AF808100029F6D10598A7
:104CF0005B46A0EB080721463846179A00F094FA65
:104D0000284400EB080507E04DE029E10DE01AF822
:104D1000010B5A4617999047B8F10108F7D25B4644
:104D200021463846179A13E142E00A220092C4F362
:104D300002524FF0000A022A08D059F804CB032A85
:104D40004FEAEC710AD00DE029E02AE009F10701F1
:104D500021F00702F2E802C1914609E00FFA8CFC4B
:104D60004FEAEC71042A03D14FFA8CFC4FEAEC7144
:104D7000002907DA0A460021DCF1000C61EB020190
:104D80002D2202E0220504D52B228DF804200122D9
:104D900003E0E20701D02022F7E7904659E00A211C
:104DA00002E010220DE010214FF0000A00910BE00C
:104DB00010224FF0000A44F004040827009203E098
:104DC00008224FF0000A0092C4F30252022A05D0D2
:104DD00059F804CB0021032A08D009E009F10701A2
:104DE00021F00702F2E802C1914605E01FFA8CFCAF
:104DF000042A01D10CF0FF0C4FF00008220728D53F
:104E0000702806D0009B83F0100353EA0A0305D0F4
:104E10000EE040228DF80420012208E05CEA010245
:104E200006D030228DF804208DF80500022290462D
:104E3000009B83F0080353EA0A030AD15CEA0102EB
:104E400001D1620705D530228DF804204FF001080A
:104E50007F1E582804D034A003900EA802900DE0C5
:104E600036A0F9E753466046009AFBF7D1F984462D
:104E70000398825C0298401E029002705CEA010076
:104E8000F0D1029806A9081A00F1200A600702D59D
:104E900024F4803400E00127574502DDA7EB0A0027
:104EA00000E0002000EB0A01009005984144401A00
:104EB0000590E00306D45B462146179A059800F05A
:104EC000B3F90544002706E001A85A46C05D1799CA
:104ED00090476D1C7F1C4745F6DBE0030CD55B4615
:104EE0002146179A059800F09FF9054404E0302008
:104EF0005A46179990476D1C0099481E009000294A
:104F0000F5DC08E0029802995A460078491C0291A3
:104F1000179990476D1CBAF10001AAF1010AF1DC62
:104F200065E100000928010030313233343536376D
:104F300038396162636465660000000030313233E5
:104F40003435363738394142434445460000000085
:104F500000F058F90544761C307800287FF4ECAD59
:104F600019B02846BDE8F08F620700D4062709F182
:104F7000070222F0070CFCE80223E14603F0004898
:104F80005FEA080C02D00FF2702C0DE05FEA045CBF
:104F900002D50FF2682C07E05FEAC47C02D00FF262
:104FA000602C01E0AFF2700C4FF0FF3823F00043AB
:104FB000CDF850C065280CD006DC452809D046281D
:104FC0001DD047283DD13DE0662818D067287ED106
:104FD00038E00021112F01DB112000E0781CCDE921
:104FE000000106A90EA8FFF7DDFCDDE90F010E9A0E
:104FF00003910021009207F1010A04914DE04FF066
:1050000000400097CDE9011006A90EA8FFF7CAFCE1
:10501000DDE90F0203920E9B11990022DDF80CA02E
:105020000093049211B9791C00EB010AB7EB0A0056
:1050300004D4C0F1FF3007F1010A0490AAEB070085
:10504000019044E0012F00DA01270021112F01DD3A
:10505000112000E03846CDE9000106A90EA8FFF7AF
:10506000A1FCDDE90F010E9A039100210491009249
:10507000BA4621070CD40399514500DA8A46BAF1A1
:10508000010F05DD009AAAF10101515C302908D019
:10509000B84202DA10F1040F06DA0121CDE901105D
:1050A00015E0AAF10101E9E7002805DC04990144B3
:1050B0000491AAEB000102E0411C514500DD8A4643
:1050C0000499401A401C01904FF0004002902007C4
:1050D00004D40198504501DBCDF8048000208DF800
:1050E0004F0002980DF14F07B0F1004F25D02B2053
:1050F0000E9002984FF0020800280CDA404202900D
:105100002D200E9007E00A210298FBF7C4F83031F9
:10511000029007F8011DB8F10001A8F10108F2DCC6
:1051200002980028EFD1791E0E980870307800F0B0
:10513000200040F0450007F8020D12A8C01B00F146
:1051400007081498007800B1012000EB0A010198CB
:1051500001EBE07105984144401A401E0590E003C0
:1051600006D45B462146179A059800F05DF8054481
:105170001498007818B15A46179990476D1CE003AF
:1051800024D55B462146179A059800F04DF8054452
:105190001CE00498002807DBDDE90301884203DDF9
:1051A0000098405C179901E0179930205A469047C3
:1051B000049805F10105401C04900198401E0190DF
:1051C00004D12E205A46179990476D1CBAF1000160
:1051D000AAF1010ADDDC05E017F8010B5A46179920
:1051E00090476D1CB8F10001A8F10108F4DC5B46A2
:1051F0002146179A0598ABE62D0000002B00000011
:10520000200000002DE9F041044600251E46174607
:10521000880404D405E039462020B0476D1C641E84
:10522000F9D52846BDE8F0812DE9F0410446002576
:105230001E469046C80301D5302700E02027880489
:1052400004D505E041463846B0476D1C641EF9D5CB
:105250002846BDE8F08100000000000000000102C7
:105260000304060708090000000001020304080403
:10527000020408010101010101030701000001000E
:1052800002000400060008000A000C0010002000C4
:105290004000800000016B657920746573740D0A0D
:1052A000006475616E202B206368616E670D0A00D3
:1052B0006475616E0D0A0000D852000800000020DD
:1052C0003000000084490008085300083000002026
:1052D000100500009449000800000000FFFF0000D6
:1052E0000024F400454800086400000000000000AD
:1052F000014600080A000000000000000100000054
:08530000100000000000000095
:04000005080001D915
:00000001FF
