:020000040800F2
:10000000F0050020ED010008753A00087D2E00087B
:10001000713A000881070008114B00080000000039
:10002000000000000000000000000000C13F0008C8
:100030008507000800000000E53A000819400008A4
:10004000070200080702000807020008070200086C
:10005000070200080702000807020008070200085C
:10006000070200080702000807020008070200084C
:10007000070200080702000807020008070200083C
:10008000070200080000000007020008070200083D
:10009000070200080702000807020008070200081C
:1000A000070200080702000807020008070200080C
:1000B00007020008AD400008BD4000080702000824
:1000C00007020008070200080702000807020008EC
:1000D00007020008070200080702000807020008DC
:1000E00007020008070200080702000807020008CC
:1000F00007020008070200080702000800000000CD
:1001000000000000070200080000000007020008CD
:100110000702000800000000CD400008DD40000894
:10012000070200080702000807020008070200088B
:10013000070200080000000000000000070200089D
:10014000070200080702000800000000000000008D
:10015000000000000000000000000000000000009F
:10016000000000000000000000000000070200087E
:10017000070200080000000000000000000000006E
:10018000000000000702000800000000000000005E
:10019000000000000000000000000000000000005F
:1001A000000000000000000007020008070200082D
:1001B000070200080702000807020008000000000C
:1001C000000000000702000800000000000000001E
:1001D0000702000807020008DFF80CD000F02AFA36
:1001E00000480047D1550008F00500200648804728
:1001F00006480047FEE7FEE7FEE7FEE7FEE7FEE70C
:10020000FEE7FEE7FEE7FEE799400008D901000897
:10021000D2B201E000F8012B491EFBD27047002248
:10022000F6E710B513460A4604461946FFF7F0FFF5
:10023000204610BD30B50B46014600202022012487
:1002400009E021FA02F59D4205D303FA02F5491BA4
:1002500004FA02F52844151EA2F10102F1DC30BDBA
:100260002DE9F05F0546002092469B4688460646EB
:10027000814640241BE0284641464746224600F07E
:1002800000FA53465A46C01A914110D311461846F7
:10029000224600F0E7F92D1A67EB01084F46224687
:1002A0000120002100F0DEF917EB00094E41201E6D
:1002B000A4F10104DFDC484631462A464346BDE846
:1002C000F09F2DE9FE4F804681EA0300C00F0C46E7
:1002D000009021F0004123F00045B8EB0200A94155
:1002E00005D24046214690461C460B46024623F066
:1002F0000040104347D0270DC7F30A00C3F30A514B
:100300000290401A019040286BDAC3F3130040F4C6
:10031000801B0098924620B10023D2EB030A63EBC6
:100320000B0B01985946C0F14002504600F09AF973
:1003300006460D4650465946019A00F0B2F910EBB8
:1003400008006141002487EA115284EAE7731A43E6
:1003500040D0009A62B3019A012A4FEA075215DC95
:10036000001B61EB02014FF0004202EA0752CDE9A7
:100370000042001C41F5801132462B4600F0B2F9D4
:1003800003B0BDE8F08F40462146F9E7001B61EB62
:100390000201001C41F5801300185B412018A2F5F2
:1003A000001747EB030140EAD570B6196D4111E023
:1003B0006D084FEA360645EAC0754FEA0752001B42
:1003C00061EB0201001C41F5801149084FEA300041
:1003D0000019514132462B4603B0BDE8F04F00F002
:1003E00072B90098012240000023D0EB020263EBB7
:1003F000E073009821464FEAE074B8EB000061EB2F
:100400000401E9E783F000435BE781F0004158E72E
:100410002DE9FE4F81EA030404F0004421F000417D
:1004200000944FF0000B23F0004350EA01045ED02B
:1004300052EA03045BD0C3F30A54C1F30A552C44B7
:10044000A4F2F3340194A0FB0254C1F3130141F46C
:100450008011C3F3130343F4801301FB024400FB38
:10046000034E840A970A44EA815447EA8357A4FB5F
:10047000076802958D0A05FB07854FEA932C04FB5C
:100480000C542705029D4FEA065847EA1637B5EB8C
:1004900008056EEB070C870E920E47EA811742EAB9
:1004A0008312A7FB0201B6EB0B0164EB00042B0DDA
:1004B00043EA0C335E1844EB1C50DA465146E7FB26
:1004C0000201C5F313044FEA0B3343EA14534FEA16
:1004D0000432019C43EA0603A4F10C040294009C3C
:1004E000CDE900B400F0FEF803B0BDE8F08F0020C5
:1004F0000146F9E72DE9F04D81EA030404F0004BD1
:1005000021F0004514464FF0000A23F0004150EA64
:10051000050220D054EA01021DD0C5F30A57024655
:10052000C5F31303C1F31300C1F30A5640F4801559
:1005300043F48013A7EB0608101BD64608F2FD38DB
:1005400073EB050002D308F1010801E092185B414A
:10055000B8F1000F03DA00200146BDE8F08D00205D
:100560004FF48011064684460EE0171B73EB050717
:1005700005D3121B63EB050306434CEA010C490843
:100580004FEA300092185B4150EA0107EDD152EA80
:10059000030012D082EA040083EA0501084305D073
:1005A000101BAB4106D20122002306E000224FF0CF
:1005B000004302E06FF0010253101AEB06004CEB0F
:1005C000085110EB0A0041EB0B01BDE8F04D00F0C3
:1005D0007AB8C1F30A52C1F3130140F2FF3341F478
:1005E00080119A4202DA00200146704740F23343FC
:1005F0009A42A2F2334202DC524200F042B800F0CA
:1006000031B8000030B5041E71F1000404DB4FF076
:100610000044404264EB0101141E73F1000405DB49
:100620001C464FF00043524263EB0403994208BF5B
:10063000904230BD1CB5094800900948019005461C
:10064000009C06E0E06840F0010394E8070098474A
:100650001034AC42F6D3FFF7C3FD0000B4730008BA
:10066000D4730008202A04DB203A00FA02F10020AB
:1006700070479140C2F1200320FA03F319439040E0
:100680007047202A04DB203A21FA02F0002170474B
:1006900021FA02F3D040C2F12002914008431946EA
:1006A0007047202A06DBCB17203A41FA02F043EAD2
:1006B000E07306E041FA02F3D040C2F1200291401B
:1006C00008431946704710B5141E73F1000408DA88
:1006D000401C41F1000192185B411A4301D120F006
:1006E000010010BD2DE9F04D92469B4611B1B1FAC3
:1006F00081F202E0B0FA80F220329046FFF7B2FFBA
:1007000004460F4640EA0A0041EA0B0153465A46A6
:10071000084313D0114653EA010019D0C8F1400232
:100720005046FFF7AEFF05460E4650465946424634
:10073000FFF798FF084305D0012004E02046394622
:10074000BDE8F08D0020054346EAE0762C433743B0
:100750000A986305E40AA0EB08000022FD0A44EAB7
:1007600047540A3002D500200146E9E70105101977
:100770006941DDE9084500196941BDE8F04DA2E78E
:10078000FFE7FEE77047000082B0ADF806000020EA
:10079000ADF80400FFE7BDF80400BDF8061088427C
:1007A00019DAFFE70020ADF80200FFE7BDF802000C
:1007B00040F6B731884207DCFFE7FFE7BDF80200EB
:1007C0000130ADF80200F1E7FFE7BDF804000130A9
:1007D000ADF80400DFE702B07047000081B0EFF32E
:1007E000108072B60090FFE7FEE7000080B584B08D
:1007F000039000F0FFF902900398019001980130F6
:1008000048B1FFE740F22400C2F2000001680198FD
:1008100008440190FFE7FFE700F0ECF90299401A65
:100820000199884201D2FFE7F6E704B080BD0000DD
:100830008BB00A90099100200890FFE709980068A2
:100840000899C840002800F0A581FFE709980068D2
:10085000089A01219140084007900798002800F06D
:100860009581FFE70998406800F00300012807D050
:10087000FFE70998406800F0030002282FD1FFE746
:100880000A988068069008984100032000FA01F158
:100890000698884306900998C0680899490000FAAC
:1008A00001F106980843069006980A9988600A980C
:1008B000406806900899012000FA01F106988843E3
:1008C000069009984068C0F30010089900FA01F1F9
:1008D00006980843069006980A994860FFE7099829
:1008E000406800F00300032818D0FFE70A98C068AA
:1008F000069008984100032000FA01F10698884309
:100900000690099880680899490000FA01F1069854
:100910000843069006980A99C860FFE7099840685E
:1009200000F00300022826D1FFE70A9808996FF02B
:10093000030202EA51010844006A0690089800F098
:10094000070081000F2000FA01F106988843069005
:1009500009980069089901F00701890000FA01F17E
:1009600006980843069006980A99089B02EA5302E3
:1009700011440862FFE70A98006806900898410051
:10098000032000FA01F10698884306900998406810
:1009900000F003000899490000FA01F106980843A5
:1009A000069006980A9908600998807980070028BF
:1009B00000F0EB80FFE7FFE741F26000C4F20200C5
:1009C000016841F001010160006800F0010005903C
:1009D0000598FFE7089820F003000821C4F2010100
:1009E00040580690089800F0030081000F2000FA9C
:1009F00001F10698884306900A98B0F1904F03D110
:100A0000FFE70020049042E00A9840F20041C4F65B
:100A10000001884203D1FFE70120039034E00A98E7
:100A200040F60001C4F60001884203D1FFE702202E
:100A3000029026E00A9840F60041C4F60001884280
:100A400003D1FFE70320019018E00A9841F200016A
:100A5000C4F60001884203D1FFE7042000900AE0B9
:100A60000A9941F20042C4F600020620914208BFF2
:100A700005200090FFE700980190FFE701980290A1
:100A8000FFE702980390FFE703980490FFE70498BC
:100A9000089901F00301890000FA01F10698084362
:100AA00006900698089921F003010822C4F2010279
:100AB000885040F20840C4F201000068069007998F
:100AC00006988843069009988079C006002805D5C5
:100AD000FFE70799069808430690FFE7069840F25B
:100AE0000841C4F20101086040F20C40C4F2010068
:100AF00000680690079906988843069009988079BF
:100B00008006002805D5FFE7079906980843069058
:100B1000FFE7069840F20C41C4F20101086040F280
:100B20000440C4F2010000680690079906988843C3
:100B30000690099880798007002805D5FFE7079976
:100B4000069808430690FFE7069840F20441C4F275
:100B50000101086040F20040C4F201000068069004
:100B6000079906988843069009988079C00728B1AC
:100B7000FFE70799069808430690FFE7069840F2BA
:100B80000041C4F201010860FFE7FFE70898013067
:100B9000089053E60BB0704782B00190ADF8021098
:100BA00001980069BDF80210084204D0FFE7012057
:100BB0008DF8010003E000208DF80100FFE79DF8AB
:100BC000010002B07047000082B00190ADF8021041
:100BD0008DF801209DF8010028B1FFE7BDF8020063
:100BE0000199886104E0BDF8020001998862FFE77D
:100BF00002B0704740F2EC10C2F20000006870478B
:100C000040F22400C2F20000026840F2EC11C2F28D
:100C100000010868104408607047000080B582B089
:100C2000002000908DF80700032000F09BF800984A
:100C300000F00EF820B1FFE701208DF8070002E078
:100C400000F04AF8FFE79DF8070002B080BD000001
:100C500080B582B0019000208DF8030040F224009E
:100C6000C2F20000006878B3FFE740F20400C2F26D
:100C70000000006840F22401C2F200010A684FF44B
:100C80007A71B1FBF2F1B0FBF1F000F045FFB0B9C1
:100C9000FFE701980F280DD8FFE701994FF0FF30CB
:100CA000002200F047F8019840F22801C2F200014A
:100CB000086003E001208DF80300FFE703E0012056
:100CC0008DF80300FFE703E001208DF80300FFE744
:100CD0009DF8030002B080BD80B582B0FFE741F20D
:100CE0006000C4F20200016841F001010160006887
:100CF00000F0010001900198FFE7FFE741F2580082
:100D0000C4F20200016841F080510160006800F007
:100D1000805000900098FFE700F006F902B080BD17
:100D200080B582B08DF807009DF9070003F0F2FE50
:100D300002B080BD80B586B08DF817000491039293
:100D400003F000FF02909DF91700019002980499AA
:100D5000039A02F091FE0146019803F0FBFE06B0F3
:100D600080BD000080B582B00190019803F014FFAF
:100D700002B080BD85B00390039800285ED1FFE7E4
:100D800047F20000C4F20000006800F4C060B0F553
:100D9000806F49D1FFE747F28001C4F20001086883
:100DA00020F48070086047F20002C4F2000211686B
:100DB000012060F34A21116040F20401C2F20001F7
:100DC0000968322251434DF68362C4F21B32A1FB03
:100DD000022100EB91400290FFE747F21400C4F2B9
:100DE00000000168002049050029019006D5FFE7B1
:100DF0000298002818BF01200190FFE70198C00762
:100E000020B1FFE7029801380290E6E747F21400AC
:100E1000C4F2000000684005002804D5FFE7032065
:100E20008DF813007CE008E047F28001C4F2000175
:100E3000086820F480700860FFE76DE00398B0F563
:100E4000007F5ED1FFE747F20000C4F200000068B7
:100E500000F4C060B0F5806F49D1FFE747F2800130
:100E6000C4F20001086840F48070086047F2000294
:100E7000C4F200021168012060F34A21116040F2BF
:100E80000401C2F200010968322251434DF6836227
:100E9000C4F21B32A1FB022100EB91400290FFE75C
:100EA00047F21400C4F2000001680020490500293F
:100EB000009006D5FFE70298002818BF0120009097
:100EC000FFE70098C00720B1FFE7029801380290C1
:100ED000E6E747F21400C4F200000068400500286D
:100EE00004D5FFE703208DF8130019E008E047F26E
:100EF0008001C4F20001086840F480700860FFE7D8
:100F000009E047F20001C4F200010868022262F31E
:100F10004A200860FFE7FFE700208DF81300FFE795
:100F20009DF8130005B0704747F20801C4F20001B4
:100F3000086840F4804008607047000080B586B0C3
:100F40000490039100200090049820B9FFE701204D
:100F50008DF8170081E1039842F20001C4F202010A
:100F6000096801F00F01884216D9FFE742F200003C
:100F7000C4F20200016821F00F01039A11430160DD
:100F8000006800F00F000399884204D0FFE70120B9
:100F90008DF8170061E1FFE704980078C00700288A
:100FA00000F0A380FFE704984068032839D1FFE7E9
:100FB00041F20000C4F2020000688001002804D45D
:100FC000FFE701208DF8170047E102F08DFD019049
:100FD00001984BF20141C0F2C441884220D3FFE79F
:100FE00041F20800C4F20200006810F0F00F0AD0CD
:100FF000FFE7049800788007002810D5FFE70498E1
:10100000806860B9FFE741F20801C4F20201086894
:10101000082262F30710086080200090FFE7FFE7D6
:1010200038E00498406802280ED1FFE741F2000042
:10103000C4F2020000688003002804D4FFE7012006
:101040008DF8170009E10DE041F20000C4F2020042
:1010500000684005002804D4FFE701208DF8170040
:10106000FBE0FFE700F0FEF8019001984BF2014130
:10107000C0F2C44188420CD3FFE741F20801C4F238
:1010800002010868082262F30710086080200090BF
:10109000FFE7FFE741F20801C4F20201086820F00F
:1010A0000300049A526810430860FFF7A3FD029002
:1010B000FFE741F20800C4F20200006800F00C00F3
:1010C00004994968B0EB810F0ED0FFE7FFF792FD5E
:1010D0000299401A41F28931884204D3FFE7032084
:1010E0008DF81700B9E0E4E7FFE70498007880077F
:1010F00000282CD5FFE7049800784007002809D580
:10110000FFE741F20801C4F20201086840F4E06020
:101110000860FFE704980078000700280BD5FFE778
:1011200041F20801C4F20201086840F4E06020F4D2
:1011300060500860FFE741F20801C4F2020108684C
:1011400020F0F000049A9268104308600DE00098C7
:10115000802809D1FFE741F20801C4F202010868C2
:1011600020F0F0000860FFE7FFE7039842F200017B
:10117000C4F20201096801F00F01884228D2FFE79A
:1011800042F20001C4F20201086820F00F00039A45
:1011900010430860FFF72EFD0290FFE742F20000C7
:1011A000C4F20200006800F00F00039988420ED0DC
:1011B000FFE7FFF71FFD0299401A41F2893188428B
:1011C00004D3FFE703208DF8170046E0E6E7FFE7CA
:1011D00004980078400700280CD5FFE741F2080189
:1011E000C4F20201086820F4E060049AD268104357
:1011F0000860FFE704980078000700280DD5FFE796
:1012000041F20801C4F20201086820F46050049A17
:10121000126940EAC2000860FFE700F023F841F2DB
:101220000801C4F202010968C9B20A0946F2741140
:10123000C0F60001895C01F01F01C84040F20401C2
:10124000C2F20001086040F22800C2F2000000680B
:10125000FFF7FEFC8DF81700FFE79DF8170006B0BA
:1012600080BD000086B041F20800C4F202000068B0
:1012700000F00C00042806D1FFE742F20040C0F263
:10128000F400019069E041F20800C4F20200006835
:1012900000F00C00082806D1FFE743F20060C0F21E
:1012A0006E10019058E041F20800C4F2020000689C
:1012B00000F00C000C284BD1FFE741F20C00C4F207
:1012C0000200016801F0030104910068C1B201202D
:1012D00000EB1110029004980090022815D0FFE74F
:1012E0000098032812D1FFE7029943F20060C0F290
:1012F0006E10B0FBF1F041F20C01C4F2020109687A
:10130000C1F306214843059011E0FFE7029942F23C
:101310000040C0F2F400B0FBF1F041F20C01C4F265
:1013200002010968C1F3062148430590FFE741F235
:101330000C00C4F20200006800F0C061022000EB63
:101340001160039005980399B0FBF1F0019002E061
:1013500000200190FFE7FFE7FFE7019806B0704724
:10136000B0B588B00690069820B9FFE701208DF847
:101370001F00CCE306980078C007002800F09B808F
:10138000FFE741F20800C4F20200006800F00C0020
:10139000049041F20C00C4F20200006800F0030067
:1013A000039004980C2804D1FFE70398032804D085
:1013B000FFE70498082812D1FFE741F20000C4F2C9
:1013C000020000688003002808D5FFE706984068FF
:1013D00020B9FFE701208DF81F0098E36AE0FFE7DE
:1013E00006984068B0F5803F09D1FFE741F200015F
:1013F000C4F20201086840F48030086020E00698DA
:101400004068B0F5A02F0DD1FFE741F20001C4F212
:101410000201086840F480200860086840F48030C9
:1014200008600CE041F20001C4F20201086820F4F7
:1014300080300860086820F480200860FFE7FFE73C
:10144000FFE706984068D0B1FFE7FFF7D3FB0590B0
:10145000FFE741F20000C4F20200006880030028A8
:101460000CD4FFE7FFF7C6FB0599401A652804D3A3
:10147000FFE703208DF81F0049E3EAE719E0FFF7D3
:10148000B9FB0590FFE741F20000C4F202000068DA
:10149000800300280CD5FFE7FFF7ACFB0599401A45
:1014A000652804D3FFE703208DF81F002FE3EAE748
:1014B000FFE7FFE7FFE7069800788007002840F184
:1014C0009F80FFE741F20800C4F20200006800F0CC
:1014D0000C00049041F20C00C4F20200006800F01D
:1014E0000300039004980C2804D1FFE70398022816
:1014F00004D0FFE7049804282CD1FFE741F2000054
:10150000C4F2020000684005002808D5FFE70698ED
:10151000C06820B9FFE701208DF81F00F7E241F213
:101520000401C4F20201086820F0FE40069A126924
:1015300040EA0260086040F22800C2F20000006841
:10154000FFF786FB20B1FFE701208DF81F00DEE2E8
:10155000FFE754E00698C06870B3FFE741F200016E
:10156000C4F20201086840F480700860FFF742FB93
:101570000590FFE741F20000C4F202000068400558
:1015800000280CD4FFE7FFF735FB0599401A032824
:1015900004D3FFE703208DF81F00B8E2EAE741F229
:1015A0000401C4F20201086820F0FE40069A1269A4
:1015B00040EA0260086021E041F20001C4F2020149
:1015C000086820F480700860FFF714FB0590FFE7BF
:1015D00041F20000C4F202000068400500280CD56A
:1015E000FFE7FFF707FB0599401A032804D3FFE73D
:1015F00003208DF81F008AE2EAE7FFE7FFE7FFE735
:10160000069800780007002849D5FFE7069840694A
:1016100010B3FFE741F29401C4F20201086840F000
:1016200001000860FFF7E6FA0590FFE741F2940039
:10163000C4F202000068800700280CD4FFE7FFF71F
:10164000D9FA0599401A032804D3FFE703208DF83F
:101650001F005CE2EAE721E041F29401C4F20201DA
:10166000086820F001000860FFF7C4FA0590FFE762
:1016700041F29400C4F202000068800700280CD5F3
:10168000FFE7FFF7B7FA0599401A032804D3FFE7ED
:1016900003208DF81F003AE2EAE7FFE7FFE706982C
:1016A00000784007002840F1C680FFE700208DF851
:1016B0000B0041F25800C4F202000068C00000288C
:1016C00013D4FFE7FFE741F25800C4F202000168BB
:1016D00041F080510160006800F080500190019855
:1016E000FFE701208DF80B00FFE747F20000C4F28E
:1016F00000000068C005002822D4FFE747F200017F
:10170000C4F20001086840F480700860FFF772FAC4
:101710000590FFE747F20000C4F200000068C00532
:1017200000280CD4FFE7FFF765FA0599401A032853
:1017300004D3FFE703208DF81F00E8E1EAE7FFE7A5
:10174000FFE706988068012809D1FFE741F2900180
:10175000C4F20201086840F0010008601FE006982A
:10176000806805280DD1FFE741F29001C4F2020123
:10177000086840F004000860086840F00100086054
:101780000CE041F29001C4F20201086820F001006F
:101790000860086820F004000860FFE7FFE7FFE743
:1017A00006988068E0B1FFE7FFF724FA0590FFE7AD
:1017B00041F29000C4F202000068800700280ED4B5
:1017C000FFE7FFF717FA0599401A41F2893188427D
:1017D00004D3FFE703208DF81F0098E1E8E71BE042
:1017E000FFF708FA0590FFE741F29000C4F202000B
:1017F0000068800700280ED5FFE7FFF7FBF9059981
:10180000401A41F28931884204D3FFE703208DF862
:101810001F007CE1E8E7FFE79DF80B00012809D1F4
:10182000FFE741F25801C4F20201086820F080503D
:101830000860FFE7FFE7069800788006002849D592
:10184000FFE70698806910B3FFE741F29801C4F200
:101850000201086840F001000860FFF7CBF905902D
:10186000FFE741F29800C4F20200006880070028F8
:101870000CD4FFE7FFF7BEF90599401A032804D3FB
:10188000FFE703208DF81F0041E1EAE721E041F284
:101890009801C4F20201086820F001000860FFF717
:1018A000A9F90590FFE741F29800C4F20200006830
:1018B000800700280CD5FFE7FFF79CF90599401A2F
:1018C000032804D3FFE703208DF81F001FE1EAE798
:1018D000FFE7FFE70698C069002800F01481FFE7E2
:1018E00041F20800C4F20200006800F00C000C286D
:1018F00000F0B080FFE70698C06902287CD1FFE7BE
:1019000041F20001C4F20201086820F08070086012
:10191000FFF770F90590FFE741F20000C4F2020002
:101920000068800100280CD5FFE7FFF763F90599EF
:10193000401A032804D3FFE703208DF81F00E6E0D8
:10194000EAE741F20C01C4F20201086848F20C0215
:10195000C0F29F121040DDF818C0DCF82020DCF83F
:101960002450DCF828E0DCF82C306FF00F0404EB96
:101970000514224342EA0E22DCF8304040F2000E09
:10198000CFF6E07E0EEA045EAEF5001E42EA0E02DD
:10199000DCF834E04FF07E4C0CEA0E6C0CF17E4C1F
:1019A00042EA0C0242EAC3621043086041F20002BC
:1019B000C4F20202106840F080701060086840F0C5
:1019C00080700860FFF716F90590FFE741F200000C
:1019D000C4F202000068800100280CD4FFE7FFF782
:1019E00009F90599401A032804D3FFE703208DF86D
:1019F0001F008CE0EAE72CE041F20001C4F2020192
:101A0000086820F080700860FFF7F4F80590FFE7A1
:101A100041F20000C4F202000068800100280CD5E9
:101A2000FFE7FFF7E7F80599401A032804D3FFE71B
:101A300003208DF81F006AE0EAE741F20C01C4F2CE
:101A4000020108684FF6FC72CFF6EE6210400860A3
:101A5000FFE757E00698C069012804D1FFE701209D
:101A60008DF81F0053E041F20C00C4F20200006840
:101A70000390039800F003000699096A88423BD15D
:101A8000FFE7039800F0F00006994A6A6FF00F0133
:101A900001EB021188422FD1FFE7039800F4FE40CA
:101AA0000699896AB0EB012F26D1FFE7039800F071
:101AB00078400699C96AB0EBC16F1DD1FFE7039862
:101AC00000F4C00006990A6B0021CFF6E07101EA2C
:101AD0000251A1F5001188420ED1FFE7039800F0F2
:101AE000C06006994A6B4FF07E4101EA026101F144
:101AF0007E41884204D0FFE701208DF81F0006E0F8
:101B0000FFE7FFE7FFE700208DF81F00FFE79DF8E4
:101B10001F0008B0B0BD000080B582B001900198F0
:101B200002F050FA02B080BD81B0009001B0704761
:101B300081B0009001B0704781B0009001B0704753
:101B400084B00290019100200090FFE7029890F885
:101B50003C00012804D1FFE702208DF80F0083E04C
:101B60000299012081F83C00FFE7FFE7009820F090
:101B7000FF000199C96808430090009820F4407064
:101B80000199896808430090009820F480600199C9
:101B9000496808430090009820F4006001990968A2
:101BA00008430090009820F4805001990969084387
:101BB0000090009820F40050019949690843009072
:101BC000009820F480400199096B08430090009828
:101BD00020F470200199896940EA01400090009842
:101BE00020F080500199C96908430090029800686C
:101BF00042F60041C4F20101884209D0FFE7029891
:101C0000006843F20041C4F2010188421ED1FFE79F
:101C1000009820F470000199896A40EA0150009010
:101C2000009820F080700199096A0843009000989C
:101C300020F000700199496A08430090009820F054
:101C400000500199C96A08430090FFE70098029983
:101C500009684864FFE70299002081F83C00FFE72B
:101C600000208DF80F00FFE79DF80F0004B07047CB
:101C700081B0009001B0704781B0009001B0704712
:101C800081B0009001B0704785B003900291FFE7EA
:101C9000039890F83C00012804D1FFE702208DF85A
:101CA00013008CE00399012081F83C00FFE7FFE777
:101CB0000399022081F83D00039800684068019074
:101CC00003980068806800900398006842F600411D
:101CD000C4F20101884209D0FFE70398006843F28B
:101CE0000041C4F2010188420AD1FFE7019820F4C3
:101CF0007000019002984168019808430190FFE745
:101D000001984FF68F71CFF6FF510840019002986D
:101D10000168019808430190019803990968486097
:101D20000398006842F60041C4F2010188422AD0BB
:101D3000FFE703980068B0F1804F24D0FFE70398D5
:101D4000006840F20041C4F2000188421BD0FFE766
:101D50000398006840F60001C4F20001884212D0E6
:101D6000FFE70398006843F20041C4F20101884292
:101D700009D0FFE70398006844F20001C4F20101B2
:101D800088420ED1FFE7009820F080000090029872
:101D9000816800980843009000980399096888605A
:101DA000FFE70399012081F83D00FFE70399002038
:101DB00081F83C00FFE700208DF81300FFE79DF855
:101DC000130005B07047000081B0009001B070476B
:101DD00080B582B00090009820B9FFE701208DF80F
:101DE000070045E0009890F83D0040B9FFE70099F2
:101DF000002081F83C00009800F03EF8FFE70099D1
:101E0000022081F83D00009951F8040B02F06EF9B0
:101E10000099012081F84800FFE70099012081F82E
:101E20003E00009981F83F00009981F84000009938
:101E300081F84100009981F84200009981F843003F
:101E4000FFE7FFE70099012081F84400009981F83D
:101E50004500009981F84600009981F84700FFE7A6
:101E60000099012081F83D0000208DF80700FFE770
:101E70009DF8070002B080BD80B58AB0099009982E
:101E8000006840F20041C4F20001884219D1FFE726
:101E9000FFE741F25800C4F20200016841F002017C
:101EA0000160006800F0020008900898FFE71D201C
:101EB000039000221146FEF73DFF0398FEF730FF26
:101EC00082E00998006840F60001C4F200018842EF
:101ED00019D1FFE7FFE741F25800C4F202000168A0
:101EE00041F004010160006800F0040007900798C9
:101EF000FFE71E20029000221146FEF71BFF02980A
:101F0000FEF70EFF5FE00998006841F20001C4F29D
:101F10000001884219D1FFE7FFE741F25800C4F2FF
:101F20000200016841F010010160006800F010003B
:101F300006900698FFE73620019000221146FEF732
:101F4000F9FE0198FEF7ECFE3CE00998006841F2CA
:101F50000041C4F20001884219D1FFE7FFE741F2D6
:101F60005800C4F20200016841F0200101600068DD
:101F700000F0200005900598FFE737200090002230
:101F80001146FEF7D7FE0098FEF7CAFE19E0099841
:101F9000006844F20041C4F20101884210D1FFE719
:101FA000FFE741F26000C4F20200016841F4003131
:101FB0000160006800F4003004900498FFE7FFE738
:101FC000FFE7FFE7FFE7FFE70AB080BD83B00190BE
:101FD000019890F83D00012804D0FFE701208DF81A
:101FE0000B0060E00199022081F83D000198016832
:101FF000C86840F00100C8600198006842F60041DE
:10200000C4F2010188422AD0FFE701980068B0F1CC
:10201000804F24D0FFE70198006840F20041C4F2ED
:10202000000188421BD0FFE70198006840F60001DC
:10203000C4F20001884212D0FFE70198006843F221
:102040000041C4F20101884209D0FFE7019800680D
:1020500044F20001C4F20101884219D1FFE701985E
:10206000006880680721C0F20101084000900098D4
:1020700006280CD0FFE70098B0F5803F07D0FFE7B7
:1020800001980168086840F001000860FFE706E079
:1020900001980168086840F001000860FFE700202F
:1020A0008DF80B00FFE79DF80B0003B070470000B0
:1020B00081B0009000980168C86820F00100C860F5
:1020C000FFE700980068006A41F21111084210D140
:1020D000FFE700980068006A44F24441084207D1D3
:1020E000FFE700980168086820F001000860FFE73A
:1020F000FFE7FFE70099012081F83D00002001B0D3
:102100007047000080B586B00490039100208DF8E0
:102110000B00FFE7049890F83C00012804D1FFE78A
:1021200002208DF81700D3E00499012081F83C00CB
:10213000FFE7FFE70499022081F83D00049800685A
:102140008068019001984FF68871CFF6CE710840F3
:102150000190019820F47F4001900198049909684A
:102160008860039800680090002800F09780FFE7DF
:102170000098102800F09280FFE70098202800F0D7
:102180008D80FFE70098302800F08880FFE70098F6
:10219000402876D0FFE70098502858D0FFE70098F5
:1021A000602861D0FFE7009870282CD0FFE70098E6
:1021B000B0F5805F26D0FFE70098B0F5005F37D01C
:1021C000FFE70098B0F1101F68D0FFE700982021CA
:1021D000C0F21001884261D0FFE700983021C0F2C0
:1021E000100188425AD0FFE700984021C0F2100148
:1021F000884253D0FFE700987021C0F21001884256
:102200004CD052E055E004980068039B5A689968E6
:10221000DB6802F053F80498006880680190019828
:1022200040F077000190019804990968886040E0C7
:1022300004980068039B5A689968DB6802F03EF8CE
:1022400004980168886840F48040886031E0049810
:102250000068039A5168D26802F008FC049800688C
:10226000502102F045F824E004980068039A516870
:10227000D26802F023FC04980068602102F038F86C
:1022800017E004980068039A5168D26802F0EEFBE8
:1022900004980068402102F02BF80AE004980068D6
:1022A0000399096802F024F803E001208DF80B007F
:1022B000FFE70499012081F83D00FFE70499002021
:1022C00081F83C00FFE79DF80B008DF81700FFE751
:1022D0009DF8170006B080BD81B0009001B0704736
:1022E00080B584B0039003980068C068029003989A
:1022F0000068006901909DF804008007002824D53B
:10230000FFE79DF80800800700281DD5FFE7039828
:1023100001686FF0020008610399012008770398B3
:1023200000688069800720B1FFE70398FFF7D4FFBA
:1023300006E0039800F086F9039800F0B7FAFFE78B
:10234000039900200877FFE7FFE79DF804004007A6
:10235000002825D5FFE79DF80800400700281ED576
:10236000FFE7039801686FF00400086103990220F9
:10237000087703980068806910F4407F04D0FFE775
:102380000398FFF7A9FF06E0039800F05BF90398B4
:1023900000F08CFAFFE7039900200877FFE7FFE7DA
:1023A0009DF804000007002824D5FFE79DF80800E9
:1023B000000700281DD5FFE7039801686FF00800AB
:1023C000086103990420087703980068C0698007B2
:1023D00020B1FFE70398FFF77FFF06E0039800F0C6
:1023E00031F9039800F062FAFFE7039900200877BB
:1023F000FFE7FFE79DF80400C006002825D5FFE7AA
:102400009DF80800C00600281ED5FFE70398016864
:102410006FF010000861039908200877039800689E
:10242000C06910F4407F04D0FFE70398FFF754FF22
:1024300006E0039800F006F9039800F037FAFFE78A
:10244000039900200877FFE7FFE79DF80400C00725
:1024500078B1FFE79DF80800C00748B1FFE703988F
:1024600001686FF001000861039800F013FCFFE7BA
:10247000FFE7019800F08000802806D0FFE79DF874
:1024800005008006002810D5FFE79DF8080000062B
:10249000002809D5FFE7039801686FF4025008612E
:1024A0000398FFF745FBFFE7FFE79DF80500C0072E
:1024B00080B1FFE79DF808000006002809D5FFE776
:1024C000039801686FF4807008610398FFF72CFB94
:1024D000FFE7FFE79DF804004006002810D5FFE75E
:1024E0009DF808004006002809D5FFE70398016819
:1024F0006FF040000861039800F0BCFCFFE7FFE7C5
:102500009DF804008006002810D5FFE79DF808001C
:102510008006002809D5FFE7039801686FF02000C6
:1025200008610398FFF708FBFFE7FFE79DF8060047
:10253000C006002810D5FFE79DF80A00C006002855
:1025400009D5FFE7039801686FF4801008610398CC
:10255000FFF792FBFFE7FFE79DF8060080060028E3
:1025600010D5FFE79DF80A008006002809D5FFE78F
:10257000039801686FF4001008610398FFF778FB77
:10258000FFE7FFE79DF806004006002810D5FFE7AB
:102590009DF80A004006002809D5FFE70398016866
:1025A0006FF4800008610398FFF76AFBFFE7FFE71D
:1025B0009DF806000006002810D5FFE79DF80A00E8
:1025C0000006002809D5FFE7039801686FF40000B2
:1025D00008610398FFF7F8FBFFE7FFE704B080BD51
:1025E00080B588B007900020069005900490039075
:1025F00002900798006844F20041C4F20101884249
:102600001ED1FFE7FFE741F24C00C4F2020001686F
:1026100041F001010160006800F0010001900198A3
:10262000FFE74020029002200390002004900590D4
:10263000012006904FF0904002A9FEF7F9F8FFE75D
:1026400008B080BD81B0009001B0704780B586B001
:1026500004900391029200208DF80700FFE7049890
:1026600090F83C00012804D1FFE702208DF8170004
:10267000C0E00499012081F83C00FFE7FFE70298E1
:102680000090142800F2A7800099DFE801F00BA465
:10269000A4A424A4A4A43EA4A4A457A4A4A471A460
:1026A000A4A48A0004980068039901F039FE0498F4
:1026B0000168886940F008008861049801688869A9
:1026C00020F0040088610398026904980168886911
:1026D0001043886183E004980068039901F0CAFE02
:1026E00004980168886940F4006088610498016872
:1026F000886920F480608861039802690498016801
:10270000886940EA0220886169E0049800680399BA
:1027100001F068FF04980168C86940F00800C861CA
:1027200004980168C86920F00400C8610398026930
:1027300004980168C8691043C86150E004980068B3
:10274000039902F007F804980168C86940F4006032
:10275000C86104980168C86920F48060C861039862
:10276000026904980168C86940EA0220C86136E03D
:1027700004980068039902F0A5F804980168086DB0
:1027800040F00800086504980168086D20F0040016
:1027900008650398026904980168086D104308658C
:1027A0001DE004980068039902F0F6F804980168A7
:1027B000086D40F40060086504980168086D20F415
:1027C000806008650398026904980168086D40EA12
:1027D0000220086503E001208DF80700FFE7FFE70E
:1027E0000499002081F83C00FFE79DF807008DF870
:1027F0001700FFE79DF8170006B080BD80B582B0D6
:102800000090009820B9FFE701208DF8070045E00F
:10281000009890F83D0040B9FFE70099002081F84A
:102820003C00009800F03EF8FFE70099022081F894
:102830003D00009951F8040B01F058FC009901206B
:1028400081F84800FFE70099012081F83E000099D7
:1028500081F83F00009981F84000009981F841001B
:10286000009981F84200009981F84300FFE7FFE7F3
:102870000099012081F84400009981F845000099F1
:1028800081F84600009981F84700FFE70099012090
:1028900081F83D0000208DF80700FFE79DF8070054
:1028A00002B080BD81B0009001B0704781B000904F
:1028B00001B0704780B590B00E900D910D9828B979
:1028C000FFE70E9890F83E000B9034E00D98042836
:1028D00005D1FFE70E9890F83F000A9028E00D9888
:1028E000082805D1FFE70E9890F8400009901CE0F9
:1028F0000D980C2805D1FFE70E9890F8410008903C
:1029000010E00D98102805D1FFE70E9890F84200CE
:10291000079004E00E9890F843000790FFE70798AF
:102920000890FFE708980990FFE709980A90FFE7E9
:102930000A980B90FFE70B98012804D0FFE70120CD
:102940008DF83F00E1E00D9828B9FFE70E990220CD
:1029500081F83E0038E00D98042806D1FFE70E9973
:10296000022081F83F0006902CE00D98082806D13F
:10297000FFE70E99022081F8400005901FE00D98B6
:102980000C2806D1FFE70E99022081F8410004903F
:1029900012E00D98102806D1FFE70E99022081F869
:1029A0004200039005E00E99022081F84300039055
:1029B000FFE703980490FFE704980590FFE7059868
:1029C0000690FFE70698FFE70E9800680D99012230
:1029D000019201F057FC01980E99096842F60042F5
:1029E000C4F20102914202902DD0FFE70E980168D7
:1029F000012043F20042C4F201029142029022D02F
:102A0000FFE70E980168012044F20002C4F20102BF
:102A10009142029017D0FFE70E980168012044F21E
:102A20000042C4F20102914202900CD0FFE70E98DE
:102A300000684BF60001CBF6FE710844B0FA80F056
:102A400040090290FFE70298C00738B1FFE70E98EF
:102A50000168486C40F400404864FFE70E98006845
:102A600042F60041C4F2010188422AD0FFE70E98E5
:102A70000068B0F1804F24D0FFE70E98006840F264
:102A80000041C4F2000188421BD0FFE70E980068A5
:102A900040F60001C4F20001884212D0FFE70E9810
:102AA000006843F20041C4F20101884209D0FFE707
:102AB0000E98006844F20001C4F20101884219D165
:102AC000FFE70E98006880680721C0F20101084006
:102AD0000C900C9806280CD0FFE70C98B0F5803FBE
:102AE00007D0FFE70E980168086840F00100086011
:102AF000FFE706E00E980168086840F001000860F2
:102B0000FFE700208DF83F00FFE79DF83F0010B081
:102B100080BD000080B588B00790069107980068D6
:102B20000699002201F0AEFB07980168012042F6E9
:102B30000042C4F20102914205902DD0FFE70798B0
:102B40000168012043F20042C4F201029142059063
:102B500022D0FFE707980168012044F20002C4F286
:102B600001029142059017D0FFE707980168012004
:102B700044F20042C4F20102914205900CD0FFE7FA
:102B8000079800684BF60001CBF6FE710844B0FAD6
:102B900080F040090590FFE70598C007D8B1FFE72E
:102BA000FFE707980068006A41F21111084210D14E
:102BB000FFE707980068006A44F24441084207D1E1
:102BC000FFE707980168486C20F400404864FFE77D
:102BD000FFE7FFE7FFE7FFE707980068006A41F2B9
:102BE0001111084210D1FFE707980068006A44F20B
:102BF0004441084207D1FFE707980168086820F0C0
:102C000001000860FFE7FFE7FFE7069828B9FFE744
:102C10000799012081F83E0038E00698042806D183
:102C2000FFE70799012081F83F0004902CE0069807
:102C3000082806D1FFE70799012081F8400003909A
:102C40001FE006980C2806D1FFE70799012081F8BC
:102C50004100029012E00698102806D1FFE707997C
:102C6000012081F84200019005E00799012081F8D8
:102C700043000190FFE701980290FFE7029803905C
:102C8000FFE703980490FFE70498FFE7002008B0EF
:102C900080BD000080B584B003900398006841F2C5
:102CA0000001C4F20001884238D1FFE740F2201051
:102CB000C2F20000FFF7FCF940F2B811C2F20001C5
:102CC0000020087040F2D110C2F200000078022803
:102CD00023D1FFE740F20900C2F20000007800EBC8
:102CE000400340F2D210C2F20000C1180288C25262
:102CF0008078887002F08CFD40F2D111C2F20001A0
:102D00000020087040F2EC10C2F20000006840F2AF
:102D1000E811C2F200010860FFE7FFE703980068CE
:102D200041F20041C4F2000188422FD1FFE740F296
:102D3000D110C2F200000078012808D0FFE740F26D
:102D4000D110C2F20000007803281ED1FFE740F244
:102D50006C10C2F20000FFF7ABF940F2C011C2F2F2
:102D600000010020087040F2D111C2F20001087089
:102D700002F07AFC40F2E411C2F20001087800F09F
:102D8000FE00087002F0FAFBFFE7FFE70398006817
:102D900040F60001C4F20001884239D1FFE740F259
:102DA000D110C2F200000078012830D1FFE740F2D4
:102DB000CC10C2F20000016801390160006828BB34
:102DC000FFE740F2D111C2F200010020029008702A
:102DD00040F28800C2F20000FFF76AF940F2E41105
:102DE000C2F20001087800F0FE00087002F0C6FB95
:102DF00002F03AFC40F2D400C2F200000190FFF76A
:102E000057F90199029809684862FFE7FFE7FFE771
:102E10000398006840F20041C4F20001884227D1C3
:102E2000FFE740F2D110C2F20000007801281ED165
:102E3000FFE740F2C612C2F200021088411C88B2BD
:102E40001180B0F5FA7F11D1FFE740F2C611C2F24E
:102E500000010020088040F2E411C2F2000108786D
:102E600080F00100087002F089FBFFE7FFE7FFE751
:102E700004B080BD81B0009001B07047FFE7FEE76D
:102E800080B586B0002005900490039002900190D8
:102E9000C02001900120029003900220049040F293
:102EA0000040C4F6000001A9FDF7C2FC06B080BDD9
:102EB00080B582B008208DF8070000208DF806004C
:102EC00001F032F8FFE79DF80700411E8DF807106A
:102ED000F0B1FFE79DF8060000448DF806000020E1
:102EE00000F0EEFF1420009001F074FE009801F055
:102EF00071FE012000F0E4FF009801F06BFE00F08D
:102F0000FBFF01469DF8060008438DF80600DAE74E
:102F1000002000F0D5FF142001F05CFE01F038F82D
:102F20009DF8060002B080BD80B582B00020009000
:102F300001F012F81420019001F04CFE019801F00C
:102F400049FE012000F0BCFF019801F043FE00980B
:102F500000F0B6FF019801F03DFE02B080BD000018
:102F600080B582B08DF8070008208DF80600FFE7D5
:102F70009DF80600411E8DF80610F8B1FFE700200D
:102F800000F09EFF1420009001F024FE9DF8070041
:102F900000F0800000F0E0FF009801F01BFE0098B8
:102FA0009DF8071009448DF8071001F013FE012069
:102FB00000F086FF009801F00DFED9E7002000F038
:102FC0007FFF142001F006FE02B080BD80B582B004
:102FD0000120009000F0C0FF1420019001F0FAFDE4
:102FE000019801F0F7FD009800F06AFF019801F0E8
:102FF000F1FD002000F064FF019801F0EBFD02B04C
:1030000080BD000080B584B00120019000F0A4FFD5
:103010001420039001F0DEFD019800F051FF0398A9
:1030200001F0D8FD0020029000F096FF039801F017
:10303000D1FD029800F044FF039801F0CBFD04B0ED
:1030400080BD000080B584B00020019000F038FF02
:103050001420039001F0BEFD019800F07DFF03985D
:1030600001F0B8FD0120029000F02AFF039801F062
:10307000B1FD029800F070FF039801F0ABFD04B0C1
:1030800080BD000080B584B00520ADF80C0000F0D4
:103090004BFF1420029001F09DFD012000F010FF75
:1030A000029801F097FDFFE700F026FFA8B1FFE7C7
:1030B000BDF80C000138ADF80C00142001F08AFDB9
:1030C000BDF80C0040B9FFE700F062FFFFF7BAFF60
:1030D00001208DF80F000DE0E6E70020019000F0E0
:1030E000EFFE00F055FF142001F074FD01988DF8FB
:1030F0000F00FFE79DF80F0004B080BD80B586B0DB
:103100000020059004900390029001904FF6FF710B
:103110000191029003210491039040F60000C4F64F
:10312000000001A9FDF784FB06B080BD80B586B024
:103130000020059004900390029001904FF6FF71DB
:1031400001910121029103210491039040F60000B6
:10315000C4F6000001A9FDF76BFB06B080BD0000BE
:1031600080B584B0ADF80E000021019102910846AF
:1031700000F0B0F900F002FA01980290FFE702981F
:10318000800A4A2809D8FFE7BDF80E0000F0C0F910
:10319000FFE7029801300290F1E704B080BD000023
:1031A00080B58CB000200B900A9009900890079091
:1031B000FFE741F24C00C4F20200016841F0040153
:1031C0000160006800F0040006900698FFE7FFE742
:1031D00041F24C00C4F20200016841F001010160BB
:1031E000006800F0010005900598FFE7FFE741F255
:1031F0004C00C4F20200016841F002010160006865
:1032000000F0020004900498FFE74FF44870079024
:10321000012000900890032001900A900020029065
:10322000099040F20040C4F6000007A90391FDF7A1
:10323000FFFA009B019A029803994FF4807CCDF825
:103240001CC008930A9209904FF09040FDF7F0FAE5
:10325000FFF76CFF1821C4F60001086840F4807085
:10326000086040F21841C4F60001086840F4087094
:1032700008600CB080BD000080B582B08DF80700FA
:10328000ADF804108DF803209DF8030020388DF868
:1032900003009DF80700BDF804109DF8032002EB21
:1032A000420346F28412C0F6000202EB031200F061
:1032B00037F802B080BD000080B586B08DF81700E9
:1032C00004910020039040F23F10ADF80A00FFE7A0
:1032D000049801780020019039B1FFE7039900209C
:1032E000142938BF01200190FFE70198C007A0B161
:1032F000FFE79DF81700BDF80A10049A1278FFF74F
:10330000BBFFBDF80A001038ADF80A000498013080
:103310000490039801300390DAE706B080BD000006
:1033200080B586B08DF81700ADF814100492002017
:103330000090039002908DF807009DF817008DF81B
:1033400007009DF80700BDF8141000F0C3F80098BE
:103350000390FFE70398172837D8FFE700F00EF92E
:1033600000200290FFE702980F281ED8FFE704987C
:10337000039930F811000299C840C00740B9FFE72F
:1033800040F20000C2F20000008800F0C1F807E03F
:1033900040F23000C2F20000008800F0B9F8FFE708
:1033A000FFE7029801300290DDE79DF80700013049
:1033B0008DF807009DF80700BDF8141000F08AF89A
:1033C000FFE7039801300390C4E706B080BD00001A
:1033D00080B5FFF7E5FE002000F01CF8014640F242
:1033E0003800C2F200000180008848F23021884293
:1033F00003D1FFE700F0C6FB02E000F053FCFFE75B
:10340000002000F007F840F23801C2F20001088005
:1034100080BD000080B582B08DF8070040F22842E0
:10342000C4F60002106840F400701060106840F4A8
:103430008070106040F21841C4F6000100910868E5
:1034400040F0200008609DF8070040F61403C4F621
:1034500000031860106840F02000106000BF00BF3B
:1034600000BF086840F020000860086840F48070E1
:103470000860FFF743FE2821C4F60001086840F405
:103480008070086000BF00BF00BF40F61000C4F6A7
:1034900000000068ADF804001821C4F600010868B7
:1034A00040F480700860FFF741FE0099086840F41E
:1034B00000700860BDF8040002B080BD81B0ADF8B6
:1034C0000200BDF8020040F20001C2F200010880D3
:1034D00001B0704780B582B08DF80700ADF80410D8
:1034E0009DF80710202000F07BF8BDF80410212083
:1034F00000F076F802B080BD81B0ADF80200BDF8F2
:10350000020040F23001C2F20001088001B07047B1
:1035100081B0ADF8020040F22842C4F60002106803
:1035200040F40070106040F21841C4F600010868D1
:1035300040F480700860086840F020000860BDF822
:10354000020040F61403C4F600031860106840F04F
:103550002000106000BF00BF00BF086840F02000DE
:103560000860086840F48070086000BF00BF00BFBA
:10357000086840F40070086001B0704740F22842CB
:10358000C4F60002106840F400701060106840F447
:103590008070106040F21841C4F60001086840F0E5
:1035A0002000086040F61403C4F6000322201860CF
:1035B000106840F02000106000BF00BF00BF086826
:1035C00040F020000860086840F48070086000BF88
:1035D00000BF00BF086840F400700860704700003A
:1035E00081B08DF80300ADF8001040F22842C4F617
:1035F0000002106840F400701060106840F48070A1
:10360000106040F21841C4F60001086840F0200044
:1036100008609DF8030040F61403C4F60003186028
:10362000106840F02000106000BF00BF00BF0868B5
:1036300040F020000860086840F480700860BDF821
:1036400000001860106840F02000106000BF00BF4C
:1036500000BF086840F020000860086840F48070EF
:10366000086001B07047000080B594B0002013904E
:103670001290119010900F90FFE741F24C00C4F2AD
:103680000200016841F004010160006800F00400DC
:103690000E900E98FFE7FFE741F24C00C4F20200E3
:1036A000016841F020010160006800F020000D90E9
:1036B0000D98FFE7FFE741F24C00C4F202000168F9
:1036C00041F001010160006800F001000C900C98CD
:1036D000FFE7FFE741F24C00C4F20200016841F04D
:1036E00002010160006800F002000B900B98FFE7F8
:1036F000FFE741F24C00C4F20200016841F008010A
:103700000160006800F008000A900A98FFE740F6A0
:103710000000C4F6000002904FF6FF7101910022F4
:103720000792FDF751FA079A40F60040C4F60000F0
:10373000049004210391FDF747FA079A40F20040F4
:10374000C4F600000890C0210591FDF73DFA019AEA
:10375000029807990F9201220692109211911291EC
:103760000FA90991FDF764F8069A079809990F9235
:10377000109011904FF09040FDF75AF8079A089872
:10378000099907230F9310921192FDF751F8DDF874
:103790000CC00498069B079A0999CDF83CC0109379
:1037A00011921292FDF744F8DDF814C0069B079AB7
:1037B00008980999CDF83CC0109311921292FDF728
:1037C00037F814B080BD000080B596B0002000909E
:1037D0001590149013901290119010900F9002A8D1
:1037E0003421FCF71CFD009940F23C00C2F20000BD
:1037F000019044F20042C4F20102026007224260DA
:10380000816042F20F72C260016141618161FEF725
:10381000DFFA18B1FFE7FCF7E1FFFFE740F23C00F9
:10382000C2F20000FEF7EAFF18B1FFE7FCF7D6FF8F
:10383000FFE760200F904FF4FA5010900022119291
:10384000129213921492159240F23C00C2F20000C0
:103850000FA9FEF7FBFE18B1FFE7FCF7BFFFFFE77C
:103860000020029003900490059006904FF40051C0
:10387000079108900E9040F23C00C2F2000002A9AD
:10388000FEF75EF918B1FFE7FCF7A8FFFFE740F28B
:103890003C00C2F20000FEF7A3FE16B080BD00009F
:1038A00080B588B00021009107910691059104919F
:1038B00003910291019140F28800C2F2000040F2AF
:1038C0000042C4F20002026040F28F124260816046
:1038D000C722C26001618161FEF77AFA18B1FFE781
:1038E000FCF77CFFFFE74FF48050049040F2880023
:1038F000C2F2000004A9FEF705FC18B1FFE7FCF7CF
:103900006DFFFFE700200190039040F28800C2F2B3
:10391000000001A9FEF7B8F918B1FFE7FCF75EFF58
:10392000FFE708B080BD000080B588B0002100919D
:10393000079106910591049103910291019140F242
:10394000D400C2F2000040F60002C4F2000202609D
:1039500049F63F424260816040F2CF72C26001612D
:103960008161FEF735FA18B1FFE7FCF737FFFFE793
:103970004FF48050049040F2D400C2F2000004A939
:10398000FEF7C0FB18B1FFE7FCF728FFFFE70020B8
:103990000190039040F2D400C2F2000001A9FEF7AA
:1039A00073F918B1FFE7FCF719FFFFE708B080BD16
:1039B00080B584B0002103910291019140F2201062
:1039C000C2F2000041F20002C4F20002026049F6B5
:1039D0003F424260816040F23F62C2608161FEF717
:1039E000F7F918B1FFE7FCF7F9FEFFE700200190B7
:1039F000039040F22010C2F2000001A9FEF744F942
:103A000018B1FFE7FCF7EAFEFFE704B080BD000055
:103A100080B584B0002103910291019140F26C10B5
:103A2000C2F2000041F20042C4F20002026049F614
:103A30003F424260816040F23F62C2608161FEF7B6
:103A4000C7F918B1FFE7FCF7C9FEFFE700200190B6
:103A5000039040F26C10C2F2000001A9FEF714F9C5
:103A600018B1FFE7FCF7BAFEFFE704B080BD000025
:103A7000FFE7FEE7FFE7FEE788B0079006910592B3
:103A8000079800F0070004900498C0F1070005288B
:103A900003D3FFE70420019004E00498C0F107007D
:103AA0000190FFE70198039004980430062803D89A
:103AB000FFE70020009003E0049803380090FFE740
:103AC0000098029006980399012202FA01F1013947
:103AD0000840029B984005999A40013A11400843DA
:103AE00008B070477047000086B041F20C00C4F285
:103AF0000200016801F0030104910068C1B20120D5
:103B000000EB1110029004980090022815D0FFE7F6
:103B10000098032812D1FFE7029943F20060C0F237
:103B20006E10B0FBF1F041F20C01C4F20201096821
:103B3000C1F306214843059011E0FFE7029942F2E4
:103B40000040C0F2F400B0FBF1F041F20C01C4F20D
:103B500002010968C1F3062148430590FFE741F2DD
:103B60000C00C4F20200006800F0C061022000EB0B
:103B70001160039005980399B0FBF1F00190019852
:103B800006B0704780B586B00020009001210191F9
:103B9000FFF726FD4FF47A70FCF7F6FD00990198C7
:103BA000FFF71EFD102041F29071FFF719FD602014
:103BB0004FF41C51FFF714FD01996120FFF710FD30
:103BC000462002210291FFF70BFD132048F210015D
:103BD000FFF706FD122048F2FE01FFF701FD0298F3
:103BE0004FF4A061FFF7FCFC0320059041F2300187
:103BF000FFF7F6FC302040F203310491FFF7F0FCB0
:103C000004993120FFF7ECFC04993220FFF7E8FC1F
:103C100033204FF440710391FFF7E2FC0599342003
:103C2000FFF7DEFC04993520FFF7DAFC362014217B
:103C3000FFF7D6FC04993720FFF7D2FC049938200F
:103C4000FFF7CEFC04993920FFF7CAFC03993A200C
:103C5000FFF7C6FC05993B20FFF7C2FC04993C2006
:103C6000FFF7BEFC3D204FF4A051FFF7B9FC9220B6
:103C70004FF40071FFF7B4FC04999320FFF7B0FCF8
:103C8000902040F60D01FFF7ABFC059841F21801BA
:103C9000FFF7A6FC072040F27311FFF7A1FC06B066
:103CA00080BD000080B58CB0E32043F20801FFF72F
:103CB00097FCE72012210191FFF792FCEF2006907C
:103CC00041F23121FFF78CFC01200790002109917E
:103CD000FFF786FC02204FF4E061FFF781FC032030
:103CE0000A9041F23001FFF77BFC0999042004900F
:103CF000FFF776FC082040F20721FFF771FC0999D5
:103D00000920FFF76DFC09990A20FFF769FC099962
:103D10000C20FFF765FC09990D20FFF761FC09995C
:103D20000F200590FFF75CFC099910200890FFF721
:103D300057FC1120009007210B91FFF751FC0198CF
:103D40000999FFF74DFC099913200290FFF748FCF1
:103D5000C820FCF74BFD089841F29061FFF740FC4A
:103D6000009840F22721FFF73BFC32200390FCF73C
:103D70003DFD01981D21FFF733FC0398FCF736FD4C
:103D800002984FF40061FFF72BFC29201421FFF764
:103D900027FC2B200B21FFF723FC0398FCF726FDC3
:103DA00009992020FFF71CFC09992120FFF718FC36
:103DB0000B993020FFF714FC312040F20771FFF718
:103DC0000FFC03980621FFF70BFC352040F204712D
:103DD000FFF706FC362041F60471FFF701FC049959
:103DE0003720FFF7FDFB09993820FFF7F9FB392051
:103DF00040F20671FFF7F4FB3C2040F20171FFF73F
:103E0000EFFB05993D20FFF7EBFB09995020FFF7E9
:103E1000E7FB06995120FFF7E3FB09995220FFF7D2
:103E2000DFFB532040F23F11FFF7DAFB60204FF435
:103E30001C51FFF7D5FB07996120FFF7D1FB0999CA
:103E40006A20FFF7CDFB09998020FFF7C9FB09998C
:103E50008120FFF7C5FB09998220FFF7C1FB099973
:103E60008320FFF7BDFB09998420FFF7B9FB09996F
:103E70008520FFF7B5FB08999020FFF7B1FB099962
:103E80009220FFF7ADFB0A999320FFF7A9FB95203D
:103E90004FF48871FFF7A4FB09999720FFF7A0FB67
:103EA00009999820FFF79CFB0A9841F21801FFF747
:103EB00097FB0B9840F27311FFF792FB0CB080BD9B
:103EC00081B0ADF80200BDF8020048B1FFE740F252
:103ED0001841C4F60001086840F04000086008E09E
:103EE00040F22841C4F60001086840F04000086034
:103EF000FFE701B07047000080B582B040F200409B
:103F0000C4F600008021FCF747FE012804D1FFE73A
:103F100001208DF8070003E000208DF80700FFE77F
:103F20009DF8070002B080BD80B586B000200590E6
:103F30000490039002900190802101910290012051
:103F400003900220049040F20040C4F6000001A952
:103F5000FCF76EFC06B080BD81B0ADF80200BDF884
:103F6000020048B1FFE740F21841C4F600010868BA
:103F700040F08000086008E040F22841C4F60001EB
:103F8000086840F080000860FFE701B0704700005B
:103F900080B586B0002005900490039002900190B7
:103FA000802101911121029103900220049040F29E
:103FB0000040C4F6000001A9FCF73AFC06B080BD41
:103FC0007047000080B582B0009000980138B0F1D1
:103FD000807F03D3FFE70120019019E000980138AA
:103FE0004EF21401CEF2000108604FF0FF300F21B5
:103FF00000F0B0FD4EF21801CEF200010020086082
:104000004EF21002CEF20002072111600190FFE78C
:10401000019802B080BD000080B5FCF7F1FD80BDC5
:1040200080B594B006A800903821FCF7F8F800207D
:10403000059004900390029001904FF40070FCF7FB
:1040400099FE0098012106914FF4803107910221D9
:104050000D9103220E920F9214221092119112913F
:104060001391FDF77DF918B1FFE7FCF7B7FBFFE708
:104070000F200190032002900020039004900590EF
:1040800001A80221FCF75AFF18B1FFE7FCF7A6FBD5
:10409000FFE714B080BD00004EF68851CEF200015B
:1040A000086840F4700008607047000080B540F276
:1040B0008800C2F20000FEF713F980BD80B540F21F
:1040C000D400C2F20000FEF70BF980BD80B540F2CB
:1040D0002010C2F20000FEF703F980BD80B540F267
:1040E0006C10C2F20000FEF7FBF880BD83B00290B6
:1040F0000191029800680090029842F60041C4F2D3
:10410000010188421DD0FFE70298B0F1804F18D01E
:10411000FFE7029840F20041C4F20001884210D04B
:10412000FFE7029840F60001C4F20001884208D07F
:10413000FFE7029843F20041C4F2010188420AD12C
:10414000FFE7009820F07000009001984168009807
:1041500008430090FFE7029842F60041C4F20101D3
:10416000884235D0FFE70298B0F1804F30D0FFE7AA
:10417000029840F20041C4F20001884228D0FFE7D3
:10418000029840F60001C4F20001884220D0FFE707
:10419000029843F20041C4F20101884218D0FFE7BF
:1041A000029844F20001C4F20101884210D0FFE7F6
:1041B000029844F20041C4F20101884208D0FFE7AE
:1041C000029844F60001C4F2010188420AD1FFE7D7
:1041D000009820F4407000900198C168009808434E
:1041E0000090FFE7009820F080000199496908439A
:1041F0000090009802990860019880680299C8624E
:104200000198006802998862029842F60041C4F25F
:104210000101884220D0FFE7029843F20041C4F236
:104220000101884218D0FFE7029844F20001C4F26D
:104230000101884210D0FFE7029844F20041C4F225
:104240000101884208D0FFE7029844F60001C4F259
:104250000101884205D1FFE70198006902990863CE
:10426000FFE702990120486102980069C00730B158
:10427000FFE70299086920F001000861FFE703B039
:104280007047000084B0039002910192029800F000
:104290001F01012088400090009A0399086A90430A
:1042A00008620198029901F01F0100FA01F20399D6
:1042B000086A1043086204B07047000085B004909B
:1042C000039102920193049880680090009820F472
:1042D0007F40009003980299019A41EA022101432C
:1042E00000980843009000980499886005B07047D2
:1042F00083B00290019102988068009000984FF678
:104300008F71CFF6CF710840009001980099084353
:1043100040F00700009000980299886003B0704751
:1043200085B0049003910498006A01900499086A8A
:1043300020F00100086204984068009004988069A9
:10434000029002984FF68F71CFF6FE7108400290EE
:10435000029820F003000290039801680298084335
:104360000290019820F00200019003988168019862
:1043700008430190049842F60041C4F201018842CA
:1043800020D0FFE7049843F20041C4F201018842C3
:1043900018D0FFE7049844F20001C4F201018842FA
:1043A00010D0FFE7049844F20041C4F201018842B2
:1043B00008D0FFE7049844F60001C4F201018842E6
:1043C0000ED1FFE7019820F0080001900398C16822
:1043D000019808430190019820F004000190FFE744
:1043E000049842F60041C4F20101884220D0FFE760
:1043F000049843F20041C4F20101884218D0FFE75B
:10440000049844F20001C4F20101884210D0FFE791
:10441000049844F20041C4F20101884208D0FFE749
:10442000049844F60001C4F20101884213D1FFE769
:10443000009820F480700090009820F400700090A4
:104440000398416900980843009003988169009897
:1044500008430090FFE70098049948600298049987
:104460008861039840680499486301980499086238
:1044700005B0704785B0049003910498006A0190DC
:104480000499086A20F010000862049840680090BF
:10449000049880690290029848F6FF71CFF6FF6198
:1044A00008400290029820F440700290039801683E
:1044B000029840EA01200290019820F0200001902B
:1044C00003988168019840EA01100190049842F62F
:1044D0000041C4F20101884229D0FFE7049843F269
:1044E0000041C4F20101884221D0FFE7049844F260
:1044F0000001C4F20101884203D1FFE70020B0B9F6
:10450000FFE7049844F20041C4F20101884203D15C
:10451000FFE7002058B9FFE7049844F60001C4F211
:104520000101884212D1FFE7012078B9FFE7019825
:1045300020F0800001900398C168019840EA0110C2
:104540000190019820F040000190FFE7049842F6A6
:104550000041C4F20101884220D0FFE7049843F2F1
:104560000041C4F20101884218D0FFE7049844F2E8
:104570000001C4F20101884210D0FFE7049844F220
:104580000041C4F20101884208D0FFE7049844F6D4
:104590000001C4F20101884215D1FFE7009820F420
:1045A00080600090009820F40060009003984169BA
:1045B000009840EA8100009003988169009840EAE1
:1045C00081000090FFE700980499486002980499E0
:1045D0008861039840680499886301980499086287
:1045E00005B0704785B0049003910498006A01906B
:1045F0000499086A20F4807008620498406800906A
:104600000498C069029002984FF68F71CFF6FE7140
:1046100008400290029820F003000290039801687D
:10462000029808430290019820F4007001900398CA
:104630008168019840EA01200190049842F6004107
:10464000C4F20101884229D0FFE7049843F20041F7
:10465000C4F20101884221D0FFE7049844F200012E
:10466000C4F20101884203D1FFE70020B0B9FFE79F
:10467000049844F20041C4F20101884203D1FFE7EB
:10468000002058B9FFE7049844F60001C4F2010184
:10469000884212D1FFE7012078B9FFE7019820F4A2
:1046A000006001900398C168019840EA01200190E0
:1046B000019820F480600190FFE7049842F60041E1
:1046C000C4F20101884220D0FFE7049843F2004180
:1046D000C4F20101884218D0FFE7049844F20001B7
:1046E000C4F20101884210D0FFE7049844F200416F
:1046F000C4F20101884208D0FFE7049844F60001A3
:10470000C4F20101884215D1FFE7009820F48050DF
:104710000090009820F400500090039841690098A0
:1047200040EA0110009003988169009840EA011066
:104730000090FFE700980499486002980499C861C6
:10474000039840680499C86301980499086205B009
:104750007047000085B0049003910498006A0190AE
:104760000499086A20F48050086204984068009018
:104770000498C0690290029848F6FF71CFF6FF6175
:1047800008400290029820F440700290039801685B
:10479000029840EA01200290019820F40050019014
:1047A00003988168019840EA01300190049842F62C
:1047B0000041C4F20101884229D0FFE7049843F286
:1047C0000041C4F20101884221D0FFE7049844F27D
:1047D0000001C4F20101884203D1FFE70020B0B913
:1047E000FFE7049844F20041C4F20101884203D17A
:1047F000FFE7002058B9FFE7049844F60001C4F22F
:104800000101884212D1FFE7012078B9FFE7019842
:1048100020F4004001900398C168019840EA0130FB
:104820000190019820F480400190FFE7049842F63F
:104830000041C4F20101884220D0FFE7049843F20E
:104840000041C4F20101884218D0FFE7049844F205
:104850000001C4F20101884210D0FFE7049844F23D
:104860000041C4F20101884208D0FFE7049844F6F1
:104870000001C4F20101884215D1FFE7009820F43D
:1048800080400090009820F4004000900398416917
:10489000009840EA8110009003988169009840EAEE
:1048A00081100090FFE700980499486002980499ED
:1048B000C8610398406804990864019804990862E3
:1048C00005B0704785B0049003910498006A019088
:1048D0000499086A20F480300862049840680090C7
:1048E0000498006D029002984FF68F71CFF6FE711A
:1048F00008400290039801680298084302900198CA
:1049000020F40030019003988168019840EA01404A
:104910000190049842F60041C4F20101884220D07F
:10492000FFE7049843F20041C4F20101884218D025
:10493000FFE7049844F20001C4F20101884210D05C
:10494000FFE7049844F20041C4F20101884208D014
:10495000FFE7049844F60001C4F2010188420BD13C
:10496000FFE7009820F48030009003984169009898
:1049700040EA01200090FFE70098049948600298FF
:10498000049908650398406804998864019804991B
:10499000086205B07047000085B004900391049848
:1049A000006A01900499086A20F480100862049853
:1049B000406800900498006D0290029848F6FF71DC
:1049C000CFF6FF610840029003980168029840EA20
:1049D00001200290019820F4001001900398816852
:1049E000019840EA01500190049842F60041C4F257
:1049F0000101884220D0FFE7049843F20041C4F24D
:104A00000101884218D0FFE7049844F20001C4F283
:104A10000101884210D0FFE7049844F20041C4F23B
:104A20000101884208D0FFE7049844F60001C4F26F
:104A3000010188420BD1FFE7009820F4802000900C
:104A400003984169009840EA81200090FFE70098B0
:104A5000049948600298049908650398406804998D
:104A6000C86401980499086205B0704785B0049045
:104A7000039102920498006A00900499086A20F059
:104A800001000862049880690190019820F0F0000C
:104A900001900299019840EA01100190009820F0DD
:104AA0000A00009003990098084300900198049927
:104AB000886100980499086205B0704785B0049039
:104AC000039102920498006A00900499086A20F009
:104AD00010000862049880690190019820F47040E9
:104AE00001900299019840EA01300190009820F06D
:104AF000A00000900399009840EA011000900198EE
:104B00000499886100980499086205B07047000014
:104B1000FFE7FEE781B08DF803009DF90300002850
:104B20000ED4FFE79DF9031001F01F020120904011
:104B30004A094EF20011CEF2000141F82200FFE7CF
:104B400001B070474EF60C50CEF200000068C0F382
:104B50000220704782B08DF8070000919DF9070090
:104B600000280AD4FFE7009800019DF907104EF2D3
:104B70000042CEF2000288540BE0009800019DF83C
:104B8000071001F00F014EF61452CEF200028854C5
:104B9000FFE702B07047000083B00290029800F077
:104BA000070000904EF60C51CEF20001086801900B
:104BB00001984FF6FF02104001900198009A40EAD8
:104BC00002200022C0F2FA521043019001980860BE
:104BD00003B0704782B0019000200090FFE700987A
:104BE0000199884205D2FFE7FFE700980130009065
:104BF000F5E702B07047000080B584B040F2C41100
:104C0000C2F200010020087040F20040C4F600002B
:104C10000121FBF7C1FF38B9FFE740F2C411C2F22E
:104C2000000101200870FFE740F20040C4F60000D8
:104C30000221FBF7B1FF38B9FFE740F2C411C2F21D
:104C4000000102200870FFE740F20040C4F60000B7
:104C50000421FBF7A1FF38B9FFE740F2C411C2F20B
:104C6000000103200870FFE74FF090400121FBF79F
:104C700093FF38B9FFE740F2C411C2F200010420EB
:104C80000870FFE740F2C411C2F20001087840F258
:104C9000C212C2F2000213784340034040F2C11036
:104CA000C2F20000037091F800C0137883EA0C038D
:104CB00023EA0C0340F2C31CC2F2000C8CF8003053
:104CC000097811700078013801460391032800F239
:104CD00099800399DFE801F00235577E40F2D11048
:104CE000C2F20000007840B1FFE740F2D110C2F2FA
:104CF00000000078022823D1FFE740F20900C2F249
:104D000000000178013101700078062807D1FFE723
:104D100040F20901C2F2000101200870FFE740F2F1
:104D20000900C2F20000007800EB400240F2D2110C
:104D3000C2F2000188188A5A0A8080788870FFE7DA
:104D400061E040F2B810C2F200000078D0B9FFE78D
:104D500040F2EC10C2F20000006840F23401C2F2EE
:104D60000001086040F2B811C2F200010120087091
:104D700040F22010C2F20000026800215162FDF7EB
:104D800025F9FFE73FE040F2D110C2F200000078C1
:104D900002281ED1FFE740F2BA10C2F200000078EC
:104DA000B8B9FFE740F2BA11C2F200010120087061
:104DB00040F2B911C2F200010020087040F2EC107C
:104DC000C2F20000006840F2BC11C2F200010860AB
:104DD000FFE718E040F2C010C2F20000007880B98E
:104DE000FFE740F2C011C2F200010120087040F25A
:104DF0006C10C2F20000026800215162FDF7E6F873
:104E0000FFE700E0FFE740F2B810C2F200000078D0
:104E1000002850D0FFE740F2C310C2F20000007833
:104E2000022848D1FFE740F2B811C2F20001002089
:104E3000087040F22010C2F20000FDF739F940F28C
:104E4000EC10C2F20000006840F2E811C2F200016A
:104E5000086040F2D110C2F20000007840B1FFE7D4
:104E600040F2D110C2F200000078022822D1FFE700
:104E700040F2D110C2F20000007838B9FFE740F2EA
:104E8000D111C2F200010220087012E040F2D012EB
:104E9000C2F200021078411CC8B21170032807D179
:104EA000FFE740F2D011C2F2000100200870FFE7D6
:104EB000FFE7FFE7FFE740F2BA10C2F20000007818
:104EC000002800F0CF80FFE740F2C310C2F20000DC
:104ED000007803285BD1FFE740F2BA11C2F200016B
:104EE0000020087040F2B910C2F2000000780028DB
:104EF0004CD1FFE740F2D010C2F20000007801462A
:104F0000029140B1FFE70298012817D0FFE702980D
:104F1000022826D038E040F2D212C2F20002107805
:104F2000411CC8B21170632807D1FFE740F2D211CB
:104F3000C2F2000100200870FFE726E040F2D21222
:104F4000C2F200025078411CC8B251703C2807D10F
:104F5000FFE740F2D211C2F2000100204870FFE7E3
:104F600013E040F2D212C2F200029078411CC8B2A3
:104F700091703C2807D1FFE740F2D211C2F2000144
:104F800000208870FFE700E0FFE7FFE769E040F2FC
:104F9000EC10C2F20000006840F2BC11C2F2000145
:104FA0000968401AB0F5487F5AD3FFE740F2B910BC
:104FB000C2F20000007838B9FFE740F2B911C2F23E
:104FC000000101200870FFE740F2D010C2F200009B
:104FD00000780146019140B1FFE70198012817D000
:104FE000FFE70198022826D038E040F2D212C2F240
:104FF00000021078411CC8B21170632807D1FFE786
:1050000040F2D211C2F2000100200870FFE726E052
:1050100040F2D212C2F200025078411CC8B2517064
:105020003C2807D1FFE740F2D211C2F20001002074
:105030004870FFE713E040F2D212C2F2000290780B
:10504000411CC8B291703C2807D1FFE740F2D21151
:10505000C2F2000100208870FFE700E0FFE7FFE7F1
:10506000FFE7FFE740F2C010C2F20000007800281E
:1050700000F0CC80FFE740F2C310C2F200000078DD
:10508000042840F0C380FFE740F2C011C2F20001E3
:105090000020087040F26C10C2F20000FDF708F822
:1050A00040F2D110C2F20000007840B1FFE740F2B8
:1050B000D110C2F200000078022850D1FFE740F280
:1050C000D211C2F2000108784A7889784FF46163FE
:1050D0005843C2EB021200EB8200084400283ED085
:1050E000FFE740F2D111C2F200010120087040F246
:1050F000C611C2F2000100200090088040F2E411C5
:10510000C2F20001087840F00100087000F036FAA1
:1051100040F28800C2F20000FCF758FF00F0A4FA49
:10512000009940F2D212C2F20002107853789278BD
:105130004FF4616C00FB0CF0C3EB031300EB830036
:10514000104440F2CC12C2F20002106040F2D400CF
:10515000C2F2000002685162FCF738FF55E040F2ED
:10516000D110C2F20000007801281FD1FFE740F201
:10517000D111C2F200010320087040F28800C2F28F
:105180000000FCF795FF40F2E411C2F2000108783C
:1051900000F0FE00087000F0F1F900F065FA40F24E
:1051A000D400C2F20000FCF783FF2DE040F2D110E2
:1051B000C2F200000078032825D1FFE740F2D111A8
:1051C000C2F200010120087040F2C611C2F20001D3
:1051D0000020088040F2E411C2F20001087840F09B
:1051E0000100087000F0CAF940F28800C2F2000025
:1051F000FCF7ECFE00F038FA40F2D400C2F20000F6
:10520000FCF7E4FEFFE7FFE7FFE7FFE704B080BD40
:1052100082B080B58CB00F930E928DF82F000A915A
:105220000EA801900A99019A0DF10A00009000F071
:1052300021FB00999DF82F00FEF73EF80CB0BDE869
:10524000804002B07047000080B590B08DF83F00FC
:105250008DF83E108DF83D200E9312A805900E9902
:10526000059A0DF11A0000F005FB0020049040F2B1
:105270003F10ADF80E00FFE704990DF11A00415CF4
:105280000020029049B1FFE704999DF83E200020DC
:10529000914238BF01200290FFE70298C00798B101
:1052A000FFE79DF83F00BDF80E10049B0DF11A02B8
:1052B000D25CFDF7E1FFBDF80E001038ADF80E002E
:1052C000049801300490D7E74FF4FC60FEF714F91E
:1052D000FFE704990DF11A00415C0020019049B1EB
:1052E000FFE704999DF83D200020914238BF01203E
:1052F0000190FFE70198C00798B1FFE79DF83F00D4
:10530000BDF80E10049B0DF11A02D25CFDF7B4FF3C
:10531000BDF80E001038ADF80E000498013004906E
:10532000D7E74FF6FF70FEF7E7F8FFE704990DF1B6
:105330001A00415C0020009039B1FFE70499002079
:10534000142938BF01200090FFE70098C00798B1EA
:10535000FFE79DF83F00BDF80E10049B0DF11A0207
:10536000D25CFDF789FFBDF80E001038ADF80E00D5
:10537000049801300490D9E710B080BD80B582B0A8
:10538000FEF726F800200190FDF7EAFE0198FEF7EF
:1053900095F84FF6FF70FEF7AFF802B080BD000041
:1053A00080B586B040F20900C2F20000027847F2F0
:1053B0009431C0F600011820FFF72AFF40F2D11007
:1053C000C2F200000078012808D0FFE740F2D110B7
:1053D000C2F20000007803282DD1FFE740F2CC1084
:1053E000C2F2000000684BF2C531C9F2A211A0FB65
:1053F0000121CA0A4FF4616102FB110144F24543E5
:10540000C0F24443A1FB031348F68901C8F68801A2
:10541000A0FB011C4FEA5C110901A1EB5C11A0EBA0
:1054200081006946086047F29D31C0F600014820BE
:10543000FFF7EEFE71E040F2D110C2F200000078FA
:10544000C8B9FFE740F20900C2F20000007800EBA3
:10545000400240F2D211C2F2000188188A5C4378FF
:1054600080786946086047F29D31C0F60001482007
:10547000FFF7CEFE50E040F2D010C2F200000078FC
:105480000146059140B1FFE70598012819D0FFE7D3
:10549000059802282AD03EE040F2D211C2F2000163
:1054A00008784A788B7869468B604A60086047F2D2
:1054B0009D33C0F60003482004210622FFF7C4FEF6
:1054C00029E040F2D211C2F2000108784A788B78C4
:1054D00069468B604A60086047F29D33C0F600035E
:1054E000482007210922FFF7AFFE14E040F2D21155
:1054F000C2F2000108784A788B7869468B604A606E
:10550000086047F29D33C0F6000348200A210C22B0
:10551000FFF79AFEFFE7FFE7FFE740F2D110C2F284
:105520000000007801460491032824D80499DFE89C
:1055300001F0020A121A47F28431C0F60001782005
:10554000FFF766FE18E047F26431C0F600017820EC
:10555000FFF75EFE10E047F27431C0F600017820DC
:10556000FFF756FE08E047F25431C0F600017820FC
:10557000FFF74EFE00E0FFE706B080BD80B586B0C5
:1055800040F60000C4F6000001904FF47F41012274
:105590000292FBF719FB019840F2E411C2F20001FC
:1055A0000978090200220592FBF70EFB029A40F6E9
:1055B0000040C4F60000039004210491FBF704FBB3
:1055C00003980499059AFBF7FFFA06B080BD000026
:1055D00080B582B000200190FBF720FBFEF720FD94
:1055E000FEF742F8FEF7F0F8FEF7E2F9FEF710FAE0
:1055F000FEF79AF9FEF754F9FDF742FC40F2090173
:10560000C2F2000101200870FFE740F20900C2F277
:105610000000007805280EDCFFE700F043F80220C8
:10562000FBF7E4F8FFE740F20901C2F20001087855
:1056300001300870E9E740F20901C2F200010120DF
:10564000087040F2D211C2F2000148798870B1F8B6
:1056500003000880FFF792FEFFF790FF00F0B4F818
:10566000FFE700F069F8FCE780B540F2C810C2F22D
:105670000000017881F001010170007840B1FFE77E
:1056800040F23C00C2F200000021FDF713F907E0F0
:1056900040F23C00C2F200000021FDF73BFAFFE7B8
:1056A00080BD000080B582B0FDF7ACFCA020FDF706
:1056B00057FCFDF7E7FC40F20900C2F20000009041
:1056C00001786FF0070000EBC100C0B2FDF748FCA5
:1056D000FDF7D8FCFDF7B6FCFDF794FCA120FDF723
:1056E0003FFCFDF7CFFCFDF7E3FB0099097801EBE8
:1056F000410240F2D211C2F2000101918854FDF73B
:1057000013FCFDF7D5FB009A0199127802EB4202D7
:1057100011444870FDF708FCFDF7CAFB009A019997
:10572000127802EB420211448870FDF74FFCFDF73E
:1057300089FC02B080BD000080B582B000208DF8E9
:105740000700FFE79DF8070040F20801C2F20001E0
:105750000978884236DAFFE740F2EC10C2F2000026
:1057600000689DF8071001EB410240F20C01C2F203
:10577000000101EB82014A688968114488421AD30A
:10578000FFE79DF8070000EB400140F20C00C2F279
:105790000000009050F821008047009940F2EC1082
:1057A000C2F2000000689DF8072002EB420201EB04
:1057B00082018860FFE7FFE79DF8070001308DF860
:1057C0000700BFE702B080BD80B540F23C00C2F2E6
:1057D00000000021FDF79EF940F22010C2F2000007
:1057E00001686FF00100086140F26C11C2F2000123
:1057F0000968086140F2D401C2F200010968086139
:1058000040F28801C2F200010968086180BD000011
:1058100080B582B0FDF7F6FBA020FDF7A1FBFDF7F8
:1058200031FC40F20900C2F2000001786FF007007D
:1058300000EBC100C0B2FDF793FBFDF723FC40F283
:10584000D210C2F2000001900078FDF789FBFDF74D
:1058500019FC01984078FDF783FBFDF713FC0198D4
:105860008078FDF77DFBFDF70DFCFDF7EBFB02B04B
:1058700080BD000037B514460846064B6A462146EF
:1058800000F0DCF804466946002000F06EFC20467B
:105890003EBD00006B61000802E008C8121F08C18D
:1058A000002AFAD170477047002001E001C1121FA1
:1058B000002AFBD1704700002DE9FF5F82B0002174
:1058C000DDE90430020DDDF840B0034318D044F6A2
:1058D0001050A2F2FF3242431514119801281FD034
:1058E000A5EB0B00401C5FEA000A4FF000064E4F8C
:1058F000DFF83891B046504615D5CAF1000413E0E0
:10590000119801244AA3012801D16FEA0B010298E2
:10591000119AC0E90031C0E9024206B0BDE8F09F2B
:10592000CBF10000DFE704460021404A491842EB72
:105930000450CDE9001012E0E00707D032463B46A4
:1059400040464946FAF764FD8046894632463B4662
:1059500010461946FAF75CFD06460F466410002C07
:10596000EAD1DDE90401DDE90023BAF1000F06DA2E
:10597000FAF74EFD42464B46FAF74AFD05E0FAF7C4
:10598000B9FD42464B46FAF7B5FD04460E460022E5
:10599000284BFAF737FE03D84FF0FF30014607E0F7
:1059A0000022254B20463146FAF78BFCFAF711FE10
:1059B000102409E0002C0ADB0A220023FAF750FC2D
:1059C000039B30321A55641E50EA0102F2D1641C66
:1059D000039AC4F111031444119A012A03D001223D
:1059E00008430DD10AE0084304D000204FF0110B0A
:1059F000119072E7A3EB0B056D1E0DE05B4504DD16
:105A00004FF0000205F1010504E003DA4FF0000257
:105A1000A5F10105002AECD002981199C0E90231E4
:105A2000C0E9004579E70000000014400000F03FA5
:105A3000300000000000F0430000E03F2DE9FF4F80
:105A400095B09B468946064600250FE2252877D16A
:105A500000242746F84A0121059400E0044316F883
:105A6000013F203B01FA03F01042F7D130782A2899
:105A700011D06FF02F033078A0F13002092A16D828
:105A8000059A44F0020402EB820203EB4202104446
:105A9000761C0590EFE759F8042B0592002A03DAEB
:105AA000504244F40054059044F00204761C3078CF
:105AB0002E2816D116F8010F44F004042A280DD020
:105AC0006FF02F023078A0F13003092B09D807EBD3
:105AD000870302EB4303C718761CF3E759F8047BEE
