:020000040800F2
:1000000010060020ED010008ED500008D146000860
:10001000E9500008810700088D6B0008000000000F
:10002000000000000000000000000000A1560008D1
:1000300085070008000000005D510008F95600081F
:10004000070200080702000807020008070200086C
:10005000070200080702000807020008070200085C
:10006000070200080702000807020008070200084C
:10007000070200080702000807020008070200083C
:10008000070200080000000007020008070200083D
:10009000070200080702000807020008070200081C
:1000A000070200080702000807020008070200080C
:1000B00007020008070200080702000807020008FC
:1000C00007020008070200080702000807020008EC
:1000D000070200087D6B00080702000807020008FD
:1000E00007020008070200080702000807020008CC
:1000F00007020008070200080702000800000000CD
:1001000000000000070200080000000007020008CD
:100110000702000800000000B557000807020008A9
:10012000070200080702000807020008070200088B
:10013000070200080000000000000000070200089D
:10014000070200080702000800000000000000008D
:10015000000000000000000000000000000000009F
:10016000000000000000000000000000070200087E
:10017000070200080000000000000000000000006E
:10018000000000000702000800000000000000005E
:10019000000000000000000000000000000000005F
:1001A000000000000000000007020008070200082D
:1001B000070200080702000807020008000000000C
:1001C000000000000702000800000000000000001E
:1001D0000702000807020008DFF80CD000F048FA18
:1001E00000480047C16F00081006002006488047FD
:1001F00006480047FEE7FEE7FEE7FEE7FEE7FEE70C
:10020000FEE7FEE7FEE7FEE7A1570008D901000878
:100210002DE9F05F0546002092469B46884606463B
:10022000814640241BE0284641464746224600F0CE
:1002300057F853465A46C01A914110D311461846F2
:10024000224600F03EF82D1A67EB01084F46224681
:100250000120002100F035F817EB00094E41201E67
:10026000A4F10104DFDC484631462A464346BDE896
:10027000F09FD2B201E000F8012B491EFBD270477B
:100280000022F6E710B513460A4604461946FFF762
:10029000F0FF204610BD30B50B460146002020225D
:1002A000012409E021FA02F59D4205D303FA02F583
:1002B000491B04FA02F52844151EA2F10102F1DCE3
:1002C00030BD202A04DB203A00FA02F100207047FA
:1002D0009140C2F1200320FA03F319439040704784
:1002E000202A04DB203A21FA02F00021704721FA8B
:1002F00002F3D040C2F120029140084319467047F2
:100300002DE9FE4F804681EA0300C00F0C460090A5
:1003100021F0004123F00045B8EB0200A94105D2CD
:100320004046214690461C460B46024623F00040BC
:10033000104347D0270DC7F30A00C3F30A510290B8
:10034000401A019040286BDAC3F3130040F4801B7D
:100350000098924620B10023D2EB030A63EB0B0B0B
:1003600001985946C0F140025046FFF7AAFF0646E1
:100370000D4650465946019A00F092F910EB0800DC
:100380006141002487EA115284EAE7731A4340D09E
:10039000009A62B3019A012A4FEA075215DC001B4A
:1003A00061EB02014FF0004202EA0752CDE9004240
:1003B000001C41F5801132462B4600F092F903B043
:1003C000BDE8F08F40462146F9E7001B61EB0201D2
:1003D000001C41F5801300185B412018A2F500179E
:1003E00047EB030140EAD570B6196D4111E06D0885
:1003F0004FEA360645EAC0754FEA0752001B61EB2B
:100400000201001C41F5801149084FEA3000001933
:10041000514132462B4603B0BDE8F04F00F052B9CF
:100420000098012240000023D0EB020263EBE0734E
:10043000009821464FEAE074B8EB000061EB04013C
:10044000E9E783F000435BE781F0004158E72DE9DD
:10045000FE4F81EA030404F0004421F000410094BF
:100460004FF0000B23F0004350EA01045ED052EA43
:1004700003045BD0C3F30A54C1F30A552C44A4F21D
:10048000F3340194A0FB0254C1F3130141F4801131
:10049000C3F3130343F4801301FB024400FB034E38
:1004A000840A970A44EA815447EA8357A4FB076801
:1004B00002958D0A05FB07854FEA932C04FB0C542B
:1004C0002705029D4FEA065847EA1637B5EB08059F
:1004D0006EEB070C870E920E47EA811742EA8312F1
:1004E000A7FB0201B6EB0B0164EB00042B0D43EA02
:1004F0000C335E1844EB1C50DA465146E7FB020110
:10050000C5F313044FEA0B3343EA14534FEA0432A2
:10051000019C43EA0603A4F10C040294009CCDE97B
:1005200000B400F0DEF803B0BDE8F08F0020014613
:10053000F9E72DE9F04D81EA030404F0004B21F0C6
:10054000004514464FF0000A23F0004150EA05022E
:1005500020D054EA01021DD0C5F30A570246C5F364
:100560001303C1F31300C1F30A5640F4801543F49A
:100570008013A7EB0608101BD64608F2FD3873EB74
:10058000050002D308F1010801E092185B41B8F1BF
:10059000000F03DA00200146BDE8F08D00204FF483
:1005A0008011064684460EE0171B73EB050705D342
:1005B000121B63EB050306434CEA010C49084FEAA2
:1005C000300092185B4150EA0107EDD152EA030076
:1005D00012D082EA040083EA0501084305D0101B0B
:1005E000AB4106D20122002306E000224FF0004377
:1005F00002E06FF0010253101AEB06004CEB0851B9
:1006000010EB0A0041EB0B01BDE8F04D00F05AB8C9
:10061000C1F30A52C1F3130140F2FF3341F48011D8
:100620009A4202DA00200146704740F233439A4270
:10063000A2F2334202DC5242FFF752BEFFF741BE44
:1006400030B5041E71F1000404DB4FF00044404259
:1006500064EB0101141E73F1000405DB1C464FF02E
:100660000043524263EB0403994208BF904230BDFD
:100670001CB509480090094801900546009C06E019
:10068000E06840F0010394E8070098471034AC425A
:10069000F6D3FFF7A5FD0000248E0008448E000865
:1006A000202A06DBCB17203A41FA02F043EAE07336
:1006B00006E041FA02F3D040C2F120029140084323
:1006C0001946704710B5141E73F1000408DA401C77
:1006D00041F1000192185B411A4301D120F0010061
:1006E00010BD2DE9F04D92469B4611B1B1FA81F251
:1006F00002E0B0FA80F220329046FFF7E2FD0446B5
:100700000F4640EA0A0041EA0B0153465A460843A5
:1007100013D0114653EA010019D0C8F140025046E7
:10072000FFF7DEFD05460E46504659464246FFF7A6
:10073000C8FD084305D0012004E020463946BDE845
:10074000F08D0020054346EAE0762C4337430A98B3
:100750006305E40AA0EB08000022FD0A44EA4754BE
:100760000A3002D500200146E9E701051019694168
:10077000DDE9084500196941BDE8F04DA2E7000038
:10078000FFE7FEE77047000082B0ADF806000020EA
:10079000ADF80400FFE7BDF80400BDF8061088427C
:1007A00019DAFFE70020ADF80200FFE7BDF802000C
:1007B00040F6B731884207DCFFE7FFE7BDF80200EB
:1007C0000130ADF80200F1E7FFE7BDF804000130A9
:1007D000ADF80400DFE702B07047000081B0EFF32E
:1007E000108072B60090FFE7FEE7000082B0019033
:1007F00000208DF80300019890F82500022807D00A
:10080000FFE701990420C86301208DF803002DE063
:1008100001980168086820F00E0008600198816C5A
:10082000086820F48070086001980168086820F06A
:10083000010008600198016C406C00F01F0201206B
:10084000904048600198C16C006D48600198406D0F
:1008500058B1FFE70198416D086820F48070086086
:100860000198816DC06D4860FFE7FFE701990120A5
:1008700081F82500FFE70199002081F82400FFE7B7
:100880009DF8030002B0704780B582B0019000204F
:100890008DF80300019890F82500022811D0FFE799
:1008A00001990420C8630199012081F82500FFE720
:1008B0000199002081F82400FFE701208DF8030052
:1008C0003FE001980168086820F00E000860019878
:1008D0000168086820F0010008600198816C0868D0
:1008E00020F4807008600198016C406C00F01F02D9
:1008F0000120904048600198C16C006D48600198EB
:10090000406D58B1FFE70198416D086820F4807090
:1009100008600198816DC06D4860FFE70199012072
:1009200081F82500FFE70199002081F82400FFE706
:100930000198806B20B1FFE70198816B8847FFE742
:10094000FFE79DF8030002B080BD000080B584B0D1
:10095000039000F0FFF90290039801900198013094
:1009600048B1FFE740F22800C2F200000168019898
:1009700008440190FFE7FFE700F0ECF90299401A04
:100980000199884201D2FFE7F6E704B080BD00007C
:100990008BB00A90099100200890FFE70998006841
:1009A0000899C840002800F0A581FFE70998006871
:1009B000089A01219140084007900798002800F00C
:1009C0009581FFE70998406800F00300012807D0EF
:1009D000FFE70998406800F0030002282FD1FFE7E5
:1009E0000A988068069008984100032000FA01F1F7
:1009F0000698884306900998C0680899490000FA4B
:100A000001F106980843069006980A9988600A98AA
:100A1000406806900899012000FA01F10698884381
:100A2000069009984068C0F30010089900FA01F197
:100A300006980843069006980A994860FFE70998C7
:100A4000406800F00300032818D0FFE70A98C06848
:100A5000069008984100032000FA01F106988843A7
:100A60000690099880680899490000FA01F10698F3
:100A70000843069006980A99C860FFE709984068FD
:100A800000F00300022826D1FFE70A9808996FF0CA
:100A9000030202EA51010844006A0690089800F037
:100AA000070081000F2000FA01F1069888430690A4
:100AB00009980069089901F00701890000FA01F11D
:100AC00006980843069006980A99089B02EA530282
:100AD00011440862FFE70A980068069008984100F0
:100AE000032000FA01F106988843069009984068AF
:100AF00000F003000899490000FA01F10698084344
:100B0000069006980A99086009988079800700285D
:100B100000F0EB80FFE7FFE741F26000C4F2020063
:100B2000016841F001010160006800F001000590DA
:100B30000598FFE7089820F003000821C4F201019E
:100B400040580690089800F0030081000F2000FA3A
:100B500001F10698884306900A98B0F1904F03D1AE
:100B6000FFE70020049042E00A9840F20041C4F6FA
:100B70000001884203D1FFE70120039034E00A9886
:100B800040F60001C4F60001884203D1FFE70220CD
:100B9000029026E00A9840F60041C4F6000188421F
:100BA00003D1FFE70320019018E00A9841F2000109
:100BB000C4F60001884203D1FFE7042000900AE058
:100BC0000A9941F20042C4F600020620914208BF91
:100BD00005200090FFE700980190FFE70198029040
:100BE000FFE702980390FFE703980490FFE704985B
:100BF000089901F00301890000FA01F10698084301
:100C000006900698089921F003010822C4F2010217
:100C1000885040F20840C4F201000068069007992D
:100C200006988843069009988079C006002805D563
:100C3000FFE70799069808430690FFE7069840F2F9
:100C40000841C4F20101086040F20C40C4F2010006
:100C5000006806900799069888430690099880795D
:100C60008006002805D5FFE70799069808430690F7
:100C7000FFE7069840F20C41C4F20101086040F21F
:100C80000440C4F201000068069007990698884362
:100C90000690099880798007002805D5FFE7079915
:100CA000069808430690FFE7069840F20441C4F214
:100CB0000101086040F20040C4F2010000680690A3
:100CC000079906988843069009988079C00728B14B
:100CD000FFE70799069808430690FFE7069840F259
:100CE0000041C4F201010860FFE7FFE70898013006
:100CF000089053E60BB0704782B00190ADF8021037
:100D000001980069BDF80210084204D0FFE70120F5
:100D10008DF8010003E000208DF80100FFE79DF849
:100D2000010002B07047000082B00190ADF80210DF
:100D30008DF801209DF8010028B1FFE7BDF8020001
:100D40000199886104E0BDF8020001998862FFE71B
:100D500002B0704740F20820C2F2000000687047FD
:100D600040F22800C2F20000026840F20821C2F2FC
:100D700000010868104408607047000080B582B028
:100D8000002000908DF80700032000F09BF80098E9
:100D900000F00EF820B1FFE701208DF8070002E017
:100DA00000F04AF8FFE79DF8070002B080BD0000A0
:100DB00080B582B0019000208DF8030040F2280039
:100DC000C2F20000006878B3FFE740F20800C2F208
:100DD0000000006840F22801C2F200010A684FF4E6
:100DE0007A71B1FBF2F1B0FBF1F001F02FFCB0B978
:100DF000FFE701980F280DD8FFE701994FF0FF306A
:100E0000002200F047F8019840F22C01C2F20001E4
:100E1000086003E001208DF80300FFE703E00120F4
:100E20008DF80300FFE703E001208DF80300FFE7E2
:100E30009DF8030002B080BD80B582B0FFE741F2AB
:100E40006000C4F20200016841F001010160006825
:100E500000F0010001900198FFE7FFE741F2580020
:100E6000C4F20200016841F080510160006800F0A6
:100E7000805000900098FFE700F006F902B080BDB6
:100E800080B582B08DF807009DF9070005F080FE5F
:100E900002B080BD80B586B08DF817000491039232
:100EA00005F08EFE02909DF91700019002980499BA
:100EB000039A04F01DF90146019805F089FE06B079
:100EC00080BD000080B582B00190019805F0A2FEBF
:100ED00002B080BD85B00390039800285ED1FFE783
:100EE00047F20000C4F20000006800F4C060B0F5F2
:100EF000806F49D1FFE747F28001C4F20001086822
:100F000020F48070086047F20002C4F20002116809
:100F1000012060F34A21116040F20801C2F2000191
:100F20000968322251434DF68362C4F21B32A1FBA1
:100F3000022100EB91400290FFE747F21400C4F257
:100F400000000168002049050029019006D5FFE74F
:100F50000298002818BF01200190FFE70198C00700
:100F600020B1FFE7029801380290E6E747F214004B
:100F7000C4F2000000684005002804D5FFE7032004
:100F80008DF813007CE008E047F28001C4F2000114
:100F9000086820F480700860FFE76DE00398B0F502
:100FA000007F5ED1FFE747F20000C4F20000006856
:100FB00000F4C060B0F5806F49D1FFE747F28001CF
:100FC000C4F20001086840F48070086047F2000233
:100FD000C4F200021168012060F34A21116040F25E
:100FE0000801C2F200010968322251434DF68362C2
:100FF000C4F21B32A1FB022100EB91400290FFE7FB
:1010000047F21400C4F200000168002049050029DD
:10101000009006D5FFE70298002818BF0120009035
:10102000FFE70098C00720B1FFE70298013802905F
:10103000E6E747F21400C4F200000068400500280B
:1010400004D5FFE703208DF8130019E008E047F20C
:101050008001C4F20001086840F480700860FFE776
:1010600009E047F20001C4F200010868022262F3BD
:101070004A200860FFE7FFE700208DF81300FFE734
:101080009DF8130005B0704747F20801C4F2000153
:10109000086840F4804008607047000080B586B062
:1010A000059000208DF80B008DF80A0005988078D7
:1010B0000007002840F1B580FFE700208DF8090007
:1010C00041F25800C4F202000068C000002813D4A6
:1010D000FFE7FFE741F25800C4F20200016841F067
:1010E00080510160006800F0805001900198FFE796
:1010F00001208DF80900FFE747F20001C4F200016A
:10110000086840F480700860FFF724FE0390FFE752
:1011100047F20000C4F200000068C00500280CD4AB
:10112000FFE7FFF717FE0399401A032804D3FFE7F0
:1011300003208DF80B0000E0EAE79DF80B00002883
:101140005BD1FFE741F29000C4F20200006800F4B6
:10115000407004900498C8B1FFE704980599096CA1
:10116000884213D0FFE741F29001C4F202010868FF
:1011700020F440700490086840F4803008600868EB
:1011800020F48030086004980860FFE79DF81000A4
:10119000C007E0B1FFE7FFF7DDFD0390FFE741F295
:1011A0009000C4F202000068800700280ED4FFE718
:1011B000FFF7D0FD0399401A41F28931884204D3E8
:1011C000FFE703208DF80B0000E0E8E7FFE79DF85C
:1011D0000B0060B9FFE741F29001C4F20201086818
:1011E00020F44070059A126C1043086004E09DF8EA
:1011F0000B008DF80A00FFE704E09DF80B008DF866
:101200000A00FFE79DF80900012809D1FFE741F234
:101210005801C4F20201086820F080500860FFE71E
:10122000FFE705980078C00760B1FFE741F2880149
:10123000C4F20201086820F00300059A52681043C6
:101240000860FFE705980078800700280CD5FFE7C5
:1012500041F28801C4F20201086820F00C00059AEE
:10126000926810430860FFE705980078400700285F
:101270000CD5FFE741F28801C4F20201086820F0B2
:101280003000059AD26810430860FFE7059800789F
:10129000000700280CD5FFE741F28801C4F20201E3
:1012A000086820F0C000059A126910430860FFE743
:1012B00005980078800600280CD5FFE741F28801E8
:1012C000C4F20201086820F44060059A5269104394
:1012D0000860FFE705980078400600280CD5FFE776
:1012E00041F28801C4F20201086820F44050059AD6
:1012F000926910430860FFE705980078000600280F
:101300000CD5FFE741F28801C4F20201086820F41D
:101310004040059AD26910430860FFE7059840787D
:10132000C00760B1FFE741F28801C4F2020108681A
:1013300020F44030059A126A10430860FFE70598D0
:101340004078800700280CD5FFE741F28801C4F2FD
:101350000201086820F44020059A526A1043086090
:10136000FFE705984078400700281BD5FFE741F2CA
:101370008801C4F20201086820F44010059A926ABC
:10138000104308600598806AB0F5801F09D1FFE717
:1013900041F20C01C4F20201086840F480100860B8
:1013A000FFE7FFE705984078000700281BD5FFE717
:1013B00041F28801C4F20201086820F44000059A55
:1013C000D26A104308600598C06AB0F5800F09D151
:1013D000FFE741F20C01C4F20201086840F48010FA
:1013E0000860FFE7FFE705984078C00600281BD596
:1013F000FFE741F28801C4F20201086820F0407062
:10140000059A126B104308600598006BB0F1807F5D
:1014100009D1FFE741F20C01C4F20201086840F46F
:1014200080100860FFE7FFE70598407880060028F5
:101430001BD5FFE741F28801C4F20201086820F0E1
:101440004060059A526B104308600598406BB0F1FC
:10145000006F09D1FFE741F20C01C4F202010868F4
:1014600040F480100860FFE7FFE7059840784006E9
:1014700000281BD5FFE741F28801C4F20201086889
:1014800020F04060059A926B104308600598806BCD
:10149000B0F1006F09D1FFE741F20C01C4F2020183
:1014A000086840F480100860FFE7FFE7059840787F
:1014B000000600281BD5FFE741F28801C4F20201B3
:1014C000086820F04050059AD26B104308600598D8
:1014D000C06BB0F1805F09D1FFE741F20C01C4F2AB
:1014E0000201086840F480300860FFE7FFE79DF8DC
:1014F0000A0006B080BD000080B586B0049003915C
:1015000000200090049820B9FFE701208DF8170013
:1015100081E1039842F20001C4F20201096801F07E
:101520000F01884216D9FFE742F20000C4F2020020
:10153000016821F00F01039A11430160006800F077
:101540000F000399884204D0FFE701208DF81700AF
:1015500061E1FFE704980078C007002800F0A3804D
:10156000FFE704984068032839D1FFE741F2000003
:10157000C4F2020000688001002804D4FFE70120C3
:101580008DF8170047E103F0EBFD019001984BF255
:101590000141C0F2C441884220D3FFE741F2080074
:1015A000C4F20200006810F0F00F0AD0FFE70498C0
:1015B00000788007002810D5FFE70498806860B99C
:1015C000FFE741F20801C4F202010868082262F351
:1015D0000710086080200090FFE7FFE738E00498DC
:1015E000406802280ED1FFE741F20000C4F2020079
:1015F00000688003002804D4FFE701208DF817005D
:1016000009E10DE041F20000C4F20200006840056B
:10161000002804D4FFE701208DF81700FBE0FFE766
:1016200000F02CF9019001984BF20141C0F2C44145
:1016300088420CD3FFE741F20801C4F202010868B6
:10164000082262F30710086080200090FFE7FFE7A0
:1016500041F20801C4F20201086820F00300049A74
:10166000526810430860FFF775FB0290FFE741F2F4
:101670000800C4F20200006800F00C0004994968F8
:10168000B0EB810F0ED0FFE7FFF764FB0299401A21
:1016900041F28931884204D3FFE703208DF8170017
:1016A000B9E0E4E7FFE704980078800700282CD52C
:1016B000FFE7049800784007002809D5FFE741F2CA
:1016C0000801C4F20201086840F4E0600860FFE726
:1016D00004980078000700280BD5FFE741F20801C5
:1016E000C4F20201086840F4E06020F46050086031
:1016F000FFE741F20801C4F20201086820F0F0009F
:10170000049A9268104308600DE00098802809D17F
:10171000FFE741F20801C4F20201086820F0F0007E
:101720000860FFE7FFE7039842F20001C4F20201FC
:10173000096801F00F01884228D2FFE742F2000158
:10174000C4F20201086820F00F00039A10430860F9
:10175000FFF700FB0290FFE742F20000C4F2020034
:10176000006800F00F00039988420ED0FFE7FFF7F2
:10177000F1FA0299401A41F28931884204D3FFE715
:1017800003208DF8170046E0E6E7FFE704980078AD
:10179000400700280CD5FFE741F20801C4F202011E
:1017A000086820F4E060049AD26810430860FFE7FC
:1017B00004980078000700280DD5FFE741F20801E2
:1017C000C4F20201086820F46050049A126940EAE9
:1017D000C2000860FFE700F051F841F20801C4F2CE
:1017E00002010968C9B20A0947F6FC21C0F60001E6
:1017F000895C01F01F01C84040F20801C2F20001FB
:10180000086040F22C00C2F200000068FFF7D0FA36
:101810008DF81700FFE79DF8170006B080BD0000A7
:1018200040F20800C2F200000068704780B5FFF780
:10183000F7FF41F20801C4F202010968C1F3022274
:1018400047F60C31C0F60001895C01F01F01C84069
:1018500080BD000080B5FFF7E3FF41F20801C4F24C
:1018600002010968C1F3C22247F60C31C0F600013B
:10187000895C01F01F01C84080BD000086B041F2C4
:101880000800C4F20200006800F00C00042806D131
:10189000FFE742F20040C0F2F400019069E041F23B
:1018A0000800C4F20200006800F00C00082806D10D
:1018B000FFE743F20060C0F26E10019058E041F281
:1018C0000800C4F20200006800F00C000C284BD1A4
:1018D000FFE741F20C00C4F20200016801F00301CD
:1018E00004910068C1B2012000EB1110029004982D
:1018F0000090022815D0FFE70098032812D1FFE7D7
:10190000029943F20060C0F26E10B0FBF1F041F2B8
:101910000C01C4F202010968C1F306214843059095
:1019200011E0FFE7029942F20040C0F2F400B0FB80
:10193000F1F041F20C01C4F202010968C1F3062181
:1019400048430590FFE741F20C00C4F20200006832
:1019500000F0C061022000EB11600390059803992C
:10196000B0FBF1F0019002E000200190FFE7FFE7FB
:10197000FFE7019806B07047B0B588B006900698AA
:1019800020B9FFE701208DF81F00CCE3069800780E
:10199000C007002800F09B80FFE741F20800C4F276
:1019A0000200006800F00C00049041F20C00C4F248
:1019B0000200006800F00300039004980C2804D192
:1019C000FFE70398032804D0FFE70498082812D102
:1019D000FFE741F20000C4F2020000688003002823
:1019E00008D5FFE70698406820B9FFE701208DF889
:1019F0001F0098E36AE0FFE706984068B0F5803F73
:101A000009D1FFE741F20001C4F20201086840F485
:101A10008030086020E006984068B0F5A02F0DD116
:101A2000FFE741F20001C4F20201086840F480209F
:101A30000860086840F4803008600CE041F2000162
:101A4000C4F20201086820F480300860086820F4BD
:101A500080200860FFE7FFE7FFE706984068D0B105
:101A6000FFE7FFF777F90590FFE741F20000C4F2C6
:101A700002000068800300280CD4FFE7FFF76AF932
:101A80000599401A652804D3FFE703208DF81F004D
:101A900049E3EAE719E0FFF75DF90590FFE741F256
:101AA0000000C4F202000068800300280CD5FFE7A4
:101AB000FFF750F90599401A652804D3FFE7032082
:101AC0008DF81F002FE3EAE7FFE7FFE7FFE706983F
:101AD00000788007002840F19F80FFE741F208006E
:101AE000C4F20200006800F00C00049041F20C0007
:101AF000C4F20200006800F00300039004980C2870
:101B000004D1FFE70398022804D0FFE704980428D3
:101B10002CD1FFE741F20000C4F20200006840054A
:101B2000002808D5FFE70698C06820B9FFE7012024
:101B30008DF81F00F7E241F20401C4F202010868C7
:101B400020F0FE40069A126940EA0260086040F206
:101B50002C00C2F200000068FFF72AF920B1FFE76D
:101B600001208DF81F00DEE2FFE754E00698C06810
:101B700070B3FFE741F20001C4F20201086840F4CB
:101B800080700860FFF7E6F80590FFE741F200007B
:101B9000C4F202000068400500280CD4FFE7FFF7FC
:101BA000D9F80599401A032804D3FFE703208DF8DC
:101BB0001F00B8E2EAE741F20401C4F2020108683A
:101BC00020F0FE40069A126940EA0260086021E0B7
:101BD00041F20001C4F20201086820F4807008603C
:101BE000FFF7B8F80590FFE741F20000C4F20200E9
:101BF0000068400500280CD5FFE7FFF7ABF8059912
:101C0000401A032804D3FFE703208DF81F008AE25F
:101C1000EAE7FFE7FFE7FFE70698007800070028FC
:101C200049D5FFE70698406910B3FFE741F29401F8
:101C3000C4F20201086840F001000860FFF78AF86A
:101C40000590FFE741F29400C4F2020000688007AB
:101C500000280CD4FFE7FFF77DF80599401A032808
:101C600004D3FFE703208DF81F005CE2EAE721E0E0
:101C700041F29401C4F20201086820F001000860FA
:101C8000FFF768F80590FFE741F29400C4F2020004
:101C90000068800700280CD5FFE7FFF75BF805997F
:101CA000401A032804D3FFE703208DF81F003AE20F
:101CB000EAE7FFE7FFE7069800784007002840F1D1
:101CC000C680FFE700208DF80B0041F25800C4F2F7
:101CD00002000068C000002813D4FFE7FFE741F2CC
:101CE0005800C4F20200016841F0805101600068B0
:101CF00000F0805001900198FFE701208DF80B0063
:101D0000FFE747F20000C4F200000068C0050028A9
:101D100022D4FFE747F20001C4F20001086840F452
:101D200080700860FFF716F80590FFE747F20000A3
:101D3000C4F200000068C00500280CD4FFE7FFF7DC
:101D400009F80599401A032804D3FFE703208DF80A
:101D50001F00E8E1EAE7FFE7FFE70698806801284F
:101D600009D1FFE741F29001C4F20201086840F096
:101D7000010008601FE00698806805280DD1FFE784
:101D800041F29001C4F20201086840F004000860CA
:101D9000086840F0010008600CE041F29001C4F2D4
:101DA0000201086820F001000860086820F00400C3
:101DB0000860FFE7FFE7FFE706988068E0B1FFE70C
:101DC000FEF7C8FF0590FFE741F29000C4F2020061
:101DD0000068800700280ED4FFE7FEF7BBFF0599D7
:101DE000401A41F28931884204D3FFE703208DF87D
:101DF0001F0098E1E8E71BE0FEF7ACFF0590FFE766
:101E000041F29000C4F202000068800700280ED55D
:101E1000FFE7FEF79FFF0599401A41F2893188429A
:101E200004D3FFE703208DF81F007CE1E8E7FFE71C
:101E30009DF80B00012809D1FFE741F25801C4F2D7
:101E40000201086820F080500860FFE7FFE706986D
:101E500000788006002849D5FFE70698806910B30E
:101E6000FFE741F29801C4F20201086840F0010066
:101E70000860FEF76FFF0590FFE741F29800C4F29B
:101E800002000068800700280CD4FFE7FEF762FF1D
:101E90000599401A032804D3FFE703208DF81F009B
:101EA00041E1EAE721E041F29801C4F20201086849
:101EB00020F001000860FEF74DFF0590FFE741F2BA
:101EC0009800C4F202000068800700280CD5FFE7E4
:101ED000FEF740FF0599401A032804D3FFE70320CB
:101EE0008DF81F001FE1EAE7FFE7FFE70698C069EA
:101EF000002800F01481FFE741F20800C4F202005C
:101F0000006800F00C000C2800F0B080FFE7069895
:101F1000C06902287CD1FFE741F20001C4F202014E
:101F2000086820F080700860FEF714FF0590FFE756
:101F300041F20000C4F202000068800100280CD5C4
:101F4000FFE7FEF707FF0599401A032804D3FFE7D0
:101F500003208DF81F00E6E0EAE741F20C01C4F22D
:101F60000201086848F20C02C0F29F121040DDF82E
:101F700018C0DCF82020DCF82450DCF828E0DCF87D
:101F80002C306FF00F0404EB0514224342EA0E22BA
:101F9000DCF8304040F2000ECFF6E07E0EEA045E40
:101FA000AEF5001E42EA0E02DCF834E04FF07E4C43
:101FB0000CEA0E6C0CF17E4C42EA0C0242EAC3625F
:101FC0001043086041F20002C4F20202106840F0BF
:101FD00080701060086840F080700860FEF7BAFEFC
:101FE0000590FFE741F20000C4F2020000688001A2
:101FF00000280CD4FFE7FEF7ADFE0599401A032830
:1020000004D3FFE703208DF81F008CE0EAE72CE003
:1020100041F20001C4F20201086820F080700860FB
:10202000FEF798FE0590FFE741F20000C4F20200BF
:102030000068800100280CD5FFE7FEF78BFE0599AC
:10204000401A032804D3FFE703208DF81F006AE03D
:10205000EAE741F20C01C4F2020108684FF6FC7293
:10206000CFF6EE6210400860FFE757E00698C069BF
:10207000012804D1FFE701208DF81F0053E041F251
:102080000C00C4F2020000680390039800F0030003
:102090000699096A88423BD1FFE7039800F0F000F7
:1020A00006994A6A6FF00F0101EB021188422FD1A5
:1020B000FFE7039800F4FE400699896AB0EB012F10
:1020C00026D1FFE7039800F078400699C96AB0EB83
:1020D000C16F1DD1FFE7039800F4C00006990A6B99
:1020E0000021CFF6E07101EA0251A1F5001188420A
:1020F0000ED1FFE7039800F0C06006994A6B4FF0DD
:102100007E4101EA026101F17E41884204D0FFE78D
:1021100001208DF81F0006E0FFE7FFE7FFE7002042
:102120008DF81F00FFE79DF81F0008B0B0BD00004C
:1021300080B584B0039002910192039800684068D2
:102140004FF63F71C0F2FF0108400090BDF8020059
:102150000299C8700098C0F3042002994870009852
:1021600000F03F0002998870BDF80000400B029912
:102170000870019898B9FFE70298C07803F0DCF97D
:102180000299C8700298407803F0D6F90299487015
:102190000298807803F0D0F902998870FFE7002058
:1021A00004B080BD80B584B0039002910192039881
:1021B00000688068029948600398006800696FF3BE
:1021C000DF300299886003980068006847F67F71E5
:1021D000C0F27F01084000900098C0F305400299CA
:1021E00008700098C0F3062002994870009800F02B
:1021F0007F00029988700098C0F380500299C870DF
:10220000019898B9FFE70298007803F095F90299D0
:1022100008700298407803F08FF90299487002988C
:10222000807803F089F902998870FFE7002004B0F4
:1022300080BD000080B582B0019001208DF80300C0
:102240000198002878D0FFE7019890F8250040B960
:10225000FFE70199002081F82400019800F070F850
:10226000FFE70199022081F8250001980068C06805
:1022700000F010010020B0EB111F4FD1FFE7FFE786
:1022800001980168CA204862019801685320486299
:10229000FFE7019803F086F98DF803009DF803002D
:1022A00000BBFFE70198016888694FF6BF72CFF65F
:1022B0008F3210408861019A1168506813699269E1
:1022C0001843024388691043886101980168826855
:1022D000C06840EA02400861019803F0A3F98DF854
:1022E0000300FFE79DF8030088B9FFE70198006845
:1022F000806920F06040019A11685369D2F81CC0CF
:10230000126A42EA0C021A4310438861FFE7FFE7B2
:1023100001980168FF204862FFE703E000208DF884
:102320000300FFE79DF8030028B9FFE701990120AA
:1023300081F82500FFE7FFE79DF8030002B080BDAC
:1023400081B000900098006842F60001C4F20001DC
:10235000884209D1FFE741F29001C4F20201086806
:1023600040F400400860FFE701B0704780B588B0D6
:10237000069005910492FFE7069890F82400012842
:1023800004D1FFE702208DF81F0081E006990120AB
:1023900081F82400FFE7FFE70699022081F8250075
:1023A000049868B9FFE705984078C006002807D56B
:1023B000FFE70599487800F0EF000A304870FFE722
:1023C0000498E0B9FFE70598C07803F0C9F8000465
:1023D00000900598407803F0C3F80146009840EA61
:1023E000012001900598807803F0BAF80146019821
:1023F00008440599097840EA413003900CE00598BB
:10240000017843788278C078000440EA03201044C1
:1024100040EA41300390FFE7FFE706980168CA20D1
:1024200048620698016853204862FFE7069803F067
:10243000B9F88DF80B009DF80B0078B9FFE7039809
:102440004FF63F71C0F2FF010840069909684860E5
:10245000069803F0E7F88DF80B00FFE7FFE7069812
:102460000168FF204862FFE79DF80B0028B9FFE7ED
:102470000699012081F82500FFE7FFE70699002073
:1024800081F82400FFE79DF80B008DF81F00FFE79F
:102490009DF81F0008B080BD80B588B006900591FA
:1024A0000492FFE7069890F82400012804D1FFE782
:1024B00002208DF81F009AE00699012081F824007F
:1024C000FFE7FFE70699022081F82500FFE706985D
:1024D0000168CA2048620698016853204862FFE7F5
:1024E000069803F05FF88DF80B009DF80B000028AC
:1024F00063D1FFE7049840BBFFE706980068806956
:102500004006002801D5FFE703E005990020C870C8
:10251000FFE70598007803F023F800040090059881
:10252000407803F01DF80146009840EA0120019030
:102530000598807803F014F801460198084405993D
:10254000C97840EA8150039018E0069800688069D5
:102550004006002801D5FFE703E005990020C87078
:10256000FFE7059908784B788A78C978000440EA33
:102570000320104440EA81500390FFE7039847F698
:102580007F71C0F27F0108400699096808600698CB
:102590000168886920F4802088610599C868096904
:1025A00040EA01020698016888691043886106982C
:1025B00003F038F88DF80B00FFE7FFE70698016895
:1025C000FF204862FFE79DF80B0028B9FFE7069956
:1025D000012081F82500FFE7FFE70699002081F838
:1025E0002400FFE79DF80B008DF81F00FFE79DF822
:1025F0001F0008B080BD000080B584B00290029832
:1026000001685F20C0F20100C860FEF7A3FB0190E3
:10261000FFE702980068C068800600280DD4FFE735
:10262000FEF798FB0199401AB0F57A7F04D9FFE7CD
:1026300003208DF80F0004E0EBE700208DF80F0079
:10264000FFE79DF80F0004B080BD000080B582B0A8
:102650000190019803F026F802B080BD81B000908F
:1026600001B0704781B0009001B0704781B0009018
:1026700001B0704784B00290019100200090FFE704
:10268000029890F83C00012804D1FFE702208DF861
:102690000F0083E00299012081F83C00FFE7FFE78B
:1026A000009820F0FF000199C96808430090009845
:1026B00020F440700199896808430090009820F444
:1026C00080600199496808430090009820F40060F8
:1026D0000199096808430090009820F480500199FE
:1026E000096908430090009820F400500199496955
:1026F00008430090009820F480400199096B08433A
:102700000090009820F470200199896940EA014006
:102710000090009820F080500199C969084300900A
:102720000298006842F60041C4F20101884209D0D3
:10273000FFE70298006843F20041C4F201018842B9
:102740001ED1FFE7009820F470000199896A40EAE1
:1027500001500090009820F080700199096A0843A8
:102760000090009820F000700199496A0843009099
:10277000009820F000500199C96A08430090FFE7D3
:102780000098029909684864FFE70299002081F8DF
:102790003C00FFE700208DF80F00FFE79DF80F00D9
:1027A00004B0704781B0009001B0704781B00090D4
:1027B00001B0704781B0009001B0704785B00390C0
:1027C0000291FFE7039890F83C00012804D1FFE74D
:1027D00002208DF813008CE00399012081F83C0061
:1027E000FFE7FFE70399022081F83D0003980068A6
:1027F0004068019003980068806800900398006822
:1028000042F60041C4F20101884209D0FFE7039873
:10281000006843F20041C4F2010188420AD1FFE797
:10282000019820F4700001900298416801980843D3
:102830000190FFE701984FF68F71CFF6FF510840E6
:10284000019002980168019808430190019803994A
:10285000096848600398006842F60041C4F201012B
:1028600088422AD0FFE703980068B0F1804F24D057
:10287000FFE70398006840F20041C4F2000188427B
:102880001BD0FFE70398006840F60001C4F2000186
:10289000884212D0FFE70398006843F20041C4F277
:1028A0000101884209D0FFE70398006844F2000163
:1028B000C4F2010188420ED1FFE7009820F08000A9
:1028C000009002988168009808430090009803994E
:1028D00009688860FFE70399012081F83D00FFE760
:1028E0000399002081F83C00FFE700208DF81300D9
:1028F000FFE79DF8130005B07047000081B000901D
:1029000001B0704780B582B00090009820B9FFE711
:1029100001208DF8070045E0009890F83D0040B98F
:10292000FFE70099002081F83C00009800F03EF895
:10293000FFE70099022081F83D00009951F8040B4F
:1029400002F040FF0099012081F84800FFE700995C
:10295000012081F83E00009981F83F00009981F83C
:102960004000009981F84100009981F842000099E7
:1029700081F84300FFE7FFE70099012081F8440058
:10298000009981F84500009981F84600009981F886
:102990004700FFE70099012081F83D0000208DF8F5
:1029A0000700FFE79DF8070002B080BD80B586B044
:1029B00005900598006841F20001C4F200018842C8
:1029C00019D1FFE7FFE741F25800C4F202000168A5
:1029D00041F010010160006800F0100004900498BC
:1029E000FFE73620019000221146FEF753FA0198C6
:1029F000FEF746FA33E00598006844F20041C4F25D
:102A00000101884210D1FFE7FFE741F26000C4F204
:102A10000200016841F400310160006800F40030F8
:102A200003900398FFE719E00598006844F6000159
:102A3000C4F20101884210D1FFE7FFE741F26000D4
:102A4000C4F20200016841F480210160006800F4D2
:102A5000802002900298FFE7FFE7FFE7FFE706B05C
:102A600080BD000083B00190019890F83D000128DE
:102A700004D0FFE701208DF80B0060E001990220EF
:102A800081F83D0001980168C86840F00100C86005
:102A90000198006842F60041C4F2010188422AD040
:102AA000FFE701980068B0F1804F24D0FFE701985C
:102AB000006840F20041C4F2000188421BD0FFE7E9
:102AC0000198006840F60001C4F20001884212D06B
:102AD000FFE70198006843F20041C4F20101884217
:102AE00009D0FFE70198006844F20001C4F2010137
:102AF000884219D1FFE70198006880680721C0F279
:102B0000010108400090009806280CD0FFE70098CB
:102B1000B0F5803F07D0FFE701980168086840F0F2
:102B200001000860FFE706E001980168086840F0CE
:102B300001000860FFE700208DF80B00FFE79DF81B
:102B40000B0003B07047000081B0009001B07047E7
:102B500080B584B0039003980068C0680290039821
:102B60000068006901909DF804008007002824D5C2
:102B7000FFE79DF80800800700281DD5FFE70398B0
:102B800001686FF00200086103990120087703983B
:102B900000688069800720B1FFE70398FFF7D4FF42
:102BA00006E0039800F0AEF9039800F0DFFAFFE7C3
:102BB000039900200877FFE7FFE79DF8040040072E
:102BC000002825D5FFE79DF80800400700281ED5FE
:102BD000FFE7039801686FF0040008610399022081
:102BE000087703980068806910F4407F04D0FFE7FD
:102BF0000398FFF7A9FF06E0039800F083F9039814
:102C000000F0B4FAFFE7039900200877FFE7FFE739
:102C10009DF804000007002824D5FFE79DF8080070
:102C2000000700281DD5FFE7039801686FF0080032
:102C3000086103990420087703980068C069800739
:102C400020B1FFE70398FFF77FFF06E0039800F04D
:102C500059F9039800F08AFAFFE7039900200877F2
:102C6000FFE7FFE79DF80400C006002825D5FFE731
:102C70009DF80800C00600281ED5FFE703980168EC
:102C80006FF0100008610399082008770398006826
:102C9000C06910F4407F04D0FFE70398FFF754FFAA
:102CA00006E0039800F02EF9039800F05FFAFFE7C2
:102CB000039900200877FFE7FFE79DF80400C007AD
:102CC00078B1FFE79DF80800C00748B1FFE7039817
:102CD00001686FF001000861039800F03BFCFFE71A
:102CE000FFE7019800F08000802806D0FFE79DF8FC
:102CF00005008006002810D5FFE79DF808000006B3
:102D0000002809D5FFE7039801686FF402500861B5
:102D10000398FFF7A7FCFFE7FFE79DF80500C00752
:102D200080B1FFE79DF808000006002809D5FFE7FD
:102D3000039801686FF4807008610398FFF78EFCB8
:102D4000FFE7FFE79DF804004006002810D5FFE7E5
:102D50009DF808004006002809D5FFE703980168A0
:102D60006FF040000861039800F0C0FFFFE7FFE745
:102D70009DF804008006002810D5FFE79DF80800A4
:102D80008006002809D5FFE7039801686FF020004E
:102D900008610398FFF76AFCFFE7FFE79DF806006C
:102DA000C006002810D5FFE79DF80A00C0060028DD
:102DB00009D5FFE7039801686FF480100861039854
:102DC000FFF7F4FCFFE7FFE79DF806008006002808
:102DD00010D5FFE79DF80A008006002809D5FFE717
:102DE000039801686FF4001008610398FFF7DAFC9C
:102DF000FFE7FFE79DF806004006002810D5FFE733
:102E00009DF80A004006002809D5FFE703980168ED
:102E10006FF4800008610398FFF7CCFCFFE7FFE741
:102E20009DF806000006002810D5FFE79DF80A006F
:102E30000006002809D5FFE7039801686FF4000039
:102E400008610398FFF75AFDFFE7FFE704B080BD74
:102E500080B588B0079000200690059004900390FC
:102E600002900798006844F20041C4F201018842D0
:102E70001ED1FFE7FFE741F24C00C4F202000168F7
:102E800041F001010160006800F00100019001982B
:102E9000FFE740200290022003900020049005905C
:102EA000012006904FF0904002A9FDF771FD27E048
:102EB0000798006844F60001C4F2010188421ED15F
:102EC000FFE7FFE741F24C00C4F20200016841F065
:102ED00001010160006800F0010000900098FFE728
:102EE0008020029002200390002004900590012091
:102EF00006904FF0904002A9FDF74AFDFFE7FFE77B
:102F000008B080BD81B0009001B0704780B586B038
:102F100004900391029200208DF80700FFE70498C7
:102F200090F83C00012804D1FFE702208DF817003B
:102F3000C0E00499012081F83C00FFE7FFE7029818
:102F40000090142800F2A7800099DFE801F00BA49C
:102F5000A4A424A4A4A43EA4A4A457A4A4A471A497
:102F6000A4A48A0004980068039902F013FD049851
:102F70000168886940F008008861049801688869E0
:102F800020F0040088610398026904980168886948
:102F90001043886183E004980068039902F0A4FD5F
:102FA00004980168886940F40060886104980168A9
:102FB000886920F480608861039802690498016838
:102FC000886940EA0220886169E0049800680399F2
:102FD00002F042FE04980168C86940F00800C86128
:102FE00004980168C86920F00400C8610398026968
:102FF00004980168C8691043C86150E004980068EB
:10300000039902F0E1FE04980168C86940F4006089
:10301000C86104980168C86920F48060C861039899
:10302000026904980168C86940EA0220C86136E074
:1030300004980068039902F07FFF04980168086D06
:1030400040F00800086504980168086D20F004004D
:1030500008650398026904980168086D10430865C3
:103060001DE004980068039902F0D0FF04980168FD
:10307000086D40F40060086504980168086D20F44C
:10308000806008650398026904980168086D40EA49
:103090000220086503E001208DF80700FFE7FFE745
:1030A0000499002081F83C00FFE79DF807008DF8A7
:1030B0001700FFE79DF8170006B080BD80B582B00D
:1030C0000090009820B9FFE701208DF8070045E047
:1030D000009890F83D0040B9FFE70099002081F882
:1030E0003C00009800F03EF8FFE70099022081F8CC
:1030F0003D00009951F8040B02F064FB0099012097
:1031000081F84800FFE70099012081F83E0000990E
:1031100081F83F00009981F84000009981F8410052
:10312000009981F84200009981F84300FFE7FFE72A
:103130000099012081F84400009981F84500009928
:1031400081F84600009981F84700FFE700990120C7
:1031500081F83D0000208DF80700FFE79DF807008B
:1031600002B080BD81B0009001B0704781B0009086
:1031700001B0704780B590B00E900D910D9828B9B0
:10318000FFE70E9890F83E000B9034E00D9804286D
:1031900005D1FFE70E9890F83F000A9028E00D98BF
:1031A000082805D1FFE70E9890F8400009901CE030
:1031B0000D980C2805D1FFE70E9890F84100089073
:1031C00010E00D98102805D1FFE70E9890F8420006
:1031D000079004E00E9890F843000790FFE70798E7
:1031E0000890FFE708980990FFE709980A90FFE721
:1031F0000A980B90FFE70B98012804D0FFE7012005
:103200008DF83F00E1E00D9828B9FFE70E99022004
:1032100081F83E0038E00D98042806D1FFE70E99AA
:10322000022081F83F0006902CE00D98082806D176
:10323000FFE70E99022081F8400005901FE00D98ED
:103240000C2806D1FFE70E99022081F84100049076
:1032500012E00D98102806D1FFE70E99022081F8A0
:103260004200039005E00E99022081F8430003908C
:10327000FFE703980490FFE704980590FFE705989F
:103280000690FFE70698FFE70E9800680D99012267
:10329000019202F063FB01980E99096842F6004220
:1032A000C4F20102914202902DD0FFE70E9801680E
:1032B000012043F20042C4F201029142029022D066
:1032C000FFE70E980168012044F20002C4F20102F7
:1032D0009142029017D0FFE70E980168012044F256
:1032E0000042C4F20102914202900CD0FFE70E9816
:1032F00000684BF60001CBF6FE710844B0FA80F08E
:1033000040090290FFE70298C00738B1FFE70E9826
:103310000168486C40F400404864FFE70E9800687C
:1033200042F60041C4F2010188422AD0FFE70E981C
:103330000068B0F1804F24D0FFE70E98006840F29B
:103340000041C4F2000188421BD0FFE70E980068DC
:1033500040F60001C4F20001884212D0FFE70E9847
:10336000006843F20041C4F20101884209D0FFE73E
:103370000E98006844F20001C4F20101884219D19C
:10338000FFE70E98006880680721C0F2010108403D
:103390000C900C9806280CD0FFE70C98B0F5803FF5
:1033A00007D0FFE70E980168086840F00100086048
:1033B000FFE706E00E980168086840F00100086029
:1033C000FFE700208DF83F00FFE79DF83F0010B0B9
:1033D00080BD000080B588B007900691079800680E
:1033E0000699002202F0BAFA07980168012042F615
:1033F0000042C4F20102914205902DD0FFE70798E8
:103400000168012043F20042C4F20102914205909A
:1034100022D0FFE707980168012044F20002C4F2BD
:1034200001029142059017D0FFE70798016801203B
:1034300044F20042C4F20102914205900CD0FFE731
:10344000079800684BF60001CBF6FE710844B0FA0D
:1034500080F040090590FFE70598C007D8B1FFE765
:10346000FFE707980068006A41F21111084210D185
:10347000FFE707980068006A44F24441084207D118
:10348000FFE707980168486C20F400404864FFE7B4
:10349000FFE7FFE7FFE7FFE707980068006A41F2F0
:1034A0001111084210D1FFE707980068006A44F242
:1034B0004441084207D1FFE707980168086820F0F7
:1034C00001000860FFE7FFE7FFE7069828B9FFE77C
:1034D0000799012081F83E0038E00698042806D1BB
:1034E000FFE70799012081F83F0004902CE006983F
:1034F000082806D1FFE70799012081F840000390D2
:103500001FE006980C2806D1FFE70799012081F8F3
:103510004100029012E00698102806D1FFE70799B3
:10352000012081F84200019005E00799012081F80F
:1035300043000190FFE701980290FFE70298039093
:10354000FFE703980490FFE70498FFE7002008B026
:1035500080BD000010B592B011901198006841F242
:103560000001C4F20001884240F0BE83FFE740F250
:103570000C20C2F200000078002840F0C880FFE76D
:1035800040F20420C2F200000088002800F0BF8052
:10359000FFE740F20422C2F200021088411C88B208
:1035A0001180B0F57A7F40F0B180FFE701201090E4
:1035B000FFE7109803281DDCFFE7109940F2E010A8
:1035C000C2F20000405C01280FD1FFE710980130E3
:1035D00040F23703C2F200031A78511C197040F20E
:1035E000E411C2F200018854FFE7FFE710980130B0
:1035F0001090DEE702200F90FFE70F9800281DD4FF
:10360000FFE70F9940F2DC10C2F20000405C012895
:103610000FD1FFE70F98013040F23703C2F20003E9
:103620001A78511C197040F2E411C2F2000188545A
:10363000FFE7FFE70F9801380F90DEE740F2360111
:10364000C2F2000100200C90087040F2EA11C2F2B0
:103650000001087040F2F010C2F200000D900178F5
:103660004278837840F20C00C2F200000078EC4609
:10367000CCF8000048F6EB50C0F6000003F0AEFDB9
:103680000D9801784278837840F23700C2F200004A
:103690000078EC46CCF8000048F6CB50C0F60000AD
:1036A00003F09CFD0D9801784278837840F2E41C89
:1036B000C2F2000C9CF800009CF801E09CF802406B
:1036C000EC46CCF80840CCF804E0CCF8000048F612
:1036D0000560C0F6000003F081FD40F20C21C2F24B
:1036E00000010120087003F0CDFC0C9A4FF09040CF
:1036F0002021FDF719FB0D9801784278837848F670
:103700003C50C0F6000003F069FDFFE7EBE240F239
:103710000C20C2F200000078012840F0E382FFE7AD
:1037200040F2EA10C2F20000007802282DD1FFE733
:1037300040F23202C2F200021078411CC8B211708D
:10374000C82821D1FFE740F23201C2F20001002077
:10375000087040F2DB10C2F200000178013101F084
:103760000301017040F20621C2F200010A7802F062
:103770000F020A700278102000FA02F20878104353
:10378000087003F0F3FBFFE7FFE740F2EA10C2F234
:103790000000007803283ED1FFE740F23202C2F277
:1037A00000021078411CC8B21170C82832D1FFE75E
:1037B00040F23201C2F200010020087040F2DB103A
:1037C000C2F20000007838B9FFE740F2DB11C2F224
:1037D00000010320087007E040F2DB11C2F2000193
:1037E000087801380870FFE740F20621C2F20001B4
:1037F000087800F00F00087040F2DB10C2F2000001
:103800000278102000FA02F208781043087003F0E2
:10381000ADFBFFE7FFE740F2EA10C2F200000078DC
:10382000002840F08C80FFE740F2E812C2F200026C
:103830001088411C88B21180B0F57A6F7ED1FFE705
:1038400040F2E811C2F200010020088040F2360088
:10385000C2F20000017840F2E410C2F20000405CC5
:1038600040F20C01C2F200010978884232DDFFE724
:1038700040F2EA11C2F200010220087003F0BEFB20
:1038800003F000FC4FF0904010210B910122FDF756
:103890004BFA0B9840F2DB11C2F2000100220A70D1
:1038A000097800FA01F240F20621C2F2000108781C
:1038B0001043087003F05AFB40F2F010C2F200000F
:1038C00001784278837848F68550C0F6000003F00E
:1038D00085FC32E040F2EA11C2F2000103200990B7
:1038E000087003F08BFB03F0CDFB4FF090401021EC
:1038F0000A910022FDF718FA099A0A9840F2DB11A2
:10390000C2F200010A70097800FA01F240F20621C1
:10391000C2F2000108781043087003F027FB40F260
:10392000F010C2F2000001784278837848F66D50BA
:10393000C0F6000003F052FCFFE7FFE7D1E140F2E0
:10394000EA10C2F200000078022840F08880FFE709
:1039500040F2E812C2F200021088411C88B21180C5
:1039600041F27071884279D1FFE740F2E811C2F26A
:1039700000010020088040F20C00C2F20000089014
:1039800001780131017040F2F013C2F2000319789E
:103990005A789B780078EC46CCF8000048F6EB505B
:1039A000C0F6000003F01AFC0898007840F23601D7
:1039B000C2F200010A7840F2E411C2F20001895C0F
:1039C00088423CD1FFE740F20C00C2F200000078D0
:1039D000411E0120079000FA01F240F20621C2F2D6
:1039E0000001087890430870087800F00F00087014
:1039F00003F0BCFA079840F2EA11C2F20001087025
:103A000003F040FB03F0FAFA079A4FF090402021B0
:103A1000FDF78AF940F2F010C2F200000178427816
:103A2000837848F65550C0F6000003F0D7FB40F20B
:103A30003601C2F200010878013008700DE040F252
:103A4000F010C2F2000001784278837848F6855081
:103A5000C0F6000003F0C2FBFFE7FFE740E140F2E1
:103A6000EA10C2F200000078032840F08880FFE7E7
:103A700040F2E812C2F200021088411C88B21180A4
:103A800041F27071884279D1FFE740F2E811C2F249
:103A900000010020088040F20C00C2F200000690F5
:103AA00001780139017040F2F013C2F20003197875
:103AB0005A789B780078EC46CCF8000048F6EB503A
:103AC000C0F6000003F08AFB0698007840F2360149
:103AD000C2F200010A7840F2E411C2F20001895CEE
:103AE00088423CD1FFE740F20C00C2F200000078AF
:103AF000411E0120059000FA01F240F20621C2F2B7
:103B00000001087890430870087800F00F000870F2
:103B100003F02CFA059840F2EA11C2F20001087095
:103B200003F0B0FA03F06AFA059A4FF090402021B2
:103B3000FDF7FAF840F2F010C2F200000178427886
:103B4000837848F65550C0F6000003F047FB40F27A
:103B50003601C2F200010878013008700DE040F231
:103B6000F010C2F2000001784278837848F66D5078
:103B7000C0F6000003F032FBFFE7FFE7AFE040F2E2
:103B8000EA10C2F200000078012871D1FFE740F28C
:103B9000E812C2F200021088411C88B21180B0F510
:103BA0007A6F64D1FFE740F2E811C2F20001002011
:103BB000088040F23600C2F20000007840F237017F
:103BC000C2F20001097888423AD1FFE740F20C21A5
:103BD000C2F2000100200490087003F053FA40F292
:103BE000F010C2F2000001784278837848F69B50CA
:103BF000C0F6000003F0F2FA04980E90FFE70E986A
:103C000003281CDCFFE70E9A40F2DC11C2F200012F
:103C1000002088540E9A40F2E011C2F2000188544C
:103C200040F20421C2F20001088040F23701C2F2E2
:103C300000010870FFE70E9801300E90DFE715E0F5
:103C400040F2EA11C2F200010420087003F01AFAEF
:103C500040F2F010C2F2000001784278837848F612
:103C6000B350C0F6000003F0B9FAFFE7FFE735E014
:103C700040F2EA10C2F20000007804282DD1FFE7DC
:103C800040F2E812C2F200021088411C88B2118092
:103C9000B0F5FA6F20D1FFE740F2E810C2F2000061
:103CA0000022028040F2EA10C2F2000002704FF0DF
:103CB00090402021FDF738F803F0E4F940F2F010CD
:103CC000C2F2000001784278837848F63C50C0F692
:103CD000000003F083FAFFE7FFE7FFE7FFE7FFE7F6
:103CE000FFE7FFE7FFE7FFE712B010BD81B00090EC
:103CF00001B0704783B00190FFE7019890F884000D
:103D0000012804D1FFE702208DF80B002CE0019977
:103D1000012081F88400FFE7FFE701992420C1F822
:103D200088000198006800680090019801680868A0
:103D300020F001000860009820F0005000900199E8
:103D400000204866009801990968086001992020C0
:103D5000C1F88800FFE70199002081F88400FFE79F
:103D600000208DF80B00FFE79DF80B0003B07047B3
:103D700082B00190ADF8021002B0704781B000909F
:103D800001B0704780B584B002900191FFE70298BE
:103D900090F88400012804D1FFE702208DF80F007D
:103DA00032E00299012081F88400FFE7FFE70299E1
:103DB0002420C1F8880002980068006800900298EA
:103DC0000168086820F001000860029800688068B7
:103DD00020F06060019908430299096888600298A0
:103DE00002F07EF900980299096808600299202083
:103DF000C1F88800FFE70299002081F88400FFE7FE
:103E000000208DF80F00FFE79DF80F0004B080BD83
:103E100080B584B002900191FFE7029890F8840089
:103E2000012804D1FFE702208DF80F0032E002994B
:103E3000012081F88400FFE7FFE702992420C1F800
:103E4000880002980068006800900298016808687D
:103E500020F00100086002980068806820F060404F
:103E600001990843029909688860029802F038F9BC
:103E7000009802990968086002992020C1F888001A
:103E8000FFE70299002081F88400FFE700208DF809
:103E90000F00FFE79DF80F0004B080BD81B00090D7
:103EA00001B0704781B0009001B0704781B00090C0
:103EB00001B0704780B590B00F900F980068C0694E
:103EC0000E900F98006800680D900F980068806849
:103ED0000C900E9840F60F0108400B900B98E0B93B
:103EE000FFE79DF838008006002815D5FFE79DF80C
:103EF00034008006002806D4FFE79DF83300C00692
:103F0000002809D5FFE70F98406F20B1FFE70F9811
:103F1000416F8847FFE796E2FFE70B98002800F023
:103F20000C81FFE70C980121C1F20001084209D180
:103F3000FFE70D9840F22011C0F20041084200F066
:103F4000FC80FFE79DF83800C00788B1FFE79DF8C7
:103F50003500C00760B1FFE70F98016801200862D3
:103F60000F99D1F8900040F00100C1F89000FFE7F0
:103F70009DF838008007002811D5FFE79DF8300034
:103F8000C00760B1FFE70F980168022008620F992F
:103F9000D1F8900040F00400C1F89000FFE79DF8D0
:103FA00038004007002811D5FFE79DF83000C00712
:103FB00060B1FFE70F980168042008620F99D1F8FB
:103FC000900040F00200C1F89000FFE79DF8380033
:103FD0000007002819D5FFE79DF834008006002867
:103FE00007D4FFE70C980121C1F2000108420CD070
:103FF000FFE70F980168082008620F99D1F8900038
:1040000040F00800C1F89000FFE79DF83900000774
:10401000002813D5FFE79DF83700400700280DD58D
:10402000FFE70F9801684FF4006008620F99D1F81C
:10403000900040F02000C1F89000FFE70F98D0F802
:104040009000002878D0FFE79DF83800800600280F
:1040500015D5FFE79DF834008006002806D4FFE759
:104060009DF83300C006002809D5FFE70F98406F80
:1040700020B1FFE70F98416F8847FFE7FFE70F98F0
:10408000D0F890000A900F980068806800F0400017
:10409000402806D0FFE79DF8280010F0280F42D0F6
:1040A000FFE70F9802F0BAF90F98006880684006A1
:1040B000002833D5FFE7FFE7FFE70F98006850E8D7
:1040C000020F20F040000990FFE709990F9802685D
:1040D00042E802100028F0D1FFE7FFE70F98D0F880
:1040E0008000B0B1FFE70F98D0F8801046F2F930A9
:1040F000C0F6000088630F98D0F88000FCF7C4FB7E
:1041000030B1FFE70F98D0F88000816B8847FFE758
:1041100003E00F98FFF7CAFEFFE703E00F98FFF7F1
:10412000C5FEFFE707E00F98FFF7C0FE0F990020DC
:10413000C1F89000FFE7FFE785E10F98C06E012806
:1041400040F02281FFE79DF83800C006002840F1CA
:104150001B81FFE79DF83400C006002840F1148160
:10416000FFE70F980168102008620F9800688068C8
:104170004006002840F1A680FFE70F98D0F88000A5
:1041800000684068ADF82200BDF8220000287CD00D
:10419000FFE7BDF822000F99B1F85C10884274DA8D
:1041A000FFE7BDF822000F99A1F85E000F98D0F844
:1041B0008000006800688006002859D4FFE7FFE708
:1041C000FFE70F98006850E8000F20F48070079018
:1041D000FFE707990F98026842E800100028F0D125
:1041E000FFE7FFE7FFE7FFE70F98006850E8020FDF
:1041F00020F001000690FFE706990F98026842E858
:1042000002100028F0D1FFE7FFE7FFE7FFE70F9874
:10421000006850E8020F20F040000590FFE7059984
:104220000F98026842E802100028F0D1FFE7FFE78C
:104230000F992020C1F88C000F990020C866FFE775
:10424000FFE70F98006850E8000F20F0100004907E
:10425000FFE704990F98026842E800100028F0D1A7
:10426000FFE7FFE70F98D0F88000FCF7BFFAFFE701
:104270000F99022008670F98B0F85C10B0F85E2024
:10428000891A89B2FFF774FD1BE0BDF822000F996F
:10429000B1F85C10884213D1FFE70F98D0F8800086
:1042A000006800688006002809D5FFE70F99022002
:1042B00008670F98B0F85C10FFF75AFDFFE7FFE7BB
:1042C000FFE7C0E00F99B1F85C00B1F85E10401A4A
:1042D000ADF80E000F98B0F85E00002853D0FFE74D
:1042E000BDF80E0000284ED0FFE7FFE7FFE70F986C
:1042F000006850E8000F20F490700290FFE70299E8
:104300000F98026842E800100028F0D1FFE7FFE7AD
:10431000FFE7FFE70F98006850E8020F4FF6FE71C5
:10432000CEF6FF7108400190FFE701990F980268EF
:1043300042E802100028EDD1FFE7FFE70F992020A7
:10434000C1F88C000F990020C8660F994867FFE7F5
:10435000FFE70F98006850E8000F20F01000009071
:10436000FFE700990F98026842E800100028F0D19A
:10437000FFE7FFE70F99022008670F98BDF80E10BE
:10438000FFF7F6FCFFE75EE09DF83A00C006002864
:104390000FD5FFE79DF832004006002809D5FFE75A
:1043A0000F9801684FF4801008620F98FFF77AFDAC
:1043B00049E09DF838000006002815D5FFE79DF874
:1043C00034000006002806D4FFE79DF832000006FE
:1043D000002809D5FFE70F98806F20B1FFE70F98FD
:1043E000816F8847FFE72EE09DF8380040060028DF
:1043F0000AD5FFE79DF834004006002804D5FFE702
:104400000F9802F05BF81EE09DF83A0000060028C5
:104410000AD5FFE79DF837004006002804D5FFE7DE
:104420000F98FFF73BFD0EE09DF83B00C00750B131
:10443000FFE79DF837000006002804D5FFE70F9836
:10444000FFF79CFCFFE710B080BD000080B582B094
:104450000090009820B9FFE701208DF8070046E0A2
:104460000098806908B1FFE700E0FFE70098D0F806
:10447000880040B9FFE70099002081F88400009887
:1044800000F03AF8FFE700992420C1F8880000986E
:104490000168086820F0010008600098806A20B177
:1044A000FFE7009801F060FEFFE7009802F028F8AF
:1044B000012804D1FFE701208DF8070017E00098DC
:1044C0000168486820F49040486000980168886856
:1044D00020F02A00886000980168086840F0010018
:1044E0000860009801F0E4FE8DF80700FFE79DF8F2
:1044F000070002B080BD000080B58AB0099000209E
:10450000089007900690059004900998006843F67B
:104510000001C4F20101884238D1FFE7FFE741F210
:104520006000C4F20200016841F48041016000684B
:1045300000F4804003900398FFE7FFE741F24C004E
:10454000C4F20200016841F001010160006800F05E
:10455000010002900298FFE74FF4C060049002202F
:1045600005900020009006900790072008904FF0DB
:10457000904004A9FCF70CFA009A252001901146FE
:10458000FCF788FC0198FCF77BFCFFE70AB080BDD4
:1045900080B58AB008900791ADF81A200593089865
:1045A000D0F88800202840F08780FFE7079820B1E6
:1045B000FFE7BDF81A0020B9FFE701208DF82700BA
:1045C0007EE008990020C1F8900008992120C1F8E8
:1045D0008800FCF7BFFB0290BDF81A000899A1F80B
:1045E0005400BDF81A000899A1F856000898806890
:1045F000B0F5805F09D1FFE70898006928B9FFE7A7
:10460000002004900798039004E00798049000208D
:104610000390FFE7FFE70898B0F8560088B3FFE77C
:104620000898029B05996A4611608021002202F0D9
:104630001FFA40B1FFE708992020C1F88800032045
:104640008DF827003CE0049858B9FFE703980088EC
:104650006FF35F200899096888620398023003901D
:1046600008E0049800780899096888620498013085
:104670000490FFE70899B1F856000138A1F85600F8
:10468000C9E70898029B05996A46116040210022FB
:1046900002F0EEF940B1FFE708992020C1F8880048
:1046A00003208DF827000BE008992020C1F888002E
:1046B00000208DF8270003E002208DF82700FFE797
:1046C0009DF827000AB080BD81B0009001B070470E
:1046D000FFE7FEE780B586B00020059004900390C8
:1046E000029001904FF6FF71019102900321049115
:1046F000039040F60000C4F6000001A9FCF748F959
:1047000006B080BD80B586B000200590049003906F
:10471000029001904FF6FF71019101210291032156
:104720000491039040F60000C4F6000001A9FCF7D4
:104730002FF906B080BD000080B584B0ADF80E0042
:10474000002101910291084600F0B0F900F002FA50
:1047500001980290FFE70298800A4A2809D8FFE7EB
:10476000BDF80E0000F0C0F9FFE70298013002909A
:10477000F1E704B080BD000080B58CB000200B9044
:104780000A90099008900790FFE741F24C00C4F2AC
:104790000200016841F004010160006800F00400BB
:1047A00006900698FFE7FFE741F24C00C4F20200D2
:1047B000016841F001010160006800F0010005900E
:1047C0000598FFE7FFE741F24C00C4F202000168E0
:1047D00041F002010160006800F0020004900498BA
:1047E000FFE74FF4487007900120009008900320E5
:1047F00001900A9000200290099040F20040C4F617
:10480000000007A90391FCF7C3F8009B019A0298E6
:1048100003994FF4807CCDF81CC008930A9209904C
:104820004FF09040FCF7B4F8FFF76CFF1821C4F686
:104830000001086840F48070086040F21841C4F636
:104840000001086840F4087008600CB080BD0000EA
:1048500080B582B08DF80700ADF804108DF8032004
:104860009DF8030020388DF803009DF80700BDF87F
:1048700004109DF8032002EB420347F61432C0F601
:10488000000202EB031200F037F802B080BD000016
:1048900080B586B08DF8170004910020039040F297
:1048A0003F10ADF80A00FFE704980178002001905E
:1048B00039B1FFE703990020142938BF0120019086
:1048C000FFE70198C007A0B1FFE79DF81700BDF80A
:1048D0000A10049A1278FFF7BBFFBDF80A001038DF
:1048E000ADF80A0004980130049003980130039059
:1048F000DAE706B080BD000080B586B08DF81700FD
:10490000ADF81410049200200090039002908DF8EE
:1049100007009DF817008DF807009DF80700BDF807
:10492000141000F0C3F800980390FFE703981728CD
:1049300037D8FFE700F00EF900200290FFE7029859
:104940000F281ED8FFE70498039930F81100029948
:10495000C840C00740B9FFE740F20400C2F20000BF
:10496000008800F0C1F807E040F23000C2F2000019
:10497000008800F0B9F8FFE7FFE7029801300290E5
:10498000DDE79DF8070001308DF807009DF807006E
:10499000BDF8141000F08AF8FFE703980130039087
:1049A000C4E706B080BD000080B5FFF7E5FE00203B
:1049B00000F01CF8014640F23400C2F20000018011
:1049C000008848F23021884203D1FFE700F016FC4E
:1049D00002E000F0A3FCFFE7002000F007F840F23F
:1049E0003401C2F20001088080BD000080B582B0B1
:1049F0008DF8070040F22842C4F60002106840F427
:104A000000701060106840F48070106040F218412F
:104A1000C4F600010091086840F0200008609DF88D
:104A2000070040F61403C4F600031860106840F055
:104A30002000106000BF00BF00BF086840F02000E9
:104A40000860086840F480700860FFF743FE282182
:104A5000C4F60001086840F48070086000BF00BF21
:104A600000BF40F61000C4F600000068ADF8040076
:104A70001821C4F60001086840F480700860FFF750
:104A800041FE0099086840F400700860BDF8040019
:104A900002B080BD81B0ADF80200BDF8020040F266
:104AA0000401C2F20001088001B0704780B582B0F5
:104AB0008DF80700ADF804109DF80710202000F0D5
:104AC0007BF8BDF80410212000F076F802B080BD1C
:104AD00081B0ADF80200BDF8020040F23001C2F230
:104AE0000001088001B0704781B0ADF8020040F2CB
:104AF0002842C4F60002106840F40070106040F2D2
:104B00001841C4F60001086840F480700860086825
:104B100040F020000860BDF8020040F61403C4F61F
:104B200000031860106840F02000106000BF00BF54
:104B300000BF086840F020000860086840F48070FA
:104B4000086000BF00BF00BF086840F40070086044
:104B500001B0704740F22842C4F60002106840F4E9
:104B600000701060106840F48070106040F21841CE
:104B7000C4F60001086840F02000086040F6140305
:104B8000C4F6000322201860106840F02000106076
:104B900000BF00BF00BF086840F020000860086840
:104BA00040F48070086000BF00BF00BF086840F498
:104BB000007008607047000081B08DF80300ADF808
:104BC000001040F22842C4F60002106840F4007061
:104BD0001060106840F48070106040F21841C4F614
:104BE0000001086840F0200008609DF8030040F6CE
:104BF0001403C4F600031860106840F02000106031
:104C000000BF00BF00BF086840F0200008600868CF
:104C100040F480700860BDF800001860106840F033
:104C20002000106000BF00BF00BF086840F02000F7
:104C30000860086840F48070086001B070470000A8
:104C400080B594B0002013901290119010900F90A6
:104C5000FFE741F24C00C4F20200016841F0040198
:104C60000160006800F004000E900E98FFE7FFE777
:104C700041F24C00C4F20200016841F020010160E1
:104C8000006800F020000D900D98FFE7FFE741F26B
:104C90004C00C4F20200016841F0010101600068AB
:104CA00000F001000C900C98FFE7FFE741F24C0088
:104CB000C4F20200016841F002010160006800F0E6
:104CC00002000B900B98FFE7FFE741F24C00C4F2A3
:104CD0000200016841F008010160006800F008006E
:104CE0000A900A98FFE740F60000C4F60000029020
:104CF0004FF6FF71019100220792FCF715F8079A11
:104D00004FF09040049030210391FCF70DF8079A82
:104D100040F60040C4F60000089004210591FCF71D
:104D200003F8019A029807990F92012206921092B5
:104D3000119112910FA90991FBF72AFE0498069B85
:104D4000079A09990F9310921192FBF721FEDDF853
:104D50000CC00498069B079A0999CDF83CC01093A3
:104D600011921292FBF714FE0798099907220F92ED
:104D70001090119040F20040C4F60000FBF708FECE
:104D8000DDF814C0069B079A08980999CDF83CC035
:104D9000109311921292FBF7FBFD14B080BD00003E
:104DA00080B588B00021009107910691059104918A
:104DB0000391029140F23800C2F20000019042F6E5
:104DC0000002C4F20002026041607C22826041F273
:104DD0006F72C2600161416181614FF08042C261C6
:104DE0000162FDF727FA18B1FFE7FBF7F7FCFFE7D1
:104DF0000C208DF80C0032208DF80D0037208DF836
:104E00000E00002204920692079240F23800C2F28D
:104E1000000003A9FDF740FB18B1FFE7FBF7DEFC3C
:104E2000FFE701208DF808008DF809008DF80A00D1
:104E300000228DF80B2040F23800C2F2000002A9D7
:104E4000FDF794FA18B1FFE7FBF7C8FCFFE708B0DD
:104E500080BD000080B596B00020009015901490A1
:104E600013901290119010900F9002A83421FBF72C
:104E700007FA009940F26000C2F20000019044F28B
:104E80000042C4F2010202604F224260816040F29F
:104E9000E732C260016141618161FDF733FD18B104
:104EA000FFE7FBF79BFCFFE740F26000C2F2000067
:104EB000FEF704F918B1FFE7FBF790FCFFE760206D
:104EC0000F90002210921192129213921492159246
:104ED00040F26000C2F200000FA9FEF717F818B107
:104EE000FFE7FBF77BFCFFE70020029003900490B4
:104EF000059006904FF40051079108900E9040F2F3
:104F00006000C2F2000002A9FDF7B4FB18B1FFE790
:104F1000FBF764FCFFE740F26000C2F20000FDF71F
:104F200097FF16B080BD000080B596B000200090BD
:104F30001590149013901290119010900F9002A859
:104F40003421FBF79DF9009940F2AC00C2F2000059
:104F5000019044F60002C4F201020260272242607E
:104F6000816040F2E732C260016141618161FDF719
:104F7000C9FC18B1FFE7FBF731FCFFE740F2AC00DA
:104F8000C2F20000FEF79AF818B1FFE7FBF726FC23
:104F9000FFE760200F90002210921192129213925C
:104FA0001492159240F2AC00C2F200000FA9FDF776
:104FB000ADFF18B1FFE7FBF711FCFFE700200290FF
:104FC00003900490059006904FF4005107910890CB
:104FD0000E9040F2AC00C2F2000002A9FDF74AFBBD
:104FE00018B1FFE7FBF7FAFBFFE740F2AC00C2F2B3
:104FF0000000FDF72DFF16B080BD000080B584B025
:10500000002103910291019140F2F800C2F20000E8
:1050100041F20002C4F20002026040F28F124260CC
:105020008160C722C2608161FDF76CFC18B1FFE7A7
:10503000FBF7D4FBFFE700200190039040F2F8005B
:10504000C2F2000001A9FDF7B9FB18B1FFE7FBF7B9
:10505000C5FBFFE704B080BD80B582B040F24410CC
:10506000C2F20000009043F60001C4F201010160A9
:105070004FF416514160002101918160C1600161CE
:105080000C2242618161C161016241628162FFF76C
:10509000DDF918B1FFE7FBF7A1FBFFE740F2441091
:1050A000C2F200000021FEF7B3FE18B1FFE7FBF7E4
:1050B00095FBFFE740F24410C2F200000021FEF72A
:1050C00061FE18B1FFE7FBF789FBFFE740F24410F0
:1050D000C2F20000FEF70EFE18B1FFE7FBF77EFB01
:1050E000FFE702B080BD0000FFE7FEE7FFE7FEE755
:1050F00088B0079006910592079800F00700049089
:105100000498C0F10700052803D3FFE704200190AD
:1051100004E00498C0F107000190FFE701980390B4
:1051200004980430062803D8FFE70020009003E02D
:10513000049803380090FFE70098029006980399BE
:10514000012202FA01F101390840029B98400599B9
:105150009A40013A1140084308B070477047000078
:1051600086B041F20C00C4F20200016801F00301B4
:1051700004910068C1B2012000EB11100290049864
:105180000090022815D0FFE70098032812D1FFE70E
:10519000029943F20060C0F26E10B0FBF1F041F2F0
:1051A0000C01C4F202010968C1F3062148430590CD
:1051B00011E0FFE7029942F20040C0F2F400B0FBB8
:1051C000F1F041F20C01C4F202010968C1F30621B9
:1051D00048430590FFE741F20C00C4F2020000686A
:1051E00000F0C061022000EB116003900598039964
:1051F000B0FBF1F00190019806B0704780B586B021
:105200000020009001210191FFF7D6FC4FF47A7045
:10521000FBF7BAFA00990198FFF7CEFC102041F293
:105220009071FFF7C9FC60204FF41C51FFF7C4FCDC
:1052300001996120FFF7C0FC462002210291FFF78F
:10524000BBFC132048F21001FFF7B6FC122048F215
:10525000FE01FFF7B1FC02984FF4A061FFF7ACFC30
:105260000320059041F23001FFF7A6FC302040F208
:1052700003310491FFF7A0FC04993120FFF79CFC57
:1052800004993220FFF798FC33204FF440710391CA
:10529000FFF792FC05993420FFF78EFC0499352026
:1052A000FFF78AFC36201421FFF786FC049937208B
:1052B000FFF782FC04993820FFF77EFC049939201F
:1052C000FFF77AFC03993A20FFF776FC05993B201B
:1052D000FFF772FC04993C20FFF76EFC3D204FF471
:1052E000A051FFF769FC92204FF40071FFF764FCB6
:1052F00004999320FFF760FC902040F60D01FFF722
:105300005BFC059841F21801FFF756FC072040F2BC
:105310007311FFF751FC06B080BD000080B58CB062
:10532000E32043F20801FFF747FCE7201221019137
:10533000FFF742FCEF20069041F23121FFF73CFCE1
:105340000120079000210991FFF736FC02204FF45D
:10535000E061FFF731FC03200A9041F23001FFF7D2
:105360002BFC099904200490FFF726FC082040F24A
:105370000721FFF721FC09990920FFF71DFC099976
:105380000A20FFF719FC09990C20FFF715FC099971
:105390000D20FFF711FC09990F200590FFF70CFC79
:1053A000099910200890FFF707FC112000900721B1
:1053B0000B91FFF701FC01980999FFF7FDFB099993
:1053C00013200290FFF7F8FBC820FBF7BFFA0898FC
:1053D00041F29061FFF7F0FB009840F22721FFF7C0
:1053E000EBFB32200390FBF7B1FA01981D21FFF788
:1053F000E3FB0398FBF7AAFA02984FF40061FFF76A
:10540000DBFB29201421FFF7D7FB2B200B21FFF713
:10541000D3FB0398FBF79AFA09992020FFF7CCFBFE
:1054200009992120FFF7C8FB0B993020FFF7C4FB37
:10543000312040F20771FFF7BFFB03980621FFF709
:10544000BBFB352040F20471FFF7B6FB362041F676
:105450000471FFF7B1FB04993720FFF7ADFB099901
:105460003820FFF7A9FB392040F20671FFF7A4FBB3
:105470003C2040F20171FFF79FFB05993D20FFF7AB
:105480009BFB09995020FFF797FB06995120FFF7E6
:1054900093FB09995220FFF78FFB532040F23F11F5
:1054A000FFF78AFB60204FF41C51FFF785FB07993B
:1054B0006120FFF781FB09996A20FFF77DFB0999BD
:1054C0008020FFF779FB09998120FFF775FB099987
:1054D0008220FFF771FB09998320FFF76DFB099983
:1054E0008420FFF769FB09998520FFF765FB089980
:1054F0009020FFF761FB09999220FFF75DFB0A9965
:105500009320FFF759FB95204FF48871FFF754FB68
:1055100009999720FFF750FB09999820FFF74CFB5A
:105520000A9841F21801FFF747FB0B9840F27311FC
:10553000FFF742FB0CB080BD82B08DF807009DF8EC
:105540000700000900EB80004000009000989DF8E3
:10555000071001F00F010844C0B202B0704700000C
:1055600083B08DF80B00002001909DF80B008DF8A2
:105570000300FFE79DF803000A2809D3FFE701981D
:10558000013001909DF803000A388DF80300F1E71F
:10559000019800F00F019DF8030040EA011003B0EC
:1055A0007047000080B584B0039000208DF807009C
:1055B00003980068C068400600282FD4FFE70398CE
:1055C0000168C86840F08000C860FBF7C3FB029028
:1055D000FFE703980068C168002049060029009091
:1055E00007D4FFE79DF80700033818BF012000909B
:1055F000FFE70098C00780B1FFE7FBF7ABFB02991C
:10560000401AB0F57A7F07D9FFE703208DF807002D
:10561000039981F82500FFE7DBE7FFE79DF8070026
:1056200004B080BD80B582B0019000208DF80300E9
:1056300001980168C86820F08000C860019800687F
:105640008069800600280DD4FFE70198FCF7D4FF9D
:1056500038B1FFE70199032081F825008DF8030098
:10566000FFE718E001980168886920F02000886150
:105670000198FCF7C1FF38B1FFE70199032081F8D9
:1056800025008DF80300FFE701980168886940F064
:1056900020008861FFE79DF8030002B080BD000094
:1056A0007047000080B582B0009000980138B0F1DA
:1056B000807F03D3FFE70120019019E000980138B3
:1056C0004EF21401CEF2000108604FF0FF300F21BE
:1056D00001F07EFA4EF21801CEF2000100200860BF
:1056E0004EF21002CEF20002072111600190FFE796
:1056F000019802B080BD000080B5FBF731FB80BD92
:1057000080B5A6B018A801903821FAF7B9FD00209D
:105710001790169015901490139002A84421FAF750
:10572000AFFD4FF40070FBF7D5FB019801211891F4
:105730004FF48031199102211F910322209221926E
:1057400014222292239124912591FCF715F918B186
:10575000FFE7FBF743F8FFE70F20139003201490B7
:10576000002015901690179013A80221FBF7C4FE95
:1057700018B1FFE7FBF732F8FFE70120C0F208009D
:105780000290002003904FF44070129002A8FBF7A3
:1057900085FC18B1FFE7FBF721F8FFE726B080BDD5
:1057A0004EF68851CEF20001086840F4700008609F
:1057B0007047000080B540F2F800C2F20000FDF72B
:1057C000C7F980BD83B002900191029800680090F3
:1057D000029842F60041C4F2010188421DD0FFE761
:1057E0000298B0F1804F18D0FFE7029840F20041D4
:1057F000C4F20001884210D0FFE7029840F6000191
:10580000C4F20001884208D0FFE7029843F2004149
:10581000C4F2010188420AD1FFE7009820F070002D
:10582000009001984168009808430090FFE70298B3
:1058300042F60041C4F20101884235D0FFE70298E8
:10584000B0F1804F30D0FFE7029840F20041C4F23F
:105850000001884228D0FFE7029840F60001C4F218
:105860000001884220D0FFE7029843F20041C4F2D1
:105870000101884218D0FFE7029844F20001C4F207
:105880000101884210D0FFE7029844F20041C4F2BF
:105890000101884208D0FFE7029844F60001C4F2F3
:1058A000010188420AD1FFE7009820F4407000907F
:1058B0000198C168009808430090FFE7009820F025
:1058C0008000019949690843009000980299086096
:1058D000019880680299C8620198006802998862FC
:1058E000029842F60041C4F20101884220D0FFE74D
:1058F000029843F20041C4F20101884218D0FFE748
:10590000029844F20001C4F20101884210D0FFE77E
:10591000029844F20041C4F20101884208D0FFE736
:10592000029844F60001C4F20101884205D1FFE764
:105930000198006902990863FFE702990120486114
:1059400002980069C00730B1FFE70299086920F0AA
:1059500001000861FFE703B07047000084B00390C6
:1059600002910192029800F01F01012088400090EE
:10597000009A0399086A904308620198029901F01D
:105980001F0100FA01F20399086A1043086204B08B
:105990007047000085B0049003910498006A01905C
:1059A0000499086A20F00100086204984068009099
:1059B00004988069029002984FF68F71CFF6FE71BD
:1059C00008400290029820F00300029003980168BA
:1059D000029808430290019820F002000190039879
:1059E0008168019808430190049842F60041C4F28E
:1059F0000101884220D0FFE7049843F20041C4F23D
:105A00000101884218D0FFE7049844F20001C4F273
:105A10000101884210D0FFE7049844F20041C4F22B
:105A20000101884208D0FFE7049844F60001C4F25F
:105A3000010188420ED1FFE7019820F00800019093
:105A40000398C168019808430190019820F0040070
:105A50000190FFE7049842F60041C4F20101884238
:105A600020D0FFE7049843F20041C4F201018842CC
:105A700018D0FFE7049844F20001C4F20101884203
:105A800010D0FFE7049844F20041C4F201018842BB
:105A900008D0FFE7049844F60001C4F201018842EF
:105AA00013D1FFE7009820F480700090009820F454
:105AB0000070009003984169009808430090039893
:105AC0008169009808430090FFE7009804994860B6
:105AD0000298049988610398406804994863019882
