:020000040800F2
:1000000060040020ED01000859210008151B0008BC
:100010005521000881070008912600080000000013
:10002000000000000000000000000000A5250008FE
:100030008507000800000000C9210008FD25000810
:10004000070200080702000807020008070200086C
:10005000070200080702000807020008070200085C
:10006000070200080702000807020008070200084C
:10007000070200080702000807020008070200083C
:10008000070200080000000007020008070200083D
:10009000070200080702000807020008070200081C
:1000A000070200080702000807020008070200080C
:1000B00007020008070200080702000807020008FC
:1000C00007020008070200080702000807020008EC
:1000D00007020008070200080702000807020008DC
:1000E00007020008070200080702000807020008CC
:1000F00007020008070200080702000800000000CD
:1001000000000000070200080000000007020008CD
:1001100007020008000000000702000807020008AC
:10012000070200080702000807020008070200088B
:10013000070200080000000000000000070200089D
:10014000070200080702000800000000000000008D
:10015000000000000000000000000000000000009F
:10016000000000000000000000000000070200087E
:10017000070200080000000000000000000000006E
:10018000000000000702000800000000000000005E
:10019000000000000000000000000000000000005F
:1001A000000000000000000007020008070200082D
:1001B000070200080702000807020008000000000C
:1001C000000000000702000800000000000000001E
:1001D0000702000807020008DFF80CD000F02AFA36
:1001E00000480047B1290008600400200648804705
:1001F00006480047FEE7FEE7FEE7FEE7FEE7FEE70C
:10020000FEE7FEE7FEE7FEE77D260008D9010008CD
:10021000D2B201E000F8012B491EFBD27047002248
:10022000F6E710B513460A4604461946FFF7F0FFF5
:10023000204610BD30B50B46014600202022012487
:1002400009E021FA02F59D4205D303FA02F5491BA4
:1002500004FA02F52844151EA2F10102F1DC30BDBA
:100260002DE9F05F0546002092469B4688460646EB
:10027000814640241BE0284641464746224600F07E
:1002800000FA53465A46C01A914110D311461846F7
:10029000224600F0E7F92D1A67EB01084F46224687
:1002A0000120002100F0DEF917EB00094E41201E6D
:1002B000A4F10104DFDC484631462A464346BDE846
:1002C000F09F2DE9FE4F804681EA0300C00F0C46E7
:1002D000009021F0004123F00045B8EB0200A94155
:1002E00005D24046214690461C460B46024623F066
:1002F0000040104347D0270DC7F30A00C3F30A514B
:100300000290401A019040286BDAC3F3130040F4C6
:10031000801B0098924620B10023D2EB030A63EBC6
:100320000B0B01985946C0F14002504600F09AF973
:1003300006460D4650465946019A00F0B2F910EBB8
:1003400008006141002487EA115284EAE7731A43E6
:1003500040D0009A62B3019A012A4FEA075215DC95
:10036000001B61EB02014FF0004202EA0752CDE9A7
:100370000042001C41F5801132462B4600F0B2F9D4
:1003800003B0BDE8F08F40462146F9E7001B61EB62
:100390000201001C41F5801300185B412018A2F5F2
:1003A000001747EB030140EAD570B6196D4111E023
:1003B0006D084FEA360645EAC0754FEA0752001B42
:1003C00061EB0201001C41F5801149084FEA300041
:1003D0000019514132462B4603B0BDE8F04F00F002
:1003E00072B90098012240000023D0EB020263EBB7
:1003F000E073009821464FEAE074B8EB000061EB2F
:100400000401E9E783F000435BE781F0004158E72E
:100410002DE9FE4F81EA030404F0004421F000417D
:1004200000944FF0000B23F0004350EA01045ED02B
:1004300052EA03045BD0C3F30A54C1F30A552C44B7
:10044000A4F2F3340194A0FB0254C1F3130141F46C
:100450008011C3F3130343F4801301FB024400FB38
:10046000034E840A970A44EA815447EA8357A4FB5F
:10047000076802958D0A05FB07854FEA932C04FB5C
:100480000C542705029D4FEA065847EA1637B5EB8C
:1004900008056EEB070C870E920E47EA811742EAB9
:1004A0008312A7FB0201B6EB0B0164EB00042B0DDA
:1004B00043EA0C335E1844EB1C50DA465146E7FB26
:1004C0000201C5F313044FEA0B3343EA14534FEA16
:1004D0000432019C43EA0603A4F10C040294009C3C
:1004E000CDE900B400F0FEF803B0BDE8F08F0020C5
:1004F0000146F9E72DE9F04D81EA030404F0004BD1
:1005000021F0004514464FF0000A23F0004150EA64
:10051000050220D054EA01021DD0C5F30A57024655
:10052000C5F31303C1F31300C1F30A5640F4801559
:1005300043F48013A7EB0608101BD64608F2FD38DB
:1005400073EB050002D308F1010801E092185B414A
:10055000B8F1000F03DA00200146BDE8F08D00205D
:100560004FF48011064684460EE0171B73EB050717
:1005700005D3121B63EB050306434CEA010C490843
:100580004FEA300092185B4150EA0107EDD152EA80
:10059000030012D082EA040083EA0501084305D073
:1005A000101BAB4106D20122002306E000224FF0CF
:1005B000004302E06FF0010253101AEB06004CEB0F
:1005C000085110EB0A0041EB0B01BDE8F04D00F0C3
:1005D0007AB8C1F30A52C1F3130140F2FF3341F478
:1005E00080119A4202DA00200146704740F23343FC
:1005F0009A42A2F2334202DC524200F042B800F0CA
:1006000031B8000030B5041E71F1000404DB4FF076
:100610000044404264EB0101141E73F1000405DB49
:100620001C464FF00043524263EB0403994208BF5B
:10063000904230BD1CB5094800900948019005461C
:10064000009C06E0E06840F0010394E8070098474A
:100650001034AC42F6D3FFF7C3FD00005445000848
:1006600074450008202A04DB203A00FA02F1002039
:1006700070479140C2F1200320FA03F319439040E0
:100680007047202A04DB203A21FA02F0002170474B
:1006900021FA02F3D040C2F12002914008431946EA
:1006A0007047202A06DBCB17203A41FA02F043EAD2
:1006B000E07306E041FA02F3D040C2F1200291401B
:1006C00008431946704710B5141E73F1000408DA88
:1006D000401C41F1000192185B411A4301D120F006
:1006E000010010BD2DE9F04D92469B4611B1B1FAC3
:1006F00081F202E0B0FA80F220329046FFF7B2FFBA
:1007000004460F4640EA0A0041EA0B0153465A46A6
:10071000084313D0114653EA010019D0C8F1400232
:100720005046FFF7AEFF05460E4650465946424634
:10073000FFF798FF084305D0012004E02046394622
:10074000BDE8F08D0020054346EAE0762C433743B0
:100750000A986305E40AA0EB08000022FD0A44EAB7
:1007600047540A3002D500200146E9E70105101977
:100770006941DDE9084500196941BDE8F04DA2E78E
:10078000FFE7FEE77047000082B0ADF806000020EA
:10079000ADF80400FFE7BDF80400BDF8061088427C
:1007A00019DAFFE70020ADF80200FFE7BDF802000C
:1007B00040F6B731884207DCFFE7FFE7BDF80200EB
:1007C0000130ADF80200F1E7FFE7BDF804000130A9
:1007D000ADF80400DFE702B07047000081B0EFF32E
:1007E000108072B60090FFE7FEE7000080B584B08D
:1007F000039000F0FFF902900398019001980130F6
:1008000048B1FFE740F22400C2F2000001680198FD
:1008100008440190FFE7FFE700F0ECF90299401A65
:100820000199884201D2FFE7F6E704B080BD0000DD
:100830008BB00A90099100200890FFE709980068A2
:100840000899C840002800F0A581FFE709980068D2
:10085000089A01219140084007900798002800F06D
:100860009581FFE70998406800F00300012807D050
:10087000FFE70998406800F0030002282FD1FFE746
:100880000A988068069008984100032000FA01F158
:100890000698884306900998C0680899490000FAAC
:1008A00001F106980843069006980A9988600A980C
:1008B000406806900899012000FA01F106988843E3
:1008C000069009984068C0F30010089900FA01F1F9
:1008D00006980843069006980A994860FFE7099829
:1008E000406800F00300032818D0FFE70A98C068AA
:1008F000069008984100032000FA01F10698884309
:100900000690099880680899490000FA01F1069854
:100910000843069006980A99C860FFE7099840685E
:1009200000F00300022826D1FFE70A9808996FF02B
:10093000030202EA51010844006A0690089800F098
:10094000070081000F2000FA01F106988843069005
:1009500009980069089901F00701890000FA01F17E
:1009600006980843069006980A99089B02EA5302E3
:1009700011440862FFE70A98006806900898410051
:10098000032000FA01F10698884306900998406810
:1009900000F003000899490000FA01F106980843A5
:1009A000069006980A9908600998807980070028BF
:1009B00000F0EB80FFE7FFE741F26000C4F20200C5
:1009C000016841F001010160006800F0010005903C
:1009D0000598FFE7089820F003000821C4F2010100
:1009E00040580690089800F0030081000F2000FA9C
:1009F00001F10698884306900A98B0F1904F03D110
:100A0000FFE70020049042E00A9840F20041C4F65B
:100A10000001884203D1FFE70120039034E00A98E7
:100A200040F60001C4F60001884203D1FFE702202E
:100A3000029026E00A9840F60041C4F60001884280
:100A400003D1FFE70320019018E00A9841F200016A
:100A5000C4F60001884203D1FFE7042000900AE0B9
:100A60000A9941F20042C4F600020620914208BFF2
:100A700005200090FFE700980190FFE701980290A1
:100A8000FFE702980390FFE703980490FFE70498BC
:100A9000089901F00301890000FA01F10698084362
:100AA00006900698089921F003010822C4F2010279
:100AB000885040F20840C4F201000068069007998F
:100AC00006988843069009988079C006002805D5C5
:100AD000FFE70799069808430690FFE7069840F25B
:100AE0000841C4F20101086040F20C40C4F2010068
:100AF00000680690079906988843069009988079BF
:100B00008006002805D5FFE7079906980843069058
:100B1000FFE7069840F20C41C4F20101086040F280
:100B20000440C4F2010000680690079906988843C3
:100B30000690099880798007002805D5FFE7079976
:100B4000069808430690FFE7069840F20441C4F275
:100B50000101086040F20040C4F201000068069004
:100B6000079906988843069009988079C00728B1AC
:100B7000FFE70799069808430690FFE7069840F2BA
:100B80000041C4F201010860FFE7FFE70898013067
:100B9000089053E60BB0704782B00190ADF8021098
:100BA00001980069BDF80210084204D0FFE7012057
:100BB0008DF8010003E000208DF80100FFE79DF8AB
:100BC000010002B07047000082B00190ADF8021041
:100BD0008DF801209DF8010028B1FFE7BDF8020063
:100BE0000199886104E0BDF8020001998862FFE77D
:100BF00002B0704740F25800C2F20000006870472F
:100C000040F22400C2F20000026840F25801C2F231
:100C100000010868104408607047000080B582B089
:100C2000002000908DF80700032000F091F8009854
:100C300000F00EF820B1FFE701208DF8070002E078
:100C400000F04AF8FFE79DF8070002B080BD000001
:100C500080B582B0019000208DF8030040F224009E
:100C6000C2F20000006878B3FFE740F20400C2F26D
:100C70000000006840F22401C2F200010A684FF44B
:100C80007A71B1FBF2F1B0FBF1F000F03BFFB0B9CB
:100C9000FFE701980F280DD8FFE701994FF0FF30CB
:100CA000002200F03DF8019840F22801C2F2000154
:100CB000086003E001208DF80300FFE703E0012056
:100CC0008DF80300FFE703E001208DF80300FFE744
:100CD0009DF8030002B080BD80B582B0FFE741F20D
:100CE0006000C4F20200016841F001010160006887
:100CF00000F0010001900198FFE7FFE741F2580082
:100D0000C4F20200016841F080510160006800F007
:100D1000805000900098FFE700F0FCF802B080BD22
:100D200080B586B08DF817000491039201F0B2FCF3
:100D300002909DF91700019002980499039A01F01E
:100D40000DFA0146019801F0ADFC06B080BD00002F
:100D500080B582B00190019801F0C6FC02B080BD60
:100D600085B00390039800285ED1FFE747F20000AA
:100D7000C4F20000006800F4C060B0F5806F49D193
:100D8000FFE747F28001C4F20001086820F4807098
:100D9000086047F20002C4F200021168012060F30B
:100DA0004A21116040F20401C2F2000109683222B6
:100DB00051434DF68362C4F21B32A1FB022100EBCA
:100DC00091400290FFE747F21400C4F2000001686E
:100DD000002049050029019006D5FFE70298002868
:100DE00018BF01200190FFE70198C00720B1FFE77D
:100DF000029801380290E6E747F21400C4F20000BE
:100E000000684005002804D5FFE703208DF8130093
:100E10007CE008E047F28001C4F20001086820F499
:100E200080700860FFE76DE00398B0F5007F5ED149
:100E3000FFE747F20000C4F20000006800F4C06061
:100E4000B0F5806F49D1FFE747F28001C4F200019D
:100E5000086840F48070086047F20002C4F20002A3
:100E60001168012060F34A21116040F20401C2F2CE
:100E700000010968322251434DF68362C4F21B32ED
:100E8000A1FB022100EB91400290FFE747F2140022
:100E9000C4F200000168002049050029009006D531
:100EA000FFE70298002818BF01200090FFE7009894
:100EB000C00720B1FFE7029801380290E6E747F249
:100EC0001400C4F2000000684005002804D5FFE7C4
:100ED00003208DF8130019E008E047F28001C4F206
:100EE0000001086840F480700860FFE709E047F2FD
:100EF0000001C4F200010868022262F34A2008607F
:100F0000FFE7FFE700208DF81300FFE79DF81300CF
:100F100005B0704747F20801C4F20001086840F4C8
:100F2000804008607047000080B586B0049003914F
:100F300000200090049820B9FFE701208DF81700E9
:100F400081E1039842F20001C4F20201096801F054
:100F50000F01884216D9FFE742F20000C4F20200F6
:100F6000016821F00F01039A11430160006800F04D
:100F70000F000399884204D0FFE701208DF8170085
:100F800061E1FFE704980078C007002800F0A38023
:100F9000FFE704984068032839D1FFE741F20000D9
:100FA000C4F2020000688001002804D4FFE7012099
:100FB0008DF8170047E101F009F9019001984BF213
:100FC0000141C0F2C441884220D3FFE741F208004A
:100FD000C4F20200006810F0F00F0AD0FFE7049896
:100FE00000788007002810D5FFE70498806860B972
:100FF000FFE741F20801C4F202010868082262F327
:101000000710086080200090FFE7FFE738E00498B1
:10101000406802280ED1FFE741F20000C4F202004E
:1010200000688003002804D4FFE701208DF8170032
:1010300009E10DE041F20000C4F202000068400541
:10104000002804D4FFE701208DF81700FBE0FFE73C
:1010500000F0FEF8019001984BF20141C0F2C4414A
:1010600088420CD3FFE741F20801C4F2020108688C
:10107000082262F30710086080200090FFE7FFE776
:1010800041F20801C4F20201086820F00300049A4A
:10109000526810430860FFF7ADFD0290FFE741F290
:1010A0000800C4F20200006800F00C0004994968CE
:1010B000B0EB810F0ED0FFE7FFF79CFD0299401ABD
:1010C00041F28931884204D3FFE703208DF81700ED
:1010D000B9E0E4E7FFE704980078800700282CD502
:1010E000FFE7049800784007002809D5FFE741F2A0
:1010F0000801C4F20201086840F4E0600860FFE7FC
:1011000004980078000700280BD5FFE741F208019A
:10111000C4F20201086840F4E06020F46050086006
:10112000FFE741F20801C4F20201086820F0F00074
:10113000049A9268104308600DE00098802809D155
:10114000FFE741F20801C4F20201086820F0F00054
:101150000860FFE7FFE7039842F20001C4F20201D2
:10116000096801F00F01884228D2FFE742F200012E
:10117000C4F20201086820F00F00039A10430860CF
:10118000FFF738FD0290FFE742F20000C4F20200D0
:10119000006800F00F00039988420ED0FFE7FFF7C8
:1011A00029FD0299401A41F28931884204D3FFE7B0
:1011B00003208DF8170046E0E6E7FFE70498007883
:1011C000400700280CD5FFE741F20801C4F20201F4
:1011D000086820F4E060049AD26810430860FFE7D2
:1011E00004980078000700280DD5FFE741F20801B8
:1011F000C4F20201086820F46050049A126940EABF
:10120000C2000860FFE700F023F841F20801C4F2D1
:1012100002010968C9B20A0943F26831C0F6000147
:10122000895C01F01F01C84040F20401C2F20001D4
:10123000086040F22800C2F200000068FFF708FDD5
:101240008DF81700FFE79DF8170006B080BD00007D
:1012500086B041F20800C4F20200006800F00C0001
:10126000042806D1FFE742F20040C0F2F4000190EA
:1012700069E041F20800C4F20200006800F00C00CE
:10128000082806D1FFE743F20060C0F26E1001901B
:1012900058E041F20800C4F20200006800F00C00BF
:1012A0000C284BD1FFE741F20C00C4F202000168A8
:1012B00001F0030104910068C1B2012000EB11109C
:1012C000029004980090022815D0FFE700980328A8
:1012D00012D1FFE7029943F20060C0F26E10B0FB3A
:1012E000F1F041F20C01C4F202010968C1F30621D8
:1012F0004843059011E0FFE7029942F20040C0F236
:10130000F400B0FBF1F041F20C01C4F202010968F3
:10131000C1F3062148430590FFE741F20C00C4F2F7
:101320000200006800F0C061022000EB1160039031
:1013300005980399B0FBF1F0019002E000200190C4
:10134000FFE7FFE7FFE7019806B07047B0B588B048
:101350000690069820B9FFE701208DF81F00CCE326
:1013600006980078C007002800F09B80FFE741F254
:101370000800C4F20200006800F00C00049041F282
:101380000C00C4F20200006800F00300039004980F
:101390000C2804D1FFE70398032804D0FFE7049842
:1013A000082812D1FFE741F20000C4F202000068F1
:1013B0008003002808D5FFE70698406820B9FFE7BA
:1013C00001208DF81F0098E36AE0FFE70698406867
:1013D000B0F5803F09D1FFE741F20001C4F20201FC
:1013E000086840F48030086020E006984068B0F556
:1013F000A02F0DD1FFE741F20001C4F202010868FD
:1014000040F480200860086840F4803008600CE0F8
:1014100041F20001C4F20201086820F48030086043
:10142000086820F480200860FFE7FFE7FFE70698E0
:101430004068D0B1FFE7FFF7DDFB0590FFE741F221
:101440000000C4F202000068800300280CD4FFE70B
:10145000FFF7D0FB0599401A652804D3FFE7032066
:101460008DF81F0049E3EAE719E0FFF7C3FB059099
:10147000FFE741F20000C4F2020000688003002888
:101480000CD5FFE7FFF7B6FB0599401A652804D392
:10149000FFE703208DF81F002FE3EAE7FFE7FFE7F0
:1014A000FFE7069800788007002840F19F80FFE75B
:1014B00041F20800C4F20200006800F00C00049041
:1014C00041F20C00C4F20200006800F00300039037
:1014D00004980C2804D1FFE70398022804D0FFE702
:1014E000049804282CD1FFE741F20000C4F2020066
:1014F00000684005002808D5FFE70698C06820B9B5
:10150000FFE701208DF81F00F7E241F20401C4F269
:101510000201086820F0FE40069A126940EA026063
:10152000086040F22800C2F200000068FFF790FB5C
:1015300020B1FFE701208DF81F00DEE2FFE754E055
:101540000698C06870B3FFE741F20001C4F20201DF
:10155000086840F480700860FFF74CFB0590FFE7D7
:1015600041F20000C4F202000068400500280CD4DB
:10157000FFE7FFF73FFB0599401A032804D3FFE775
:1015800003208DF81F00B8E2EAE741F20401C4F23B
:101590000201086820F0FE40069A126940EA0260E3
:1015A000086021E041F20001C4F20201086820F461
:1015B00080700860FFF71EFB0590FFE741F2000016
:1015C000C4F202000068400500280CD5FFE7FFF7D1
:1015D00011FB0599401A032804D3FFE703208DF877
:1015E0001F008AE2EAE7FFE7FFE7FFE706980078D7
:1015F0000007002849D5FFE70698406910B3FFE7C8
:1016000041F29401C4F20201086840F00100086050
:10161000FFF7F0FA0590FFE741F29400C4F20200F0
:101620000068800700280CD4FFE7FFF7E3FA05996C
:10163000401A032804D3FFE703208DF81F005CE263
:10164000EAE721E041F29401C4F20201086820F0C7
:1016500001000860FFF7CEFA0590FFE741F2940021
:10166000C4F202000068800700280CD5FFE7FFF7EE
:10167000C1FA0599401A032804D3FFE703208DF827
:101680001F003AE2EAE7FFE7FFE706980078400725
:10169000002840F1C680FFE700208DF80B0041F2E2
:1016A0005800C4F202000068C000002813D4FFE70D
:1016B000FFE741F25800C4F20200016841F0805196
:1016C0000160006800F0805001900198FFE7012060
:1016D0008DF80B00FFE747F20000C4F2000000683D
:1016E000C005002822D4FFE747F20001C4F2000140
:1016F000086840F480700860FFF77CFA0590FFE707
:1017000047F20000C4F200000068C00500280CD4B5
:10171000FFE7FFF76FFA0599401A032804D3FFE7A4
:1017200003208DF81F00E8E1EAE7FFE7FFE70698EE
:101730008068012809D1FFE741F29001C4F202015B
:10174000086840F0010008601FE0069880680528DE
:101750000DD1FFE741F29001C4F20201086840F0A8
:1017600004000860086840F0010008600CE041F2E5
:101770009001C4F20201086820F0010008600868C6
:1017800020F004000860FFE7FFE7FFE706988068A5
:10179000E0B1FFE7FFF72EFA0590FFE741F2900076
:1017A000C4F202000068800700280ED4FFE7FFF7AC
:1017B00021FA0599401A41F28931884204D3FFE7A2
:1017C00003208DF81F0098E1E8E71BE0FFF712FA0D
:1017D0000590FFE741F29000C4F202000068800724
:1017E00000280ED5FFE7FFF705FA0599401A41F2E8
:1017F0008931884204D3FFE703208DF81F007CE184
:10180000E8E7FFE79DF80B00012809D1FFE741F267
:101810005801C4F20201086820F080500860FFE718
:10182000FFE7069800788006002849D5FFE706986C
:10183000806910B3FFE741F29801C4F20201086821
:1018400040F001000860FFF7D5F90590FFE741F28D
:101850009800C4F202000068800700280CD4FFE75B
:10186000FFF7C8F90599401A032804D3FFE70320BE
:101870008DF81F0041E1EAE721E041F29801C4F24E
:101880000201086820F001000860FFF7B3F9059035
:10189000FFE741F29800C4F20200006880070028C8
:1018A0000CD5FFE7FFF7A6F90599401A032804D3E2
:1018B000FFE703208DF81F001FE1EAE7FFE7FFE7DE
:1018C0000698C069002800F01481FFE741F2080083
:1018D000C4F20200006800F00C000C2800F0B08098
:1018E000FFE70698C06902287CD1FFE741F20001BA
:1018F000C4F20201086820F080700860FFF77AF9EE
:101900000590FFE741F20000C4F202000068800188
:1019100000280CD5FFE7FFF76DF90599401A032859
:1019200004D3FFE703208DF81F00E6E0EAE741F269
:101930000C01C4F20201086848F20C02C0F29F12C6
:101940001040DDF818C0DCF82020DCF82450DCF86A
:1019500028E0DCF82C306FF00F0404EB0514224370
:1019600042EA0E22DCF8304040F2000ECFF6E07E74
:101970000EEA045EAEF5001E42EA0E02DCF834E028
:101980004FF07E4C0CEA0E6C0CF17E4C42EA0C02DD
:1019900042EAC3621043086041F20002C4F202024C
:1019A000106840F080701060086840F08070086037
:1019B000FFF720F90590FFE741F20000C4F20200B2
:1019C0000068800100280CD4FFE7FFF713F90599A0
:1019D000401A032804D3FFE703208DF81F008CE092
:1019E000EAE72CE041F20001C4F20201086820F0AD
:1019F00080700860FFF7FEF80590FFE741F20000F5
:101A0000C4F202000068800100280CD5FFE7FFF750
:101A1000F1F80599401A032804D3FFE703208DF855
:101A20001F006AE0EAE741F20C01C4F20201086813
:101A30004FF6FC72CFF6EE6210400860FFE757E009
:101A40000698C069012804D1FFE701208DF81F0026
:101A500053E041F20C00C4F20200006803900398C6
:101A600000F003000699096A88423BD1FFE703981A
:101A700000F0F00006994A6A6FF00F0101EB0211C5
:101A800088422FD1FFE7039800F4FE400699896A47
:101A9000B0EB012F26D1FFE7039800F078400699BC
:101AA000C96AB0EBC16F1DD1FFE7039800F4C00015
:101AB00006990A6B0021CFF6E07101EA0251A1F507
:101AC000001188420ED1FFE7039800F0C06006992C
:101AD0004A6B4FF07E4101EA026101F17E4188428A
:101AE00004D0FFE701208DF81F0006E0FFE7FFE7C5
:101AF000FFE700208DF81F00FFE79DF81F0008B0EA
:101B0000B0BD000080B582B00190019800F04CFD9E
:101B100002B080BDFFE7FEE780B586B000200590EB
:101B200004900390029001904FF6FF710191029092
:101B300003210491039040F60000C4F6000001A9BF
:101B4000FEF776FE06B080BD80B586B00020059019
:101B500004900390029001904FF6FF7101910121D2
:101B6000029103210491039040F60000C4F60000A6
:101B700001A9FEF75DFE06B080BD000080B584B00F
:101B8000ADF80E00002101910291084600F07CF9A9
:101B900000F0CEF901980290FFE70298800A4A28E7
:101BA00009D8FFE7BDF80E0000F08CF9FFE70298B6
:101BB00001300290F1E704B080BD000080B58CB028
:101BC00000200B900A90099008900790FFE741F2DF
:101BD0004C00C4F20200016841F004010160006899
:101BE00000F0040006900698FFE7FFE741F24C0082
:101BF000C4F20200016841F001010160006800F0D8
:101C0000010005900598FFE7FFE741F24C00C4F2A0
:101C10000200016841F002010160006800F002006A
:101C200004900498FFE74FF448700790012000905B
:101C30000890032001900A9000200290099040F241
:101C40000040C4F6000007A90391FEF7F1FD009BD8
:101C5000019A029803994FF4807CCDF81CC0089338
:101C60000A9209904FF09040FEF7E2FDFFF76CFFFB
:101C70001821C4F60001086840F48070086040F242
:101C80001841C4F60001086840F4087008600CB000
:101C900080BD000080B582B08DF80700ADF804105B
:101CA0008DF803209DF8030020388DF803009DF87F
:101CB0000700BDF804109DF8032002EB420343F235
:101CC0007832C0F6000202EB031200F003F802B013
:101CD00080BD000080B586B08DF81700ADF81410F7
:101CE000049200200090039002908DF807009DF868
:101CF00017008DF807009DF80700BDF8141000F0DC
:101D0000C3F800980390FFE70398172837D8FFE738
:101D100000F00EF900200290FFE702980F281ED86D
:101D2000FFE70498039930F811000299C840C007F2
:101D300040B9FFE740F20000C2F20000008800F066
:101D4000C1F807E040F23000C2F20000008800F065
:101D5000B9F8FFE7FFE7029801300290DDE79DF850
:101D6000070001308DF807009DF80700BDF814103A
:101D700000F08AF8FFE7039801300390C4E706B04B
:101D800080BD000080B5FFF719FF002000F01CF8AF
:101D9000014640F23200C2F200000180008848F2A1
:101DA0003021884203D1FFE700F05EFA02E000F044
:101DB000EBFAFFE7002000F007F840F23201C2F230
:101DC0000001088080BD000080B582B08DF807005A
:101DD00040F22842C4F60002106840F4007010601F
:101DE000106840F48070106040F21841C4F60001A1
:101DF0000091086840F0200008609DF8070040F658
:101E00001403C4F600031860106840F0200010604E
:101E100000BF00BF00BF086840F0200008600868ED
:101E200040F480700860FFF777FE2821C4F60001B7
:101E3000086840F48070086000BF00BF00BF40F633
:101E40001000C4F600000068ADF804001821C4F6C4
:101E50000001086840F480700860FFF775FE009983
:101E6000086840F400700860BDF8040002B080BD4E
:101E700081B0ADF80200BDF8020040F20001C2F2EC
:101E80000001088001B0704780B582B08DF807006E
:101E9000ADF804109DF80710202000F07BF8BDF885
:101EA0000410212000F076F802B080BD81B0ADF8BA
:101EB0000200BDF8020040F23001C2F200010880C9
:101EC00001B0704781B0ADF8020040F22842C4F67C
:101ED0000002106840F40070106040F21841C4F62F
:101EE0000001086840F480700860086840F0200035
:101EF0000860BDF8020040F61403C4F60003186041
:101F0000106840F02000106000BF00BF00BF0868EC
:101F100040F020000860086840F48070086000BF4E
:101F200000BF00BF086840F40070086001B070474F
:101F300040F22842C4F60002106840F400701060BD
:101F4000106840F48070106040F21841C4F600013F
:101F5000086840F02000086040F61403C4F600034F
:101F600022201860106840F02000106000BF00BF01
:101F700000BF086840F020000860086840F48070E6
:101F8000086000BF00BF00BF086840F40070086030
:101F90007047000081B08DF80300ADF8001040F2EA
:101FA0002842C4F60002106840F400701060106807
:101FB00040F48070106040F21841C4F600010868D7
:101FC00040F0200008609DF8030040F61403C4F6BA
:101FD00000031860106840F02000106000BF00BFD0
:101FE00000BF086840F020000860086840F4807076
:101FF0000860BDF800001860106840F02000106014
:1020000000BF00BF00BF086840F0200008600868FB
:1020100040F48070086001B07047000080B592B055
:102020000020119010900F900E900D90FFE741F25C
:102030004C00C4F20200016841F004010160006834
:1020400000F004000C900C98FFE7FFE741F24C0011
:10205000C4F20200016841F020010160006800F054
:1020600020000B900B98FFE7FFE741F24C00C4F211
:102070000200016841F001010160006800F0010008
:102080000A900A98FFE7FFE741F24C00C4F2020011
:10209000016841F002010160006800F0020009904F
:1020A0000998FFE7FFE741F24C00C4F20200016823
:1020B00041F008010160006800F0080008900898ED
:1020C000FFE740F60000C4F6000002904FF6FF71F3
:1020D000019100220592FEF777FD059A40F6004037
:1020E000C4F60000069004210391FEF76DFD019AED
:1020F000029805990D92012204920E920F9110916F
:102100000DA90791FEF794FB049A059807990D9283
:102110000E900F904FF09040FEF78AFB05980799BC
:1021200007220D920E900F9040F20040C4F600007E
:10213000FEF77EFBDDF80CC0049B059A0698079914
:10214000CDF834C00E930F921092FEF771FB12B0CF
:1021500080BD0000FFE7FEE7FFE7FEE788B00790DD
:1021600006910592079800F0070004900498C0F1CA
:102170000700052803D3FFE70420019004E004983A
:10218000C0F107000190FFE7019803900498043024
:10219000062803D8FFE70020009003E004980338E6
:1021A0000090FFE70098029006980399012202FA36
:1021B00001F101390840029B984005999A40013A83
:1021C0001140084308B070477047000086B041F2E4
:1021D0000C00C4F20200016801F0030104910068E0
:1021E000C1B2012000EB1110029004980090022867
:1021F00015D0FFE70098032812D1FFE7029943F2B8
:102200000060C0F26E10B0FBF1F041F20C01C4F2BC
:1022100002010968C1F306214843059011E0FFE778
:10222000029942F20040C0F2F400B0FBF1F041F23A
:102230000C01C4F202010968C1F30621484305906C
:10224000FFE741F20C00C4F20200006800F0C06138
:10225000022000EB1160039005980399B0FBF1F0A8
:102260000190019806B0704780B586B000200090BC
:1022700001210191FFF78EFE4FF47A70FEF784FA88
:1022800000990198FFF786FE102041F29071FFF748
:1022900081FE60204FF41C51FFF77CFE0199612004
:1022A000FFF778FE462002210291FFF773FE13200C
:1022B00048F21001FFF76EFE122048F2FE01FFF710
:1022C00069FE02984FF4A061FFF764FE03200590B9
:1022D00041F23001FFF75EFE302040F203310491FD
:1022E000FFF758FE04993120FFF754FE049932207D
:1022F000FFF750FE33204FF440710391FFF74AFE81
:1023000005993420FFF746FE04993520FFF742FE79
:1023100036201421FFF73EFE04993720FFF73AFEDE
:1023200004993820FFF736FE04993920FFF732FE72
:1023300003993A20FFF72EFE05993B20FFF72AFE6E
:1023400004993C20FFF726FE3D204FF4A051FFF7F3
:1023500021FE92204FF40071FFF71CFE0499932098
:10236000FFF718FE902040F60D01FFF713FE0598C9
:1023700041F21801FFF70EFE072040F27311FFF73C
:1023800009FE06B080BD000080B58CB0E32043F2AA
:102390000801FFF7FFFDE72012210191FFF7FAFD89
:1023A000EF20069041F23121FFF7F4FD0120079064
:1023B00000210991FFF7EEFD02204FF4E061FFF7E5
:1023C000E9FD03200A9041F23001FFF7E3FD09998E
:1023D00004200490FFF7DEFD082040F20721FFF7FC
:1023E000D9FD09990920FFF7D5FD09990A20FFF7C2
:1023F000D1FD09990C20FFF7CDFD09990D20FFF7BC
:10240000C9FD09990F200590FFF7C4FD0999102017
:102410000890FFF7BFFD1120009007210B91FFF7F7
:10242000B9FD01980999FFF7B5FD099913200290AC
:10243000FFF7B0FDC820FEF7D9F9089841F2906186
:10244000FFF7A8FD009840F22721FFF7A3FD3220F7
:102450000390FEF7CBF901981D21FFF79BFD039830
:10246000FEF7C4F902984FF40061FFF793FD2920AD
:102470001421FFF78FFD2B200B21FFF78BFD039815
:10248000FEF7B4F909992020FFF784FD099921206E
:10249000FFF780FD0B993020FFF77CFD312040F2E3
:1024A0000771FFF777FD03980621FFF773FD3520CD
:1024B00040F20471FFF76EFD362041F60471FFF71C
:1024C00069FD04993720FFF765FD09993820FFF76A
:1024D00061FD392040F20671FFF75CFD3C2040F2BF
:1024E0000171FFF757FD05993D20FFF753FD09994D
:1024F0005020FFF74FFD06995120FFF74BFD09993A
:102500005220FFF747FD532040F23F11FFF742FDF5
:1025100060204FF41C51FFF73DFD07996120FFF744
:1025200039FD09996A20FFF735FD09998020FFF7E9
:1025300031FD09998120FFF72DFD09998220FFF7D0
:1025400029FD09998320FFF725FD09998420FFF7CC
:1025500021FD09998520FFF71DFD08999020FFF7BF
:1025600019FD09999220FFF715FD0A999320FFF7AD
:1025700011FD95204FF48871FFF70CFD0999972004
:10258000FFF708FD09999820FFF704FD0A9841F22A
:102590001801FFF7FFFC0B9840F27311FFF7FAFCEC
:1025A0000CB080BD7047000080B582B000900098EC
:1025B0000138B0F1807F03D3FFE70120019019E0DB
:1025C000009801384EF21401CEF2000108604FF07D
:1025D000FF300F2100F066F84EF21801CEF2000134
:1025E000002008604EF21002CEF2000207211160B6
:1025F0000190FFE7019802B080BD000080B5FEF7B2
:10260000FFFA80BD80B594B006A800903821FDF790
:1026100006FE0020059004900390029001904FF474
:102620000070FEF79DFB0098012106914FF4803168
:10263000079102210D9103220E920F921422109203
:10264000119112911391FEF781FE18B1FFE7FEF789
:10265000C5F8FFE70F2001900320029000200390AF
:102660000490059001A80221FEF75EFC18B1FFE777
:10267000FEF7B4F8FFE714B080BD00004EF68851B5
:10268000CEF20001086840F4700008607047000056
:10269000FFE7FEE74EF60C50CEF200000068C0F3F4
:1026A0000220704782B08DF8070000919DF9070065
:1026B00000280AD4FFE7009800019DF907104EF2A8
:1026C0000042CEF2000288540BE0009800019DF811
:1026D000071001F00F014EF61452CEF2000288549A
:1026E000FFE702B07047000083B00290029800F04C
:1026F000070000904EF60C51CEF2000108680190E0
:1027000001984FF6FF02104001900198009A40EAAC
:1027100002200022C0F2FA52104301900198086092
:1027200003B0704780B582B040F23801C2F20001B8
:102730000020087040F20040C4F600000121FEF7BE
:102740002BFA48B9FFE740F23801C2F200010878DD
:1027500040F001000870FFE740F20040C4F60000BE
:102760000221FEF719FA48B9FFE740F23801C2F238
:102770000001087840F002000870FFE740F20040D6
:10278000C4F600000421FEF707FA48B9FFE740F25B
:102790003801C2F20001087840F004000870FFE739
:1027A0004FF090400121FEF7F7F948B9FFE740F2FA
:1027B0003801C2F20001087840F008000870FFE715
:1027C00040F23801C2F20001087840F23502C2F24C
:1027D000000213780340434040F23400C2F200008C
:1027E00003700B7892F800C00CEA030C83EA0C0328
:1027F000DB4340F2370CC2F2000C8CF80030097851
:1028000011700078013801460191072824D80199F8
:10281000DFE801F0040C22142222221B40F23601D0
:10282000C2F2000108780130087016E040F236016B
:10283000C2F200010878013808700EE040F236015B
:10284000C2F200010020087007E040F23601C2F237
:102850000001FF20087000E0FFE702B080BD00002B
:1028600080B584B08DF80F00ADF80C10ADF80A20DB
:1028700000208DF80900FFE7BDF80C10BDF80A2014
:102880000020914201900CDAFFE79DF8091040F218
:102890003900C2F20000405C002818BF01200190FE
:1028A000FFE70198C007D8B1FFE79DF80F00BDF81A
:1028B0000C2040F23F11A1EB02119DF809305A1C87
:1028C0008DF8092040F23902C2F20002D25C89B2CE
:1028D000FFF7E0F9BDF80C000130ADF80C00CBE7D4
:1028E00004B080BD80B582B0FFF74CFA00200190A3
:1028F000FFF744F90198FFF7BBFA4FF6FF70FFF7B7
:10290000D5FA40F23600C2F20000027840F23900F7
:10291000C2F2000044F24851C0F6000100F0A2F8F3
:10292000019902220846FFF79BFF02B080BD00001C
:1029300080B540F23600C2F20000027840F2390061
:10294000C2F2000044F24E51C0F6000100F08AF8D5
:10295000002006210922FFF783FF80BD80B586B0E5
:1029600040F60000C4F6000001904FF47F410122C0
:102970000292FEF729F9019840F25701C2F20001D4
:102980000978090200220592FEF71EF9029A40F624
:102990000040C4F60000039004210491FEF714F9EE
:1029A00003980499059AFEF70FF906B080BD000060
:1029B00080B582B000200190FEF730F9FFF722FECB
:1029C000FFF72CFBFFF7CAFFFFF78CFFFFE700F0D4
:1029D00001F8FCE780B582B000208DF80700FFE722
:1029E0009DF8070040F20801C2F200010978884210
:1029F00036DAFFE740F25800C2F2000000689DF8A6
:102A0000071001EB410240F20C01C2F2000101EBA0
:102A100082014A688968114488421AD9FFE79DF803
:102A2000070000EB400140F20C00C2F200000090F1
:102A300050F821008047009940F25800C2F200008F
:102A400000689DF8072002EB420201EB82018860DA
:102A5000FFE7FFE79DF8070001308DF80700BFE7AB
:102A600002B080BD0FB4084B10B504A902AA0398A8
:102A700000F0DEF8044602A9002000F070FC2046B9
:102A800010BC5DF814FB00005F33000802E008C8CA
:102A9000121F08C1002AFAD170477047002001E0D8
:102AA00001C1121F002AFBD1704700002DE9FF5F12
:102AB00082B00021DDE90430020DDDF840B00343AF
:102AC00018D044F61050A2F2FF3242431514119868
:102AD00001281FD0A5EB0B00401C5FEA000A4FF055
:102AE00000064E4FDFF83891B046504615D5CAF172
:102AF000000413E0119801244AA3012801D16FEAD0
:102B00000B010298119AC0E90031C0E9024206B0F7
:102B1000BDE8F09FCBF10000DFE704460021404A0A
:102B2000491842EB0450CDE9001012E0E00707D04D
:102B300032463B4640464946FDF76AFC8046894698
:102B400032463B4610461946FDF762FC06460F46E4
:102B50006410002CEAD1DDE90401DDE90023BAF1BB
:102B6000000F06DAFDF754FC42464B46FDF750FCD9
:102B700005E0FDF7BFFC42464B46FDF7BBFC0446B3
:102B80000E460022284BFDF73DFD03D84FF0FF30E5
:102B9000014607E00022254B20463146FDF791FB18
:102BA000FDF717FD102409E0002C0ADB0A220023A0
:102BB000FDF756FB039B30321A55641E50EA0102A2
:102BC000F2D1641C039AC4F111031444119A012A2E
:102BD00003D0012208430DD10AE0084304D00020AD
:102BE0004FF0110B119072E7A3EB0B056D1E0DE07A
:102BF0005B4504DD4FF0000205F1010504E003DA56
:102C00004FF00002A5F10105002AECD002981199BD
:102C1000C0E90231C0E9004579E700000000144036
:102C20000000F03F300000000000F0430000E03FF3
:102C30002DE9FF4F95B09B468946064600250FE2D9
:102C4000252877D100242746F84A0121059400E081
:102C5000044316F8013F203B01FA03F01042F7D17C
:102C600030782A2811D06FF02F033078A0F130028D
:102C7000092A16D8059A44F0020402EB820203EBFB
:102C800042021044761C0590EFE759F8042B059298
:102C9000002A03DA504244F40054059044F0020440
:102CA000761C30782E2816D116F8010F44F0040453
:102CB0002A280DD06FF02F023078A0F13003092BB5
:102CC00009D807EB870302EB4303C718761CF3E729
:102CD00059F8047B761C30786C280FD006DC4C2821
:102CE00017D068280DD06A2814D104E0742810D0B9
:102CF0007A280FD10DE044F400140AE044F4801463
:102D000001E044F440147278824202D104F5801448
:102D1000761C761C307866280BD013DC582877D0C8
:102D200009DC002875D04528F6D04628F4D047287D
:102D30001AD19DE118E0632835D0642879D0652840
:102D400012D195E1702873D008DC6728F1D069288A
:102D50006FD06E280DD06F2806D1B5E073282CD027
:102D6000752875D0782874D05A46179990476D1CED
:102D700075E1C4F30250022809D003280DD0D9F818
:102D8000001004280DD00D6009F1040967E1D9F89D
:102D90000010EA17C1E90052F6E7D9F800100D80DB
:102DA000F2E70D70F0E719F8041B8DF80010002011
:102DB0008DF80100EA46012003E059F804AB4FF01A
:102DC000FF3061074FF0000102D40DE008F101016E
:102DD0008846B9420FDA8045F8DB1AF80810002956
:102DE000F4D108E008F1010188468142FADB1AF8C3
:102DF00008100029F6D105985B46A0EB080721468C
:102E00003846179A00F094FA284400EB080507E0CA
:102E10004DE029E10DE01AF8010B5A461799904749
:102E2000B8F10108F7D25B4621463846179A13E1FC
:102E300042E00A220092C4F302524FF0000A022A32
:102E400008D059F804CB032A4FEAEC710AD00DE000
:102E500029E02AE009F1070121F00702F2E802C1A6
:102E6000914609E00FFA8CFC4FEAEC71042A03D179
:102E70004FFA8CFC4FEAEC71002907DA0A46002170
:102E8000DCF1000C61EB02012D2202E0220504D5E9
:102E90002B228DF80420012203E0E20701D020223A
:102EA000F7E7904659E00A2102E010220DE01021D8
:102EB0004FF0000A00910BE010224FF0000A44F09E
:102EC00004040827009203E008224FF0000A009251
:102ED000C4F30252022A05D059F804CB0021032A78
:102EE00008D009E009F1070121F00702F2E802C168
:102EF000914605E01FFA8CFC042A01D10CF0FF0C6E
:102F00004FF00008220728D5702806D0009B83F0D8
:102F1000100353EA0A0305D00EE040228DF8042086
:102F2000012208E05CEA010206D030228DF804207C
:102F30008DF8050002229046009B83F0080353EAB7
:102F40000A030AD15CEA010201D1620705D53022E9
:102F50008DF804204FF001087F1E582804D034A0BB
:102F600003900EA802900DE036A0F9E753466046A4
:102F7000009AFDF775F984460398825C0298401E1A
:102F8000029002705CEA0100F0D1029806A9081ACA
:102F900000F1200A600702D524F4803400E0012704
:102FA000574502DDA7EB0A0000E0002000EB0A0114
:102FB000009005984144401A0590E00306D45B4612
:102FC0002146179A059800F0B3F90544002706E05A
:102FD00001A85A46C05D179990476D1C7F1C474554
:102FE000F6DBE0030CD55B462146179A059800F006
:102FF0009FF9054404E030205A46179990476D1C0C
:103000000099481E00900029F5DC08E0029802991A
:103010005A460078491C0291179990476D1CBAF1E5
:103020000001AAF1010AF1DC65E1000009280100B4
:10303000303132333435363738396162636465662E
:1030400000000000303132333435363738394142F0
:10305000434445460000000000F058F90544761C42
:10306000307800287FF4ECAD19B02846BDE8F08F29
:10307000620700D4062709F1070222F0070CFCE8DA
:103080000223E14603F000485FEA080C02D00FF289
:10309000702C0DE05FEA045C02D50FF2682C07E0AB
:1030A0005FEAC47C02D00FF2602C01E0AFF2700C3A
:1030B0004FF0FF3823F00043CDF850C065280CD006
:1030C00006DC452809D046281DD047283DD13DE0E3
:1030D000662818D067287ED138E00021112F01DB47
:1030E000112000E0781CCDE9000106A90EA8FFF729
:1030F000DDFCDDE90F010E9A03910021009207F13A
:10310000010A04914DE04FF000400097CDE9011015
:1031100006A90EA8FFF7CAFCDDE90F0203920E9B79
:1031200011990022DDF80CA00093049211B9791CCA
:1031300000EB010AB7EB0A0004D4C0F1FF3007F13D
:10314000010A0490AAEB0700019044E0012F00DA85
:1031500001270021112F01DD112000E03846CDE9C3
:10316000000106A90EA8FFF7A1FCDDE90F010E9AE8
:103170000391002104910092BA4621070CD40399CF
:10318000514500DA8A46BAF1010F05DD009AAAF12D
:103190000101515C302908D0B84202DA10F1040F65
:1031A00006DA0121CDE9011015E0AAF10101E9E7F4
:1031B000002805DC049901440491AAEB000102E017
:1031C000411C514500DD8A460499401A401C01907B
:1031D0004FF000400290200704D40198504501DBD5
:1031E000CDF8048000208DF84F0002980DF14F07B4
:1031F000B0F1004F25D02B200E9002984FF002081E
:1032000000280CDA404202902D200E9007E00A219F
:103210000298FDF70FF83031029007F8011DB8F160
:103220000001A8F10108F2DC02980028EFD1791E14
:103230000E980870307800F0200040F0450007F844
:10324000020D12A8C01B00F107081498007800B105
:10325000012000EB0A01019801EBE071059841445F
:10326000401A401E0590E00306D45B462146179A9B
:10327000059800F05DF805441498007818B15A4696
:10328000179990476D1CE00324D55B462146179A99
:10329000059800F04DF805441CE00498002807DB71
:1032A000DDE90301884203DD0098405C179901E0E5
:1032B000179930205A469047049805F10105401CA3
:1032C00004900198401E019004D12E205A4617996F
:1032D00090476D1CBAF10001AAF1010ADDDC05E09E
:1032E00017F8010B5A46179990476D1CB8F1000169
:1032F000A8F10108F4DC5B462146179A0598ABE675
:103300002D0000002B000000200000002DE9F041FE
:10331000044600251E461746880404D405E03946B5
:103320002020B0476D1C641EF9D52846BDE8F08109
:103330002DE9F041044600251E469046C80301D5FC
:10334000302700E02027880404D505E041463846B0
:10335000B0476D1C641EF9D52846BDE8F0810A68A7
:10336000531C0B601070704700000000000000004C
:103370000102030406070809000000000000000025
:10338000000000000000000000000000000000003D
:10339000000000000000000000000000000000002D
:1033A000000000000000000000008001800180019A
:1033B0008001800180018001800180018001800105
:1033C00080018001000000008001800100000000F9
:1033D000000000000000000000000000CC00CC0055
:1033E000CC00CC00CC00CC000000000000000000AD
:1033F00000000000000000000000000000000000CD
:1034000000000000000000000000000000000000BC
:1034100000000000600C600C600C30063006FE1FDF
:10342000FE1F300638071803FE1FFE1F180318037F
:103430008C018C018C01000000008000E003F80F7B
:103440009C0E8C1C8C188C009800F801E007800EF4
:10345000801C8C188C189C18B80CF00FE0038000AE
:1034600080000000000000000000000000000E18B6
:103470001B0C110C11061106110311039B018E0187
:10348000C038C06C60446044304430441844186C08
:103490000C380000000000000000E001F0033807D5
:1034A000180618063003F001F000F8009C310E33C6
:1034B000061E061C061C063FFC73F02100000000DF
:1034C0000000000000000000000000000C000C00E4
:1034D0000C000C000C000C000000000000000000BC
:1034E00000000000000000000000000000000000DC
:1034F0000000000000000000000000020003800146
:10350000C000C000600060003000300030003000BB
:10351000300030003000300060006000C000C000AB
:103520008001000300020000000020006000C000D5
:10353000800180010003000300060006000600066B
:10354000000600060006000600030003800180015B
:10355000C00060002000000000000000000000002B
:1035600000000000C000C000D806F807E0013003EA
:10357000380700000000000000000000000000000C
:10358000000000000000000000000000000000003B
:103590000000000080018001800180018001FC3F6B
:1035A000FC3F80018001800180018001000000005B
:1035B000000000000000000000000000000000000B
:1035C00000000000000000000000000000000000FB
:1035D00000000000000000000000800180010001E8
:1035E000000180000000000000000000000000005A
:1035F00000000000000000000000000000000000CB
:10360000E007E007000000000000000000000000EC
:1036100000000000000000000000000000000000AA
:10362000000000000000000000000000000000009A
:1036300000000000000000000000C000C00000000A
:1036400000000000000000000000000C000C00065C
:1036500000060006000300030003800380018001D0
:103660008001C000C000C0006000600000000000D9
:1036700000000000000000000000E003F007380E2A
:10368000180C0C180C180C180C180C180C180C181A
:103690000C180C18180C380EF007E003000000009E
:1036A0000000000000000000000000018001C001D7
:1036B000F001980188018001800180018001800172
:1036C00080018001800180018001800100000000F4
:1036D00000000000000000000000E003F80F180CDC
:1036E0000C180C1800180018000C000600038001CC
:1036F000C000600030001800FC1FFC1F000000002C
:1037000000000000000000000000E001F807180EB3
:103710000C0C0C0C000C0006C003C007000C0018B9
:1037200000180C180C18180CF807E0030000000033
:1037300000000000000000000000000C000E000F60
:10374000000F800DC00C600C600C300C180C0C0CC1
:10375000FC3FFC3F000C000C000C000C00000000C3
:1037600000000000000000000000F80FF80F180033
:1037700018000C00EC03FC071C0E001C00180018BD
:1037800000180C181C0C180EF807E00300000000CD
:1037900000000000000000000000C007F00F381C0F
:1037A000181818000C00CC03EC0F3C0E1C1C0C1855
:1037B0000C180C18181C380EF007E003000000006D
:1037C00000000000000000000000FC1FFC1F000CB7
:1037D00000060006000380038001C001C000E00075
:1037E0006000600070003000300030000000000019
:1037F00000000000000000000000E003F007380EA9
:10380000180C180C180C3806F007F007180C0C18D8
:103810000C180C180C18380CF80FE003000000000E
:1038200000000000000000000000E003F007380E78
:103830001C0C0C180C180C181C1C381EF81BE0195A
:103840000018000C000C1C0EF807F001000000002E
:103850000000000000000000000000000000000068
:103860000000000080018001000000000000000056
:103870000000000000000000800180010000000046
:103880000000000000000000000000000000000038
:103890000000000080018001000000000000000026
:1038A0000000000000000000800180010001000114
:1038B0008000000000000000000000000000000088
:1038C00000000000000000000010001C800FE0035A
:1038D000F8001800F800E003800F001C0010000042
:1038E00000000000000000000000000000000000D8
:1038F0000000000000000000F81F000000000000B1
:10390000F81F0000000000000000000000000000A0
:1039100000000000000000000000000000000000A7
:10392000000000000000000008003800F001C0079F
:10393000001F0018001FC007F00138000800000039
:1039400000000000000000000000E003F80F180C69
:103950000C180C180018000C000600038001C000B1
:10396000C000C00000000000C000C0000000000057
:10397000000000000000000000000000E007181830
:103980000420C229224A1144094409440944092255
:103990001113E20C024004201818E0070000000098
:1039A0000000000000000000000080038003C0064B
:1039B000C006C006600C600C301830183018F83F94
:1039C000F83F1C700C600C6006C006C000000000D0
:1039D00000000000000000000000FC03FC0F0C0CC5
:1039E0000C180C180C180C0CFC07FC0F0C180C30E5
:1039F0000C300C300C300C18FC1FFC0700000000D1
:103A000000000000000000000000C007F01F383870
:103A10001C300C700660060006000600060006005A
:103A2000060006600C701C30F01FE007000000006C
:103A300000000000000000000000FE03FE0F060E64
:103A400006180618063006300630063006300630F6
:103A5000063006180618060EFE0FFE0300000000D2
:103A600000000000000000000000FC3FFC3F0C00D4
:103A70000C000C000C000C00FC1FFC1F0C000C00C8
:103A80000C000C000C000C00FC3FFC3F0000000090
:103A900000000000000000000000F83FF83F1800A0
:103AA0001800180018001800F81FF81F1800180058
:103AB0001800180018001800180018000000000076
:103AC00000000000000000000000E00FF83F3C781C
:103AD0000E6006E007C00300030003FE03FE03C000
:103AE00007C006C00EC03CF0F83FE00F0000000029
:103AF000000000000000000000000C300C300C3012
:103B00000C300C300C300C30FC3FFC3F0C300C30D7
:103B10000C300C300C300C300C300C30000000003D
:103B20000000000000000000000080018001800112
:103B3000800180018001800180018001800180017D
:103B4000800180018001800180018001000000006F
:103B50000000000000000000000000060006000653
:103B60000006000600060006000600060006000625
:103B70000006180618063807F003E00100000000F0
:103B80000000000000000000000006300618060CCF
:103B9000060606038601C60066007600DE008E017A
:103BA00006030606060C0618063006600000000034
:103BB00000000000000000000000180018001800BD
:103BC0001800180018001800180018001800180035
:103BD0001800180018001800F81FF81F0000000057
:103BE000000000000000000000000EE01EF01EF0CB
:103BF0001EF036D836D836D836D866CC66CC66CCE9
:103C0000C6C6C6C6C6C6C6C686C386C300000000F2
:103C1000000000000000000000000C301C303C30B0
:103C20003C306C306C30CC30CC308C310C330C33BD
:103C30000C360C360C3C0C3C0C380C3000000000F0
:103C400000000000000000000000E007F81F1C3822
:103C50000E70066003C003C003C003C003C003C0EE
:103C600003C006600E701C38F81FE007000000005B
:103C700000000000000000000000FC0FFC1F0C38DA
:103C80000C300C300C300C300C18FC1FFC070C00F6
:103C90000C000C000C000C000C000C0000000000DC
:103CA00000000000000000000000E007F81F1C38C2
:103CB0000E70066003E003C003C003C003C003C06E
:103CC00007E006630E3F1C3CF83FE0F700C0000031
:103CD00000000000000000000000FE0FFE1F06387C
:103CE0000630063006300638FE1FFE0706030606BD
:103CF000060C0618061806300630066000000000A4
:103D000000000000000000000000E003F80F1C0CA1
:103D10000C180C180C001C00F803E00F001E0038F3
:103D2000063006300E301C1CF80FE00700000000C3
:103D300000000000000000000000FE7FFE7F800108
:103D4000800180018001800180018001800180016B
:103D5000800180018001800180018001000000005D
:103D6000000000000000000000000C300C300C309F
:103D70000C300C300C300C300C300C300C300C3063
:103D80000C300C300C301818F81FE0070000000051
:103D90000000000000000000000003600630063054
:103DA00006300C180C180C18180C180C380E3006AD
:103DB0003006700760036003C001C001000000000E
:103DC000000000000000000000000360C361C36148
:103DD000C3616633663366336633663366336C1BA2
:103DE0006C1B6C1B2C1A3C1E380E380E0000000099
:103DF000000000000000000000000FE00C70183010
:103E00003018700C600EC00780038003C003E0060A
:103E1000700C301C18180C300E6007E00000000019
:103E20000000000000000000000003C006600C302D
:103E30001C383818300C6006E007C0038001800190
:103E4000800180018001800180018001000000006C
:103E500000000000000000000000FC7FFC7F00600C
:103E600000300018000C000600038001C000600054
:103E7000300018000C000600FE7FFE7F00000000EE
:103E800000000000000000000000E003E00360000C
:103E90006000600060006000600060006000600022
:103EA0006000600060006000600060006000600012
:103EB0006000E003E003000000003000300060001C
:103EC00060006000C000C000C000C001800180012F
:103ED000800100030003000300060006000000004C
:103EE00000000000000000000000E003E003000309
:103EF00000030003000300030003000300030003AA
:103F00000003000300030003000300030003000399
:103F10000003E003E003000000000000C001C00156
:103F200060036003600330063006180C180C0000B4
:103F30000000000000000000000000000000000081
:103F40000000000000000000000000000000000071
:103F50000000000000000000000000000000000061
:103F600000000000000000000000FFFFFFFF000055
:103F7000000000000000000000000C000C000C001D
:103F80000C000C000C00000000000000000000000D
:103F90000000000000000000000000000000000021
:103FA0000000000000000000000000000000000011
:103FB00000000000F003F8071C0C0C0C000FF00FC1
:103FC000F80C0C0C0C0C1C0FF80FF0180000000083
:103FD0000000000000000000000018001800180099
:103FE00018001800D803F80F380C181818181818EB
:103FF000181818181818380CF80FD803000000000B
:1040000000000000000000000000000000000000B0
:1040100000000000C003F007300E180C1800180054
:1040200018001800180C300EF007C0030000000044
:104030000000000000000000000000180018001838
:1040400000180018C01BF01F301C1818181818187A
:10405000181818181818301CF01FC01B000000009A
:104060000000000000000000000000000000000050
:1040700000000000C003F00F300C1818F81FF81FE4
:10408000180018003818301CF00FC007000000009E
:1040900000000000000000000000800FC00FC00002
:1040A000C000C000F007F007C000C000C000C000A2
:1040B000C000C000C000C000C000C0000000000080
:1040C00000000000000000000000000000000000F0
:1040D00000000000E00DF80F180E0C0C0C0C0C0C7E
:1040E0000C0C0C0C0C0C180EF80FE00D000C0C0C4A
:1040F0001C06F807F0010000000018001800180066
:1041000018001800D807F80F381C181818181818B5
:10411000181818181818181818181818000000007F
:1041200000000000000000000000C000C00000000F
:1041300000000000C000C000C000C000C000C000FF
:10414000C000C000C000C000C000C00000000000EF
:1041500000000000000000000000C000C0000000DF
:1041600000000000C000C000C000C000C000C000CF
:10417000C000C000C000C000C000C000C000C0003F
:10418000C000F8007800000000000C000C000C00DB
:104190000C000C000C0C0C060C038C01CC006C0009
:1041A000FC009C018C030C030C060C0C00000000AE
:1041B00000000000000000000000C000C000C000BF
:1041C000C000C000C000C000C000C000C000C000EF
:1041D000C000C000C000C000C000C000000000005F
:1041E00000000000000000000000000000000000CF
:1041F000000000007C3CFF7EC7E383C183C183C114
:1042000083C183C183C183C183C183C10000000016
:10421000000000000000000000000000000000009E
:10422000000000009807F80F381C18181818181804
:10423000181818181818181818181818000000005E
:10424000000000000000000000000000000000006E
:1042500000000000C003F00F300C181818181818D0
:10426000181818181818300CF00FC00300000000C0
:10427000000000000000000000000000000000003E
:1042800000000000D803F80F380C18181818181878
:10429000181818181818380CF80FD8031800180038
:1042A00018001800180000000000000000000000C6
:1042B00000000000C01BF01F301C18181818181838
:1042C000181818181818301CF01FC01B00180018F8
:1042D0000018001800180000000000000000000096
:1042E00000000000B007F003700030003000300024
:1042F000300030003000300030003000000000009E
:1043000000000000000000000000000000000000AD
:1043100000000000E003F003380E180C3800F00332
:10432000C007000C180C380EF007E0030000000076
:104330000000000000000000000000008000C0003D
:10434000C000C000F007F007C000C000C000C000FF
:10435000C000C000C000C000C0078007000000000F
:10436000000000000000000000000000000000004D
:10437000000000001818181818181818181818181D
:10438000181818181818381CF01FE0190000000041
:10439000000000000000000000000000000000001D
:1043A000000000000C18180C180C180C3006300611
:1043B0003006600360036003C001C001000000001C
:1043C00000000000000000000000000000000000ED
:1043D00000000000C141C141C36163636363636363
:1043E0003636363636361C1C1C1C1C1C00000000E1
:1043F00000000000000000000000000000000000BD
:10440000000000001C38381C300C6006600360039C
:10441000600360036006300C381C1C38000000008C
:10442000000000000000000000000000000000008C
:10443000000000001830301830187018600C600C44
:10444000E00CC006C0068003800380038001800169
:10445000C001F0007000000000000000000000003B
:1044600000000000FC1FFC1F000C00060003800180
:10447000C000600030001800FC1FFC1F000000009E
:104480000000000000000000000000038001C000E8
:10449000C000C000C000C000C0006000600030006C
:1044A00060004000C000C000C000C000C000C000EC
:1044B00080010003000000000000800180018001F5
:1044C00080018001800180018001800180018001E4
:1044D00080018001800180018001800180018001D4
:1044E000800180018001000000006000C000C00168
:1044F000800180018001800180010003000300062B
:1045000000030001800180018001800180018001A1
:10451000C00060000000000000000000000000007B
:104520000000000000000000F010F81F080F00005D
:10453000000000000000000000000000000000007B
:10454000000000000000000068656C6C6F3A256494
:104550002020000078450008000000203000000006
:104560008C2A0008A8450008300000203004000014
:104570009C2A000800000000FFFF00000024F40057
:104580000200000031290008640000000000000063
:10459000252700080A0000000000000001000000BC
:0845A000100000000000000003
:04000005080001D915
:00000001FF
