:020000040800F2
:10000000B8050020ED010008B1400008E135000806
:10001000AD400008910A00080D46000800000000ED
:10002000000000000000000000000000FD44000887
:10003000C50B0008000000002141000855450008DC
:10004000070200080702000807020008070200086C
:10005000070200080702000807020008070200085C
:10006000070200080702000807020008950A0008B6
:10007000070200080702000807020008070200083C
:10008000070200080000000007020008070200083D
:10009000070200080702000807020008070200081C
:1000A000070200080702000807020008070200080C
:1000B00007020008070200080702000807020008FC
:1000C00007020008070200080702000807020008EC
:1000D00007020008070200080702000807020008DC
:1000E00007020008070200080702000807020008CC
:1000F00007020008070200080702000800000000CD
:1001000000000000070200080000000007020008CD
:1001100007020008000000000702000807020008AC
:10012000070200080702000807020008070200088B
:10013000070200080000000000000000070200089D
:10014000070200080702000800000000000000008D
:10015000000000000000000000000000000000009F
:10016000000000000000000000000000070200087E
:10017000070200080000000000000000000000006E
:10018000000000000702000800000000000000005E
:10019000000000000000000000000000000000005F
:1001A000000000000000000007020008070200082D
:1001B000070200080702000807020008000000000C
:1001C000000000000702000800000000000000001E
:1001D0000702000807020008DFF80CD000F03CFA24
:1001E000004800476D4C0008B805002006488047CD
:1001F00006480047FEE7FEE7FEE7FEE7FEE7FEE70C
:10020000FEE7FEE7FEE7FEE7F9450008D901000832
:10021000D2B201E000F8012B491EFBD27047002248
:10022000F6E710B513460A4604461946FFF7F0FFF5
:10023000204610BD00F0004230F000400AD0C10D51
:1002400001F56071C0F3160042EA0151C20840078F
:100250001143704700200146704730B50B460146F8
:1002600000202022012409E021FA02F59D4205D355
:1002700003FA02F5491B04FA02F52844151EA2F1FF
:100280000102F1DC30BD2DE9F05F05460020924609
:100290009B4688460646814640241BE02846414648
:1002A0004746224600F0FFF953465A46C01A91418C
:1002B00010D311461846224600F0E6F92D1A67EBD6
:1002C00001084F4622460120002100F0DDF917EB1E
:1002D00000094E41201EA4F10104DFDC48463146EE
:1002E0002A464346BDE8F09F2DE9FE4F804681EA4D
:1002F0000300C00F0C46009021F0004123F00045A0
:10030000B8EB0200A94105D24046214690461C4662
:100310000B46024623F00040104347D0270DC7F399
:100320000A00C3F30A510290401A019040286BDA88
:10033000C3F3130040F4801B0098924620B10023C1
:10034000D2EB030A63EB0B0B01985946C0F1400254
:10035000504600F099F906460D4650465946019A16
:1003600000F0B1F910EB08006141002487EA115256
:1003700084EAE7731A4340D0009A62B3019A012AD3
:100380004FEA075215DC001B61EB02014FF00042FF
:1003900002EA0752CDE90042001C41F580113246C5
:1003A0002B4600F0B1F903B0BDE8F08F404621467E
:1003B000F9E7001B61EB0201001C41F580130018F6
:1003C0005B412018A2F5001747EB030140EAD57006
:1003D000B6196D4111E06D084FEA360645EAC07561
:1003E0004FEA0752001B61EB0201001C41F580112E
:1003F00049084FEA30000019514132462B4603B0FC
:10040000BDE8F04F00F071B90098012240000023D0
:10041000D0EB020263EBE073009821464FEAE074F0
:10042000B8EB000061EB0401E9E783F000435BE710
:1004300081F0004158E72DE9FE4F81EA030404F002
:10044000004421F0004100944FF0000B23F00043E2
:1004500050EA01045ED052EA03045BD0C3F30A54AD
:10046000C1F30A552C44A4F2F3340194A0FB0254C6
:10047000C1F3130141F48011C3F3130343F4801358
:1004800001FB024400FB034E840A970A44EA8154AC
:1004900047EA8357A4FB076802958D0A05FB078589
:1004A0004FEA932C04FB0C542705029D4FEA065893
:1004B00047EA1637B5EB08056EEB070C870E920E70
:1004C00047EA811742EA8312A7FB0201B6EB0B0150
:1004D00064EB00042B0D43EA0C335E1844EB1C5014
:1004E000DA465146E7FB0201C5F313044FEA0B332A
:1004F00043EA14534FEA0432019C43EA0603A4F191
:100500000C040294009CCDE900B400F0FDF803B0A7
:10051000BDE8F08F00200146F9E72DE9F04D81EAB2
:10052000030404F0004B21F0004514464FF0000A8C
:1005300023F0004150EA050220D054EA01021DD008
:10054000C5F30A570246C5F31303C1F31300C1F301
:100550000A5640F4801543F48013A7EB0608101BDD
:10056000D64608F2FD3873EB050002D308F1010806
:1005700001E092185B41B8F1000F03DA0020014658
:10058000BDE8F08D00204FF48011064684460EE051
:10059000171B73EB050705D3121B63EB050306431B
:1005A0004CEA010C49084FEA300092185B4150EACE
:1005B0000107EDD152EA030012D082EA040083EA77
:1005C0000501084305D0101BAB4106D201220023D0
:1005D00006E000224FF0004302E06FF001025310EA
:1005E0001AEB06004CEB085110EB0A0041EB0B0133
:1005F000BDE8F04D00F079B8C1F30A52C1F3130120
:1006000040F2FF3341F480119A4202DA00200146A1
:10061000704740F233439A42A2F2334202DC524224
:1006200000F041B800F030B830B5041E71F100049C
:1006300004DB4FF00044404264EB0101141E73F1EF
:10064000000405DB1C464FF00043524263EB0403F9
:10065000994208BF904230BD1CB509480090094836
:1006600001900546009C06E0E06840F0010394E834
:10067000070098471034AC42F6D3FFF7B1FD0000F5
:100680005868000878680008202A04DB203A00FA3D
:1006900002F1002070479140C2F1200320FA03F3D9
:1006A000194390407047202A04DB203A21FA02F0D7
:1006B0000021704721FA02F3D040C2F1200291409C
:1006C000084319467047202A06DBCB17203A41FA27
:1006D00002F043EAE07306E041FA02F3D040C2F1CF
:1006E0002002914008431946704710B5141E73F15B
:1006F000000408DA401C41F1000192185B411A43E2
:1007000001D120F0010010BD2DE9F04D92469B462D
:1007100011B1B1FA81F202E0B0FA80F220329046D3
:10072000FFF7B2FF04460F4640EA0A0041EA0B0118
:1007300053465A46084313D0114653EA010019D0D4
:10074000C8F140025046FFF7AEFF05460E46504640
:1007500059464246FFF798FF084305D0012004E0C0
:1007600020463946BDE8F08D0020054346EAE07694
:100770002C4337430A986305E40AA0EB08000022E3
:10078000FD0A44EA47540A3002D500200146E9E751
:10079000010510196941DDE9084500196941BDE805
:1007A000F04DA2E780B582B001900198806A009078
:1007B0000098C06D10F0500F4BD1FFE70099C86D45
:1007C00040F40070C86500980068006800070028C1
:1007D00021D5FFE70098006803F04AFAD0B1FFE79F
:1007E00000980068C0688004002812D4FFE70099D0
:1007F000C86D20F48070C8650098C06DC0040028E2
:1008000006D4FFE70099C86D40F00100C865FFE716
:10081000FFE7FFE719E000980068C068800700283C
:1008200012D4FFE70099C86D20F48070C865009865
:10083000C06DC004002806D4FFE70099C86D40F0E1
:100840000100C865FFE7FFE7FFE7009800F052FEF0
:1008500010E00098C06DC006002804D5FFE700989E
:1008600000F050FE05E00098406D416B019888470C
:10087000FFE7FFE702B080BD80B582B0019001982C
:10088000806A00900099C86D40F04000C8650099EA
:10089000086E40F004000866009800F033FE02B0D5
:1008A00080BD000080B582B001900198806A009000
:1008B000009800F023FE02B080BD000080B584B037
:1008C00002900298006803F0B3F900900298006863
:1008D00003F0B6F900284BD0FFE70098002847D175
:1008E000FFE702980068806800F00D00012809D138
:1008F000FFE70298006803F02BF9029801680320D3
:1009000008600DE00299C86D40F01000C8650299BA
:10091000086E40F00100086601208DF80F002BE002
:1009200001F096FC0190FFE7029800688068C0071C
:10093000E8B1FFE701F08CFC0199401A032815D3B8
:10094000FFE7029800688068C00770B1FFE702996E
:10095000C86D40F01000C8650299086E40F00100B3
:10096000086601208DF80F0006E0FFE7DCE7FFE7EF
:1009700000208DF80F00FFE79DF80F0004B080BD48
:1009800080B584B00290002000900298006803F0C7
:1009900057F9002874D1FFE70298006880683F216A
:1009A000C8F2000108420ED0FFE70299C86D40F07E
:1009B0001000C8650299086E40F001000866012029
:1009C0008DF80F0060E00298006803F0DBF840F259
:1009D0000030C5F2000003F0F3F8000200281CD537
:1009E000FFE740F20400C2F200000068800942F60E
:1009F0006351C0F23E51A0FB0110800900EB4001A1
:100A00000C2000EB81000090FFE7009820B1FFE789
:100A1000009801380090F8E7FFE701F019FC019019
:100A2000FFE7029800680068C00740BBFFE7029834
:100A3000006803F005F928B9FFE70298006803F0A1
:100A4000A1F8FFE701F004FC0199401A032815D32F
:100A5000FFE7029800680068C00770B9FFE70299D5
:100A6000C86D40F01000C8650299086E40F00100A2
:100A7000086601208DF80F0006E0FFE7D1E7FFE7E9
:100A800000208DF80F00FFE79DF80F0004B080BD37
:100A9000FFE7FEE780B540F23810C2F2000000F038
:100AA000FDFF80BD84B003900398006840F20741C9
:100AB000C4F20201884206D8FFE740F60000C4F203
:100AC0000200009005E040F62000C4F20200009011
:100AD000FFE7009802900398007808384CF6CD4163
:100AE000CCF6CC41A0FB01100009019002980399BB
:100AF0004A6C22F0030210448864039940F6800097
:100B0000C4F20200C864019800F01F01012088406F
:100B10000399086504B0704782B00190019800798C
:100B20000090009940F6FC00C4F2020000EB810046
:100B300001994865019940F64010C4F202008865A9
:100B40000098013800F01F01012088400199C86514
:100B500002B0704784B00390029101920093039811
:100B6000C16C006D48600398406D28B1FFE70398A1
:100B7000816DC06D4860FFE70398016C406C00F028
:100B80001F0201209040486000980399096848605E
:100B900003988068102809D1FFE701980399096834
:100BA0008860029803990968C86008E00298039970
:100BB00009688860019803990968C860FFE704B074
:100BC000704700007047000082B0ADF806000020BA
:100BD000ADF80400FFE7BDF80400BDF80610884238
:100BE00019DAFFE70020ADF80200FFE7BDF80200C8
:100BF00040F6B731884207DCFFE7FFE7BDF80200A7
:100C00000130ADF80200F1E7FFE7BDF80400013064
:100C1000ADF80400DFE702B07047000081B0EFF3E9
:100C2000108072B60090FFE7FEE7000080B586B046
:100C30000490039100200190FFE7049890F8580079
:100C4000012804D1FFE702208DF817005AE004992B
:100C5000012081F85800FFE7FFE70498FFF72EFE18
:100C60008DF80B009DF80B00D8BBFFE70498C06D12
:100C700040F0020020F488500499C8650498006888
:100C8000039903F0E7F8FFE70498006802F0C0FF5B
:100C9000F0B1FFE701980130019001984DF6026133
:100CA000C0F20401884212D3FFE70498C06D40F0FF
:100CB000100020F002000499C865FFE704990020A5
:100CC00081F85800FFE701208DF817001AE0DBE7F4
:100CD0000498C06D40F0010020F002000499C8653E
:100CE00005E00499C86D40F01000C865FFE7FFE714
:100CF0000499002081F85800FFE79DF80B008DF85B
:100D00001700FFE79DF8170006B080BD80B5C0B0A2
:100D100020901F9100208DF87B001B901F98C068C9
:100D20000021C4F27F01884201D0FFE700E0FFE725
:100D3000FFE7209890F85800012804D1FFE702202F
:100D40008DF88700D2E32099012081F85800FFE751
:100D5000FFE72098006802F083FF002840F0B2838C
:100D6000FFE7209800681F990A68496802F08CFF25
:100D70002098006802F074FF1A902098006802F032
:100D80003FFF19901A98002840F0B881FFE71998A2
:100D9000002840F0B381FFE71F988068B0F1004F52
:100DA0000ED1FFE7209800681F990968002202F021
:100DB00097FF209800684FF0004103F03DF80CE0E9
:100DC000209800681F9A1168926802F089FF2098A5
:100DD0000068002103F030F8FFE71F984069209970
:100DE0000968C96801F01801890888401D901F989A
:100DF000006904281CD0FFE7209800681F990A6842
:100E000009691D9B02F0BEFF209800681F9A1169B6
:100E1000926902F0E9FF209800681F9A1169127F19
:100E2000013AB2FA82F25209520602F0C9FF64E1B5
:100E300020980068002102F0D3FE400348B9FFE784
:100E400020980068002102F0CBFEC0F38460189067
:100E500018E020980068002102F0C2FE90FAA0F08D
:100E60003E903E9820B9FFE720208DF8FF0005E076
:100E70003E98B0FA80F08DF8FF00FFE79DF8FF0084
:100E80001890FFE7189817901F980068400330B932
:100E9000FFE71F980068C0F38460169015E01F9864
:100EA000006890FAA0F03C903C9820B9FFE7202021
:100EB0008DF8F70005E03C98B0FA80F08DF8F70067
:100EC000FFE79DF8F7001690FFE7179816998842FC
:100ED00007D1FFE7209800680022114602F098FF32
:100EE000FFE720980068012102F07AFE400348B92C
:100EF000FFE720980068012102F072FEC0F38460D1
:100F0000159018E020980068012102F069FE90FA1F
:100F1000A0F03A903A9820B9FFE720208DF8EF0032
:100F200005E03A98B0FA80F08DF8EF00FFE79DF801
:100F3000EF001590FFE7159814901F980068400384
:100F400030B9FFE71F980068C0F38460139015E084
:100F50001F98006890FAA0F03890389820B9FFE701
:100F600020208DF8E70005E03898B0FA80F08DF881
:100F7000E700FFE79DF8E7001390FFE71498139947
:100F8000884207D1FFE7209800680121002202F083
:100F90003FFFFFE720980068022102F021FE400396
:100FA00048B9FFE720980068022102F019FEC0F35B
:100FB0008460129018E020980068022102F010FE70
:100FC00090FAA0F03690369820B9FFE720208DF8EF
:100FD000DF0005E03698B0FA80F08DF8DF00FFE71B
:100FE0009DF8DF001290FFE7129811901F9800689B
:100FF000400330B9FFE71F980068C0F38460109089
:1010000015E01F98006890FAA0F03490349820B949
:10101000FFE720208DF8D70005E03498B0FA80F083
:101020008DF8D700FFE79DF8D7001090FFE71198E3
:101030001099884207D1FFE720980068022100221A
:1010400002F0E6FEFFE720980068032102F0C8FDE9
:10105000400348B9FFE720980068032102F0C0FD73
:10106000C0F384600F9018E020980068032102F01C
:10107000B7FD90FAA0F03290329820B9FFE7202017
:101080008DF8CF0005E03298B0FA80F08DF8CF00EF
:10109000FFE79DF8CF000F90FFE70F980E901F9885
:1010A0000068400330B9FFE71F980068C0F3846010
:1010B0000D9015E01F98006890FAA0F030903098DD
:1010C00020B9FFE720208DF8C70005E03098B0FA7E
:1010D00080F08DF8C700FFE79DF8C7000D90FFE78F
:1010E0000E980D99884207D1FFE7209800680321E8
:1010F000002202F08DFEFFE7FFE7FFE7209800687F
:1011000002F09EFD002840F04481FFE7209800682F
:101110001F9A1168D26802F0FFFD1F98C068002175
:10112000C4F27F01884240F03381FFE720980068D5
:101130000C901F980068400330B9FFE71F980068C3
:10114000C0F384600B9015E01F98006890FAA0F03F
:101150002E902E9820B9FFE720208DF8BF0005E0E3
:101160002E98B0FA80F08DF8BF00FFE79DF8BF0021
:101170000B90FFE70B98013000F01F0009287DD885
:10118000FFE71F980068400330B9FFE71F98006829
:10119000C0F384600A9015E01F98006890FAA0F0F0
:1011A0002C902C9820B9FFE720208DF8B70005E09F
:1011B0002C98B0FA80F08DF8B700FFE79DF8B700E3
:1011C0000A90FFE70A98013000F01F00800609909E
:1011D0001F980068400330B9FFE71F980068C0F30C
:1011E0008460089015E01F98006890FAA0F02A909B
:1011F0002A9820B9FFE720208DF8AF0005E02A9853
:10120000B0FA80F08DF8AF00FFE79DF8AF000890CE
:10121000FFE709980899013101F01F02012191406F
:10122000084307901F980068400330B9FFE71F98F4
:101230000068C0F38460069015E01F98006890FA7B
:10124000A0F02890289820B9FFE720208DF8A7006B
:1012500005E02898B0FA80F08DF8A700FFE79DF828
:10126000A7000690FFE707980699013101F01F01DA
:1012700001EB410140EA0150059082E01F980068AF
:10128000400330B9FFE71F980068C0F38460049002
:1012900015E01F98006890FAA0F02690269820B9D3
:1012A000FFE720208DF89F0005E02698B0FA80F037
:1012B0008DF89F00FFE79DF89F000490FFE70498DA
:1012C000013000F01F00800603901F980068400363
:1012D00030B9FFE71F980068C0F38460029015E002
:1012E0001F98006890FAA0F02490249820B9FFE796
:1012F00020208DF8970005E02498B0FA80F08DF852
:101300009700FFE79DF897000290FFE70398029986
:10131000013101F01F0201219140084301901F9803
:101320000068400330B9FFE71F980068C0F384608D
:10133000009015E01F98006890FAA0F02290229883
:1013400020B9FFE720208DF88F0005E02298B0FA41
:1013500080F08DF88F00FFE79DF88F000090FFE789
:1013600001990098013000F01F0000EB40020020BE
:10137000CFF6206000EB0250084340F0007005906B
:10138000FFE70C9805991F9A926802F0A9FCFFE705
:10139000FFE71F98408848F20801084200F091805A
:1013A000FFE740F20030C5F2000002F009FC1C909B
:1013B0001F9800680021CCF22131884208D0FFE755
:1013C0001F9800681021C9F2C001884232D1FFE79E
:1013D0009DF87200000600282CD4FFE720980068D2
:1013E000B0F1A04F25D1FFE71C9840F4000140F276
:1013F0000030C5F2000002F0B7FC40F20400C2F277
:1014000000000068800942F66351C0F23E51A0FB23
:101410000110800900EB40010C2000EB81001B90C3
:10142000FFE71B9820B1FFE71B9801381B90F8E7F6
:10143000FFE745E01F9800680021CCF25271884216
:1014400019D1FFE79DF87300C007A0B9FFE7209806
:10145000006840F20011C5F2000188420AD0FFE79F
:101460001C9840F0807140F20030C5F2000002F09C
:101470007BFCFFE723E01F9800680021CCF6843155
:1014800088421AD1FFE79DF872004006002814D464
:10149000FFE72098006840F20011C5F20001884281
:1014A0000AD0FFE71C9840F4800140F20030C5F2FA
:1014B000000002F059FCFFE700E0FFE7FFE7FFE76D
:1014C000FFE708E02099C86D40F02000C8650120C2
:1014D0008DF87B00FFE7FFE72099002081F8580096
:1014E000FFE79DF87B008DF88700FFE79DF88700F8
:1014F00040B080BD81B0009001B0704781B00090D5
:1015000001B0704781B0009001B0704780B588B0DD
:10151000069000208DF817000190069820B9FFE78B
:1015200001208DF81F0079E10698406940B1FFE77E
:10153000069890F82400012801D1FFE7FFE7FFE7B4
:101540000698C06D50B9FFE7069800F06BF9069950
:1015500000200866069981F85800FFE706980068A1
:1015600002F05EFB28B1FFE70698006802F0FEFA81
:10157000FFE70698006802F06BFBF0B9FFE70698FA
:10158000006802F00DFB40F20400C2F200000068A7
:10159000800942F66351C0F23E51A0FB011081095F
:1015A000022000EB41000190FFE7019820B1FFE726
:1015B000019801380190F8E7FFE70698006802F00B
:1015C00047FB70B9FFE70699C86D40F01000C86589
:1015D0000699086E40F00100086601208DF817009A
:1015E000FFE70698006802F03BFB03900698C06D89
:1015F000C006002800F10481FFE70398002840F0AE
:10160000FF80FFE70698C06D40F0020020F4807074
:101610000699C8650698006802F012FBD0B9FFE78A
:101620004FF0A04002F00CFB009040F20010C5F219
:10163000000002F005FB01460098084348B9FFE7A7
:101640000698416840F20030C5F2000002F07EFBCF
:10165000FFE7FFE706994A7FC86B40EA42308A6895
:10166000CB681843104391F8241040EA01400490DD
:10167000069890F8240001280BD1FFE70698816AAC
:101680000020CFF6FE7000EB41410498084304901F
:10169000FFE70698C06A50B1FFE70699C86A096B70
:1016A00000F478700143049808430490FFE706981B
:1016B0000068C06844F20701CFF6F0710840049951
:1016C000084306990968C86006980068006920F018
:1016D0004060069A1168526B1043086106980068D2
:1016E00002F08EFA02900398002868D1FFE7029872
:1016F000002864D1FFE70699087F91F8381080032D
:1017000040EA4100049006980068C06844F2020173
:1017100088430499084306990968C86006980069D7
:10172000A0B1FFE706980168086940F480300861BD
:1017300006980068D0F8C00043F6FF718843069A07
:10174000116812691043C1F8C00011E006980168E1
:10175000086920F48030086106980068D0F8C0005D
:1017600043F6FF71884306990968C1F8C000FFE796
:10177000069890F84000012819D1FFE70698006804
:10178000006940F2FD7120EA0102069B1968586C5D
:10179000D3F848E0D3F84CC040EA0E0040EA0C0011
:1017A0001B6D1843104340F00100086106E00698E5
:1017B0000168086920F001000861FFE7FFE706986B
:1017C000406901280CD1FFE706980068006B20F003
:1017D0000F00069A1168126A013A1043086306E086
:1017E00006980168086B20F00F000863FFE7069871
:1017F000C06D40F0010020F002000699C86508E0C5
:101800000699C86D40F01000C86501208DF81700DA
:10181000FFE79DF817008DF81F00FFE79DF81F00F8
:1018200008B080BD80B58AB009900020089007906C
:101830000690059004900998006840F20011C5F2E6
:10184000000188425AD1FFE7FFE741F24C00C4F2A1
:101850000200016841F400510160006800F400508A
:1018600003900398FFE7FFE741F24C00C4F2020047
:10187000016841F002010160006800F0020002907E
:101880000298FFE74FF400400490032005900020E9
:101890000090069040F20040C4F6000004A900F059
:1018A000F5FA009940F23810C2F2000001900822C7
:1018B000C4F202020260242242608160C160802181
:1018C00001614FF4007141614FF400618161202199
:1018D000C1614FF48051016200F08CF918B1FFE74B
:1018E000FFF79CF9FFE7FFE7099840F23811C2F2D1
:1018F0000001416509988862FFE7FFE70AB080BDF3
:1019000080B588B006900591049240F20030C5F28F
:10191000000002F05DF902900698006802F0A0F95C
:10192000002840F0AE80FFE7FFE7069890F85800E7
:10193000012804D1FFE702208DF81F00AAE00699D4
:10194000012081F85800FFE7FFE7029848B1FFE760
:101950000298052805D0FFE70298092840F0868004
:10196000FFE70698FFF70CF88DF80F009DF80F00C1
:10197000002873D1FFE70698C06D40F4807040F6F0
:10198000016188430699C8650698006840F2001115
:10199000C5F20001884204D1FFE74FF0A04001905A
:1019A00003E0069800680190FFE70198069909682E
:1019B000884203D0FFE7029830B9FFE70699C86D67
:1019C00020F48010C865FFE70698C06DC0040028A9
:1019D00006D5FFE70699086E20F00600086603E0CA
:1019E000069900200866FFE70698416D40F2A57051
:1019F000C0F60000C8620698416D40F6A500C0F62A
:101A0000000008630698416D40F67900C0F60000BA
:101A10004863069801681C200860FFE706990020CB
:101A200081F85800FFE706980168486840F0100008
:101A3000486006980168C86840F00100C8600698D0
:101A40000168406D4031059A049B00F07FF98DF8E4
:101A50000F000698006802F035F906E0FFE70699E6
:101A6000002081F85800FFE7FFE709E001208DF82A
:101A70000F00FFE70699002081F85800FFE7FFE715
:101A800003E002208DF80F00FFE79DF80F008DF8AE
:101A90001F00FFE79DF81F0008B080BD80B584B02F
:101AA00003900398006C0068029003980068006837
:101AB000019002980399496C01F01F01C84040074A
:101AC000002825D5FFE79DF80400400700281FD512
:101AD000FFE70398006800688006002807D4FFE746
:101AE00003980168086820F004000860FFE7039885
:101AF000016C406C00F01F02042090404860039885
:101B0000006B20B1FFE70398016B8847FFE76EE0A9
:101B100002980399496C01F01F01C8408007002812
:101B20002FD5FFE79DF804008007002829D5FFE79F
:101B3000039800680068800600280BD4FFE703982C
:101B40000168086820F00A0008600399012081F804
:101B50002500FFE70398016C406C00F01F02022093
:101B600090404860FFE70399002081F82400FFE7D8
:101B70000398C06A20B1FFE70398C16A8847FFE76E
:101B800034E002980399496C01F01F01C840000736
:101B9000002829D5FFE79DF804000007002823D579
:101BA000FFE703980168086820F00E0008600398BA
:101BB000026C406C00F01F01012000FA01F151603D
:101BC0000399C863039981F82500FFE70399002072
:101BD00081F82400FFE70398406B20B1FFE70398EA
:101BE000416B8847FFE700E0FFE7FFE7FFE704B04E
:101BF00080BD000080B584B00290029820B9FFE754
:101C000001208DF80F009CE00298006840F2074127
:101C1000C4F20201884218D8FFE7029908684FF61B
:101C2000F872CBF6FD7210444CF6CD42CCF6CC42A5
:101C3000A0FB02026FF0030000EA920048640299E0
:101C40000020C4F20200086418E0029908684FF608
:101C5000F832CBF6FD7210444CF6CD42CCF6CC42B5
:101C6000A0FB02026FF0030000EA920048640299B0
:101C700040F20040C4F202000864FFE7029902202B
:101C800081F825000298006800680190019847F6E5
:101C9000F0718843019002998868D1F80CC00B69F3
:101CA0004A6940EA0C00184310438A691043CA6924
:101CB0001043096A01430198084301900198029971
:101CC000096808600298FEF7EDFE02988068B0F59A
:101CD000804F04D1FFE7029900204860FFE7029996
:101CE0000879896C08600298C16C006D48600298A0
:101CF000406888B1FFE70298406804280CD8FFE7E5
:101D00000298FEF709FF0298416D002008600298D2
:101D1000816DC06D486007E0029900204865029916
:101D200088650299C865FFE702990020C863029A96
:101D3000012182F82510029981F824008DF80F0006
:101D4000FFE79DF80F0004B080BD000080B586B0AD
:101D5000049003910292019300208DF80300FFE7A5
:101D6000049890F82400012804D1FFE702208DF8A0
:101D7000170065E00499012081F82400FFE7FFE7E0
:101D8000049890F8250001284BD1FFE70499022020
:101D900081F8250004990020C86304980168086848
:101DA00020F00100086004980399029A019BFEF755
:101DB000D1FE0498006B38B1FFE704980168086809
:101DC00040F00E0008600CE004980168086820F0FC
:101DD0000400086004980168086840F00A00086080
:101DE000FFE70498806C0068C003002807D5FFE770
:101DF0000498816C086840F480700860FFE70498DC
:101E0000406D38B1FFE70498416D086840F4807078
:101E10000860FFE704980168086840F00100086066
:101E200009E0FFE70499002081F82400FFE7022081
:101E30008DF80300FFE79DF803008DF81700FFE71A
:101E40009DF8170006B080BD80B584B0039000F007
:101E5000FFF90290039801900198013048B1FFE723
:101E600040F24000C2F2000001680198084401906D
:101E7000FFE7FFE700F0ECF90299401A0199884268
:101E800001D2FFE7F6E704B080BD00008BB00A90F6
:101E9000099100200890FFE7099800680899C84058
:101EA000002800F0A581FFE709980068089A012141
:101EB0009140084007900798002800F09581FFE7BF
:101EC0000998406800F00300012807D0FFE709984F
:101ED000406800F0030002282FD1FFE70A988068CD
:101EE000069008984100032000FA01F10698884303
:101EF00006900998C0680899490000FA01F106980F
:101F00000843069006980A9988600A9840680690E7
:101F10000899012000FA01F1069888430690099873
:101F20004068C0F30010089900FA01F106980843D0
:101F3000069006980A994860FFE70998406800F003
:101F40000300032818D0FFE70A98C0680690089895
:101F50004100032000FA01F1069888430690099891
:101F600080680899490000FA01F106980843069034
:101F700006980A99C860FFE70998406800F00300D6
:101F8000022826D1FFE70A9808996FF0030202EAB7
:101F900051010844006A0690089800F0070081008B
:101FA0000F2000FA01F1069888430690099800690D
:101FB000089901F00701890000FA01F10698084329
:101FC000069006980A99089B02EA53021144086297
:101FD000FFE70A980068069008984100032000FA7D
:101FE00001F10698884306900998406800F00300C4
:101FF0000899490000FA01F10698084306900698EE
:102000000A990860099880798007002800F0EB8021
:10201000FFE7FFE741F26000C4F20200016841F00F
:1020200001010160006800F0010005900598FFE7DC
:10203000089820F003000821C4F2010140580690DE
:10204000089800F0030081000F2000FA01F10698C3
:10205000884306900A98B0F1904F03D1FFE7002023
:10206000049042E00A9840F20041C4F60001884220
:1020700003D1FFE70120039034E00A9840F6000105
:10208000C4F60001884203D1FFE70220029026E057
:102090000A9840F60041C4F60001884203D1FFE7E8
:1020A0000320019018E00A9841F20001C4F60001F3
:1020B000884203D1FFE7042000900AE00A9941F228
:1020C0000042C4F600020620914208BF052000909D
:1020D000FFE700980190FFE701980290FFE7029860
:1020E0000390FFE703980490FFE70498089901F034
:1020F0000301890000FA01F106980843069006984A
:10210000089921F003010822C4F20102885040F22C
:102110000840C4F2010000680690079906988843B9
:10212000069009988079C006002805D5FFE7079931
:10213000069808430690FFE7069840F20841C4F26B
:102140000101086040F20C40C4F2010000680690F2
:102150000799069888430690099880798006002898
:1021600005D5FFE70799069808430690FFE706980C
:1021700040F20C41C4F20101086040F20440C4F294
:102180000100006806900799069888430690099810
:1021900080798007002805D5FFE70799069808434E
:1021A0000690FFE7069840F20441C4F2010108607E
:1021B00040F20040C4F201000068069007990698BA
:1021C0008843069009988079C00728B1FFE70799EE
:1021D000069808430690FFE7069840F20041C4F2D3
:1021E00001010860FFE7FFE708980130089053E617
:1021F0000BB0704782B00190ADF8021001980069F1
:10220000BDF80210084204D0FFE701208DF801005C
:1022100003E000208DF80100FFE79DF8010002B007
:102220007047000082B00190ADF802108DF80120D7
:102230009DF8010028B1FFE7BDF80200019988610F
:1022400004E0BDF8020001998862FFE702B0704720
:1022500040F2B010C2F200000068704740F2400047
:10226000C2F20000026840F2B011C2F20001086838
:10227000104408607047000080B582B000200090D4
:102280008DF80700032000F09BF8009800F00EF88E
:1022900020B1FFE701208DF8070002E000F04AF8C6
:1022A000FFE79DF8070002B080BD000080B582B056
:1022B000019000208DF8030040F24000C2F20000BF
:1022C000006878B3FFE740F20400C2F20000006843
:1022D00040F24001C2F200010A684FF47A71B1FB8A
:1022E000F2F1B0FBF1F001F073F9B0B9FFE701983A
:1022F0000F280DD8FFE701994FF0FF30002200F0C2
:1023000047F8019840F24401C2F20001086003E07E
:1023100001208DF80300FFE703E001208DF80300A2
:10232000FFE703E001208DF80300FFE79DF80300BD
:1023300002B080BD80B582B0FFE741F26000C4F218
:102340000200016841F001010160006800F0010035
:1023500001900198FFE7FFE741F25800C4F2020044
:10236000016841F080510160006800F080500090E9
:102370000098FFE700F006F902B080BD80B582B09A
:102380008DF807009DF9070002F042F902B080BD08
:1023900080B586B08DF817000491039202F050F9D1
:1023A00002909DF91700019002980499039A01F098
:1023B00081FE0146019802F04BF906B080BD000095
:1023C00080B582B00190019802F064F902B080BD3E
:1023D00085B00390039800285ED1FFE747F2000024
:1023E000C4F20000006800F4C060B0F5806F49D10D
:1023F000FFE747F28001C4F20001086820F4807012
:10240000086047F20002C4F200021168012060F384
:102410004A21116040F20401C2F20001096832222F
:1024200051434DF68362C4F21B32A1FB022100EB43
:1024300091400290FFE747F21400C4F200000168E7
:10244000002049050029019006D5FFE702980028E1
:1024500018BF01200190FFE70198C00720B1FFE7F6
:10246000029801380290E6E747F21400C4F2000037
:1024700000684005002804D5FFE703208DF813000D
:102480007CE008E047F28001C4F20001086820F413
:1024900080700860FFE76DE00398B0F5007F5ED1C3
:1024A000FFE747F20000C4F20000006800F4C060DB
:1024B000B0F5806F49D1FFE747F28001C4F2000117
:1024C000086840F48070086047F20002C4F200021D
:1024D0001168012060F34A21116040F20401C2F248
:1024E00000010968322251434DF68362C4F21B3267
:1024F000A1FB022100EB91400290FFE747F214009C
:10250000C4F200000168002049050029009006D5AA
:10251000FFE70298002818BF01200090FFE700980D
:10252000C00720B1FFE7029801380290E6E747F2C2
:102530001400C4F2000000684005002804D5FFE73D
:1025400003208DF8130019E008E047F28001C4F27F
:102550000001086840F480700860FFE709E047F276
:102560000001C4F200010868022262F34A200860F8
:10257000FFE7FFE700208DF81300FFE79DF8130049
:1025800005B0704747F20801C4F20001086840F442
:10259000804008607047000080B586B0059000203C
:1025A0008DF80B008DF80A00059880780007002848
:1025B00040F1B580FFE700208DF8090041F2580096
:1025C000C4F202000068C000002813D4FFE7FFE750
:1025D00041F25800C4F20200016841F080510160EC
:1025E000006800F0805001900198FFE701208DF80D
:1025F0000900FFE747F20001C4F20001086840F457
:1026000080700860FFF724FE0390FFE747F20000A8
:10261000C4F200000068C00500280CD4FFE7FFF7F3
:1026200017FE0399401A032804D3FFE703208DF80F
:102630000B0000E0EAE79DF80B0000285BD1FFE704
:1026400041F29000C4F20200006800F4407004906F
:102650000498C8B1FFE704980599096C884213D023
:10266000FFE741F29001C4F20201086820F44070D3
:102670000490086840F480300860086820F48030D6
:10268000086004980860FFE79DF81000C007E0B1FB
:10269000FFE7FFF7DDFD0390FFE741F29000C4F292
:1026A00002000068800700280ED4FFE7FFF7D0FD86
:1026B0000399401A41F28931884204D3FFE703208D
:1026C0008DF80B0000E0E8E7FFE79DF80B0060B92C
:1026D000FFE741F29001C4F20201086820F4407063
:1026E000059A126C1043086004E09DF80B008DF809
:1026F0000A00FFE704E09DF80B008DF80A00FFE7F1
:102700009DF80900012809D1FFE741F25801C4F200
:102710000201086820F080500860FFE7FFE7059895
:102720000078C00760B1FFE741F28801C4F20201FE
:10273000086820F00300059A526810430860FFE71C
:1027400005980078800700280CD5FFE741F2880142
:10275000C4F20201086820F00C00059A9268104348
:102760000860FFE705980078400700280CD5FFE7D0
:1027700041F28801C4F20201086820F03000059A95
:10278000D26810430860FFE705980078000700282A
:102790000CD5FFE741F28801C4F20201086820F07D
:1027A000C000059A126910430860FFE70598007899
:1027B000800600280CD5FFE741F28801C4F202012F
:1027C000086820F44060059A526910430860FFE7EA
:1027D00005980078400600280CD5FFE741F28801F3
:1027E000C4F20201086820F44050059A926910432F
:1027F0000860FFE705980078000600280CD5FFE781
:1028000041F28801C4F20201086820F44040059AB0
:10281000D26910430860FFE705984078C00760B1AF
:10282000FFE741F28801C4F20201086820F4403059
:10283000059A126A10430860FFE705984078800700
:1028400000280CD5FFE741F28801C4F202010868B4
:1028500020F44020059A526A10430860FFE705986B
:102860004078400700281BD5FFE741F28801C4F2F9
:102870000201086820F44010059A926A104308602B
:102880000598806AB0F5801F09D1FFE741F20C017D
:10289000C4F20201086840F480100860FFE7FFE717
:1028A00005984078000700281BD5FFE741F2880112
:1028B000C4F20201086820F44000059AD26A10436D
:1028C00008600598C06AB0F5800F09D1FFE741F2B2
:1028D0000C01C4F20201086840F480100860FFE7B0
:1028E000FFE705984078C00600281BD5FFE741F2B6
:1028F0008801C4F20201086820F04070059A126B4A
:10290000104308600598006BB0F1807F09D1FFE7A4
:1029100041F20C01C4F20201086840F48010086022
:10292000FFE7FFE705984078800600281BD5FFE702
:1029300041F28801C4F20201086820F04060059A63
:10294000526B104308600598406BB0F1006F09D1DD
:10295000FFE741F20C01C4F20201086840F4801064
:102960000860FFE7FFE705984078400600281BD580
:10297000FFE741F28801C4F20201086820F04060DC
:10298000059A926B104308600598806BB0F1006F58
:1029900009D1FFE741F20C01C4F20201086840F4DA
:1029A00080100860FFE7FFE70598407800060028E0
:1029B0001BD5FFE741F28801C4F20201086820F04C
:1029C0004050059AD26B104308600598C06BB0F177
:1029D000805F09D1FFE741F20C01C4F202010868EF
:1029E00040F480300860FFE7FFE79DF80A0006B07A
:1029F00080BD000080B586B0049003910020009057
:102A0000049820B9FFE701208DF8170081E10398B1
:102A100042F20001C4F20201096801F00F0188428C
:102A200016D9FFE742F20000C4F20200016821F06B
:102A30000F01039A11430160006800F00F00039931
:102A4000884204D0FFE701208DF8170061E1FFE71D
:102A500004980078C007002800F0A380FFE70498DE
:102A60004068032839D1FFE741F20000C4F20200B8
:102A700000688001002804D4FFE701208DF81700CA
:102A800047E101F04FFB019001984BF20141C0F288
:102A9000C441884220D3FFE741F20800C4F202009B
:102AA000006810F0F00F0AD0FFE704980078800764
:102AB000002810D5FFE70498806860B9FFE741F26D
:102AC0000801C4F202010868082262F307100860D6
:102AD00080200090FFE7FFE738E004984068022874
:102AE0000ED1FFE741F20000C4F20200006880034B
:102AF000002804D4FFE701208DF8170009E10DE05C
:102B000041F20000C4F2020000684005002804D42D
:102B1000FFE701208DF81700FBE0FFE700F0FEF86B
:102B2000019001984BF20141C0F2C44188420CD39C
:102B3000FFE741F20801C4F202010868082262F3CB
:102B40000710086080200090FFE7FFE741F20801CE
:102B5000C4F20201086820F00300049A526810438E
:102B60000860FFF775FB0290FFE741F20800C4F22E
:102B70000200006800F00C0004994968B0EB810F76
:102B80000ED0FFE7FFF764FB0299401A41F289314A
:102B9000884204D3FFE703208DF81700B9E0E4E78B
:102BA000FFE704980078800700282CD5FFE70498F9
:102BB00000784007002809D5FFE741F20801C4F278
:102BC0000201086840F4E0600860FFE704980078BC
:102BD000000700280BD5FFE741F20801C4F202010B
:102BE000086840F4E06020F460500860FFE741F2BC
:102BF0000801C4F20201086820F0F000049A92680B
:102C0000104308600DE00098802809D1FFE741F2E9
:102C10000801C4F20201086820F0F0000860FFE734
:102C2000FFE7039842F20001C4F20201096801F0D3
:102C30000F01884228D2FFE742F20001C4F20201EC
:102C4000086820F00F00039A10430860FFF700FBAC
:102C50000290FFE742F20000C4F20200006800F0B8
:102C60000F00039988420ED0FFE7FFF7F1FA0299AF
:102C7000401A41F28931884204D3FFE703208DF8DE
:102C8000170046E0E6E7FFE70498007840070028D1
:102C90000CD5FFE741F20801C4F20201086820F4F4
:102CA000E060049AD26810430860FFE70498007857
:102CB000000700280DD5FFE741F20801C4F2020128
:102CC000086820F46050049A126940EAC200086063
:102CD000FFE700F023F841F20801C4F2020109689D
:102CE000C9B20A0945F22C61C0F60001895C01F005
:102CF0001F01C84040F20401C2F20001086040F226
:102D00004400C2F200000068FFF7D0FA8DF8170007
:102D1000FFE79DF8170006B080BD000086B041F2C5
:102D20000800C4F20200006800F00C00042806D17C
:102D3000FFE742F20040C0F2F400019069E041F286
:102D40000800C4F20200006800F00C00082806D158
:102D5000FFE743F20060C0F26E10019058E041F2CC
:102D60000800C4F20200006800F00C000C284BD1EF
:102D7000FFE741F20C00C4F20200016801F0030118
:102D800004910068C1B2012000EB11100290049878
:102D90000090022815D0FFE70098032812D1FFE722
:102DA000029943F20060C0F26E10B0FBF1F041F204
:102DB0000C01C4F202010968C1F3062148430590E1
:102DC00011E0FFE7029942F20040C0F2F400B0FBCC
:102DD000F1F041F20C01C4F202010968C1F30621CD
:102DE00048430590FFE741F20C00C4F2020000687E
:102DF00000F0C061022000EB116003900598039978
:102E0000B0FBF1F0019002E000200190FFE7FFE746
:102E1000FFE7019806B07047B0B588B006900698F5
:102E200020B9FFE701208DF81F00CCE30698007859
:102E3000C007002800F09B80FFE741F20800C4F2C1
:102E40000200006800F00C00049041F20C00C4F293
:102E50000200006800F00300039004980C2804D1DD
:102E6000FFE70398032804D0FFE70498082812D14D
:102E7000FFE741F20000C4F202000068800300286E
:102E800008D5FFE70698406820B9FFE701208DF8D4
:102E90001F0098E36AE0FFE706984068B0F5803FBE
:102EA00009D1FFE741F20001C4F20201086840F4D1
:102EB0008030086020E006984068B0F5A02F0DD162
:102EC000FFE741F20001C4F20201086840F48020EB
:102ED0000860086840F4803008600CE041F20001AE
:102EE000C4F20201086820F480300860086820F409
:102EF00080200860FFE7FFE7FFE706984068D0B151
:102F0000FFE7FFF7A5F90590FFE741F20000C4F2E3
:102F100002000068800300280CD4FFE7FFF798F94F
:102F20000599401A652804D3FFE703208DF81F0098
:102F300049E3EAE719E0FFF78BF90590FFE741F273
:102F40000000C4F202000068800300280CD5FFE7EF
:102F5000FFF77EF90599401A652804D3FFE703209F
:102F60008DF81F002FE3EAE7FFE7FFE7FFE706988A
:102F700000788007002840F19F80FFE741F20800B9
:102F8000C4F20200006800F00C00049041F20C0052
:102F9000C4F20200006800F00300039004980C28BB
:102FA00004D1FFE70398022804D0FFE7049804281F
:102FB0002CD1FFE741F20000C4F202000068400596
:102FC000002808D5FFE70698C06820B9FFE7012070
:102FD0008DF81F00F7E241F20401C4F20201086813
:102FE00020F0FE40069A126940EA0260086040F252
:102FF0004400C2F200000068FFF758F920B1FFE773
:1030000001208DF81F00DEE2FFE754E00698C0685B
:1030100070B3FFE741F20001C4F20201086840F416
:1030200080700860FFF714F90590FFE741F2000097
:10303000C4F202000068400500280CD4FFE7FFF747
:1030400007F90599401A032804D3FFE703208DF8F8
:103050001F00B8E2EAE741F20401C4F20201086885
:1030600020F0FE40069A126940EA0260086021E002
:1030700041F20001C4F20201086820F48070086087
:10308000FFF7E6F80590FFE741F20000C4F2020006
:103090000068400500280CD5FFE7FFF7D9F805992F
:1030A000401A032804D3FFE703208DF81F008AE2AB
:1030B000EAE7FFE7FFE7FFE7069800780007002848
:1030C00049D5FFE70698406910B3FFE741F2940144
:1030D000C4F20201086840F001000860FFF7B8F888
:1030E0000590FFE741F29400C4F2020000688007F7
:1030F00000280CD4FFE7FFF7ABF80599401A032826
:1031000004D3FFE703208DF81F005CE2EAE721E02B
:1031100041F29401C4F20201086820F00100086045
:10312000FFF796F80590FFE741F29400C4F2020021
:103130000068800700280CD5FFE7FFF789F805999C
:10314000401A032804D3FFE703208DF81F003AE25A
:10315000EAE7FFE7FFE7069800784007002840F11C
:10316000C680FFE700208DF80B0041F25800C4F242
:1031700002000068C000002813D4FFE7FFE741F217
:103180005800C4F20200016841F0805101600068FB
:1031900000F0805001900198FFE701208DF80B00AE
:1031A000FFE747F20000C4F200000068C0050028F5
:1031B00022D4FFE747F20001C4F20001086840F49E
:1031C00080700860FFF744F80590FFE747F20000C1
:1031D000C4F200000068C00500280CD4FFE7FFF728
:1031E00037F80599401A032804D3FFE703208DF828
:1031F0001F00E8E1EAE7FFE7FFE70698806801289B
:1032000009D1FFE741F29001C4F20201086840F0E1
:10321000010008601FE00698806805280DD1FFE7CF
:1032200041F29001C4F20201086840F00400086015
:10323000086840F0010008600CE041F29001C4F21F
:103240000201086820F001000860086820F004000E
:103250000860FFE7FFE7FFE706988068E0B1FFE757
:10326000FEF7F6FF0590FFE741F29000C4F202007E
:103270000068800700280ED4FFE7FEF7E9FF0599F4
:10328000401A41F28931884204D3FFE703208DF8C8
:103290001F0098E1E8E71BE0FEF7DAFF0590FFE783
:1032A00041F29000C4F202000068800700280ED5A9
:1032B000FFE7FEF7CDFF0599401A41F289318842B8
:1032C00004D3FFE703208DF81F007CE1E8E7FFE768
:1032D0009DF80B00012809D1FFE741F25801C4F223
:1032E0000201086820F080500860FFE7FFE70698B9
:1032F00000788006002849D5FFE70698806910B35A
:10330000FFE741F29801C4F20201086840F00100B1
:103310000860FEF79DFF0590FFE741F29800C4F2B8
:1033200002000068800700280CD4FFE7FEF790FF3A
:103330000599401A032804D3FFE703208DF81F00E6
:1033400041E1EAE721E041F29801C4F20201086894
:1033500020F001000860FEF77BFF0590FFE741F2D7
:103360009800C4F202000068800700280CD5FFE72F
:10337000FEF76EFF0599401A032804D3FFE70320E8
:103380008DF81F001FE1EAE7FFE7FFE70698C06935
:10339000002800F01481FFE741F20800C4F20200A7
:1033A000006800F00C000C2800F0B080FFE70698E1
:1033B000C06902287CD1FFE741F20001C4F202019A
:1033C000086820F080700860FEF742FF0590FFE774
:1033D00041F20000C4F202000068800100280CD510
:1033E000FFE7FEF735FF0599401A032804D3FFE7EE
:1033F00003208DF81F00E6E0EAE741F20C01C4F279
:103400000201086848F20C02C0F29F121040DDF879
:1034100018C0DCF82020DCF82450DCF828E0DCF8C8
:103420002C306FF00F0404EB0514224342EA0E2205
:10343000DCF8304040F2000ECFF6E07E0EEA045E8B
:10344000AEF5001E42EA0E02DCF834E04FF07E4C8E
:103450000CEA0E6C0CF17E4C42EA0C0242EAC362AA
:103460001043086041F20002C4F20202106840F00A
:1034700080701060086840F080700860FEF7E8FE19
:103480000590FFE741F20000C4F2020000688001ED
:1034900000280CD4FFE7FEF7DBFE0599401A03284D
:1034A00004D3FFE703208DF81F008CE0EAE72CE04F
:1034B00041F20001C4F20201086820F08070086047
:1034C000FEF7C6FE0590FFE741F20000C4F20200DD
:1034D0000068800100280CD5FFE7FEF7B9FE0599CA
:1034E000401A032804D3FFE703208DF81F006AE089
:1034F000EAE741F20C01C4F2020108684FF6FC72DF
:10350000CFF6EE6210400860FFE757E00698C0690A
:10351000012804D1FFE701208DF81F0053E041F29C
:103520000C00C4F2020000680390039800F003004E
:103530000699096A88423BD1FFE7039800F0F00042
:1035400006994A6A6FF00F0101EB021188422FD1F0
:10355000FFE7039800F4FE400699896AB0EB012F5B
:1035600026D1FFE7039800F078400699C96AB0EBCE
:10357000C16F1DD1FFE7039800F4C00006990A6BE4
:103580000021CFF6E07101EA0251A1F50011884255
:103590000ED1FFE7039800F0C06006994A6B4FF028
:1035A0007E4101EA026101F17E41884204D0FFE7D9
:1035B00001208DF81F0006E0FFE7FFE7FFE700208E
:1035C0008DF81F00FFE79DF81F0008B0B0BD000098
:1035D00080B582B00190019800F092FF02B080BDEA
:1035E000FFE7FEE780B586B00020059004900390C9
:1035F000029001904FF6FF71019102900321049116
:10360000039040F60000C4F6000001A9FEF73EFC5E
:1036100006B080BD80B586B0002005900490039070
:10362000029001904FF6FF71019101210291032157
:103630000491039040F60000C4F6000001A9FEF7D3
:1036400025FC06B080BD000080B584B0ADF80E004A
:10365000002101910291084600F0B0F900F002FA51
:1036600001980290FFE70298800A4A2809D8FFE7EC
:10367000BDF80E0000F0C0F9FFE70298013002909B
:10368000F1E704B080BD000080B58CB000200B9045
:103690000A90099008900790FFE741F24C00C4F2AD
:1036A0000200016841F004010160006800F00400BC
:1036B00006900698FFE7FFE741F24C00C4F20200D3
:1036C000016841F001010160006800F0010005900F
:1036D0000598FFE7FFE741F24C00C4F202000168E1
:1036E00041F002010160006800F0020004900498BB
:1036F000FFE74FF4487007900120009008900320E6
:1037000001900A9000200290099040F20040C4F617
:10371000000007A90391FEF7B9FB009B019A0298EC
:1037200003994FF4807CCDF81CC008930A9209904D
:103730004FF09040FEF7AAFBFFF76CFF1821C4F68C
:103740000001086840F48070086040F21841C4F637
:103750000001086840F4087008600CB080BD0000EB
:1037600080B582B08DF80700ADF804108DF8032005
:103770009DF8030020388DF803009DF80700BDF880
:1037800004109DF8032002EB420345F23C62C0F6B0
:10379000000202EB031200F037F802B080BD000017
:1037A00080B586B08DF8170004910020039040F298
:1037B0003F10ADF80A00FFE704980178002001905F
:1037C00039B1FFE703990020142938BF0120019087
:1037D000FFE70198C007A0B1FFE79DF81700BDF80B
:1037E0000A10049A1278FFF7BBFFBDF80A001038E0
:1037F000ADF80A000498013004900398013003905A
:10380000DAE706B080BD000080B586B08DF81700FD
:10381000ADF81410049200200090039002908DF8EF
:1038200007009DF817008DF807009DF80700BDF808
:10383000141000F0C3F800980390FFE703981728CE
:1038400037D8FFE700F00EF900200290FFE702985A
:103850000F281ED8FFE70498039930F81100029949
:10386000C840C00740B9FFE740F20000C2F20000C4
:10387000008800F0C1F807E040F24800C2F2000002
:10388000008800F0B9F8FFE7FFE7029801300290E6
:10389000DDE79DF8070001308DF807009DF807006F
:1038A000BDF8141000F08AF8FFE703980130039088
:1038B000C4E706B080BD000080B5FFF7E5FE00203C
:1038C00000F01CF8014640F2C800C2F2000001807E
:1038D000008848F23021884203D1FFE700F070FCF5
:1038E00002E000F0FDFCFFE7002000F007F840F2E6
:1038F000C801C2F20001088080BD000080B582B01E
:103900008DF8070040F22842C4F60002106840F427
:1039100000701060106840F48070106040F2184130
:10392000C4F600010091086840F0200008609DF88E
:10393000070040F61403C4F600031860106840F056
:103940002000106000BF00BF00BF086840F02000EA
:103950000860086840F480700860FFF743FE282183
:10396000C4F60001086840F48070086000BF00BF22
:1039700000BF40F61000C4F600000068ADF8040077
:103980001821C4F60001086840F480700860FFF751
:1039900041FE0099086840F400700860BDF804001A
:1039A00002B080BD81B0ADF80200BDF8020040F267
:1039B0000001C2F20001088001B0704780B582B0FA
:1039C0008DF80700ADF804109DF80710202000F0D6
:1039D0007BF8BDF80410212000F076F802B080BD1D
:1039E00081B0ADF80200BDF8020040F24801C2F219
:1039F0000001088001B0704781B0ADF8020040F2CC
:103A00002842C4F60002106840F40070106040F2D2
:103A10001841C4F60001086840F480700860086826
:103A200040F020000860BDF8020040F61403C4F620
:103A300000031860106840F02000106000BF00BF55
:103A400000BF086840F020000860086840F48070FB
:103A5000086000BF00BF00BF086840F40070086045
:103A600001B0704740F22842C4F60002106840F4EA
:103A700000701060106840F48070106040F21841CF
:103A8000C4F60001086840F02000086040F6140306
:103A9000C4F6000322201860106840F02000106077
:103AA00000BF00BF00BF086840F020000860086841
:103AB00040F48070086000BF00BF00BF086840F499
:103AC000007008607047000081B08DF80300ADF809
:103AD000001040F22842C4F60002106840F4007062
:103AE0001060106840F48070106040F21841C4F615
:103AF0000001086840F0200008609DF8030040F6CF
:103B00001403C4F600031860106840F02000106031
:103B100000BF00BF00BF086840F0200008600868D0
:103B200040F480700860BDF800001860106840F034
:103B30002000106000BF00BF00BF086840F02000F8
:103B40000860086840F48070086001B070470000A9
:103B500081B00090009880684FF6C071C7F6FF7181
:103B6000084002300099886001B0704781B0009031
:103B7000009988684FF6C072C5F6FF7210408860E1
:103B800001B0704781B00090009880684FF6C07116
:103B9000C7F6FF71084001300099886001B0704796
:103BA00081B000900098806840F080504FF6C0715E
:103BB000C7F6FF7108400099886001B070470000A7
:103BC00081B000900098806800F0E07001B070470C
:103BD00081B000900098806800F01F0001B070472D
:103BE00083B0029001910298019900EB810060304E
:103BF00000900098006800F0F84003B070470000A3
:103C000081B0009000988068C0F3C00001B0704798
:103C100081B0009000988068C00F01B0704700002C
:103C200081B0009000988068C0F3407001B0704788
:103C300081B0009000988068C0F3400001B07047E8
:103C400081B000900098806800F0010001B07047DA
:103C500081B0009000988068C0F3007001B0704798
:103C600081B0009000988068C0F3800001B0704778
:103C700081B000900098C06800F44060B0FA80F015
:103C8000400901B07047000084B003900291019296
:103C90000398029901F4407100EB911030300090CC
:103CA00000980068029901F01F021F21914088438B
:103CB0000199C1F38461914008430099086004B000
:103CC0007047000081B00090009880684FF6C07186
:103CD000C7F6FF71084004300099886001B0704752
:103CE00084B00390029101920398029901F000714F
:103CF00000EBD15014300090009800680299C1F395
:103D0000045207219140884301999140084300994A
:103D1000086004B07047000083B0029001910092E7
:103D20000298D0F8B00001996FF3DF418843009A00
:103D300002F018034FF6FF72C0F20702DA4011409A
:103D400008440299C1F8B00003B0704782B00190F6
:103D500000910198806820F47C1000990843019933
:103D6000886002B07047000082B001900091019815
:103D7000806820F0E070009908430199886002B0E3
:103D80007047000085B0049003910292019304985B
:103D9000039900EB810060300090009800684FF2BA
:103DA0000001C0F2FF310140029800F0F840019A92
:103DB0001043084340F000400099086005B0704788
:103DC00084B00390029101920398029900EB810064
:103DD000603000900098006820F00070019908435E
:103DE0000099086004B0704784B00390029101927A
:103DF0000398029900EB8100603000900098006801
:103E000020F08070019908430099086004B0704761
:103E100084B00390029101920398029900EB810013
:103E2000603000900098006820F00040019908433D
:103E30000099086004B0704782B001900091019829
:103E4000406920F00040009908430199486102B0A0
:103E50007047000082B001900091019880684FF691
:103E6000C071C3F6FF710140009800F08040084423
:103E700000F100400199886002B0704780B58AB0B7
:103E800000210091099108910791069105910491F3
:103E90000391029140F2CC00C2F20000019040F286
:103EA0000012C5F2000202604FF4403242608160AD
:103EB000C160016141610422826101770122427780
:103EC000026280F82410C162016380F83820C16367
:103ED00080F84010FDF71AFB18B1FFE7FCF79EFED3
:103EE000FFE748F20000C3F6F0600290062003905E
:103EF000002004907F21059104210691079040F253
:103F0000CC00C2F2000002A9FCF700FF18B1FFE7E5
:103F1000FCF784FEFFE70AB080BD000080B584B0E6
:103F2000FFE741F24800C4F20200016841F00401D9
:103F30000160006800F0040003900398FFE7FFE7CA
:103F400041F24800C4F20200016841F00101016041
:103F5000006800F0010002900298FFE70B2001903A
:103F600000221146FEF714FA0198FEF707FA04B092
:103F700080BD000080B592B00020119010900F908D
:103F80000E900D90FFE741F24C00C4F20200016870
:103F900041F004010160006800F004000C900C98EE
:103FA000FFE7FFE741F24C00C4F20200016841F074
:103FB00020010160006800F020000B900B98FFE7E3
:103FC000FFE741F24C00C4F20200016841F0010138
:103FD0000160006800F001000A900A98FFE7FFE71F
:103FE00041F24C00C4F20200016841F0020101609C
:103FF000006800F0020009900998FFE7FFE741F22E
:104000004C00C4F20200016841F008010160006840
:1040100000F0080008900898FFE740F60000C4F69A
:10402000000002904FF6FF71019100220592FEF709
:10403000F9F8059A40F60040C4F600000690042105
:104040000391FEF7EFF8019A029805990D9201226B
:1040500004920E920F9110910DA90791FDF716FF92
:10406000049A059807990D920E900F904FF090408A
:10407000FDF70CFF0598079907220D920E900F90FF
:1040800040F20040C4F60000FDF700FFDDF80CC070
:10409000049B059A06980799CDF834C00E930F92A9
:1040A0001092FDF7F3FE12B080BD0000FFE7FEE7BF
:1040B000FFE7FEE788B0079006910592079800F0A9
:1040C000070004900498C0F10700052803D3FFE718
:1040D0000420019004E00498C0F107000190FFE77C
:1040E0000198039004980430062803D8FFE70020C5
:1040F000009003E0049803380090FFE700980290D6
:1041000006980399012202FA01F101390840029B45
:10411000984005999A40013A1140084308B0704709
:104120007047000086B041F20C00C4F20200016842
:1041300001F0030104910068C1B2012000EB1110ED
:10414000029004980090022815D0FFE700980328F9
:1041500012D1FFE7029943F20060C0F26E10B0FB8B
:10416000F1F041F20C01C4F202010968C1F3062129
:104170004843059011E0FFE7029942F20040C0F287
:10418000F400B0FBF1F041F20C01C4F20201096845
:10419000C1F3062148430590FFE741F20C00C4F249
:1041A0000200006800F0C061022000EB1160039083
:1041B00005980399B0FBF1F00190019806B07047A3
:1041C00080B586B00020009001210191FFF77CFCB2
:1041D0004FF47A70FCF7F8FC00990198FFF774FC33
:1041E000102041F29071FFF76FFC60204FF41C51DA
:1041F000FFF76AFC01996120FFF766FC4620022167
:104200000291FFF761FC132048F21001FFF75CFCFC
:10421000122048F2FE01FFF757FC02984FF4A0610C
:10422000FFF752FC0320059041F23001FFF74CFCF0
:10423000302040F203310491FFF746FC049931200D
:10424000FFF742FC04993220FFF73EFC33204FF485
:1042500040710391FFF738FC05993420FFF734FCD7
:1042600004993520FFF730FC36201421FFF72CFC91
:1042700004993720FFF728FC04993820FFF724FC25
:1042800004993920FFF720FC03993A20FFF71CFC22
:1042900005993B20FFF718FC04993C20FFF714FC1C
:1042A0003D204FF4A051FFF70FFC92204FF4007116
:1042B000FFF70AFC04999320FFF706FC902040F6D4
:1042C0000D01FFF701FC059841F21801FFF7FCFB17
:1042D000072040F27311FFF7F7FB06B080BD000026
:1042E00080B58CB0E32043F20801FFF7EDFBE72037
:1042F00012210191FFF7E8FBEF20069041F23121F6
:10430000FFF7E2FB0120079000210991FFF7DCFB9A
:1043100002204FF4E061FFF7D7FB03200A9041F23F
:104320003001FFF7D1FB099904200490FFF7CCFB83
:10433000082040F20721FFF7C7FB09990920FFF782
:10434000C3FB09990A20FFF7BFFB09990C20FFF76F
:10435000BBFB09990D20FFF7B7FB09990F200590CA
:10436000FFF7B2FB099910200890FFF7ADFB112071
:10437000009007210B91FFF7A7FB01980999FFF720
:10438000A3FB099913200290FFF79EFBC820FDF7BD
:104390005BFD089841F29061FFF796FB009840F2B0
:1043A0002721FFF791FB32200390FDF74DFD019887
:1043B0001D21FFF789FB0398FDF746FD02984FF496
:1043C0000061FFF781FB29201421FFF77DFB2B20E3
:1043D0000B21FFF779FB0398FDF736FD09992020A3
:1043E000FFF772FB09992120FFF76EFB0B99302034
:1043F000FFF76AFB312040F20771FFF765FB039876
:104400000621FFF761FB352040F20471FFF75CFBEA
:10441000362041F60471FFF757FB04993720FFF768
:1044200053FB09993820FFF74FFB392040F2067102
:10443000FFF74AFB3C2040F20171FFF745FB05996D
:104440003D20FFF741FB09995020FFF73DFB0699FE
:104450005120FFF739FB09995220FFF735FB532014
:1044600040F23F11FFF730FB60204FF41C51FFF783
:104470002BFB07996120FFF727FB09996A20FFF7BB
:1044800023FB09998020FFF71FFB09998120FFF783
:104490001BFB09998220FFF717FB09998320FFF77F
:1044A00013FB09998420FFF70FFB09998520FFF77B
:1044B0000BFB08999020FFF707FB09999220FFF763
:1044C00003FB0A999320FFF7FFFA95204FF48871B8
:1044D000FFF7FAFA09999720FFF7F6FA0999982059
:1044E000FFF7F2FA0A9841F21801FFF7EDFA0B987C
:1044F00040F27311FFF7E8FA0CB080BD704700007E
:1045000080B582B0009000980138B0F1807F03D36D
:10451000FFE70120019019E0009801384EF21401E4
:10452000CEF2000108604FF0FF300F2100F090F84C
:104530004EF21801CEF20001002008604EF2100287
:10454000CEF20002072111600190FFE7019802B04E
:1045500080BD000080B5FDF781FE80BD80B5A6B0AE
:1045600018A801903821FBF75AFE002017901690EA
:1045700015901490139002A84421FBF750FE4FF4BD
:104580000070FDF725FF0198012118914FF480314B
:10459000199102211F91032220922192142222922A
:1045A000239124912591FEF737FC18B1FFE7FCF722
:1045B00035FBFFE70F201390032014900020159087
:1045C0001690179013A80221FEF714FA18B1FFE70E
:1045D000FCF724FBFFE74FF4004002904FF000503F
:1045E000119002A8FDF7D8FF18B1FFE7FCF716FB02
:1045F000FFE726B080BD00004EF68851CEF20001E4
:10460000086840F47000086070470000FFE7FEE7AC
:1046100081B08DF803009DF9030000280ED4FFE758
:104620009DF9031001F01F02012090404A094EF24B
:104630000011CEF2000141F82200FFE701B07047FF
:104640004EF60C50CEF200000068C0F30220704716
:1046500082B08DF8070000919DF9070000280AD468
:10466000FFE7009800019DF907104EF20042CEF2DC
:10467000000288540BE0009800019DF8071001F03B
:104680000F014EF61452CEF200028854FFE702B03A
:104690007047000083B00290029800F0070000907D
:1046A0004EF60C51CEF200010868019001984FF6C9
:1046B000FF02104001900198009A40EA0220002277
:1046C000C0F2FA52104301900198086003B070479D
:1046D00080B582B040F2CC00C2F2000000907F2191
:1046E000FCF7A4FA009840F24C01C2F200010191DB
:1046F0001E22FDF705F90520FDF7A6FB019890EDB8
:10470000000AB8EE400A9FED0B1A20EE010A9FED59
:104710000A1A80EE010A40F2C400C2F2000080EDE5
:10472000000A40F29C10C2F2000080ED000A02B0C4
:1047300080BD00BF333353400000804580B582B058
:10474000002001900090FFE700981D2816DCFFE78D
:10475000009940F24C00C2F2000000EB810090EDA5
:10476000000AB8EE401A9DED010A30EE010A8DED07
:10477000010AFFE7009803300090E5E79DED010A8C
:104780009FED4A1A20EE010A9FED491A80EE010AB8
:1047900040F2C400C2F2000080ED000A40F29C101A
:1047A000C2F2000090ED000A40F23800C2F20000B0
:1047B00090ED011AB4EE410AF1EE10FA2DDCFFE79C
:1047C00040F2C400C2F2000090ED000A40F238004E
:1047D000C2F2000090ED011AB4EE410AF1EE10FAB7
:1047E0001BDDFFE740F2A111C2F2000101200870B9
:1047F00040F2AC11C2F20001087840F001000870EC
:1048000000F00AFA40F2B010C2F20000006840F274
:10481000A811C2F2000108603CE040F2A110C2F20F
:1048200000000078A8B3FFE740F29C10C2F200003D
:1048300090ED000A40F23800C2F2000090ED001A3C
:10484000B4EE410AF1EE10FA23DCFFE740F2C400B7
:10485000C2F2000090ED000A40F23800C2F20000FF
:1048600090ED001AB4EE410AF1EE10FA11DDFFE707
:1048700040F2A111C2F200010020087040F2AC1118
:10488000C2F20001087800F0FE00087000F0C4F9E0
:10489000FFE7FFE740F2C400C2F20000006840F208
:1048A0009C11C2F20001086002B080BD3333534056
:1048B0000000204780B582B040F29A11C2F2000198
:1048C0000020087040F20040C4F600000121FDF70E
:1048D00091FC38B9FFE740F29A11C2F200010120C1
:1048E0000870FFE740F20040C4F600000221FDF727
:1048F00081FC38B9FFE740F29A11C2F200010220B0
:104900000870FFE740F20040C4F600000421FDF704
:1049100071FC38B9FFE740F29A11C2F2000103209E
:104920000870FFE74FF090400121FDF763FC38B9B4
:10493000FFE740F29A11C2F2000104200870FFE77D
:1049400040F29A11C2F20001087840F29912C2F2C4
:10495000000213784340034040F29810C2F2000076
:10496000037009781170007801380146019103281D
:1049700000F2A0800199DFE801F00250769C40F23D
:10498000A010C2F20000017881F0010101700078EE
:10499000002841D1FFE740F23000C2F2000090ED64
:1049A000000A90ED011AB7EE002A31EE021AB4EEB9
:1049B000410AF1EE10FA17DBFFE740F23000C2F2D5
:1049C0000000026840F23801C2F200010A6040684B
:1049D000486040F2AC11C2F20001087800F0FD001E
:1049E000087000F019F916E040F23800C2F2000039
:1049F000026840F23001C2F200010A60406848607B
:104A000040F2AC11C2F20001087840F002000870D8
:104A100000F002F9FFE7FFE74DE040F2A010C2F21C
:104A200000000078F0B1FFE740F23000C2F2000071
:104A300090ED000A9FED211A30EE010A80ED000A88
:104A400090ED000A9FED1E1AB4EE410AF1EE10FA45
:104A500007DDFFE740F23001C2F2000100200860EC
:104A6000FFE7FFE727E040F2A010C2F20000007865
:104A7000F0B1FFE740F23000C2F2000090ED010A11
:104A80009FED0E1A30EE010A80ED010A90ED010A49
:104A90009FED0B1AB4EE410AF1EE10FA07DDFFE7C5
:104AA00040F23001C2F2000100204860FFE7FFE75A
:104AB00001E000E0FFE702B080BD00BFCDCCCC3DFF
:104AC0000AD7534082B080B58CB00F930E928DF808
:104AD0002F000A910EA801900A99019A0DF10A007F
:104AE000009000F023F900999DF82F00FEF758FE82
:104AF0000CB0BDE8804002B07047000080B582B0C5
:104B0000FEF7DAFE00200190FEF79EFD0198FEF709
:104B100049FF4FF6FF70FEF763FF02B080BD000053
:104B200080B582B040F2A010C2F2000000780028E8
:104B300045D1FFE746F64C01C0F600010020FFF723
:104B4000C1FF40F2C400C2F200000068FBF772FB34
:104B500041EC100B53EC102B46F61A01C0F6000185
:104B60003020FFF7AFFF40F2A110C2F20000007842
:104B700088B1FFE740F2B010C2F20000006840F2D6
:104B8000A811C2F200010968401A40F2A411C2F251
:104B900000010860FFE740F2A410C2F200000068C4
:104BA00044F6D351C1F26201A0FB0110820946F61E
:104BB0000C01C0F600014820FFF784FF29E046F60B
:104BC0004101C0F600010020FFF77CFF40F23000F9
:104BD000C2F2000001900068FBF72CFB41EC100BC7
:104BE00053EC102B46F63401C0F600013020FFF7DD
:104BF00069FF01984068FBF71DFB41EC100B53EC7B
:104C0000102B46F62701C0F600014820FFF75AFF97
:104C1000FFE702B080BD000080B586B040F600001E
:104C2000C4F6000001904FF47F4101220292FDF78B
:104C3000F9FA019840F2AC11C2F2000109780902B8
:104C400000220592FDF7EEFA029A40F60040C4F603
:104C50000000039004210491FDF7E4FA03980499FD
:104C6000059AFDF7DFFA06B080BD000080B582B07E
:104C700000200190FDF700FBFFF770FCFFF77AF9C9
:104C8000FFF74CF9FFF7FAF8FFF722FDFFF736FFC1
:104C9000FFF7C2FFFFE700F001F8FCE780B582B044
:104CA00000208DF80700FFE79DF8070040F208019B
:104CB000C2F200010978884236DAFFE740F2B0100C
:104CC000C2F2000000689DF8071001EB410240F2BB
:104CD0000C01C2F2000101EB82014A6889681144AB
:104CE00088421AD3FFE79DF8070000EB400140F22D
:104CF0000C00C2F20000009050F82100804700999B
:104D000040F2B010C2F2000000689DF8072002EBEC
:104D1000420201EB82018860FFE7FFE79DF8070090
:104D200001308DF80700BFE702B080BD37B51446EB
:104D30000846064B6A46214600F0DCF80446694600
:104D4000002000F06EFC20463EBD00002356000807
:104D500002E008C8121F08C1002AFAD17047704744
:104D6000002001E001C1121F002AFBD170470000A2
:104D70002DE9FF5F82B00021DDE90430020DDDF88E
:104D800040B0034318D044F61050A2F2FF32424321
:104D90001514119801281FD0A5EB0B00401C5FEAE9
:104DA000000A4FF000064E4FDFF83891B0465046EB
:104DB00015D5CAF1000413E0119801244AA3012873
:104DC00001D16FEA0B010298119AC0E90031C0E9E4
:104DD000024206B0BDE8F09FCBF10000DFE70446D9
:104DE0000021404A491842EB0450CDE9001012E07E
:104DF000E00707D032463B4640464946FBF71BFBDF
:104E00008046894632463B4610461946FBF713FB5F
:104E100006460F466410002CEAD1DDE90401DDE905
:104E20000023BAF1000F06DAFBF705FB42464B46BA
:104E3000FBF701FB05E0FBF770FB42464B46FBF737
:104E40006CFB04460E460022284BFBF7EDFB03D813
:104E50004FF0FF30014607E00022254B2046314647
:104E6000FBF742FAFBF7C8FB102409E0002C0ADB31
:104E70000A220023FBF707FA039B30321A55641EFF
:104E800050EA0102F2D1641C039AC4F111031444E4
:104E9000119A012A03D0012208430DD10AE00843E8
:104EA00004D000204FF0110B119072E7A3EB0B051B
:104EB0006D1E0DE05B4504DD4FF0000205F10105BC
:104EC00004E003DA4FF00002A5F10105002AECD05E
:104ED00002981199C0E90231C0E9004579E7000064
:104EE000000014400000F03F300000000000F043DC
:104EF0000000E03F2DE9FF4F95B09B4689460646EE
:104F000000250FE2252877D100242746F84A012101
:104F1000059400E0044316F8013F203B01FA03F03A
:104F20001042F7D130782A2811D06FF02F03307853
:104F3000A0F13002092A16D8059A44F0020402EBC7
:104F4000820203EB42021044761C0590EFE759F809
:104F5000042B0592002A03DA504244F400540590D1
:104F600044F00204761C30782E2816D116F8010F72
:104F700044F004042A280DD06FF02F023078A0F1FD
:104F80003003092B09D807EB870302EB4303C7184B
:104F9000761CF3E759F8047B761C30786C280FD028
:104FA00006DC4C2817D068280DD06A2814D104E0FC
:104FB000742810D07A280FD10DE044F400140AE0D0
:104FC00044F4801401E044F440147278824202D127
:104FD00004F58014761C761C307866280BD013DC20
:104FE000582877D009DC002875D04528F6D0462807
:104FF000F4D047281AD19DE118E0632835D0642801
:1050000079D0652812D195E1702873D008DC672823
:10501000F1D069286FD06E280DD06F2806D1B5E089
:1050200073282CD0752875D0782874D05A461799D3
:1050300090476D1C75E1C4F30250022809D0032883
:105040000DD0D9F8001004280DD00D6009F1040925
:1050500067E1D9F80010EA17C1E90052F6E7D9F87C
:1050600000100D80F2E70D70F0E719F8041B8DF8C1
:10507000001000208DF80100EA46012003E059F8F5
:1050800004AB4FF0FF3061074FF0000102D40DE098
:1050900008F101018846B9420FDA8045F8DB1AF8B9
:1050A00008100029F4D108E008F101018846814286
:1050B000FADB1AF808100029F6D105985B46A0EB38
:1050C000080721463846179A00F094FA284400EB66
:1050D000080507E04DE029E10DE01AF8010B5A46FA
:1050E00017999047B8F10108F7D25B462146384638
:1050F000179A13E142E00A220092C4F302524FF0E1
:10510000000A022A08D059F804CB032A4FEAEC71AE
:105110000AD00DE029E02AE009F1070121F0070299
:10512000F2E802C1914609E00FFA8CFC4FEAEC71FB
:10513000042A03D14FFA8CFC4FEAEC71002907DAFC
:105140000A460021DCF1000C61EB02012D2202E095
:10515000220504D52B228DF80420012203E0E2076A
:1051600001D02022F7E7904659E00A2102E0102200
:105170000DE010214FF0000A00910BE010224FF0DB
:10518000000A44F004040827009203E008224FF0CC
:10519000000A0092C4F30252022A05D059F804CB47
:1051A0000021032A08D009E009F1070121F00702D4
:1051B000F2E802C1914605E01FFA8CFC042A01D1F5
:1051C0000CF0FF0C4FF00008220728D5702806D0FD
:1051D000009B83F0100353EA0A0305D00EE040223F
:1051E0008DF80420012208E05CEA010206D030229A
:1051F0008DF804208DF8050002229046009B83F074
:10520000080353EA0A030AD15CEA010201D16207EA
:1052100005D530228DF804204FF001087F1E582854
:1052200004D034A003900EA802900DE036A0F9E758
:1052300053466046009AFBF726F884460398825C42
:105240000298401E029002705CEA0100F0D10298C0
:1052500006A9081A00F1200A600702D524F4803458
:1052600000E00127574502DDA7EB0A0000E000201F
:1052700000EB0A01009005984144401A0590E003B4
:1052800006D45B462146179A059800F0B3F9054409
:10529000002706E001A85A46C05D179990476D1C8B
:1052A0007F1C4745F6DBE0030CD55B462146179A89
:1052B000059800F09FF9054404E030205A461799FC
:1052C00090476D1C0099481E00900029F5DC08E00D
:1052D000029802995A460078491C02911799904702
:1052E0006D1CBAF10001AAF1010AF1DC65E10000D0
:1052F00009280100303132333435363738396162AC
:10530000636465660000000030313233343536376F
:1053100038394142434445460000000000F058F946
:105320000544761C307800287FF4ECAD19B028468F
:10533000BDE8F08F620700D4062709F1070222F0CA
:10534000070CFCE80223E14603F000485FEA080C82
:1053500002D00FF2702C0DE05FEA045C02D50FF270
:10536000682C07E05FEAC47C02D00FF2602C01E0F9
:10537000AFF2700C4FF0FF3823F00043CDF850C06F
:1053800065280CD006DC452809D046281DD04728C2
:105390003DD13DE0662818D067287ED138E0002155
:1053A000112F01DB112000E0781CCDE9000106A9D6
:1053B0000EA8FFF7DDFCDDE90F010E9A0391002135
:1053C000009207F1010A04914DE04FF00040009770
:1053D000CDE9011006A90EA8FFF7CAFCDDE90F020E
:1053E00003920E9B11990022DDF80CA00093049209
:1053F00011B9791C00EB010AB7EB0A0004D4C0F123
:10540000FF3007F1010A0490AAEB0700019044E085
:10541000012F00DA01270021112F01DD112000E00A
:105420003846CDE9000106A90EA8FFF7A1FCDDE989
:105430000F010E9A0391002104910092BA462107B0
:105440000CD40399514500DA8A46BAF1010F05DD03
:10545000009AAAF10101515C302908D0B84202DA61
:1054600010F1040F06DA0121CDE9011015E0AAF1CF
:105470000101E9E7002805DC049901440491AAEB45
:10548000000102E0411C514500DD8A460499401AA2
:10549000401C01904FF000400290200704D4019876
:1054A000504501DBCDF8048000208DF84F000298B4
:1054B0000DF14F07B0F1004F25D02B200E90029830
:1054C0004FF0020800280CDA404202902D200E9086
:1054D00007E00A210298FAF7C0FE3031029007F87F
:1054E000011DB8F10001A8F10108F2DC02980028C2
:1054F000EFD1791E0E980870307800F0200040F04F
:10550000450007F8020D12A8C01B00F10708149807
:10551000007800B1012000EB0A01019801EBE07175
:1055200005984144401A401E0590E00306D45B46AE
:105530002146179A059800F05DF805441498007804
:1055400018B15A46179990476D1CE00324D55B4665
:105550002146179A059800F04DF805441CE0049880
:10556000002807DBDDE90301884203DD0098405C89
:10557000179901E0179930205A469047049805F191
:105580000105401C04900198401E019004D12E207A
:105590005A46179990476D1CBAF10001AAF1010A09
:1055A000DDDC05E017F8010B5A46179990476D1C92
:1055B000B8F10001A8F10108F4DC5B462146179A16
:1055C0000598ABE62D0000002B0000002000000035
:1055D0002DE9F041044600251E461746880404D4F0
:1055E00005E039462020B0476D1C641EF9D52846D9
:1055F000BDE8F0812DE9F041044600251E469046A5
:10560000C80301D5302700E02027880404D505E031
:1056100041463846B0476D1C641EF9D52846BDE8A2
:10562000F0810A68531C0B60107070470000000086
:105630000000000001020304060708090000000042
:10564000000000000000000000000000000000005A
:10565000000000000000000000000000000000004A
:1056600000000000000000000000000000008001B9
:105670008001800180018001800180018001800122
:105680008001800180018001000000008001800114
:10569000000000000000000000000000000000000A
:1056A000CC00CC00CC00CC00CC00CC000000000032
:1056B00000000000000000000000000000000000EA
:1056C00000000000000000000000000000000000DA
:1056D0000000000000000000600C600C600C300650
:1056E0003006FE1FFE1F300638071803FE1FFE1F80
:1056F000180318038C018C018C010000000080004D
:10570000E003F80F9C0E8C1C8C188C009800F8019C
:10571000E007800E801C8C188C189C18B80CF00FB9
:10572000E003800080000000000000000000000096
:1057300000000E181B0C110C1106110611031103A9
:105740009B018E01C038C06C6044604430443044DA
:105750001844186C0C380000000000000000E00144
:10576000F0033807180618063003F001F000F800BF
:105770009C310E33061E061C061C063FFC73F021EE
:105780000000000000000000000000000000000019
:105790000C000C000C000C000C000C0000000000C1
:1057A00000000000000000000000000000000000F9
:1057B00000000000000000000000000000000002E7
:1057C00000038001C000C0006000600030003000B5
:1057D00030003000300030003000300060006000E9
:1057E000C000C00080010003000200000000200093
:1057F0006000C00080018001000300030006000675
:10580000000600060006000600060006000300036E
:1058100080018001C0006000200000000000000046
:105820000000000000000000C000C000D806F8071B
:10583000E001300338070000000000000000000015
:105840000000000000000000000000000000000058
:105850000000000000000000800180018001800144
:105860008001FC3FFC3F80018001800180018001BC
:105870000000000000000000000000000000000028
:105880000000000000000000000000000000000018
:105890000000000000000000000000000000800187
:1058A00080010001000180000000000000000000F5
:1058B00000000000000000000000000000000000E8
:1058C00000000000E007E00700000000000000000A
:1058D00000000000000000000000000000000000C8
:1058E00000000000000000000000000000000000B8
:1058F0000000000000000000000000000000C000E8
:10590000C000000000000000000000000000000CCB
:10591000000C0006000600060003000300038003DD
:10592000800180018001C000C000C00060006000F4
:105930000000000000000000000000000000E00384
:10594000F007380E180C0C180C180C180C180C1842
:105950000C180C180C180C18180C380EF007E00373
:105960000000000000000000000000000000000136
:105970008001C001F001980188018001800180014F
:10598000800180018001800180018001800180010F
:105990000000000000000000000000000000E00324
:1059A000F80F180C0C180C1800180018000C000642
:1059B00000038001C000600030001800FC1FFC1FC5
:1059C0000000000000000000000000000000E001F6
:1059D000F807180E0C0C0C0C000C0006C003C007D6
:1059E000000C001800180C180C18180CF807E0032D
:1059F0000000000000000000000000000000000C9B
:105A0000000E000F000F800DC00C600C600C300CFD
:105A1000180C0C0CFC3FFC3F000C000C000C000CA4
:105A20000000000000000000000000000000F80F6F
:105A3000F80F180018000C00EC03FC071C0E001CEB
:105A40000018001800180C181C0C180EF807E003BA
:105A50000000000000000000000000000000C0077F
:105A6000F00F381C181818000C00CC03EC0F3C0E7B
:105A70001C1C0C180C180C18181C380EF007E0032E
:105A80000000000000000000000000000000FC1FFB
:105A9000FC1F000C00060006000380038001C0010B
:105AA000C000E00060006000700030003000300096
:105AB0000000000000000000000000000000E00303
:105AC000F007380E180C180C180C3806F007F00701
:105AD000180C0C180C180C180C18380CF80FE003E4
