:020000040800F2
:1000000010060020ED0100086551000811450008A8
:1000100061510008410A0008ED600008000000007E
:10002000000000000000000000000000B1550008C2
:10003000650B000800000000D551000809560008B3
:10004000070200080702000807020008070200086C
:10005000070200080702000807020008070200085C
:10006000070200080702000807020008070200084C
:10007000070200080702000807020008070200083C
:10008000070200080000000007020008070200083D
:10009000070200080702000807020008070200081C
:1000A000070200080702000807020008070200080C
:1000B000C1560008070200080702000807020008EE
:1000C00007020008070200080702000807020008EC
:1000D00007020008070200080702000807020008DC
:1000E00007020008070200080702000807020008CC
:1000F00007020008070200080702000800000000CD
:1001000000000000070200080000000007020008CD
:100110000702000800000000D1560008070200088E
:10012000070200080702000807020008070200088B
:10013000070200080000000000000000070200089D
:10014000070200080702000800000000000000008D
:10015000000000000000000000000000000000009F
:10016000000000000000000000000000070200087E
:10017000070200080000000000000000000000006E
:10018000000000000702000800000000000000005E
:10019000000000000000000000000000000000005F
:1001A000000000000000000007020008070200082D
:1001B000070200080702000807020008000000000C
:1001C000000000000702000800000000000000001E
:1001D0000702000807020008DFF80CD000F03CFA24
:1001E00000480047A569000810060020064880471F
:1001F00006480047FEE7FEE7FEE7FEE7FEE7FEE70C
:10020000FEE7FEE7FEE7FEE7AD560008D90100086D
:10021000D2B201E000F8012B491EFBD27047002248
:10022000F6E710B513460A4604461946FFF7F0FFF5
:10023000204610BD00F0004230F000400AD0C10D51
:1002400001F56071C0F3160042EA0151C20840078F
:100250001143704700200146704730B50B460146F8
:1002600000202022012409E021FA02F59D4205D355
:1002700003FA02F5491B04FA02F52844151EA2F1FF
:100280000102F1DC30BD2DE9F05F05460020924609
:100290009B4688460646814640241BE02846414648
:1002A0004746224600F0FFF953465A46C01A91418C
:1002B00010D311461846224600F0E6F92D1A67EBD6
:1002C00001084F4622460120002100F0DDF917EB1E
:1002D00000094E41201EA4F10104DFDC48463146EE
:1002E0002A464346BDE8F09F2DE9FE4F804681EA4D
:1002F0000300C00F0C46009021F0004123F00045A0
:10030000B8EB0200A94105D24046214690461C4662
:100310000B46024623F00040104347D0270DC7F399
:100320000A00C3F30A510290401A019040286BDA88
:10033000C3F3130040F4801B0098924620B10023C1
:10034000D2EB030A63EB0B0B01985946C0F1400254
:10035000504600F099F906460D4650465946019A16
:1003600000F0B1F910EB08006141002487EA115256
:1003700084EAE7731A4340D0009A62B3019A012AD3
:100380004FEA075215DC001B61EB02014FF00042FF
:1003900002EA0752CDE90042001C41F580113246C5
:1003A0002B4600F0B1F903B0BDE8F08F404621467E
:1003B000F9E7001B61EB0201001C41F580130018F6
:1003C0005B412018A2F5001747EB030140EAD57006
:1003D000B6196D4111E06D084FEA360645EAC07561
:1003E0004FEA0752001B61EB0201001C41F580112E
:1003F00049084FEA30000019514132462B4603B0FC
:10040000BDE8F04F00F071B90098012240000023D0
:10041000D0EB020263EBE073009821464FEAE074F0
:10042000B8EB000061EB0401E9E783F000435BE710
:1004300081F0004158E72DE9FE4F81EA030404F002
:10044000004421F0004100944FF0000B23F00043E2
:1004500050EA01045ED052EA03045BD0C3F30A54AD
:10046000C1F30A552C44A4F2F3340194A0FB0254C6
:10047000C1F3130141F48011C3F3130343F4801358
:1004800001FB024400FB034E840A970A44EA8154AC
:1004900047EA8357A4FB076802958D0A05FB078589
:1004A0004FEA932C04FB0C542705029D4FEA065893
:1004B00047EA1637B5EB08056EEB070C870E920E70
:1004C00047EA811742EA8312A7FB0201B6EB0B0150
:1004D00064EB00042B0D43EA0C335E1844EB1C5014
:1004E000DA465146E7FB0201C5F313044FEA0B332A
:1004F00043EA14534FEA0432019C43EA0603A4F191
:100500000C040294009CCDE900B400F0FDF803B0A7
:10051000BDE8F08F00200146F9E72DE9F04D81EAB2
:10052000030404F0004B21F0004514464FF0000A8C
:1005300023F0004150EA050220D054EA01021DD008
:10054000C5F30A570246C5F31303C1F31300C1F301
:100550000A5640F4801543F48013A7EB0608101BDD
:10056000D64608F2FD3873EB050002D308F1010806
:1005700001E092185B41B8F1000F03DA0020014658
:10058000BDE8F08D00204FF48011064684460EE051
:10059000171B73EB050705D3121B63EB050306431B
:1005A0004CEA010C49084FEA300092185B4150EACE
:1005B0000107EDD152EA030012D082EA040083EA77
:1005C0000501084305D0101BAB4106D201220023D0
:1005D00006E000224FF0004302E06FF001025310EA
:1005E0001AEB06004CEB085110EB0A0041EB0B0133
:1005F000BDE8F04D00F079B8C1F30A52C1F3130120
:1006000040F2FF3341F480119A4202DA00200146A1
:10061000704740F233439A42A2F2334202DC524224
:1006200000F041B800F030B830B5041E71F100049C
:1006300004DB4FF00044404264EB0101141E73F1EF
:10064000000405DB1C464FF00043524263EB0403F9
:10065000994208BF904230BD1CB509480090094836
:1006600001900546009C06E0E06840F0010394E834
:10067000070098471034AC42F6D3FFF7B1FD0000F5
:10068000C4860008E4860008202A04DB203A00FA29
:1006900002F1002070479140C2F1200320FA03F3D9
:1006A000194390407047202A04DB203A21FA02F0D7
:1006B0000021704721FA02F3D040C2F1200291409C
:1006C000084319467047202A06DBCB17203A41FA27
:1006D00002F043EAE07306E041FA02F3D040C2F1CF
:1006E0002002914008431946704710B5141E73F15B
:1006F000000408DA401C41F1000192185B411A43E2
:1007000001D120F0010010BD2DE9F04D92469B462D
:1007100011B1B1FA81F202E0B0FA80F220329046D3
:10072000FFF7B2FF04460F4640EA0A0041EA0B0118
:1007300053465A46084313D0114653EA010019D0D4
:10074000C8F140025046FFF7AEFF05460E46504640
:1007500059464246FFF798FF084305D0012004E0C0
:1007600020463946BDE8F08D0020054346EAE07694
:100770002C4337430A986305E40AA0EB08000022E3
:10078000FD0A44EA47540A3002D500200146E9E751
:10079000010510196941DDE9084500196941BDE805
:1007A000F04DA2E780B582B001900198806A009078
:1007B0000098C06D10F0500F4BD1FFE70099C86D45
:1007C00040F40070C86500980068006800070028C1
:1007D00021D5FFE70098006804F0F2F9D0B1FFE7F7
:1007E00000980068C0688004002812D4FFE70099D0
:1007F000C86D20F48070C8650098C06DC0040028E2
:1008000006D4FFE70099C86D40F00100C865FFE716
:10081000FFE7FFE719E000980068C068800700283C
:1008200012D4FFE70099C86D20F48070C865009865
:10083000C06DC004002806D4FFE70099C86D40F0E1
:100840000100C865FFE7FFE7FFE7009800F0DEFE64
:1008500010E00098C06DC006002804D5FFE700989E
:1008600000F0DCFE05E00098406D416B0198884780
:10087000FFE7FFE702B080BD80B582B0019001982C
:10088000806A00900099C86D40F04000C8650099EA
:10089000086E40F004000866009800F0BFFE02B049
:1008A00080BD000080B582B001900198806A009000
:1008B000009800F0AFFE02B080BD000080B584B0AB
:1008C00002900298006804F04BF9009002980068CA
:1008D00004F04EF900284BD0FFE70098002847D1DC
:1008E000FFE702980068806800F00D00012809D138
:1008F000FFE70298006804F0C3F80298016803203B
:1009000008600DE00299C86D40F01000C8650299BA
:10091000086E40F00100086601208DF80F002BE002
:1009200001F07AFC0190FFE7029800688068C00738
:10093000E8B1FFE701F070FC0199401A032815D3D4
:10094000FFE7029800688068C00770B1FFE702996E
:10095000C86D40F01000C8650299086E40F00100B3
:10096000086601208DF80F0006E0FFE7DCE7FFE7EF
:1009700000208DF80F00FFE79DF80F0004B080BD48
:1009800080B584B002900298006804F0F1F8002865
:100990004ED1FFE70298006880683F21C8F200014D
:1009A00008420ED0FFE70299C86D40F01000C865FC
:1009B0000299086E40F00100086601208DF80F00D2
:1009C0003AE00298006804F075F801F025FC019007
:1009D000FFE7029800680068C00740BBFFE7029885
:1009E000006804F0C5F828B9FFE70298006804F031
:1009F00061F8FFE701F010FC0199401A032815D3B4
:100A0000FFE7029800680068C00770B9FFE7029925
:100A1000C86D40F01000C8650299086E40F00100F2
:100A2000086601208DF80F0006E0FFE7D1E7FFE739
:100A300000208DF80F00FFE79DF80F0004B080BD87
:100A4000FFE7FEE784B003900398006840F2074197
:100A5000C4F20201884206D8FFE740F60000C4F263
:100A60000200009005E040F62000C4F20200009071
:100A7000FFE7009802900398007808384CF6CD41C3
:100A8000CCF6CC41A0FB011000090190029803991B
:100A90004A6C22F0030210448864039940F68000F7
:100AA000C4F20200C864019800F01F0101208840D0
:100AB0000399086504B0704782B0019001980079ED
:100AC0000090009940F6FC00C4F2020000EB8100A7
:100AD00001994865019940F64010C4F2020088650A
:100AE0000098013800F01F01012088400199C86575
:100AF00002B0704784B00390029101920093039872
:100B0000C16C006D48600398406D28B1FFE7039801
:100B1000816DC06D4860FFE70398016C406C00F088
:100B20001F020120904048600098039909684860BE
:100B300003988068102809D1FFE701980399096894
:100B40008860029803990968C86008E002980399D0
:100B500009688860019803990968C860FFE704B0D4
:100B6000704700007047000082B0ADF8060000201A
:100B7000ADF80400FFE7BDF80400BDF80610884298
:100B800019DAFFE70020ADF80200FFE7BDF8020028
:100B900040F6B731884207DCFFE7FFE7BDF8020007
:100BA0000130ADF80200F1E7FFE7BDF804000130C5
:100BB000ADF80400DFE702B07047000081B0EFF34A
:100BC000108072B60090FFE7FEE7000080B586B0A7
:100BD0000490039100200190FFE7049890F85800DA
:100BE000012804D1FFE702208DF817005AE004998C
:100BF000012081F85800FFE7FFE70498FFF75EFE49
:100C00008DF80B009DF80B00D8BBFFE70498C06D72
:100C100040F0020020F488500499C86504980068E8
:100C2000039904F0BFF8FFE70498006803F088FF19
:100C3000F0B1FFE701980130019001984DF6026193
:100C4000C0F20401884212D3FFE70498C06D40F05F
:100C5000100020F002000499C865FFE70499002005
:100C600081F85800FFE701208DF817001AE0DBE754
:100C70000498C06D40F0010020F002000499C8659E
:100C800005E00499C86D40F01000C865FFE7FFE774
:100C90000499002081F85800FFE79DF80B008DF8BB
:100CA0001700FFE79DF8170006B080BD80B5A4B01F
:100CB0002290219100208DF883002198006808B1CE
:100CC000FFE7FFE7FFE7229890F85800012804D1DA
:100CD000FFE702208DF88F009FE02299012081F824
:100CE0005800FFE7FFE700201B901C902298006847
:100CF000B0F1A04F06D1FFE740F20010C5F20000AE
:100D0000049002E000200490FFE7049878B9FFE720
:100D10002299C86D40F02000C865FFE722990020A5
:100D200081F85800FFE701208DF88F0075E00498E6
:100D300003F03EFF03902298006803F039FF00287B
:100D400057D1FFE70398002853D1FFE740F2003066
:100D5000C5F200001F902198006860B3FFE71F985C
:100D6000806820F4604021994968229A92F83820DE
:100D700041EA423108431F9988604FF0A04003F0D8
:100D8000FFFE029040F20010C5F2000003F0F8FEF2
:100D900001460298084368B9FFE71F98806840F64B
:100DA0001F718843219A11689268114308431F9963
:100DB0008860FFE71CE01F99886820F46040886025
:100DC0004FF0A04003F0DCFE019040F20010C5F2AD
:100DD000000003F0D5FE01460198084338B9FFE74B
:100DE0001F99886840F61F7290438860FFE7FFE70D
:100DF00008E02299C86D40F02000C86501208DF8F8
:100E00008300FFE7FFE72299002081F85800FFE701
:100E10009DF883008DF88F00FFE79DF88F0024B0C8
:100E200080BD000080B5C0B020901F9100208DF8DB
:100E30007B001B901F98C0680021C4F27F0188428C
:100E400001D0FFE700E0FFE7FFE7209890F85800A7
:100E5000012804D1FFE702208DF88700D2E3209912
:100E6000012081F85800FFE7FFE72098006803F0B1
:100E700097FE002840F0B283FFE7209800681F9992
:100E80000A68496803F0A8FE2098006803F088FE0D
:100E90001A902098006803F04BFE19901A980028C9
:100EA00040F0B881FFE71998002840F0B381FFE7D0
:100EB0001F988068B0F1004F0ED1FFE720980068BE
:100EC0001F990968002203F0B3FE209800684FF0D4
:100ED000004103F059FF0CE0209800681F9A116848
:100EE000926803F0A5FE20980068002103F04CFFF3
:100EF000FFE71F98406920990968C96801F0180147
:100F0000890888401D901F98006904281CD0FFE7BD
:100F1000209800681F990A6809691D9B03F0DAFE92
:100F2000209800681F9A1169926903F005FF2098C4
:100F300000681F9A1169127F013AB2FA82F25209CF
:100F4000520603F0E5FE64E120980068002103F0FA
:100F5000DFFD400348B9FFE720980068002103F057
:100F6000D7FDC0F38460189018E020980068002135
:100F700003F0CEFD90FAA0F03E903E9820B9FFE736
:100F800020208DF8FF0005E03E98B0FA80F08DF843
:100F9000FF00FFE79DF8FF001890FFE718981790F3
:100FA0001F980068400330B9FFE71F980068C0F33E
:100FB0008460169015E01F98006890FAA0F03C90AD
:100FC0003C9820B9FFE720208DF8F70005E03C9819
:100FD000B0FA80F08DF8F700FFE79DF8F700169063
:100FE000FFE717981699884207D1FFE72098006815
:100FF0000022114603F0B4FEFFE7209800680121AB
:1010000003F086FD400348B9FFE7209800680121FE
:1010100003F07EFDC0F38460159018E0209800680E
:10102000012103F075FD90FAA0F03A903A9820B9AA
:10103000FFE720208DF8EF0005E03A98B0FA80F045
:101040008DF8EF00FFE79DF8EF001590FFE715988A
:1010500014901F980068400330B9FFE71F9800689C
:10106000C0F38460139015E01F98006890FAA0F018
:101070003890389820B9FFE720208DF8E70005E088
:101080003898B0FA80F08DF8E700FFE79DF8E700A8
:101090001390FFE714981399884207D1FFE720982F
:1010A00000680121002203F05BFEFFE72098006842
:1010B000022103F02DFD400348B9FFE720980068A6
:1010C000022103F025FDC0F38460129018E02098FF
:1010D0000068022103F01CFD90FAA0F036903698CB
:1010E00020B9FFE720208DF8DF0005E03698B0FA40
:1010F00080F08DF8DF00FFE79DF8DF001290FFE73A
:10110000129811901F980068400330B9FFE71F98AC
:101110000068C0F38460109015E01F98006890FA92
:10112000A0F03490349820B9FFE720208DF8D70044
:1011300005E03498B0FA80F08DF8D700FFE79DF80D
:10114000D7001090FFE711981099884207D1FFE768
:10115000209800680221002203F002FEFFE7209899
:101160000068032103F0D4FC400348B9FFE720984E
:101170000068032103F0CCFCC0F384600F9018E0FA
:1011800020980068032103F0C3FC90FAA0F032908D
:10119000329820B9FFE720208DF8CF0005E0329883
:1011A000B0FA80F08DF8CF00FFE79DF8CF000F90E8
:1011B000FFE70F980E901F980068400330B9FFE7D3
:1011C0001F980068C0F384600D9015E01F980068B8
:1011D00090FAA0F03090309820B9FFE720208DF8E9
:1011E000C70005E03098B0FA80F08DF8C700FFE73F
:1011F0009DF8C7000D90FFE70E980D99884207D122
:10120000FFE7209800680321002203F0A9FDFFE713
:10121000FFE7FFE72098006803F0AAFC002840F0F1
:101220004481FFE7209800681F9A1168D26803F094
:101230001BFD1F98C0680021C4F27F01884240F066
:101240003381FFE7209800680C901F9800684003E6
:1012500030B9FFE71F980068C0F384600B9015E079
:101260001F98006890FAA0F02E902E9820B9FFE702
:1012700020208DF8BF0005E02E98B0FA80F08DF8A0
:10128000BF00FFE79DF8BF000B90FFE70B98013010
:1012900000F01F0009287DD8FFE71F980068400371
:1012A00030B9FFE71F980068C0F384600A9015E02A
:1012B0001F98006890FAA0F02C902C9820B9FFE7B6
:1012C00020208DF8B70005E02C98B0FA80F08DF85A
:1012D000B700FFE79DF8B7000A90FFE70A980130D2
:1012E00000F01F00800609901F980068400330B985
:1012F000FFE71F980068C0F38460089015E01F980E
:10130000006890FAA0F02A902A9820B9FFE72020E0
:101310008DF8AF0005E02A98B0FA80F08DF8AF00A4
:10132000FFE79DF8AF000890FFE7099808990131A1
:1013300001F01F0201219140084307901F980068A7
:10134000400330B9FFE71F980068C0F3846006903F
:1013500015E01F98006890FAA0F02890289820B90E
:10136000FFE720208DF8A70005E02898B0FA80F06C
:101370008DF8A700FFE79DF8A7000690FFE7079804
:101380000699013101F01F0101EB410140EA0150D2
:10139000059082E01F980068400330B9FFE71F986E
:1013A0000068C0F38460049015E01F98006890FA0C
:1013B000A0F02690269820B9FFE720208DF89F0006
:1013C00005E02698B0FA80F08DF89F00FFE79DF8C1
:1013D0009F000490FFE70498013000F01F00800692
:1013E00003901F980068400330B9FFE71F9800681A
:1013F000C0F38460029015E01F98006890FAA0F096
:101400002490249820B9FFE720208DF8970005E06C
:101410002498B0FA80F08DF89700FFE79DF89700C8
:101420000290FFE703980299013101F01F020121A8
:101430009140084301901F980068400330B9FFE7CE
:101440001F980068C0F38460009015E01F98006842
:1014500090FAA0F02290229820B9FFE720208DF882
:101460008F0005E02298B0FA80F08DF88F00FFE73A
:101470009DF88F000090FFE701990098013000F07F
:101480001F0000EB40020020CFF6206000EB02506E
:10149000084340F000700590FFE70C9805991F9AEB
:1014A000926803F0C5FBFFE7FFE71F98408848F20A
:1014B0000801084200F09180FFE740F20030C5F2D9
:1014C000000003F015FB1C901F9800680021CCF26F
:1014D0002131884208D0FFE71F9800681021C9F227
:1014E000C001884232D1FFE79DF872000006002853
:1014F0002CD4FFE720980068B0F1A04F25D1FFE77A
:101500001C9840F4000140F20030C5F2000003F0E6
:10151000D3FB40F20400C2F200000068800942F6EA
:101520006351C0F23E51A0FB0110800900EB400165
:101530000C2000EB81001B90FFE71B9820B1FFE718
:101540001B9801381B90F8E7FFE745E01F980068FB
:101550000021CCF25271884219D1FFE79DF8730047
:10156000C007A0B9FFE72098006840F20011C5F25B
:10157000000188420AD0FFE71C9840F0807140F2D9
:101580000030C5F2000003F097FBFFE723E01F984F
:1015900000680021CCF6843188421AD1FFE79DF81B
:1015A00072004006002814D4FFE72098006840F23B
:1015B0000011C5F2000188420AD0FFE71C9840F4F0
:1015C000800140F20030C5F2000003F075FBFFE738
:1015D00000E0FFE7FFE7FFE7FFE708E02099C86DBD
:1015E00040F02000C86501208DF87B00FFE7FFE791
:1015F0002099002081F85800FFE79DF87B008DF8C6
:101600008700FFE79DF8870040B080BD81B0009063
:1016100001B0704781B0009001B0704781B0009078
:1016200001B0704780B58AB0089000208DF81F0087
:101630000490089820B9FFE701208DF827007EE18B
:101640000898406940B1FFE7089890F82400012805
:1016500001D1FFE7FFE7FFE70898C06D50B9FFE74A
:10166000089800F071F9089900200866089981F837
:101670005800FFE70898006803F06AFA28B1FFE70E
:101680000898006803F00AFAFFE70898006803F07A
:101690007FFAF0B9FFE70898006803F019FA40F202
:1016A0000400C2F200000068800942F66351C0F2F3
:1016B0003E51A0FB01108109022000EB4100049083
:1016C000FFE7049820B1FFE7049801380490F8E799
:1016D000FFE70898006803F05BFA70B9FFE7089924
:1016E000C86D40F01000C8650899086E40F0010010
:1016F000086601208DF81F00FFE70898006803F0D6
:101700004FFA05900898C06DC006002800F10981C5
:10171000FFE70598002840F00481FFE70898C06DB6
:1017200040F0020020F480700899C86508980068AD
:1017300003F01EFAD0B9FFE74FF0A04003F018FA0B
:10174000019040F20010C5F2000003F011FA0146CA
:101750000198084348B9FFE70898416840F2003013
:10176000C5F2000003F09AFAFFE7FFE708994A7F05
:10177000C86B40EA42308A68CB681843104391F83E
:10178000241040EA01400690089890F824000128AF
:101790000BD1FFE70898816A0020CFF6FE7000EBBE
:1017A0004141069808430690FFE70898C06A50B187
:1017B000FFE70899C86A096B00F47870014306983E
:1017C00008430690FFE708980068C06844F20701E4
:1017D000CFF6F07108400699084308990968C86077
:1017E00008980068006920F04060089A1168526B00
:1017F000104308610898006803F0D2F90390089834
:10180000006803F095F902900398002868D1FFE77B
:101810000298002864D1FFE70899087F91F83810F2
:10182000800340EA4100069008980068C06844F2CE
:10183000020188430699084308990968C860089816
:101840000069A0B1FFE708980168086940F480309A
:10185000086108980068D0F8C00043F6FF7188431B
:10186000089A116812691043C1F8C00011E0089885
:101870000168086920F48030086108980068D0F891
:10188000C00043F6FF71884308990968C1F8C00099
:10189000FFE7089890F84000012819D1FFE7089861
:1018A0000068006940F2FD7120EA0102089B196896
:1018B000586CD3F848E0D3F84CC040EA0E0040EA38
:1018C0000C001B6D1843104340F00100086106E056
:1018D00008980168086920F001000861FFE7FFE748
:1018E0000898406901280CD1FFE708980068006B50
:1018F00020F00F00089A1168126A013A1043086339
:1019000006E008980168086B20F00F000863FFE705
:101910000898C06D40F0010020F002000899C865E9
:1019200008E00899C86D40F01000C86501208DF8E6
:101930001F00FFE79DF81F008DF82700FFE79DF8C7
:1019400027000AB080BD000080B58AB00990002051
:101950000890079006900590049009980068B0F1EF
:10196000A04F58D1FFE7FFE741F24C00C4F202005C
:10197000016841F400510160006800F400500390D8
:101980000398FFE7FFE741F24C00C4F20200016850
:1019900041F002010160006800F00200029002982C
:1019A000FFE74FF480500490032005900020009042
:1019B000069040F20040C4F6000004A900F048FA86
:1019C000009940F2FC00C2F2000001900822C4F22B
:1019D00002020260052242608160C16080220261D1
:1019E0004FF4007242614FF4006282612022C261B2
:1019F000016200F0E1F818B1FFE7FFF7DFF8FFE759
:101A0000FFE7099840F2FC01C2F200014165099824
:101A10008862FFE7FFE70AB080BD000080B588B0AC
:101A200006900591049240F20030C5F2000003F0E8
:101A300067F802900698006803F0B2F8002840F0BA
:101A4000AE80FFE7FFE7069890F85800012804D120
:101A5000FFE702208DF81F00AAE00699012081F817
:101A60005800FFE7FFE7029848B1FFE70298052812
:101A700005D0FFE70298092840F08680FFE7069826
:101A8000FEF77EFF8DF80F009DF80F00002873D140
:101A9000FFE70698C06D40F4807040F6016188430E
:101AA0000699C8650698006840F20011C5F2000169
:101AB000884204D1FFE74FF0A040019003E0069870
:101AC00000680190FFE7019806990968884203D0F1
:101AD000FFE7029830B9FFE70699C86D20F480103F
:101AE000C865FFE70698C06DC004002806D5FFE76B
:101AF0000699086E20F00600086603E006990020AB
:101B00000866FFE70698416D40F2A570C0F6000038
:101B1000C8620698416D40F6A500C0F60000086353
:101B20000698416D40F67900C0F6000048630698BB
:101B300001681C200860FFE70699002081F8580022
:101B4000FFE706980168486840F010004860069872
:101B50000168C86840F00100C86006980168406DDF
:101B60004031059A049B00F0D3F88DF80F000698D9
:101B7000006803F04FF806E0FFE70699002081F8BF
:101B80005800FFE7FFE709E001208DF80F00FFE7AD
:101B90000699002081F85800FFE7FFE703E00220E4
:101BA0008DF80F00FFE79DF80F008DF81F00FFE78D
:101BB0009DF81F0008B080BD80B584B002900298E7
:101BC00020B9FFE701208DF80F009CE00298006823
:101BD00040F20741C4F20201884218D8FFE7029997
:101BE00008684FF6F872CBF6FD7210444CF6CD4201
:101BF000CCF6CC42A0FB02026FF0030000EA920098
:101C0000486402990020C4F20200086418E00299B6
:101C100008684FF6F832CBF6FD7210444CF6CD4210
:101C2000CCF6CC42A0FB02026FF0030000EA920067
:101C30004864029940F20040C4F202000864FFE7E1
:101C40000299022081F8250002980068006801903E
:101C5000019847F6F0718843019002998868D1F89D
:101C60000CC00B694A6940EA0C00184310438A69AA
:101C70001043CA691043096A01430198084301905F
:101C800001980299096808600298FEF7DBFE029845
:101C90008068B0F5804F04D1FFE7029900204860CA
:101CA000FFE702990879896C08600298C16C006DA1
:101CB00048600298406888B1FFE7029840680428AD
:101CC0000CD8FFE70298FEF7F7FE0298416D00205E
:101CD00008600298816DC06D486007E0029900209D
:101CE0004865029988650299C865FFE70299002056
:101CF000C863029A012182F82510029981F8240014
:101D00008DF80F00FFE79DF80F0004B080BD0000C4
:101D100080B586B0049003910292019300208DF863
:101D20000300FFE7049890F82400012804D1FFE79E
:101D300002208DF8170065E00499012081F8240045
:101D4000FFE7FFE7049890F8250001284BD1FFE753
:101D50000499022081F8250004990020C8630498A2
:101D60000168086820F00100086004980399029A4D
:101D7000019BFEF7BFFE0498006B38B1FFE70498A3
:101D80000168086840F00E0008600CE004980168E3
:101D9000086820F00400086004980168086840F0B2
:101DA0000A000860FFE70498806C0068C003002800
:101DB00007D5FFE70498816C086840F480700860DC
:101DC000FFE70498406D38B1FFE70498416D08685B
:101DD00040F480700860FFE704980168086840F0EC
:101DE0000100086009E0FFE70499002081F8240061
:101DF000FFE702208DF80300FFE79DF803008DF850
:101E00001700FFE79DF8170006B080BD80B584B0CD
:101E1000039000F001FA02900398019001980130BC
:101E200048B1FFE740F25000C2F20000016801989B
:101E300008440190FFE7FFE700F0EEF90299401A2D
:101E40000199884201D2FFE7F6E704B080BD0000A7
:101E50008BB00A90099100200890FFE7099800686C
:101E60000899C840002800F0A681FFE7099800689B
:101E7000089A01219140084007900798002800F037
:101E80009681FFE70998406801280FD0FFE709987D
:101E9000406802280AD0FFE709984068112805D059
:101EA000FFE70998406812282FD1FFE70A98806859
:101EB000069008984100032000FA01F10698884333
:101EC00006900998C0680899490000FA01F106983F
:101ED0000843069006980A9988600A984068069018
:101EE0000899012000FA01F10698884306900998A4
:101EF0004068C0F30010089900FA01F10698084301
:101F0000069006980A994860FFE70A98C06806900C
:101F100008984100032000FA01F1069888430690D2
:101F2000099880680899490000FA01F10698084369
:101F3000069006980A99C86009984068022805D05A
:101F4000FFE709984068122826D1FFE70A98089908
:101F50006FF0030202EA51010844006A06900898F3
:101F600000F0070081000F2000FA01F10698884375
:101F7000069009980069089901F00701890000FAA4
:101F800001F106980843069006980A99089B02EA10
:101F9000530211440862FFE70A9800680690089807
:101FA0004100032000FA01F1069888430690099841
:101FB000406800F003000899490000FA01F1069812
:101FC0000843069006980A9908600998C079C006E7
:101FD000002840F1EB80FFE7FFE741F26000C4F228
:101FE0000200016841F001010160006800F0010099
:101FF00005900598FFE7089820F003000821C4F237
:10200000010140580690089800F0030081000F205D
:1020100000FA01F10698884306900A98B0F1904FB3
:1020200003D1FFE70020049042E00A9840F200410B
:10203000C4F60001884203D1FFE70120039034E099
:102040000A9840F60001C4F60001884203D1FFE778
:102050000220029026E00A9840F60041C4F60001F2
:10206000884203D1FFE70320019018E00A9841F26B
:102070000001C4F60001884203D1FFE7042000906C
:102080000AE00A9941F20042C4F600020620914299
:1020900008BF05200090FFE700980190FFE7019836
:1020A0000290FFE702980390FFE703980490FFE790
:1020B0000498089901F00301890000FA01F10698DB
:1020C000084306900698089921F003010822C4F2FB
:1020D0000102885040F20040C4F2010000680690FE
:1020E000079906988843069009988079C00728B117
:1020F000FFE70799069808430690FFE7069840F225
:102100000041C4F20101086040F20440C4F2010041
:102110000068069007990698884306900998807988
:102120008007002805D5FFE7079906980843069021
:10213000FFE7069840F20441C4F20101086040F252
:102140000840C4F201000068069007990698884389
:10215000069009988079C006002805D5FFE7079901
:10216000069808430690FFE7069840F20841C4F23B
:102170000101086040F20C40C4F2010000680690C2
:102180000799069888430690099880798006002868
:1021900005D5FFE70799069808430690FFE70698DC
:1021A00040F20C41C4F201010860FFE7FFE7089824
:1021B0000130089052E60BB07047000082B00190E9
:1021C000ADF8021001980069BDF80210084204D071
:1021D000FFE701208DF8010003E000208DF80100E9
:1021E000FFE79DF8010002B07047000082B0019047
:1021F000ADF802108DF801209DF8010028B1FFE72D
:10220000BDF802000199886104E0BDF8020001995F
:102210008862FFE702B0704740F20820C2F2000077
:102220000068704740F25000C2F20000026840F2BD
:102230000821C2F2000108681044086070470000DD
:1022400080B582B0002000908DF80700032000F0D8
:102250009BF8009800F00EF820B1FFE701208DF800
:10226000070002E000F04AF8FFE79DF8070002B01F
:1022700080BD000080B582B0019000208DF8030081
:1022800040F25000C2F20000006878B3FFE740F26D
:102290000400C2F20000006840F25001C2F20001E6
:1022A0000A684FF47A71B1FBF2F1B0FBF1F001F082
:1022B00077F9B0B9FFE701980F280DD8FFE701992A
:1022C0004FF0FF30002200F047F8019840F254012F
:1022D000C2F20001086003E001208DF80300FFE76F
:1022E00003E001208DF80300FFE703E001208DF8F3
:1022F0000300FFE79DF8030002B080BD80B582B007
:10230000FFE741F26000C4F20200016841F0010100
:102310000160006800F0010001900198FFE7FFE70D
:1023200041F25800C4F20200016841F0805101609E
:10233000006800F0805000900098FFE700F006F978
:1023400002B080BD80B582B08DF807009DF907000E
:1023500003F0CEFE02B080BD80B586B08DF81700C8
:102360000491039203F0DCFE02909DF917000190A6
:1023700002980499039A02F0F7FE0146019803F0CF
:10238000D7FE06B080BD000080B582B001900198F4
:1023900003F0F0FE02B080BD85B0039003980028E2
:1023A0005ED1FFE747F20000C4F20000006800F4CD
:1023B000C060B0F5806F49D1FFE747F28001C4F2F9
:1023C0000001086820F48070086047F20002C4F23F
:1023D00000021168012060F34A21116040F20401FB
:1023E000C2F200010968322251434DF68362C4F201
:1023F0001B32A1FB022100EB91400290FFE747F264
:102400001400C4F200000168002049050029019071
:1024100006D5FFE70298002818BF01200190FFE7CA
:102420000198C00720B1FFE7029801380290E6E763
:1024300047F21400C4F2000000684005002804D5EB
:10244000FFE703208DF813007CE008E047F28001ED
:10245000C4F20001086820F480700860FFE76DE0B6
:102460000398B0F5007F5ED1FFE747F20000C4F2A9
:102470000000006800F4C060B0F5806F49D1FFE74C
:1024800047F28001C4F20001086840F480700860DF
:1024900047F20002C4F200021168012060F34A21F1
:1024A000116040F20401C2F2000109683222514376
:1024B0004DF68362C4F21B32A1FB022100EB914076
:1024C0000290FFE747F21400C4F200000168002008
:1024D00049050029009006D5FFE70298002818BF9B
:1024E00001200090FFE70098C00720B1FFE70298A5
:1024F00001380290E6E747F21400C4F200000068D9
:102500004005002804D5FFE703208DF8130019E0EB
:1025100008E047F28001C4F20001086840F48070CE
:102520000860FFE709E047F20001C4F20001086813
:10253000022262F34A200860FFE7FFE700208DF8DF
:102540001300FFE79DF8130005B0704747F208013C
:10255000C4F20001086840F4804008607047000041
:1025600080B586B0059000208DF80B008DF80A002C
:10257000059880780007002840F1B580FFE700202B
:102580008DF8090041F25800C4F202000068C00052
:10259000002813D4FFE7FFE741F25800C4F202001D
:1025A000016841F080510160006800F080500190A6
:1025B0000198FFE701208DF80900FFE747F20001CD
:1025C000C4F20001086840F480700860FFF724FE40
:1025D0000390FFE747F20000C4F200000068C00566
:1025E00000280CD4FFE7FFF717FE0399401A0328D1
:1025F00004D3FFE703208DF80B0000E0EAE79DF825
:102600000B0000285BD1FFE741F29000C4F202000A
:10261000006800F4407004900498C8B1FFE7049883
:102620000599096C884213D0FFE741F29001C4F28A
:102630000201086820F440700490086840F480307B
:102640000860086820F48030086004980860FFE79C
:102650009DF81000C007E0B1FFE7FFF7DDFD039034
:10266000FFE741F29000C4F20200006880070028F2
:102670000ED4FFE7FFF7D0FD0399401A41F28931EC
:10268000884204D3FFE703208DF80B0000E0E8E761
:10269000FFE79DF80B0060B9FFE741F29001C4F23B
:1026A0000201086820F44070059A126C104308601B
:1026B00004E09DF80B008DF80A00FFE704E09DF8A8
:1026C0000B008DF80A00FFE79DF80900012809D1E9
:1026D000FFE741F25801C4F20201086820F080507F
:1026E0000860FFE7FFE705980078C00760B1FFE7E3
:1026F00041F28801C4F20201086820F00300059A43
:10270000526810430860FFE70598007880070028AA
:102710000CD5FFE741F28801C4F20201086820F0FD
:102720000C00059A926810430860FFE7059800784E
:10273000400700280CD5FFE741F28801C4F20201EE
:10274000086820F03000059AD26810430860FFE75F
:1027500005980078000700280CD5FFE741F28801B2
:10276000C4F20201086820F0C000059A1269104303
:102770000860FFE705980078800600280CD5FFE781
:1027800041F28801C4F20201086820F44060059A11
:10279000526910430860FFE705980078400600285A
:1027A0000CD5FFE741F28801C4F20201086820F469
:1027B0004050059A926910430860FFE70598007839
:1027C000000600280CD5FFE741F28801C4F202019F
:1027D000086820F44040059AD26910430860FFE77A
:1027E00005984078C00760B1FFE741F28801C4F264
:1027F0000201086820F44030059A126A104308600C
:10280000FFE705984078800700280CD5FFE741F2E4
:102810008801C4F20201086820F44020059A526A37
:1028200010430860FFE705984078400700281BD553
:10283000FFE741F28801C4F20201086820F4401069
:10284000059A926A104308600598806AB0F5801F67
:1028500009D1FFE741F20C01C4F20201086840F41B
:1028600080100860FFE7FFE7059840780007002820
:102870001BD5FFE741F28801C4F20201086820F489
:102880004000059AD26A104308600598C06AB0F506
:10289000800F09D1FFE741F20C01C4F20201086880
:1028A00040F480100860FFE7FFE705984078C00615
:1028B00000281BD5FFE741F28801C4F20201086835
:1028C00020F04070059A126B104308600598006B69
:1028D000B0F1807F09D1FFE741F20C01C4F202019F
:1028E000086840F480100860FFE7FFE7059840782B
:1028F000800600281BD5FFE741F28801C4F20201DF
:10290000086820F04060059A526B104308600598F3
:10291000406BB0F1006F09D1FFE741F20C01C4F246
:102920000201086840F480100860FFE7FFE705989F
:102930004078400600281BD5FFE741F28801C4F229
:102940000201086820F04060059A926B104308600D
:102950000598806BB0F1006F09D1FFE741F20C01DF
:10296000C4F20201086840F480100860FFE7FFE746
:1029700005984078000600281BD5FFE741F2880142
:10298000C4F20201086820F04050059AD26B10434F
:1029900008600598C06BB0F1805F09D1FFE741F294
:1029A0000C01C4F20201086840F480300860FFE7BF
:1029B000FFE79DF80A0006B080BD000080B586B034
:1029C0000490039100200090049820B9FFE70120B3
:1029D0008DF8170081E1039842F20001C4F2020170
:1029E000096801F00F01884216D9FFE742F20000A2
:1029F000C4F20200016821F00F01039A1143016043
:102A0000006800F00F000399884204D0FFE701201E
:102A10008DF8170061E1FFE704980078C0070028EF
:102A200000F0A380FFE704984068032839D1FFE74E
:102A300041F20000C4F2020000688001002804D4C2
:102A4000FFE701208DF8170047E102F0C5FB019078
:102A500001984BF20141C0F2C441884220D3FFE704
:102A600041F20800C4F20200006810F0F00F0AD032
:102A7000FFE7049800788007002810D5FFE7049846
:102A8000806860B9FFE741F20801C4F202010868FA
:102A9000082262F30710086080200090FFE7FFE73C
:102AA00038E00498406802280ED1FFE741F20000A8
:102AB000C4F2020000688003002804D4FFE701206C
:102AC0008DF8170009E10DE041F20000C4F20200A8
:102AD00000684005002804D4FFE701208DF81700A6
:102AE000FBE0FFE700F0FEF8019001984BF2014196
:102AF000C0F2C44188420CD3FFE741F20801C4F29E
:102B000002010868082262F3071008608020009024
:102B1000FFE7FFE741F20801C4F20201086820F074
:102B20000300049A526810430860FFF775FB029097
:102B3000FFE741F20800C4F20200006800F00C0058
:102B400004994968B0EB810F0ED0FFE7FFF764FBF3
:102B50000299401A41F28931884204D3FFE70320E9
:102B60008DF81700B9E0E4E7FFE7049800788007E4
:102B700000282CD5FFE7049800784007002809D5E5
:102B8000FFE741F20801C4F20201086840F4E06086
:102B90000860FFE704980078000700280BD5FFE7DE
:102BA00041F20801C4F20201086840F4E06020F438
:102BB00060500860FFE741F20801C4F202010868B2
:102BC00020F0F000049A9268104308600DE000982D
:102BD000802809D1FFE741F20801C4F20201086828
:102BE00020F0F0000860FFE7FFE7039842F20001E1
:102BF000C4F20201096801F00F01884228D2FFE700
:102C000042F20001C4F20201086820F00F00039AAA
:102C100010430860FFF700FB0290FFE742F200005C
:102C2000C4F20200006800F00F00039988420ED041
:102C3000FFE7FFF7F1FA0299401A41F28931884221
:102C400004D3FFE703208DF8170046E0E6E7FFE72F
:102C500004980078400700280CD5FFE741F20801EE
:102C6000C4F20201086820F4E060049AD2681043BC
:102C70000860FFE704980078000700280DD5FFE7FB
:102C800041F20801C4F20201086820F46050049A7D
:102C9000126940EAC2000860FFE700F023F841F241
:102CA0000801C4F202010968C9B20A0947F22441C5
:102CB000C0F60001895C01F01F01C84040F2040128
:102CC000C2F20001086040F25400C2F20000006845
:102CD000FFF7D0FA8DF81700FFE79DF8170006B050
:102CE00080BD000086B041F20800C4F20200006816
:102CF00000F00C00042806D1FFE742F20040C0F2C9
:102D0000F400019069E041F20800C4F2020000689A
:102D100000F00C00082806D1FFE743F20060C0F283
:102D20006E10019058E041F20800C4F20200006801
:102D300000F00C000C284BD1FFE741F20C00C4F26C
:102D40000200016801F0030104910068C1B2012092
:102D500000EB1110029004980090022815D0FFE7B4
:102D60000098032812D1FFE7029943F20060C0F2F5
:102D70006E10B0FBF1F041F20C01C4F202010968DF
:102D8000C1F306214843059011E0FFE7029942F2A2
:102D90000040C0F2F400B0FBF1F041F20C01C4F2CB
:102DA00002010968C1F3062148430590FFE741F29B
:102DB0000C00C4F20200006800F0C061022000EBC9
:102DC0001160039005980399B0FBF1F0019002E0C7
:102DD00000200190FFE7FFE7FFE7019806B070478A
:102DE000B0B588B00690069820B9FFE701208DF8AD
:102DF0001F00D0E306980078C007002800F09B80F1
:102E0000FFE741F20800C4F20200006800F00C0085
:102E1000049041F20C00C4F20200006800F00300CC
:102E2000039004980C2804D1FFE70398032804D0EA
:102E3000FFE70498082812D1FFE741F20000C4F22E
:102E4000020000688003002808D5FFE70698406864
:102E500020B9FFE701208DF81F009CE36AE0FFE73F
:102E600006984068B0F5803F09D1FFE741F20001C4
:102E7000C4F20201086840F48030086020E006983F
:102E80004068B0F5A02F0DD1FFE741F20001C4F278
:102E90000201086840F480200860086840F480302F
:102EA00008600CE041F20001C4F20201086820F45D
:102EB00080300860086820F480200860FFE7FFE7A2
:102EC000FFE706984068D0B1FFE7FFF7A5F9059046
:102ED000FFE741F20000C4F202000068800300280E
:102EE0000CD4FFE7FFF798F90599401A652804D339
:102EF000FFE703208DF81F004DE3EAE719E0FFF735
:102F00008BF90590FFE741F20000C4F2020000686F
:102F1000800300280CD5FFE7FFF77EF90599401ADA
:102F2000652804D3FFE703208DF81F0033E3EAE7A9
:102F3000FFE7FFE7FFE7069800788007002840F1E9
:102F40009F80FFE741F20800C4F20200006800F031
:102F50000C00049041F20C00C4F20200006800F082
:102F60000300039004980C2804D1FFE7039802287B
:102F700004D0FFE7049804282CD1FFE741F20000B9
:102F8000C4F2020000684005002808D5FFE7069853
:102F9000C06820B9FFE701208DF81F00FBE241F275
:102FA0000401C4F20201086820F0FE40069A12698A
:102FB00040EA0260086040F25400C2F2000000687B
:102FC000FFF758F920B1FFE701208DF81F00E2E27A
:102FD000FFE754E00698C06870B3FFE741F20001D4
:102FE000C4F20201086840F480700860FFF714F929
:102FF0000590FFE741F20000C4F2020000684005BE
:1030000000280CD4FFE7FFF707F90599401A0328B9
:1030100004D3FFE703208DF81F00BCE2EAE741F28A
:103020000401C4F20201086820F0FE40069A126909
:1030300040EA0260086021E041F20001C4F20201AE
:10304000086820F480700860FFF7E6F80590FFE755
:1030500041F20000C4F202000068400500280CD5CF
:10306000FFE7FFF7D9F80599401A032804D3FFE7D3
:1030700003208DF81F008EE2EAE7FFE7FFE7FFE796
:10308000069800780007002849D5FFE706984069B0
:1030900010B3FFE741F29401C4F20201086840F066
:1030A00001000860FFF7B8F80590FFE741F29400CF
:1030B000C4F202000068800700280CD4FFE7FFF785
:1030C000ABF80599401A032804D3FFE703208DF8D5
:1030D0001F0060E2EAE721E041F29401C4F202013C
:1030E000086820F001000860FFF796F80590FFE7F8
:1030F00041F29400C4F202000068800700280CD559
:10310000FFE7FFF789F80599401A032804D3FFE782
:1031100003208DF81F003EE2EAE7FFE7FFE706988D
:1031200000784007002840F1C680FFE700208DF8B6
:103130000B0041F25800C4F202000068C0000028F1
:1031400013D4FFE7FFE741F25800C4F20200016820
:1031500041F080510160006800F0805001900198BA
:10316000FFE701208DF80B00FFE747F20000C4F2F3
:1031700000000068C005002822D4FFE747F20001E4
:10318000C4F20001086840F480700860FFF744F85A
:103190000590FFE747F20000C4F200000068C00598
:1031A00000280CD4FFE7FFF737F80599401A0328E9
:1031B00004D3FFE703208DF81F00ECE1EAE7FFE707
:1031C000FFE706988068012809D1FFE741F29001E6
:1031D000C4F20201086840F0010008601FE0069890
:1031E000806805280DD1FFE741F29001C4F2020189
:1031F000086840F004000860086840F001000860BA
:103200000CE041F29001C4F20201086820F00100D4
:103210000860086820F004000860FFE7FFE7FFE7A8
:1032200006988068E0B1FFE7FEF7F6FF0590FFE73C
:1032300041F29000C4F202000068800700280ED41A
:10324000FFE7FEF7E9FF0599401A41F2893188420C
:1032500004D3FFE703208DF81F009CE1E8E71BE0A3
:10326000FEF7DAFF0590FFE741F29000C4F202009A
:103270000068800700280ED5FFE7FEF7CDFF05990F
:10328000401A41F28931884204D3FFE703208DF8C8
:103290001F0080E1E8E7FFE79DF80B00012809D156
:1032A000FFE741F25801C4F20201086820F08050A3
:1032B0000860FFE7FFE7069800788006002849D5F8
:1032C000FFE70698806910B3FFE741F29801C4F266
:1032D0000201086840F001000860FEF79DFF0590BC
:1032E000FFE741F29800C4F202000068800700285E
:1032F0000CD4FFE7FEF790FF0599401A032804D38A
:10330000FFE703208DF81F0045E1EAE721E041F2E5
:103310009801C4F20201086820F001000860FEF77D
:103320007BFF0590FFE741F29800C4F202000068BD
:10333000800700280CD5FFE7FEF76EFF0599401ABD
:10334000032804D3FFE703208DF81F0023E1EAE7F9
:10335000FFE7FFE70698C069002800F01881FFE743
:1033600041F20800C4F20200006800F00C000C28D2
:1033700000F0B480FFE70698C06902287CD1FFE71F
:1033800041F20001C4F20201086820F08070086078
:10339000FEF742FF0590FFE741F20000C4F2020091
:1033A0000068800100280CD5FFE7FEF735FF05997E
:1033B000401A032804D3FFE703208DF81F00EAE03A
:1033C000EAE741F20C01C4F20201086848F20C027B
:1033D000C0F29F121040DDF818C0DCF82020DCF8A5
:1033E0002450DCF828E0DCF82C306FF00F0404EBFC
:1033F0000514224342EA0E22DCF8304040F2000E6F
:10340000CFF6E07E0EEA045EAEF5001E42EA0E0242
:10341000DCF834E04FF07E4C0CEA0E6C0CF17E4C84
:1034200042EA0C0242EAC3621043086041F2000221
:10343000C4F20202106840F080701060086840F02A
:1034400080700860FEF7E8FE0590FFE741F200009B
:10345000C4F202000068800100280CD4FFE7FEF7E8
:10346000DBFE0599401A032804D3FFE703208DF8FB
:103470001F0090E0EAE730E041F20001C4F20201EF
:10348000086820F08070086041F20C01C4F202016B
:10349000086820F00300086008684FF6FF72CFF656
:1034A000EE6210400860FEF7B7FE0590FFE741F2BC
:1034B0000000C4F202000068800100280CD5FFE77C
:1034C000FEF7AAFE0599401A032804D3FFE703205C
:1034D0008DF81F005FE0EAE7FFE757E00698C06954
:1034E000012804D1FFE701208DF81F0053E041F2CD
:1034F0000C00C4F2020000680390039800F003007F
:103500000699096A88423BD1FFE7039800F0F00072
:1035100006994A6A6FF00F0101EB021188422FD120
:10352000FFE7039800F4FE400699896AB0EB012F8B
:1035300026D1FFE7039800F078400699C96AB0EBFE
:10354000C16F1DD1FFE7039800F4C00006990A6B14
:103550000021CFF6E07101EA0251A1F50011884285
:103560000ED1FFE7039800F0C06006994A6B4FF058
:103570007E4101EA026101F17E41884204D0FFE709
:1035800001208DF81F0006E0FFE7FFE7FFE70020BE
:103590008DF81F00FFE79DF81F0008B0B0BD0000C8
:1035A00080B582B00190019802F004F802B080BDAD
:1035B00081B0009001B0704781B0009001B07047B9
:1035C00081B0009001B0704781B0009001B07047A9
:1035D00081B0009001B0704781B0009001B0704799
:1035E00085B003900291FFE7039890F83C00012812
:1035F00004D1FFE702208DF813008CE0039901202D
:1036000081F83C00FFE7FFE70399022081F83D00C5
:1036100003980068406801900398006880680090F3
:103620000398006842F60041C4F20101884209D0C3
:10363000FFE70398006843F20041C4F201018842A9
:103640000AD1FFE7019820F47000019002984168C8
:10365000019808430190FFE701984FF68F71CFF66C
:10366000FF510840019002980168019808430190B9
:1036700001980399096848600398006842F6004180
:10368000C4F2010188422AD0FFE703980068B0F134
:10369000804F24D0FFE70398006840F20041C4F255
:1036A000000188421BD0FFE70398006840F6000144
:1036B000C4F20001884212D0FFE70398006843F289
:1036C0000041C4F20101884209D0FFE70398006875
:1036D00044F20001C4F2010188420ED1FFE70098D4
:1036E00020F08000009002988168009808430090C4
:1036F0000098039909688860FFE70399012081F821
:103700003D00FFE70399002081F83C00FFE700201F
:103710008DF81300FFE79DF8130005B07047000017
:1037200081B0009001B0704780B582B000900098E1
:1037300020B9FFE701208DF8070045E0009890F8D8
:103740003D0040B9FFE70099002081F83C00009857
:1037500000F03EF8FFE70099022081F83D00009953
:1037600051F8040B01F0BCFF0099012081F84800DA
:10377000FFE70099012081F83E00009981F83F00A1
:10378000009981F84000009981F84100009981F882
:103790004200009981F84300FFE7FFE7009901200C
:1037A00081F84400009981F84500009981F84600AD
:1037B000009981F84700FFE70099012081F83D005A
:1037C00000208DF80700FFE79DF8070002B080BDDC
:1037D00080B586B0059005980068B0F1804F19D18A
:1037E000FFE7FFE741F25800C4F20200016841F030
:1037F00001010160006800F0010004900498FFE7F7
:103800001C20029000221146FEF7A6FD0298FEF74A
:1038100099FD22E00598006841F20001C4F2000120
:10382000884219D1FFE7FFE741F25800C4F20200D5
:10383000016841F010010160006800F01000039081
:103840000398FFE73620019000221146FEF784FD21
:103850000198FEF777FDFFE7FFE706B080BD0000A7
:1038600083B00190019890F83D00012804D0FFE753
:1038700001208DF80B0060E00199022081F83D00E5
:1038800001980168C86840F00100C86001980068AC
:1038900042F60041C4F2010188422AD0FFE70198B4
:1038A0000068B0F1804F24D0FFE70198006840F233
:1038B0000041C4F2000188421BD0FFE70198006874
:1038C00040F60001C4F20001884212D0FFE70198DF
:1038D000006843F20041C4F20101884209D0FFE7C9
:1038E0000198006844F20001C4F20101884219D134
:1038F000FFE70198006880680721C0F201010840D5
:103900000090009806280CD0FFE70098B0F5803FA3
:1039100007D0FFE701980168086840F001000860DF
:10392000FFE706E001980168086840F001000860C0
:10393000FFE700208DF80B00FFE79DF80B0003B0B8
:103940007047000081B0009000980168C86820F0BE
:103950000100C860FFE700980068006A41F2111199
:10396000084210D1FFE700980068006A44F2444121
:10397000084207D1FFE700980168086820F00100BD
:103980000860FFE7FFE7FFE70099012081F83D00AD
:10399000002001B07047000080B586B0049003910C
:1039A000FFE7049890F83C00012804D1FFE70220CB
:1039B0008DF81700CFE00499012081F83C00FFE763
:1039C000FFE70499022081F83D00049800688068B0
:1039D000029002984FF68871CFF6CE71084002909F
:1039E000029820F47F400290029804990968886048
:1039F000039800680190002800F09780FFE7019885
:103A0000102800F09280FFE70198202800F08D80B8
:103A1000FFE70198302800F08880FFE701984028F0
:103A200076D0FFE70198502858D0FFE7019860282A
:103A300061D0FFE7019870282CD0FFE70198B0F51E
:103A4000805F26D0FFE70198B0F5005F37D0FFE731
:103A50000198B0F1101F68D0FFE701982021C0F253
:103A60001001884261D0FFE701983021C0F21001B7
:103A700088425AD0FFE701984021C0F210018842E5
:103A800053D0FFE701987021C0F2100188424CD05A
:103A900052E052E004980068039B5A689968DB681A
:103AA00001F0FAFE0498006880680290029840F0E5
:103AB0007700029002980499096888603DE00498B4
:103AC0000068039B5A689968DB6801F0E5FE04987A
:103AD0000168886840F4804088602EE0049800689F
:103AE000039A5168D26802F0AFFA04980068502136
:103AF00001F0ECFE21E004980068039A5168D26856
:103B000002F0CAFA04980068602101F0DFFE14E0B8
:103B100004980068039A5168D26802F095FA0498F4
:103B20000068402101F0D2FE07E004980068039984
:103B3000096801F0CBFE00E0FFE70499012081F85D
:103B40003D00FFE70499002081F83C00FFE70020DA
:103B50008DF81700FFE79DF8170006B080BD000044
:103B600081B0009001B0704780B582B0019001989B
:103B70000068006900F002010020B0EB510F28D06E
:103B8000FFE701980068C06800F002010020B0EB78
:103B9000510F1DD0FFE7019801686FF00200086126
:103BA000019901200877019800688069800720B199
:103BB000FFE70198FFF7D4FF06E0019800F032FA22
:103BC000019800F071FCFFE7019900200877FFE7FA
:103BD000FFE701980068006900F004010020B0EBE5
:103BE000910F29D0FFE701980068C06800F0040138
:103BF0000020B0EB910F1ED0FFE7019801686FF035
:103C00000400086101990220087701980068806922
:103C100010F4407F04D0FFE70198FFF7A1FF06E012
:103C2000019800F0FFF9019800F03EFCFFE70199D0
:103C300000200877FFE7FFE701980068006900F0BF
:103C400008010020B0EBD10F28D0FFE701980068F1
:103C5000C06800F008010020B0EBD10F1DD0FFE7D5
:103C6000019801686FF00800086101990420087745
:103C700001980068C069800720B1FFE70198FFF74D
:103C80006FFF06E0019800F0CDF9019800F00CFC00
:103C9000FFE7019900200877FFE7FFE70198006838
:103CA000006900F010010020B0EB111F29D0FFE7E0
:103CB00001980068C06800F010010020B0EB111FEF
:103CC0001ED0FFE7019801686FF0100008610199AC
:103CD0000820087701980068C06910F4407F04D07C
:103CE000FFE70198FFF73CFF06E0019800F09AF922
:103CF000019800F0D9FBFFE7019900200877FFE762
:103D0000FFE7019800680069C00780B1FFE70198EC
:103D10000068C068C00748B1FFE7019801686FF00C
:103D200001000861019800F0C3FBFFE7FFE701987D
:103D300000680069C1B20020B0EBD11F13D0FFE7CB
:103D400001980068C068C1B20020B0EBD11F09D053
:103D5000FFE7019801686FF0800008610198FFF7A4
:103D60002BFCFFE7FFE701980068006900F4807111
:103D70000020B0EB112F13D0FFE701980068C06856
:103D8000C1B20020B0EBD11F09D0FFE70198016854
:103D90006FF4807008610198FFF70AFCFFE7FFE706
:103DA00001980068006900F040010020B0EB911F0D
:103DB00014D0FFE701980068C06800F040010020BF
:103DC000B0EB911F09D0FFE7019801686FF0400048
:103DD0000861019800F098FBFFE7FFE70198006891
:103DE000006900F020010020B0EB511F14D0FFE764
:103DF00001980068C06800F020010020B0EB511F5E
:103E000009D0FFE7019801686FF020000861019870
:103E1000FFF7D6FBFFE7FFE701980068006900F4B1
:103E200080110020B0EB115F14D0FFE7019800680B
:103E3000C06800F480110020B0EB115F09D0FFE7EB
:103E4000019801686FF4801008610198FFF7C0FBCA
:103E5000FFE7FFE701980068006900F40011002007
:103E6000B0EB515F14D0FFE701980068C06800F420
:103E700000110020B0EB515F09D0FFE70198016805
:103E80006FF4001008610198FFF79EFBFFE7FFE762
:103E900001980068006900F480010020B0EB915F98
:103EA00014D0FFE701980068C06800F4800100208A
:103EB000B0EB915F09D0FFE7019801686FF48000D3
:103EC00008610198FFF788FBFFE7FFE701980068AA
:103ED000006900F400010020B0EBD15F14D0FFE7CF
:103EE00001980068C06800F400010020B0EBD15FC9
:103EF00009D0FFE7019801686FF40000086101989C
:103F0000FFF70EFCFFE7FFE702B080BD80B588B089
:103F10000790002006900590049003900290079867
:103F20000068B0F1804F1ED1FFE7FFE741F24C007F
:103F3000C4F20200016841F001010160006800F074
:103F4000010001900198FFE70620029002200390F3
:103F5000002004900590012006904FF0904002A9A7
:103F6000FDF776FFFFE708B080BD000080B586B0A2
:103F7000049003910292FFE7049890F83C00012816
:103F800004D1FFE702208DF8170046E004990120D4
:103F900081F83C00FFE7FFE702980190142831D830
:103FA0000199DFE801F00B2F2F2F112F2F2F172F43
:103FB0002F2F1D2F2F2F232F2F2F2900049800681C
:103FC000039901F09BFC1EE004980068039901F03E
:103FD0003FFD18E004980068039901F0F1FD12E03C
:103FE00004980068039901F0A3FE0CE004980068AF
:103FF000039901F055FF06E004980068039901F069
:10400000B9FF00E0FFE7FFE70499002081F83C00DA
:10401000FFE700208DF81700FFE79DF8170006B0B6
:1040200080BD000080B582B0019001980068B0F1B9
:10403000804F40F08580FFE70198007F02283FD144
:10404000FFE740F25C10C2F200000068806B40F2B3
:104050008801C2F2000108804FF090400221FEF773
:10406000ADF8012812D1FFE740F28800C2F200004B
:10407000008840F21401C2F200010968084440F2CD
:104080005C11C2F200010968886311E040F2880007
:10409000C2F20000008840F20C01C2F2000109687F
:1040A000084440F25C11C2F2000109688863FFE72E
:1040B00040F25C10C2F20000042100F09BF83EE0E8
:1040C00040F25C10C2F200000068C06B40F2880150
:1040D000C2F2000108804FF090400421FEF76EF814
:1040E000012812D1FFE740F28800C2F200000088E8
:1040F00040F21801C2F200010968084440F25C1164
:10410000C2F200010968C86311E040F28800C2F2FF
:104110000000008840F21001C2F200010968084462
:1041200040F25C11C2F200010968C863FFE740F287
:104130005C10C2F20000082100F05CF8FFE7FFE726
:1041400002B080BD80B582B00090009820B9FFE732
:1041500001208DF8070045E0009890F83D0040B937
:10416000FFE70099002081F83C00009800F03EF83D
:10417000FFE70099022081F83D00009951F8040BF7
:1041800001F0AEFA0099012081F84800FFE700999C
:10419000012081F83E00009981F83F00009981F8E4
:1041A0004000009981F84100009981F8420000998F
:1041B00081F84300FFE7FFE70099012081F8440000
:1041C000009981F84500009981F84600009981F82E
:1041D0004700FFE70099012081F83D0000208DF89D
:1041E0000700FFE79DF8070002B080BD81B0009096
:1041F00001B0704780B590B00E900D910D9828B920
:10420000FFE70E9890F83E000B9034E00D980428DC
:1042100005D1FFE70E9890F83F000A9028E00D982E
:10422000082805D1FFE70E9890F8400009901CE09F
:104230000D980C2805D1FFE70E9890F841000890E2
:1042400010E00D98102805D1FFE70E9890F8420075
:10425000079004E00E9890F843000790FFE7079856
:104260000890FFE708980990FFE709980A90FFE790
:104270000A980B90FFE70B98012804D0FFE7012074
:104280008DF83F000CE10D9828B9FFE70E99022048
:1042900081F83E0038E00D98042806D1FFE70E991A
:1042A000022081F83F0006902CE00D98082806D1E6
:1042B000FFE70E99022081F8400005901FE00D985D
:1042C0000C2806D1FFE70E99022081F841000490E6
:1042D00012E00D98102806D1FFE70E99022081F810
:1042E0004200039005E00E99022081F843000390FC
:1042F000FFE703980490FFE704980590FFE705980F
:104300000690FFE70698FFE70D9802900C2825D845
:104310000299DFE801F0072323230E23232315232B
:1043200023231C000E980168C86840F00200C86092
:1043300015E00E980168C86840F00400C8600EE0FF
:104340000E980168C86840F00800C86007E00E9841
:104350000168C86840F01000C86000E0FFE70E98F0
:1043600000680D990122009201F07AFA00980E99E6
:10437000096842F60042C4F20102914201902DD038
:10438000FFE70E980168012043F20042C4F20102E7
:104390009142019022D0FFE70E980168012044F27B
:1043A0000002C4F201029142019017D0FFE70E987B
:1043B0000168012044F20042C4F2010291420190DE
:1043C0000CD0FFE70E9800684BF60001CBF6FE71AB
:1043D0000844B0FA80F040090190FFE70198C00757
:1043E00038B1FFE70E980168486C40F4004048641B
:1043F000FFE70E98006842F60041C4F201018842CE
:104400002AD0FFE70E980068B0F1804F24D0FFE774
:104410000E98006840F20041C4F2000188421BD0AF
:10442000FFE70E98006840F60001C4F200018842E0
:1044300012D0FFE70E98006843F20041C4F2010178
:10444000884209D0FFE70E98006844F20001C4F2E8
:104450000101884219D1FFE70E98006880680721A2
:10446000C0F2010108400C900C9806280CD0FFE720
:104470000C98B0F5803F07D0FFE70E9801680868F8
:1044800040F001000860FFE706E00E980168086848
:1044900040F001000860FFE700208DF83F00FFE7D3
:1044A0009DF83F0010B080BD81B0009001B0704712
:1044B00080B582B001900198006841F20001C4F219
:1044C000000188421DD1FFE740F28E01C2F20001D7
:1044D0000020087040F2A810C2F20000FFF732FA84
:1044E00040F22800C2F20000006840F21C01C2F253
:1044F0000001086040F22400C2F200000068486039
:10450000FFE702B080BD000081B0009001B07047AD
:10451000FFE7FEE780B586B0002005900490039089
:10452000029001904FF6FF710191029003210491D6
:10453000039040F60000C4F6000001A9FDF788FCD6
:1045400006B080BD80B586B0002005900490039031
:10455000029001904FF6FF71019101210291032118
:104560000491039040F60000C4F6000001A9FDF795
:104570006FFC06B080BD000080B584B0ADF80E00C1
:10458000002101910291084600F0B0F900F002FA12
:1045900001980290FFE70298800A4A2809D8FFE7AD
:1045A000BDF80E0000F0C0F9FFE70298013002905C
:1045B000F1E704B080BD000080B58CB000200B9006
:1045C0000A90099008900790FFE741F24C00C4F26E
:1045D0000200016841F004010160006800F004007D
:1045E00006900698FFE7FFE741F24C00C4F2020094
:1045F000016841F001010160006800F001000590D0
:104600000598FFE7FFE741F24C00C4F202000168A1
:1046100041F002010160006800F00200049004987B
:10462000FFE74FF4487007900120009008900320A6
:1046300001900A9000200290099040F20040C4F6D8
:10464000000007A90391FDF703FC009B019A029863
:1046500003994FF4807CCDF81CC008930A9209900E
:104660004FF09040FDF7F4FBFFF76CFF1821C4F604
:104670000001086840F48070086040F21841C4F6F8
:104680000001086840F4087008600CB080BD0000AC
:1046900080B582B08DF80700ADF804108DF80320C6
:1046A0009DF8030020388DF803009DF80700BDF841
:1046B00004109DF8032002EB420347F23442C0F697
:1046C000000202EB031200F037F802B080BD0000D8
:1046D00080B586B08DF8170004910020039040F259
:1046E0003F10ADF80A00FFE7049801780020019020
:1046F00039B1FFE703990020142938BF0120019048
:10470000FFE70198C007A0B1FFE79DF81700BDF8CB
:104710000A10049A1278FFF7BBFFBDF80A001038A0
:10472000ADF80A000498013004900398013003901A
:10473000DAE706B080BD000080B586B08DF81700BE
:10474000ADF81410049200200090039002908DF8B0
:1047500007009DF817008DF807009DF80700BDF8C9
:10476000141000F0C3F800980390FFE7039817288F
:1047700037D8FFE700F00EF900200290FFE702981B
:104780000F281ED8FFE70498039930F8110002990A
:10479000C840C00740B9FFE740F20000C2F2000085
:1047A000008800F0C1F807E040F25800C2F20000B3
:1047B000008800F0B9F8FFE7FFE7029801300290A7
:1047C000DDE79DF8070001308DF807009DF8070030
:1047D000BDF8141000F08AF8FFE703980130039049
:1047E000C4E706B080BD000080B5FFF7E5FE0020FD
:1047F00000F01CF8014640F28A00C2F2000001807D
:10480000008848F23021884203D1FFE700F032FDF2
:1048100002E000F0BFFDFFE7002000F007F840F2E3
:104820008A01C2F20001088080BD000080B582B01C
:104830008DF8070040F22842C4F60002106840F4E8
:1048400000701060106840F48070106040F21841F1
:10485000C4F600010091086840F0200008609DF84F
:10486000070040F61403C4F600031860106840F017
:104870002000106000BF00BF00BF086840F02000AB
:104880000860086840F480700860FFF743FE282144
:10489000C4F60001086840F48070086000BF00BFE3
:1048A00000BF40F61000C4F600000068ADF8040038
:1048B0001821C4F60001086840F480700860FFF712
:1048C00041FE0099086840F400700860BDF80400DB
:1048D00002B080BD81B0ADF80200BDF8020040F228
:1048E0000001C2F20001088001B0704780B582B0BB
:1048F0008DF80700ADF804109DF80710202000F097
:104900007BF8BDF80410212000F076F802B080BDDD
:1049100081B0ADF80200BDF8020040F25801C2F2C9
:104920000001088001B0704781B0ADF8020040F28C
:104930002842C4F60002106840F40070106040F293
:104940001841C4F60001086840F4807008600868E7
:1049500040F020000860BDF8020040F61403C4F6E1
:1049600000031860106840F02000106000BF00BF16
:1049700000BF086840F020000860086840F48070BC
:10498000086000BF00BF00BF086840F40070086006
:1049900001B0704740F22842C4F60002106840F4AB
:1049A00000701060106840F48070106040F2184190
:1049B000C4F60001086840F02000086040F61403C7
:1049C000C4F6000322201860106840F02000106038
:1049D00000BF00BF00BF086840F020000860086802
:1049E00040F48070086000BF00BF00BF086840F45A
:1049F000007008607047000081B08DF80300ADF8CA
:104A0000001040F22842C4F60002106840F4007022
:104A10001060106840F48070106040F21841C4F6D5
:104A20000001086840F0200008609DF8030040F68F
:104A30001403C4F600031860106840F020001060F2
:104A400000BF00BF00BF086840F020000860086891
:104A500040F480700860BDF800001860106840F0F5
:104A60002000106000BF00BF00BF086840F02000B9
:104A70000860086840F48070086001B0704700006A
:104A800081B00090009880684FF6C071C7F6FF7142
:104A9000084002300099886001B0704781B00090F2
:104AA000009988684FF6C072C5F6FF7210408860A2
:104AB00001B0704781B00090009880684FF6C071D7
:104AC000C7F6FF71084001300099886001B0704757
:104AD00081B000900098806840F080504FF6C0711F
:104AE000C7F6FF7108400099886001B07047000068
:104AF00081B000900098806800F0E07001B07047CD
:104B000081B000900098806800F01F0001B07047ED
:104B100083B0029001910298019900EB810060300E
:104B200000900098006800F0F84003B07047000063
:104B300081B0009000988068C0F3C00001B0704759
:104B400081B0009000988068C00F01B070470000ED
:104B500081B0009000988068C0F3407001B0704749
:104B600081B0009000988068C0F3400001B07047A9
:104B700081B000900098806800F0010001B070479B
:104B800081B000900098806800F0010001B070478B
:104B900081B0009000988068C0F3007001B0704749
:104BA00081B0009000988068C0F3800001B0704729
:104BB00081B0009000988068C0F3800001B0704719
:104BC00081B000900098C06800F44060B0FA80F0B6
:104BD000400901B07047000084B003900291019237
:104BE0000398029901F4407100EB9110303000906D
:104BF00000980068029901F01F021F21914088432C
:104C00000199C1F38461914008430099086004B0A0
:104C10007047000081B00090009880684FF6C07126
:104C2000C7F6FF71084004300099886001B07047F2
:104C300084B00390029101920398029901F00071EF
:104C400000EBD15014300090009800680299C1F335
:104C500004520721914088430199914008430099EB
:104C6000086004B07047000083B002900191009288
:104C70000298D0F8B00001996FF3DF418843009AA1
:104C800002F018034FF6FF72C0F20702DA4011403B
:104C900008440299C1F8B00003B0704782B0019097
:104CA00000910198806820F47C10009908430199D4
:104CB000886002B07047000082B0019000910198B6
:104CC000806820F0E070009908430199886002B084
:104CD0007047000085B004900391029201930498FC
:104CE000039900EB810060300090009800684FF25B
:104CF0000001C0F2FF310140029800F0F840019A33
:104D00001043084340F000400099086005B0704728
:104D100084B00390029101920398029900EB810004
:104D2000603000900098006820F0007001990843FE
:104D30000099086004B0704784B00390029101921A
:104D40000398029900EB81006030009000980068A1
:104D500020F08070019908430099086004B0704702
:104D600084B00390029101920398029900EB8100B4
:104D7000603000900098006820F0004001990843DE
:104D80000099086004B0704782B0019000910198CA
:104D9000406920F00040009908430199486102B041
:104DA0007047000082B001900091019880684FF632
:104DB000C071C3F6FF710140009800F080400844C4
:104DC00000F100400199886002B0704780B58EB054
:104DD000002101910D910C910B910A91099108917B
:104DE0000791069105910491039140F29000C2F25F
:104DF000000002904FF0A04202604FF44032426047
:104E00008160C160016141610422826101770122F8
:104E10004277026280F82410C162016380F8382072
:104E2000C16380F84010FCF7FDFB18B1FFE7FBF70A
:104E3000C5FEFFE700200B9040F29000C2F2000098
:104E40000BA9FBF733FF18B1FFE7FBF7B7FEFFE74E
:104E500040F60000C2F63060039006200490032064
:104E600005907F200690042007900020089040F2D3
:104E70009000C2F2000003A9FBF7D4FF18B1FFE7CE
:104E8000FBF79CFEFFE70EB080BD000082B0FFE79D
:104E900041F24800C4F20200016841F004010160DF
:104EA000006800F0040001900198FFE7FFE741F27D
:104EB0004800C4F20200016841F00101016000688D
:104EC00000F0010000900098FFE702B0704700007A
:104ED00080B592B00020119010900F900E900D9020
:104EE000FFE741F24C00C4F20200016841F0040106
:104EF0000160006800F004000C900C98FFE7FFE7E9
:104F000041F24C00C4F20200016841F0200101604E
:104F1000006800F020000B900B98FFE7FFE741F2DC
:104F20004C00C4F20200016841F001010160006818
:104F300000F001000A900A98FFE7FFE741F24C00F9
:104F4000C4F20200016841F002010160006800F053
:104F5000020009900998FFE7FFE741F24C00C4F214
:104F60000200016841F008010160006800F00800DB
:104F700008900898FFE740F60000C4F60000029091
:104F80004FF6FF71019100220592FDF72FF9059A66
:104F900040F60040C4F60000069004210391FDF79E
:104FA00025F9019A029805990D92012204920E9218
:104FB0000F9110910DA90791FCF74AFF049A0598EB
:104FC00007990D920E900F904FF09040FCF740FF24
:104FD0000598079907220D920E900F9040F200401D
:104FE000C4F60000FCF734FFDDF80CC0049B059A02
:104FF00006980799CDF834C00E930F921092FCF7E3
:1050000027FF12B080BD000080B590B00021019153
:105010000F910E910D910C910B910A9109910891AC
:1050200007910691059104910391029140F25C1061
:10503000C2F200004FF0804202604F224260816065
:105040004FF6FF72C260016180218161FEF76CFB47
:1050500018B1FFE7FBF7B2FDFFE74FF480500C906B
:1050600040F25C10C2F200000CA9FEF795FC18B1EA
:10507000FFE7FBF7A3FDFFE740F25C10C2F2000080
:10508000FFF760F818B1FFE7FBF798FDFFE7002096
:1050900009900B9040F25C10C2F2000009A9FEF7E3
:1050A0009FFA18B1FFE7FBF789FDFFE73020029078
:1050B0004FF47A70039000200490069040F25C1048
:1050C000C2F2000002A90422FEF750FF18B1FFE768
:1050D000FBF774FDFFE740F25C10C2F2000002A98A
:1050E0000822FEF743FF18B1FFE7FBF767FDFFE774
:1050F00040F25C10C2F20000FEF708FF10B080BD65
:1051000080B584B0002103910291019140F2A81072
:10511000C2F2000041F20002C4F20002026041F259
:105120006F724260816049F63F42C2608161FEF762
:10513000FBFA18B1FFE7FBF741FDFFE70020019004
:10514000039040F2A810C2F2000001A9FEF748FA4D
:1051500018B1FFE7FBF732FDFFE704B080BD0000A8
:10516000FFE7FEE7FFE7FEE788B0079006910592AC
:10517000079800F0070004900498C0F10700052884
:1051800003D3FFE70420019004E00498C0F1070076
:105190000190FFE70198039004980430062803D893
:1051A000FFE70020009003E0049803380090FFE739
:1051B0000098029006980399012202FA01F1013940
:1051C0000840029B984005999A40013A11400843D3
:1051D00008B070477047000086B041F20C00C4F27E
:1051E0000200016801F0030104910068C1B20120CE
:1051F00000EB1110029004980090022815D0FFE7F0
:105200000098032812D1FFE7029943F20060C0F230
:105210006E10B0FBF1F041F20C01C4F2020109681A
:10522000C1F306214843059011E0FFE7029942F2DD
:105230000040C0F2F400B0FBF1F041F20C01C4F206
:1052400002010968C1F3062148430590FFE741F2D6
:105250000C00C4F20200006800F0C061022000EB04
:105260001160039005980399B0FBF1F0019001984B
:1052700006B0704780B586B00020009001210191F2
:10528000FFF7BAFB4FF47A70FBF76EFC00990198B8
:10529000FFF7B2FB102041F29071FFF7ADFB6020E9
:1052A0004FF41C51FFF7A8FB01996120FFF7A4FB05
:1052B000462002210291FFF79FFB132048F21001C4
:1052C000FFF79AFB122048F2FE01FFF795FB0298C8
:1052D0004FF4A061FFF790FB0320059041F23001ED
:1052E000FFF78AFB302040F203310491FFF784FB83
:1052F00004993120FFF780FB04993220FFF77CFBF3
:1053000033204FF440710391FFF776FB0599342069
:10531000FFF772FB04993520FFF76EFB362014214E
:10532000FFF76AFB04993720FFF766FB04993820E2
:10533000FFF762FB04993920FFF75EFB03993A20DF
:10534000FFF75AFB05993B20FFF756FB04993C20D9
:10535000FFF752FB3D204FF4A051FFF74DFB922089
:105360004FF40071FFF748FB04999320FFF744FBCB
:10537000902040F60D01FFF73FFB059841F2180120
:10538000FFF73AFB072040F27311FFF735FB06B039
:1053900080BD000080B58CB0E32043F20801FFF728
:1053A0002BFBE72012210191FFF726FBEF2006904F
:1053B00041F23121FFF720FB0120079000210991E4
:1053C000FFF71AFB02204FF4E061FFF715FB032003
:1053D0000A9041F23001FFF70FFB09990420049075
:1053E000FFF70AFB082040F20721FFF705FB0999A8
:1053F0000920FFF701FB09990A20FFF7FDFA099937
:105400000C20FFF7F9FA09990D20FFF7F5FA099931
:105410000F200590FFF7F0FA099910200890FFF788
:10542000EBFA1120009007210B91FFF7E5FA0198A4
:105430000999FFF7E1FA099913200290FFF7DCFAC6
:10544000C820FCF7E3FC089841F29061FFF7D4FA1A
:10545000009840F22721FFF7CFFA32200390FCF7A3
:10546000D5FC01981D21FFF7C7FA0398FCF7CEFC85
:1054700002984FF40061FFF7BFFA29201421FFF7CB
:10548000BBFA2B200B21FFF7B7FA0398FCF7BEFC01
:1054900009992020FFF7B0FA09992120FFF7ACFA0B
:1054A0000B993020FFF7A8FA312040F20771FFF77F
:1054B000A3FA03980621FFF79FFA352040F2047102
:1054C000FFF79AFA362041F60471FFF795FA04992E
:1054D0003720FFF791FA09993820FFF78DFA392024
:1054E00040F20671FFF788FA3C2040F20171FFF7A5
:1054F00083FA05993D20FFF77FFA09995020FFF7BD
:105500007BFA06995120FFF777FA09995220FFF7A5
:1055100073FA532040F23F11FFF76EFA60204FF408
:105520001C51FFF769FA07996120FFF765FA09999D
:105530006A20FFF761FA09998020FFF75DFA09995F
:105540008120FFF759FA09998220FFF755FA099946
:105550008320FFF751FA09998420FFF74DFA099942
:105560008520FFF749FA08999020FFF745FA099935
:105570009220FFF741FA0A999320FFF73DFA952010
:105580004FF48871FFF738FA09999720FFF734FA3A
:1055900009999820FFF730FA0A9841F21801FFF7AD
:1055A0002BFA0B9840F27311FFF726FA0CB080BD6E
:1055B0007047000080B582B0009000980138B0F1CB
:1055C000807F03D3FFE70120019019E000980138A4
:1055D0004EF21401CEF2000108604FF0FF300F21AF
:1055E00000F0A6FD4EF21801CEF200010020086086
:1055F0004EF21002CEF20002072111600190FFE787
:10560000019802B080BD000080B5FCF70BFE80BDA4
:1056100080B5A6B018A801903821FAF700FE002046
:105620001790169015901490139002A84421FAF741
:10563000F6FD4FF40070FCF7AFFE019801211891C0
:105640004FF48031199102211F910322209221925F
:1056500014222292239124912591FDF7C1FB18B1C8
:10566000FFE7FBF7ABFAFFE70F201390032014903E
:10567000002015901690179013A80221FDF79EF9AF
:1056800018B1FFE7FBF79AFAFFE74FF400400290EA
:105690004FF00050119002A8FCF762FF18B1FFE72D
:1056A000FBF78CFAFFE726B080BD00004EF688516C
:1056B000CEF20001086840F47000086070470000F6
:1056C00080B540F25C10C2F20000FEF74DFA80BDDA
:1056D00080B540F2A810C2F20000FEF745FA80BD86
:1056E00083B002900191029800680090029842F6FF
:1056F0000041C4F2010188421DD0FFE70298B0F1D9
:10570000804F18D0FFE7029840F20041C4F2000138
:10571000884210D0FFE7029840F60001C4F2000171
:10572000884208D0FFE7029843F20041C4F2010129
:1057300088420AD1FFE7009820F07000009001989D
:105740004168009808430090FFE7029842F6004144
:10575000C4F20101884235D0FFE70298B0F1804FD2
:1057600030D0FFE7029840F20041C4F200018842C5
:1057700028D0FFE7029840F60001C4F200018842F9
:1057800020D0FFE7029843F20041C4F201018842B1
:1057900018D0FFE7029844F20001C4F201018842E8
:1057A00010D0FFE7029844F20041C4F201018842A0
:1057B00008D0FFE7029844F60001C4F201018842D4
:1057C0000AD1FFE7009820F4407000900198C1686A
:1057D000009808430090FFE7009820F080000199AE
:1057E0004969084300900098029908600198806810
:1057F0000299C8620198006802998862029842F68C
:105800000041C4F20101884220D0FFE7029843F230
:105810000041C4F20101884218D0FFE7029844F227
:105820000001C4F20101884210D0FFE7029844F25F
:105830000041C4F20101884208D0FFE7029844F613
:105840000001C4F20101884205D1FFE70198006917
:1058500002990863FFE702990120486103B070478D
:1058600084B0039002910192029800F01F01012080
:1058700088400090009A0399086A90430862019852
:10588000029901F01F0100FA01F20399086A10431E
:10589000086204B07047000085B004900391029242
:1058A0000193049880680090009820F47F40009055
:1058B00003980299019A41EA0221014300980843A2
:1058C000009000980499886005B0704783B00290FA
:1058D000019102988068009000984FF68F71CFF682
:1058E000CF710840009001980099084340F00700EC
:1058F000009000980299886003B0704785B00490CA
:1059000003910499086A20F0010008620498006A73
:105910000190049840680090049880690290029871
:105920004FF68F71CFF6FE7108400290029820F07A
:1059300003000290039801680298084302900198BE
:1059400020F00200019003988168019808430190BB
:10595000049842F60041C4F20101884220D0FFE7DA
:10596000049843F20041C4F20101884218D0FFE7D5
:10597000049844F20001C4F20101884210D0FFE70C
:10598000049844F20041C4F20101884208D0FFE7C4
:10599000049844F60001C4F2010188420ED1FFE7E9
:1059A000019820F0080001900398C168019808430D
:1059B0000190019820F004000190FFE7049842F65E
:1059C0000041C4F20101884220D0FFE7049843F26D
:1059D0000041C4F20101884218D0FFE7049844F264
:1059E0000001C4F20101884210D0FFE7049844F29C
:1059F0000041C4F20101884208D0FFE7049844F650
:105A00000001C4F20101884213D1FFE7009820F49D
:105A100080700090009820F4007000900398416915
:105A2000009808430090039881690098084300900B
:105A3000FFE70098049948600298049988610398E8
:105A400040680499486301980499086205B070475A
:105A500085B0049003910499086A20F01000086250
:105A60000498006A01900498406800900498806946
:105A70000290029848F6FF71CFF6FF61084002904D
:105A8000029820F44070029003980168029840EA5E
:105A900001200290019820F0200001900398816875
:105AA000019840EA01100190049842F60041C4F2C6
:105AB0000101884229D0FFE7049843F20041C4F273
:105AC0000101884221D0FFE7049844F20001C4F2AA
:105AD0000101884203D1FFE70020B0B9FFE7049835
