:020000040800F2
:10000000B0060020ED010008454C00084D400008F6
:10001000414C0008DD070008C96A00080000000024
:1000200000000000000000000000000091510008E6
:100030001109000800000000B54C0008E951000853
:10004000070200080702000807020008070200086C
:10005000070200080702000807020008070200085C
:10006000070200080702000807020008E10700086D
:10007000070200080702000807020008070200083C
:10008000070200080000000007020008070200083D
:10009000070200080702000807020008070200081C
:1000A000070200080702000807020008070200080C
:1000B00007020008070200080702000807020008FC
:1000C00007020008070200080702000807020008EC
:1000D00007020008B96A00080702000807020008C2
:1000E00007020008070200080702000807020008CC
:1000F00007020008070200080702000800000000CD
:1001000000000000070200080000000007020008CD
:1001100007020008000000009D520008AD520008D0
:10012000070200080702000807020008070200088B
:10013000070200080000000000000000070200089D
:10014000070200080702000800000000000000008D
:10015000000000000000000000000000000000009F
:10016000000000000000000000000000070200087E
:10017000070200080000000000000000000000006E
:10018000000000000702000800000000000000005E
:10019000000000000000000000000000000000005F
:1001A000000000000000000007020008070200082D
:1001B000070200080702000807020008000000000C
:1001C000000000000702000800000000000000001E
:1001D0000702000807020008DFF80CD000F076FAEA
:1001E00000480047B9710008B00600200648804763
:1001F00006480047FEE7FEE7FEE7FEE7FEE7FEE70C
:10020000FEE7FEE7FEE7FEE789520008D901000895
:100210002DE9F05F0546002092469B46884606463B
:10022000814640241BE0284641464746224600F0CE
:1002300085F853465A46C01A914110D311461846C4
:10024000224600F06CF82D1A67EB01084F46224653
:100250000120002100F063F817EB00094E41201E39
:10026000A4F10104DFDC484631462A464346BDE896
:10027000F09FD2B201E000F8012B491EFBD270477B
:100280000022F6E710B513460A4604461946FFF762
:10029000F0FF204610BD30B5041E71F1000404DBF0
:1002A0004FF00044404264EB0101141E73F100045E
:1002B00005DB1C464FF00043524263EB0403801AF7
:1002C000994101D3012030BD002030BD00F0004233
:1002D00030F000400AD0C10D01F56071C0F3160086
:1002E00042EA0151C208400711437047002001460D
:1002F000704730B50B46014600202022012409E05A
:1003000021FA02F59D4205D303FA02F5491B04FACE
:1003100002F52844151EA2F10102F1DC30BD202AAD
:1003200004DB203A00FA02F1002070479140C2F14C
:10033000200320FA03F3194390407047202A04DB7E
:10034000203A21FA02F00021704721FA02F3D0404E
:10035000C2F1200291400843194670472DE9FE4F33
:10036000804681EA0300C00F0C46009021F0004156
:1003700023F00045B8EB0200A94105D240462146D2
:1003800090461C460B46024623F00040104347D0DF
:10039000270DC7F30A00C3F30A510290401A0190D7
:1003A00040286BDAC3F3130040F4801B0098924698
:1003B00020B10023D2EB030A63EB0B0B01985946E3
:1003C000C0F140025046FFF7AAFF06460D465046D0
:1003D0005946019A00F092F910EB0800614100249F
:1003E00087EA115284EAE7731A4340D0009A62B355
:1003F000019A012A4FEA075215DC001B61EB02014A
:100400004FF0004202EA0752CDE90042001C41F5DC
:10041000801132462B4600F092F903B0BDE8F08F10
:1004200040462146F9E7001B61EB0201001C41F543
:10043000801300185B412018A2F5001747EB030159
:1004400040EAD570B6196D4111E06D084FEA3606E5
:1004500045EAC0754FEA0752001B61EB0201001C20
:1004600041F5801149084FEA3000001951413246E8
:100470002B4603B0BDE8F04F00F052B900980122BE
:1004800040000023D0EB020263EBE07300982146AA
:100490004FEAE074B8EB000061EB0401E9E783F098
:1004A00000435BE781F0004158E72DE9FE4F81EA08
:1004B000030404F0004421F0004100944FF0000BCD
:1004C00023F0004350EA01045ED052EA03045BD0FB
:1004D000C3F30A54C1F30A552C44A4F2F334019433
:1004E000A0FB0254C1F3130141F48011C3F31303C1
:1004F00043F4801301FB024400FB034E840A970A75
:1005000044EA815447EA8357A4FB076802958D0AA1
:1005100005FB07854FEA932C04FB0C542705029D2D
:100520004FEA065847EA1637B5EB08056EEB070C9D
:10053000870E920E47EA811742EA8312A7FB020157
:10054000B6EB0B0164EB00042B0D43EA0C335E1891
:1005500044EB1C50DA465146E7FB0201C5F3130495
:100560004FEA0B3343EA14534FEA0432019C43EA47
:100570000603A4F10C040294009CCDE900B400F041
:10058000DEF803B0BDE8F08F00200146F9E72DE961
:10059000F04D81EA030404F0004B21F000451446BD
:1005A0004FF0000A23F0004150EA050220D054EA3F
:1005B00001021DD0C5F30A570246C5F31303C1F368
:1005C0001300C1F30A5640F4801543F48013A7EBDF
:1005D0000608101BD64608F2FD3873EB050002D35F
:1005E00008F1010801E092185B41B8F1000F03DA4D
:1005F00000200146BDE8F08D00204FF48011064632
:1006000084460EE0171B73EB050705D3121B63EB43
:10061000050306434CEA010C49084FEA30009218E2
:100620005B4150EA0107EDD152EA030012D082EAA1
:10063000040083EA0501084305D0101BAB4106D234
:100640000122002306E000224FF0004302E06FF099
:10065000010253101AEB06004CEB085110EB0A0094
:1006600041EB0B01BDE8F04D00F05AB8C1F30A525E
:10067000C1F3130140F2FF3341F480119A4202DAD0
:1006800000200146704740F233439A42A2F23342BF
:1006900002DC5242FFF752BEFFF741BE30B5041EE6
:1006A00071F1000404DB4FF00044404264EB0101AF
:1006B000141E73F1000405DB1C464FF00043524248
:1006C00063EB0403994208BF904230BD1CB5094852
:1006D0000090094801900546009C06E0E06840F063
:1006E000010394E8070098471034AC42F6D3FFF7B3
:1006F00077FD0000E891000808920008202A06DB38
:10070000CB17203A41FA02F043EAE07306E041FADF
:1007100002F3D040C2F120029140084319467047CD
:1007200010B5141E73F1000408DA401C41F10001F9
:1007300092185B411A4301D120F0010010BD2DE950
:10074000F04D92469B4611B1B1FA81F202E0B0FA47
:1007500080F220329046FFF7E2FD04460F4640EA61
:100760000A0041EA0B0153465A46084313D011468A
:1007700053EA010019D0C8F140025046FFF7DEFDF0
:1007800005460E46504659464246FFF7C8FD084307
:1007900005D0012004E020463946BDE8F08D002058
:1007A000054346EAE0762C4337430A986305E40A9A
:1007B000A0EB08000022FD0A44EA47540A3002D5A3
:1007C00000200146E9E7010510196941DDE9084506
:1007D00000196941BDE8F04DA2E70000FFE7FEE720
:1007E00080B540F25C00C2F2000000F075F980BDF7
:1007F00084B003900398006840F20741C4F20201FC
:10080000884206D8FFE740F60000C4F202000090DC
:1008100005E040F62000C4F202000090FFE70098D7
:1008200002900398007808384CF6CD41CCF6CC41C4
:10083000A0FB011000090190029803994A6C22F074
:10084000030210448864039940F68000C4F2020059
:10085000C864019800F01F010120884003990865D1
:1008600004B0704782B0019001980079009000991F
:1008700040F6FC00C4F2020000EB810001994865DB
:10088000019940F64010C4F20200886500980138D2
:1008900000F01F01012088400199C86502B070472F
:1008A00084B003900291019200930398C16C006D93
:1008B00048600398406D28B1FFE70398816DC06DD3
:1008C0004860FFE70398016C406C00F01F020120B4
:1008D00090404860009803990968486003988068D0
:1008E000102809D1FFE701980399096888600298E8
:1008F00003990968C86008E002980399096888604C
:10090000019803990968C860FFE704B070470000C8
:100910007047000082B0ADF806000020ADF804007A
:10092000FFE7BDF80400BDF80610884219DAFFE7BA
:100930000020ADF80200FFE7BDF8020040F6B73135
:10094000884207DCFFE7FFE7BDF802000130ADF8A1
:100950000200F1E7FFE7BDF804000130ADF8040044
:10096000DFE702B07047000081B0EFF3108072B68D
:100970000090FFE7FEE7000082B0019000208DF8B4
:100980000300019890F82500022807D0FFE701999D
:100990000420C86301208DF803002DE00198016850
:1009A000086820F00E0008600198816C086820F447
:1009B0008070086001980168086820F001000860F4
:1009C0000198016C406C00F01F02012090404860CB
:1009D0000198C16C006D48600198406D58B1FFE707
:1009E0000198416D086820F4807008600198816D5D
:1009F000C06D4860FFE7FFE70199012081F82500FD
:100A0000FFE70199002081F82400FFE79DF803002B
:100A100002B0704780B582B0019000208DF80300CD
:100A2000019890F82500022811D0FFE701990420D1
:100A3000C8630199012081F82500FFE70199002092
:100A400081F82400FFE701208DF803003FE00198C2
:100A50000168086820F00E000860019801680868C5
:100A600020F0010008600198816C086820F4807013
:100A700008600198016C406C00F01F02012090405A
:100A800048600198C16C006D48600198406D58B194
:100A9000FFE70198416D086820F4807008600198B4
:100AA000816DC06D4860FFE70199012081F8250044
:100AB000FFE70199002081F82400FFE70198806B8F
:100AC00020B1FFE70198816B8847FFE7FFE79DF8BA
:100AD000030002B080BD000080B584B0039003988D
:100AE000006C00680290039800680068019002980A
:100AF0000399496C01F01F01C8404007002825D523
:100B0000FFE79DF80400400700281FD5FFE7039882
:100B1000006800688006002807D4FFE70398016892
:100B2000086820F004000860FFE70398016C406C3F
:100B300000F01F020420904048600398006B20B131
:100B4000FFE70398016B8847FFE76EE0029803997F
:100B5000496C01F01F01C840800700282FD5FFE72E
:100B60009DF804008007002829D5FFE70398006856
:100B70000068800600280BD4FFE703980168086826
:100B800020F00A0008600399012081F82500FFE7A2
:100B90000398016C406C00F01F02022090404860F6
:100BA000FFE70399002081F82400FFE70398C06A5B
:100BB00020B1FFE70398C16A8847FFE734E0029855
:100BC0000399496C01F01F01C8400007002829D58E
:100BD000FFE79DF804000007002823D5FFE70398EE
:100BE0000168086820F00E0008600398026C406CF1
:100BF00000F01F01012000FA01F151600399C86360
:100C0000039981F82500FFE70399002081F824006B
:100C1000FFE70398406B20B1FFE70398416B8847DB
:100C2000FFE700E0FFE7FFE7FFE704B080BD00005B
:100C300080B584B00290029820B9FFE701208DF8BA
:100C40000F009CE00298006840F20741C4F20201E4
:100C5000884218D8FFE7029908684FF6F872CBF679
:100C6000FD7210444CF6CD42CCF6CC42A0FB020201
:100C70006FF0030000EA9200486402990020C4F279
:100C80000200086418E0029908684FF6F832CBF6C3
:100C9000FD7210444CF6CD42CCF6CC42A0FB0202D1
:100CA0006FF0030000EA92004864029940F20040AD
:100CB000C4F202000864FFE70299022081F82500CF
:100CC0000298006800680190019847F6F071884327
:100CD000019002998868D1F80CC00B694A6940EA12
:100CE0000C00184310438A691043CA691043096A0B
:100CF000014301980843019001980299096808602E
:100D00000298FFF775FD02988068B0F5804F04D116
:100D1000FFE7029900204860FFE702990879896C93
:100D200008600298C16C006D48600298406888B104
:100D3000FFE70298406804280CD8FFE70298FFF705
:100D400091FD0298416D002008600298816DC06D90
:100D5000486007E002990020486502998865029979
:100D6000C865FFE702990020C863029A012182F852
:100D70002510029981F824008DF80F00FFE79DF8F7
:100D80000F0004B080BD000080B586B004900391D0
:100D90000292019300208DF80300FFE7049890F879
:100DA0002400012804D1FFE702208DF8170065E038
:100DB0000499012081F82400FFE7FFE7049890F8E8
:100DC000250001284BD1FFE70499022081F8250076
:100DD00004990020C86304980168086820F00100A5
:100DE000086004980399029A019BFFF759FD049843
:100DF000006B38B1FFE704980168086840F00E0006
:100E000008600CE004980168086820F0040008609D
:100E100004980168086840F00A000860FFE7049839
:100E2000806C0068C003002807D5FFE70498816C38
:100E3000086840F480700860FFE70498406D38B19E
:100E4000FFE70498416D086840F480700860FFE790
:100E500004980168086840F00100086009E0FFE7B5
:100E60000499002081F82400FFE702208DF8030098
:100E7000FFE79DF803008DF81700FFE79DF81700C6
:100E800006B080BD80B584B0039000F0FFF90290F9
:100E9000039801900198013048B1FFE740F2340017
:100EA000C2F200000168019808440190FFE7FFE7E3
:100EB00000F0ECF90299401A0199884201D2FFE74B
:100EC000F6E704B080BD00008BB00A9009910020C5
:100ED0000890FFE7099800680899C840002800F0CA
:100EE000A581FFE709980068089A01219140084010
:100EF00007900798002800F09581FFE7099840685F
:100F000000F00300012807D0FFE70998406800F0CF
:100F1000030002282FD1FFE70A98806806900898FE
:100F20004100032000FA01F10698884306900998D1
:100F3000C0680899490000FA01F106980843069034
:100F400006980A9988600A984068069008990120D6
:100F500000FA01F106988843069009984068C0F3AA
:100F60000010089900FA01F10698084306900698C7
:100F70000A994860FFE70998406800F003000328D9
:100F800018D0FFE70A98C06806900898410003202F
:100F900000FA01F10698884306900998806808993C
:100FA000490000FA01F106980843069006980A994C
:100FB000C860FFE70998406800F00300022826D1C6
:100FC000FFE70A9808996FF0030202EA510108440A
:100FD000006A0690089800F0070081000F2000FAD0
:100FE00001F106988843069009980069089901F074
:100FF0000701890000FA01F1069808430690069857
:101000000A99089B02EA530211440862FFE70A9812
:101010000068069008984100032000FA01F1069844
:10102000884306900998406800F003000899490039
:1010300000FA01F106980843069006980A9908609C
:10104000099880798007002800F0EB80FFE7FFE730
:1010500041F26000C4F20200016841F00101016048
:10106000006800F0010005900598FFE7089820F05F
:1010700003000821C4F2010140580690089800F0CE
:10108000030081000F2000FA01F1069888430690C2
:101090000A98B0F1904F03D1FFE70020049042E09E
:1010A0000A9840F20041C4F60001884203D1FFE7EC
:1010B0000120039034E00A9840F60001C4F60001D4
:1010C000884203D1FFE70220029026E00A9840F60A
:1010D0000041C4F60001884203D1FFE703200190DC
:1010E00018E00A9841F20001C4F60001884203D1D9
:1010F000FFE7042000900AE00A9941F20042C4F69A
:1011000000020620914208BF05200090FFE70098EA
:101110000190FFE701980290FFE702980390FFE734
:1011200003980490FFE70498089901F003018900EF
:1011300000FA01F10698084306900698089921F0F4
:1011400003010822C4F20102885040F20840C4F2B0
:101150000100006806900799069888430690099850
:101160008079C006002805D5FFE70799069808434F
:101170000690FFE7069840F20841C4F201010860BA
:1011800040F20C40C4F201000068069007990698EE
:1011900088430690099880798006002805D5FFE7E6
:1011A0000799069808430690FFE7069840F20C411D
:1011B000C4F20101086040F20440C4F2010000687A
:1011C00006900799069888430690099880798007C9
:1011D000002805D5FFE70799069808430690FFE722
:1011E000069840F20441C4F20101086040F2004058
:1011F000C4F201000068069007990698884306909B
:1012000009988079C00728B1FFE707990698084335
:101210000690FFE7069840F20041C4F20101086021
:10122000FFE7FFE708980130089053E60BB07047DE
:1012300082B00190ADF8021001980069BDF802106B
:10124000084204D0FFE701208DF8010003E00020F0
:101250008DF80100FFE79DF8010002B07047000023
:1012600082B00190ADF802108DF801209DF80100C8
:1012700028B1FFE7BDF802000199886104E0BDF8DC
:10128000020001998862FFE702B0704740F2A42093
:10129000C2F200000068704740F23400C2F2000061
:1012A000026840F2A421C2F20001086810440860FC
:1012B0007047000080B582B0002000908DF80700D4
:1012C000032000F09BF8009800F00EF820B1FFE733
:1012D00001208DF8070002E000F04AF8FFE79DF8D2
:1012E000070002B080BD000080B582B001900020F0
:1012F0008DF8030040F23400C2F20000006878B3B9
:10130000FFE740F20800C2F20000006840F234013A
:10131000C2F200010A684FF47A71B1FBF2F1B0FB3E
:10132000F1F001F0A1F9B0B9FFE701980F280DD84D
:10133000FFE701994FF0FF30002200F047F80198D5
:1013400040F23801C2F20001086003E001208DF88C
:101350000300FFE703E001208DF80300FFE703E04F
:1013600001208DF80300FFE79DF8030002B080BD67
:1013700080B582B0FFE741F26000C4F2020001686C
:1013800041F001010160006800F001000190019846
:10139000FFE7FFE741F25800C4F20200016841F0A4
:1013A00080510160006800F0805000900098FFE7D5
:1013B00000F006F902B080BD80B582B08DF807005C
:1013C0009DF9070005F082FB02B080BD80B586B0B4
:1013D0008DF817000491039205F090FB02909DF99F
:1013E0001700019002980499039A03F02DFC01461E
:1013F000019805F08BFB06B080BD000080B582B07F
:101400000190019805F0A4FB02B080BD85B0039067
:10141000039800285ED1FFE747F20000C4F2000005
:10142000006800F4C060B0F5806F49D1FFE747F273
:101430008001C4F20001086820F48070086047F25F
:101440000002C4F200021168012060F34A21116019
:1014500040F20801C2F200010968322251434DF600
:101460008362C4F21B32A1FB022100EB9140029087
:10147000FFE747F21400C4F20000016800204905AC
:101480000029019006D5FFE70298002818BF012027
:101490000190FFE70198C00720B1FFE702980138EB
:1014A0000290E6E747F21400C4F20000006840052D
:1014B000002804D5FFE703208DF813007CE008E046
:1014C00047F28001C4F20001086820F480700860CF
:1014D000FFE76DE00398B0F5007F5ED1FFE747F2CC
:1014E0000000C4F20000006800F4C060B0F5806F36
:1014F00049D1FFE747F28001C4F20001086840F4D7
:101500008070086047F20002C4F2000211680120F6
:1015100060F34A21116040F20801C2F2000109683B
:10152000322251434DF68362C4F21B32A1FB0221E9
:1015300000EB91400290FFE747F21400C4F2000074
:101540000168002049050029009006D5FFE70298B0
:10155000002818BF01200090FFE70098C00720B1C5
:10156000FFE7029801380290E6E747F21400C4F260
:10157000000000684005002804D5FFE703208DF82F
:10158000130019E008E047F28001C4F20001086886
:1015900040F480700860FFE709E047F20001C4F200
:1015A00000010868022262F34A200860FFE7FFE7B3
:1015B00000208DF81300FFE79DF8130005B0704779
:1015C00047F20801C4F20001086840F48040086056
:1015D0007047000080B586B0059000208DF80B00A4
:1015E0008DF80A00059880780007002840F1B58042
:1015F000FFE700208DF8090041F25800C4F2020014
:101600000068C000002813D4FFE7FFE741F258004C
:10161000C4F20200016841F080510160006800F0EE
:10162000805001900198FFE701208DF80900FFE745
:1016300047F20001C4F20001086840F480700860BD
:10164000FFF724FE0390FFE747F20000C4F200001A
:101650000068C00500280CD4FFE7FFF717FE0399C8
:10166000401A032804D3FFE703208DF80B0000E0A5
:10167000EAE79DF80B0000285BD1FFE741F29000FC
:10168000C4F20200006800F4407004900498C8B1ED
:10169000FFE704980599096C884213D0FFE741F2EF
:1016A0009001C4F20201086820F4407004900868B8
:1016B00040F480300860086820F4803008600498A6
:1016C0000860FFE79DF81000C007E0B1FFE7FFF7F3
:1016D000DDFD0390FFE741F29000C4F202000068D4
:1016E000800700280ED4FFE7FFF7D0FD0399401ACA
:1016F00041F28931884204D3FFE703208DF80B00C3
:1017000000E0E8E7FFE79DF80B0060B9FFE741F272
:101710009001C4F20201086820F44070059A126C2E
:101720001043086004E09DF80B008DF80A00FFE705
:1017300004E09DF80B008DF80A00FFE79DF8090012
:10174000012809D1FFE741F25801C4F202010868FB
:1017500020F080500860FFE7FFE705980078C00799
:1017600060B1FFE741F28801C4F20201086820F08D
:101770000300059A526810430860FFE70598007857
:10178000800700280CD5FFE741F28801C4F202016E
:10179000086820F00C00059A926810430860FFE783
:1017A00005980078400700280CD5FFE741F2880132
:1017B000C4F20201086820F03000059AD268104394
:1017C0000860FFE705980078000700280CD5FFE7C0
:1017D00041F28801C4F20201086820F0C000059AB5
:1017E000126910430860FFE705980078800600281A
:1017F0000CD5FFE741F28801C4F20201086820F429
:101800004060059A526910430860FFE70598007828
:10181000400600280CD5FFE741F28801C4F202011E
:10182000086820F44050059A926910430860FFE769
:1018300005980078000600280CD5FFE741F28801E2
:10184000C4F20201086820F44040059AD2691043AE
:101850000860FFE705984078C00760B1FFE741F2F4
:101860008801C4F20201086820F44030059A126A27
:1018700010430860FFE705984078800700280CD5E2
:10188000FFE741F28801C4F20201086820F4402019
:10189000059A526A10430860FFE7059840784007B0
:1018A00000281BD5FFE741F28801C4F20201086855
:1018B00020F44010059A926A104308600598806AE7
:1018C000B0F5801F09D1FFE741F20C01C4F202011B
:1018D000086840F480100860FFE7FFE7059840784B
:1018E000000700281BD5FFE741F28801C4F202017E
:1018F000086820F44000059AD26A104308600598F1
:10190000C06AB0F5800F09D1FFE741F20C01C4F2C3
:101910000201086840F480100860FFE7FFE70598BF
:101920004078C00600281BD5FFE741F28801C4F2C9
:101930000201086820F04070059A126B104308609D
:101940000598006BB0F1807F09D1FFE741F20C01EF
:10195000C4F20201086840F480100860FFE7FFE766
:1019600005984078800600281BD5FFE741F28801E2
:10197000C4F20201086820F04060059A526B1043DF
:1019800008600598406BB0F1006F09D1FFE741F2A4
:101990000C01C4F20201086840F480100860FFE7FF
:1019A000FFE705984078400600281BD5FFE741F285
:1019B0008801C4F20201086820F04060059A926B29
:1019C000104308600598806BB0F1006F09D1FFE704
:1019D00041F20C01C4F20201086840F48010086072
:1019E000FFE7FFE705984078000600281BD5FFE7D2
:1019F00041F28801C4F20201086820F04050059AC3
:101A0000D26B104308600598C06BB0F1805F09D1BC
:101A1000FFE741F20C01C4F20201086840F4803093
:101A20000860FFE7FFE79DF80A0006B080BD0000F0
:101A300080B586B00490039100200090049820B9EE
:101A4000FFE701208DF8170081E1039842F20001C1
:101A5000C4F20201096801F00F01884216D9FFE7BC
:101A600042F20000C4F20200016821F00F01039A63
:101A700011430160006800F00F000399884204D010
:101A8000FFE701208DF8170061E1FFE70498007877
:101A9000C007002800F0A380FFE7049840680328EF
:101AA00039D1FFE741F20000C4F202000068800172
:101AB000002804D4FFE701208DF8170047E103F068
:101AC000FBF8019001984BF20141C0F2C4418842F9
:101AD00020D3FFE741F20800C4F20200006810F0D2
:101AE000F00F0AD0FFE7049800788007002810D58F
:101AF000FFE70498806860B9FFE741F20801C4F28B
:101B000002010868082262F3071008608020009034
:101B1000FFE7FFE738E00498406802280ED1FFE7AE
:101B200041F20000C4F2020000688003002804D4DF
:101B3000FFE701208DF8170009E10DE041F20000F8
:101B4000C4F2020000684005002804D4FFE7012029
:101B50008DF81700FBE0FFE700F02CF901900198E9
:101B60004BF20141C0F2C44188420CD3FFE741F27D
:101B70000801C4F202010868082262F30710086035
:101B800080200090FFE7FFE741F20801C4F2020164
:101B9000086820F00300049A526810430860FFF7B9
:101BA00075FB0290FFE741F20800C4F202000068F2
:101BB00000F00C0004994968B0EB810F0ED0FFE7EC
:101BC000FFF764FB0299401A41F28931884204D33D
:101BD000FFE703208DF81700B9E0E4E7FFE704987A
:101BE0000078800700282CD5FFE70498007840078C
:101BF000002809D5FFE741F20801C4F20201086894
:101C000040F4E0600860FFE70498007800070028CF
:101C10000BD5FFE741F20801C4F20201086840F465
:101C2000E06020F460500860FFE741F20801C4F270
:101C30000201086820F0F000049A926810430860DE
:101C40000DE00098802809D1FFE741F20801C4F2B5
:101C50000201086820F0F0000860FFE7FFE7039842
:101C600042F20001C4F20201096801F00F0188424A
:101C700028D2FFE742F20001C4F20201086820F016
:101C80000F00039A10430860FFF700FB0290FFE784
:101C900042F20000C4F20200006800F00F00039955
:101CA00088420ED0FFE7FFF7F1FA0299401A41F29D
:101CB0008931884204D3FFE703208DF8170046E0FE
:101CC000E6E7FFE704980078400700280CD5FFE717
:101CD00041F20801C4F20201086820F4E060049AAD
:101CE000D26810430860FFE70498007800070028D6
:101CF0000DD5FFE741F20801C4F20201086820F4A3
:101D00006050049A126940EAC2000860FFE700F0E0
:101D100051F841F20801C4F202010968C9B20A0986
:101D200047F64071C0F60001895C01F01F01C84010
:101D300040F20801C2F20001086040F23800C2F22D
:101D400000000068FFF7D0FA8DF81700FFE79DF854
:101D5000170006B080BD000040F20800C2F200008B
:101D60000068704780B5FFF7F7FF41F20801C4F241
:101D700002010968C1F3022247F65071C0F6000162
:101D8000895C01F01F01C84080BD000080B5FFF7ED
:101D9000E3FF41F20801C4F202010968C1F3C22263
:101DA00047F65071C0F60001895C01F01F01C84080
:101DB00080BD000086B041F20800C4F20200006855
:101DC00000F00C00042806D1FFE742F20040C0F208
:101DD000F400019069E041F20800C4F202000068DA
:101DE00000F00C00082806D1FFE743F20060C0F2C3
:101DF0006E10019058E041F20800C4F20200006841
:101E000000F00C000C284BD1FFE741F20C00C4F2AB
:101E10000200016801F0030104910068C1B20120D1
:101E200000EB1110029004980090022815D0FFE7F3
:101E30000098032812D1FFE7029943F20060C0F234
:101E40006E10B0FBF1F041F20C01C4F2020109681E
:101E5000C1F306214843059011E0FFE7029942F2E1
:101E60000040C0F2F400B0FBF1F041F20C01C4F20A
:101E700002010968C1F3062148430590FFE741F2DA
:101E80000C00C4F20200006800F0C061022000EB08
:101E90001160039005980399B0FBF1F0019002E006
:101EA00000200190FFE7FFE7FFE7019806B07047C9
:101EB000B0B588B00690069820B9FFE701208DF8EC
:101EC0001F00CCE306980078C007002800F09B8034
:101ED000FFE741F20800C4F20200006800F00C00C5
:101EE000049041F20C00C4F20200006800F003000C
:101EF000039004980C2804D1FFE70398032804D02A
:101F0000FFE70498082812D1FFE741F20000C4F26D
:101F1000020000688003002808D5FFE706984068A3
:101F200020B9FFE701208DF81F0098E36AE0FFE782
:101F300006984068B0F5803F09D1FFE741F2000103
:101F4000C4F20201086840F48030086020E006987E
:101F50004068B0F5A02F0DD1FFE741F20001C4F2B7
:101F60000201086840F480200860086840F480306E
:101F700008600CE041F20001C4F20201086820F49C
:101F800080300860086820F480200860FFE7FFE7E1
:101F9000FFE706984068D0B1FFE7FFF777F90590B3
:101FA000FFE741F20000C4F202000068800300284D
:101FB0000CD4FFE7FFF76AF90599401A652804D3A6
:101FC000FFE703208DF81F0049E3EAE719E0FFF778
:101FD0005DF90590FFE741F20000C4F202000068DD
:101FE000800300280CD5FFE7FFF750F90599401A48
:101FF000652804D3FFE703208DF81F002FE3EAE7ED
:10200000FFE7FFE7FFE7069800788007002840F128
:102010009F80FFE741F20800C4F20200006800F070
:102020000C00049041F20C00C4F20200006800F0C1
:102030000300039004980C2804D1FFE703980228BA
:1020400004D0FFE7049804282CD1FFE741F20000F8
:10205000C4F2020000684005002808D5FFE7069892
:10206000C06820B9FFE701208DF81F00F7E241F2B8
:102070000401C4F20201086820F0FE40069A1269C9
:1020800040EA0260086040F23800C2F200000068D6
:10209000FFF72AF920B1FFE701208DF81F00DEE2EB
:1020A000FFE754E00698C06870B3FFE741F2000113
:1020B000C4F20201086840F480700860FFF7E6F897
:1020C0000590FFE741F20000C4F2020000684005FD
:1020D00000280CD4FFE7FFF7D9F80599401A032828
:1020E00004D3FFE703208DF81F00B8E2EAE741F2CE
:1020F0000401C4F20201086820F0FE40069A126949
:1021000040EA0260086021E041F20001C4F20201ED
:10211000086820F480700860FFF7B8F80590FFE7C2
:1021200041F20000C4F202000068400500280CD50E
:10213000FFE7FFF7ABF80599401A032804D3FFE740
:1021400003208DF81F008AE2EAE7FFE7FFE7FFE7D9
:10215000069800780007002849D5FFE706984069EF
:1021600010B3FFE741F29401C4F20201086840F0A5
:1021700001000860FFF78AF80590FFE741F294003C
:10218000C4F202000068800700280CD4FFE7FFF7C4
:102190007DF80599401A032804D3FFE703208DF842
:1021A0001F005CE2EAE721E041F29401C4F202017F
:1021B000086820F001000860FFF768F80590FFE765
:1021C00041F29400C4F202000068800700280CD598
:1021D000FFE7FFF75BF80599401A032804D3FFE7F0
:1021E00003208DF81F003AE2EAE7FFE7FFE70698D1
:1021F00000784007002840F1C680FFE700208DF8F6
:102200000B0041F25800C4F202000068C000002830
:1022100013D4FFE7FFE741F25800C4F2020001685F
:1022200041F080510160006800F0805001900198F9
:10223000FFE701208DF80B00FFE747F20000C4F232
:1022400000000068C005002822D4FFE747F2000123
:10225000C4F20001086840F480700860FFF716F8C7
:102260000590FFE747F20000C4F200000068C005D7
:1022700000280CD4FFE7FFF709F80599401A032856
:1022800004D3FFE703208DF81F00E8E1EAE7FFE74A
:10229000FFE706988068012809D1FFE741F2900125
:1022A000C4F20201086840F0010008601FE00698CF
:1022B000806805280DD1FFE741F29001C4F20201C8
:1022C000086840F004000860086840F001000860F9
:1022D0000CE041F29001C4F20201086820F0010014
:1022E0000860086820F004000860FFE7FFE7FFE7E8
:1022F00006988068E0B1FFE7FEF7C8FF0590FFE7AA
:1023000041F29000C4F202000068800700280ED459
:10231000FFE7FEF7BBFF0599401A41F28931884279
:1023200004D3FFE703208DF81F0098E1E8E71BE0E6
:10233000FEF7ACFF0590FFE741F29000C4F2020007
:102340000068800700280ED5FFE7FEF79FFF05997C
:10235000401A41F28931884204D3FFE703208DF807
:102360001F007CE1E8E7FFE79DF80B00012809D199
:10237000FFE741F25801C4F20201086820F08050E2
:102380000860FFE7FFE7069800788006002849D537
:10239000FFE70698806910B3FFE741F29801C4F2A5
:1023A0000201086840F001000860FEF76FFF059029
:1023B000FFE741F29800C4F202000068800700289D
:1023C0000CD4FFE7FEF762FF0599401A032804D3F7
:1023D000FFE703208DF81F0041E1EAE721E041F229
:1023E0009801C4F20201086820F001000860FEF7BD
:1023F0004DFF0590FFE741F29800C4F2020000682B
:10240000800700280CD5FFE7FEF740FF0599401A2A
:10241000032804D3FFE703208DF81F001FE1EAE73C
:10242000FFE7FFE70698C069002800F01481FFE786
:1024300041F20800C4F20200006800F00C000C2811
:1024400000F0B080FFE70698C06902287CD1FFE762
:1024500041F20001C4F20201086820F080700860B7
:10246000FEF714FF0590FFE741F20000C4F20200FE
:102470000068800100280CD5FFE7FEF707FF0599EB
:10248000401A032804D3FFE703208DF81F00E6E07D
:10249000EAE741F20C01C4F20201086848F20C02BA
:1024A000C0F29F121040DDF818C0DCF82020DCF8E4
:1024B0002450DCF828E0DCF82C306FF00F0404EB3B
:1024C0000514224342EA0E22DCF8304040F2000EAE
:1024D000CFF6E07E0EEA045EAEF5001E42EA0E0282
:1024E000DCF834E04FF07E4C0CEA0E6C0CF17E4CC4
:1024F00042EA0C0242EAC3621043086041F2000261
:10250000C4F20202106840F080701060086840F069
:1025100080700860FEF7BAFE0590FFE741F2000008
:10252000C4F202000068800100280CD4FFE7FEF727
:10253000ADFE0599401A032804D3FFE703208DF868
:102540001F008CE0EAE72CE041F20001C4F2020136
:10255000086820F080700860FEF798FE0590FFE79D
:1025600041F20000C4F202000068800100280CD58E
:10257000FFE7FEF78BFE0599401A032804D3FFE717
:1025800003208DF81F006AE0EAE741F20C01C4F273
:10259000020108684FF6FC72CFF6EE621040086048
:1025A000FFE757E00698C069012804D1FFE7012042
:1025B0008DF81F0053E041F20C00C4F202000068E5
:1025C0000390039800F003000699096A88423BD102
:1025D000FFE7039800F0F00006994A6A6FF00F01D8
:1025E00001EB021188422FD1FFE7039800F4FE406F
:1025F0000699896AB0EB012F26D1FFE7039800F016
:1026000078400699C96AB0EBC16F1DD1FFE7039806
:1026100000F4C00006990A6B0021CFF6E07101EAD0
:102620000251A1F5001188420ED1FFE7039800F096
:10263000C06006994A6B4FF07E4101EA026101F1E8
:102640007E41884204D0FFE701208DF81F0006E09C
:10265000FFE7FFE7FFE700208DF81F00FFE79DF889
:102660001F0008B0B0BD000080B582B00190019895
:1026700002F090FD02B080BD81B0009001B07047C3
:1026800081B0009001B0704781B0009001B07047F8
:1026900081B0009001B0704781B0009001B07047E8
:1026A00081B0009001B0704785B003900291FFE7C0
:1026B000039890F83C00012804D1FFE702208DF830
:1026C00013008CE00399012081F83C00FFE7FFE74D
:1026D0000399022081F83D0003980068406801904A
:1026E00003980068806800900398006842F60041F3
:1026F000C4F20101884209D0FFE70398006843F261
:102700000041C4F2010188420AD1FFE7019820F498
:102710007000019002984168019808430190FFE71A
:1027200001984FF68F71CFF6FF5108400190029843
:10273000016801980843019001980399096848606D
:102740000398006842F60041C4F2010188422AD091
:10275000FFE703980068B0F1804F24D0FFE70398AB
:10276000006840F20041C4F2000188421BD0FFE73C
:102770000398006840F60001C4F20001884212D0BC
:10278000FFE70398006843F20041C4F20101884268
:1027900009D0FFE70398006844F20001C4F2010188
:1027A00088420ED1FFE7009820F080000090029848
:1027B0008168009808430090009803990968886030
:1027C000FFE70399012081F83D00FFE7039900200E
:1027D00081F83C00FFE700208DF81300FFE79DF82B
:1027E000130005B07047000081B0009001B0704741
:1027F00080B582B00090009820B9FFE701208DF8E5
:10280000070045E0009890F83D0040B9FFE70099C7
:10281000002081F83C00009800F03EF8FFE70099A6
:10282000022081F83D00009951F8040B02F046FDAA
:102830000099012081F84800FFE70099012081F804
:102840003E00009981F83F00009981F8400000990E
:1028500081F84100009981F84200009981F8430015
:10286000FFE7FFE70099012081F84400009981F813
:102870004500009981F84600009981F84700FFE77C
:102880000099012081F83D0000208DF80700FFE746
:102890009DF8070002B080BD80B586B00590059810
:1028A0000068B0F1804F10D1FFE7FFE741F2580018
:1028B000C4F20200016841F001010160006800F00B
:1028C000010004900498FFE745E00598006841F294
:1028D0000001C4F20001884219D1FFE7FFE741F28D
:1028E0005800C4F20200016841F010010160006864
:1028F00000F0100003900398FFE7362001900022BB
:102900001146FEF763FD0198FEF756FD22E005989B
:10291000006841F20041C4F20001884219D1FFE78A
:10292000FFE741F25800C4F20200016841F02001C3
:102930000160006800F0200002900298FFE7372055
:10294000009000221146FEF741FD0098FEF734FD8D
:10295000FFE7FFE7FFE706B080BD000083B001900E
:10296000019890F83D00012804D0FFE701208DF880
:102970000B0060E00199022081F83D000198016898
:10298000C86840F00100C8600198006842F6004144
:10299000C4F2010188422AD0FFE701980068B0F133
:1029A000804F24D0FFE70198006840F20041C4F254
:1029B000000188421BD0FFE70198006840F6000143
:1029C000C4F20001884212D0FFE70198006843F288
:1029D0000041C4F20101884209D0FFE70198006874
:1029E00044F20001C4F20101884219D1FFE70198C5
:1029F000006880680721C0F201010840009000983B
:102A000006280CD0FFE70098B0F5803F07D0FFE71D
:102A100001980168086840F001000860FFE706E0DF
:102A200001980168086840F001000860FFE7002095
:102A30008DF80B00FFE79DF80B0003B07047000016
:102A400081B0009000980168C86820F00100C8605B
:102A5000FFE700980068006A41F21111084210D1A6
:102A6000FFE700980068006A44F24441084207D139
:102A7000FFE700980168086820F001000860FFE7A0
:102A8000FFE7FFE70099012081F83D00002001B039
:102A90007047000080B586B00490039100208DF847
:102AA0000B00FFE7049890F83C00012804D1FFE7F1
:102AB00002208DF81700D3E00499012081F83C0032
:102AC000FFE7FFE70499022081F83D0004980068C1
:102AD0008068019001984FF68871CFF6CE7108405A
:102AE0000190019820F47F400190019804990968B1
:102AF0008860039800680090002800F09780FFE746
:102B00000098102800F09280FFE70098202800F03D
:102B10008D80FFE70098302800F08880FFE700985C
:102B2000402876D0FFE70098502858D0FFE700985B
:102B3000602861D0FFE7009870282CD0FFE700984C
:102B4000B0F5805F26D0FFE70098B0F5005F37D082
:102B5000FFE70098B0F1101F68D0FFE70098202130
:102B6000C0F21001884261D0FFE700983021C0F226
:102B7000100188425AD0FFE700984021C0F21001AE
:102B8000884253D0FFE700987021C0F210018842BC
:102B90004CD052E055E004980068039B5A6899684D
:102BA000DB6802F073FC049800688068019001986B
:102BB00040F077000190019804990968886040E02E
:102BC00004980068039B5A689968DB6802F05EFC11
:102BD00004980168886840F48040886031E0049877
:102BE0000068039A5168D26803F028F804980068D6
:102BF000502102F065FC24E004980068039A5168B3
:102C0000D26803F043F804980068602102F058FC91
:102C100017E004980068039A5168D26803F00EF830
:102C200004980068402102F04BFC0AE00498006818
:102C30000399096802F044FC03E001208DF80B00C1
:102C4000FFE70499012081F83D00FFE70499002087
:102C500081F83C00FFE79DF80B008DF81700FFE7B7
:102C60009DF8170006B080BD81B0009001B070479C
:102C700080B584B0039003980068C0680290039800
:102C80000068006901909DF804008007002824D5A1
:102C9000FFE79DF80800800700281DD5FFE703988F
:102CA00001686FF00200086103990120087703981A
:102CB00000688069800720B1FFE70398FFF7D4FF21
:102CC00006E0039800F082F9039800F0B3FAFFE7FA
:102CD000039900200877FFE7FFE79DF8040040070D
:102CE000002825D5FFE79DF80800400700281ED5DD
:102CF000FFE7039801686FF0040008610399022060
:102D0000087703980068806910F4407F04D0FFE7DB
:102D10000398FFF7A9FF06E0039800F057F903981E
:102D200000F088FAFFE7039900200877FFE7FFE744
:102D30009DF804000007002824D5FFE79DF808004F
:102D4000000700281DD5FFE7039801686FF0080011
:102D5000086103990420087703980068C069800718
:102D600020B1FFE70398FFF77FFF06E0039800F02C
:102D70002DF9039800F05EFAFFE703990020087729
:102D8000FFE7FFE79DF80400C006002825D5FFE710
:102D90009DF80800C00600281ED5FFE703980168CB
:102DA0006FF0100008610399082008770398006805
:102DB000C06910F4407F04D0FFE70398FFF754FF89
:102DC00006E0039800F002F9039800F033FAFFE7F9
:102DD000039900200877FFE7FFE79DF80400C0078C
:102DE00078B1FFE79DF80800C00748B1FFE70398F6
:102DF00001686FF001000861039800F04FFBFFE7E6
:102E0000FFE7019800F08000802806D0FFE79DF8DA
:102E100005008006002810D5FFE79DF80800000691
:102E2000002809D5FFE7039801686FF40250086194
:102E30000398FFF725FCFFE7FFE79DF80500C007B3
:102E400080B1FFE79DF808000006002809D5FFE7DC
:102E5000039801686FF4807008610398FFF70CFC19
:102E6000FFE7FFE79DF804004006002810D5FFE7C4
:102E70009DF808004006002809D5FFE7039801687F
:102E80006FF040000861039800F05EFBFFE7FFE78A
:102E90009DF804008006002810D5FFE79DF8080083
:102EA0008006002809D5FFE7039801686FF020002D
:102EB00008610398FFF7E8FBFFE7FFE79DF80600CE
:102EC000C006002810D5FFE79DF80A00C0060028BC
:102ED00009D5FFE7039801686FF480100861039833
:102EE000FFF7DAFBFFE7FFE79DF806008006002802
:102EF00010D5FFE79DF80A008006002809D5FFE7F6
:102F0000039801686FF4001008610398FFF7C0FB95
:102F1000FFE7FFE79DF806004006002810D5FFE711
:102F20009DF80A004006002809D5FFE703980168CC
:102F30006FF4800008610398FFF7B2FBFFE7FFE73B
:102F40009DF806000006002810D5FFE79DF80A004E
:102F50000006002809D5FFE7039801686FF4000018
:102F600008610398FFF740FCFFE7FFE704B080BD6E
:102F700080B588B0079000200690059004900390DB
:102F8000029007980068B0F1804F1DD1FFE7FFE77E
:102F900041F24C00C4F20200016841F001010160FD
:102FA000006800F0010001900198FFE70220029004
:102FB0000390002004900590012006904FF090406F
:102FC00002A9FDF781FFFFE708B080BD81B0009046
:102FD00001B0704780B586B0049003910292002042
:102FE0008DF80700FFE7049890F83C00012804D111
:102FF000FFE702208DF81700C0E00499012081F856
:103000003C00FFE7FFE702980090142800F2A78039
:103010000099DFE801F00BA4A4A424A4A4A43EA476
:10302000A4A457A4A4A471A4A4A48A00049800682A
:10303000039902F05DFA04980168886940F008007D
:10304000886104980168886920F004008861039809
:1030500002690498016888691043886183E00498D4
:103060000068039902F0EEFA04980168886940F458
:103070000060886104980168886920F48060886134
:103080000398026904980168886940EA022088610F
:1030900069E004980068039902F08CFB04980168C9
:1030A000C86940F00800C86104980168C86920F048
:1030B0000400C8610398026904980168C869104354
:1030C000C86150E004980068039902F02BFC049852
:1030D0000168C86940F40060C86104980168C86963
:1030E00020F48060C8610398026904980168C86987
:1030F00040EA0220C86136E004980068039902F0B3
:10310000C9FC04980168086D40F00800086504983F
:103110000168086D20F004000865039802690498AE
:103120000168086D104308651DE004980068039964
:1031300002F01AFD04980168086D40F4006008650B
:1031400004980168086D20F480600865039802699E
:1031500004980168086D40EA0220086503E0012038
:103160008DF80700FFE7FFE70499002081F83C0095
:10317000FFE79DF807008DF81700FFE79DF817009F
:1031800006B080BD80B582B00090009820B9FFE7FE
:1031900001208DF8070045E0009890F83D0040B907
:1031A000FFE70099002081F83C00009800F03EF80D
:1031B000FFE70099022081F83D00009951F8040BC7
:1031C00002F07CF80099012081F84800FFE700999F
:1031D000012081F83E00009981F83F00009981F8B4
:1031E0004000009981F84100009981F8420000995F
:1031F00081F84300FFE7FFE70099012081F84400D0
:10320000009981F84500009981F84600009981F8FD
:103210004700FFE70099012081F83D0000208DF86C
:103220000700FFE79DF8070002B080BD81B0009065
:1032300001B0704781B0009001B0704780B590B088
:103240000E900D910D9828B9FFE70E9890F83E006A
:103250000B9034E00D98042805D1FFE70E9890F804
:103260003F000A9028E00D98082805D1FFE70E9846
:1032700090F8400009901CE00D980C2805D1FFE75C
:103280000E9890F84100089010E00D98102805D194
:10329000FFE70E9890F84200079004E00E9890F82F
:1032A00043000790FFE707980890FFE70898099008
:1032B000FFE709980A90FFE70A980B90FFE70B9841
:1032C000012804D0FFE701208DF83F00E1E00D98D0
:1032D00028B9FFE70E99022081F83E0038E00D98EA
:1032E000042806D1FFE70E99022081F83F000690DE
:1032F0002CE00D98082806D1FFE70E99022081F8EE
:10330000400005901FE00D980C2806D1FFE70E99AC
:10331000022081F84100049012E00D98102806D197
:10332000FFE70E99022081F84200039005E00E9914
:10333000022081F843000390FFE703980490FFE721
:1033400004980590FFE705980690FFE70698FFE7C9
:103350000E9800680D990122019202F07BF8019805
:103360000E99096842F60042C4F2010291420290AD
:103370002DD0FFE70E980168012043F20042C4F20D
:1033800001029142029022D0FFE70E9801680120CD
:1033900044F20002C4F201029142029017D0FFE70A
:1033A0000E980168012044F20042C4F201029142E9
:1033B00002900CD0FFE70E9800684BF60001CBF6A8
:1033C000FE710844B0FA80F040090290FFE70298CD
:1033D000C00738B1FFE70E980168486C40F4004020
:1033E0004864FFE70E98006842F60041C4F201010C
:1033F00088422AD0FFE70E980068B0F1804F24D0B1
:10340000FFE70E98006840F20041C4F200018842D4
:103410001BD0FFE70E98006840F60001C4F20001DF
:10342000884212D0FFE70E98006843F20041C4F2D0
:103430000101884209D0FFE70E98006844F20001BC
:10344000C4F20101884219D1FFE70E980068806834
:103450000721C0F2010108400C900C9806280CD0FE
:10346000FFE70C98B0F5803F07D0FFE70E980168A2
:10347000086840F001000860FFE706E00E98016868
:10348000086840F001000860FFE700208DF83F0069
:10349000FFE79DF83F0010B080BD000080B582B00E
:1034A00001900198006841F20001C4F200018842D5
:1034B00019D1FFE740F20810C2F20000FFF7C0FA8E
:1034C00040F2BC00C2F2000001684FF4FA70886359
:1034D00040F2A021C2F20001087800F0FE0008705E
:1034E00003F040FEFFE70198006841F20041C4F29A
:1034F0000001884225D1FFE740F23A20C2F20000E5
:103500000078E8B1FFE740F23922C2F200021078F9
:10351000411CC8B21170642811D1FFE740F2392173
:10352000C2F200010020087040F2A021C2F20001A6
:10353000087880F00200087003F014FEFFE7FFE750
:10354000FFE702B080BD000081B0009001B070477D
:1035500083B00190FFE7019890F88400012804D11E
:10356000FFE702208DF80B002CE00199012081F883
:103570008400FFE7FFE701992420C1F88800019843
:1035800000680068009001980168086820F0010058
:103590000860009820F000500090019900204866D3
:1035A000009801990968086001992020C1F88800F5
:1035B000FFE70199002081F88400FFE700208DF8E3
:1035C0000B00FFE79DF80B0003B0704780B586B095
:1035D00004900391ADF80A200498D0F88C002028BC
:1035E00044D1FFE7039820B1FFE7BDF80A0020B9F6
:1035F000FFE701208DF817003CE004990120C86620
:1036000004990020086704980399BDF80A2003F084
:1036100035F98DF809009DF8090010BBFFE7049803
:10362000C06E012818D1FFE70498016810200862D5
:10363000FFE7FFE70498006850E8000F40F0100033
:103640000190FFE701990498026842E80010002801
:10365000F0D1FFE7FFE703E001208DF80900FFE765
:10366000FFE79DF809008DF8170003E002208DF8B0
:103670001700FFE79DF8170006B080BD82B00190EB
:10368000ADF802109DF8020040F23B21C2F20001A9
:10369000087002B07047000081B0009001B0704720
:1036A00080B584B002900191FFE7029890F8840001
:1036B000012804D1FFE702208DF80F0032E00299C3
:1036C000012081F88400FFE7FFE702992420C1F878
:1036D00088000298006800680090029801680868F5
:1036E00020F00100086002980068806820F06060A7
:1036F00001990843029909688860029802F0F0FA7B
:10370000009802990968086002992020C1F8880091
:10371000FFE70299002081F88400FFE700208DF880
:103720000F00FFE79DF80F0004B080BD80B584B0A6
:1037300002900191FFE7029890F88400012804D1DB
:10374000FFE702208DF80F0032E00299012081F896
:103750008400FFE7FFE702992420C1F8880002985F
:1037600000680068009002980168086820F0010075
:10377000086002980068806820F060400199084362
:10378000029909688860029802F0AAFA00980299E2
:103790000968086002992020C1F88800FFE70299B3
:1037A000002081F88400FFE700208DF80F00FFE77C
:1037B0009DF80F0004B080BD81B0009001B070474B
:1037C00081B0009001B0704781B0009001B07047A7
:1037D00080B590B00F900F980068C0690E900F9858
:1037E000006800680D900F98006880680C900E9833
:1037F00040F60F0108400B900B98E0B9FFE79DF8E9
:1038000038008006002815D5FFE79DF834008006B3
:10381000002806D4FFE79DF83300C006002809D52C
:10382000FFE70F98406F20B1FFE70F98416F88477F
:10383000FFE796E2FFE70B98002800F00C81FFE716
:103840000C980121C1F20001084209D1FFE70D984F
:1038500040F22011C0F20041084200F0FC80FFE776
:103860009DF83800C00788B1FFE79DF83500C00714
:1038700060B1FFE70F980168012008620F99D1F845
:10388000900040F00100C1F89000FFE79DF838007B
:103890008007002811D5FFE79DF83000C00760B110
:1038A000FFE70F980168022008620F99D1F8900095
:1038B00040F00400C1F89000FFE79DF83800400791
:1038C000002811D5FFE79DF83000C00760B1FFE781
:1038D0000F980168042008620F99D1F8900040F019
:1038E0000200C1F89000FFE79DF8380000070028AB
:1038F00019D5FFE79DF834008006002807D4FFE7BC
:103900000C980121C1F2000108420CD0FFE70F988A
:103910000168082008620F99D1F8900040F0080073
:10392000C1F89000FFE79DF839000007002813D583
:10393000FFE79DF83700400700280DD5FFE70F98F7
:1039400001684FF4006008620F99D1F8900040F0D0
:103950002000C1F89000FFE70F98D0F890000028F1
:1039600078D0FFE79DF838008006002815D5FFE7DE
:103970009DF834008006002806D4FFE79DF8330048
:10398000C006002809D5FFE70F98406F20B1FFE778
:103990000F98416F8847FFE7FFE70F98D0F8900036
:1039A0000A900F980068806800F04000402806D018
:1039B000FFE79DF8280010F0280F42D0FFE70F988E
:1039C00002F004FC0F98006880684006002833D598
:1039D000FFE7FFE7FFE70F98006850E8020F20F0CD
:1039E00040000990FFE709990F98026842E8021029
:1039F0000028F0D1FFE7FFE70F98D0F88000B0B1C2
:103A0000FFE70F98D0F8801045F6F970C0F6000077
:103A100088630F98D0F88000FCF7FCFF30B1FFE717
:103A20000F98D0F88000816B8847FFE703E00F987C
:103A3000FFF7CAFEFFE703E00F98FFF7C5FEFFE7B9
:103A400007E00F98FFF7C0FE0F990020C1F8900023
:103A5000FFE7FFE785E10F98C06E012840F0228163
:103A6000FFE79DF83800C006002840F11B81FFE702
:103A70009DF83400C006002840F11481FFE70F983C
:103A80000168102008620F980068806840060028CE
:103A900040F1A680FFE70F98D0F8800000684068EA
:103AA000ADF82200BDF8220000287CD0FFE7BDF869
:103AB00022000F99B1F85C10884274DAFFE7BDF874
:103AC00022000F99A1F85E000F98D0F880000068DE
:103AD00000688006002859D4FFE7FFE7FFE70F984A
:103AE000006850E8000F20F480700790FFE7079906
:103AF0000F98026842E800100028F0D1FFE7FFE7C6
:103B0000FFE7FFE70F98006850E8020F20F0010080
:103B10000690FFE706990F98026842E80210002815
:103B2000F0D1FFE7FFE7FFE7FFE70F98006850E8F5
:103B3000020F20F040000590FFE705990F980268FA
:103B400042E802100028F0D1FFE7FFE70F9920209C
:103B5000C1F88C000F990020C866FFE7FFE70F98B7
:103B6000006850E8000F20F010000490FFE704996F
:103B70000F98026842E800100028F0D1FFE7FFE745
:103B80000F98D0F88000FCF7F7FEFFE70F990220AE
:103B900008670F98B0F85C10B0F85E20891A89B2F7
:103BA000FFF76CFD1BE0BDF822000F99B1F85C1027
:103BB000884213D1FFE70F98D0F8800000680068B2
:103BC0008006002809D5FFE70F99022008670F98A3
:103BD000B0F85C10FFF752FDFFE7FFE7FFE7C0E03A
:103BE0000F99B1F85C00B1F85E10401AADF80E0004
:103BF0000F98B0F85E00002853D0FFE7BDF80E0024
:103C000000284ED0FFE7FFE7FFE70F98006850E875
:103C1000000F20F490700290FFE702990F9802685D
:103C200042E800100028F0D1FFE7FFE7FFE7FFE7D9
:103C30000F98006850E8020F4FF6FE71CEF6FF7144
:103C400008400190FFE701990F98026842E80210CE
:103C50000028EDD1FFE7FFE70F992020C1F88C0085
:103C60000F990020C8660F994867FFE7FFE70F9894
:103C7000006850E8000F20F010000090FFE7009966
:103C80000F98026842E800100028F0D1FFE7FFE734
:103C90000F99022008670F98BDF80E10FFF7EEFC91
:103CA000FFE75EE09DF83A00C00600280FD5FFE769
:103CB0009DF832004006002809D5FFE70F980168FB
:103CC0004FF4801008620F98FFF77AFD49E09DF8E5
:103CD00038000006002815D5FFE79DF834000006DF
:103CE000002806D4FFE79DF832000006002809D519
:103CF000FFE70F98806F20B1FFE70F98816F88472B
:103D0000FFE72EE09DF83800400600280AD5FFE7BF
:103D10009DF834004006002804D5FFE70F9802F014
:103D2000A5FA1EE09DF83A00000600280AD5FFE734
:103D30009DF837004006002804D5FFE70F98FFF7ED
:103D40003BFD0EE09DF83B00C00750B1FFE79DF83A
:103D500037000006002804D5FFE70F98FFF79CFC0A
:103D6000FFE710B080BD000080B582B000900098E1
:103D700020B9FFE701208DF8070046E00098806930
:103D800008B1FFE700E0FFE70098D0F8880040B9ED
:103D9000FFE70099002081F88400009800F03AF8CD
:103DA000FFE700992420C1F888000098016808689E
:103DB00020F0010008600098806A20B1FFE70098B9
:103DC00001F0D2FFFFE7009802F0A0FA012804D129
:103DD000FFE701208DF8070017E0009801684868A8
:103DE00020F49040486000980168886820F02A001C
:103DF000886000980168086840F001000860009839
:103E000002F056F88DF80700FFE79DF8070002B0B2
:103E100080BD000080B58CB00B9000200A90099006
:103E20000890079006900B98006843F60001C4F2D2
:103E30000101884260D1FFE7FFE741F26000C4F270
:103E40000200016841F480410160006800F4804094
:103E500005900598FFE7FFE741F24C00C4F202002D
:103E6000016841F001010160006800F00100049068
:103E70000498FFE74FF4C0600690022007900020EE
:103E800002900890099007200A904FF0904006A9F0
:103E9000FDF71AF8029940F25C00C2F200000390AC
:103EA0000822C4F202020260182242608160C160EE
:103EB0008022026141618161C1614FF40051016260
:103EC000FCF7B6FE18B1FFE7FCF74EFDFFE7FFE792
:103ED0000B9840F25C01C2F20001C0F880100B9810
:103EE0008862FFE72520019000221146FDF76EFA57
:103EF0000198FDF761FAFFE70CB080BD81B000903A
:103F000001B0704781B0009001B0704780B58AB0B1
:103F100008900791ADF81A2005930898D0F888000A
:103F2000202840F08780FFE7079820B1FFE7BDF821
:103F30001A0020B9FFE701208DF827007EE00899DC
:103F40000020C1F8900008992120C1F88800FDF7F1
:103F50009DF90290BDF81A000899A1F85400BDF827
:103F60001A000899A1F8560008988068B0F5805F9B
:103F700009D1FFE70898006928B9FFE700200490FD
:103F80000798039004E00798049000200390FFE74F
:103F9000FFE70898B0F8560088B3FFE70898029B3F
:103FA00005996A4611608021002202F0FFFC40B1B1
:103FB000FFE708992020C1F8880003208DF827002A
:103FC0003CE0049858B9FFE7039800886FF35F203E
:103FD00008990968886203980230039008E0049801
:103FE0000078089909688862049801300490FFE716
:103FF0000899B1F856000138A1F85600C9E70898A9
:10400000029B05996A4611604021002202F0CEFC15
:1040100040B1FFE708992020C1F8880003208DF8FF
:1040200027000BE008992020C1F8880000208DF8B7
:10403000270003E002208DF82700FFE79DF8270006
:104040000AB080BD81B0009001B07047FFE7FEE785
:1040500080B586B0002005900490039002900190F6
:10406000C02001900120029003900220049040F2B1
:104070000040C4F6000001A9FCF726FF06B080BD91
:1040800080B582B008208DF8070000208DF806006A
:1040900001F032F8FFE79DF80700411E8DF8071088
:1040A000F0B1FFE79DF8060000448DF806000020FF
:1040B00000F0EEFF1420009002F068FD009802F07E
:1040C00065FD012000F0E4FF009802F05FFD00F0C4
:1040D000FBFF01469DF8060008438DF80600DAE76D
:1040E000002000F0D5FF142002F050FD01F038F858
:1040F0009DF8060002B080BD80B582B0002000901F
:1041000001F012F81420019002F040FD019802F035
:104110003DFD012000F0BCFF019802F037FD009842
:1041200000F0B6FF019802F031FD02B080BD000042
:1041300080B582B08DF8070008208DF80600FFE7F3
:104140009DF80600411E8DF80610F8B1FFE700202B
:1041500000F09EFF1420009002F018FD9DF807006B
:1041600000F0800000F0E0FF009802F00FFD0098E2
:104170009DF8071009448DF8071002F007FD012093
:1041800000F086FF009802F001FDD9E7002000F062
:104190007FFF142002F0FAFC02B080BD80B582B02F
:1041A0000120009000F0C0FF1420019002F0EEFC0E
:1041B000019802F0EBFC009800F06AFF019802F011
:1041C000E5FC002000F064FF019802F0DFFC02B083
:1041D00080BD000080B584B00120019000F0A4FFF4
:1041E0001420039002F0D2FC019800F051FF0398D4
:1041F00002F0CCFC0020029000F096FF039802F041
:10420000C5FC029800F044FF039802F0BFFC04B024
:1042100080BD000080B584B00020019000F038FF20
:104220001420039002F0B2FC019800F07DFF039887
:1042300002F0ACFC0120029000F02AFF039802F08B
:10424000A5FC029800F070FF039802F09FFC04B0F8
:1042500080BD000080B584B00520ADF80C0000F0F2
:104260004BFF1420029002F091FC012000F010FF9F
:10427000029802F08BFCFFE700F026FFA8B1FFE7F1
:10428000BDF80C000138ADF80C00142002F07EFCE3
:10429000BDF80C0040B9FFE700F062FFFFF7BAFF7E
:1042A00001208DF80F000DE0E6E70020019000F0FE
:1042B000EFFE00F055FF142002F068FC01988DF825
:1042C0000F00FFE79DF80F0004B080BD80B586B0F9
:1042D0000020059004900390029001904FF6FF712A
:1042E0000191029003210491039040F60000C4F66E
:1042F000000001A9FCF7E8FD06B080BD80B586B0DE
:104300000020059004900390029001904FF6FF71F9
:1043100001910121029103210491039040F60000D4
:10432000C4F6000001A9FCF7CFFD06B080BD000077
:1043300080B584B0ADF80E000021019102910846CD
:1043400000F0B0F900F002FA01980290FFE702983D
:10435000800A4A2809D8FFE7BDF80E0000F0C0F92E
:10436000FFE7029801300290F1E704B080BD000041
:1043700080B58CB000200B900A90099008900790AF
:10438000FFE741F24C00C4F20200016841F0040171
:104390000160006800F0040006900698FFE7FFE760
:1043A00041F24C00C4F20200016841F001010160D9
:1043B000006800F0010005900598FFE7FFE741F273
:1043C0004C00C4F20200016841F002010160006883
:1043D00000F0020004900498FFE74FF44870079043
:1043E000012000900890032001900A900020029084
:1043F000099040F20040C4F6000007A90391FCF7C1
:1044000063FD009B019A029803994FF4807CCDF8DC
:104410001CC008930A9209904FF09040FCF754FD9D
:10442000FFF76CFF1821C4F60001086840F48070A3
:10443000086040F21841C4F60001086840F40870B2
:1044400008600CB080BD000080B582B08DF8070018
:10445000ADF804108DF803209DF8030020388DF886
:1044600003009DF80700BDF804109DF8032002EB3F
:10447000420347F65872C0F6000202EB031200F046
:1044800037F802B080BD000080B586B08DF8170007
:1044900004910020039040F23F10ADF80A00FFE7BE
:1044A000049801780020019039B1FFE703990020BA
:1044B000142938BF01200190FFE70198C007A0B17F
:1044C000FFE79DF81700BDF80A10049A1278FFF76D
:1044D000BBFFBDF80A001038ADF80A00049801309F
:1044E0000490039801300390DAE706B080BD000025
:1044F00080B586B08DF81700ADF814100492002036
:104500000090039002908DF807009DF817008DF839
:1045100007009DF80700BDF8141000F0C3F80098DC
:104520000390FFE70398172837D8FFE700F00EF94C
:1045300000200290FFE702980F281ED8FFE704989A
:10454000039930F811000299C840C00740B9FFE74D
:1045500040F20400C2F20000008800F0C1F807E059
:1045600040F25800C2F20000008800F0B9F8FFE7FE
:10457000FFE7029801300290DDE79DF80700013067
:104580008DF807009DF80700BDF8141000F08AF8B8
:10459000FFE7039801300390C4E706B080BD000038
:1045A00080B5FFF7E5FE002000F01CF8014640F260
:1045B0005A00C2F200000180008848F2302188428F
:1045C00003D1FFE700F0C6FB02E000F053FCFFE779
:1045D000002000F007F840F25A01C2F20001088002
:1045E00080BD000080B582B08DF8070040F22842FF
:1045F000C4F60002106840F400701060106840F4C7
:104600008070106040F21841C4F600010091086803
:1046100040F0200008609DF8070040F61403C4F63F
:1046200000031860106840F02000106000BF00BF59
:1046300000BF086840F020000860086840F48070FF
:104640000860FFF743FE2821C4F60001086840F423
:104650008070086000BF00BF00BF40F61000C4F6C5
:1046600000000068ADF804001821C4F600010868D5
:1046700040F480700860FFF741FE0099086840F43C
:1046800000700860BDF8040002B080BD81B0ADF8D4
:104690000200BDF8020040F20401C2F200010880ED
:1046A00001B0704780B582B08DF80700ADF80410F6
:1046B0009DF80710202000F07BF8BDF804102120A1
:1046C00000F076F802B080BD81B0ADF80200BDF810
:1046D000020040F25801C2F20001088001B07047A8
:1046E00081B0ADF8020040F22842C4F60002106822
:1046F00040F40070106040F21841C4F600010868F0
:1047000040F480700860086840F020000860BDF840
:10471000020040F61403C4F600031860106840F06D
:104720002000106000BF00BF00BF086840F02000FC
:104730000860086840F48070086000BF00BF00BFD8
:10474000086840F40070086001B0704740F22842E9
:10475000C4F60002106840F400701060106840F465
:104760008070106040F21841C4F60001086840F003
:104770002000086040F61403C4F6000322201860ED
:10478000106840F02000106000BF00BF00BF086844
:1047900040F020000860086840F48070086000BFA6
:1047A00000BF00BF086840F4007008607047000058
:1047B00081B08DF80300ADF8001040F22842C4F635
:1047C0000002106840F400701060106840F48070BF
:1047D000106040F21841C4F60001086840F0200063
:1047E00008609DF8030040F61403C4F60003186047
:1047F000106840F02000106000BF00BF00BF0868D4
:1048000040F020000860086840F480700860BDF83F
:1048100000001860106840F02000106000BF00BF6A
:1048200000BF086840F020000860086840F480700D
:10483000086001B07047000080B584B0FFE741F226
:104840004800C4F20200016841F004010160006800
:1048500000F0040003900398FFE7FFE741F24800EF
:10486000C4F20200016841F001010160006800F03B
:10487000010002900298FFE70B20019000221146F0
:10488000FCF7A4FD0198FCF797FD04B080BD000083
:1048900080B594B0002013901290119010900F905A
:1048A000FFE741F24C00C4F20200016841F004014C
:1048B0000160006800F004000E900E98FFE7FFE72B
:1048C00041F24C00C4F20200016841F02001016095
:1048D000006800F020000D900D98FFE7FFE741F21F
:1048E0004C00C4F20200016841F00101016000685F
:1048F00000F001000C900C98FFE7FFE741F24C003C
:10490000C4F20200016841F002010160006800F099
:1049100002000B900B98FFE7FFE741F24C00C4F256
:104920000200016841F008010160006800F0080021
:104930000A900A98FFE740F60000C4F600000290D3
:104940004FF6FF71019100220792FCF789FC079A4C
:1049500040F60040C4F60000049004210391FCF7E7
:104960007FFC079A40F20040C4F600000890C02186
:104970000591FCF775FC019A029807990F920122A4
:1049800006921092119112910FA90991FCF79CFACD
:10499000069A079809990F92109011904FF0904045
:1049A000FCF792FA079A0898099907230F93109237
:1049B0001192FCF789FADDF80CC00498069B079A5F
:1049C0000999CDF83CC0109311921292FCF77CFA31
:1049D000DDF814C0069B079A08980999CDF83CC0E9
:1049E000109311921292FCF76FFA14B080BD000080
:1049F00080B590B0002101910F910E910D910C9115
:104A00000B910A91099108910791069105910491E2
:104A10000391029140F2BC00C2F200004FF08042CC
:104A2000026003224260816042F20F72C260016143
:104A30008161FDF7DDFE18B1FFE7FBF795FFFFE7AA
:104A40004FF480500C9040F2BC00C2F200000CA960
:104A5000FEF720F818B1FFE7FBF786FFFFE740F20B
:104A6000BC00C2F20000FEF78DFB18B1FFE7FBF7B8
:104A70007BFFFFE7002009900B9040F2BC00C2F2E0
:104A8000000009A9FDF710FE18B1FFE7FBF76CFF66
:104A9000FFE7602002904FF4FA700390002004902A
:104AA000069040F2BC00C2F2000002A90422FEF708
:104AB00091FA18B1FFE7FBF757FFFFE740F2BC00A0
:104AC000C2F20000FEF754FA10B080BD80B584B089
:104AD000002103910291019140F20810C2F20000FE
:104AE00041F20002C4F20002026042F20F72426020
:104AF000816049F63F42C2608161FDF779FE18B1DD
:104B0000FFE7FBF731FFFFE700200190039040F241
:104B10000810C2F2000001A9FDF7C6FD18B1FFE7B9
:104B2000FBF722FFFFE704B080BD000080B584B032
:104B3000002103910291019140F25410C2F2000051
:104B400041F20042C4F20002026040F28F12426061
:104B50008160C722C2608161FDF74AFE18B1FFE79C
:104B6000FBF702FFFFE700200190039040F2541092
:104B7000C2F2000001A9FDF797FD18B1FFE7FBF7AE
:104B8000F3FEFFE704B080BD80B582B040F2A01014
:104B9000C2F20000009043F60001C4F2010101607E
:104BA0004FF416514160002101918160C1600161A3
:104BB0000C2242618161C161016241628162FFF741
:104BC000D3F818B1FFE7FBF7CFFEFFE740F2A010E4
:104BD000C2F200000021FEF7A9FD18B1FFE7FBF7C4
:104BE000C3FEFFE740F2A010C2F200000021FEF772
:104BF00057FD18B1FFE7FBF7B7FEFFE740F2A01043
:104C0000C2F20000FEF7A4FC18B1FFE7FBF7ACFE10
:104C1000FFE740F2A010C2F2000040F23C21C2F2D5
:104C200000016422FEF7D2FC40F25C00C2F20000F8
:104C30000168086820F00400086002B080BD000030
:104C4000FFE7FEE7FFE7FEE788B0079006910592D1
:104C5000079800F0070004900498C0F107000528A9
:104C600003D3FFE70420019004E00498C0F107009B
:104C70000190FFE70198039004980430062803D8B8
:104C8000FFE70020009003E0049803380090FFE75E
:104C90000098029006980399012202FA01F1013965
:104CA0000840029B984005999A40013A11400843F8
:104CB00008B070477047000086B041F20C00C4F2A3
:104CC0000200016801F0030104910068C1B20120F3
:104CD00000EB1110029004980090022815D0FFE715
:104CE0000098032812D1FFE7029943F20060C0F256
:104CF0006E10B0FBF1F041F20C01C4F20201096840
:104D0000C1F306214843059011E0FFE7029942F202
:104D10000040C0F2F400B0FBF1F041F20C01C4F22B
:104D200002010968C1F3062148430590FFE741F2FB
:104D30000C00C4F20200006800F0C061022000EB29
:104D40001160039005980399B0FBF1F00190019870
:104D500006B0704780B586B0002000900121019117
:104D6000FFF726FD4FF47A70FBF7D4FD0099019808
:104D7000FFF71EFD102041F29071FFF719FD602032
:104D80004FF41C51FFF714FD01996120FFF710FD4E
:104D9000462002210291FFF70BFD132048F210017B
:104DA000FFF706FD122048F2FE01FFF701FD029811
:104DB0004FF4A061FFF7FCFC0320059041F23001A5
:104DC000FFF7F6FC302040F203310491FFF7F0FCCE
:104DD00004993120FFF7ECFC04993220FFF7E8FC3E
:104DE00033204FF440710391FFF7E2FC0599342022
:104DF000FFF7DEFC04993520FFF7DAFC362014219A
:104E0000FFF7D6FC04993720FFF7D2FC049938202D
:104E1000FFF7CEFC04993920FFF7CAFC03993A202A
:104E2000FFF7C6FC05993B20FFF7C2FC04993C2024
:104E3000FFF7BEFC3D204FF4A051FFF7B9FC9220D4
:104E40004FF40071FFF7B4FC04999320FFF7B0FC16
:104E5000902040F60D01FFF7ABFC059841F21801D8
:104E6000FFF7A6FC072040F27311FFF7A1FC06B084
:104E700080BD000080B58CB0E32043F20801FFF74D
:104E800097FCE72012210191FFF792FCEF2006909A
:104E900041F23121FFF78CFC01200790002109919C
:104EA000FFF786FC02204FF4E061FFF781FC03204E
:104EB0000A9041F23001FFF77BFC0999042004902D
:104EC000FFF776FC082040F20721FFF771FC0999F3
:104ED0000920FFF76DFC09990A20FFF769FC099981
:104EE0000C20FFF765FC09990D20FFF761FC09997B
:104EF0000F200590FFF75CFC099910200890FFF740
:104F000057FC1120009007210B91FFF751FC0198ED
:104F10000999FFF74DFC099913200290FFF748FC0F
:104F2000C820FBF7AFFF089841F29061FFF740FC03
:104F3000009840F22721FFF73BFC32200390FBF75B
:104F4000A1FF01981D21FFF733FC0398FBF79AFF9F
:104F500002984FF40061FFF72BFC29201421FFF782
:104F600027FC2B200B21FFF723FC0398FBF78AFF7C
:104F700009992020FFF71CFC09992120FFF718FC54
:104F80000B993020FFF714FC312040F20771FFF736
:104F90000FFC03980621FFF70BFC352040F204714B
:104FA000FFF706FC362041F60471FFF701FC049977
:104FB0003720FFF7FDFB09993820FFF7F9FB39206F
:104FC00040F20671FFF7F4FB3C2040F20171FFF75D
:104FD000EFFB05993D20FFF7EBFB09995020FFF708
:104FE000E7FB06995120FFF7E3FB09995220FFF7F1
:104FF000DFFB532040F23F11FFF7DAFB60204FF454
:105000001C51FFF7D5FB07996120FFF7D1FB0999E8
:105010006A20FFF7CDFB09998020FFF7C9FB0999AA
:105020008120FFF7C5FB09998220FFF7C1FB099991
:105030008320FFF7BDFB09998420FFF7B9FB09998D
:105040008520FFF7B5FB08999020FFF7B1FB099980
:105050009220FFF7ADFB0A999320FFF7A9FB95205B
:105060004FF48871FFF7A4FB09999720FFF7A0FB85
:1050700009999820FFF79CFB0A9841F21801FFF765
:1050800097FB0B9840F27311FFF792FB0CB080BDB9
:1050900081B0ADF80200BDF8020048B1FFE740F270
:1050A0001841C4F60001086840F04000086008E0BC
:1050B00040F22841C4F60001086840F04000086052
:1050C000FFE701B07047000080B582B040F20040B9
:1050D000C4F600008021FCF7ABF8012804D1FFE7FB
:1050E00001208DF8070003E000208DF80700FFE79E
:1050F0009DF8070002B080BD80B586B00020059005
:10510000049003900290019080210191029001206F
:1051100003900220049040F20040C4F6000001A970
:10512000FBF7D2FE06B080BD81B0ADF80200BDF83D
:10513000020048B1FFE740F21841C4F600010868D8
:1051400040F08000086008E040F22841C4F6000109
:10515000086840F080000860FFE701B07047000079
:1051600080B586B0002005900490039002900190D5
:10517000802101911121029103900220049040F2BC
:105180000040C4F6000001A9FBF79EFE06B080BDFA
:105190007047000080B582B0009000980138B0F1EF
:1051A000807F03D3FFE70120019019E000980138C8
:1051B0004EF21401CEF2000108604FF0FF300F21D3
:1051C00001F0A4FC4EF21801CEF2000100200860AC
:1051D0004EF21002CEF20002072111600190FFE7AB
:1051E000019802B080BD000080B5FCF755F880BD85
:1051F00080B5A6B018A801903821FBF741F800202F
:105200001790169015901490139002A84421FBF764
:1052100037F84FF40070FCF7F9F801980121189164
:105220004FF48031199102211F9103222092219283
:1052300014222292239124912591FCF739FE18B172
:10524000FFE7FBF791FBFFE70F201390032014907B
:10525000002015901690179013A80221FCF7E8FB88
:1052600018B1FFE7FBF780FBFFE701200290002069
:10527000039002A8FCF7AEF918B1FFE7FBF774FB47
:10528000FFE726B080BD00004EF68851CEF2000147
:10529000086840F4700008607047000080B540F274
:1052A0000810C2F20000FDF7E3FC80BD80B540F2BB
:1052B0005410C2F20000FDF7DBFC80BD83B0029009
:1052C0000191029800680090029842F60041C4F2F1
:1052D000010188421DD0FFE70298B0F1804F18D03D
:1052E000FFE7029840F20041C4F20001884210D06A
:1052F000FFE7029840F60001C4F20001884208D09E
:10530000FFE7029843F20041C4F2010188420AD14A
:10531000FFE7009820F07000009001984168009825
:1053200008430090FFE7029842F60041C4F20101F1
:10533000884235D0FFE70298B0F1804F30D0FFE7C8
:10534000029840F20041C4F20001884228D0FFE7F1
:10535000029840F60001C4F20001884220D0FFE725
:10536000029843F20041C4F20101884218D0FFE7DD
:10537000029844F20001C4F20101884210D0FFE714
:10538000029844F20041C4F20101884208D0FFE7CC
:10539000029844F60001C4F2010188420AD1FFE7F5
:1053A000009820F4407000900198C168009808436C
:1053B0000090FFE7009820F08000019949690843B8
:1053C0000090009802990860019880680299C8626C
:1053D0000198006802998862029842F60041C4F27E
:1053E0000101884220D0FFE7029843F20041C4F255
:1053F0000101884218D0FFE7029844F20001C4F28C
:105400000101884210D0FFE7029844F20041C4F243
:105410000101884208D0FFE7029844F60001C4F277
:105420000101884205D1FFE70198006902990863EC
:10543000FFE702990120486102980069C00730B176
:10544000FFE70299086920F001000861FFE703B057
:105450007047000084B0039002910192029800F01E
:105460001F01012088400090009A0399086A904328
:1054700008620198029901F01F0100FA01F20399F4
:10548000086A1043086204B07047000085B00490B9
:10549000039102920193049880680090009820F490
:1054A0007F40009003980299019A41EA022101434A
:1054B00000980843009000980499886005B07047F0
:1054C00083B00290019102988068009000984FF696
:1054D0008F71CFF6CF710840009001980099084372
:1054E00040F00700009000980299886003B0704770
:1054F00085B0049003910498006A01900499086AA9
:1055000020F00100086204984068009004988069C7
:10551000029002984FF68F71CFF6FE71084002900C
:10552000029820F003000290039801680298084353
:105530000290019820F00200019003988168019880
:1055400008430190049842F60041C4F201018842E8
:1055500020D0FFE7049843F20041C4F201018842E1
:1055600018D0FFE7049844F20001C4F20101884218
:1055700010D0FFE7049844F20041C4F201018842D0
:1055800008D0FFE7049844F60001C4F20101884204
:105590000ED1FFE7019820F0080001900398C16840
:1055A000019808430190019820F004000190FFE762
:1055B000049842F60041C4F20101884220D0FFE77E
:1055C000049843F20041C4F20101884218D0FFE779
:1055D000049844F20001C4F20101884210D0FFE7B0
:1055E000049844F20041C4F20101884208D0FFE768
:1055F000049844F60001C4F20101884213D1FFE788
:10560000009820F480700090009820F400700090C2
:1056100003984169009808430090039881690098B5
:1056200008430090FFE700980499486002980499A5
:105630008861039840680499486301980499086256
:1056400005B0704785B0049003910498006A0190FA
:105650000499086A20F010000862049840680090DD
:10566000049880690290029848F6FF71CFF6FF61B6
:1056700008400290029820F440700290039801685C
:10568000029840EA01200290019820F02000019049
:1056900003988168019840EA01100190049842F64D
:1056A0000041C4F20101884229D0FFE7049843F287
:1056B0000041C4F20101884221D0FFE7049844F27E
:1056C0000001C4F20101884203D1FFE70020B0B914
:1056D000FFE7049844F20041C4F20101884203D17B
:1056E000FFE7002058B9FFE7049844F60001C4F230
:1056F0000101884212D1FFE7012078B9FFE7019844
:1057000020F0800001900398C168019840EA0110E0
:105710000190019820F040000190FFE7049842F6C4
:105720000041C4F20101884220D0FFE7049843F20F
:105730000041C4F20101884218D0FFE7049844F206
:105740000001C4F20101884210D0FFE7049844F23E
:105750000041C4F20101884208D0FFE7049844F6F2
:105760000001C4F20101884215D1FFE7009820F43E
:1057700080600090009820F40060009003984169D8
:10578000009840EA8100009003988169009840EAFF
:1057900081000090FFE700980499486002980499FE
:1057A00088610398406804998863019804990862A5
:1057B00005B0704785B0049003910498006A019089
:1057C0000499086A20F48070086204984068009088
:1057D0000498C069029002984FF68F71CFF6FE715F
:1057E00008400290029820F003000290039801689C
:1057F000029808430290019820F4007001900398E9
:105800008168019840EA01200190049842F6004125
:10581000C4F20101884229D0FFE7049843F2004115
:10582000C4F20101884221D0FFE7049844F200014C
:10583000C4F20101884203D1FFE70020B0B9FFE7BD
:10584000049844F20041C4F20101884203D1FFE709
:10585000002058B9FFE7049844F60001C4F20101A2
:10586000884212D1FFE7012078B9FFE7019820F4C0
:10587000006001900398C168019840EA01200190FE
:10588000019820F480600190FFE7049842F60041FF
:10589000C4F20101884220D0FFE7049843F200419E
:1058A000C4F20101884218D0FFE7049844F20001D5
:1058B000C4F20101884210D0FFE7049844F200418D
:1058C000C4F20101884208D0FFE7049844F60001C1
:1058D000C4F20101884215D1FFE7009820F48050FE
:1058E0000090009820F400500090039841690098BF
:1058F00040EA0110009003988169009840EA011085
:105900000090FFE700980499486002980499C861E4
:10591000039840680499C86301980499086205B027
:105920007047000085B0049003910498006A0190CC
:105930000499086A20F48050086204984068009036
:105940000498C0690290029848F6FF71CFF6FF6193
:1059500008400290029820F4407002900398016879
:10596000029840EA01200290019820F40050019032
:1059700003988168019840EA01300190049842F64A
:105980000041C4F20101884229D0FFE7049843F2A4
:105990000041C4F20101884221D0FFE7049844F29B
:1059A0000001C4F20101884203D1FFE70020B0B931
:1059B000FFE7049844F20041C4F20101884203D198
:1059C000FFE7002058B9FFE7049844F60001C4F24D
:1059D0000101884212D1FFE7012078B9FFE7019861
:1059E00020F4004001900398C168019840EA01301A
:1059F0000190019820F480400190FFE7049842F65E
:105A00000041C4F20101884220D0FFE7049843F22C
:105A10000041C4F20101884218D0FFE7049844F223
:105A20000001C4F20101884210D0FFE7049844F25B
:105A30000041C4F20101884208D0FFE7049844F60F
:105A40000001C4F20101884215D1FFE7009820F45B
:105A500080400090009820F4004000900398416935
:105A6000009840EA8110009003988169009840EA0C
:105A700081100090FFE7009804994860029804990B
:105A8000C861039840680499086401980499086201
:105A900005B0704785B0049003910498006A0190A6
:105AA0000499086A20F480300862049840680090E5
:105AB0000498006D029002984FF68F71CFF6FE7138
:105AC00008400290039801680298084302900198E8
:105AD00020F40030019003988168019840EA014069
