:020000040800F2
:1000000048060020ED01000821370008C52E000831
:100010001D370008A507000849430008000000003C
:100020000000000000000000000000006D3B000820
:10003000090900080000000091370008C53B0008CE
:10004000070200080702000807020008070200086C
:10005000070200080702000807020008070200085C
:10006000070200080702000807020008A9070008A5
:10007000B9070008C9070008D907000807020008E7
:10008000070200080000000007020008070200083D
:10009000070200080702000807020008070200081C
:1000A000070200080702000807020008070200080C
:1000B00007020008070200080702000807020008FC
:1000C00007020008070200080702000807020008EC
:1000D00007020008070200080702000807020008DC
:1000E00007020008070200080702000807020008CC
:1000F00007020008070200080702000800000000CD
:1001000000000000070200080000000007020008CD
:1001100007020008000000000702000807020008AC
:10012000070200080702000807020008070200088B
:10013000070200080000000000000000070200089D
:10014000070200080702000800000000000000008D
:10015000000000000000000000000000000000009F
:10016000000000000000000000000000070200087E
:10017000070200080000000000000000000000006E
:10018000000000000702000800000000000000005E
:10019000000000000000000000000000000000005F
:1001A000000000000000000007020008070200082D
:1001B000070200080702000807020008000000000C
:1001C000000000000702000800000000000000001E
:1001D0000702000807020008DFF80CD000F03CFA24
:1001E000004800478546000848060020064880472A
:1001F00006480047FEE7FEE7FEE7FEE7FEE7FEE70C
:10020000FEE7FEE7FEE7FEE7453C0008D9010008EF
:10021000D2B201E000F8012B491EFBD27047002248
:10022000F6E710B513460A4604461946FFF7F0FFF5
:10023000204610BD00F0004230F000400AD0C10D51
:1002400001F56071C0F3160042EA0151C20840078F
:100250001143704700200146704730B50B460146F8
:1002600000202022012409E021FA02F59D4205D355
:1002700003FA02F5491B04FA02F52844151EA2F1FF
:100280000102F1DC30BD2DE9F05F05460020924609
:100290009B4688460646814640241BE02846414648
:1002A0004746224600F0FFF953465A46C01A91418C
:1002B00010D311461846224600F0E6F92D1A67EBD6
:1002C00001084F4622460120002100F0DDF917EB1E
:1002D00000094E41201EA4F10104DFDC48463146EE
:1002E0002A464346BDE8F09F2DE9FE4F804681EA4D
:1002F0000300C00F0C46009021F0004123F00045A0
:10030000B8EB0200A94105D24046214690461C4662
:100310000B46024623F00040104347D0270DC7F399
:100320000A00C3F30A510290401A019040286BDA88
:10033000C3F3130040F4801B0098924620B10023C1
:10034000D2EB030A63EB0B0B01985946C0F1400254
:10035000504600F099F906460D4650465946019A16
:1003600000F0B1F910EB08006141002487EA115256
:1003700084EAE7731A4340D0009A62B3019A012AD3
:100380004FEA075215DC001B61EB02014FF00042FF
:1003900002EA0752CDE90042001C41F580113246C5
:1003A0002B4600F0B1F903B0BDE8F08F404621467E
:1003B000F9E7001B61EB0201001C41F580130018F6
:1003C0005B412018A2F5001747EB030140EAD57006
:1003D000B6196D4111E06D084FEA360645EAC07561
:1003E0004FEA0752001B61EB0201001C41F580112E
:1003F00049084FEA30000019514132462B4603B0FC
:10040000BDE8F04F00F071B90098012240000023D0
:10041000D0EB020263EBE073009821464FEAE074F0
:10042000B8EB000061EB0401E9E783F000435BE710
:1004300081F0004158E72DE9FE4F81EA030404F002
:10044000004421F0004100944FF0000B23F00043E2
:1004500050EA01045ED052EA03045BD0C3F30A54AD
:10046000C1F30A552C44A4F2F3340194A0FB0254C6
:10047000C1F3130141F48011C3F3130343F4801358
:1004800001FB024400FB034E840A970A44EA8154AC
:1004900047EA8357A4FB076802958D0A05FB078589
:1004A0004FEA932C04FB0C542705029D4FEA065893
:1004B00047EA1637B5EB08056EEB070C870E920E70
:1004C00047EA811742EA8312A7FB0201B6EB0B0150
:1004D00064EB00042B0D43EA0C335E1844EB1C5014
:1004E000DA465146E7FB0201C5F313044FEA0B332A
:1004F00043EA14534FEA0432019C43EA0603A4F191
:100500000C040294009CCDE900B400F0FDF803B0A7
:10051000BDE8F08F00200146F9E72DE9F04D81EAB2
:10052000030404F0004B21F0004514464FF0000A8C
:1005300023F0004150EA050220D054EA01021DD008
:10054000C5F30A570246C5F31303C1F31300C1F301
:100550000A5640F4801543F48013A7EB0608101BDD
:10056000D64608F2FD3873EB050002D308F1010806
:1005700001E092185B41B8F1000F03DA0020014658
:10058000BDE8F08D00204FF48011064684460EE051
:10059000171B73EB050705D3121B63EB050306431B
:1005A0004CEA010C49084FEA300092185B4150EACE
:1005B0000107EDD152EA030012D082EA040083EA77
:1005C0000501084305D0101BAB4106D201220023D0
:1005D00006E000224FF0004302E06FF001025310EA
:1005E0001AEB06004CEB085110EB0A0041EB0B0133
:1005F000BDE8F04D00F079B8C1F30A52C1F3130120
:1006000040F2FF3341F480119A4202DA00200146A1
:10061000704740F233439A42A2F2334202DC524224
:1006200000F041B800F030B830B5041E71F100049C
:1006300004DB4FF00044404264EB0101141E73F1EF
:10064000000405DB1C464FF00043524263EB0403F9
:10065000994208BF904230BD1CB509480090094836
:1006600001900546009C06E0E06840F0010394E834
:10067000070098471034AC42F6D3FFF7B1FD0000F5
:100680007462000894620008202A04DB203A00FA11
:1006900002F1002070479140C2F1200320FA03F3D9
:1006A000194390407047202A04DB203A21FA02F0D7
:1006B0000021704721FA02F3D040C2F1200291409C
:1006C000084319467047202A06DBCB17203A41FA27
:1006D00002F043EAE07306E041FA02F3D040C2F1CF
:1006E0002002914008431946704710B5141E73F15B
:1006F000000408DA401C41F1000192185B411A43E2
:1007000001D120F0010010BD2DE9F04D92469B462D
:1007100011B1B1FA81F202E0B0FA80F220329046D3
:10072000FFF7B2FF04460F4640EA0A0041EA0B0118
:1007300053465A46084313D0114653EA010019D0D4
:10074000C8F140025046FFF7AEFF05460E46504640
:1007500059464246FFF798FF084305D0012004E0C0
:1007600020463946BDE8F08D0020054346EAE07694
:100770002C4337430A986305E40AA0EB08000022E3
:10078000FD0A44EA47540A3002D500200146E9E751
:10079000010510196941DDE9084500196941BDE805
:1007A000F04DA2E7FFE7FEE780B540F24C00C2F251
:1007B000000000F0DDF880BD80B540F2AC00C2F270
:1007C000000000F0D5F880BD80B540F26C10C2F298
:1007D000000000F0CDF880BD80B540F20C10C2F2F0
:1007E000000000F0C5F880BD84B003900398006855
:1007F00040F20741C4F20201884206D8FFE740F602
:100800000000C4F20200009005E040F62000C4F2AF
:1008100002000090FFE700980290039800780838E3
:100820004CF6CD41CCF6CC41A0FB01100009019063
:10083000029803994A6C22F00302104488640399D9
:1008400040F68000C4F20200C864019800F01F0165
:10085000012088400399086504B0704782B0019078
:10086000019800790090009940F6FC00C4F2020063
:1008700000EB810001994865019940F64010C4F2EF
:10088000020088650098013800F01F0101208840AF
:100890000199C86502B0704784B00390029101923B
:1008A00000930398C16C006D48600398406D28B1B7
:1008B000FFE70398816DC06D4860FFE70398016C06
:1008C000406C00F01F02012090404860009803999E
:1008D0000968486003988068102809D1FFE70198EB
:1008E000039909688860029803990968C86008E05C
:1008F0000298039909688860019803990968C8609B
:10090000FFE704B0704700007047000082B0ADF808
:1009100006000020ADF80400FFE7BDF80400BDF8B4
:100920000610884219DAFFE70020ADF80200FFE761
:10093000BDF8020040F6B731884207DCFFE7FFE769
:10094000BDF802000130ADF80200F1E7FFE7BDF8A5
:1009500004000130ADF80400DFE702B0704700008A
:1009600081B0EFF3108072B60090FFE7FEE7000061
:1009700080B584B003900398006C006802900398DF
:1009800000680068019002980399496C01F01F010A
:10099000C8404007002825D5FFE79DF80400400720
:1009A00000281FD5FFE7039800680068800600282C
:1009B00007D4FFE703980168086820F00400086086
:1009C000FFE70398016C406C00F01F020420904088
:1009D00048600398006B20B1FFE70398016B8847DC
:1009E000FFE76EE002980399496C01F01F01C840CF
:1009F000800700282FD5FFE79DF804008007002816
:100A000029D5FFE7039800680068800600280BD40A
:100A1000FFE703980168086820F00A00086003995E
:100A2000012081F82500FFE70398016C406C00F07D
:100A30001F02022090404860FFE70399002081F8E0
:100A40002400FFE70398C06A20B1FFE70398C16A5A
:100A50008847FFE734E002980399496C01F01F01D1
:100A6000C8400007002829D5FFE79DF804000007CB
:100A7000002823D5FFE703980168086820F00E00DE
:100A800008600398026C406C00F01F01012000FA1E
:100A900001F151600399C863039981F82500FFE7CC
:100AA0000399002081F82400FFE70398406B20B1F0
:100AB000FFE70398416B8847FFE700E0FFE7FFE7A8
:100AC000FFE704B080BD000080B584B002900298BA
:100AD00020B9FFE701208DF80F009CE00298006824
:100AE00040F20741C4F20201884218D8FFE7029998
:100AF00008684FF6F872CBF6FD7210444CF6CD4202
:100B0000CCF6CC42A0FB02026FF0030000EA920098
:100B1000486402990020C4F20200086418E00299B7
:100B200008684FF6F832CBF6FD7210444CF6CD4211
:100B3000CCF6CC42A0FB02026FF0030000EA920068
:100B40004864029940F20040C4F202000864FFE7E2
:100B50000299022081F8250002980068006801903F
:100B6000019847F6F0718843019002998868D1F89E
:100B70000CC00B694A6940EA0C00184310438A69AB
:100B80001043CA691043096A014301980843019060
:100B900001980299096808600298FFF725FE0298FB
:100BA0008068B0F5804F04D1FFE7029900204860CB
:100BB000FFE702990879896C08600298C16C006DA2
:100BC00048600298406888B1FFE7029840680428AE
:100BD0000CD8FFE70298FFF741FE0298416D002014
:100BE00008600298816DC06D486007E0029900209E
:100BF0004865029988650299C865FFE70299002057
:100C0000C863029A012182F82510029981F8240014
:100C10008DF80F00FFE79DF80F0004B080BD0000C5
:100C200080B586B0049003910292019300208DF864
:100C30000300FFE7049890F82400012804D1FFE79F
:100C400002208DF8170065E00499012081F8240046
:100C5000FFE7FFE7049890F8250001284BD1FFE754
:100C60000499022081F8250004990020C8630498A3
:100C70000168086820F00100086004980399029A4E
:100C8000019BFFF709FE0498006B38B1FFE7049859
:100C90000168086840F00E0008600CE004980168E4
:100CA000086820F00400086004980168086840F0B3
:100CB0000A000860FFE70498806C0068C003002801
:100CC00007D5FFE70498816C086840F480700860DD
:100CD000FFE70498406D38B1FFE70498416D08685C
:100CE00040F480700860FFE704980168086840F0ED
:100CF0000100086009E0FFE70499002081F8240062
:100D0000FFE702208DF80300FFE79DF803008DF850
:100D10001700FFE79DF8170006B080BD80B584B0CE
:100D2000039000F0FFF902900398019001980130C0
:100D300048B1FFE740F23000C2F2000001680198BC
:100D400008440190FFE7FFE700F0ECF90299401A30
:100D50000199884201D2FFE7F6E704B080BD0000A8
:100D60008BB00A90099100200890FFE7099800686D
:100D70000899C840002800F0A581FFE7099800689D
:100D8000089A01219140084007900798002800F038
:100D90009581FFE70998406800F00300012807D01B
:100DA000FFE70998406800F0030002282FD1FFE711
:100DB0000A988068069008984100032000FA01F123
:100DC0000698884306900998C0680899490000FA77
:100DD00001F106980843069006980A9988600A98D7
:100DE000406806900899012000FA01F106988843AE
:100DF000069009984068C0F30010089900FA01F1C4
:100E000006980843069006980A994860FFE70998F3
:100E1000406800F00300032818D0FFE70A98C06874
:100E2000069008984100032000FA01F106988843D3
:100E30000690099880680899490000FA01F106981F
:100E40000843069006980A99C860FFE70998406829
:100E500000F00300022826D1FFE70A9808996FF0F6
:100E6000030202EA51010844006A0690089800F063
:100E7000070081000F2000FA01F1069888430690D0
:100E800009980069089901F00701890000FA01F149
:100E900006980843069006980A99089B02EA5302AE
:100EA00011440862FFE70A9800680690089841001C
:100EB000032000FA01F106988843069009984068DB
:100EC00000F003000899490000FA01F10698084370
:100ED000069006980A99086009988079800700288A
:100EE00000F0EB80FFE7FFE741F26000C4F2020090
:100EF000016841F001010160006800F00100059007
:100F00000598FFE7089820F003000821C4F20101CA
:100F100040580690089800F0030081000F2000FA66
:100F200001F10698884306900A98B0F1904F03D1DA
:100F3000FFE70020049042E00A9840F20041C4F626
:100F40000001884203D1FFE70120039034E00A98B2
:100F500040F60001C4F60001884203D1FFE70220F9
:100F6000029026E00A9840F60041C4F6000188424B
:100F700003D1FFE70320019018E00A9841F2000135
:100F8000C4F60001884203D1FFE7042000900AE084
:100F90000A9941F20042C4F600020620914208BFBD
:100FA00005200090FFE700980190FFE7019802906C
:100FB000FFE702980390FFE703980490FFE7049887
:100FC000089901F00301890000FA01F1069808432D
:100FD00006900698089921F003010822C4F2010244
:100FE000885040F20840C4F201000068069007995A
:100FF00006988843069009988079C006002805D590
:10100000FFE70799069808430690FFE7069840F225
:101010000841C4F20101086040F20C40C4F2010032
:101020000068069007990698884306900998807989
:101030008006002805D5FFE7079906980843069023
:10104000FFE7069840F20C41C4F20101086040F24B
:101050000440C4F20100006806900799069888438E
:101060000690099880798007002805D5FFE7079941
:10107000069808430690FFE7069840F20441C4F240
:101080000101086040F20040C4F2010000680690CF
:10109000079906988843069009988079C00728B177
:1010A000FFE70799069808430690FFE7069840F285
:1010B0000041C4F201010860FFE7FFE70898013032
:1010C000089053E60BB0704782B00190ADF8021063
:1010D00001980069BDF80210084204D0FFE7012022
:1010E0008DF8010003E000208DF80100FFE79DF876
:1010F000010002B07047000082B00190ADF802100C
:101100008DF801209DF8010028B1FFE7BDF802002D
:101110000199886104E0BDF8020001998862FFE747
:1011200002B0704740F24020C2F2000000687047F1
:1011300040F23000C2F20000026840F24021C2F2E8
:1011400000010868104408607047000080B582B054
:10115000002000908DF80700032000F09BF8009815
:1011600000F00EF820B1FFE701208DF8070002E043
:1011700000F04AF8FFE79DF8070002B080BD0000CC
:1011800080B582B0019000208DF8030040F230005D
:10119000C2F20000006878B3FFE740F20400C2F238
:1011A0000000006840F23001C2F200010A684FF40A
:1011B0007A71B1FBF2F1B0FBF1F000F045FFB0B98C
:1011C000FFE701980F280DD8FFE701994FF0FF3096
:1011D000002200F047F8019840F23401C2F2000109
:1011E000086003E001208DF80300FFE703E0012021
:1011F0008DF80300FFE703E001208DF80300FFE70F
:101200009DF8030002B080BD80B582B0FFE741F2D7
:101210006000C4F20200016841F001010160006851
:1012200000F0010001900198FFE7FFE741F258004C
:10123000C4F20200016841F080510160006800F0D2
:10124000805000900098FFE700F006F902B080BDE2
:1012500080B582B08DF807009DF9070003F076F89D
:1012600002B080BD80B586B08DF81700049103925E
:1012700003F084F802909DF91700019002980499F8
:10128000039A02F04FFA0146019803F07FF806B086
:1012900080BD000080B582B00190019803F098F8FD
:1012A00002B080BD85B00390039800285ED1FFE7AF
:1012B00047F20000C4F20000006800F4C060B0F51E
:1012C000806F49D1FFE747F28001C4F2000108684E
:1012D00020F48070086047F20002C4F20002116836
:1012E000012060F34A21116040F20401C2F20001C2
:1012F0000968322251434DF68362C4F21B32A1FBCE
:10130000022100EB91400290FFE747F21400C4F283
:1013100000000168002049050029019006D5FFE77B
:101320000298002818BF01200190FFE70198C0072C
:1013300020B1FFE7029801380290E6E747F2140077
:10134000C4F2000000684005002804D5FFE7032030
:101350008DF813007CE008E047F28001C4F2000140
:10136000086820F480700860FFE76DE00398B0F52E
:10137000007F5ED1FFE747F20000C4F20000006882
:1013800000F4C060B0F5806F49D1FFE747F28001FB
:10139000C4F20001086840F48070086047F200025F
:1013A000C4F200021168012060F34A21116040F28A
:1013B0000401C2F200010968322251434DF68362F2
:1013C000C4F21B32A1FB022100EB91400290FFE727
:1013D00047F21400C4F2000001680020490500290A
:1013E000009006D5FFE70298002818BF0120009062
:1013F000FFE70098C00720B1FFE70298013802908C
:10140000E6E747F21400C4F2000000684005002837
:1014100004D5FFE703208DF8130019E008E047F238
:101420008001C4F20001086840F480700860FFE7A2
:1014300009E047F20001C4F200010868022262F3E9
:101440004A200860FFE7FFE700208DF81300FFE760
:101450009DF8130005B0704747F20801C4F200017F
:10146000086840F4804008607047000080B586B08E
:101470000490039100200090049820B9FFE7012018
:101480008DF8170081E1039842F20001C4F20201D5
:10149000096801F00F01884216D9FFE742F2000007
:1014A000C4F20200016821F00F01039A11430160A8
:1014B000006800F00F000399884204D0FFE7012084
:1014C0008DF8170061E1FFE704980078C007002855
:1014D00000F0A380FFE704984068032839D1FFE7B4
:1014E00041F20000C4F2020000688001002804D428
:1014F000FFE701208DF8170047E102F04BF901905A
:1015000001984BF20141C0F2C441884220D3FFE769
:1015100041F20800C4F20200006810F0F00F0AD097
:10152000FFE7049800788007002810D5FFE70498AB
:10153000806860B9FFE741F20801C4F2020108685F
:10154000082262F30710086080200090FFE7FFE7A1
:1015500038E00498406802280ED1FFE741F200000D
:10156000C4F2020000688003002804D4FFE70120D1
:101570008DF8170009E10DE041F20000C4F202000D
:1015800000684005002804D4FFE701208DF817000B
:10159000FBE0FFE700F0FEF8019001984BF20141FB
:1015A000C0F2C44188420CD3FFE741F20801C4F203
:1015B00002010868082262F307100860802000908A
:1015C000FFE7FFE741F20801C4F20201086820F0DA
:1015D0000300049A526810430860FFF7A3FD0290CD
:1015E000FFE741F20800C4F20200006800F00C00BE
:1015F00004994968B0EB810F0ED0FFE7FFF792FD29
:101600000299401A41F28931884204D3FFE703204E
:101610008DF81700B9E0E4E7FFE704980078800749
:1016200000282CD5FFE7049800784007002809D54A
:10163000FFE741F20801C4F20201086840F4E060EB
:101640000860FFE704980078000700280BD5FFE743
:1016500041F20801C4F20201086840F4E06020F49D
:1016600060500860FFE741F20801C4F20201086817
:1016700020F0F000049A9268104308600DE0009892
:10168000802809D1FFE741F20801C4F2020108688D
:1016900020F0F0000860FFE7FFE7039842F2000146
:1016A000C4F20201096801F00F01884228D2FFE765
:1016B00042F20001C4F20201086820F00F00039A10
:1016C00010430860FFF72EFD0290FFE742F2000092
:1016D000C4F20200006800F00F00039988420ED0A7
:1016E000FFE7FFF71FFD0299401A41F28931884256
:1016F00004D3FFE703208DF8170046E0E6E7FFE795
:1017000004980078400700280CD5FFE741F2080153
:10171000C4F20201086820F4E060049AD268104321
:101720000860FFE704980078000700280DD5FFE760
:1017300041F20801C4F20201086820F46050049AE2
:10174000126940EAC2000860FFE700F023F841F2A6
:101750000801C4F202010968C9B20A0945F2480148
:10176000C0F60001895C01F01F01C84040F204018D
:10177000C2F20001086040F23400C2F200000068CA
:10178000FFF7FEFC8DF81700FFE79DF8170006B085
:1017900080BD000086B041F20800C4F2020000687B
:1017A00000F00C00042806D1FFE742F20040C0F22E
:1017B000F400019069E041F20800C4F20200006800
:1017C00000F00C00082806D1FFE743F20060C0F2E9
:1017D0006E10019058E041F20800C4F20200006867
:1017E00000F00C000C284BD1FFE741F20C00C4F2D2
:1017F0000200016801F0030104910068C1B20120F8
:1018000000EB1110029004980090022815D0FFE719
:101810000098032812D1FFE7029943F20060C0F25A
:101820006E10B0FBF1F041F20C01C4F20201096844
:10183000C1F306214843059011E0FFE7029942F207
:101840000040C0F2F400B0FBF1F041F20C01C4F230
:1018500002010968C1F3062148430590FFE741F200
:101860000C00C4F20200006800F0C061022000EB2E
:101870001160039005980399B0FBF1F0019002E02C
:1018800000200190FFE7FFE7FFE7019806B07047EF
:10189000B0B588B00690069820B9FFE701208DF812
:1018A0001F00CCE306980078C007002800F09B805A
:1018B000FFE741F20800C4F20200006800F00C00EB
:1018C000049041F20C00C4F20200006800F0030032
:1018D000039004980C2804D1FFE70398032804D050
:1018E000FFE70498082812D1FFE741F20000C4F294
:1018F000020000688003002808D5FFE706984068CA
:1019000020B9FFE701208DF81F0098E36AE0FFE7A8
:1019100006984068B0F5803F09D1FFE741F2000129
:10192000C4F20201086840F48030086020E00698A4
:101930004068B0F5A02F0DD1FFE741F20001C4F2DD
:101940000201086840F480200860086840F4803094
:1019500008600CE041F20001C4F20201086820F4C2
:1019600080300860086820F480200860FFE7FFE707
:10197000FFE706984068D0B1FFE7FFF7D3FB05907B
:10198000FFE741F20000C4F2020000688003002873
:101990000CD4FFE7FFF7C6FB0599401A652804D36E
:1019A000FFE703208DF81F0049E3EAE719E0FFF79E
:1019B000B9FB0590FFE741F20000C4F202000068A5
:1019C000800300280CD5FFE7FFF7ACFB0599401A10
:1019D000652804D3FFE703208DF81F002FE3EAE713
:1019E000FFE7FFE7FFE7069800788007002840F14F
:1019F0009F80FFE741F20800C4F20200006800F097
:101A00000C00049041F20C00C4F20200006800F0E7
:101A10000300039004980C2804D1FFE703980228E0
:101A200004D0FFE7049804282CD1FFE741F200001E
:101A3000C4F2020000684005002808D5FFE70698B8
:101A4000C06820B9FFE701208DF81F00F7E241F2DE
:101A50000401C4F20201086820F0FE40069A1269EF
:101A600040EA0260086040F23400C2F20000006800
:101A7000FFF786FB20B1FFE701208DF81F00DEE2B3
:101A8000FFE754E00698C06870B3FFE741F2000139
:101A9000C4F20201086840F480700860FFF742FB5E
:101AA0000590FFE741F20000C4F202000068400523
:101AB00000280CD4FFE7FFF735FB0599401A0328EF
:101AC00004D3FFE703208DF81F00B8E2EAE741F2F4
:101AD0000401C4F20201086820F0FE40069A12696F
:101AE00040EA0260086021E041F20001C4F2020114
:101AF000086820F480700860FFF714FB0590FFE78A
:101B000041F20000C4F202000068400500280CD534
:101B1000FFE7FFF707FB0599401A032804D3FFE707
:101B200003208DF81F008AE2EAE7FFE7FFE7FFE7FF
:101B3000069800780007002849D5FFE70698406915
:101B400010B3FFE741F29401C4F20201086840F0CB
:101B500001000860FFF7E6FA0590FFE741F2940004
:101B6000C4F202000068800700280CD4FFE7FFF7EA
:101B7000D9FA0599401A032804D3FFE703208DF80A
:101B80001F005CE2EAE721E041F29401C4F20201A5
:101B9000086820F001000860FFF7C4FA0590FFE72D
:101BA00041F29400C4F202000068800700280CD5BE
:101BB000FFE7FFF7B7FA0599401A032804D3FFE7B8
:101BC00003208DF81F003AE2EAE7FFE7FFE70698F7
:101BD00000784007002840F1C680FFE700208DF81C
:101BE0000B0041F25800C4F202000068C000002857
:101BF00013D4FFE7FFE741F25800C4F20200016886
:101C000041F080510160006800F08050019001981F
:101C1000FFE701208DF80B00FFE747F20000C4F258
:101C200000000068C005002822D4FFE747F2000149
:101C3000C4F20001086840F480700860FFF772FA8F
:101C40000590FFE747F20000C4F200000068C005FD
:101C500000280CD4FFE7FFF765FA0599401A03281E
:101C600004D3FFE703208DF81F00E8E1EAE7FFE770
:101C7000FFE706988068012809D1FFE741F290014B
:101C8000C4F20201086840F0010008601FE00698F5
:101C9000806805280DD1FFE741F29001C4F20201EE
:101CA000086840F004000860086840F0010008601F
:101CB0000CE041F29001C4F20201086820F001003A
:101CC0000860086820F004000860FFE7FFE7FFE70E
:101CD00006988068E0B1FFE7FFF724FA0590FFE778
:101CE00041F29000C4F202000068800700280ED480
:101CF000FFE7FFF717FA0599401A41F28931884248
:101D000004D3FFE703208DF81F0098E1E8E71BE00C
:101D1000FFF708FA0590FFE741F29000C4F20200D5
:101D20000068800700280ED5FFE7FFF7FBF905994B
:101D3000401A41F28931884204D3FFE703208DF82D
:101D40001F007CE1E8E7FFE79DF80B00012809D1BF
:101D5000FFE741F25801C4F20201086820F0805008
:101D60000860FFE7FFE7069800788006002849D55D
:101D7000FFE70698806910B3FFE741F29801C4F2CB
:101D80000201086840F001000860FFF7CBF90590F8
:101D9000FFE741F29800C4F20200006880070028C3
:101DA0000CD4FFE7FFF7BEF90599401A032804D3C6
:101DB000FFE703208DF81F0041E1EAE721E041F24F
:101DC0009801C4F20201086820F001000860FFF7E2
:101DD000A9F90590FFE741F29800C4F202000068FB
:101DE000800700280CD5FFE7FFF79CF90599401AFA
:101DF000032804D3FFE703208DF81F001FE1EAE763
:101E0000FFE7FFE70698C069002800F01481FFE7AC
:101E100041F20800C4F20200006800F00C000C2837
:101E200000F0B080FFE70698C06902287CD1FFE788
:101E300041F20001C4F20201086820F080700860DD
:101E4000FFF770F90590FFE741F20000C4F20200CD
:101E50000068800100280CD5FFE7FFF763F90599BA
:101E6000401A032804D3FFE703208DF81F00E6E0A3
:101E7000EAE741F20C01C4F20201086848F20C02E0
:101E8000C0F29F121040DDF818C0DCF82020DCF80A
:101E90002450DCF828E0DCF82C306FF00F0404EB61
:101EA0000514224342EA0E22DCF8304040F2000ED4
:101EB000CFF6E07E0EEA045EAEF5001E42EA0E02A8
:101EC000DCF834E04FF07E4C0CEA0E6C0CF17E4CEA
:101ED00042EA0C0242EAC3621043086041F2000287
:101EE000C4F20202106840F080701060086840F090
:101EF00080700860FFF716F90590FFE741F20000D7
:101F0000C4F202000068800100280CD4FFE7FFF74C
:101F100009F90599401A032804D3FFE703208DF837
:101F20001F008CE0EAE72CE041F20001C4F202015C
:101F3000086820F080700860FFF7F4F80590FFE76C
:101F400041F20000C4F202000068800100280CD5B4
:101F5000FFE7FFF7E7F80599401A032804D3FFE7E6
:101F600003208DF81F006AE0EAE741F20C01C4F299
:101F7000020108684FF6FC72CFF6EE62104008606E
:101F8000FFE757E00698C069012804D1FFE7012068
:101F90008DF81F0053E041F20C00C4F2020000680B
:101FA0000390039800F003000699096A88423BD128
:101FB000FFE7039800F0F00006994A6A6FF00F01FE
:101FC00001EB021188422FD1FFE7039800F4FE4095
:101FD0000699896AB0EB012F26D1FFE7039800F03C
:101FE00078400699C96AB0EBC16F1DD1FFE703982D
:101FF00000F4C00006990A6B0021CFF6E07101EAF7
:102000000251A1F5001188420ED1FFE7039800F0BC
:10201000C06006994A6B4FF07E4101EA026101F10E
:102020007E41884204D0FFE701208DF81F0006E0C2
:10203000FFE7FFE7FFE700208DF81F00FFE79DF8AF
:102040001F0008B0B0BD000080B582B001900198BB
:1020500001F08EFD02B080BD85B003900291FFE7D4
:10206000039890F83C00012804D1FFE702208DF886
:1020700013008CE00399012081F83C00FFE7FFE7A3
:102080000399022081F83D000398006840680190A0
:1020900003980068806800900398006842F6004149
:1020A000C4F20101884209D0FFE70398006843F2B7
:1020B0000041C4F2010188420AD1FFE7019820F4EF
:1020C0007000019002984168019808430190FFE771
:1020D00001984FF68F71CFF6FF510840019002989A
:1020E00001680198084301900198039909684860C4
:1020F0000398006842F60041C4F2010188422AD0E8
:10210000FFE703980068B0F1804F24D0FFE7039801
:10211000006840F20041C4F2000188421BD0FFE792
:102120000398006840F60001C4F20001884212D012
:10213000FFE70398006843F20041C4F201018842BE
:1021400009D0FFE70398006844F20001C4F20101DE
:1021500088420ED1FFE7009820F08000009002989E
:102160008168009808430090009803990968886086
:10217000FFE70399012081F83D00FFE70399002064
:1021800081F83C00FFE700208DF81300FFE79DF881
:10219000130005B07047000080B582B00090009831
:1021A00020B9FFE701208DF8070045E0009890F87E
:1021B0003D0040B9FFE70099002081F83C000098FD
:1021C00000F03EF8FFE70099022081F83D000099F9
:1021D00051F8040B01F040FD0099012081F84800FE
:1021E000FFE70099012081F83E00009981F83F0047
:1021F000009981F84000009981F84100009981F828
:102200004200009981F84300FFE7FFE700990120B1
:1022100081F84400009981F84500009981F8460052
:10222000009981F84700FFE70099012081F83D00FF
:1022300000208DF80700FFE79DF8070002B080BD81
:1022400080B58EB00D9000200C900B900A900990F4
:1022500008900D980068B0F1804F40F0D380FFE700
:10226000FFE741F25800C4F20200016841F00101A9
:102270000160006800F0010007900798FFE7FFE7A2
:1022800041F24C00C4F20200016841F0010101601A
:10229000006800F0010006900698FFE7062008900D
:1022A00002200990002004900A900B9001200C90CD
:1022B0004FF0904008A9FEF753FD049940F24C00FE
:1022C000C2F2000005900822C4F202020260382225
:1022D00042608160C160802202614FF400724261FD
:1022E0004FF400628261C1610162FEF7EDFB18B13B
:1022F000FFE7FEF735FBFFE7FFE70D9840F24C01E3
:10230000C2F2000141620D988862FFE740F2AC0022
:10231000C2F2000003901C21C4F2020101603921C5
:10232000416000218160C160802202614FF400722F
:1023300042614FF400628261C1610162FEF7C4FB39
:1023400018B1FFE7FEF70CFBFFE7FFE70D9840F23F
:10235000AC01C2F2000181620D988862FFE740F291
:102360000C10C2F2000002904421C4F2020101608C
:102370003A21416000218160C160802202614FF4F6
:10238000007242614FF400628261C1610162FEF736
:102390009BFB18B1FFE7FEF7E3FAFFE7FFE70D98B5
:1023A00040F20C11C2F20001C1620D988862FFE791
:1023B00040F26C10C2F2000001903021C4F2020120
:1023C00001603B21416000218160C1608022026187
:1023D0004FF4007242614FF400628261C161016298
:1023E000FEF772FB18B1FFE7FEF7BAFAFFE7FFE767
:1023F0000D9840F26C11C2F2000101630D988862E1
:10240000FFE7FFE70EB080BD80B586B00490039172
:1024100000208DF80B00FFE7049890F83C0001289D
:1024200004D1FFE702208DF81700D3E004990120C2
:1024300081F83C00FFE7FFE70499022081F83D00A6
:10244000049800688068019001984FF68871CFF673
:10245000CE7108400190019820F47F4001900198CE
:10246000049909688860039800680090002800F0CB
:102470009780FFE70098102800F09280FFE700980F
:10248000202800F08D80FFE70098302800F0888039
:10249000FFE70098402876D0FFE70098502858D0F2
:1024A000FFE70098602861D0FFE7009870282CD0E3
:1024B000FFE70098B0F5805F26D0FFE70098B0F501
:1024C000005F37D0FFE70098B0F1101F68D0FFE73A
:1024D00000982021C0F21001884261D0FFE70098E7
:1024E0003021C0F2100188425AD0FFE70098402105
:1024F000C0F21001884253D0FFE700987021C0F26B
:10250000100188424CD052E055E004980068039BCB
:102510005A689968DB6801F079FD04980068806862
:102520000190019840F077000190019804990968A2
:10253000886040E004980068039B5A689968DB68EB
:1025400001F064FD04980168886840F48040886068
:1025500031E004980068039A5168D26801F088FD60
:1025600004980068502101F06BFD24E00498006895
:10257000039A5168D26801F01BFE0498006860213C
:1025800001F05EFD17E004980068039A5168D26874
:1025900001F06EFD04980068402101F051FD0AE051
:1025A000049800680399096801F04AFD03E00120DE
:1025B0008DF80B00FFE70499012081F83D00FFE74B
:1025C0000499002081F83C00FFE79DF80B008DF88E
:1025D0001700FFE79DF8170006B080BD81B000909E
:1025E00001B0704780B586B005900598007F01382E
:1025F00001460091072800F243810099DFE811F0BD
:10260000080009004001A4004001400140013F01D1
:1026100037E140F22023C2F2000319685868401ADB
:102620004FF6FF72104448F20101C8F20001A0FB0E
:1026300001CE4FEADE3C4FEA0C4CACEBDE3CA0EBAB
:102640000C0C44F24020C0F20F00B0FBFCF040F252
:10265000440CC2F2000CCCF80000D3F800C058685B
:10266000A0EB0C001044A0FB01CE4FEADE3C4FEA89
:102670000C4CACEBDE3CA0EB0C0000EE100AB8EE0C
:10268000400A8DED040A40F21820C2F200000068F2
:102690001B68C01A1044A0FB0112D10B0904A1EB66
:1026A000D231401A00EE100AB8EE400A8DED030A4E
:1026B0009DED030A9DED041A80EE010A9FED721A4A
:1026C000B4EE410AF1EE10FA11DAFFE79DED030ACC
:1026D0009FED6E1A20EE010A9DED041A80EE010AAC
:1026E00040F23C00C2F2000080ED000A2BE040F214
:1026F0001820C2F20000406840F22021C2F200011E
:102700000968401A4FF6FF71084448F20101C8F207
:102710000001A0FB0112D10B0904A1EBD231401A38
:1027200000EE100AB8EE400A9FED581A20EE010A9A
:102730009DED041A80EE010A40F23C00C2F2000056
:1027400080ED000AFFE79CE040F22823C2F200037C
:1027500019685868401A4FF6FF72104448F2010198
:10276000C8F20001A0FB01CE4FEADE3C4FEA0C4C60
:10277000ACEBDE3CA0EB0C0C44F24020C0F20F00AE
:10278000B0FBFCF040F2480CC2F2000CCCF80000A8
:10279000D3F800C05868A0EB0C001044A0FB01CE99
:1027A0004FEADE3C4FEA0C4CACEBDE3CA0EB0C00FD
:1027B00000EE100AB8EE400A8DED020A40F2302019
:1027C000C2F2000000681B68C01A1044A0FB01128E
:1027D000D10B0904A1EBD231401A00EE100AB8EE79
:1027E000400A8DED010A9DED010A9DED021A80EE71
:1027F000010A9FED251AB4EE410AF1EE10FA11DA42
:10280000FFE79DED010A9FED211A20EE010A9DEDE3
:10281000021A80EE010A40F24000C2F2000080ED90
:10282000000A2BE040F23020C2F20000406840F283
:102830002821C2F200010968401A4FF6FF710844CE
:1028400048F20101C8F20001A0FB0112D10B0904FA
:10285000A1EBD231401A00EE100AB8EE400A9FED0B
:102860000B1A20EE010A9DED021A80EE010A40F2D9
:102870004000C2F2000080ED000AFFE701E000E046
:10288000FFE706B080BD00BFAE47813F0000C842F1
:1028900081B0009001B0704780B586B0049003917C
:1028A000029200208DF80700FFE7049890F83C00A2
:1028B000012804D1FFE702208DF8170080E0049979
:1028C000012081F83C00FFE7FFE70298B0B9FFE77D
:1028D00004980068039B19685A68DB6801F0F0FBF4
:1028E00004980168886920F00C0088610398826868
:1028F0000498016888691043886156E002980428AA
:1029000017D1FFE704980068039B19685A68DB68D1
:1029100001F078FC04980168886920F440608861BF
:102920000398826804980168886940EA02208861F7
:102930003AE00298082816D1FFE704980068039B44
:1029400019685A68DB6801F093FC04980168C8694B
:1029500020F00C00C8610398826804980168C86977
:102960001043C8611FE002980C2817D1FFE70498B4
:102970000068039B19685A68DB6801F0AFFC049893
:102980000168C86920F44060C861039882680498AF
:102990000168C86940EA0220C86103E001208DF89F
:1029A0000700FFE7FFE7FFE7FFE7FFE704990020E5
:1029B00081F83C00FFE79DF807008DF81700FFE75E
:1029C0009DF8170006B080BD80B582B000900098D9
:1029D00020B9FFE701208DF8070045E0009890F846
:1029E0003D0040B9FFE70099002081F83C000098C5
:1029F00000F03EF8FFE70099022081F83D000099C1
:102A000051F8040B01F028F90099012081F84800E1
:102A1000FFE70099012081F83E00009981F83F000E
:102A2000009981F84000009981F84100009981F8EF
:102A30004200009981F84300FFE7FFE70099012079
:102A400081F84400009981F84500009981F846001A
:102A5000009981F84700FFE70099012081F83D00C7
:102A600000208DF80700FFE79DF8070002B080BD49
:102A700081B0009001B0704780B596B0149013916A
:102A80001292ADF8463000208DF84500139828B911
:102A9000FFE7149890F83E000E9034E01398042855
:102AA00005D1FFE7149890F83F000D9028E01398A7
:102AB000082805D1FFE7149890F840000C901CE01E
:102AC00013980C2805D1FFE7149890F841000B905B
:102AD00010E01398102805D1FFE7149890F84200F1
:102AE0000A9004E0149890F843000A90FFE70A98CF
:102AF0000B90FFE70B980C90FFE70C980D90FFE709
:102B00000D980E90FFE70E988DF83F00139828B9A6
:102B1000FFE7149890F8440009901CE013980428EB
:102B200005D1FFE7149890F84500089010E013983D
:102B3000082805D1FFE7149890F84600079004E0B4
:102B4000149890F847000790FFE707980890FFE770
:102B500008980990FFE709988DF83E009DF83F001E
:102B6000022805D0FFE79DF83E00022804D1FFE7C8
:102B700002208DF85700A0E19DF83F0001287AD18E
:102B8000FFE79DF83E00012875D1FFE7129820B1BC
:102B9000FFE7BDF8460020B9FFE701208DF8570098
:102BA0008BE1139828B9FFE71499022081F83E00C1
:102BB00038E01398042806D1FFE71499022081F821
:102BC0003F0006902CE01398082806D1FFE71499DF
:102BD000022081F8400005901FE013980C2806D1D0
:102BE000FFE71499022081F84100049012E0139845
:102BF000102806D1FFE71499022081F842000390C3
:102C000005E01499022081F843000390FFE7039840
:102C10000490FFE704980590FFE705980690FFE70A
:102C20000698FFE7139828B9FFE71499022081F866
:102C300044001EE01398042806D1FFE714990220EF
:102C400081F84500029012E01398082806D1FFE7AA
:102C50001499022081F84600019005E014990220A1
:102C600081F847000190FFE701980290FFE7029882
:102C7000FFE7FFE703E001208DF857001DE1FFE7C4
:102C8000149800681399012201F0B2F8139800908B
:102C90000C2800F2B6800099DFE801F007B3B3B367
:102CA00032B3B3B35DB3B3B388001498416A43F64B
:102CB0002960C0F60000C8621498416A43F6FD60BE
:102CC000C0F6000008631498416A43F67170C0F6BC
:102CD0000000486314980168406A3431129ABDF8C4
:102CE0004630FDF79DFF20B1FFE701208DF857002A
:102CF000E3E014980168C86840F40070C86084E09C
:102D00001498816A43F62960C0F60000C8621498DE
:102D1000816A43F6FD60C0F6000008631498816A7A
:102D200043F67170C0F60000486314980168806A29
:102D30003831129ABDF84630FDF772FF20B1FFE737
:102D400001208DF85700B8E014980168C86840F475
:102D50008060C86059E01498C16A43F62960C0F6E3
:102D60000000C8621498C16A43F6FD60C0F6000016
:102D700008631498C16A43F67170C0F60000486396
:102D800014980168C06A3C31129ABDF84630FDF7CC
:102D900047FF20B1FFE701208DF857008DE0149820
:102DA0000168C86840F40060C8602EE01498016BA8
:102DB00043F62960C0F60000C8621498016B43F620
:102DC000FD60C0F6000008631498016B43F6717053
:102DD000C0F60000486314980168006B4031129AF5
:102DE000BDF84630FDF71CFF20B1FFE701208DF84C
:102DF000570062E014980168C86840F48050C860C9
:102E000003E001208DF84500FFE71498006842F6C2
:102E10000041C4F2010188422AD0FFE714980068FB
:102E2000B0F1804F24D0FFE71498006840F20041D1
:102E3000C4F2000188421BD0FFE71498006840F6F6
:102E40000001C4F20001884212D0FFE71498006824
:102E500043F20041C4F20101884209D0FFE714980F
:102E6000006844F20001C4F20101884219D1FFE771
:102E70001498006880680721C0F201010840109092
:102E8000109806280CD0FFE71098B0F5803F07D0C7
:102E9000FFE714980168086840F001000860FFE748
:102EA00006E014980168086840F001000860FFE738
:102EB0009DF845008DF85700FFE79DF8570016B0C4
:102EC00080BD0000FFE7FEE780B586B000200590DA
:102ED00004900390029001904FF6FF7101910290CF
:102EE00003210491039040F60000C4F6000001A9FC
:102EF000FDF736FF06B080BD80B586B00020059096
:102F000004900390029001904FF6FF71019101210E
:102F1000029103210491039040F60000C4F60000E2
:102F200001A9FDF71DFF06B080BD000080B584B08B
:102F3000ADF80E00002101910291084600F0B0F9B1
:102F400000F002FA01980290FFE70298800A4A28EE
:102F500009D8FFE7BDF80E0000F0C0F9FFE70298BE
:102F600001300290F1E704B080BD000080B58CB064
:102F700000200B900A90099008900790FFE741F21B
:102F80004C00C4F20200016841F0040101600068D5
:102F900000F0040006900698FFE7FFE741F24C00BE
:102FA000C4F20200016841F001010160006800F014
:102FB000010005900598FFE7FFE741F24C00C4F2DD
:102FC0000200016841F002010160006800F00200A7
:102FD00004900498FFE74FF4487007900120009098
:102FE0000890032001900A9000200290099040F27E
:102FF0000040C4F6000007A90391FDF7B1FE009B55
:10300000019A029803994FF4807CCDF81CC0089374
:103010000A9209904FF09040FDF7A2FEFFF76CFF77
:103020001821C4F60001086840F48070086040F27E
:103030001841C4F60001086840F4087008600CB03C
:1030400080BD000080B582B08DF80700ADF8041097
:103050008DF803209DF8030020388DF803009DF8BB
:103060000700BDF804109DF8032002EB420345F26F
:103070005802C0F6000202EB031200F037F802B06B
:1030800080BD000080B586B08DF817000491002047
:10309000039040F23F10ADF80A00FFE70498017872
:1030A0000020019039B1FFE703990020142938BFAF
:1030B00001200190FFE70198C007A0B1FFE79DF84C
:1030C0001700BDF80A10049A1278FFF7BBFFBDF88D
:1030D0000A001038ADF80A000498013004900398F3
:1030E00001300390DAE706B080BD000080B586B0FD
:1030F0008DF81700ADF81410049200200090039092
:1031000002908DF807009DF817008DF807009DF8D4
:103110000700BDF8141000F0C3F800980390FFE713
:103120000398172837D8FFE700F00EF90020029027
:10313000FFE702980F281ED8FFE70498039930F89C
:1031400011000299C840C00740B9FFE740F20000F3
:10315000C2F20000008800F0C1F807E040F2380039
:10316000C2F20000008800F0B9F8FFE7FFE702981C
:1031700001300290DDE79DF8070001308DF807006F
:103180009DF80700BDF8141000F08AF8FFE70398D7
:1031900001300390C4E706B080BD000080B5FFF7A2
:1031A000E5FE002000F01CF8014640F23A00C2F2B1
:1031B00000000180008848F23021884203D1FFE7F7
:1031C00000F036FB02E000F0C3FBFFE7002000F058
:1031D00007F840F23A01C2F20001088080BD000009
:1031E00080B582B08DF8070040F22842C4F6000294
:1031F000106840F400701060106840F48070106037
:1032000040F21841C4F600010091086840F0200027
:1032100008609DF8070040F61403C4F60003186028
:10322000106840F02000106000BF00BF00BF0868B9
:1032300040F020000860086840F480700860FFF7E4
:1032400043FE2821C4F60001086840F4807008603D
:1032500000BF00BF00BF40F61000C4F600000068C9
:10326000ADF804001821C4F60001086840F480702D
:103270000860FFF741FE0099086840F4007008609C
:10328000BDF8040002B080BD81B0ADF80200BDF809
:10329000020040F20001C2F20001088001B0704754
:1032A00080B582B08DF80700ADF804109DF80710C6
:1032B000202000F07BF8BDF80410212000F076F803
:1032C00002B080BD81B0ADF80200BDF8020040F24E
:1032D0003801C2F20001088001B0704781B0ADF83A
:1032E000020040F22842C4F60002106840F4007068
:1032F000106040F21841C4F60001086840F4807084
:103300000860086840F020000860BDF8020040F640
:103310001403C4F600031860106840F02000106029
:1033200000BF00BF00BF086840F0200008600868C8
:1033300040F48070086000BF00BF00BF086840F420
:103340000070086001B0704740F22842C4F60002E5
:10335000106840F400701060106840F480701060D5
:1033600040F21841C4F60001086840F020000860EF
:1033700040F61403C4F6000322201860106840F0E1
:103380002000106000BF00BF00BF086840F02000B0
:103390000860086840F48070086000BF00BF00BF8C
:1033A000086840F4007008607047000081B08DF834
:1033B0000300ADF8001040F22842C4F60002106885
:1033C00040F400701060106840F48070106040F2AB
:1033D0001841C4F60001086840F0200008609DF81C
:1033E000030040F61403C4F600031860106840F0B0
:1033F0002000106000BF00BF00BF086840F0200040
:103400000860086840F480700860BDF8000018602B
:10341000106840F02000106000BF00BF00BF0868C7
:1034200040F020000860086840F48070086001B037
:103430007047000080B588B0FFE741F24800C4F251
:103440000200016841F004010160006800F004001E
:1034500007900798FFE7FFE741F24800C4F2020037
:10346000016841F001010160006800F00100069070
:103470000698FFE70B200190002204921146FDF709
:10348000F1FE0198FDF7E4FE049A0C20029011462B
:10349000FDF7E8FE0298FDF7DBFE049A0D2003908D
:1034A0001146FDF7DFFE0398FDF7D2FE049A0E20C9
:1034B00005901146FDF7D6FE0598FDF7C9FE08B048
:1034C00080BD000080B592B00020119010900F9048
:1034D0000E900D90FFE741F24C00C4F2020001682B
:1034E00041F004010160006800F004000C900C98A9
:1034F000FFE7FFE741F24C00C4F20200016841F02F
:1035000020010160006800F020000B900B98FFE79D
:10351000FFE741F24C00C4F20200016841F00101F2
:103520000160006800F001000A900A98FFE7FFE7D9
:1035300041F24C00C4F20200016841F00201016056
:10354000006800F0020009900998FFE7FFE741F2E8
:103550004C00C4F20200016841F0080101600068FB
:1035600000F0080008900898FFE740F60000C4F655
:10357000000002904FF6FF71019100220592FDF7C5
:10358000BBFD059A40F60040C4F6000006900421F9
:103590000391FDF7B1FD019A029805990D92012260
:1035A00004920E920F9110910DA90791FDF7D8FB8F
:1035B000049A059807990D920E900F904FF0904045
:1035C000FDF7CEFB0598079907220D920E900F90FC
:1035D00040F20040C4F60000FDF7C2FBDDF80CC06D
:1035E000049B059A06980799CDF834C00E930F9264
:1035F0001092FDF7B5FB12B080BD000080B58CB015
:10360000002100910B910A9109910891079106916F
:103610000591049103910291019140F2CC10C2F204
:1036200000004FF0804202604F22426081604FF6FE
:10363000FF72C26001618161FEF7AEFD18B1FFE764
:10364000FDF78EF9FFE74FF48050089040F2CC1060
:10365000C2F2000008A9FEF7D7FE18B1FFE7FDF798
:103660007FF9FFE740F2CC10C2F20000FFF7ACF99F
:1036700018B1FFE7FDF774F9FFE700200590079008
:1036800040F2CC10C2F2000005A9FEF7E5FC18B12B
:10369000FFE7FDF765F9FFE70220019002900022A5
:1036A0000392049240F2CC10C2F2000001A9FFF78D
:1036B000F3F818B1FFE7FDF753F9FFE70020019099
:1036C0000120029040F2CC10C2F2000001A90422B5
:1036D000FFF7E2F818B1FFE7FDF742F9FFE740F224
:1036E000CC10C2F2000001A90822FFF7D5F818B1EA
:1036F000FFE7FDF735F9FFE702200190029040F265
:10370000CC10C2F2000001A90C22FFF7C5F818B1D5
:10371000FFE7FDF725F9FFE70CB080BDFFE7FEE707
:10372000FFE7FEE788B0079006910592079800F042
:10373000070004900498C0F10700052803D3FFE7B1
:103740000420019004E00498C0F107000190FFE715
:103750000198039004980430062803D8FFE700205E
:10376000009003E0049803380090FFE7009802906F
:1037700006980399012202FA01F101390840029BDF
:10378000984005999A40013A1140084308B07047A3
:103790007047000086B041F20C00C4F202000168DC
:1037A00001F0030104910068C1B2012000EB111087
:1037B000029004980090022815D0FFE70098032893
:1037C00012D1FFE7029943F20060C0F26E10B0FB25
:1037D000F1F041F20C01C4F202010968C1F30621C3
:1037E0004843059011E0FFE7029942F20040C0F221
:1037F000F400B0FBF1F041F20C01C4F202010968DF
:10380000C1F3062148430590FFE741F20C00C4F2E2
:103810000200006800F0C061022000EB116003901C
:1038200005980399B0FBF1F00190019806B070473C
:1038300080B586B00020009001210191FFF7B6FD10
:103840004FF47A70FDF762F800990198FFF7AEFD2A
:10385000102041F29071FFF7A9FD60204FF41C5138
:10386000FFF7A4FD01996120FFF7A0FD462002218A
:103870000291FFF79BFD132048F21001FFF796FD20
:10388000122048F2FE01FFF791FD02984FF4A0616B
:10389000FFF78CFD0320059041F23001FFF786FD14
:1038A000302040F203310491FFF780FD049931206C
:1038B000FFF77CFD04993220FFF778FD33204FF4A9
:1038C00040710391FFF772FD05993420FFF76EFDFB
:1038D00004993520FFF76AFD36201421FFF766FDB5
:1038E00004993720FFF762FD04993820FFF75EFD49
:1038F00004993920FFF75AFD03993A20FFF756FD46
:1039000005993B20FFF752FD04993C20FFF74EFD3F
:103910003D204FF4A051FFF749FD92204FF4007174
:10392000FFF744FD04999320FFF740FD902040F6F7
:103930000D01FFF73BFD059841F21801FFF736FD39
:10394000072040F27311FFF731FD06B080BD000083
:1039500080B58CB0E32043F20801FFF727FDE72094
:1039600012210191FFF722FDEF20069041F2312153
:10397000FFF71CFD0120079000210991FFF716FDBC
:1039800002204FF4E061FFF711FD03200A9041F29D
:103990003001FFF70BFD099904200490FFF706FDA5
:1039A000082040F20721FFF701FD09990920FFF7E0
:1039B000FDFC09990A20FFF7F9FC09990C20FFF793
:1039C000F5FC09990D20FFF7F1FC09990F200590EE
:1039D000FFF7ECFC099910200890FFF7E7FC112095
:1039E000009007210B91FFF7E1FC01980999FFF77F
:1039F000DDFC099913200290FFF7D8FCC820FDF7E1
:103A00008DF9089841F29061FFF7D0FC009840F2E0
:103A10002721FFF7CBFC32200390FDF77FF90198B7
:103A20001D21FFF7C3FC0398FDF778F902984FF4C6
:103A30000061FFF7BBFC29201421FFF7B7FC2B2006
:103A40000B21FFF7B3FC0398FDF768F909992020D3
:103A5000FFF7ACFC09992120FFF7A8FC0B99302057
:103A6000FFF7A4FC312040F20771FFF79FFC039899
:103A70000621FFF79BFC352040F20471FFF796FC0E
:103A8000362041F60471FFF791FC04993720FFF7C7
:103A90008DFC09993820FFF789FC392040F2067126
:103AA000FFF784FC3C2040F20171FFF77FFC059991
:103AB0003D20FFF77BFC09995020FFF777FC069922
:103AC0005120FFF773FC09995220FFF76FFC532038
:103AD00040F23F11FFF76AFC60204FF41C51FFF7E2
:103AE00065FC07996120FFF761FC09996A20FFF7DF
:103AF0005DFC09998020FFF759FC09998120FFF7A7
:103B000055FC09998220FFF751FC09998320FFF7A2
:103B10004DFC09998420FFF749FC09998520FFF79E
:103B200045FC08999020FFF741FC09999220FFF786
:103B30003DFC0A999320FFF739FC95204FF48871DA
:103B4000FFF734FC09999720FFF730FC099998207A
:103B5000FFF72CFC0A9841F21801FFF727FC0B989D
:103B600040F27311FFF722FC0CB080BD70470000DB
:103B700080B582B0009000980138B0F1807F03D307
:103B8000FFE70120019019E0009801384EF214017E
:103B9000CEF2000108604FF0FF300F2100F0F6FB7D
:103BA0004EF21801CEF20001002008604EF2100221
:103BB000CEF20002072111600190FFE7019802B0E8
:103BC00080BD000080B5FDF7B3FA80BD80B594B02C
:103BD00006A800903821FCF722FB002005900490F5
:103BE0000390029001904FF40070FDF75BFB00988A
:103BF000012106914FF48031079102210D9103229A
:103C00000E920F9214221092119112911391FDF7BE
:103C10003FFE18B1FFE7FCF7A3FEFFE70F2001907E
:103C200003200290002003900490059001A8022137
:103C3000FDF71CFC18B1FFE7FCF792FEFFE714B09C
:103C400080BD00004EF68851CEF20001086840F4B5
:103C5000700008607047000083B0029001910298E4
:103C600000680090029842F60041C4F201018842C7
:103C70001DD0FFE70298B0F1804F18D0FFE70298FF
:103C800040F20041C4F20001884210D0FFE70298E0
:103C900040F60001C4F20001884208D0FFE7029814
:103CA00043F20041C4F2010188420AD1FFE70098C3
:103CB00020F070000090019841680098084300903F
:103CC000FFE7029842F60041C4F20101884235D074
:103CD000FFE70298B0F1804F30D0FFE7029840F242
:103CE0000041C4F20001884228D0FFE7029840F664
:103CF0000001C4F20001884220D0FFE7029843F29D
:103D00000041C4F20101884218D0FFE7029844F252
:103D10000001C4F20101884210D0FFE7029844F28A
:103D20000041C4F20101884208D0FFE7029844F63E
:103D30000001C4F2010188420AD1FFE7009820F493
:103D4000407000900198C168009808430090FFE718
:103D5000009820F08000019949690843009000987C
:103D600002990860019880680299C8620198006809
:103D700002998862029842F60041C4F20101884229
:103D800020D0FFE7029843F20041C4F201018842CB
:103D900018D0FFE7029844F20001C4F20101884202
:103DA00010D0FFE7029844F20041C4F201018842BA
:103DB00008D0FFE7029844F60001C4F201018842EE
:103DC00005D1FFE70198006902990863FFE70299AE
:103DD0000120486102980069C00730B1FFE70299ED
:103DE000086920F001000861FFE703B07047000098
:103DF00084B0039002910192029800F01F0101200B
:103E000088400090009A0399086A904308620198DC
:103E1000029901F01F0100FA01F20399086A1043A8
:103E2000086204B07047000080B582B0019001982C
:103E3000806A009001980099496A884210D1FFE792
:103E40000099012008770198C06940B9FFE70099FF
:103E5000012081F83E00009981F84400FFE745E029
:103E600001980099896A884210D1FFE700990220E1
:103E700008770198C06940B9FFE70099012081F8EF
:103E80003F00009981F84500FFE72EE00198009976
:103E9000C96A884210D1FFE7009904200877019889
:103EA000C06940B9FFE70099012081F840000099FE
:103EB00081F84600FFE717E001980099096B8842F6
:103EC00010D1FFE70099082008770198C06940B930
:103ED000FFE70099012081F84100009981F847002F
:103EE000FFE700E0FFE7FFE7FFE7FFE70098FEF7E7
:103EF00079FB00990020087702B080BD80B582B0C0
:103F000001900198806A009001980099496A88425E
:103F100004D1FFE700990120087721E0019800997A
:103F2000896A884204D1FFE700990220087716E0E9
:103F300001980099C96A884204D1FFE700990420DA
:103F400008770BE001980099096B884204D1FFE7DC
:103F500000990820087700E0FFE7FFE7FFE7FFE7A9
:103F60000098FEF795FC00990020087702B080BD0C
:103F700080B582B001900198806A00900198009904
:103F8000496A884207D1FFE7009901200877009924
:103F900081F83E0031E001980099896A884208D191
:103FA000FFE70099022008770099012081F83F007F
:103FB00022E001980099C96A884208D1FFE7009978
:103FC000042008770099012081F8400013E001984F
:103FD0000099096B884208D1FFE70099082008770B
:103FE0000099012081F8410004E00099012081F846
:103FF0003D00FFE7FFE7FFE7FFE70098FEF7EEFA77
:1040000000990020087702B080BD000085B00490C0
:10401000039102920193049880680090009820F424
:104020007F40009003980299019A41EA02210143DE
:1040300000980843009000980499886005B0704784
:1040400083B00290019102988068009000984FF62A
:104050008F71CFF6CF710840009001980099084306
:1040600040F00700009000980299886003B0704704
:1040700085B00490039102920498006A009004991C
:10408000086A20F001000862049880690190019894
:1040900020F0F00001900299019840EA011001908F
:1040A000009820F00A0000900399009808430090BF
:1040B00001980499886100980499086205B07047D6
:1040C00087B006900591049203930698006A0190C8
:1040D0000699086A20F0010008620698806902903B
:1040E0000699012042F60042C4F20102914200907A
:1040F00030D0FFE706990120B1F1804F009029D020
:10410000FFE70699012040F20042C4F2000291420A
:1041100000901FD0FFE70699012040F60002C4F28C
:1041200000029142009015D0FFE70699012043F26A
:104130000042C4F20102914200900BD0FFE70698C2
:104140004CF20001CBF6FE710844B0FA80F0400951
:104150000090FFE70098C00748B1FFE7029820F001
:1041600003000290049902980843029004E0029828
:1041700040F001000290FFE7029820F0F00002906A
:1041800003980001C1B2029808430290019820F000
:104190000A000190059800F00A0101980843019077
:1041A00002980699886101980699086207B07047DD
:1041B00085B00490039102920498006A00900499DB
:1041C000086A20F010000862049880690190019844
:1041D00020F4704001900299019840EA013001906A
:1041E000009820F0A00000900399009840EA011088
:1041F000009001980499886100980499086205B0BC
:104200007047000086B005900491039202930598D0
:10421000006A00900599086A20F01000086205986D
:1042200080690190019820F44070019003990198F1
:1042300040EA01200190019820F47040019002981A
:10424000000381B2019808430190009820F0A0007B
:104250000090049800F00A01009840EA01100090D4
:1042600001980599886100980599086206B0704721
:1042700086B005900491039202930598006A00901D
:104280000599086A20F4807008620598C069019059
:10429000019820F0030001900399019808430190D0
:1042A000019820F0F000019002980001C1B201983D
:1042B00008430190009820F420600090049800F0DA
:1042C0000A01009840EA0120009001980599C86110
:1042D00000980599086206B07047000086B0059006
:1042E0000491039202930598006A00900599086A68
:1042F00020F4805008620598C0690190019820F46C
:10430000407001900399019840EA012001900198C2
:1043100020F4704001900298000381B20198084394
:104320000190009820F420400090049800F00A01C9
:10433000009840EA0130009001980599C861009802
:104340000599086206B07047FFE7FEE781B08DF877
:1043500003009DF9030000280ED4FFE79DF9031028
:1043600001F01F02012090404A094EF20011CEF2E6
:10437000000141F82200FFE701B070474EF60C50F3
:10438000CEF200000068C0F30220704782B08DF8C2
:10439000070000919DF9070000280AD4FFE7009864
:1043A00000019DF907104EF20042CEF2000288543F
:1043B0000BE0009800019DF8071001F00F014EF688
:1043C0001452CEF200028854FFE702B0704700009A
:1043D00083B00290029800F0070000904EF60C5156
:1043E000CEF200010868019001984FF6FF021040DC
:1043F00001900198009A40EA02200022C0F2FA528D
:10440000104301900198086003B0704780B582B0F6
:1044100040F2CC10C2F20000019040F21822C2F229
:104420000002002102230093FEF726FB009B019867
:1044300040F22022C2F200020421FEF71DFB009B85
:10444000019840F22822C2F200020821FEF714FB74
:10445000009B019840F23022C2F200020C21FEF7CC
:104460000BFB02B080BD000080B582B040F23B2162
:10447000C2F200010020087040F20040C4F60000C3
:104480000121FCF721FE38B9FFE740F23B21C2F2DF
:10449000000101200870FFE740F20040C4F6000070
:1044A0000221FCF711FE38B9FFE740F23B21C2F2CE
:1044B000000102200870FFE740F20040C4F600004F
:1044C0000421FCF701FE38B9FFE740F23B21C2F2BC
:1044D000000103200870FFE74FF090400121FCF736
:1044E000F3FD38B9FFE740F23B21C2F2000104209E
:1044F0000870FFE740F23B21C2F20001087840F269
:104500003922C2F2000213784340034040F23820BF
:10451000C2F20000037091F800C0137883EA0C0324
:1045200023EA0C0340F23A2CC2F2000C8CF8003063
:10453000097811700078013801460191032808D8E4
:104540000199DFE801F00203040503E002E001E065
:1045500000E0FFE702B080BD82B080B58CB00F9361
:104560000E928DF82F000A910EA801900A99019AD7
:104570000DF10A00009000F0E7F800999DF82F0077
:10458000FEF780FD0CB0BDE8804002B0704700002F
:1045900080B582B0FEF702FE00200190FEF7C6FC57
:1045A0000198FEF771FE4FF6FF70FEF78BFE02B02A
:1045B00080BD000080B540F24400C2F200000268F5
:1045C00046F25021C0F600010020FFF7C5FF40F27F
:1045D0003C00C2F200000068FBF72CFE41EC100B1F
:1045E00053EC102B46F22821C0F600011820FFF7EB
:1045F000B3FF40F24800C2F20000026846F26221B6
:10460000C0F600013020FFF7A7FF40F24000C2F2E1
:1046100000000068FBF70EFE41EC100B53EC102B72
:1046200046F23C21C0F600014820FFF795FF80BD0F
:1046300080B586B040F60000C4F6000001904FF44B
:104640007F4101220292FCF757FD019840F23C2184
:10465000C2F200010978090200220592FCF74CFD24
:10466000029A40F60040C4F6000003900421049131
:10467000FCF742FD03980499059AFCF73DFD06B04E
:1046800080BD000080B582B000200190FCF75EFD87
:10469000FFF79CFAFEF716FFFEF7CCFEFEF7AEFF23
:1046A000FFF776FFFFF7C4FF00F04CF8FFE700F0DC
:1046B00001F8FCE780B582B000208DF80700FFE725
:1046C0009DF8070040F20801C2F200010978884213
:1046D00036DAFFE740F24020C2F2000000689DF8A1
:1046E000071001EB410240F20C01C2F2000101EBA4
:1046F00082014A688968114488421AD3FFE79DF80D
:10470000070000EB400140F20C00C2F200000090F4
:1047100050F821008047009940F24020C2F200008A
:1047200000689DF8072002EB420201EB82018860DD
:10473000FFE7FFE79DF8070001308DF80700BFE7AE
:1047400002B080BD7047000037B514460846064BDE
:104750006A46214600F0DCF804466946002000F075
:104760006EFC20463EBD00003F50000802E008C835
:10477000121F08C1002AFAD170477047002001E0DB
:1047800001C1121F002AFBD1704700002DE9FF5F15
:1047900082B00021DDE90430020DDDF840B00343B2
:1047A00018D044F61050A2F2FF324243151411986B
:1047B00001281FD0A5EB0B00401C5FEA000A4FF058
:1047C00000064E4FDFF83891B046504615D5CAF175
:1047D000000413E0119801244AA3012801D16FEAD3
:1047E0000B010298119AC0E90031C0E9024206B0FB
:1047F000BDE8F09FCBF10000DFE704460021404A0E
:10480000491842EB0450CDE9001012E0E00707D050
:1048100032463B4640464946FBF70DFE80468946F8
:1048200032463B4610461946FBF705FE06460F4644
:104830006410002CEAD1DDE90401DDE90023BAF1BE
:10484000000F06DAFBF7F7FD42464B46FBF7F3FD98
:1048500005E0FBF762FE42464B46FBF75EFE044670
:104860000E460022284BFBF7DFFE03D84FF0FF3047
:10487000014607E00022254B20463146FBF734FD78
:10488000FBF7BAFE102409E0002C0ADB0A22002301
:10489000FBF7F9FC039B30321A55641E50EA010203
:1048A000F2D1641C039AC4F111031444119A012A31
:1048B00003D0012208430DD10AE0084304D00020B0
:1048C0004FF0110B119072E7A3EB0B056D1E0DE07D
:1048D0005B4504DD4FF0000205F1010504E003DA59
:1048E0004FF00002A5F10105002AECD002981199C1
:1048F000C0E90231C0E9004579E70000000014403A
:104900000000F03F300000000000F0430000E03FF6
:104910002DE9FF4F95B09B468946064600250FE2DC
:10492000252877D100242746F84A0121059400E084
:10493000044316F8013F203B01FA03F01042F7D17F
:1049400030782A2811D06FF02F033078A0F1300290
:10495000092A16D8059A44F0020402EB820203EBFE
:1049600042021044761C0590EFE759F8042B05929B
:10497000002A03DA504244F40054059044F0020443
:10498000761C30782E2816D116F8010F44F0040456
:104990002A280DD06FF02F023078A0F13003092BB8
:1049A00009D807EB870302EB4303C718761CF3E72C
:1049B00059F8047B761C30786C280FD006DC4C2824
:1049C00017D068280DD06A2814D104E0742810D0BC
:1049D0007A280FD10DE044F400140AE044F4801466
:1049E00001E044F440147278824202D104F580144C
:1049F000761C761C307866280BD013DC582877D0CC
:104A000009DC002875D04528F6D04628F4D0472880
:104A10001AD19DE118E0632835D0642879D0652843
:104A200012D195E1702873D008DC6728F1D069288D
:104A30006FD06E280DD06F2806D1B5E073282CD02A
:104A4000752875D0782874D05A46179990476D1CF0
:104A500075E1C4F30250022809D003280DD0D9F81B
:104A6000001004280DD00D6009F1040967E1D9F8A0
:104A70000010EA17C1E90052F6E7D9F800100D80DE
:104A8000F2E70D70F0E719F8041B8DF80010002014
:104A90008DF80100EA46012003E059F804AB4FF01D
:104AA000FF3061074FF0000102D40DE008F1010171
:104AB0008846B9420FDA8045F8DB1AF80810002959
:104AC000F4D108E008F1010188468142FADB1AF8C6
:104AD00008100029F6D105985B46A0EB080721468F
:104AE0003846179A00F094FA284400EB080507E0CE
:104AF0004DE029E10DE01AF8010B5A46179990474D
:104B0000B8F10108F7D25B4621463846179A13E1FF
:104B100042E00A220092C4F302524FF0000A022A35
:104B200008D059F804CB032A4FEAEC710AD00DE003
:104B300029E02AE009F1070121F00702F2E802C1A9
:104B4000914609E00FFA8CFC4FEAEC71042A03D17C
:104B50004FFA8CFC4FEAEC71002907DA0A46002173
:104B6000DCF1000C61EB02012D2202E0220504D5EC
:104B70002B228DF80420012203E0E20701D020223D
:104B8000F7E7904659E00A2102E010220DE01021DB
:104B90004FF0000A00910BE010224FF0000A44F0A1
:104BA00004040827009203E008224FF0000A009254
:104BB000C4F30252022A05D059F804CB0021032A7B
:104BC00008D009E009F1070121F00702F2E802C16B
:104BD000914605E01FFA8CFC042A01D10CF0FF0C71
:104BE0004FF00008220728D5702806D0009B83F0DC
:104BF000100353EA0A0305D00EE040228DF804208A
:104C0000012208E05CEA010206D030228DF804207F
:104C10008DF8050002229046009B83F0080353EABA
:104C20000A030AD15CEA010201D1620705D53022EC
:104C30008DF804204FF001087F1E582804D034A0BE
:104C400003900EA802900DE036A0F9E753466046A7
:104C5000009AFBF718FB84460398825C0298401E7A
:104C6000029002705CEA0100F0D1029806A9081ACD
:104C700000F1200A600702D524F4803400E0012707
:104C8000574502DDA7EB0A0000E0002000EB0A0117
:104C9000009005984144401A0590E00306D45B4615
:104CA0002146179A059800F0B3F90544002706E05D
:104CB00001A85A46C05D179990476D1C7F1C474557
:104CC000F6DBE0030CD55B462146179A059800F009
:104CD0009FF9054404E030205A46179990476D1C0F
:104CE0000099481E00900029F5DC08E0029802991E
:104CF0005A460078491C0291179990476D1CBAF1E9
:104D00000001AAF1010AF1DC65E1000009280100B7
:104D10003031323334353637383961626364656631
:104D200000000000303132333435363738394142F3
:104D3000434445460000000000F058F90544761C45
:104D4000307800287FF4ECAD19B02846BDE8F08F2C
:104D5000620700D4062709F1070222F0070CFCE8DD
:104D60000223E14603F000485FEA080C02D00FF28C
:104D7000702C0DE05FEA045C02D50FF2682C07E0AE
:104D80005FEAC47C02D00FF2602C01E0AFF2700C3D
:104D90004FF0FF3823F00043CDF850C065280CD009
:104DA00006DC452809D046281DD047283DD13DE0E6
:104DB000662818D067287ED138E00021112F01DB4A
:104DC000112000E0781CCDE9000106A90EA8FFF72C
:104DD000DDFCDDE90F010E9A03910021009207F13D
:104DE000010A04914DE04FF000400097CDE9011019
:104DF00006A90EA8FFF7CAFCDDE90F0203920E9B7D
:104E000011990022DDF80CA00093049211B9791CCD
:104E100000EB010AB7EB0A0004D4C0F1FF3007F140
:104E2000010A0490AAEB0700019044E0012F00DA88
:104E300001270021112F01DD112000E03846CDE9C6
:104E4000000106A90EA8FFF7A1FCDDE90F010E9AEB
:104E50000391002104910092BA4621070CD40399D2
:104E6000514500DA8A46BAF1010F05DD009AAAF130
:104E70000101515C302908D0B84202DA10F1040F68
:104E800006DA0121CDE9011015E0AAF10101E9E7F7
:104E9000002805DC049901440491AAEB000102E01A
:104EA000411C514500DD8A460499401A401C01907E
:104EB0004FF000400290200704D40198504501DBD8
:104EC000CDF8048000208DF84F0002980DF14F07B7
:104ED000B0F1004F25D02B200E9002984FF0020821
:104EE00000280CDA404202902D200E9007E00A21A3
:104EF0000298FBF7B2F93031029007F8011DB8F1C2
:104F00000001A8F10108F2DC02980028EFD1791E17
:104F10000E980870307800F0200040F0450007F847
:104F2000020D12A8C01B00F107081498007800B108
:104F3000012000EB0A01019801EBE0710598414462
:104F4000401A401E0590E00306D45B462146179A9E
:104F5000059800F05DF805441498007818B15A4699
:104F6000179990476D1CE00324D55B462146179A9C
:104F7000059800F04DF805441CE00498002807DB74
:104F8000DDE90301884203DD0098405C179901E0E8
:104F9000179930205A469047049805F10105401CA6
:104FA00004900198401E019004D12E205A46179972
:104FB00090476D1CBAF10001AAF1010ADDDC05E0A1
:104FC00017F8010B5A46179990476D1CB8F100016C
:104FD000A8F10108F4DC5B462146179A0598ABE678
:104FE0002D0000002B000000200000002DE9F04102
:104FF000044600251E461746880404D405E03946B9
:105000002020B0476D1C641EF9D52846BDE8F0810C
:105010002DE9F041044600251E469046C80301D5FF
:10502000302700E02027880404D505E041463846B3
:10503000B0476D1C641EF9D52846BDE8F0810A68AA
:10504000531C0B601070704700000000000000004F
:105050000102030406070809000000000000000028
:105060000000000000000000000000000000000040
:105070000000000000000000000000000000000030
:10508000000000000000000000008001800180019D
:105090008001800180018001800180018001800108
:1050A00080018001000000008001800100000000FC
:1050B000000000000000000000000000CC00CC0058
:1050C000CC00CC00CC00CC000000000000000000B0
:1050D00000000000000000000000000000000000D0
:1050E00000000000000000000000000000000000C0
:1050F00000000000600C600C600C30063006FE1FE3
:10510000FE1F300638071803FE1FFE1F1803180382
:105110008C018C018C01000000008000E003F80F7E
:105120009C0E8C1C8C188C009800F801E007800EF7
:10513000801C8C188C189C18B80CF00FE0038000B1
:1051400080000000000000000000000000000E18B9
:105150001B0C110C11061106110311039B018E018A
:10516000C038C06C60446044304430441844186C0B
:105170000C380000000000000000E001F0033807D8
:10518000180618063003F001F000F8009C310E33C9
:10519000061E061C061C063FFC73F02100000000E2
:1051A0000000000000000000000000000C000C00E7
:1051B0000C000C000C000C000000000000000000BF
:1051C00000000000000000000000000000000000DF
:1051D0000000000000000000000000020003800149
:1051E000C000C000600060003000300030003000BF
:1051F000300030003000300060006000C000C000AF
:105200008001000300020000000020006000C000D8
:10521000800180010003000300060006000600066E
:10522000000600060006000600030003800180015E
:10523000C00060002000000000000000000000002E
:1052400000000000C000C000D806F807E0013003ED
:10525000380700000000000000000000000000000F
:10526000000000000000000000000000000000003E
:105270000000000080018001800180018001FC3F6E
:10528000FC3F80018001800180018001000000005E
:10529000000000000000000000000000000000000E
:1052A00000000000000000000000000000000000FE
:1052B00000000000000000000000800180010001EB
:1052C000000180000000000000000000000000005D
:1052D00000000000000000000000000000000000CE
:1052E000E007E007000000000000000000000000F0
:1052F00000000000000000000000000000000000AE
:10530000000000000000000000000000000000009D
:1053100000000000000000000000C000C00000000D
:1053200000000000000000000000000C000C00065F
:1053300000060006000300030003800380018001D3
:105340008001C000C000C0006000600000000000DC
:1053500000000000000000000000E003F007380E2D
:10536000180C0C180C180C180C180C180C180C181D
:105370000C180C18180C380EF007E00300000000A1
:105380000000000000000000000000018001C001DA
:10539000F001980188018001800180018001800175
:1053A00080018001800180018001800100000000F7
:1053B00000000000000000000000E003F80F180CDF
:1053C0000C180C1800180018000C000600038001CF
:1053D000C000600030001800FC1FFC1F000000002F
:1053E00000000000000000000000E001F807180EB7
:1053F0000C0C0C0C000C0006C003C007000C0018BD
:1054000000180C180C18180CF807E0030000000036
:1054100000000000000000000000000C000E000F63
:10542000000F800DC00C600C600C300C180C0C0CC4
:10543000FC3FFC3F000C000C000C000C00000000C6
:1054400000000000000000000000F80FF80F180036
:1054500018000C00EC03FC071C0E001C00180018C0
:1054600000180C181C0C180EF807E00300000000D0
:1054700000000000000000000000C007F00F381C12
:10548000181818000C00CC03EC0F3C0E1C1C0C1858
:105490000C180C18181C380EF007E0030000000070
:1054A00000000000000000000000FC1FFC1F000CBA
:1054B00000060006000380038001C001C000E00078
:1054C000600060007000300030003000000000001C
:1054D00000000000000000000000E003F007380EAC
:1054E000180C180C180C3806F007F007180C0C18DC
:1054F0000C180C180C18380CF80FE0030000000012
:1055000000000000000000000000E003F007380E7B
:105510001C0C0C180C180C181C1C381EF81BE0195D
:105520000018000C000C1C0EF807F0010000000031
:10553000000000000000000000000000000000006B
:105540000000000080018001000000000000000059
:105550000000000000000000800180010000000049
:10556000000000000000000000000000000000003B
:105570000000000080018001000000000000000029
:105580000000000000000000800180010001000117
:10559000800000000000000000000000000000008B
:1055A00000000000000000000010001C800FE0035D
:1055B000F8001800F800E003800F001C0010000045
:1055C00000000000000000000000000000000000DB
:1055D0000000000000000000F81F000000000000B4
:1055E000F81F0000000000000000000000000000A4
:1055F00000000000000000000000000000000000AB
:10560000000000000000000008003800F001C007A2
:10561000001F0018001FC007F0013800080000003C
:1056200000000000000000000000E003F80F180C6C
:105630000C180C180018000C000600038001C000B4
:10564000C000C00000000000C000C000000000005A
:10565000000000000000000000000000E007181833
:105660000420C229224A1144094409440944092258
:105670001113E20C024004201818E007000000009B
:105680000000000000000000000080038003C0064E
:10569000C006C006600C600C301830183018F83F97
:1056A000F83F1C700C600C6006C006C000000000D3
:1056B00000000000000000000000FC03FC0F0C0CC8
:1056C0000C180C180C180C0CFC07FC0F0C180C30E8
:1056D0000C300C300C300C18FC1FFC0700000000D4
:1056E00000000000000000000000C007F01F383874
:1056F0001C300C700660060006000600060006005E
:10570000060006600C701C30F01FE007000000006F
:1057100000000000000000000000FE03FE0F060E67
:1057200006180618063006300630063006300630F9
:10573000063006180618060EFE0FFE0300000000D5
:1057400000000000000000000000FC3FFC3F0C00D7
:105750000C000C000C000C00FC1FFC1F0C000C00CB
:105760000C000C000C000C00FC3FFC3F0000000093
:1057700000000000000000000000F83FF83F1800A3
:105780001800180018001800F81FF81F180018005B
:105790001800180018001800180018000000000079
:1057A00000000000000000000000E00FF83F3C781F
:1057B0000E6006E007C00300030003FE03FE03C003
:1057C00007C006C00EC03CF0F83FE00F000000002C
:1057D000000000000000000000000C300C300C3015
:1057E0000C300C300C300C30FC3FFC3F0C300C30DB
:1057F0000C300C300C300C300C300C300000000041
:105800000000000000000000000080018001800115
:105810008001800180018001800180018001800180
:105820008001800180018001800180010000000072
:105830000000000000000000000000060006000656
:105840000006000600060006000600060006000628
:105850000006180618063807F003E00100000000F3
:105860000000000000000000000006300618060CD2
:10587000060606038601C60066007600DE008E017D
:1058800006030606060C0618063006600000000037
:1058900000000000000000000000180018001800C0
:1058A0001800180018001800180018001800180038
:1058B0001800180018001800F81FF81F000000005A
:1058C000000000000000000000000EE01EF01EF0CE
:1058D0001EF036D836D836D836D866CC66CC66CCEC
:1058E000C6C6C6C6C6C6C6C686C386C300000000F6
:1058F000000000000000000000000C301C303C30B4
:105900003C306C306C30CC30CC308C310C330C33C0
:105910000C360C360C3C0C3C0C380C3000000000F3
:1059200000000000000000000000E007F81F1C3825
:105930000E70066003C003C003C003C003C003C0F1
:1059400003C006600E701C38F81FE007000000005E
:1059500000000000000000000000FC0FFC1F0C38DD
:105960000C300C300C300C300C18FC1FFC070C00F9
:105970000C000C000C000C000C000C0000000000DF
:1059800000000000000000000000E007F81F1C38C5
:105990000E70066003E003C003C003C003C003C071
:1059A00007E006630E3F1C3CF83FE0F700C0000034
:1059B00000000000000000000000FE0FFE1F06387F
:1059C0000630063006300638FE1FFE0706030606C0
:1059D000060C0618061806300630066000000000A7
:1059E00000000000000000000000E003F80F1C0CA5
:1059F0000C180C180C001C00F803E00F001E0038F7
:105A0000063006300E301C1CF80FE00700000000C6
:105A100000000000000000000000FE7FFE7F80010B
:105A2000800180018001800180018001800180016E
:105A30008001800180018001800180010000000060
:105A4000000000000000000000000C300C300C30A2
:105A50000C300C300C300C300C300C300C300C3066
:105A60000C300C300C301818F81FE0070000000054
:105A70000000000000000000000003600630063057
:105A800006300C180C180C18180C180C380E3006B0
:105A90003006700760036003C001C0010000000011
:105AA000000000000000000000000360C361C3614B
:105AB000C3616633663366336633663366336C1BA5
:105AC0006C1B6C1B2C1A3C1E380E380E000000009C
:105AD000000000000000000000000FE00C70183013
